:10000000282D0020011B0000551B00008519000051
:100010008519000085190000851900008519000068
:100020008519000085190000851900008915000058
:10003000851900008519000045150000851900008C
:10004000C51A000073110100C51A0000C51A00008E
:10005000C51A0000C51A0000C51A0000C51A000024
:10006000C51A0000C51A0000C51A0000C51A000014
:10007000C51A0000C51A0000C51A0000C51A000004
:10008000C51A0000C51A0000C51A0000C51A0000F4
:10009000C51A0000C51A0000C51A0000C51A0000E4
:1000A000C51A0000C51A0000C51A0000C51A0000D4
:1000B000C51A0000C51A0000C51A0000C51A0000C4
:1000C000C51A0000C51A0000C51A0000C51A0000B4
:1000D000C51A0000C51A0000C51A00000000000083
:1000E0007912000000000000F91800000000000074
:1000F000F918000000000000F918000000000000DE
:10010000F918000000000000F918000000000000CD
:100110000D32010000000000F9180000000000008E
:10012000F918000000000000F918000000000000AD
:10013000F918000000000000391101000000000063
:10014000F9180000243F00201135010000000000D4
:10015000F918000000000000F9180000000000007D
:10016000F918000000000000A113000000000000CA
:10017000F918000000000000F9180000000000005D
:10018000F918000000000000F9180000000000004D
:10019000F918000000000000F9180000000000003D
:1001A0006D11010000000000F918000000000000BF
:1001B000F918000000000000F9180000000000001D
:1001C000F918000000000000F9180000000000000D
:1001D000F918000000000000F918000000000000FD
:1001E000F918000000000000F918000000000000ED
:1001F000F918000000000000F918000000000000DD
:10020000F918000000000000F918000000000000CC
:10021000F918000053B94AB9002908BF00281CBFCB
:100220004FF0FF314FF0FF3000F08EB9ADF1080C08
:100230006DE904CE00F01AF8DDF804E0DDE90223F0
:1002400004B07047430803F05533C01A830803F025
:10025000333300F03330184400EB101000F00F304F
:1002600000EB002000EB0040000E70472DE9F04746
:100270008C460D460446089E002B51D18A421746F3
:100280006DD9B2FA82FEBEF1000F0BD0CEF1200C78
:1002900001FA0EF520FA0CFC02FA0EF74CEA050CF6
:1002A00000FA0EF44FEA174A250CBCFBFAF81FFAC5
:1002B00087F90AFB18CC45EA0C4508FB09F3AB4269
:1002C0000AD9ED1908F1FF3280F02381AB4240F2E8
:1002D0002081A8F102083D44ED1AA4B2B5FBFAF062
:1002E0000AFB105544EA054400FB09F9A14509D968
:1002F000E41900F1FF3380F00A81A14540F2078143
:1003000002383C44A4EB090440EA08400021002ED6
:1003100061D024FA0EF4002334607360BDE8F087E6
:100320008B4207D9002E54D0002186E821000846D0
:10033000BDE8F087B3FA83F1002940F08E80AB422C
:1003400002D3824200F2FA80841A65EB0305012091
:10035000AC46002E3FD086E81010BDE8F08712B9F9
:100360000127B7FBF2F7B7FA87FEBEF1000F34D1D1
:10037000EB1B3A0C1FFA87FC0121B3FBF2F8250CAA
:1003800002FB183345EA03450CFB08F3AB4207D9DF
:10039000ED1908F1FF3002D2AB4200F2D180804665
:1003A000ED1AA3B2B5FBF2F002FB105543EA054487
:1003B0000CFB00FCA44507D9E41900F1FF3302D27D
:1003C000A44500F2B8801846A4EB0C0440EA0840AB
:1003D0009DE731463046BDE8F087CEF1200405FAAE
:1003E0000EF307FA0EF720FA04F83A0C25FA04F493
:1003F00048EA0308B4FBF2F14FEA184502FB114446
:100400001FFA87FC45EA044501FB0CF3AB4200FAF6
:100410000EF409D9ED1901F1FF3080F08A80AB426A
:1004200040F2878002393D44EB1A1FFA88F5B3FB8E
:10043000F2F002FB103345EA034500FB0CF3AB423C
:1004400007D9ED1900F1FF386FD2AB426DD90238F0
:100450003D44EB1A40EA01418FE7C1F1200722FA3F
:1004600007F88B4005FA01F448EA030320FA07FE77
:100470004FEA134CFD404EEA040EB5FBFCF94FEA7F
:100480001E440CFB19551FFA83F844EA054509FB85
:1004900008F4AC4202FA01F200FA01FA08D9ED18A8
:1004A00009F1FF3043D2AC4241D9A9F102091D4400
:1004B0002D1B1FFA8EFEB5FBFCF00CFB10554EEA0F
:1004C000054400FB08F8A04507D9E41800F1FF3502
:1004D00029D2A04527D902381C4440EA0940A4EBA0
:1004E0000804A0FB02894C45C6464D4615D312D0E0
:1004F00056B1BAEB0E0364EB050404FA07F7CB40E0
:100500001F43CC40376074600021BDE8F087184677
:10051000F8E69046E0E6C245EAD2B8EB020E69EB97
:1005200003050138E4E72846D7E7404691E78146CE
:10053000BEE7014678E702383C4445E7084608E74D
:10054000A8F102083D442BE7704700BF70B503785F
:100550008AB004460E4607AD032B20D8DFE803F02F
:1005600002191B1D1149284601F026FB62780492EE
:10057000A2780392E2780292227901926279009243
:10058000A37905950A4A1B21304600F00DFD0AB0FB
:1005900070BD0849E7E70849E5E70849E3E7084A85
:1005A0000A21284600F000FDE0E700BFC14B010032
:1005B000EA4B0100C84B0100CF4B0100D94B0100B1
:1005C000E34B010030B589B00D46044604F082F8D3
:1005D00001A9FFF7BBFF35B12A4601A9084800F081
:1005E000D5FC09B030BD074B1B689C42F9D101A96D
:1005F000054800F0CBFC1321204604F01BF9F0E77E
:100600000D4C0100000000202B4C010030B5134CB4
:10061000236883428BB00D461DD104F05BF803A91B
:10062000FFF794FF2A4603A90D4800F0AFFC2068AD
:1006300003F086FE002323600A4B0B4918680190E3
:100640009B88ADF8083001A803F052FA014610B1BA
:10065000064800F09BFC0BB030BD00BF000000203E
:10066000564C0100644B010071060000744C0100FF
:1006700070B5104C23688AB006460D46C3B9012AEE
:1006800016D803A9FFF762FF2A4603A90A4800F01B
:100690007DFC46350CDB03F07DFA48B9074A10684B
:1006A000516801AB03C301A9304604F015F820607E
:1006B0000AB070BD000000203A4C01006A4B0100F6
:1006C00007B5002003F0A0F9014628B10E4800F05C
:1006D0005DFC03B05DF804FB0C4800F057FC0C48CF
:1006E00003F0FAFA0B4B0C49186800909B88ADF8A0
:1006F0000430684603F0FCF9014608B10748E6E714
:10070000074800F043FCE4E7974C0100B74C0100B8
:10071000683A0020724B010071060000744C010021
:10072000CE4C01000C4B1B78062B12D10B4B1868DA
:1007300010F00F000DD104331B6803F0F003302BD1
:1007400008D1074B1B6813F0F00F0CBF01200020ED
:1007500070470020704700BFE00F00F0E40F00F08A
:10076000EC0F00F008B54FF02003EFF3118183F395
:100770001188FFF7D7FF20B13D4AD36823F080737B
:10078000D360FFF7CFFF10B13A4B03221A60FFF797
:10079000C9FF30B14FF080430022C3F80C21C3F8E9
:1007A0001021354B1B78062B17D1344B1B681807CB
:1007B00013D1334B1B6803F0F002302A03D003F04F
:1007C000E003402B09D14FF08043D3F80024D20737
:1007D00003D56FF00102C3F800244FF01022D2F8C5
:1007E0000032002B274B03DBD2F80022002A2FDA3D
:1007F0000122C3F80425D3F80024002AFBD04FF0CF
:1008000010231522C3F800221E4A1346D2F8001402
:100810000029FBD04FF010221521C2F80412D3F8A2
:100820000024002AFBD00022C3F80425154AD2F880
:100830000034002BFBD0BFF34F8F1349134BCA6812
:1008400002F4E0621343CB60BFF34F8F00BFFDE7BC
:100850000122C3F840250C4B4FF0FF329A62DA6256
:100860000B4B0C4A1A6081F31188002008BD00BFB1
:10087000F0ED00E0A0050040E00F00F0E40F00F014
:10088000E80F00F000E0014000ED00E00400FA0590
:100890009C3A00200090D00308B504460846114653
:1008A0001A46A04713F0BEFB01F0E4F810B5C47A75
:1008B000C0688C424FF00C04B6BF614304FB0101D9
:1008C0004158202492FBF4F401EB8401196002F0FA
:1008D0001F0010BD07B501ABFFF7E8FF019A012328
:1008E00003FA00F013680343136003B05DF804FBE0
:1008F00007B501ABFFF7DAFF019A012303FA00F015
:10090000136823EA0003136003B05DF804FB2DE9CC
:10091000F0474368058904460068A77A5D43284488
:1009200000214FF00C0E4FF0200CB94205DB0025E2
:1009300023899D4223DBBDE8F087D4F80C90B5FBFA
:10094000F3F20EFB01F81F2A09EB08064FEA9303A6
:1009500006F1040AC8BF1F3203F10303C6F804A05E
:10096000C6F808A0CABF92FBFCF2E17249F8080081
:1009700023F00303C8BF00EB82000131D5E76268B2
:10098000E36820686A431E1D865081189A684A6091
:100990009A682046116099602A460021FFF79AFF65
:1009A0000135C5E72DE9F04F8BB0867A00AF0446DC
:1009B000FB60B3000A3323F00703ADEB030D43687C
:1009C0003A6103336A4623F0030342F80439E946E7
:1009D0004FF0FF3500234FF00C0E581EB3427862E3
:1009E00009DA2BB110688008033020F00300506052
:1009F000506888420BD27B6A013314D13A6D0023D0
:100A000013606FF00B002C37BD46BDE8F08FE06837
:100A10000EFB030000F1040C40680432604518BF6F
:100A20001D460133D9E76B1CE8D0E16859F8252051
:100A30000C2303FB051353F8046F9E4261D096E824
:100A40000A00196031684B6023682946F31A204672
:100A500093FBF2F2FFF74CFFA9EB890309EB850A40
:100A6000BB617B6A9D4223680EDB3A6911467A6A54
:100A70000A60F31A59F8222093FBF2F3FA68136024
:100A80003B6D00201E60BEE75AF8042BF31A93FB5F
:100A9000F2F3BA699B007B610AEB4A0313444FF0FF
:100AA000010BFB6105EB0B03BB60DAF80080B96852
:100AB0000BFB08F33B62F3187B607B6920460BEB72
:100AC0000302FFF707FF7B682268218908F1FF38DE
:100AD0009844A8EB020862684A4390450AD2E2684B
:100AE000F969386A0A44111D31509168596091685A
:100AF0000B6093600BF1010BBBF1040FD5D10135F5
:100B0000AFE76FF00A007EE72DE9F04F85B0837AFA
:100B10009B000A3323F0070300AFADEB030D4368DE
:100B2000033323F003030546EA4600936C46012095
:100B300081424CD20C4616463246214628465AF887
:100B40002480D5F80090FFF7C5FE002C48D007F1AF
:100B50000C03324621462846FFF7A8FEFA68042314
:100B600090FBF3F083001068D84000F00F000F28CE
:100B700036D126F003034FF000097B6008F1FF3BFC
:100B80007B684B441A46214628463B60FFF7B0FE7F
:100B90003B689E4212D008FB03F2B5F808C06B68B0
:100BA000296802EB0B0E03FB0CF39E4501EB0200E0
:100BB00004D240688B5803608B58586009F10109D2
:100BC000B9F1040FDCD196FBF9F6013CB4E72368D8
:100BD0009B08033323F0030344F8043F0130A7E7E5
:100BE00008FB06F62A68696809EB060308F1FF3876
:100BF0009844A8EB02082A89514388450BD2E9683A
:100C00000C2202FB0414221D49F80620A2685A6037
:100C1000A2681360A3601437BD46BDE8F08F0020C2
:100C2000704700000B6801330B60014B1B681847CD
:100C3000A03A00202DE9F04F85B09B460E9CDFF8CE
:100C400090A0012CB8BF0124012B0CBF302320231E
:100C50001546804689460194029301260A27002200
:100C60000AF101040AB9AA451FD2B5FBF4F04946BE
:100C70003030C04701360122013F012FB5FBF4F1AE
:100C80004FF00A0304FB1155BAFBF3FAE8D14946C9
:100C900005F13000C047BBF1030F03D1019B9C1B42
:100CA000002C0FDC05B0BDE8F08F019BBB42E3DBFD
:100CB000BBF1020FE0D84946029803920136C047C3
:100CC000039AD9E749462020C047013CE8E700BF26
:100CD000FFC99A3B0A688B6830B512B14C68A342D1
:100CE00002DB01338B6030BD651EAB420BBF8C60F5
:100CF0005C1C00218C600CBFD154D05430BD00006E
:100D0000014B1860704700BFA03A00202DE9F04F5A
:100D100089B04FF0000A06460F4604921C464FF079
:100D2000FF39D0465546049B187810B909B0BDE884
:100D3000F08F45B9252800F00C813946B047049B57
:100D400001330493EFE7642861D019D839280AD811
:100D5000312850D22D283CD030283DD0252808D12C
:100D60003946B0476FE0582800F08980632800F0CA
:100D7000EA8039462520B047049B39461878F0E7C9
:100D8000702872D006D8692841D06C283CD06828D9
:100D9000D5D0EEE7752858D017D87328E9D1236845
:100DA00004F1040B1C46254615F8010B002840F001
:100DB000BF80B8F1030F40F0D580E41AA9EB04041A
:100DC000002C00F3BB805C463DE0782857D07A28A1
:100DD000DEE74FF00308B2E7B9F1000F0EDAB8F121
:100DE000000F00F0BC80A0F13009B8F1000F08BF7F
:100DF0004FF00208A3E7B9F1000FF4DB0A2303FB6D
:100E00000909A9F13009F0E70AF1010A97E7BAF1F7
:100E1000010FC5BF073424F0070325681D68D4BF40
:100E2000043403F10804002D05DA39462D20B047BB
:100E30006D4209F1FF39CDF8009043462A46394604
:100E40003046FFF7F7FE002579E7BAF1010FC5BF7D
:100E5000073424F0070322681A68CDF80090CCBF4D
:100E600003F1080404344346E9E739463020B0472B
:100E700039467820B0474FF008094FF00108BAF121
:100E8000010FC7BF073424F0070323680593C2BFCF
:100E900003F108041B6805934FF008024FF00003AC
:100EA000D8BF04340393079393460BF1FF3B059B94
:100EB0004FEA8B0023FA00F010F00F0009D1079BD6
:100EC00013B9BBF1000F22D14FF0300E07E0069AA4
:100ED000EBE709288CBF4FF0570E4FF0300E394624
:100EE00070440692B047039B079501330393BBF10F
:100EF000000FECD1B8F1030FA5D1039BC3EB49055B
:100F0000002DA0DD39462020B047013DF8E7531EF3
:100F100091450693EBDBB8F1010F03D13946302040
:100F2000B047E4E7B8F1020FE1D139462020F7E7F6
:100F3000394603932C46B047039B34E739462020BB
:100F4000B047013C3CE72068251D3946B0472C4698
:100F500079E7AA46A8464FF0FF390125EFE64FF0A2
:100F60000108ECE65C460546E9E6000013B502AC74
:100F7000002344F8043D02460B4603482146FFF790
:100F8000C5FE019802B010BD250C00000FB407B5D6
:100F900004A951F8040B0191FFF7E8FF03B05DF8D5
:100FA00004EB04B0704700000CB430B585B008AB5A
:100FB000044653F8042B01900291002501A907482B
:100FC00000930395FFF7A2FE0398029B9842B8BFD7
:100FD000255405B0BDE8304002B07047D50C000084
:100FE00070470FB404B0704713B5114CBFF35B8F5B
:100FF0002068BFF35B8F60B90E4812F0F7FABFF3B9
:101000005B8F54E8003F44E80002002AF9D1BFF3A7
:101010005B8F436804221B680DEB02019847002890
:1010200002DA00F037FA0190019802B010BD00BF5B
:1010300004000020FC4C01000A2838B50446074D86
:1010400004D1286843680D215B6898472868436885
:10105000E1B25B689847204638BD00BF0800002019
:101060000148FFF74DBE00BF3910000008B5044825
:1010700012F0BCFA034B1860FFF7F2FF002008BD26
:10108000064D01000800002010B54FF02003EFF3DB
:10109000118283F31188114C237823B982F31188CC
:1010A0006FF0440010BD013BDBB2237023B182F32B
:1010B00011886FF00F0010BD094B1878012128B17D
:1010C000217082F311886FF00A0010BD197082F34D
:1010D00011884FF080425160187010BD0E00002042
:1010E0000D00002008B500221046012100F0ECFBA5
:1010F000002000F0B7FB002008BD0000F8B54FF05D
:101100002002EFF3118382F31188254A1078441CE2
:10111000147060B183F311884FF08043D3F80C341E
:1011200013F4803F14BF00206FF04300F8BD1D4D45
:101130002F782FB1107083F311886FF00A00F8BD7B
:1011400001262E7083F311884FF0804419B338467E
:1011500000F098FBC4F80071D4F80433C4F80463B9
:101160002660D4F8002192B10022C4F800210E4A72
:1011700013F0010F4FF0010308BFC4F8083300203B
:10118000C2F8803100F06EFB00232B70C4E720BF53
:1011900040BF20BFE5E7C4F800112660F4E700BFB8
:1011A0000E0000200D00002000E100E0F8B506462A
:1011B0000C464FF02002EFF3118382F311882C4A82
:1011C000157865B183F311884FF08043D3F8183454
:1011D00013F4803F0CBF6FF043000020F8BD0127DF
:1011E000177083F31188284600F04CFB4FF08043C2
:1011F0000221C3F80451D3F80423C3F80413C3F83D
:1012000018459F60D3F8041171B39207194F58BF66
:1012100002224FF000014FF00105C3F804114FF016
:10122000000058BFC3F80823C7F8805100F01AFB2C
:101230004FF0804300211822C3F80823C3F80C1193
:10124000C3F8101114F00301BED11020C3F8380503
:10125000C3F804233046C3F80453FFF74FFF0028B8
:10126000B2D1C7F80051AFE720BF40BF20BFC9E7E8
:101270000C00002000E100E0F8B54FF08043054687
:10128000D3F808E1D3F80423D3F80C44D3F8007161
:10129000D3F80401D3F80C11D3F8106102F0010265
:1012A000BEF1000F03D04FF0000EC3F808E127B1E4
:1012B0004FF080430027C3F800713AB1E30341BF08
:1012C0004FF080430122C3F808231A6120B14FF088
:1012D00080430022C3F8042149B14FF0804400212B
:1012E000C4F80C112846FFF7CFFE0123636176B1E5
:1012F0004FF0804300210124C3F810112846C3F8A1
:101300000443FFF7FBFE10B9014BC3F80041F8BDE1
:1013100000E100E0084BC3F84005D3F80435C01ADB
:1013200020F07F40054B0238984282BF044B4FF4B7
:101330000032C3F80021704700100140FDFF7F001C
:1013400000E100E038B5114B114CD3F804052268D8
:10135000104D801A2B6820F07F4098420FD3B0FBCD
:10136000F3F00D490968884228BF084600FB0323B3
:1013700023F07F432360094B186012F0F5FE2068CC
:101380002B681844BDE83840FFF7C4BF0010014087
:1013900014000020C03E002010000020BC3E0020B1
:1013A000024B0022C3F84021FFF7CCBF00100140E0
:1013B000031E0A4A0A4804DB116890FBF1F18B42D4
:1013C00002DD136890FBF3F31068064A06491268C1
:1013D0000B6000FB0320FFF79DBF00BFC03E002055
:1013E000FFFF7F00140000201000002008B5074B0D
:1013F0000022C3F84021064B4FF40032C3F880218D
:10140000FFF7A0FF034B01221A6008BD0010014046
:1014100000E100E01000002070B5184812F0E6F876
:1014200048B34368164D1B6801219847154B0024AB
:101430001C60154B01261E60144BC5F808451B683F
:10144000C5F840354FF48033C5F84433C5F804334C
:101450000F4BC5F840414FF40032C3F880213146AC
:101460002246112000F030FA112000F0FBF9AE60A6
:1014700020462E6070BD4FF0FF3070BD284D01003A
:10148000001001401400002010000020C03E002089
:1014900000E100E00A4A30B5D2F80435094DD5E93B
:1014A0000001D2F80445A34207D1074A126850430D
:1014B0001B1A23F07F43184430BD2346EFE700BFDB
:1014C00000100140C0190020C03E0020094881687A
:1014D000006A884208D000B512F05CFD5DF804EBAC
:1014E00005494FF080520A6000B512F09FFF5DF889
:1014F00004EB70478819002004ED00E00448002345
:101500002021C2180133272B82F80013F9D170472C
:1015100000E100E0084A094993680968D96608496A
:1015200098664B6843F080534B60002383F3118827
:101530009368D86E704700BF88190020D8840100D6
:1015400000ED00E0202080F311880D498A682C20EE
:101550001044EFF3098C80E8F01F0A4F4FF000664B
:101560000A6A8A603E60906E0023936680F3118859
:1015700002F12C0090E8F01F8CF3098870470000FE
:101580008819002004ED00E01EF0040F0CBFEFF3FB
:101590000880EFF30980816931F8021C11F0FF0126
:1015A0000229FFD000B500F033FA00BD10B50446A3
:1015B00012F038FD22680146BDE810400148FFF7EF
:1015C000E5BC00BF814E010038B504461A480D46FF
:1015D000FFF7DCFC04F11800184CFFF7E7FFA36AE3
:1015E000D90602D51648FFF7D1FCA36A1A0702D51F
:1015F0001448FFF7CBFCA36A9B070ED51248FFF7F0
:10160000C5FC616BA36A180607D51048FFF7BEFC3E
:101610001DB1A36A23F08003A362084CA26AD2071B
:1016200002D50B48FFF7B2FCA36A9B0602D5094816
:10163000FFF7ACFC002038BDCB4E010000ED00E010
:10164000E24E0100F44E0100084F0100214F01005D
:10165000324F0100524F010010B504461A48FFF7FF
:1016600095FC04F11800194CFFF7A0FFA36A9A013A
:1016700002D51748FFF78AFCA36ADB0102D515489B
:10168000FFF784FCA36A180302D51348FFF77EFC1A
:101690000E4CA36A590302D51048FFF777FCA36AE2
:1016A0009A0302D50E48FFF771FCA36ADB0302D54B
:1016B0000C48FFF76BFC054A936A6FEA03436FEA35
:1016C00013439362002010BD824F010000ED00E043
:1016D0009B4F0100AF4F0100CA4F0100E94F0100CD
:1016E0000F5001002A50010038B504461D480D4630
:1016F000FFF74CFC04F118001B4CFFF757FFA36ADF
:10170000D80404D51948BDE83840FFF73FBCA36AA8
:10171000190501D51648F6E7A36A9A0514D51548A8
:10172000FFF734FCA16BA36A1B0407D51248FFF72F
:101730002DFC1DB1A36A23F40043A3620A4B9B6AEC
:1017400058050ED50D48DEE7A36A5905FAD4A36AF9
:10175000DA0501D50A48D6E7A36A9B0401D50948F2
:10176000D1E738BD484D010000ED00E0E24E010038
:10177000F44E01005F4D0100214F0100794D010041
:10178000954D0100524F010038B5274C6368C3F3F3
:101790000803DA1E0546092A3BD8DFE802F00534C3
:1017A00036303A3A3A3A3A382048FFF7EFFBE36AE4
:1017B0009A0703D51E48FFF7E9FB02E0E36A5B00E6
:1017C00001D4002009E01B48FFF7E0FB1A4B1B780F
:1017D00043B101212846FFF7F7FE2946BDE838400E
:1017E00000F01AB9154B1B7823B101212846FFF7E9
:1017F0007BFFE6E7124B1B889BB2002BE1D028460B
:10180000FFF72AFFE9E70021E4E70021EEE70D48B2
:10181000D1E70D480D49A3F110020F2BD8BF0146A7
:101820000B48FFF7B3FBCCE700ED00E0DC4D010017
:10183000F44D0100164E010028ED00E029ED00E016
:101840002AED00E0364E0100AE4D0100C34D01000F
:101850006D4E0100024A536943F010035361704713
:1018600000ED00E043B2002B08DB012200F01F0076
:1018700002FA00F05B09024A42F82300704700BFF9
:1018800000E100E043B2002B0DDB01225B0900F018
:101890001F0002FA00F02033034A42F82300BFF38E
:1018A0004F8FBFF36F8F704700E100E04209054B97
:1018B00000F01F0053F82220012303FA00F010402B
:1018C000704700BF00E100E043B2002BA8BF03F166
:1018D000604301F101014FEA4111ADBF03F56143DE
:1018E00000F00F00034BC9B2B6BFC9B283F80013B2
:1018F0001954704714ED00E000F044B808B572B612
:10190000044BD86918B10022DA6111F095FE62B675
:1019100008BD00BF88190020F8B51F464FF0F0330E
:101920000C4616460B6004220A9B0999054612F0E4
:101930004DFEA6F1200121440B4AEC6521F0070180
:10194000002322F001022B656B652E668A61069AE0
:101950004A60079A8A60089ACA600F604FF08072E6
:10196000CA61E964AB66F8BD99080000014910221C
:101970000A60704710ED00E0404080F3118830BFEE
:10198000704700BF404080F31188DFF81CC0DCF8CE
:1019900000C01CF4006C0CBFEFF30880EFF309806B
:1019A00000B5FFF7F1FE00BD04ED00E038B5831E81
:1019B00004460D46032B19D8DFE803F00212141673
:1019C0000D48FFF7E3FA12F02DFBAA6901460B4818
:1019D000FFF7DCFA29462046BDE8384000F01CB885
:1019E0000748EEE70748ECE70748EAE701460748FB
:1019F000FFF7CCFAE7E700BF56500100F3500100B3
:101A0000755001009B500100B5500100D0500100FD
:101A100001460068FFF7CABF022810B50ED005289E
:101A20000CD012F0EBFC60B112F0E8FC0C4B0D494D
:101A3000002808BF19460C48FFF7A8FAFFF79CFFDB
:101A4000FCE712F0EBFC0028EED1084C0848A16836
:101A5000FFF79CFAA068BDE8104000F00BB800BF8B
:101A6000335101002F510100445101008819002019
:101A70006451010038B505464FF02003EFF311849F
:101A800083F3118812F038FD0C4B9B689D420FD1F7
:101A90000B4B5A68C2F3080232B912F0C7FC12F0BD
:101AA00079FA2046FFF736FD5A6842F080525A60B4
:101AB0002046BDE8384012F031B900BF8819002037
:101AC00000ED00E000B572B60B4AD06900281EBFD9
:101AD0000021D16111F0B0FD62B6EFF30580A0F1F5
:101AE00010004FEAC0000549014409C998475DF854
:101AF00004EBFFF7EBBC000088190020DC000000BD
:101B0000202080F3118806484FF40061401880F3CC
:101B10000988022080F31488BFF36F8F00F006B8A5
:101B2000682E002030BFFFF7FDBF00BF08B5074B90
:101B3000074A23F07F039360BFF34F8FBFF36F8F8C
:101B400011F0AAFD11F0B2FD11F0D4FD000000006B
:101B500000ED00E008B5FFF7E5FFBDE80840FFF73E
:101B6000B5BC0000124930B50D68082D0DD8114ADA
:101B70004868002353609D4200F10C0007D1052303
:101B80005360BFF34F8FBFF36F8F002030BD50F80D
:101B90000C1C50F8044C936021F01F0141F010011F
:101BA000194344F00104D16001331461E3E700BF3D
:101BB0007C3A002090ED00E00139034611F8012F36
:101BC0000AB91A70704703F8012BF7E7024603467B
:101BD000981A13F8011B0029FAD17047013801390E
:101BE00010F8013F11F8012F934202D1002BF7D1D9
:101BF0001A46981A704770B582B1013A0C460346EE
:101C000003D11A782078101A70BD1E782578AE425C
:101C100000F1010001F10101EFD0F2E7104670BDC3
:101C200081EA000313F0030F70B503460BD0013BAC
:101C30000A4491421BD170BD002AFCD011F8014B1F
:101C400003F8014B013A9C07F6D11E1F0D46541BA9
:101C50000C44032C06D822F003042144234402F050
:101C60000302E4E755F8044B46F8044FEFE711F898
:101C7000014B03F8014FDCE770B5C9B203469C077E
:101C800011D141EA012444EA04441E46951B1D4437
:101C9000032D0ED822F00304234402F003021A4459
:101CA000934209D170BD002AFCD003F8011B013A10
:101CB000E5E746F8044BE9E703F8011BF0E700000D
:101CC00070B54FF02003EFF3118583F31188144CA6
:101CD000144E237803EBC312013303F003033244A1
:101CE000237085F31188402928BF40210E4D01380B
:101CF000134602EB4106B34204D1002302F811302F
:101D0000104670BD4478240902332C5D03F8024C60
:101D100010F8014F04F00F042C5D03F8014CEAE7C2
:101D20007400002075000020A751010010B50F4A73
:101D30000F4C137803EBC301013386B003F00103AA
:101D40001370027843790492427803928278029267
:101D5000C278019204EB4104027900921221054AF3
:101D60002046FFF721F9204606B010BD7200002082
:101D7000180000208951010070B51D4A1D491378D3
:101D800003EB4306013303F00103137003788AB0B9
:101D900006EBC60604460E4407AD032B21D8DFE848
:101DA00003F0021A1C1E14492846FFF705FF62784B
:101DB0000492A2780392E2780292227901926279E7
:101DC0000092A37905950D4A1B213046FFF7ECF8E8
:101DD00030460AB070BD0A49E6E70A49E4E70A4915
:101DE000E2E70A4A0A212846FFF7DEF8DFE700BFEC
:101DF000730000203C000020C14B0100EA4B0100B1
:101E0000C84B0100CF4B0100D94B0100E34B01004F
:101E100030B585B00446154668460322FFF700FF3B
:101E20000D2200210DF10300FFF726FF20466A4630
:101E3000694606F03DF8044620B903226946284663
:101E4000FFF7EEFE204605B030BD13B50C4601AAE3
:101E50000331FFF7DDFF48B9032201A92046FFF750
:101E6000CAFEB0FA80F0400902B010BD0020FBE7C6
:101E700070B5CD1C06460C462846032105F0FCFF34
:101E800060B9637903F03F0343F040036371224676
:101E900029463046BDE87040FFF7BABF70BD00006C
:101EA000F0B40278012A04460B4617D003D3022A65
:101EB0002CD0F0BC7047184A0D4602F1100710688C
:101EC00051682E4603C60832BA423546F7D1127819
:101ED000327062885A73120A9A73EAE70E4A0D4604
:101EE00002F11007106851682E4603C60832BA4244
:101EF0003546F7D11278327062685A73C2F30721FF
:101F0000120CDA73120A99731A74D2E7014611227D
:101F10001846F0BCFFF784BEB851010010B50C465E
:101F2000017822788A428AB00ED06946FFF7B8FF5E
:101F300005A92046FFF7B4FF10220DF115010DF1A0
:101F40000100FFF758FE0AE0012A0AD004D3022A52
:101F50000AD06FF0150002E040886388C01A0AB00A
:101F600010BD40686368F9E71022611C0130E8E7A2
:101F70007047000070B50B4D06460FCD8AB06C4619
:101F80000FC40FCD0FC495E80300092E84E80300A9
:101F90009BBF0AAB03EB8606034856F8280C0AB031
:101FA00070BD00BF784B01009C5C01000722FFF769
:101FB00037BE00B5BFF35B8F50E8003F43EA010234
:101FC00040E8002EBEF1000FF6D1BFF35B8F18463C
:101FD0005DF804FB00B5BFF35B8F50E8003F03EAF8
:101FE000010240E8002EBEF1000FF6D1BFF35B8F77
:101FF00018465DF804FB0000C378002B41F28832DC
:1020000000F1780108BF0022014812F0B5BB00BF03
:10201000C81900202DE9F041064686B09079284F76
:102020008846154610F068FE874215D0AC79254BDE
:102030002046D3F8008010F05FFE234B05930390F9
:102040008DE8480004970294204B214A21492248F8
:10205000C04706B0BDE8F081284610F055FE1F4C81
:1020600004EBC0004388B34211D0164B28461F68CA
:1020700010F04AFE144B039304EBC000154942884C
:1020800002928DE84800124A104B1548B84728467E
:1020900010F03AFE04EBC0004368002BD9D028466C
:1020A00010F032FE04F83080284610F02DFE04EBCC
:1020B000C000406806B0BDE8F04111F0EDBF00BFC0
:1020C000F03F0020A43A0020554C0100915201003D
:1020D0000B5A0100125A0100155A01007C0200201F
:1020E0005A5A01004B09BFF35B8F50F82300BFF32E
:1020F0005B8F01F01F01084100F0010070470000F4
:102100002DE9F047804689461348144D4FF0FF31C2
:1021100010F094FE044600F1080600213046002726
:1021200010F0ABFE2775204610F0EEFD05EBC00069
:10213000A0F80280204610F0E7FD05EBC000032167
:102140004760304610F0E2FE80F80290A0F8008070
:102150002046BDE8F08700BFF03F00207C02002051
:10216000F0B5154689B00C4619B9FFF7C9FF04460A
:1021700068B301AE01220021304611F075FF204600
:1021800010F0C2FD134F07EBC0004660204610F070
:10219000B9FE2146104810F074FE42F2107130462C
:1021A00011F0A2FF204610F0AFFD17F8300030B15B
:1021B000204610F073FE6FF0040009B0F0BD0DB1C1
:1021C0002C60FAE7204610F069FE2846F5E76FF02C
:1021D0003600F2E77C020020703B002038B5022177
:1021E000054642F20C00FFF78BFF044630B3022194
:1021F000083010F08BFE012D024616D10B2111483C
:10220000FFF770FF507015702146002242F20C005B
:10221000FFF7A6FF044630B9012D09D14FF48071B4
:102220000848FFF7C6FE204638BD00234370EAE7A2
:102230006FF480710348FFF7CDFEF4E76FF03604CA
:10224000F1E700BF183B002070B5154D062205F1DF
:1022500008010646FFF7CFFC0446D8B1062142F23A
:102260000500FFF74DFF0446B0B1062231460830A5
:1022700010F052FE2146002242F20500FFF770FFE7
:10228000044638B90622314605F10800FFF7C8FCBC
:102290000123EB71204670BD6FF03604FAE700BFF2
:1022A000A83A002007B50621684605F0E5FD40B9CB
:1022B0009DF80530684603F03F038DF80530FFF7C1
:1022C000C3FF03B05DF804FB38B50121054642F2B7
:1022D0000A00FFF715FF0446D8B108308DB101217F
:1022E00010F023FE2146002242F20A00FFF738FFD9
:1022F000044620B93DB140210748FFF75AFE204669
:1023000038BD2946ECE76FF040010348FFF762FE55
:10231000F5E76FF03604F2E7183B002002884388A7
:102320009A4210B518D8052A16D9B3F5486F13D8B4
:102330008488B4F5FA7F0FD2C188A1F10A0292B263
:1023400040F67640824207D804FB0333B3EB810F9B
:10235000B4BF0120002010BD002010BD012310B526
:102360000621044600F8013B05F086FD18B9A37963
:1023700063F03F03A37110BD37B5124C2378012BD6
:1023800004D1A37903F0C003C02B0ED00E4B0193F0
:1023900000930E4B0E4A1C680E490F4B0F48A04786
:1023A0006FF01505284603B030BD601CFFF74CFFE9
:1023B00005460028F6D1042104F17000FFF7F9FD6D
:1023C000F0E700BFA83A0020554C0100A43A0020D5
:1023D000C3590100125A0100E8520100CA59010014
:1023E0002DE9F04F204DDFF89C90DFF89C80D9F864
:1023F00000A01E4F1E4E1F4C87B02846FFF7BCFCA6
:1024000043463A4631460190029400941A48D04718
:1024100095F80EA0D9F800B05046FFF7ABFDAB8A97
:1024200004932B8A03933A4643463146CDF808A0DD
:102430000190059400941148D847D9F800A095F868
:102440000F904846FFF796FD6B8A03930190049422
:10245000CDF80890009443463A4631460848D047A4
:1024600007B0BDE8F08F00BFA83A00204E5301002E
:10247000125A0100554C01005553010072530100DE
:10248000C0530100A43A002009530100024BD3F8C5
:10249000DC301B69184700BFA83A00207FB504460E
:1024A0000D4619B9FFF72CFE0546F8B140F6354345
:1024B0009C4215D12846FFF7E9FF044668B10D4B51
:1024C00002938DE818000C4B0C481E680C4A0D4B0B
:1024D0000D49B047284610F0E1FC204604B070BD1D
:1024E00029460A4810F0CDFC0024F6E76FF03604C8
:1024F000F3E700BF554C0100A43A00204C54010002
:10250000C3590100C9510100125A0100703B00205B
:1025100073B505460E461446002107226846FFF7AC
:10252000ABFB21488DF8005000238DF80630012DBB
:102530000378ADF80160ADF803408DF805300AD19D
:1025400006217030FFF7CEFD28B9FFF7ABFE044639
:10255000F0B98DF80550072142F20B00FFF7D0FDCE
:102560000446F0B107226946083010F0D5FC214638
:1025700042F20B00FFF792FF0120FFF72FFE044607
:1025800030B9012D07D14FF480610848FFF711FDE4
:10259000204602B070BD6FF480610448FFF71AFD59
:1025A000F6E76FF03604F3E7A83A0020183B002066
:1025B00038B5092105461648FFF794FD024608B1D3
:1025C000002038BD08211248FFF78CFDD0B9012149
:1025D000002001F097FE04460028F1D04FF400617E
:1025E0000B48FFF7E6FC204601F0AAFE002D15BFC0
:1025F0003022122260214FF400610020BDE83840F3
:10260000FFF786BF1046FFF7E9FD0028DFD038BD91
:10261000183B00202DE9F0414E4DD5F8DC3099688B
:1026200011F001018EB024D10CAA40F60340FFF74F
:1026300097FD0446002840F089800C9B9B681B781E
:10264000A3B9454A13602B46BFF35B8F53F8702F35
:10265000BFF35B8F02F00D02BFF35B8F53E8001FE7
:1026600043E800200028F9D1BFF35B8F0C9810F0ED
:1026700015FC0CAA002141F20300FFF771FD04468E
:10268000002863D10C9B3548996808220131FFF777
:10269000C7FA0C9810F002FC21460CAA41F2010086
:1026A000FFF75EFD0446002850D10C9883685A78E5
:1026B000AA73D9789A7842EA01222A821A79EA73AF
:1026C000197ADA7942EA01226A825A799B7942EAD6
:1026D0000323AB8210F0E2FB03212148FFF702FD48
:1026E000014690B90CAA41F20900FFF739FD0446F2
:1026F00000282BD10C9B1B48996806220131FFF75B
:102700008FFA0C982C7010F0C9FB0CAA002141F232
:102710000200FFF725FD0446C0B90C9B12489968DA
:1027200040220131FFF77CFA0C9810F0B7FBAB7E2A
:102730005A0627D40D4B019300930D4B0D4A1C688C
:102740000D490E4B0E48A0476FF0120420460EB004
:10275000BDE8F081A83A0020D8020020BE3A00204F
:10276000183B0020A93A0020C63A0020554C010031
:10277000A43A0020C3590100125A0100E05201009E
:102780007E54010021460CAA42F20300FFF7E8FC48
:1027900004460028DAD10C9B9C4899680822013134
:1027A000FFF73EFA0C9810F079FB21460CAA42F292
:1027B0000200FFF7D5FC04460028C7D10C9B9B689C
:1027C000B3F80120A5F888203AB1DA789048022AB7
:1027D00028BF0222114611F047FC0C9810F05EFB56
:1027E000AC7E14F0200400F0C98095F83A301B0745
:1027F00013D50CAA002142F21C00FFF7B1FC0446DD
:102800000028A3D10C98836853F8012F5B68C5F8A2
:102810008430C5F8802010F041FB95F878309F0691
:1028200000F1C880082142F20100FFF769FC04466C
:10283000002800F0AA800821084410F067FB95F8F2
:1028400078108E074CBF2F220F22890695F8791039
:1028500048BF42F0400211F0090F95F8401001F016
:10286000060118BF42F40062062908BF42F4C07294
:102870000270C2F30722427000228270C27002719D
:1028800042718271C271214642F20100FFF768FC79
:10289000044600287FF45AAFAB7E9A0621D4B5F8DF
:1028A0008810F1B90CAA41F20500FFF759FC044663
:1028B00000287FF44BAFB5F888307BB90C9B5448A7
:1028C0009B6899785A7842EA0122A5F888209A886C
:1028D000022A28BF0222114611F0C6FB0C9810F004
:1028E000DDFA082140F60140FFF70AFC0446002803
:1028F0004BD00821084410F009FB102303708823F3
:10290000437002230022C37020238270027142713F
:102910008271C371214640F60140FFF721FC044655
:1029200000287FF413AF01460CAA4FF60140FFF7D1
:1029300017FC384F384E00287ED0019600963C6830
:10294000364B374A37493848A047002307220CA99D
:1029500036480C93CDF83330FFF74DF9002840F09E
:10296000EA8095F86030DB0700F106810196009659
:102970003C682F4B2A4A2B492E480BE1022140F696
:102980006D40FFF7BDFB064610B96FF03604DDE67B
:102990000221083010F0BAFA012344700370224675
:1029A000314640F66D40FFF7DBFB044600283FF45C
:1029B0001CAFCBE60CAA002142F22F00FFF7D0FBA0
:1029C000044600287FF4C2AE0C988368B3F80180F7
:1029D000B3F8037010F062FA042142F22400FFF70A
:1029E0008FFB06460028D0D00421083010F08EFA64
:1029F0002246A0F800804780314642F22400FFF7CB
:102A0000AFFB044600283FF40DAF9FE6203B0020BB
:102A1000343B0020A43A0020554C01001A53010019
:102A20000B5A0100125A0100B2540100A83A0020CA
:102A3000FB5201004F5601000C9BD7F800809C68A8
:102A40007249B4F801300293032B96BF704A714A61
:102A500052F823200192704B704A039600967048FA
:102A6000C047B4F80130D7F80080B4F80320022B37
:102A70003BD1022A39D86B4B53F822300292019392
:102A8000664A654B6149684803960096C04763797A
:102A9000D7F800800696D4F809100591032BB4F8F6
:102AA000071098BF614A0491A17994BF52F823207E
:102AB000584A039102935549574B01925C48574A33
:102AC0000096C0470C9810F0E9F90CAA00214FF6C7
:102AD0000240FFF745FB044648B1019600963C686A
:102AE0004D4B544A494954482EE74A4BC6E70C9B84
:102AF0005248996802220131FFF792F80C9810F0C1
:102B0000CDF90CAA21464FF60340FFF729FB38B157
:102B1000019600963C68404B464A3C49484813E7BA
:102B20000C9B4848996801221144FFF779F80C98EA
:102B300010F0B4F909E7444B18689A880A909B7919
:102B4000ADF82C200AA9072240488DF82E30FFF757
:102B500052F800283FF405AFFFF742FC02F05CF8A2
:102B6000044600287FF4F2AD02213948FFF721FA2C
:102B70002046FFF71DFDE9E509AA00214FF60940AF
:102B8000FFF7EEFA40B1019600963C68314B294AB6
:102B90001E493148A04726E0099B99684B78BBB194
:102BA0000123062202312D482B70FFF739F80998CE
:102BB00010F074F9FFF7E0FB04460028CCD0019632
:102BC00000963D68264B274A10492748A847BDE58F
:102BD0000196009625483C681E4B164A0B49A047B3
:102BE000099810F05BF91948FFF7B8FB0446002874
:102BF000E5D11A483C68FFF799F8029601900096D3
:102C0000144B0C4A01491A48A047D3E7125A010055
:102C1000AC5B01009C5C01001A5301004E530100A3
:102C2000E6540100A05B01000F5501008C5C01001F
:102C3000375501000B5A010074550100073B002075
:102C4000AD550100063B0020A04B0100A83A002032
:102C5000183B0020FB520100E6550100A93A002074
:102C600026530100C3590100C45601001656010045
:102C70008B56010010B5FFF7CDFC034B1B6813B159
:102C8000BDE81040184710BDD402002038B5072118
:102C9000044642F23200FFF733FA054698B10721A5
:102CA000083010F033F92388038000240223847055
:102CB000C370037144718471294642F23200FFF7F8
:102CC000EDFB204638BD6FF0360038BDF7B507463E
:102CD00001AA002142F22F00FFF742FAD8B9019869
:102CE0008368B3F80160B3F8035010F0D7F80621F9
:102CF00042F22200FFF704FA044670B106210830C0
:102D000010F004F93B88038046808580214642F21A
:102D10002200FFF7C3FB03B0F0BD6FF03600FAE707
:102D2000F0B5037889B005467BB10221002001F09F
:102D3000E9FA044638B12B780372002101F0C0FB98
:102D4000204601F0FDFA09B0F0BD041DB0F80160A5
:102D5000214606A8FFF72AF99DF81830023BDBB29E
:102D6000012BB7B22AD8062205F111010DF111008D
:102D70008DF81830FEF754FF01238DF81030022132
:102D800006A801F0BFFAEB78012B044609D16FF0D9
:102D900040014A48FFF71EF9ACB906A801F002FA53
:102DA000044684B9464B02938DE88800454B464A59
:102DB0001C684649464B4748A047C4E7214604A83B
:102DC000FFF7F4F8DBE7204606A920F84C6BFFF785
:102DD000EDF82A7EEB7D43EA0223A4F86230AA7E56
:102DE0006B7E43EA0223A4F86830EB7E2A7F43EA35
:102DF0000223A4F86A30EE78E670012E1AD1364F1D
:102E000004A904F15300FFF7D1F8394604F15A0040
:102E1000FFF7CCF8072107F17000FFF763F948B11D
:102E2000D7E92023002203F04003134302D03046A9
:102E3000FFF74AFA0321204601F042FB637A032B95
:102E400018D1EB7823B1244B93F87830190718D5B3
:102E5000022142F21600FFF753F9054688B102211C
:102E6000083010F053F823880380294642F21600F8
:102E7000FFF714FB204601F063FA0020FFF798FBF0
:102E800061E7154D95F87920D20708D52046FFF760
:102E9000FDFE20B98021201DFFF78BF8EAE795F8A9
:102EA00078309B0606D52046FFF710FF10B94FF487
:102EB0008071F0E72046FFF79FF8DBE7183B002022
:102EC000554C0100A43A0020C3590100125A0100D8
:102ED00010520100485B0100A83A002070B5064678
:102EE0000D4642F221000321FFF70AF9044660B1C2
:102EF0000321083010F00AF885700680214642F25E
:102F00002100BDE87040FFF7C9BA6FF0360070BD10
:102F10002DE9F04F554BDFF8609185B003F11408AF
:102F2000524B524A5B7B6FF307135373404601F0D9
:102F300051FA461C4FF0FF3231464C4811F002FD69
:102F400028B94A4D4A4C96B911F042F8E8E7494B86
:102F500001930093484B494A1C684949494B4A48E8
:102F6000A047404080F311884FF0040002DF6B7BE4
:102F70001B09012B5AD9042B6BD195F80CB0BBF16E
:102F8000000F56D1594641480FF05EFF824648B9BE
:102F9000384B01930093384B384A1C6838493C4BF6
:102FA0003C48DDE74FF0FF313B4811F09DF8D4F885
:102FB000C4307BB12F4B01930093304A344B3049DE
:102FC0003648D9F80070B847D4F8C4000FF066FF4F
:102FD000C4F8C4B050460FF095FFC4F8C400504682
:102FE000FFF754FA10B3234B244A2549029301906A
:102FF00000932B48264BD9F80070B847264811F0AB
:103000004BF850460FF080FE264B03EBC000002229
:103010001F214088FEF7FEFFD4F8C4000FF03EFFEA
:1030200000235046C4F8C4300FF038FF1435013E79
:1030300089E7BBF1010F04D12869183800F0A4FF1B
:10304000F4E7BBF1020FF1D128692C3801F02AFD19
:10305000ECE7084A02928DE80C000949124B134A2A
:103060001348D9F80070B847E0E700BF883B00205C
:10307000A83A0020554C0100A43A0020C359010091
:10308000125A0100D25201009D5A0100703B0020EB
:10309000BA520100C75A0100503B0020EC5A01000F
:1030A0004C5401007C020020C35201000B5A010065
:1030B000175B01002DE9F04F037D012B95B004460D
:1030C00042D0032B40F04E8383681E885D88C6F390
:1030D0000B03C382FF234375042108300FF035FF33
:1030E000A28995420FD0A44B03930093A34B019266
:1030F00002951D68A24AA34BA349A448A8472046AD
:103100000FF0CCFE1CE0E08A01F0CCF8054660B977
:10311000994B0293E28A0093984B01921E68984A59
:10312000984B99499A48B047E9E701F069FD320B9D
:1031300060752146284600F0D7FD284601F000F9C9
:10314000002015B0BDE8F08F86683278132A00F2AF
:103150001A83934013F40C2F00F01583864B0193D0
:103160000093864B864A1C6887498A4B8A48A04749
:10317000404080F311884FF0040002DFA7683E78DA
:10318000002EBCD1B7F80180404601F08BF805460F
:10319000D0B9794B02938DE80801784B784A1D68C5
:1031A00079497E4B7E48A84707217E48FEF79AFF63
:1031B0000028A4D006217B48FEF794FF00289ED16A
:1031C0000120FFF781F89AE7FB7803727649774888
:1031D00011F012F93146284601F072F92E80AE78CE
:1031E0000EB1284689E03146281DFEF77BFF30B13D
:1031F0002846012101F064F93046FFF7D9F9284645
:1032000001F09EF8D0E7A668012128460FF09DFE48
:103210003678731E0B2B00F29282DFE813F00C005D
:10322000A401430071009002D1002F0175019501A6
:10323000410090024A01A1680B788DF83030B1F856
:103240000130ADF83130CB788DF83330B1F80B3038
:10325000ADF84730B1F80D30ADF84930B1F80F3066
:10326000ADF84B304B7C8DF84D3004310DA8FEF796
:103270009DFE0025062208A90DF13B000895ADF83A
:103280002450FEF7CDFC06220AA90DF141000A9553
:10329000ADF82C50FEF7C4FC0CA8FFF741FD2EE75B
:1032A000A068FAE7A568B5F80170384600F0FAFFA3
:1032B000064658B9304B02938DE888002F4B1D68A5
:1032C0003B4B2F4A30493B48A84718E72B789BB91E
:1032D0002A79EB7843EA0223A0F86230AA796B7965
:1032E00043EA0223A0F86830EB792A7A43EA022302
:1032F000A0F86A3000F0BCFC304601F021F8FEE690
:10330000A668B6F80170384600F0CCFF054638B91B
:10331000194B02938DE88800184B1D68264BD0E7A7
:10332000337823B90822F11C6C30FEF779FC234E68
:1033300096F87920D2070CD595F86D30DB0708D5C3
:103340002846FFF7A3FC20B98021281DFEF731FE97
:1033500047E796F878309F0640F1A78095F86C30E3
:103360009E0640F1A2802846FFF7B0FC002840F0FE
:103370009C804FF48071E8E7554C0100A43A00208E
:10338000C3590100D9510100125A0100F35601003E
:1033900027570100B052010052580100FB510100B3
:1033A00059570100183B00208F570100711F000082
:1033B000795201009357010025520100A83A0020DC
:1033C000A368D9789A781F8842EA0122ADF83020A4
:1033D00059791A7942EA0122ADF832209A79D979DD
:1033E00042EA0122ADF834201A7A5B7ABDB242EA91
:1033F00003232846ADF8363000F054FF804678B9F4
:10340000B64B02938DE82800B54BB64A1E68B64904
:10341000B64BB748B04702212846FFF75FFD6EE67E
:103420000CA900F039FC28B91E212846FFF756FDEB
:10343000404662E70E2142F22000FEF761FE06469A
:103440000028F5D00E2108300FF060FD0E22054651
:103450000021FEF711FCBDF830306B80BDF8323032
:10346000AB80BDF83430EB80BDF836302F802B8137
:10347000314642F22000FFF711F8D9E7A3681E8811
:10348000304600F00FFF054638B9944B02938DE8A3
:103490004800934B1D68974B13E76FF4807104301D
:1034A000FEF798FDC0057FF59CAE2846FEF7A4FD0B
:1034B00097E6A368B3F80160304600F0F3FE0546D6
:1034C00038B9864B02938DE84800854B1D688A4BBE
:1034D000F7E6061D6FF080013046FEF77BFD010622
:1034E0007FF57FAE854B93F878309A06DDD595F859
:1034F0006C309B06D9D52846FFF7E8FB0028D4D1CD
:103500004FF48071304621E7A6687D486FF02001B6
:10351000FEF760FD337843B9711C40227948FEF70D
:103520007FFB10217648FEF744FD774B1D68771C22
:10353000002D3FF4E4AD32782B68002A0CBF3846EA
:10354000002098476D68F3E7704DA0682A68002A4C
:103550003FF4D5AD037823B90130904700232B60A9
:10356000CDE50020F9E728460FF0F7FCDFF8909151
:103570000690069B002B3FF4C2ADA66809212846A1
:103580000FF0E3FC337AB04633440CA893F809B04B
:1035900018F8013F023B012B414600F29B80FEF7E9
:1035A00005FD9DF83030023B8DF83030584B1B68DC
:1035B000BBB128460FF0E1FCA3890793337AA381BE
:1035C000534B32781B6882461F464FFA8BF12B46CD
:1035D0000CA8B847236913FA8AF3A360BDF81C301E
:1035E000A381092148463278FEF77CFD82460028F7
:1035F00066D1012A64D801210CA800F083FE074699
:1036000000285DD008214846FEF76CFD002840F0F8
:10361000838002214846FEF765FD10B13D48FEF764
:1036200013FE364907F1530007F15A0AFEF7BEFCB4
:1036300041465046FEF7BAFC192142F20D00FEF752
:103640005FFD834600286DD0192108300FF05EFC25
:10365000192280460021FEF70FFB0022602388F824
:10366000003088F8012088F8023088F8032051469D
:1036700008F105000792FEF799FC97F8533088F897
:103680000C30B7F86430A8F80D30B7F86630A8F8F9
:103690000F30B7F86830A8F81130B7F86A30A8F8DA
:1036A0001330079A594642F20D00FEF759FD0028E3
:1036B00038D13846022100F003FF384600F040FEC2
:1036C000317A284601310FF040FC069B013BDBB20A
:1036D00006934EE7FEF76AFC68E700BF554C010011
:1036E000A43A0020C3590100125A01006752010098
:1036F000935701003D52010050520100A83A0020AA
:10370000183B002090020020D00200208C020020F4
:10371000D8020020A93A00205046FEF75FFD00289D
:103720003FF477AF1F233B720021384600F0C8FEFC
:10373000384600F005FE0020FEF73AFFC0E7A589F5
:10374000204BA0681F682946FEF7BAFA1E4B049367
:1037500003908DE848001D4A1D4B1E491E480295E6
:10376000B847CCE4184A02928DE80C00154B1B4A6E
:103770001D6818491A4B1B48A84720460FF08EFBBE
:103780006FF01500DDE404F10805022128460FF072
:10379000DCFB3678052E3FF4F1AC3E2E3FF433AD22
:1037A000A589084BA0681F682946FEF789FA064BD1
:1037B000049303908DE8480002950B4B034A05499A
:1037C0000A48CDE7A43A0020554C01000B5A0100ED
:1037D0009E520100125A0100C7570100C35901004F
:1037E0002F5301002E580100B0520100FC57010078
:1037F0002DE9F04F037D8668012B87B004460FD07A
:103800006A4B019300936A4B6A4A1C686A496B4B86
:103810006B48A047404080F311884FF0040002DF5E
:103820008289012A09D8614B01930093604B614A58
:103830001C686149614B6348EBE73278132A00F258
:10384000AB80934013F40C2F00F0A68000F1080524
:10385000022128460FF079FB33780F2B1DD0132B54
:103860002BD00E2B40F08B80A36803212846B3F8A1
:1038700001701E780FF069FBA3682246197838465C
:10388000FEF7C8FB16B1504810F006FC20460FF0BA
:1038900005FB002007B0BDE8F08FA668B6F80280EF
:1038A0007778042128460FF050FB224631784046B5
:1038B000FEF7B0FB002FE9D0E5E7D4F808B0DFF859
:1038C000F090DFF8E88000269BF800309E42DDDAB9
:1038D0000BEB8603B3F80120B3F803A04FF02001EF
:1038E000EFF3118781F311881046059200F0DAFC9E
:1038F000059A054678B90192CDF80880CDF8008088
:10390000D9F80050314B2B4A2B493148A84787F34F
:1039100011880136D8E787F3118800F11807BAF14A
:10392000000F1FD04FF02002EFF3118E82F31188A9
:10393000296929B16A6908682861914208BF6861EC
:103940008EF311880AF1FF331FFA83FA71B9CDF8AB
:103950000480CDF80080D9F800701C4B154A164938
:103960001C48B847284600F0EBFCD2E7384610F078
:10397000A5F8284600F078F910F08EFBCFE7204636
:103980000FF08CFA094B01930093094B094A1C680C
:1039900009490A4B10483CE7044B01930093044B40
:1039A000044A1C680449054B0C4832E7554C010099
:1039B000A43A0020C3590100125A010037530100F4
:1039C00091580100D5580100503B0020E151010001
:1039D0000F5901003B59010062590100855901004E
:1039E000084AD2F8DC303BB9C16841B1016931B154
:1039F000C2F8DC00184670476FF0440070476FF063
:103A000015007047A83A002070B52B4DD5F8DC3072
:103A100086B0064673B9294B01930093284B294A77
:103A20001C682949294B2A48A0476FF012042046F8
:103A300006B070BD012105F17000FEF7BAFA10F072
:103A4000010035D1234B24491E606FF00803059017
:103A500004900393029001900090204B20484FF473
:103A60006B7210F02BFDD5F8DC30DB68984704460C
:103A700058B1124B02938DE81800114B114A1D6882
:103A80001149124B1748A847D1E726B906B0BDE83F
:103A90007040FEF7BFBD012105F16C00FEF789FA09
:103AA000C307C4D405F164010F4810F007F8BEE75E
:103AB0006FF04404BBE700BFA83A0020554C01005A
:103AC000A43A0020C3590100125A010044530100D6
:103AD000F7530100D4020020501A0020112F0000DB
:103AE000DC02002020540100C8190020002070478B
:103AF00070B50378012B05460E4610D84378012B8C
:103B00000DD841880B1F9BB243F6FC70834206D848
:103B1000AA88131F9BB2834201D891422BD26FF027
:103B200015040EE008211948FEF7DCFA58B11046DA
:103B3000FEF754FB044630B16FF400711348FEF7F2
:103B400049FA204670BD6B787BB14FF400610F4895
:103B5000FEF72FFAAA8869882878FEF7D9FC044670
:103B60000028E9D10A4B1E60EBE76FF400610748BB
:103B7000FEF730FAEEE74FF400710448FEF719FA49
:103B800010F40072CED06FF04404DAE7183B002046
:103B9000D802002008B56FF400710748FEF71AFA42
:103BA000830506D5054B00201860BDE80840FEF7E8
:103BB000FFBC6FF0440008BD183B0020D802002075
:103BC00038B5054605480FF039F9044620B1002103
:103BD00008300FF052F92575204638BD14400020FA
:103BE00010B501464FF02003EFF3118083F31188E5
:103BF0000B4A0023D2F8C440C2F8C43080F31188C5
:103C000024B90120BDE81040FFF7DABF012204F11A
:103C100008002275A38119460FF02FF9204610BD28
:103C2000A83A002038B5064B1C68054604B938BDD3
:103C3000236813B1297A284698472469F6E700BF1C
:103C40004C030020BFF35B8F0068BFF35B8F7047AE
:103C5000438910B504462BB1C0680FF01FF900234B
:103C6000E360638110BD000000487047343B0020D2
:103C7000084B70B51C68054604B970BDE6683EB1D6
:103C8000B5F86A30B5F86820B5F862102846B04734
:103C90002469F1E74C030020F8B5074608460E46B4
:103CA000FEF73CFB054610B900252846F8BD094B38
:103CB0001C68002CF9D0A3680BB92469F9E73146D8
:103CC000384698470028EFD03046FEF727FB0028FB
:103CD000F3D1E9E74C030020024B1A680261186037
:103CE000704700BF4C0300202DE9F047DFF8088241
:103CF000714ED8F8007086B092460D46044610F01A
:103D000091F90596CDF810A0AB890393238802930F
:103D100001900096694B6A4A6A496B48B847BAF104
:103D2000010FC146374640D0BAF1020F40F0A380E0
:103D3000AB68D9F80060B3F8008010F073F904970D
:103D4000CDF80C80AB89029301905C4B00975C4AE4
:103D50005C495E48B04763895BB1019700975C4856
:103D6000D9F80060554B5B4A5649B0472046FFF7EB
:103D70006FFFAB89D9F80060A8EB030808F10408CD
:103D8000A4F80A8010F04EF903976389029301901A
:103D90004A4B00974A4A4B494F48B0476389002B2A
:103DA00057D0E56006B0BDE8F08763898BB901960E
:103DB0000096D8F80060414B464A42494748B04710
:103DC0002046FFF745FF284606B0BDE8F0470FF054
:103DD00065B8AA899A4208D901960096D8F8006079
:103DE000364B3C4A37493E48E9E7D8F800A010F086
:103DF00019F9049663890393AB89029301902F4BC1
:103E00002F4A304937480096D047E068B5F80CA0F3
:103E100008300FF0B6F8824508D901960096D8F818
:103E20000060264B2B4A27492F48C8E7E068AA893B
:103E3000A96808300FF070F86389AA899B1A63811A
:103E400028460FF02BF86389002BABD1E56863811E
:103E5000E360AB68AA891B88191D914216D00292B3
:103E6000019303970097D9F80040144B194A15495C
:103E70001E48A047A7E78DE840040296D8F80060E6
:103E80000E4B144A0F491A48B04799E7D9F8006019
:103E900010F0C8F80397AB89029301900097074B85
:103EA000074A08491348B0472946204606B0BDE8EE
:103EB000F04701F0F7B800BF554C0100B85C0100B5
:103EC000825E0100125A0100895E0100BA5E0100A3
:103ED000E65E0100C3590100135F0100325F01007B
:103EE000605F0100845F0100B05F010015600100A8
:103EF000E75F010041600100A43A00202DE9F04392
:103F0000DFF88080184DD8F8009087B00C46064640
:103F1000174610F087F8A389039333880293019022
:103F2000124B059504970095114A12491248C8474B
:103F3000737A032B10D0019500950C4B0F4A0D4955
:103F40000F48D8F80050A84720460EF0A7FF6FF0A2
:103F5000380007B0BDE8F08306F12C006761214608
:103F60000EF08FFF0020F4E7554C0100C55C010006
:103F7000825E0100125A0100A5600100C3590100D0
:103F8000DA600100A43A00202DE9FF41154B164DDF
:103F90001C68064610F046F8144B039301900093FA
:103FA0000296134B134A14491448A04706F1180708
:103FB0004FF00008002138460FF0A4FD044610B968
:103FC00004B0BDE8F08163680BB1304698472B68B8
:103FD00023606B68C4F804802C60002BEAD16C600D
:103FE000E6E700BFA43A002000040020554C010081
:103FF000D55C0100825E0100125A0100B95D01002A
:104000002DE9F04FDFF89891594ED9F8008089B02A
:104010000F46144605469A4610F004F80696059495
:10402000BB89544A04930190534B54495448039715
:1040300002950096C0474FF0FF31524810F054F8F7
:10404000514B03F14800FFF7FDFDB04630B15A7AFD
:10405000033A012A02D81846FFF796FF6B7A032B22
:1040600068D1042107F108000EF067FF2A88D7F80D
:1040700014B0464E42EA04320280BB89D9F80040AF
:10408000043B438002233B750FF0CCFFCDF810803A
:104090000190CDF80CB00295CDF800803C4B354A2C
:1040A00036493C48A04734687268236833609442BC
:1040B00008BF7360C4F804B04FF02003EFF311821F
:1040C00083F31188002323606B69002B41D16C615D
:1040D0002C6182F311883846FEF7D8F9002844D0C5
:1040E000CDF808800190CDF80080234BD9F80080EE
:1040F000294A22492948C0474FF02003EFF3118194
:1041000083F311882B69002253B19C422AD1236882
:1041100012BB6A692B61944200D16B61002323605A
:1041200081F311880023636033682360736834600F
:1041300003B9746013480FF0AFFFBAF1000F04D059
:1041400038460EF0ABFE4FF0000A504609B0BDE80D
:10415000F08F1C606C61BCE713606B699C4208BF08
:104160006A61DBE71A461B68CEE74FF0010AECE70D
:10417000554C0100825E0100F65C0100125A0100FC
:104180008C610100343B002060030020000400200B
:10419000E75C0100C4610100C35901004C540100F7
:1041A000A43A0020F8B5174C04F1480607463046FB
:1041B000FFF748FD054608B10020F8BD0146A022E2
:1041C0002046FDF759FDBFF35B8F012356E8002F12
:1041D00046E800310029F9D1BFF35B8F0722394649
:1041E00004F14C00FDF71CFD1823A4F864302823CB
:1041F00004F17800A570A4F86630034910F048FA7D
:104200002046F8BD60030020CD49000038B50D46BA
:10421000044600F14C0107222846FDF7ECFC60B192
:10422000E378072233B904F15A012846BDE8384043
:10423000FDF7E1BC04F15301F7E738BD70B5044662
:1042400086B000F14805BFF35B8F55E8003F0133AE
:1042500045E80032002AF8D1BFF35B8F0B4B1E6894
:104260000FF0E0FE024628462188FFF7EBFC084BE2
:1042700004930390029101920093064A064B07496A
:104280000748B047204606B070BD00BFA43A0020E2
:10429000554C0100825E0100455D0100125A01008B
:1042A0007F60010008B50A4B014603F14800FFF7A3
:1042B000C9FC58B15A7A033A012A07D81A888A42A7
:1042C00004D11846BDE80840FFF7B8BF002008BD7C
:1042D0006003002010B50A4C014604F14800FFF7C6
:1042E000B1FC50B1A37843B92046FFF78FFF20B946
:1042F0002046BDE81040FFF7A1BF002010BD00BF61
:104300006003002038B50D4C034604F148000D460B
:10431000FFF798FC80B1A27872B93BB9637AAB42DF
:104320000AD10648BDE83840FFF788BF1946204645
:10433000FFF76CFF0028F1D0002038BD600300209B
:1043400070B5054686B000F14804BFF35B8F54E8B2
:10435000003F013B44E80032002AF8D1BFF35B8FF5
:104360000A4B1E680FF05EFE024620462988FFF7C2
:1043700069FC074B04930390029101920093054A54
:10438000054B06490648B04706B070BDA43A002068
:10439000554C0100825E0100515D0100125A01007E
:1043A0007F60010038B5044600F12C050021284645
:1043B0000EF04AFD50B92046FFF7E6FD2046FFF714
:1043C00047FC2046BDE83840FFF7BABF0EF066FD57
:1043D000ECE700002DE9FF412E4D2F4C2F680646DB
:1043E0000FF020FE2D4B01902D4A2E492E480294AD
:1043F0000094B8472D4B0022012130469A6010F0FE
:104400008EFA2B4B03F14800FFF71CFC2A461F468F
:10441000254618B9012004B0BDE8F081597A99B950
:10442000BFF35B8F191D51E8000F20F0400441E8F5
:10443000004EBEF1000FF6D1BFF35B8F410603D5EE
:104440001846FFF7AFFFE5E77C7A032CE2D1D2F8FC
:1044500000800FF0E7FD114B0190114A11491548FA
:10446000039502970095C047134B0022042106F1E3
:10447000140010F054FA012386F8203006F12800C9
:104480000E4B0022042110F04AFA022386F8343041
:104490002046C0E7A43A0020554C0100095D010008
:1044A000825E0100125A0100D65D0100D83B002057
:1044B00060030020EC5D0100780300208C030020E5
:1044C0002DE9F0430446734EDFF80482356887B067
:1044D0000F460FF0A7FD637A6F490190042B96BF3A
:1044E0006E4A6F4B52F823300293042F96BF6B4AEB
:1044F0006B4A52F827200392CDF81080CDF8008047
:10450000684B694A6948A847657AAF42C1460CD1F1
:10451000CDF80480CDF800803468624B644A5E496F
:104520006448A04707B0BDE8F083677295B1022DDB
:1045300014D0637A042B00F2A08001A252F823F079
:10454000A3450000254500005F4600006D450000C2
:10455000254500002046FFF771FEEAE7A378002B0F
:10456000E7D104F1780010F0A3F8E2E7A378022B7A
:10457000D8D004F12C000FF08BFA04F118000FF0E2
:1045800087FA00214C4810F06DFA0023204623647E
:10459000636400F01BFC204607B0BDE8F043FFF762
:1045A00041BBA378022B05D1204607B0BDE8F043FC
:1045B000FFF7C6BEEB1E012B44D8204600F040FC9E
:1045C0003E4B1D68EDB93E4E3E4F4FF02003EFF3DA
:1045D000118183F3118823692BB160691A68226104
:1045E000834208BF626181F311888BB132681A601F
:1045F00072685D60336002B9736038460FF04CFD3D
:10460000E3E76B6813B1217A204698472D69D9E713
:10461000A3781BB904F1780010F04AF8BFF35B8F60
:10462000043454E8003F43F0400344E80032002AD9
:10463000F7D1BFF35B8F2048002107B0BDE8F043FE
:1046400010F010BA022D03D12046FFF7EBFAABE7CA
:10465000012D7FF467AF237A002BA5D0F4E7A37870
:10466000002B7FF45FAF184840F6B83204F17801B0
:1046700007B0BDE8F04310F07FB8CDF8089001977F
:10468000CDF800903468074B094A03490F48A0470A
:1046900048E700BFA43A0020125A0100A45C0100C0
:1046A000F9600100335D0100825E010003610100D9
:1046B0000B5A010021610100D83B00204C0300206F
:1046C00000040020343B0020C81900203F61010095
:1046D000554C01004C30704770B5064608460D46F3
:1046E000FDF71CFE08B900241CE01D48FFF7AAFADC
:1046F0008305F8D43046FFF7EDFD0446A0B1437AB8
:10470000012B06D001D3032B0CD92046FFF718FE4E
:10471000E9E76B88A0F86630AB88A0F86830EB88D2
:10472000A0F86A30204670BD3046FFF73BFD0446D6
:104730000028F7D0072231465A30FDF771FA6B880E
:10474000A4F86630AB88A4F86830EB88A4F86A3027
:1047500020460121FFF7B4FE0120FDF729FFE1E724
:10476000183B002070B506460D4600293BD1304667
:10477000FFF7B0FD044628B93046FFF713FD0446A5
:10478000002851D0231D002D35D06A88A4F866205A
:10479000AA88A4F86820EA88A4F86A20BFF35B8F8F
:1047A00053E8002F42F0010143E800100028F7D140
:1047B000BFF35B8FD10702D42046FFF73FFD637A3A
:1047C00063B91B48FFF73EFA830707D51DB10121E6
:1047D0002046FFF775FE0020FDF7EAFE2046FFF7B2
:1047E000AFFD002070BD0846FDF798FD0028BED142
:1047F0006FF0150070BDBFF35B8F53E8002F22F000
:10480000010143E800100028F7D1BFF35B8FD20706
:10481000D5D52046FFF794FD637A012BCFD12946E9
:104820002046FFF74DFECAE76FF00B0070BD00BFDA
:10483000183B002070B50E468178044611B94C3003
:10484000FFF790FF637A013B032B03D8DFE803F007
:1048500006101B0E6FF03805284670BD20462672E4
:104860000021FFF72DFE0020FDF7A2FE0025F3E753
:1048700004F178000FF01CFF002142F20E00BDE8A9
:104880007040FDF70BBE032140F20640FDF738FCF7
:10489000054698B1032108300EF038FB23880380C9
:1048A0008670294640F20640FDF7F8FD05460028CF
:1048B000D2D104212046FFF703FECDE76FF0360585
:1048C000CAE7F8B507460D4642F213000E21FDF780
:1048D00017FC0646C8B10E2108300EF017FB002168
:1048E00004460E22FDF7C8F93B8823802B8863809D
:1048F0006B88A380AB88E380EB882381314642F24A
:104900001300BDE8F840FDF7C9BD6FF03600F8BDF3
:1049100070B5274B0D468AB004461E680FF082FB27
:10492000EA880792AA8806926A8805922A88214B0B
:10493000049294F86C2008930392019000931E4A0D
:104940001E4B02941E491F48B047B4F862302A88B3
:104950009A420CD86A889A4209D3B4F86820AB8886
:104960009A4204D1B4F86A20EB889A421CD004F130
:1049700078000FF09DFE144B93F878309A0703D51A
:1049800094F86C309B0701D4E37833B9294620466C
:104990000AB0BDE87040FFF794BF294620460AB030
:1049A000BDE8704000F0C2BB6FF044000AB070BDBB
:1049B000A43A0020554C0100825E01005F5D0100B9
:1049C000125A0100775D0100A83A0020034607B59E
:1049D00013F86F2C022AA0F1780005D11321FFF7FC
:1049E00029FF03B05DF804FB33F8142CADF8002068
:1049F00033F8122CADF80220694633F8102C33F846
:104A00000E3CADF80420ADF80630FFF781FFE8E773
:104A100038B5084B0D46002808BF18464FF0FF3147
:104A20000EF00CFA291D044608300EF026FA204636
:104A300038BD00BFA83F00202DE9F04106460C46D6
:104A400016480021FFF7E4FF3378032B05464FF0AB
:104A5000000605D00EF022FA35462846BDE8F08162
:104A6000466100F108070E4E3846B6F888800EF011
:104A700088FA80450CD2B6F8886054F8081F324690
:104A800038460EF049FA314620460EF05EFAE4E769
:104A900038460EF076FA86B2EFE700BFCC3F002032
:104AA000A83A00202DE9F041494F4A4D3E6886B0B2
:104AB00004460FF0B7FA484B019003950294009515
:104AC000464A47494748B047637AB8462E460BBB2B
:104AD000BFF35B8F231D53E8002F22F0400143E812
:104AE00000100028F7D1BFF35B8F530612D53E6844
:104AF0000FF098FA03952388029301900095364BA6
:104B0000364A37493848B047204606B0BDE8F0413C
:104B1000FFF748BC002104F12C000EF095F9054682
:104B200070B901960096D8F800402B4B2F4A2C49BB
:104B30002F48A047404080F311884FF0040002DF67
:104B4000D8F800700FF06EFA0596AB890096294EE2
:104B500004930190214A224903950294264B274849
:104B6000B847A989B6F88820914209D800231A4687
:104B700029462046FFF744FA50B106B0BDE8F0815F
:104B800004F1090729463846FFF756FF014628B9C0
:104B9000284606B0BDE8F0410EF080B9012300229E
:104BA0002046FFF72DFA0028F2D0AA89B6F88830FF
:104BB0009A4202D800230122DAE729463846FFF755
:104BC0003BFF01460028E3D001231A46E8E700BF77
:104BD000A43A0020554C0100205D0100825E0100D6
:104BE000125A0100B95D01001D5E0100C3590100A8
:104BF000C75A0100A83A0020005D0100575E01007D
:104C0000034BC01A034B40115843C0B2704700BF5A
:104C100060030020CDCCCCCC124B134A196810B5E0
:104C20001160596801B95A60596892600F4A1A6058
:104C300001B95A6001F08AFB02F0B6F8044670B977
:104C400000F09CFA0A48FEF7FDFF40B10948FEF764
:104C5000F9FFC30703D501210748FFF731FC2046C0
:104C600010BD00BF000400205003002058030020A6
:104C7000A8030020640300206003002070470000A8
:104C80001FB50B4A13682BB90A4850600A601846D2
:104C900004B010BD084B02930093084B01901C68B0
:104CA0000748084B084A0949A0476FF00B00EFE797
:104CB00008040020F43B0020554C0100A43A0020D9
:104CC000D162010062620100C3590100125A010061
:104CD000F8B507460E46002004211546FFF798FE5A
:104CE0000421044608300EF011F907704670458023
:104CF0002046F8BD7047000000238360054B5968CB
:104D000000F1080211B95A601A6070470A605A60CF
:104D1000704700BFAC040020036C10B513B1083B12
:104D2000002203B910BD8B4203F108040FD199682A
:104D30003AB9426C0164944200D1416400229A6005
:104D400010BD1160416C8C4208BF4264F6E72246F8
:104D5000002CE7D09B68002BE4D0083BE1E7036818
:104D600010B504462BB143685B6803B19847002334
:104D70002360E3681BB12046BDE81040184710BD12
:104D80007FB50C4B0293A0F110048DE818000A4B7C
:104D90000A4A1E680A490B4B05460B48B04755F8AE
:104DA000100C2146FFF7B8FF204604B0BDE8704064
:104DB000FFF7D5BF554C0100A43A0020C3590100AC
:104DC000125A01000C620100256401001A4B2DE902
:104DD000F7431C6806462CB10027DFF86080083CCA
:104DE000B94614B903B0BDE8F083636801A9304641
:104DF0009847002818DB019D23882B87A5F85C3095
:104E0000414605F110000FF043FCAF60726C05F1F4
:104E1000080372B97364336401982E604368C5F85F
:104E20000C901B6803B19847A468002CDAD0083CAA
:104E3000D7E713607364EFE7AC040020814D0000F6
:104E4000036C10B5A3B1B3F108000AD110BD083C42
:104E5000FFF785FF64B1A36803B1083B20461C46F9
:104E6000F6E71C68002CF2D1BDE81040FFF777BFD1
:104E700010BD0431FFF7CCBDF8B5144605460F460A
:104E800002F1080004211E460EF057F8A189478060
:104E900004390180324621462846BDE8F840FFF734
:104EA0002DB80000F0B58B89032B87B007460D465F
:104EB0000AD85E4B019300935D4B5E4A1C685E49C5
:104EC0005E4B5F48A04715E00846042150F8084FA4
:104ED00066880EF03AF8AA8996420DD0534B039398
:104EE0000093534B019202961C68524A534B52490D
:104EF0005448A04707B0F0BD617849B94B4B0193C6
:104F000000934B4B4B4A1C684B494C4B4E48D9E7DE
:104F10002378122B2CD0132B1ED0012BEAD0434A1E
:104F200002928DE80C00424B484A1D684249434BAF
:104F30004748A847022261783D680120FFF7C8FE74
:104F40000221044608300DF0E1FF00230370437096
:104F500022460521284629E0012ECBD8334B019368
:104F60000093334B334A1C6833493A4B3A48A9E71C
:104F7000072E09D82D4B019300932D4B2D4A1C6809
:104F80002D49364B36489DE73C68E6788EB10222C3
:104F90000120FFF79DFE0221054608300DF0B6FF07
:104FA0000023037043702A4605212046FFF764FF63
:104FB000A0E7AB6858781A7842EA0022ADF81020D2
:104FC000D8789A7842EA0022ADF8122058791A79F6
:104FD00042EA0022ADF814209A79DB79132042EAE4
:104FE00003230222ADF81630FFF772FE04A907462C
:104FF0002046FEF751FE0221054607F108000DF09C
:1050000085FF7DB10670467000233A460521204693
:10501000FFF732FF002D3FF46DAF04A92046FFF7E4
:1050200050FC67E7012303704570EDE7554C010024
:10503000A43A0020C3590100125A0100496201003C
:105040000863010036630100676301000B5A010029
:10505000F76301001E6201009863010030620100E5
:10506000C4630100006C00B1083800B97047B0F8A3
:105070005C308B42FAD083680020002BF6D0A3F17D
:105080000800F2E7006C00B1083800B97047038FE0
:105090008B42FBD083680020002BF7D0A3F10800DF
:1050A000F3E700007FB58B89032B06460C460FD82B
:1050B000164B01930093164B164A1D681649174B61
:1050C0001748A847204604B0BDE870400DF0E6BE82
:1050D0000846042150F8083F5D880DF036FF294648
:1050E0003046FFF7CFFF58B9084B02938DE82800F0
:1050F000074B0C4A1D680849084B0B48A847E1E7D5
:10510000436821461B699847DCE700BF554C010006
:10511000A43A0020C3590100125A01005462010050
:105120006F6201000B5A01009C62010070B5124BC6
:105130001A78013212F0FF0208BF01221A700C46E1
:105140000546197808221220FFF7C2FD08210646FD
:1051500008440DF0DBFE2388038063884380A38826
:105160008380E388C3803246284600230521FFF769
:1051700083FE002070BD00BFA80400200148FFF797
:10518000BBBD00BFE83B00200620704710B50A4AAF
:10519000002312F8334084424FEAC30102D10A448B
:1051A000907810BD01331B2BF3D110F0400F14BFCA
:1051B0000020062010BD00BF1C6701007FB5114D07
:1051C0002C680E4684B9F42221462846FCF754FD8B
:1051D00002220D4B6B6005F1D80011460EF044FF22
:1051E0003560204604B070BD084B02930093084B15
:1051F00001901C680748084B084A0949A0476FF00E
:105200000B00EFE7B4040020143C0020554C0100D3
:10521000A43A0020D4650100C4640100C359010010
:10522000125A010010B50446006908B10DF036FEAF
:10523000A3680BB120469847204614220021BDE800
:105240001040FCF719BD08B501F108000DF08DFE06
:10525000002008BD2DE9FF410D6806460C464FF0C1
:1052600000084FF4205302A900682F688DF80880C9
:10527000ADF80A30FCF752FE98B142F6010303A9DB
:1052800030688DF80C80ADF80E30FCF747FE40B169
:10529000236923B1328A5988914200D25A80012071
:1052A00012E061683068FCF739FE10B10023236119
:1052B000F5E7E368A0681A784AB1B5F85E308189ED
:1052C0005B1A934203DA002004B0BDE8F0810421A8
:1052D00008300DF01BFE338AA168206103804380F3
:1052E0008A89B5F85E308968D6F804809B1A002553
:1052F0000A44009531469BB23846C047011EE2DBA6
:10530000E06802780B1D2AB90370A06808300DF020
:10531000FDFDC4E79A42F8D0A2689389043B9381CB
:10532000D1E78B6870B505460C460E6863B94868CE
:10533000012108300DF0EAFD2B68A0601B78002BDE
:105340000CBF012302230370A3681B78012B03D039
:10535000022B1AD0002070BD2B681B78002BF9D1CE
:105360006068042108300DF0D1FDE0602B8A0380D5
:105370002B685B8843806368B6F85E009B89C01A1F
:10538000042894BF0020012070BD2B681B78022BDD
:10539000E0D16068122108300DF0B8FDE0602968A6
:1053A0002B8A20F8023B10220131FCF739FC63689C
:1053B000B6F85E009B89C01A1228E2E72DE9F04199
:1053C0000E6888B005460C46002742F6010302A984
:1053D0000068D6F800808DF80870ADF80A30FCF748
:1053E0009DFD28B90023A360012008B0BDE8F0812D
:1053F0004FF4205303A928688DF80C70ADF80E30D7
:10540000FCF78CFD40B1A368002BEDD02A8A5988A7
:105410009142E9D25A80E7E76268B6F85E30928935
:105420009B1A032BE1D9102300900DEB03026E6849
:1054300029464046B047021ED4DB237C9A42D1D194
:1054400004A9E068FCF7D7FB0028CBD16074606842
:10545000042108300DF05AFD2B8AA06003804380A0
:10546000C2E7000010B517230446A0F85E3043875A
:105470000649B0300FF00CF90023C4F8A830C4F886
:10548000AC302068BDE8104001F032BCC5590000C6
:1054900011F0010F837C04D013F0150F12D0426875
:1054A00082B18A0704D513F02A0F0DD082685AB151
:1054B000194011F0300F09D111F00C0F14BF0F205B
:1054C0000020704702207047032070470520704776
:1054D0002DE9F7430F6806460C4600684968D7F87F
:1054E0000090FCF71BFD804600284DD11521304669
:1054F000FFF7CEFF0546207548B1E3681D7815B16A
:1055000084F814804546284603B0BDE8F083A068BF
:10551000022108300DF0FAFC338AA1682061038073
:105520008A89B7F85E308968D6F8048000959B1A9E
:105530009BB20A4448463146C047011E08DA01F1D1
:10554000FF03FE2B9ABF4942C9B20E212175DAE74B
:10555000E06802788B1C82B90370A06808300DF0F7
:10556000D5FCA368B7F85E509B89ED1AE3681B78F9
:105570009D42D4BF00250125C5E79A42EDD0A2681F
:105580009389023B9381BEE70125BCE710B58A8968
:10559000022A044603D0102A0AD0002010BD00239E
:1055A000037001F108000DF0E0FC6080012010BDE7
:1055B000022300F8013B8968FCF732FBF6E70000A4
:1055C00010B50421FFF74EFD0446D8300EF064FDFF
:1055D000D4F8A43043B104F1B00147F2305203488B
:1055E000BDE810400FF0C8B810BD00BFC8190020BA
:1055F00003685B7A032B0AD1BFF35B8FD0F8A0005E
:10560000BFF35B8F6FEAA00000F00100704701203C
:1056100070470620704708B50421FFF723FDBDE859
:105620000840D8300EF038BD08B50421FFF71AFD48
:10563000BFF35B8F00F1A00353E8002F22F00102BB
:1056400043E800210029F7D1BFF35B8FD830BDE8D4
:1056500008400EF021BD08B50421FFF703FDBFF39C
:105660005B8F00F1A00353E8002F22F0020243E811
:1056700000210029F7D1BFF35B8FD830BDE8084087
:105680000EF00ABD437A032B37B50CD0174B0193AC
:105690000093174B174A1C681749184B1848A04726
:1056A000002003B030BD0421FFF7ECFC044658B9DC
:1056B0000E4B019300930E4B124A1D680E490F4B7F
:1056C0001148A8472046ECE7BFF35B8FD0F8A03025
:1056D000BFF35B8F5B07F5D5044B01930093044B3D
:1056E000044A1C680449054B0848D8E7554C01009A
:1056F000A43A00200B5A0100125A010099640100DB
:10570000D2640100C3590100F06401001B6501006F
:105710002DE9F3410C46D1F800802A210646FFF717
:10572000B7FE05462075E0B9628A01900092237C9D
:10573000B768E26831464046B847002802DB237C60
:1057400098420BD000F1FF03FE2B9ABF4042C0B23B
:105750000E202075284602B0BDE8F0812575012590
:10576000F8E70025F6E7000073B5054600F1D80616
:10577000C5F8A4100C4630464FF0FF310EF0B4FCD3
:105780002846FFF735FF80B9184B01930093184B5B
:10579000184A1C681849194B1948A04730460EF0A2
:1057A0007BFC6FF0380002B070BD266906F108007E
:1057B0000DF0E3FBB389A081E38120692D680DF032
:1057C000A1FB23699B6806461878FFF7DFFC0138C8
:1057D000C0B2042896BF0B4B0B4B53F82030324617
:1057E00028460421FFF748FB0020DCE7554C010068
:1057F000A43A00200B5A0100125A01005C64010017
:105800007665010048640100175600002DE9F74352
:105810000446B0301E460F4690460EF049FFD4F8BD
:10582000A430E3B91C4B019300931C4B1C4A1D6828
:105830001C491D4B1D48A847D4F8A81059B1D4F8ED
:10584000AC200B68C4F8A830914208BFC4F8AC3053
:105850002046FFF789FF002003B0BDE8F0831869F8
:1058600028B10DF01BFBD4F8A43000221A61D4F843
:10587000A4302068D3F8049000255D603A46009378
:1058800031464346C847D4F8A40043680BB9FFF734
:10589000C9FCC4F8A450CFE7554C0100A43A00203D
:1058A0000B5A0100125A0100696401004F650100A2
:1058B0008A8989680023FFF7A9BFFFF7F9BFFFF7BF
:1058C000F7BFFFF7F5BFFFF7F3BFFFF7F1BFFFF734
:1058D000EFBFFFF7EDBFFFF7EBBFFFF7E9BF10B476
:1058E0000A46034680B189680C88162C83BF1724AA
:1058F0005C87A3F85E40002299BF04231146002371
:10590000928910BCFFF782BF10BC704730B4D0F84A
:10591000A4208C686AB113692BB195891969D28961
:105920009A8129449960E3780022114630BCFFF740
:105930006DBF0E23F8E7F7B500F1A0030546BFF3EE
:105940005B8F53E8002F42F0040243E80021002956
:10595000F7D1BFF35B8F05F1D80420460EF09CFB16
:1059600020460EF099FBD5F8A8408CB9D5F8A430A4
:105970000022C5F8A820C5F8AC200BB903B0F0BDD3
:105980000E231146284603B0BDE8F040FFF73EBFA6
:10599000266867682FB1002300941A460E21184626
:1059A000B8472046FFF73EFC002EDFD0344636686D
:1059B000EFE710B50446FFF7BEFF2068BDE81040D2
:1059C00001F0A0B937B50C4B019300930B4B0C4A77
:1059D0000C491D680C4B04460C48A847A4F1B000C4
:1059E000FFF7A9FF54F8B00C01F08CF9002344F83C
:1059F000B03C03B030BD00BF554C0100A43A0020BC
:105A0000C3590100125A0100B8640100B8650100D1
:105A10002DE9F74306468868D1F800900C46083017
:105A20000021D9F800800DF071FA0027E06027749A
:105A300015213046FFF72CFD0546207408BBA168F0
:105A4000B9F85E308A898968A08800909B1A7768C7
:105A50000A449BB231464046B847011E0BDA01F1B9
:105A6000FF03FE2B9ABF4942C9B20E21217428467A
:105A700003B0BDE8F083A06808300DF047FA0125B7
:105A8000F5E73D46F3E7000030B585B00D46144616
:105A9000FFF7F8FDF8B1B0F85E1001348C420FD971
:105AA0000E4B039300930E4B019102941C680D4A18
:105AB0000D4B0E490E48A0470024204605B030BDCE
:105AC00000210846FFF7D5F90121044608300DF002
:105AD0001DFA0570F1E70446EFE700BF554C0100E1
