:10000000E02C0020B51C0000091D0000251B00008D
:10001000251B0000251B0000251B0000251B0000E0
:10002000251B0000251B0000251B0000B516000045
:10003000251B0000251B000071160000251B000079
:10004000791C00001B150100791C0000791C0000C0
:10005000791C0000791C0000791C0000791C00004C
:10006000791C0000791C0000791C0000791C00003C
:10007000791C0000791C0000791C0000791C00002C
:10008000791C0000791C0000791C0000791C00001C
:10009000791C0000791C0000791C0000791C00000C
:1000A000791C0000791C0000791C0000791C0000FC
:1000B000791C0000791C0000791C0000791C0000EC
:1000C000791C0000791C0000791C0000791C0000DC
:1000D000791C0000791C0000791C00000000000061
:1000E0002912000000000000511A0000000000006A
:1000F000511A000000000000511A0000000000002A
:10010000511A000000000000511A00000000000019
:100110005D36010000000000511A000000000000E0
:10012000511A000000000000511A000000000000F9
:10013000511A000000000000E1140100000000005E
:10014000511A0000B03E0020A93801000000000054
:10015000511A000000000000511A000000000000C9
:10016000511A000000000000D5140000000000003B
:10017000511A000000000000511A000000000000A9
:10018000511A000000000000511A00000000000099
:10019000511A000000000000511A00000000000089
:1001A0001515010000000000511A000000000000B9
:1001B000511A000000000000511A00000000000069
:1001C000511A000000000000511A00000000000059
:1001D000511A000000000000511A00000000000049
:1001E000511A000000000000511A00000000000039
:1001F000511A000000000000511A00000000000029
:10020000511A000000000000511A00000000000018
:10021000511A000053B94AB9002908BF00281CBF71
:100220004FF0FF314FF0FF3000F08EB9ADF1080C08
:100230006DE904CE00F01AF8DDF804E0DDE90223F0
:1002400004B07047430803F05533C01A830803F025
:10025000333300F03330184400EB101000F00F304F
:1002600000EB002000EB0040000E70472DE9F04746
:100270008C460D460446089E002B51D18A421746F3
:100280006DD9B2FA82FEBEF1000F0BD0CEF1200C78
:1002900001FA0EF520FA0CFC02FA0EF74CEA050CF6
:1002A00000FA0EF44FEA174A250CBCFBFAF81FFAC5
:1002B00087F90AFB18CC45EA0C4508FB09F3AB4269
:1002C0000AD9ED1908F1FF3280F02381AB4240F2E8
:1002D0002081A8F102083D44ED1AA4B2B5FBFAF062
:1002E0000AFB105544EA054400FB09F9A14509D968
:1002F000E41900F1FF3380F00A81A14540F2078143
:1003000002383C44A4EB090440EA08400021002ED6
:1003100061D024FA0EF4002334607360BDE8F087E6
:100320008B4207D9002E54D0002186E821000846D0
:10033000BDE8F087B3FA83F1002940F08E80AB422C
:1003400002D3824200F2FA80841A65EB0305012091
:10035000AC46002E3FD086E81010BDE8F08712B9F9
:100360000127B7FBF2F7B7FA87FEBEF1000F34D1D1
:10037000EB1B3A0C1FFA87FC0121B3FBF2F8250CAA
:1003800002FB183345EA03450CFB08F3AB4207D9DF
:10039000ED1908F1FF3002D2AB4200F2D180804665
:1003A000ED1AA3B2B5FBF2F002FB105543EA054487
:1003B0000CFB00FCA44507D9E41900F1FF3302D27D
:1003C000A44500F2B8801846A4EB0C0440EA0840AB
:1003D0009DE731463046BDE8F087CEF1200405FAAE
:1003E0000EF307FA0EF720FA04F83A0C25FA04F493
:1003F00048EA0308B4FBF2F14FEA184502FB114446
:100400001FFA87FC45EA044501FB0CF3AB4200FAF6
:100410000EF409D9ED1901F1FF3080F08A80AB426A
:1004200040F2878002393D44EB1A1FFA88F5B3FB8E
:10043000F2F002FB103345EA034500FB0CF3AB423C
:1004400007D9ED1900F1FF386FD2AB426DD90238F0
:100450003D44EB1A40EA01418FE7C1F1200722FA3F
:1004600007F88B4005FA01F448EA030320FA07FE77
:100470004FEA134CFD404EEA040EB5FBFCF94FEA7F
:100480001E440CFB19551FFA83F844EA054509FB85
:1004900008F4AC4202FA01F200FA01FA08D9ED18A8
:1004A00009F1FF3043D2AC4241D9A9F102091D4400
:1004B0002D1B1FFA8EFEB5FBFCF00CFB10554EEA0F
:1004C000054400FB08F8A04507D9E41800F1FF3502
:1004D00029D2A04527D902381C4440EA0940A4EBA0
:1004E0000804A0FB02894C45C6464D4615D312D0E0
:1004F00056B1BAEB0E0364EB050404FA07F7CB40E0
:100500001F43CC40376074600021BDE8F087184677
:10051000F8E69046E0E6C245EAD2B8EB020E69EB97
:1005200003050138E4E72846D7E7404691E78146CE
:10053000BEE7014678E702383C4445E7084608E74D
:10054000A8F102083D442BE7704700BF70B503785F
:100550008AB004460E4607AD032B20D8DFE803F02F
:1005600002191B1D1149284601F028FC62780492EB
:10057000A2780392E2780292227901926279009243
:10058000A37905950A4A1B21304600F00DFD0AB0FB
:1005900070BD0849E7E70849E5E70849E3E7084A85
:1005A0000A21284600F000FDE0E700BF8154010069
:1005B000AA540100885401008F540100995401008D
:1005C000A354010030B589B00D46044604F0EEF99D
:1005D00001A9FFF7BBFF35B12A4601A9084800F081
:1005E000D5FC09B030BD074B1B689C42F9D101A96D
:1005F000054800F0CBFC1321204604F087FAF0E711
:10060000CD54010000000020EB54010030B5134C24
:10061000236883428BB00D461DD104F0C7F903A9AE
:10062000FFF794FF2A4603A90D4800F0AFFC2068AD
:1006300003F0DEFF002323600A4B0B49186801908A
:100640009B88ADF8083001A803F07EFB014610B18D
:10065000064800F09BFC0BB030BD00BF000000203E
:1006600016550100245401007106000034550100A4
:1006700070B5104C23688AB006460D46C3B9012AEE
:1006800016D803A9FFF762FF2A4603A90A4800F01B
:100690007DFC46350CDB03F0A9FB48B9074A10681E
:1006A000516801AB03C301A9304604F081F9206011
:1006B0000AB070BD00000020FA5401002A54010065
:1006C00007B5002003F0CCFA014628B10E4800F02F
:1006D0005DFC03B05DF804FB0C4800F057FC0C48CF
:1006E00003F03EFC0B4B0C49186800909B88ADF85A
:1006F0000430684603F028FB014608B10748E6E7E6
:10070000074800F043FCE4E7575501007755010026
:10071000203A0020325401007106000034550100D7
:100720008E5501000C4B1B78062B12D10B4B186811
:1007300010F00F000DD104331B6803F0F003302BD1
:1007400008D1074B1B6813F0F00F0CBF01200020ED
:1007500070470020704700BFE00F00F0E40F00F08A
:10076000EC0F00F008B54FF02003EFF3118183F395
:100770001188FFF7D7FF20B13D4AD36823F080737B
:10078000D360FFF7CFFF10B13A4B03221A60FFF797
:10079000C9FF30B14FF080430022C3F80C21C3F8E9
:1007A0001021354B1B78062B17D1344B1B681807CB
:1007B00013D1334B1B6803F0F002302A03D003F04F
:1007C000E003402B09D14FF08043D3F80024D20737
:1007D00003D56FF00102C3F800244FF01022D2F8C5
:1007E0000032002B274B03DBD2F80022002A2FDA3D
:1007F0000122C3F80425D3F80024002AFBD04FF0CF
:1008000010231522C3F800221E4A1346D2F8001402
:100810000029FBD04FF010221521C2F80412D3F8A2
:100820000024002AFBD00022C3F80425154AD2F880
:100830000034002BFBD0BFF34F8F1349134BCA6812
:1008400002F4E0621343CB60BFF34F8F00BFFDE7BC
:100850000122C3F840250C4B4FF0FF329A62DA6256
:100860000B4B0C4A1A6081F31188002008BD00BFB1
:10087000F0ED00E0A0050040E00F00F0E40F00F014
:10088000E80F00F000E0014000ED00E00400FA0590
:10089000543A00200090D00308B50446084611469B
:1008A0001A46A04713F0C0FE01F0ACF910B5C47AA7
:1008B000C0688C424FF00C04B6BF614304FB0101D9
:1008C0004158202492FBF4F401EB8401196002F0FA
:1008D0001F0010BD07B501ABFFF7E8FF019A012328
:1008E00003FA00F013680343136003B05DF804FBE0
:1008F00007B501ABFFF7DAFF019A012303FA00F015
:10090000136823EA0003136003B05DF804FB2DE9CC
:10091000F0474368058904460068A77A5D43284488
:1009200000214FF00C0E4FF0200CB94205DB0025E2
:1009300023899D4223DBBDE8F087D4F80C90B5FBFA
:10094000F3F20EFB01F81F2A09EB08064FEA9303A6
:1009500006F1040AC8BF1F3203F10303C6F804A05E
:10096000C6F808A0CABF92FBFCF2E17249F8080081
:1009700023F00303C8BF00EB82000131D5E76268B2
:10098000E36820686A431E1D865081189A684A6091
:100990009A682046116099602A460021FFF79AFF65
:1009A0000135C5E72DE9F04F8BB0867A00AF0446DC
:1009B000FB60B3000A3323F00703ADEB030D43687C
:1009C0003A6103336A4623F0030342F80439E946E7
:1009D0004FF0FF3500234FF00C0E581EB3427862E3
:1009E00009DA2BB110688008033020F00300506052
:1009F000506888420BD27B6A013314D13A6D0023D0
:100A000013606FF00B002C37BD46BDE8F08FE06837
:100A10000EFB030000F1040C40680432604518BF6F
:100A20001D460133D9E76B1CE8D0E16859F8252051
:100A30000C2303FB051353F8046F9E4261D096E824
:100A40000A00196031684B6023682946F31A204672
:100A500093FBF2F2FFF74CFFA9EB890309EB850A40
:100A6000BB617B6A9D4223680EDB3A6911467A6A54
:100A70000A60F31A59F8222093FBF2F3FA68136024
:100A80003B6D00201E60BEE75AF8042BF31A93FB5F
:100A9000F2F3BA699B007B610AEB4A0313444FF0FF
:100AA000010BFB6105EB0B03BB60DAF80080B96852
:100AB0000BFB08F33B62F3187B607B6920460BEB72
:100AC0000302FFF707FF7B682268218908F1FF38DE
:100AD0009844A8EB020862684A4390450AD2E2684B
:100AE000F969386A0A44111D31509168596091685A
:100AF0000B6093600BF1010BBBF1040FD5D10135F5
:100B0000AFE76FF00A007EE72DE9F04F85B0837AFA
:100B10009B000A3323F0070300AFADEB030D4368DE
:100B2000033323F003030546EA4600936C46012095
:100B300081424CD20C4616463246214628465AF887
:100B40002480D5F80090FFF7C5FE002C48D007F1AF
:100B50000C03324621462846FFF7A8FEFA68042314
:100B600090FBF3F083001068D84000F00F000F28CE
:100B700036D126F003034FF000097B6008F1FF3BFC
:100B80007B684B441A46214628463B60FFF7B0FE7F
:100B90003B689E4212D008FB03F2B5F808C06B68B0
:100BA000296802EB0B0E03FB0CF39E4501EB0200E0
:100BB00004D240688B5803608B58586009F10109D2
:100BC000B9F1040FDCD196FBF9F6013CB4E72368D8
:100BD0009B08033323F0030344F8043F0130A7E7E5
:100BE00008FB06F62A68696809EB060308F1FF3876
:100BF0009844A8EB02082A89514388450BD2E9683A
:100C00000C2202FB0414221D49F80620A2685A6037
:100C1000A2681360A3601437BD46BDE8F08F0020C2
:100C2000704700000B6801330B60014B1B681847CD
:100C3000583A00202DE9F04F85B09B460E9CDFF816
:100C400090A0012CB8BF0124012B0CBF302320231E
:100C50001546804689460194029301260A27002200
:100C60000AF101040AB9AA451FD2B5FBF4F04946BE
:100C70003030C04701360122013F012FB5FBF4F1AE
:100C80004FF00A0304FB1155BAFBF3FAE8D14946C9
:100C900005F13000C047BBF1030F03D1019B9C1B42
:100CA000002C0FDC05B0BDE8F08F019BBB42E3DBFD
:100CB000BBF1020FE0D84946029803920136C047C3
:100CC000039AD9E749462020C047013CE8E700BF26
:100CD000FFC99A3B0A688B6830B512B14C68A342D1
:100CE00002DB01338B6030BD651EAB420BBF8C60F5
:100CF0005C1C00218C600CBFD154D05430BD00006E
:100D0000014B1860704700BF583A00202DE9F04FA2
:100D100089B04FF0000A06460F4604921C464FF079
:100D2000FF39D0465546049B187810B909B0BDE884
:100D3000F08F45B9252800F00C813946B047049B57
:100D400001330493EFE7642861D019D839280AD811
:100D5000312850D22D283CD030283DD0252808D12C
:100D60003946B0476FE0582800F08980632800F0CA
:100D7000EA8039462520B047049B39461878F0E7C9
:100D8000702872D006D8692841D06C283CD06828D9
:100D9000D5D0EEE7752858D017D87328E9D1236845
:100DA00004F1040B1C46254615F8010B002840F001
:100DB000BF80B8F1030F40F0D580E41AA9EB04041A
:100DC000002C00F3BB805C463DE0782857D07A28A1
:100DD000DEE74FF00308B2E7B9F1000F0EDAB8F121
:100DE000000F00F0BC80A0F13009B8F1000F08BF7F
:100DF0004FF00208A3E7B9F1000FF4DB0A2303FB6D
:100E00000909A9F13009F0E70AF1010A97E7BAF1F7
:100E1000010FC5BF073424F0070325681D68D4BF40
:100E2000043403F10804002D05DA39462D20B047BB
:100E30006D4209F1FF39CDF8009043462A46394604
:100E40003046FFF7F7FE002579E7BAF1010FC5BF7D
:100E5000073424F0070322681A68CDF80090CCBF4D
:100E600003F1080404344346E9E739463020B0472B
:100E700039467820B0474FF008094FF00108BAF121
:100E8000010FC7BF073424F0070323680593C2BFCF
:100E900003F108041B6805934FF008024FF00003AC
:100EA000D8BF04340393079393460BF1FF3B059B94
:100EB0004FEA8B0023FA00F010F00F0009D1079BD6
:100EC00013B9BBF1000F22D14FF0300E07E0069AA4
:100ED000EBE709288CBF4FF0570E4FF0300E394624
:100EE00070440692B047039B079501330393BBF10F
:100EF000000FECD1B8F1030FA5D1039BC3EB49055B
:100F0000002DA0DD39462020B047013DF8E7531EF3
:100F100091450693EBDBB8F1010F03D13946302040
:100F2000B047E4E7B8F1020FE1D139462020F7E7F6
:100F3000394603932C46B047039B34E739462020BB
:100F4000B047013C3CE72068251D3946B0472C4698
:100F500079E7AA46A8464FF0FF390125EFE64FF0A2
:100F60000108ECE65C460546E9E6000013B502AC74
:100F7000002344F8043D02460B4603482146FFF790
:100F8000C5FE019802B010BD250C00000FB407B5D6
:100F900004A951F8040B0191FFF7E8FF03B05DF8D5
:100FA00004EB04B0704700000CB430B585B008AB5A
:100FB000044653F8042B01900291002501A907482B
:100FC00000930395FFF7A2FE0398029B9842B8BFD7
:100FD000255405B0BDE8304002B07047D50C000084
:100FE00070470FB404B0704713B51C4CBFF35B8F50
:100FF0002068BFF35B8FC0B9194812F059FD50B992
:101000001849194A19481B23FFF7C0FF144918480B
:10101000FFF7BCFFFEE7BFF35B8F54E8003F44E8F7
:101020000002002AF9D1BFF35B8F43681B684BB9FC
:101030004A23104A10490D48FFF7A8FF0F48FFF751
:10104000A5FFFEE704220DEB02019847002802DA13
:1010500000F0BAFA0190019802B010BD040000201F
:10106000BC5501000B560100C65501002056010079
:101070003F56010095560100C6560100D7560100A3
:101080000A2838B50446074D04D1286843680D2165
:101090005B68984728684368E1B25B6898472046D8
:1010A00038BD00BF080000200148FFF729BE00BF7F
:1010B0008110000008B5044812F0FAFC034B1860D8
:1010C000FFF7F2FF002008BDFB56010008000020DA
:1010D00010B54FF02003EFF3118283F31188114C08
:1010E000237823B982F311886FF0440010BD013BCF
:1010F000DBB2237023B182F311886FF00F0010BDB3
:10110000094B1878012128B1217082F311886FF002
:101110000A0010BD197082F311884FF080425160AF
:10112000187010BD0E0000200D00002008B5002230
:101130001046012100F05EFC002000F029FC002098
:1011400008BD00002DE9F0414FF02003EFF31182BC
:1011500083F311882D4B1878441C1C70984678B185
:1011600082F3118898F80030002B42D15E23284A80
:1011700028492948FFF70AFF2848FFF707FFFEE73D
:10118000274D2F7837B1187082F311886FF00A005D
:10119000BDE8F08101262E7082F311884FF0804463
:1011A00019B3384600F004FCC4F80071D4F80433D5
:1011B000C4F804632660D4F8002192B10022C4F878
:1011C0000021184A13F0010F4FF0010308BFC4F8C3
:1011D00008330020C2F8803100F0DAFB00232B70C6
:1011E000C0E720BF40BF20BFE5E7C4F8001126607C
:1011F000F4E74FF08043D3F80C3413F4803F14BF6E
:1012000000206FF04300BDE8F08100BF0E00002019
:101210001C57010064570100205601003E56010092
:101220000D00002000E100E0F8B54FF080430546D6
:10123000D3F808E1D3F80423D3F80C74D3F8006191
:10124000D3F80411D3F80C01D3F8104102F00102D5
:10125000BEF1000F30D1F6B14FF080430026C3F845
:1012600000613AB1FB0341BF4FF080430122C3F854
:1012700008231A6139B34FF080430022C3F80421D8
:101280002C492D4A2D4840F22F13FFF77FFE2C48A2
:10129000FFF77CFEFEE7002AE4D10029EBD190B9EC
:1012A00044BB40F21713244A26492448FFF76EFE38
:1012B0002348FFF76BFEFEE74FF0000EC3F808E18E
:1012C000002ECED0C8E7A8B14FF080462846C6F819
:1012D0000C110021FFF7FCFE50B140F23913164A01
:1012E00019491648FFF752FE1548FFF74FFEFEE773
:1012F00001237361E4B14FF0804300210124C3F85E
:1013000010112846C3F80443FFF71CFF18B90F4B10
:10131000C3F80041F8BD44300AD04FF4A773064A21
:101320000B490648FFF732FE0548FFF72FFEFEE7A0
:10133000F8BD00BF059901001C57010020560100AF
:101340003E5601006F5701009E57010000E100E08A
:10135000A3570100F8B506460C464FF02002EFF304
:10136000118382F31188324A157865B183F31188AD
:101370004FF08043D3F8183413F4803F0CBF6FF064
:1013800043000020F8BD0127177083F31188284619
:1013900000F00EFB4FF080430221C3F80451D3F854
:1013A0000423C3F80413C3F818459F60D3F804114D
:1013B00069B392071F4F58BF02224FF000014FF050
:1013C0000105C3F804114FF0000058BFC3F808230B
:1013D000C7F8805100F0DCFA4FF08043002118225A
:1013E000C3F80823C3F80C11C3F8101114F003015B
:1013F000BED11020C3F83805C3F804233046C3F823
:101400000453FFF79FFE30B9C7F80051B0E720BF83
:1014100040BF20BFCAE710F1440FA9D0E623064A17
:1014200006490748FFF7B2FD0648FFF7AFFDFEE7A4
:101430000C00002000E100E01C570100A357010050
:10144000205601003E560100084BC3F84005D3F872
:101450000435C01A20F07F40054B0238984282BF05
:10146000044B4FF40032C3F80021704700100140D4
:10147000FDFF7F0000E100E038B5114B114CD3F8BF
:1014800004052268104D801A2B6820F07F40984296
:101490000FD3B0FBF3F00D490968884228BF084616
:1014A00000FB032323F07F432360094B186013F0F4
:1014B00077F920682B681844BDE83840FFF7C4BFAF
:1014C0000010014014000020703E00201000002099
:1014D0006C3E0020024B0022C3F84021FFF7CCBF36
:1014E00000100140031E0A4A0A4804DB116890FB01
:1014F000F1F18B4202DD136890FBF3F31068064AAA
:10150000064912680B6000FB0320FFF79DBF00BF78
:10151000703E0020FFFF7F0014000020100000201C
:1015200008B5074B0022C3F84021064B4FF40032A8
:10153000C3F88021FFF7A0FF034B01221A6008BD0A
:101540000010014000E100E01000002070B51848D4
:1015500012F0AEFA48B34368164D1B680121984754
:10156000154B00241C60154B01261E60144BC5F85A
:1015700008451B68C5F840354FF48033C5F844333F
:10158000C5F804330F4BC5F840414FF40032C3F89F
:10159000802131462246112000F02CFA112000F063
:1015A000F7F9AE6020462E6070BD4FF0FF3070BD81
:1015B000AE57010000100140140000201000002070
:1015C000703E002000E100E00A4A30B5D2F8043550
:1015D000094DD5E90001D2F80445A34207D1074AD5
:1015E000126850431B1A23F07F43184430BD234632
:1015F000EFE700BF0010014080190020703E00207E
:1016000007488168006A884208D000B512F09EFF42
:101610005DF804EB03494FF080520A607047000008
:101620004819002004ED00E0044800232021C218DE
:101630000133272B82F80013F9D1704700E100E055
:10164000084A094993680968D966084998664B6849
:1016500043F080534B60002383F311889368D86E66
:10166000704700BF48190020F096010000ED00E02F
:10167000202080F311880D498A682C201044EFF354
:10168000098C80E8F01F0A4F4FF000660A6A8A60F2
:101690003E60906E0023936680F3118802F12C0067
:1016A00090E8F01F8CF3098870470000481900206B
:1016B00004ED00E01EF0040F0CBFEFF30880EFF321
:1016C0000980816931F8021C11F0FF010229FFD065
:1016D00000B500F067FA00BD10B5044612F0A4FF93
:1016E00022680146BDE810400148FFF74FBC00BF2B
:1016F0000759010038B504461A480D46FFF746FC65
:1017000004F11800184CFFF7E7FFA36AD90602D5C9
:101710001648FFF73BFCA36A1A0702D51448FFF7E7
:1017200035FCA36A9B070ED51248FFF72FFC616BAF
:10173000A36A180607D51048FFF728FC1DB1A36A55
:1017400023F08003A362084CA26AD20702D50B489B
:10175000FFF71CFCA36A9B0602D50948FFF716FC9D
:10176000002038BD5159010000ED00E0685901002A
:101770007A5901008E590100A7590100B85901009A
:10178000D859010010B504461A48FFF7FFFB04F1D1
:101790001800194CFFF7A0FFA36A9A0102D5174859
:1017A000FFF7F4FBA36ADB0102D51548FFF7EEFB58
:1017B000A36A180302D51348FFF7E8FB0E4CA36A8F
:1017C000590302D51048FFF7E1FBA36A9A0302D53B
:1017D0000E48FFF7DBFBA36ADB0302D50C48FFF7DB
:1017E000D5FB054A936A6FEA03436FEA134393629A
:1017F000002010BD085A010000ED00E0215A010050
:10180000355A0100505A01006F5A0100955A0100E3
:10181000B05A010038B504461D480D46FFF7B6FB27
:1018200004F118001B4CFFF757FFA36AD80404D536
:101830001948BDE83840FFF7A9BBA36A190501D5CF
:101840001648F6E7A36A9A0514D51548FFF79EFBDC
:10185000A16BA36A1B0407D51248FFF797FB1DB1C4
:10186000A36A23F40043A3620A4B9B6A58050ED572
:101870000D48DEE7A36A5905FAD4A36ADA0501D553
:101880000A48D6E7A36A9B0401D50948D1E738BDC9
:10189000CE57010000ED00E0685901007A590100BF
:1018A000E5570100A7590100FF5701001B5801002F
:1018B000D859010038B5274C6368C3F30803DA1E12
:1018C0000546092A3BD8DFE802F0053436303A3ABB
:1018D0003A3A3A382048FFF759FBE36A9A0703D5AA
:1018E0001E48FFF753FB02E0E36A5B0001D40020CF
:1018F00009E01B48FFF74AFB1A4B1B7843B1012153
:101900002846FFF7F7FE2946BDE8384000F04EB9FB
:10191000154B1B7823B101212846FFF77BFFE6E733
:10192000124B1B889BB2002BE1D02846FFF72AFF01
:10193000E9E70021E4E70021EEE70D48D1E70D4893
:101940000D49A3F110020F2BD8BF01460B48FFF73A
:101950001DFBCCE700ED00E0625801007A58010061
:101960009C58010028ED00E029ED00E02AED00E0A0
:10197000BC5801003458010049580100F3580100D7
:10198000024A536943F010035361704700ED00E0D1
:1019900043B2002B08DB012200F01F0002FA00F026
:1019A0005B09024A42F82300704700BF00E100E0F3
:1019B00043B2002B0DDB01225B0900F01F0002FA8D
:1019C00000F02033034A42F82300BFF34F8FBFF3E8
:1019D0006F8F704700E100E04209054B00F01F00E7
:1019E00053F82220012303FA00F01040704700BF93
:1019F00000E100E04B1C072B10B50C460BD90F4A39
:101A00000F4910487223FFF7C1FA072221460E48FA
:101A1000FFF7BCFAFEE742B2002A4FEA4313ADBF1C
:101A200002F1604200F00F00084A02F56142B5BFC2
:101A3000DBB2DBB2135482F8003310BDDC5A010074
:101A4000165B0100205601002D5B010014ED00E043
:101A500000F068B808B572B6044BD86918B1002216
:101A6000DA6112F04BF862B608BD00BF48190020D9
:101A70002DE9F041099F0F2F05460C461646984662
:101A800025D11C4B984526D10A9B0422394628466D
:101A900013F0ECF8A6F120012144174AEC6521F07F
:101AA0000701002322F001022B656B652E668A6117
:101AB000069A4A60079A8A60089ACA60C1F800804C
:101AC0004FF08072CA61E964AB66BDE8F08107F14E
:101AD00010031E2BD8D93F23084A09490948FFF7AC
:101AE00055FA6FF00F030E2239460748FFF74EFAFA
:101AF000FEE700BF153B0100990800005F5B010095
:101B0000955B010020560100315C01000149102263
:101B10000A60704710ED00E0404080F3118830BF4C
:101B2000704700BF404080F31188DFF81CC0DCF82C
:101B300000C01CF4006C0CBFEFF30880EFF30980C9
:101B400000B5FFF7B7FE00BD04ED00E0042838B58E
:101B500004460D4613D0052813D0032813D10C4892
:101B6000FFF714FA12F060FDAA6901460948FFF771
:101B70000DFA29462046BDE8384000F017B806485F
:101B8000EEE70648ECE701460548FFF7FFF9E9E70D
:101B9000605C0100DE5C0100865C0100A05C01006D
:101BA000BB5C010001460068FFF7D0BF052810B5F7
:101BB0000CD012F03FFF60B112F03CFF0C4B0D490E
:101BC000002808BF19460C48FFF7E0F9FFF7A4FF0B
:101BD000FCE712F03FFF0028EED1084C0848A1684E
:101BE000FFF7D4F9A068BDE8104000F00BB800BFC3
:101BF0001E5D01001A5D01002F5D010048190020E3
:101C00004F5D010038B505464FF02003EFF3118416
:101C100083F31188037ADB0709D52523104A11497C
:101C20001148FFF7B3F91148FFF7B0F9FEE712F0DA
:101C300089FF0F4B9B689D420DD10E4B5A68C2F332
:101C4000080222B912F082FC2046FFF7F9FC5A681C
:101C500042F080525A602046BDE8384012F058BA2F
:101C6000745D0100B05D010020560100D85D0100E7
:101C70004819002000ED00E000B572B60B4AD069AB
:101C800000281EBF0021D16111F038FF62B6EFF3CA
:101C90000580A0F110004FEAC0000549014409C9C0
:101CA00098475DF804EBFFF7ABBC00004819002033
:101CB000DC000000202080F3118806484FF400610A
:101CC000401880F30988022080F31488BFF36F8FD7
:101CD00000F006B8202E002030BFFFF7FDBF00BF88
:101CE00008B5074B074A23F07F039360BFF34F8F7C
:101CF000BFF36F8F11F032FF11F03AFF11F05CFF6C
:101D00000000000000ED00E008B5FFF7E5FFBDE8CA
:101D10000840FFF775BC000038B5204C2568082D39
:101D20000CD91F4A1F49204840F2CD13FFF72EF966
:101D3000082221681D48FFF729F9FEE71C4B60685F
:101D400000225A60954200F10C0015D105225A601C
:101D5000BFF34F8FBFF36F8F1B68C3F30723082BAD
:101D60001AD04FF4F8730E4A12490F48FFF70EF9D4
:101D70001148FFF70BF9FEE750F80C1C50F8044C23
:101D80009A6021F01F0141F01001114344F0010459
:101D9000D96001321C61D5E7002038BD343A0020FB
:101DA000F15D01000599010020560100355E01003A
:101DB00090ED00E0675E0100AB5E01000139034673
:101DC00011F8012F0AB91A70704703F8012BF7E7D1
:101DD00002460346981A13F8011B0029FAD17047EE
:101DE0000138013910F8013F11F8012F934202D157
:101DF000002BF7D11A46981A704770B582B1013A94
:101E00000C46034603D11A782078101A70BD1E784C
:101E10002578AE4200F1010001F10101EFD0F2E7B7
:101E2000104670BD81EA000313F0030F70B503463E
:101E30000BD0013B0A4491421BD170BD002AFCD05B
:101E400011F8014B03F8014B013A9C07F6D11E1F14
:101E50000D46541B0C44032C06D822F003042144E5
:101E6000234402F00302E4E755F8044B46F8044F1C
:101E7000EFE711F8014B03F8014FDCE770B5C9B289
:101E800003469C0711D141EA012444EA04441E465A
:101E9000951B1D44032D0ED822F00304234402F0A9
:101EA00003021A44934209D170BD002AFCD003F802
:101EB000011B013AE5E746F8044BE9E703F8011B8B
:101EC000F0E7000070B54FF02003EFF3118583F3C6
:101ED0001188144C144E237803EBC312013303F022
:101EE00003033244237085F31188402928BF402121
:101EF0000E4D0138134602EB4106B34204D10023D4
:101F000002F81130104670BD4478240902332C5D6C
:101F100003F8024C10F8014F04F00F042C5D03F895
:101F2000014CEAE77400002075000020E85E010023
:101F300010B50F4A0F4C137803EBC301013386B081
:101F400003F00103137002784379049242780392FC
:101F500082780292C278019204EB410402790092E5
:101F60001221054A2046FFF71FF8204606B010BD93
:101F70007200002018000020CA5E010070B51D4AE2
:101F80001D49137803EB4306013303F0010313707B
:101F900003788AB006EBC60604460E4407AD032B51
:101FA00021D8DFE803F0021A1C1E14492846FFF767
:101FB00005FF62780492A2780392E2780292227975
:101FC000019262790092A37905950D4A1B21304652
:101FD000FEF7EAFF30460AB070BD0A49E6E70A4953
:101FE000E4E70A49E2E70A4A0A212846FEF7DCFF4D
:101FF000DFE700BF730000203C0000208154010097
:10200000AA540100885401008F5401009954010022
:10201000A354010030B585B0044615466846032236
:10202000FFF700FF0D2200210DF10300FFF726FF4F
:1020300020466A46694606F011F9044620B9032293
:1020400069462846FFF7EEFE204605B030BD13B5C1
:102050000C4601AA0331FFF7DDFF48B9032201A9AD
:102060002046FFF7CAFEB0FA80F0400902B010BD6A
:102070000020FBE770B5CD1C06460C462846032120
:1020800006F0D0F860B9637903F03F0343F04003F2
:102090006371224629463046BDE87040FFF7BABF5B
:1020A00070BD0000F0B40278012A04460B4617D038
:1020B00003D3022A2CD0F0BC7047184A0D4602F117
:1020C0001007106851682E4603C60832BA423546DA
:1020D000F7D11278327062885A73120A9A73EAE75B
:1020E0000E4A0D4602F11007106851682E4603C6CD
:1020F0000832BA423546F7D11278327062685A73A4
:10210000C2F30721120CDA73120A99731A74D2E718
:10211000014611221846F0BCFFF784BEF95E0100AB
:1021200010B50C46017822788A428AB00ED06946F2
:10213000FFF7B8FF05A92046FFF7B4FF10220DF105
:1021400015010DF10100FFF758FE0AE0012A0AD03F
:1021500004D3022A0AD06FF0150002E04088638899
:10216000C01A0AB010BD40686368F9E71022611C0C
:102170000130E8E77047000070B50B4D06460FCD03
:102180008AB06C460FC40FCD0FC495E80300092E2A
:1021900084E803009BBF0AAB03EB8606034856F8AE
:1021A000280C0AB070BD00BF38540100906A0100CD
:1021B0000722FFF737BE00B5BFF35B8F50E8003F43
:1021C00043EA010240E8002EBEF1000FF6D1BFF352
:1021D0005B8F18465DF804FB00B5BFF35B8F50E8DA
:1021E000003F03EA010240E8002EBEF1000FF6D1E5
:1021F000BFF35B8F18465DF804FB0000C378002B2B
:1022000041F2883200F1700108BF0022014812F04B
:1022100003BE00BF881900202DE9F041064686B0B4
:102220009079284F8846154610F05CFF874215D0FC
:10223000AC79254B2046D3F8008010F053FF234B98
:10224000059303908DE8480004970294204B214A9F
:1022500021492248C04706B0BDE8F081284610F069
:1022600047FF1F4C04EBC0004388B34211D0164B0C
:1022700028461F6810F03CFF144B039304EBC0008A
:102280001549428802928DE84800124A104B1548C1
:10229000B847284610F02CFF04EBC0004368002B21
:1022A000D9D0284610F024FF04F83080284610F0DA
:1022B0001FFF04EBC000406806B0BDE8F04112F01B
:1022C000E7B900BF6C3F00205C3A00203E56010099
:1022D000D25F010001680100086801000B6801007D
:1022E0007C020020506801004B09BFF35B8F50F85F
:1022F0002300BFF35B8F01F01F01084100F00100D4
:10230000704700002DE9F0478046894618484FF095
:10231000FF3110F07BFF044648B9C223154A164925
:102320001648FEF733FE1648FEF730FEFEE700F1D2
:10233000080600213046002710F087FF2775204649
:1023400010F0D6FE0F4D05EBC000A0F8028020462D
:1023500010F0CEFE05EBC00003214760304610F0C0
:10236000B7FF80F80290A0F800802046BDE8F08713
:102370006C3F0020D7610100176201002056010068
:102380003E5601007C020020F0B5164687B00C4690
:1023900021B9FFF7B7FF044600283BD001220021F6
:1023A000684612F047F9204610F0A2FE1B4F07EBDB
:1023B000C000C0F804D0204610F086FF214618481F
:1023C00010F047FF42F21071684612F089F9054695
:1023D00058B11449144A154840F20B13FEF7D6FDC4
:1023E00029461348FEF7D2FDFEE7204610F080FE96
:1023F00017F830303BB1204610F038FF6FF004057D
:10240000284607B0F0BD0EB13460F9E7204610F061
:102410002DFFF5E76FF03605F2E700BF7C020020E4
:10242000243B00204D620100D761010020560100CD
:102430005662010038B50221054642F20C00FFF752
:1024400061FF044630B30221083010F041FF012D36
:10245000024616D10B211148FFF746FF5070157048
:102460002146002242F20C00FFF78EFF044630B9ED
:10247000012D09D14FF480710848FFF79CFE2046DA
:1024800038BD00234370EAE76FF480710348FFF71B
:10249000A3FEF4E76FF03604F1E700BFD03A002066
:1024A00070B5154D062205F108010646FFF7A5FC9B
:1024B0000446D8B1062142F20500FFF723FF044687
:1024C000B0B106223146083010F008FF2146002244
:1024D00042F20500FFF758FF044638B9062231469C
:1024E00005F10800FFF79EFC0123EB71204670BD4B
:1024F0006FF03604FAE700BF603A002007B5062106
:10250000684605F08FFE40B99DF80530684603F037
:102510003F038DF80530FFF7C3FF03B05DF804FB00
:1025200038B50121054642F20A00FFF7EBFE0446EA
:10253000D8B108308DB1012110F0D9FE214600221A
:1025400042F20A00FFF720FF044620B93DB14021C6
:102550000748FFF730FE204638BD2946ECE76FF00C
:1025600040010348FFF738FEF5E76FF03604F2E765
:10257000D03A0020028843889A4210B518D8052A1C
:1025800016D9B3F5486F13D88488B4F5FA7F0FD203
:10259000C188A1F10A0292B240F67640824207D881
:1025A00004FB0333B3EB810FB4BF0120002010BD47
:1025B000002010BD012310B50621044600F8013BA0
:1025C00005F030FE18B9A37963F03F03A37110BD85
:1025D00037B5124C2378012B04D1A37903F0C00343
:1025E000C02B0ED00E4B019300930E4B0E4A1C686D
:1025F0000E490F4B0F48A0476FF01505284603B052
:1026000030BD601CFFF74CFF05460028F6D10421C1
:1026100004F17000FFF7CFFDF0E700BF603A002043
:102620003E5601005C3A0020B967010008680100CD
:1026300029600100C06701002DE9F04F204DDFF84F
:102640009C90DFF89C80D9F800A01E4F1E4E1F4CB6
:1026500087B02846FFF792FC43463A463146019040
:10266000029400941A48D04795F80EA0D9F800B00B
:102670005046FFF781FDAB8A04932B8A03933A46B9
:1026800043463146CDF808A00190059400941148C6
:10269000D847D9F800A095F80F904846FFF76CFD91
:1026A0006B8A039301900494CDF8089000944346FC
:1026B0003A4631460848D04707B0BDE8F08F00BF22
:1026C000603A0020D9600100086801003E56010010
:1026D000E0600100FD6001004B6101005C3A0020F8
:1026E0004A600100024BD3F8D4301B69184700BF81
:1026F000603A00207FB504460D4619B9FFF702FE87
:102700000546F8B140F635439C4215D12846FFF7FF
:10271000E9FF044668B10D4B02938DE818000C4B9D
:102720000C481E680C4A0D4B0D49B047284610F066
:102730009DFD204604B070BD29460A4810F089FD71
:102740000024F6E76FF03604F3E700BF3E560100C1
:102750005C3A00201B620100B96701000A5F0100BA
:1027600008680100243B002073B505460E46144658
:10277000002107226846FFF781FB21488DF80050B1
:1027800000238DF80630012D0378ADF80160ADF817
:1027900003408DF805300AD106217030FFF7A4FD03
:1027A00028B9FFF7ABFE0446F0B98DF805500721B4
:1027B00042F20B00FFF7A6FD0446F0B1072269467E
:1027C000083010F08BFD214642F20B00FFF792FF1C
:1027D0000120FFF72FFE044630B9012D07D14FF439
:1027E00080610848FFF7E7FC204602B070BD6FF437
:1027F00080610448FFF7F0FCF6E76FF03604F3E77A
:10280000603A0020D03A002038B509210546164824
:10281000FFF76AFD024608B1002038BD08211248C2
:10282000FFF762FDD0B90121002001F0C3FE04468C
:102830000028F1D04FF400610B48FFF7BCFC2046A4
:1028400001F0D6FE002D15BF3022122260214FF478
:1028500000610020BDE83840FFF786BF1046FFF753
:10286000E9FD0028DFD038BDD03A00202DE9F04145
:102870004E4DD5F8D430996811F001018EB024D1B5
:102880000CAA40F60340FFF77FFD0446002840F005
:1028900089800C9B9B681B78A3B9454A13602B4623
:1028A000BFF35B8F53F8702FBFF35B8F02F00D0205
:1028B000BFF35B8F53E8001F43E800200028F9D1E5
:1028C000BFF35B8F0C9810F0D1FC0CAA002141F2F1
:1028D0000300FFF759FD0446002863D10C9B3548DF
:1028E000996808220131FFF79DFA0C9810F0BEFCA0
:1028F00021460CAA41F20100FFF746FD04460028DC
:1029000050D10C9883685A78AA73D9789A7842EA99
:1029100001222A821A79EA73197ADA7942EA0122C3
:102920006A825A799B7942EA0323AB8210F09EFCBB
:1029300003212148FFF7D8FC014690B90CAA41F2C7
:102940000900FFF721FD044600282BD10C9B1B48F2
:10295000996806220131FFF765FA0C982C7010F087
:1029600085FC0CAA002141F20200FFF70DFD044690
:10297000C0B90C9B1248996840220131FFF752FA06
:102980000C9810F073FCAB7E5A0627D40D4B0193C4
:1029900000930D4B0D4A1C680D490E4B0E48A04785
:1029A0006FF0120420460EB0BDE8F081603A0020BE
:1029B000D8020020763A0020D03A0020613A002068
:1029C0007E3A00203E5601005C3A0020B9670100C3
:1029D00008680100216001007462010021460CAA10
:1029E00042F20300FFF7D0FC04460028DAD10C9B2A
:1029F0009C48996808220131FFF714FA0C9810F0EE
:102A000035FC21460CAA42F20200FFF7BDFC044649
:102A10000028C7D10C9B9B68B3F80120A5F888203B
:102A20003AB1DA789048022A28BF0222114611F002
:102A300001FE0C9810F01AFCAC7E14F0200400F09B
:102A4000C98095F83A301B0713D50CAA002142F231
:102A50001C00FFF799FC04460028A3D10C9883685A
:102A600053F8012F5B68C5F88430C5F8802010F05A
:102A7000FDFB95F878309F0600F1C880082142F2EE
:102A80000100FFF73FFC0446002800F0AA8008215F
:102A9000084410F01DFC95F878108E074CBF2F22CB
:102AA0000F22890695F8791048BF42F0400211F0D4
:102AB000090F95F8401001F0060118BF42F40062BA
:102AC000062908BF42F4C0720270C2F307224270A6
:102AD00000228270C270027142718271C2712146FD
:102AE00042F20100FFF750FC044600287FF45AAF81
:102AF000AB7E9A0621D4B5F88810F1B90CAA41F240
:102B00000500FFF741FC044600287FF44BAFB5F801
:102B100088307BB90C9B54489B6899785A7842EA74
:102B20000122A5F888209A88022A28BF022211468D
:102B300011F080FD0C9810F099FB082140F601403F
:102B4000FFF7E0FB044600284BD00821084410F0B2
:102B5000BFFB102303708823437002230022C3703D
:102B600020238270027142718271C371214640F646
:102B70000140FFF709FC044600287FF413AF01462B
:102B80000CAA4FF60140FFF7FFFB384F384E0028E4
:102B90007ED0019600963C68364B374A3749384814
:102BA000A047002307220CA936480C93CDF83330F8
:102BB000FFF723F9002840F0EA8095F86030DB0742
:102BC00000F10681019600963C682F4B2A4A2B495A
:102BD0002E480BE1022140F66D40FFF793FB0646BD
:102BE00010B96FF03604DDE60221083010F070FBFA
:102BF0000123447003702246314640F66D40FFF7D2
:102C0000C3FB044600283FF41CAFCBE60CAA00210E
:102C100042F22F00FFF7B8FB044600287FF4C2AE53
:102C20000C988368B3F80180B3F8037010F01EFBB2
:102C3000042142F22400FFF765FB06460028D0D0AD
:102C40000421083010F044FB2246A0F800804780A1
:102C5000314642F22400FFF797FB044600283FF478
:102C60000DAF9FE6D83A0020EC3A00205C3A0020F5
:102C70003E5601005B600100016801000868010028
:102C8000A8620100603A00203C6001004564010038
:102C90000C9BD7F800809C687249B4F8013002930D
:102CA000032B96BF704A714A52F823200192704B51
:102CB000704A039600967048C047B4F80130D7F8C0
:102CC0000080B4F80320022B3BD1022A39D86B4B89
:102CD00053F8223002920193664A654B6149684875
:102CE00003960096C0476379D7F800800696D4F81B
:102CF00009100591032BB4F8071098BF614A04919D
:102D0000A17994BF52F82320584A03910293554960
:102D1000574B01925C48574A0096C0470C9810F0F8
:102D2000A5FA0CAA00214FF60240FFF72DFB04463E
:102D300048B1019600963C684D4B544A4949544865
:102D40002EE74A4BC6E70C9B524899680222013194
:102D5000FFF768F80C9810F089FA0CAA21464FF694
:102D60000340FFF711FB38B1019600963C68404BD9
:102D7000464A3C49484813E70C9B48489968012259
:102D80001144FFF74FF80C9810F070FA09E7444B24
:102D900018689A880A909B79ADF82C200AA9072216
:102DA00040488DF82E30FFF728F800283FF405AF93
:102DB000FFF742FC02F0B0F8044600287FF4F2ADC1
:102DC00002213948FFF7F7F92046FFF71DFDE9E535
:102DD00009AA00214FF60940FFF7D6FA40B1019643
:102DE00000963C68314B294A1E493148A04726E0ED
:102DF000099B99684B78BBB10123062202312D480B
:102E00002B70FFF70FF8099810F030FAFFF7E0FB8E
:102E100004460028CCD0019600963D68264B274AF0
:102E200010492748A847BDE50196009625483C680B
:102E30001E4B164A0B49A047099810F017FA19487B
:102E4000FFF7B8FB04460028E5D11A483C68FFF7B5
:102E50006FF8029601900096144B0C4A01491A48EB
:102E6000A047D3E708680100A0690100906A01004B
:102E70005B600100D9600100DC620100946901001F
:102E800005630100806A01002D63010001680100F3
:102E90006A630100BF3A0020A3630100BE3A00202C
:102EA00060540100603A0020D03A00203C600100EC
:102EB000DC630100613A002067600100B96701002E
:102EC000BA6401000C6401008164010010B5FFF7D1
:102ED000CDFC034B1B6813B1BDE81040184710BD73
:102EE000D402002038B50721044642F23200FFF731
:102EF00009FA054698B10721083010F0E9F923884E
:102F00000380002402238470C370037144718471B0
:102F1000294642F23200FFF7EDFB204638BD6FF044
:102F2000360038BDF7B5074601AA002142F22F004E
:102F3000FFF72AFAD8B901988368B3F80160B3F8AB
:102F4000035010F093F9062142F22200FFF7DAF95C
:102F5000044670B10621083010F0BAF93B880380AE
:102F600046808580214642F22200FFF7C3FB03B072
:102F7000F0BD6FF03600FAE7F0B5037889B005468A
:102F80007BB10221002001F015FB044638B12B78FB
:102F90000372002101F000FC204601F029FB09B07A
:102FA000F0BD041DB0F80160214606A8FFF700F946
:102FB0009DF81830023BDBB2012BB7B22AD80622AB
:102FC00005F111010DF111008DF81830FEF72AFFFF
:102FD00001238DF81030022106A801F0EBFAEB78FE
:102FE000012B044609D16FF040014A48FFF7F4F87D
:102FF000ACB906A801F02EFA044684B9464B0293F8
:103000008DE88800454B464A1C684649464B474870
:10301000A047C4E7214604A8FFF7CAF8DBE720462B
:1030200006A920F8446BFFF7C3F82A7EEB7D43EA3C
:103030000223A4F85A30AA7E6B7E43EA0223A4F846
:103040006030EB7E2A7F43EA0223A4F86230EE78F8
:10305000E670012E1AD1364F04A904F14B00FFF798
:10306000A7F8394604F15200FFF7A2F8072107F14B
:103070007000FFF739F948B1D7E92023002203F0A7
:103080004003134302D03046FFF74AFA032120469B
:1030900001F082FB637A032B18D1EB7823B1244B28
:1030A00093F87830190718D5022142F21600FFF77D
:1030B00029F9054688B10221083010F009F9238862
:1030C0000380294642F21600FFF714FB204601F068
:1030D0008FFA0020FFF798FB61E7154D95F87920EE
:1030E000D20708D52046FFF7FDFE20B98021201D1C
:1030F000FFF761F8EAE795F878309B0606D5204699
:10310000FFF710FF10B94FF48071F0E72046FFF78A
:1031100075F8DBE7D03A00203E5601005C3A00200B
:10312000B967010008680100515F01003E690100B4
:10313000603A002070B506460D4642F22100032198
:10314000FFF7E0F8044660B10321083010F0C0F842
:1031500085700680214642F22100BDE87040FFF7ED
:10316000C9BA6FF0360070BD2DE9F04F554BDFF84E
:10317000609185B003F11408524B524A5B7B6FF3A8
:1031800007135373404601F091FA461C4FF0FF328B
:1031900031464C4811F0B2FF28B94A4D4A4C96B915
:1031A00011F0F2F9E8E7494B01930093484B494A83
:1031B0001C684949494B4A48A047404080F3118860
:1031C0004FF0040002DF6B7B1B09012B5AD9042B43
:1031D0006BD195F80CB0BBF1000F56D15946414860
:1031E00010F01AF8824648B9384B01930093384BD7
:1031F000384A1C6838493C4B3C48DDE74FF0FF310A
:103200003B4811F06DFAD4F8C0307BB12F4B0193DD
:103210000093304A344B30493648D9F80070B847EB
:10322000D4F8C00010F022F8C4F8C0B0504610F036
:103230004BF8C4F8C0005046FFF754FA10B3234BC4
:10324000244A25490293019000932B48264BD9F834
:103250000070B847264811F01BFA50460FF048FF9F
:10326000264B03EBC00000221F214088FEF7D4FF4D
:10327000D4F8C0000FF0FAFF00235046C4F8C03065
:103280000FF0F4FF1435013E89E7BBF1010F04D1C3
:103290002869183800F0BCFFF4E7BBF1020FF1D148
:1032A0002869283801F07EFDECE7084A02928DE893
:1032B0000C000949124B134A1348D9F80070B8475B
:1032C000E0E700BF383B0020603A00203E56010096
:1032D0005C3A0020B9670100086801001360010032
:1032E00093680100243B0020FB5F0100BD680100E2
:1032F000083B0020E26801001B6201007C02002004
:1033000004600100016801000D6901002DE9F04F22
:10331000037D012B95B0044642D0032B40F04E8331
:1033200083681E885D88C6F30B03C382FF23437541
:10333000042108300FF0EBFFA28995420FD0A44B77
:1033400003930093A34B019202951D68A24AA34BDD
:10335000A349A448A84720460FF088FF1CE0E08A54
:1033600001F0F8F8054660B9994B0293E28A0093A0
:10337000984B01921E68984A984B99499A48B047D1
:10338000E9E701F0BDFD320B60752146284600F0EB
:10339000EFFD284601F02CF9002015B0BDE8F08FB4
:1033A00086683278132A00F21A83934013F40C2FA4
:1033B00000F01583864B01930093864B864A1C6868
:1033C00087498A4B8A48A047404080F311884FF0D4
:1033D000040002DFA7683E78002EBCD1B7F8018058
:1033E000404601F0B7F80546D0B9794B02938DE815
:1033F0000801784B784A1D6879497E4B7E48A8477A
:1034000007217E48FEF770FF0028A4D006217B48E4
:10341000FEF76AFF00289ED10120FFF781F89AE7A6
:10342000FB7803727649774811F002FB3146284653
:1034300001F0B2F92E80AE780EB1284689E031460F
:10344000281DFEF751FF30B12846012101F0A4F9F3
:103450003046FFF7D9F9284601F0CAF8D0E7A66848
:10346000012128460FF053FF3678731E0B2B00F214
:103470009282DFE813F00C00A40143007100900277
:10348000D1002F0175019501410090024A01A16808
:103490000B788DF83030B1F80130ADF83130CB78A1
:1034A0008DF83330B1F80B30ADF84730B1F80D304E
:1034B000ADF84930B1F80F30ADF84B304B7C8DF89A
:1034C0004D3004310DA8FEF773FE0025062208A931
:1034D0000DF13B000895ADF82450FEF7A3FC062241
:1034E0000AA90DF141000A95ADF82C50FEF79AFC9F
:1034F0000CA8FFF741FD2EE7A068FAE7A568B5F82C
:103500000170384601F026F8064658B9304B029350
:103510008DE888002F4B1D683B4B2F4A30493B48B4
:10352000A84718E72B789BB92A79EB7843EA02235E
:10353000A0F85A30AA796B7943EA0223A0F86030E8
:10354000EB792A7A43EA0223A0F8623000F0D4FC37
:10355000304601F04DF8FEE6A668B6F80170384630
:1035600000F0F8FF054638B9194B02938DE8880042
:10357000184B1D68264BD0E7337823B90822F11C7D
:103580006430FEF74FFC234E96F87920D2070CD515
:1035900095F86530DB0708D52846FFF7A3FC20B96E
:1035A0008021281DFEF707FE47E796F878309F0632
:1035B00040F1A78095F864309E0640F1A28028462D
:1035C000FFF7B0FC002840F09C804FF48071E8E7E2
:1035D0003E5601005C3A0020B96701001A5F010005
:1035E00008680100E96401001D650100F15F010048
:1035F000486601003C5F01004F650100D03A0020A1
:103600008565010075210000BA5F01008965010030
:10361000665F0100603A0020A368D9789A781F8815
:1036200042EA0122ADF8302059791A7942EA0122A2
:10363000ADF832209A79D97942EA0122ADF83420E6
:103640001A7A5B7ABDB242EA03232846ADF83630D7
:1036500000F080FF804678B9B64B02938DE82800D1
:10366000B54BB64A1E68B649B64BB748B0470221BB
:103670002846FFF75FFD6EE60CA900F051FC28B963
:103680001E212846FFF756FD404662E70E2142F212
:103690002000FEF737FE06460028F5D00E21083040
:1036A0000FF016FE0E2205460021FEF7E7FBBDF8DF
:1036B00030306B80BDF83230AB80BDF83430EB80F9
:1036C000BDF836302F802B81314642F22000FFF7C3
:1036D00011F8D9E7A3681E88304600F03BFF054685
:1036E00038B9944B02938DE84800934B1D68974B73
:1036F00013E76FF480710430FEF76EFDC0057FF5AF
:103700009CAE2846FEF77AFD97E6A368B3F8016001
:10371000304600F01FFF054638B9864B02938DE80E
:103720004800854B1D688A4BF7E6061D6FF0800147
:103730003046FEF751FD01067FF57FAE854B93F8CD
:1037400078309A06DDD595F864309B06D9D52846A1
:10375000FFF7E8FB0028D4D14FF48071304621E711
:10376000A6687D486FF02001FEF736FD337843B937
:10377000711C40227948FEF755FB10217648FEF770
:103780001AFD774B1D68771C002D3FF4E4AD3278AD
:103790002B68002A0CBF3846002098476D68F3E775
:1037A000704DA0682A68002A3FF4D5AD037823B98C
:1037B0000130904700232B60CDE50020F9E7284633
:1037C0000FF0ADFDDFF890910690069B002B3FF4C3
:1037D000C2ADA668092128460FF099FD337AB0469C
:1037E00033440CA893F809B018F8013F023B012BB1
:1037F000414600F29B80FEF7DBFC9DF83030023B37
:103800008DF83030584B1B68BBB128460FF097FD40
:10381000A3890793337AA381534B32781B6882467E
:103820001F464FFA8BF12B460CA8B847236913FAB1
:103830008AF3A360BDF81C30A38109214846327881
:10384000FEF752FD8246002866D1012A64D8012184
:103850000CA800F0AFFE074600285DD008214846BE
:10386000FEF742FD002840F0838002214846FEF723
:103870003BFD10B13D48FEF713FE364907F14B0002
:1038800007F1520AFEF794FC41465046FEF790FCC1
:10389000192142F20D00FEF735FD834600286DD058
:1038A000192108300FF014FD192280460021FEF77F
:1038B000E5FA0022602388F8003088F8012088F8B3
:1038C000023088F80320514608F105000792FEF700
:1038D0006FFC97F84B3088F80C30B7F85C30A8F8DC
:1038E0000D30B7F85E30A8F80F30B7F86030A8F8A0
:1038F0001130B7F86230A8F81330079A594642F2EF
:103900000D00FEF741FD002838D13846022100F0B5
:1039100043FF384600F06CFE317A284601310FF043
:10392000F6FC069B013BDBB206934EE7FEF740FC3C
:1039300068E700BF3E5601005C3A0020B96701000D
:1039400008680100A85F0100896501007E5F010031
:10395000915F0100603A0020D03A002090020020E0
:10396000D00200208C020020D8020020613A002002
:103970005046FEF75FFD00283FF477AF1F233B72F0
:103980000021384600F008FF384600F031FE0020E4
:10399000FEF73AFFC0E7A589204BA0681F682946BB
:1039A000FEF790FA1E4B049303908DE848001D4AE1
:1039B0001D4B1E491E480295B847CCE4184A029296
:1039C0008DE80C00154B1B4A1D6818491A4B1B4803
:1039D000A84720460FF04AFC6FF01500DDE404F123
:1039E0000805022128460FF092FC3678052E3FF498
:1039F000F1AC3E2E3FF433ADA589084BA0681F689B
:103A00002946FEF75FFA064B049303908DE84800C1
:103A100002950B4B034A05490A48CDE75C3A002062
:103A20003E56010001680100DF5F010008680100E7
:103A3000BD650100B96701007060010024660100E6
:103A4000F15F0100F26501002DE9F04F037D86680A
:103A5000012B87B004460FD06A4B019300936A4B49
:103A60006A4A1C686A496B4B6B48A047404080F328
:103A700011884FF0040002DF8289012A09D8614BC6
:103A800001930093604B614A1C686149614B634834
:103A9000EBE73278132A00F2AB80934013F40C2F3B
:103AA00000F0A68000F10805022128460FF02FFC47
:103AB00033780F2B1DD0132B2BD00E2B40F08B8087
:103AC000A36803212846B3F801701E780FF01FFC8D
:103AD000A368224619783846FEF79EFB16B1504877
:103AE00010F0D6FD20460FF0C1FB002007B0BDE866
:103AF000F08FA668B6F802807778042128460FF088
:103B000006FC224631784046FEF786FB002FE9D0BE
:103B1000E5E7D4F808B0DFF8F090DFF8E880002699
:103B20009BF800309E42DDDA0BEB8603B3F80120F0
:103B3000B3F803A04FF02001EFF3118781F3118850
:103B40001046059200F006FD059A054678B90192E7
:103B5000CDF80880CDF80080D9F80050314B2B4AC1
:103B60002B493148A84787F311880136D8E787F3F6
:103B7000118800F11807BAF1000F1FD04FF0200292
:103B8000EFF3118E82F31188296929B16A690868F7
:103B90002861914208BF68618EF311880AF1FF33F2
:103BA0001FFA83FA71B9CDF80480CDF80080D9F8F6
:103BB00000701C4B154A16491C48B847284600F0AF
:103BC00017FDD2E7384610F0B5F9284600F090F915
:103BD00010F05EFDCFE720460FF048FB094B019344
:103BE0000093094B094A1C6809490A4B10483CE7F5
:103BF000044B01930093044B044A1C680449054B91
:103C00000C4832E73E5601005C3A0020B9670100DB
:103C1000086801007860010087660100CB6601003A
:103C2000083B0020225F01000567010031670100A9
:103C3000586701007B670100084AD2F8D4303BB9CD
:103C4000C16841B1016931B1C2F8D400184670476A
:103C50006FF0440070476FF015007047603A002025
:103C600070B52B4DD5F8D43086B0064673B9294BC4
:103C700001930093284B294A1C682949294B2A485B
:103C8000A0476FF01204204606B070BD012105F177
:103C90007000FEF790FA10F0010035D1234B244953
:103CA0001E606FF00803059004900393029001904A
:103CB0000090204B20484FF46B7210F005FFD5F8B0
:103CC000D430DB689847044658B1124B02938DE814
:103CD0001800114B114A1D681149124B1748A8478B
:103CE000D1E726B906B0BDE87040FEF7BFBD01219F
:103CF00005F16C00FEF75FFAC307C4D405F1640157
:103D00000F4810F017F9BEE76FF04404BBE700BF9F
:103D1000603A00203E5601005C3A0020B96701007D
:103D2000086801008560010082610100D402002062
:103D3000081A002069310000DC020020AB6101009C
:103D4000881900200020704770B50378012B0546C4
:103D50000E4610D84378012B0DD841880B1F9BB21B
:103D600043F6FC70834206D8AA88131F9BB2834295
:103D700001D891422BD26FF015040EE008211948AA
:103D8000FEF7B2FA58B11046FEF754FB044630B1C4
:103D90006FF400711348FEF71FFA204670BD6B7870
:103DA0007BB14FF400610F48FEF705FAAA886988D5
:103DB0002878FEF7D9FC04460028E9D10A4B1E609A
:103DC000EBE76FF400610748FEF706FAEEE74FF401
:103DD00000710448FEF7EFF910F40072CED06FF0D6
:103DE0004404DAE7D03A0020D802002008B56FF486
:103DF00000710748FEF7F0F9830506D5054B002052
:103E00001860BDE80840FEF7FFBC6FF0440008BD35
:103E1000D03A0020D802002038B500F0FD03012B75
:103E200005460AD041F25A330A4A0B490B48FDF7BE
:103E3000ADF80B48FDF7AAF8FEE70A480FF0E6F9DF
:103E4000044620B1002108300FF0FFF92575204607
:103E500038BD00BFD76101008F600100205601000E
:103E6000BB6001008C3F002010B501464FF02003DD
:103E7000EFF3118083F311880B4A0023D2F8C0407E
:103E8000C2F8C03080F3118824B90120BDE8104089
:103E9000FFF7C2BF012204F108002275A381194671
:103EA0000FF0D3F9204610BD603A002038B5064B1C
:103EB0001C68054604B938BD236813B1297A284621
:103EC00098472469F6E700BF4C030020BFF35B8FDF
:103ED0000068BFF35B8F7047438910B504462BB170
:103EE000C0680FF0C3F90023E360638110BD0000D8
:103EF00000487047EC3A0020084B70B51C68054636
:103F000004B970BDE6683EB1B5F86230B5F860201E
:103F1000B5F85A102846B0472469F1E74C03002051
:103F2000F8B5074608460E46FEF724FB054610B9CD
:103F300000252846F8BD094B1C68002CF9D0A36861
:103F40000BB92469F9E73146384698470028EFD085
:103F50003046FEF70FFB0028F3D1E9E74C030020C1
:103F6000024B1A6802611860704700BF4C030020C2
:103F70002DE9F047DFF80882714ED8F8007086B05E
:103F800092460D46044610F04FFB0596CDF810A062
:103F9000AB8903932388029301900096694B6A4A88
:103FA0006A496B48B847BAF1010FC146374640D05D
:103FB000BAF1020F40F0A380AB68D9F80060B3F803
:103FC000008010F031FB0497CDF80C80AB89029390
:103FD00001905C4B00975C4A5C495E48B04763893E
:103FE0005BB1019700975C48D9F80060554B5B4A7C
:103FF0005649B0472046FFF76FFFAB89D9F80060FC
:10400000A8EB030808F10408A4F80A8010F00CFBE0
:1040100003976389029301904A4B00974A4A4B49A0
:104020004F48B0476389002B57D0E56006B0BDE824
:10403000F08763898BB901960096D8F80060414BF0
:10404000464A42494748B0472046FFF745FF2846C1
:1040500006B0BDE8F0470FF009B9AA899A4208D91D
:1040600001960096D8F80060364B3C4A37493E48E6
:10407000E9E7D8F800A010F0D7FA04966389039313
:10408000AB89029301902F4B2F4A30493748009655
:10409000D047E068B5F80CA008300FF054F982451D
:1040A00008D901960096D8F80060264B2B4A27497C
:1040B0002F48C8E7E068AA89A96808300FF00EF910
:1040C0006389AA899B1A638128460FF0CFF8638918
:1040D000002BABD1E5686381E360AB68AA891B88DC
:1040E000191D914216D00292019303970097D9F8B7
:1040F0000040144B194A15491E48A047A7E78DE810
:1041000040040296D8F800600E4B144A0F491A4832
:10411000B04799E7D9F8006010F086FA0397AB89A9
:10412000029301900097074B074A08491348B0478C
:104130002946204606B0BDE8F04701F033B900BF7C
:104140003E560100AC6A0100766C0100086801006F
:104150007D6C0100AE6C0100DA6C0100B9670100F2
:10416000076D0100266D0100546D0100786D01009E
:10417000A46D0100096E0100DB6D0100356E0100C8
:104180005C3A00202DE9F043DFF88080184DD8F824
:10419000009087B00C460646174610F045FAA389F2
:1041A0000393338802930190124B05950497009571
:1041B000114A12491248C847737A032B10D001954F
:1041C00000950C4B0F4A0D490F48D8F80050A847EE
:1041D00020460FF04BF86FF0380007B0BDE8F083D1
:1041E00006F12800676121460FF033F80020F4E75C
:1041F0003E560100B96A0100766C010008680100B2
:10420000996E0100B9670100CE6E01005C3A002092
:104210002DE9FF41154B164D1C68064610F004FAB7
:10422000144B0393019000930296134B134A1449C5
:104230001448A04706F118074FF00008002138463F
:104240000FF0B0FE044610B904B0BDE8F081636819
:104250000BB1304698472B6823606B68C4F8048024
:104260002C60002BEAD16C60E6E700BF5C3A0020CE
:10427000F80300203E560100C96A0100766C010077
:1042800008680100AD6B01002DE9F04FDFF8C09127
:104290005F4ED9F8008089B00F46144605469A460D
:1042A00010F0C2F906960594BB895A4A049301900E
:1042B000594B5A495A48039702950096C0474FF008
:1042C000FF31584810F00CFA574B03F14000FFF74C
:1042D000FDFDB04630B15A7A033A012A02D8184699
:1042E000FFF796FF6B7A032B74D1042107F10800C6
:1042F0000FF005F82A88D7F814B04C4E42EA043281
:104300000280BB89D9F80040043B438002233B75FF
:1043100010F08AF9CDF810800190CDF80CB002951C
:10432000CDF80080424B3B4A3C494248A0473468A4
:1043300054B940F26B43404A40494148FCF726FEDD
:104340004048FCF723FEFEE772682368336094421E
:1043500008BF7360C4F804B04FF02003EFF311827C
:1043600083F31188002323606B69002B41D16C61BA
:104370002C6182F311883846FEF7B4F9002844D046
:10438000CDF808800190CDF80080234BD9F800804B
:104390002D4A22492D48C0474FF02003EFF31181E9
:1043A00083F311882B69002253B19C422AD12368E0
:1043B00012BB6A692B61944200D16B6100232360B8
:1043C00081F311880023636033682360736834606D
:1043D00003B97460134810F05BF9BAF1000F04D010
:1043E00038460EF043FF4FF0000A504609B0BDE8D2
:1043F000F08F1C606C61BCE713606B699C4208BF66
:104400006A61DBE71A461B68CEE74FF0010AECE76A
:104410003E560100766C0100EA6A0100086801005E
:10442000B86F0100EC3A002060030020F803002080
:10443000DB6A0100F06F0100137001004F70010092
:10444000205601006D700100B96701001B62010078
:104450005C3A0020F8B5174C04F140060746304698
:10446000FFF734FD054608B10020F8BD014698224B
:104470002046FDF703FDBFF35B8F012356E8002FB5
:1044800046E800310029F9D1BFF35B8F0722394696
:1044900004F14400FDF7C6FC1823A4F85C3028237F
:1044A00004F17000A570A4F85E30034910F040FCE0
:1044B0002046F8BD60030020A54C000038B50D462D
:1044C000044600F1440107222846FDF796FC60B13E
:1044D000E378072233B904F152012846BDE8384099
:1044E000FDF78BBC04F14B01F7E738BD70B504460E
:1044F00086B000F14005BFF35B8F55E8003F013304
:1045000045E80032002AF8D1BFF35B8F0B4B1E68E1
:1045100010F08AF8024628462188FFF7D7FC084B9E
:1045200004930390029101920093064A064B0749B7
:104530000748B047204606B070BD00BF5C3A002077
:104540003E560100766C0100396B010008680100DD
:10455000736E010008B50A4B014603F14000FFF7F6
:10456000B5FC58B15A7A033A012A07D81A888A4208
:1045700004D11846BDE80840FFF7B8BF002008BDC9
:104580006003002010B50A4C014604F14000FFF71B
:104590009DFC50B1A37843B92046FFF78FFF20B9A7
:1045A0002046BDE81040FFF7A1BF002010BD00BFAE
:1045B0006003002038B50D4C034604F140000D4661
:1045C000FFF784FC80B1A27872B93BB9637AAB4241
:1045D0000AD10648BDE83840FFF788BF1946204693
:1045E000FFF76CFF0028F1D0002038BD60030020E9
:1045F00070B5054686B000F14004BFF35B8F54E808
:10460000003F013B44E80032002AF8D1BFF35B8F42
:104610000A4B1E6810F008F8024620462988FFF76A
:1046200055FC074B04930390029101920093054AB5
:10463000054B06490648B04706B070BD5C3A0020FD
:104640003E560100766C0100456B010008680100D0
:10465000736E010038B5044600F128050021284694
:104660000EF0DAFD60B923696BB140F20B530B4ACF
:104670000B490C48FCF78AFC0B48FCF787FCFEE76B
:104680000EF0F4FDEAE72046FFF7C2FD2046FFF7F3
:1046900023FC2046BDE83840FFF7AABF1370010095
:1046A0005F6F010020560100856F01002DE9FF4179
:1046B0002E4D2F4C2F6806460FF0B6FF2D4B019064
:1046C0002D4A2E492E4802940094B8472D4B0022C3
:1046D000012130469A6010F0CBFC2B4B03F14000D7
:1046E000FFF7F4FB2A461F46254618B9012004B0FF
:1046F000BDE8F081597A99B9BFF35B8F191D51E874
:10470000000F20F0400441E8004EBEF1000FF6D14A
:10471000BFF35B8F410603D51846FFF79BFFE5E724
:104720007C7A032CE2D1D2F800800FF07DFF114B90
:104730000190114A11491548039502970095C04709
:10474000134B0022042106F1140010F091FC012308
:1047500086F8203006F128000E4B0022042110F0CC
:1047600087FC022386F834302046C0E75C3A0020FC
:104770003E560100FD6A0100766C010008680100E8
:10478000CA6B0100883B002060030020E06B010041
:1047900078030020880300202DE9F0430446734E7F
:1047A000DFF80482356887B00F460FF03DFF637A6B
:1047B0006F490190042B96BF6E4A6F4B52F823301D
:1047C0000293042F96BF6B4A6B4A52F8272003923C
:1047D000CDF81080CDF80080684B694A6948A84739
:1047E000657AAF42C1460CD1CDF80480CDF8008087
:1047F0003468624B644A5E496448A04707B0BDE82C
:10480000F083677295B1022D14D0637A042B00F205
:10481000A08001A252F823F07B480000FD47000071
:104820003749000045480000FD4700002046FFF7DB
:104830005DFEEAE7A378002BE7D104F1700010F0E9
:1048400087FAE2E7A378022BD8D004F128000FF012
:1048500069FB04F118000FF065FB00214C4810F0D3
:1048600073FD00232046A363E36300F02FFC204682
:1048700007B0BDE8F043FFF719BBA378022B05D1C1
:10488000204607B0BDE8F043FFF7B2BEEB1E012B98
:1048900044D8204600F054FC3E4B1D68EDB93E4E16
:1048A0003E4F4FF02003EFF3118183F3118823690A
:1048B0002BB160691A682261834208BF626181F38B
:1048C00011888BB132681A6072685D60336002B91A
:1048D000736038460FF0DCFEE3E76B6813B1217AB2
:1048E000204698472D69D9E7A3781BB904F17000D9
:1048F00010F02EFABFF35B8F043454E8003F43F00E
:10490000400344E80032002AF7D1BFF35B8F204810
:10491000002107B0BDE8F04310F016BD022D03D111
:104920002046FFF7C3FAABE7012D7FF467AF237A88
:10493000002BA5D0F4E7A378002B7FF45FAF1848D5
:1049400040F6B83204F1700107B0BDE8F04310F052
:1049500063BACDF808900197CDF800903468074B02
:10496000094A03490F48A04748E700BF5C3A0020C6
:1049700008680100986A0100ED6E0100276B0100D4
:10498000766C0100F76E010001680100156F0100EF
:10499000883B00204C030020F8030020EC3A002064
:1049A00088190020336F01003E56010044307047E3
:1049B00070B5064608460D46FDF7DCFD08B9002433
:1049C0001CE01D48FFF782FA8305F8D43046FFF754
:1049D000D9FD0446A0B1437A012B06D001D3032BA5
:1049E0000CD92046FFF704FEE9E76B88A0F85E309B
:1049F000AB88A0F86030EB88A0F86230204670BD2C
:104A00003046FFF727FD04460028F7D0072231463D
:104A10005230FDF707FA6B88A4F85E30AB88A4F833
:104A20006030EB88A4F8623020460121FFF7B4FE25
:104A30000120FDF7E9FEE1E7D03A002070B5064617
:104A40000D4600293BD13046FFF79CFD044628B9AE
:104A50003046FFF7FFFC0446002851D0231D002DEF
:104A600035D06A88A4F85E20AA88A4F86020EA8875
:104A7000A4F86220BFF35B8F53E8002F42F00101DE
:104A800043E800100028F7D1BFF35B8FD10702D4B1
:104A90002046FFF72BFD637A63B91B48FFF716FA30
:104AA000830707D51DB101212046FFF775FE0020C1
:104AB000FDF7AAFE2046FFF79BFD002070BD0846CB
:104AC000FDF758FD0028BED16FF0150070BDBFF393
:104AD0005B8F53E8002F22F0010143E8001000280B
:104AE000F7D1BFF35B8FD207D5D52046FFF780FD06
:104AF000637A012BCFD129462046FFF74DFECAE746
:104B00006FF00B0070BD00BFD03A002070B50E46AC
:104B10008178044611B94430FFF790FF637A013B76
:104B2000032B03D8DFE803F006101B0E6FF03805E7
:104B3000284670BD204626720021FFF72DFE00207A
:104B4000FDF762FE0025F3E704F1700010F000F9B4
:104B5000002142F20E00BDE87040FDF7CBBD0321FD
:104B600040F20640FDF7CEFB054698B10321083020
:104B70000EF0AEFB238803808670294640F2064083
:104B8000FDF7B8FD05460028D2D104212046FFF7E5
:104B900003FECDE76FF03605CAE7F8B507460D46C8
:104BA00042F213000E21FDF7ADFB0646C8B10E21FF
:104BB00008300EF08DFB002104460E22FDF75EF951
:104BC0003B8823802B8863806B88A380AB88E3803D
:104BD000EB882381314642F21300BDE8F840FDF72F
:104BE00089BD6FF03600F8BD70B5274B0D468AB011
:104BF00004461E680FF018FDEA880792AA880692FC
:104C00006A8805922A88214B049294F864200893BC
:104C10000392019000931E4A1E4B02941E491F48A6
:104C2000B047B4F85A302A889A420CD86A889A4217
:104C300009D3B4F86020AB889A4204D1B4F862205A
:104C4000EB889A421CD004F1700010F081F8144BEC
:104C500093F878309A0703D594F864309B0701D411
:104C6000E37833B9294620460AB0BDE87040FFF723
:104C700094BF294620460AB0BDE8704000F0D6BB7C
:104C80006FF044000AB070BD5C3A00203E5601004F
:104C9000766C0100536B0100086801006B6B01002A
:104CA000603A0020034607B513F8672C022AA0F1EA
:104CB000700005D11321FFF729FF03B05DF804FB55
:104CC00033F8142CADF8002033F8122CADF8022084
:104CD000694633F8102C33F80E3CADF80420ADF8DB
:104CE0000630FFF781FFE8E738B50E4B0D46002888
:104CF00008BF18464FF0FF310EF088FA044650B94D
:104D00004FF4F263084A09490948FCF73FF909489A
:104D1000FCF73CF9FEE7291D08300EF096FA204614
:104D200038BD00BF2C3F0020137001001762010046
:104D3000205601003E5601002DE9F04106460C4682
:104D400016480021FFF7D0FF3378032B05464FF0BC
:104D5000000605D00EF08AFA35462846BDE8F081F7
:104D6000466100F108070E4E3846B6F888800EF00E
:104D7000EAFA80450CD2B6F8886054F8081F32462B
:104D800038460EF0ABFA314620460EF0C0FAE4E7A2
:104D900038460EF0D8FA86B2EFE700BF4C3F00204D
:104DA000603A00202DE9F041494F4A4D3E6886B0F7
:104DB00004460FF039FC484B01900395029400958E
:104DC000464A47494748B047637AB8462E460BBB28
:104DD000BFF35B8F231D53E8002F22F0400143E80F
:104DE00000100028F7D1BFF35B8F530612D53E6841
:104DF0000FF01AFC03952388029301900095364B1F
:104E0000364A37493848B047204606B0BDE8F04139
:104E1000FFF720BC002104F128000EF0FDF9054643
:104E200070B901960096D8F800402B4B2F4A2C49B8
:104E30002F48A047404080F311884FF0040002DF64
:104E4000D8F800700FF0F0FB0596AB890096294E5C
:104E500004930190214A224903950294264B274846
:104E6000B847A989B6F88820914209D800231A4684
:104E700029462046FFF708FA50B106B0BDE8F08198
:104E800004F1090729463846FFF756FF014628B9BD
:104E9000284606B0BDE8F0410EF0E8B90123002233
:104EA0002046FFF7F1F90028F2D0AA89B6F8883039
:104EB0009A4202D800230122DAE729463846FFF752
:104EC0003BFF01460028E3D001231A46E8E700BF74
:104ED0005C3A00203E560100146B0100766C010024
:104EE00008680100AD6B0100116C0100B967010099
:104EF000BD680100603A0020F46A01004B6C0100BB
:104F0000034BC01A034BC0105843C0B2704700BFD8
:104F1000600300201BCA6B28124B134A196810B596
:104F20001160596801B95A60596892600F4A1A6055
:104F300001B95A6001F09EFB02F00CF9044670B909
:104F400000F09CFA0A48FEF7C1FF40B10948FEF79D
:104F5000BDFFC30703D501210748FFF71DFC20460D
:104F600010BD00BFF80300205003002058030020AC
:104F7000A0030020640300206003002070470000AD
:104F80001FB50B4A13682BB90A4850600A601846CF
:104F900004B010BD084B02930093084B01901C68AD
:104FA0000748084B084A0949A0476FF00B00EFE794
:104FB00000040020A43B00203E5601005C3A002083
:104FC0007071010001710100B967010008680100FA
:104FD000F8B507460E46002004211546FFF784FE6B
:104FE0000421044608300EF073F9077046704580BE
:104FF0002046F8BD7047000000238360054B5968C8
:1050000000F1080211B95A601A6070470A605A60CC
:10501000704700BF98040020836B10B513B1083BA4
:10502000002203B910BD8B4203F108040FD1996827
:105030003AB9C26B8163944200D1C16300229A6085
:1050400010BD1160C16B8C4208BFC263F6E72246F7
:10505000002CE7D09B68002BE4D0083BE1E7036815
:1050600010B504462BB143685B6803B19847002331
:105070002360E3681BB12046BDE81040184710BD0F
:105080007FB50C4B0293A0F110048DE818000A4B79
:105090000A4A1E680A490B4B05460B48B04755F8AB
:1050A000100C2146FFF7B8FF204604B0BDE8704061
:1050B000FFF7D5BF3E5601005C3A0020B9670100FA
:1050C00008680100AB700100C47201001A4B2DE9A1
:1050D000F7431C6806462CB10027DFF86080083CC7
:1050E000B94614B903B0BDE8F083636801A930463E
:1050F0009847002818DB019D23882B87A5F8583096
:10510000414605F110000FF013FEAF60F26B05F1A0
:10511000080372B9F363B36301982E604368C5F85E
:105120000C901B6803B19847A468002CDAD0083CA7
:10513000D7E71360F363EFE7980400208150000085
:10514000836B10B5A3B1B3F108000AD110BD083CC0
:10515000FFF785FF64B1A36803B1083B20461C46F6
:10516000F6E71C68002CF2D1BDE81040FFF777BFCE
:1051700010BD0431FFF7B8BDF8B5144605460F461B
:1051800002F1080004211E460EF0B9F8A1894780FB
:1051900004390180324621462846BDE8F840FEF732
:1051A000F1BF0000F0B58B89032B87B007460D4691
:1051B0000AD85E4B019300935D4B5E4A1C685E49C2
:1051C0005E4B5F48A04715E00846042150F8084FA1
:1051D00066880EF09CF8AA8996420DD0534B039333
:1051E0000093534B019202961C68524A534B52490A
:1051F0005448A04707B0F0BD617849B94B4B0193C3
:1052000000934B4B4B4A1C684B494C4B4E48D9E7DB
:105210002378122B2CD0132B1ED0012BEAD0434A1B
:1052200002928DE80C00424B484A1D684249434BAC
:105230004748A847022261783D680120FFF7C8FE71
:105240000221044608300EF043F800230370437037
:1052500022460521284629E0012ECBD8334B019365
:105260000093334B334A1C6833493A4B3A48A9E719
:10527000072E09D82D4B019300932D4B2D4A1C6806
:105280002D49364B36489DE73C68E6788EB10222C0
:105290000120FFF79DFE0221054608300EF018F8A8
:1052A0000023037043702A4605212046FFF764FF60
:1052B000A0E7AB6858781A7842EA0022ADF81020CF
:1052C000D8789A7842EA0022ADF8122058791A79F3
:1052D00042EA0022ADF814209A79DB79132042EAE1
:1052E00003230222ADF81630FFF772FE04A9074629
:1052F0002046FEF715FE0221054607F108000DF0D5
:10530000E7FF7DB10670467000233A46052120462E
:10531000FFF732FF002D3FF46DAF04A92046FFF7E1
:105320003CFC67E7012303704570EDE73E56010042
:105330005C3A0020B967010008680100E8700100CC
:10534000A7710100D571010006720100016801001A
:1053500096720100BD70010037720100CF7001002C
:1053600063720100806B00B1083800B97047B0F873
:1053700058308B42FAD083680020002BF6D0A3F17E
:105380000800F2E7806B00B1083800B97047038F5E
:105390008B42FBD083680020002BF7D0A3F10800DC
:1053A000F3E700007FB58B89032B06460C460FD828
:1053B000164B01930093164B164A1D681649174B5E
:1053C0001748A847204604B0BDE870400DF04EBF16
:1053D0000846042150F8083F5D880DF098FF2946E3
:1053E0003046FFF7CFFF58B9084B02938DE82800ED
:1053F000074B0C4A1D680849084B0B48A847E1E7D2
:10540000436821461B699847DCE700BF3E56010010
:105410005C3A0020B967010008680100F3700100E0
:105420000E710100016801003B71010070B5124B63
:105430001A78013212F0FF0208BF01221A700C46DE
:105440000546197808221220FFF7C2FD08210646FA
:1054500008440DF03DFF2388038063884380A388C0
:105460008380E388C3803246284600230521FFF766
:1054700083FE002070BD00BF940400200148FFF7A8
:10548000BBBD00BF983B00200620704710B50A4AFC
:10549000002312F8334084424FEAC30102D10A4488
:1054A000907810BD01331B2BF3D110F0400F14BFC7
:1054B0000020062010BD00BF0C7601007FB5114D05
:1054C0002C680E4684B9E42221462846FCF7D6FC17
:1054D00002220D4B6B6005F1CC0011460FF0AAF8CB
:1054E0003560204604B070BD084B02930093084B12
:1054F00001901C680748084B084A0949A0476FF00B
:105500000B00EFE7A0040020C43B00203E56010042
:105510005C3A0020C574010060730100B9670100A6
:105520000868010010B50446006908B10DF09EFE40
:10553000A3680BB120469847204614220021BDE8FD
:105540001040FCF79BBC08B501F108000DF0EFFE20
:10555000002008BD2DE9FF410D6806460C464FF0BE
:1055600000084FF4205302A900682F688DF80880C6
:10557000ADF80A30FCF7D4FD98B142F6010303A957
:1055800030688DF80C80ADF80E30FCF7C9FD40B1E5
:10559000236923B1328A5988914200D25A8001206E
:1055A00012E061683068FCF7BBFD10B10023236195
:1055B000F5E7E368A0681A784AB1B5F85A308189EE
:1055C0005B1A934203DA002004B0BDE8F0810421A5
:1055D00008300DF07DFE338AA1682061038043808E
:1055E0008A89B5F85A308968D6F804809B1A002554
:1055F0000A44009531469BB23846C047011EE2DBA3
:10560000E06802780B1D2AB90370A06808300DF01D
:105610005FFEC4E79A42F8D0A2689389043B938165
:10562000D1E78B6870B505460C460E6863B94868CB
:10563000012108300DF04CFE2B68A0601B78002B78
:105640000CBF012302230370A3681B78012B03D036
:10565000022B1AD0002070BD2B681B78002BF9D1CB
:105660006068042108300DF033FEE0602B8A03806F
:105670002B685B8843806368B6F85A009B89C01A20
:10568000042894BF0020012070BD2B681B78022BDA
:10569000E0D16068122108300DF01AFEE060296840
:1056A0002B8A20F8023B10220131FCF7BBFB636818
:1056B000B6F85A009B89C01A1228E2E72DE9F0419A
:1056C0000E6888B005460C46002742F6010302A981
:1056D0000068D6F800808DF80870ADF80A30FCF745
:1056E0001FFD28B90023A360012008B0BDE8F081A8
:1056F0004FF4205303A928688DF80C70ADF80E30D4
:10570000FCF70EFD40B1A368002BEDD02A8A598822
:105710009142E9D25A80E7E76268B6F85A30928936
:105720009B1A032BE1D9102300900DEB03026E6846
:1057300029464046B047021ED4DB237C9A42D1D191
:1057400004A9E068FCF759FB0028CBD160746068BD
:10575000042108300DF0BCFD2B8AA060038043803B
:10576000C2E7000010B517230446A0F85A3043875B
:105770000649A4300FF0DCFA0023C4F89C30C4F8CA
:10578000A0302068BDE8104001F088BCED5C00004E
:1057900011F0010F837C04D013F0150F12D0426872
:1057A00082B18A0704D513F02A0F0DD082685AB14E
:1057B000194011F0300F09D111F00C0F14BF0F2058
:1057C0000020704702207047032070470520704773
:1057D0002DE9F7430F6806460C4600684968D7F87C
:1057E0000090FCF79DFC804600284DD115213046E5
:1057F000FFF7CEFF0546207548B1E3681D7815B167
:1058000084F814804546284603B0BDE8F083A068BC
:10581000022108300DF05CFD338AA168206103800D
:105820008A89B7F85A308968D6F8048000959B1A9F
:105830009BB20A4448463146C047011E08DA01F1CE
:10584000FF03FE2B9ABF4942C9B20E212175DAE748
:10585000E06802788B1C82B90370A06808300DF0F4
:1058600037FDA368B7F85A509B89ED1AE3681B7897
:105870009D42D4BF00250125C5E79A42EDD0A2681C
:105880009389023B9381BEE70125BCE708B504215B
:10589000FFF768FD48B97623044A05490548FBF738
:1058A00075FB0548FBF772FBFEE708BDEB730100D3
:1058B00026740100205601002B74010008B5FFF783
:1058C000E5FFBFF35B8F00F1940353E8002F22F054
:1058D000010243E800210029F7D1BFF35B8FCC30F0
:1058E000BDE808400EF0D4BE08B5FFF7CFFFBDE815
:1058F0000840CC300EF0CCBE10B58A89022A04468E
:1059000003D0102A0AD0002010BD0023037001F13B
:1059100008000DF00CFD6080012010BD022300F88E
:10592000013B8968FCF77EFAF6E7000010B5FFF747
:10593000ADFF0446CC300EF0ABFED4F8983043B146
:1059400004F1A40147F230520248BDE810400FF0C4
:1059500063BA10BD8819002003685B7A032B0AD153
:10596000BFF35B8FD0F89400BFF35B8F6FEAA000AA
:1059700000F001007047012070470620704708B50D
:10598000FFF784FFBFF35B8F00F1940353E8002F10
:1059900022F0020243E800210029F7D1BFF35B8F18
:1059A000CC30BDE808400EF073BE0000437A032BF4
:1059B00037B50CD0174B01930093174B174A1C684F
:1059C0001749184B1848A047002003B030BD0421E8
:1059D000FFF7D8FC044658B90E4B019300930E4BC9
:1059E000124A1D680E490F4B1148A8472046ECE7A4
:1059F000BFF35B8FD0F89430BFF35B8F5B07F5D5B7
:105A0000044B01930093044B044A1C680449054B62
:105A10000848D8E73E5601005C3A002001680100C2
:105A200008680100357301006E730100B967010059
:105A30008C730100B77301002DE9F3410C46D1F8D6
:105A400000802A210646FFF7A3FE05462075E0B92F
:105A5000628A01900092237CB768E2683146404632
:105A6000B847002802DB237C98420BD000F1FF03EB
:105A7000FE2B9ABF4042C0B20E202075284602B0CD
:105A8000BDE8F08125750125F8E70025F6E700005F
:105A900073B5054600F1CC06C5F898100C463046A3
:105AA0004FF0FF310EF01CFE2846FFF755FF80B97E
:105AB000184B01930093184B184A1C681849194B4E
:105AC0001948A04730460EF0E3FD6FF0380002B0F1
:105AD00070BD266906F108000DF031FCB389A08184
