:10000000E82C0020DD1A0000311B000075190000EB
:1000100075190000751900007519000075190000A8
:100020007519000075190000751900007D15000094
:1000300075190000751900003915000075190000C8
:10004000A11A0000FB0C0100A11A0000A11A000077
:10005000A11A0000A11A0000A11A0000A11A0000B4
:10006000A11A0000A11A0000A11A0000A11A0000A4
:10007000A11A0000A11A0000A11A0000A11A000094
:10008000A11A0000A11A0000A11A0000A11A000084
:10009000A11A0000A11A0000A11A0000A11A000074
:1000A000A11A0000A11A0000A11A0000A11A000064
:1000B000A11A0000A11A0000A11A0000A11A000054
:1000C000A11A0000A11A0000A11A0000A11A000044
:1000D000A11A0000A11A0000A11A000000000000EF
:1000E0007512000000000000ED1800000000000084
:1000F000ED18000000000000ED18000000000000F6
:10010000ED18000000000000ED18000000000000E5
:10011000292D010000000000ED1800000000000083
:10012000ED18000000000000ED18000000000000C5
:10013000ED18000000000000C10C010000000000EC
:10014000ED180000B83E00202D3001000000000036
:10015000ED18000000000000ED1800000000000095
:10016000ED180000000000009D13000000000000DA
:10017000ED18000000000000ED1800000000000075
:10018000ED18000000000000ED1800000000000065
:10019000ED18000000000000ED1800000000000055
:1001A000F50C010000000000ED1800000000000048
:1001B000ED18000000000000ED1800000000000035
:1001C000ED18000000000000ED1800000000000025
:1001D000ED18000000000000ED1800000000000015
:1001E000ED18000000000000ED1800000000000005
:1001F000ED18000000000000ED18000000000000F5
:10020000ED18000000000000ED18000000000000E4
:10021000ED18000053B94AB9002908BF00281CBFD7
:100220004FF0FF314FF0FF3000F08EB9ADF1080C08
:100230006DE904CE00F01AF8DDF804E0DDE90223F0
:1002400004B07047430803F05533C01A830803F025
:10025000333300F03330184400EB101000F00F304F
:1002600000EB002000EB0040000E70472DE9F04746
:100270008C460D460446089E002B51D18A421746F3
:100280006DD9B2FA82FEBEF1000F0BD0CEF1200C78
:1002900001FA0EF520FA0CFC02FA0EF74CEA050CF6
:1002A00000FA0EF44FEA174A250CBCFBFAF81FFAC5
:1002B00087F90AFB18CC45EA0C4508FB09F3AB4269
:1002C0000AD9ED1908F1FF3280F02381AB4240F2E8
:1002D0002081A8F102083D44ED1AA4B2B5FBFAF062
:1002E0000AFB105544EA054400FB09F9A14509D968
:1002F000E41900F1FF3380F00A81A14540F2078143
:1003000002383C44A4EB090440EA08400021002ED6
:1003100061D024FA0EF4002334607360BDE8F087E6
:100320008B4207D9002E54D0002186E821000846D0
:10033000BDE8F087B3FA83F1002940F08E80AB422C
:1003400002D3824200F2FA80841A65EB0305012091
:10035000AC46002E3FD086E81010BDE8F08712B9F9
:100360000127B7FBF2F7B7FA87FEBEF1000F34D1D1
:10037000EB1B3A0C1FFA87FC0121B3FBF2F8250CAA
:1003800002FB183345EA03450CFB08F3AB4207D9DF
:10039000ED1908F1FF3002D2AB4200F2D180804665
:1003A000ED1AA3B2B5FBF2F002FB105543EA054487
:1003B0000CFB00FCA44507D9E41900F1FF3302D27D
:1003C000A44500F2B8801846A4EB0C0440EA0840AB
:1003D0009DE731463046BDE8F087CEF1200405FAAE
:1003E0000EF307FA0EF720FA04F83A0C25FA04F493
:1003F00048EA0308B4FBF2F14FEA184502FB114446
:100400001FFA87FC45EA044501FB0CF3AB4200FAF6
:100410000EF409D9ED1901F1FF3080F08A80AB426A
:1004200040F2878002393D44EB1A1FFA88F5B3FB8E
:10043000F2F002FB103345EA034500FB0CF3AB423C
:1004400007D9ED1900F1FF386FD2AB426DD90238F0
:100450003D44EB1A40EA01418FE7C1F1200722FA3F
:1004600007F88B4005FA01F448EA030320FA07FE77
:100470004FEA134CFD404EEA040EB5FBFCF94FEA7F
:100480001E440CFB19551FFA83F844EA054509FB85
:1004900008F4AC4202FA01F200FA01FA08D9ED18A8
:1004A00009F1FF3043D2AC4241D9A9F102091D4400
:1004B0002D1B1FFA8EFEB5FBFCF00CFB10554EEA0F
:1004C000054400FB08F8A04507D9E41800F1FF3502
:1004D00029D2A04527D902381C4440EA0940A4EBA0
:1004E0000804A0FB02894C45C6464D4615D312D0E0
:1004F00056B1BAEB0E0364EB050404FA07F7CB40E0
:100500001F43CC40376074600021BDE8F087184677
:10051000F8E69046E0E6C245EAD2B8EB020E69EB97
:1005200003050138E4E72846D7E7404691E78146CE
:10053000BEE7014678E702383C4445E7084608E74D
:10054000A8F102083D442BE7704700BF70B503785F
:100550008AB004460E4607AD032B20D8DFE803F02F
:1005600002191B1D1149284601F014FB6278049200
:10057000A2780392E2780292227901926279009243
:10058000A37905950A4A1B21304600F00DFD0AB0FB
:1005900070BD0849E7E70849E5E70849E3E7084A85
:1005A0000A21284600F000FDE0E700BFB145010048
:1005B000DA450100B8450100BF450100C945010009
:1005C000D345010030B589B00D46044603F07DFEE9
:1005D00001A9FFF7BBFF35B12A4601A9084800F081
:1005E000D5FC09B030BD074B1B689C42F9D101A96D
:1005F000054800F0CBFC1321204603F01BFFF0E779
:10060000FD450100000000201B46010030B5134CE1
:10061000236883428BB00D461DD103F056FE03A91B
:10062000FFF794FF2A4603A90D4800F0AFFC2068AD
:1006300003F048FE002323600A4B0B491868019021
:100640009B88ADF8083001A803F0CAF9014610B143
:10065000064800F09BFC0BB030BD00BF000000203E
:100660004646010054450100710600006446010041
:1006700070B5104C23688AB006460D46C3B9012AEE
:1006800016D803A9FFF762FF2A4603A90A4800F01B
:100690007DFC46350CDB03F0F5F948B9074A1068D4
:1006A000516801AB03C301A9304603F011FE20607D
:1006B0000AB070BD000000202A4601005A45010022
:1006C00007B5002003F01CF9014628B10E4800F0E0
:1006D0005DFC03B05DF804FB0C4800F057FC0C48CF
:1006E00003F08CFA0B4B0C49186800909B88ADF80E
:1006F0000430684603F074F9014608B10748E6E79C
:10070000074800F043FCE4E787460100A7460100E4
:10071000283A00206245010071060000644601008D
:10072000BE4601000C4B1B78062B12D10B4B1868F0
:1007300010F00F000DD104331B6803F0F003302BD1
:1007400008D1074B1B6813F0F00F0CBF01200020ED
:1007500070470020704700BFE00F00F0E40F00F08A
:10076000EC0F00F008B54FF02003EFF3118183F395
:100770001188FFF7D7FF20B13D4AD36823F080737B
:10078000D360FFF7CFFF10B13A4B03221A60FFF797
:10079000C9FF30B14FF080430022C3F80C21C3F8E9
:1007A0001021354B1B78062B17D1344B1B681807CB
:1007B00013D1334B1B6803F0F002302A03D003F04F
:1007C000E003402B09D14FF08043D3F80024D20737
:1007D00003D56FF00102C3F800244FF01022D2F8C5
:1007E0000032002B274B03DBD2F80022002A2FDA3D
:1007F0000122C3F80425D3F80024002AFBD04FF0CF
:1008000010231522C3F800221E4A1346D2F8001402
:100810000029FBD04FF010221521C2F80412D3F8A2
:100820000024002AFBD00022C3F80425154AD2F880
:100830000034002BFBD0BFF34F8F1349134BCA6812
:1008400002F4E0621343CB60BFF34F8F00BFFDE7BC
:100850000122C3F840250C4B4FF0FF329A62DA6256
:100860000B4B0C4A1A6081F31188002008BD00BFB1
:10087000F0ED00E0A0050040E00F00F0E40F00F014
:10088000E80F00F000E0014000ED00E00400FA0590
:100890005C3A00200090D00308B504460846114693
:1008A0001A46A04713F008F901F0D4F810B5C47A3D
:1008B000C0688C424FF00C04B6BF614304FB0101D9
:1008C0004158202492FBF4F401EB8401196002F0FA
:1008D0001F0010BD07B501ABFFF7E8FF019A012328
:1008E00003FA00F013680343136003B05DF804FBE0
:1008F00007B501ABFFF7DAFF019A012303FA00F015
:10090000136823EA0003136003B05DF804FB2DE9CC
:10091000F0474368058904460068A77A5D43284488
:1009200000214FF00C0E4FF0200CB94205DB0025E2
:1009300023899D4223DBBDE8F087D4F80C90B5FBFA
:10094000F3F20EFB01F81F2A09EB08064FEA9303A6
:1009500006F1040AC8BF1F3203F10303C6F804A05E
:10096000C6F808A0CABF92FBFCF2E17249F8080081
:1009700023F00303C8BF00EB82000131D5E76268B2
:10098000E36820686A431E1D865081189A684A6091
:100990009A682046116099602A460021FFF79AFF65
:1009A0000135C5E72DE9F04F8BB0867A00AF0446DC
:1009B000FB60B3000A3323F00703ADEB030D43687C
:1009C0003A6103336A4623F0030342F80439E946E7
:1009D0004FF0FF3500234FF00C0E581EB3427862E3
:1009E00009DA2BB110688008033020F00300506052
:1009F000506888420BD27B6A013314D13A6D0023D0
:100A000013606FF00B002C37BD46BDE8F08FE06837
:100A10000EFB030000F1040C40680432604518BF6F
:100A20001D460133D9E76B1CE8D0E16859F8252051
:100A30000C2303FB051353F8046F9E4261D096E824
:100A40000A00196031684B6023682946F31A204672
:100A500093FBF2F2FFF74CFFA9EB890309EB850A40
:100A6000BB617B6A9D4223680EDB3A6911467A6A54
:100A70000A60F31A59F8222093FBF2F3FA68136024
:100A80003B6D00201E60BEE75AF8042BF31A93FB5F
:100A9000F2F3BA699B007B610AEB4A0313444FF0FF
:100AA000010BFB6105EB0B03BB60DAF80080B96852
:100AB0000BFB08F33B62F3187B607B6920460BEB72
:100AC0000302FFF707FF7B682268218908F1FF38DE
:100AD0009844A8EB020862684A4390450AD2E2684B
:100AE000F969386A0A44111D31509168596091685A
:100AF0000B6093600BF1010BBBF1040FD5D10135F5
:100B0000AFE76FF00A007EE72DE9F04F85B0837AFA
:100B10009B000A3323F0070300AFADEB030D4368DE
:100B2000033323F003030546EA4600936C46012095
:100B300081424CD20C4616463246214628465AF887
:100B40002480D5F80090FFF7C5FE002C48D007F1AF
:100B50000C03324621462846FFF7A8FEFA68042314
:100B600090FBF3F083001068D84000F00F000F28CE
:100B700036D126F003034FF000097B6008F1FF3BFC
:100B80007B684B441A46214628463B60FFF7B0FE7F
:100B90003B689E4212D008FB03F2B5F808C06B68B0
:100BA000296802EB0B0E03FB0CF39E4501EB0200E0
:100BB00004D240688B5803608B58586009F10109D2
:100BC000B9F1040FDCD196FBF9F6013CB4E72368D8
:100BD0009B08033323F0030344F8043F0130A7E7E5
:100BE00008FB06F62A68696809EB060308F1FF3876
:100BF0009844A8EB02082A89514388450BD2E9683A
:100C00000C2202FB0414221D49F80620A2685A6037
:100C1000A2681360A3601437BD46BDE8F08F0020C2
:100C2000704700000B6801330B60014B1B681847CD
:100C3000603A00202DE9F04F85B09B460E9CDFF80E
:100C400090A0012CB8BF0124012B0CBF302320231E
:100C50001546804689460194029301260A27002200
:100C60000AF101040AB9AA451FD2B5FBF4F04946BE
:100C70003030C04701360122013F012FB5FBF4F1AE
:100C80004FF00A0304FB1155BAFBF3FAE8D14946C9
:100C900005F13000C047BBF1030F03D1019B9C1B42
:100CA000002C0FDC05B0BDE8F08F019BBB42E3DBFD
:100CB000BBF1020FE0D84946029803920136C047C3
:100CC000039AD9E749462020C047013CE8E700BF26
:100CD000FFC99A3B0A688B6830B512B14C68A342D1
:100CE00002DB01338B6030BD651EAB420BBF8C60F5
:100CF0005C1C00218C600CBFD154D05430BD00006E
:100D0000014B1860704700BF603A00202DE9F04F9A
:100D100089B04FF0000A06460F4604921C464FF079
:100D2000FF39D0465546049B187810B909B0BDE884
:100D3000F08F45B9252800F00C813946B047049B57
:100D400001330493EFE7642861D019D839280AD811
:100D5000312850D22D283CD030283DD0252808D12C
:100D60003946B0476FE0582800F08980632800F0CA
:100D7000EA8039462520B047049B39461878F0E7C9
:100D8000702872D006D8692841D06C283CD06828D9
:100D9000D5D0EEE7752858D017D87328E9D1236845
:100DA00004F1040B1C46254615F8010B002840F001
:100DB000BF80B8F1030F40F0D580E41AA9EB04041A
:100DC000002C00F3BB805C463DE0782857D07A28A1
:100DD000DEE74FF00308B2E7B9F1000F0EDAB8F121
:100DE000000F00F0BC80A0F13009B8F1000F08BF7F
:100DF0004FF00208A3E7B9F1000FF4DB0A2303FB6D
:100E00000909A9F13009F0E70AF1010A97E7BAF1F7
:100E1000010FC5BF073424F0070325681D68D4BF40
:100E2000043403F10804002D05DA39462D20B047BB
:100E30006D4209F1FF39CDF8009043462A46394604
:100E40003046FFF7F7FE002579E7BAF1010FC5BF7D
:100E5000073424F0070322681A68CDF80090CCBF4D
:100E600003F1080404344346E9E739463020B0472B
:100E700039467820B0474FF008094FF00108BAF121
:100E8000010FC7BF073424F0070323680593C2BFCF
:100E900003F108041B6805934FF008024FF00003AC
:100EA000D8BF04340393079393460BF1FF3B059B94
:100EB0004FEA8B0023FA00F010F00F0009D1079BD6
:100EC00013B9BBF1000F22D14FF0300E07E0069AA4
:100ED000EBE709288CBF4FF0570E4FF0300E394624
:100EE00070440692B047039B079501330393BBF10F
:100EF000000FECD1B8F1030FA5D1039BC3EB49055B
:100F0000002DA0DD39462020B047013DF8E7531EF3
:100F100091450693EBDBB8F1010F03D13946302040
:100F2000B047E4E7B8F1020FE1D139462020F7E7F6
:100F3000394603932C46B047039B34E739462020BB
:100F4000B047013C3CE72068251D3946B0472C4698
:100F500079E7AA46A8464FF0FF390125EFE64FF0A2
:100F60000108ECE65C460546E9E6000013B502AC74
:100F7000002344F8043D02460B4603482146FFF790
:100F8000C5FE019802B010BD250C00000FB407B5D6
:100F900004A951F8040B0191FFF7E8FF03B05DF8D5
:100FA00004EB04B0704700000CB430B585B008AB5A
:100FB000044653F8042B01900291002501A907482B
:100FC00000930395FFF7A2FE0398029B9842B8BFD7
:100FD000255405B0BDE8304002B07047D50C000084
:100FE0007047000013B5114CBFF35B8F2068BFF34F
:100FF0005B8F60B90E4812F087F8BFF35B8F54E83F
:10100000003F44E80002002AF9D1BFF35B8F436838
:1010100004221B680DEB02019847002802DA00F059
:1010200037FA0190019802B010BD00BF0400002003
:10103000EC4601000A2838B50446074D04D128685B
:1010400043680D215B68984728684368E1B25B6894
:101050009847204638BD00BF080000200148FFF730
:101060004FBE00BF3510000008B5044812F04CF820
:10107000034B1860FFF7F2FF002008BDF6460100A1
:101080000800002010B54FF02003EFF3118283F326
:101090001188114C237823B982F311886FF0440032
:1010A00010BD013BDBB2237023B182F311886FF0D6
:1010B0000F0010BD094B1878012128B1217082F36F
:1010C00011886FF00A0010BD197082F311884FF07B
:1010D00080425160187010BD0E0000200D000020ED
:1010E00008B500221046012100F0E8FB002000F0C6
:1010F000B3FB002008BD0000F8B54FF02002EFF36D
:10110000118382F31188254A1078441C147060B151
:1011100083F311884FF08043D3F80C3413F4803FED
:1011200014BF00206FF04300F8BD1D4D2F782FB184
:10113000107083F311886FF00A00F8BD01262E703D
:1011400083F311884FF0804419B3384600F094FBC4
:10115000C4F80071D4F80433C4F804632660D4F8EA
:10116000002192B10022C4F800210E4A13F0010FB1
:101170004FF0010308BFC4F808330020C2F88031E3
:1011800000F06AFB00232B70C4E720BF40BF20BFE4
:10119000E5E7C4F800112660F4E700BF0E00002068
:1011A0000D00002000E100E0F8B506460C464FF0C7
:1011B0002002EFF3118382F311882C4A157865B170
:1011C00083F311884FF08043D3F8183413F4803F31
:1011D0000CBF6FF043000020F8BD0127177083F3A8
:1011E0001188284600F048FB4FF080430221C3F8E5
:1011F0000451D3F80423C3F80413C3F818459F60BF
:10120000D3F8041171B39207194F58BF02224FF05F
:1012100000014FF00105C3F804114FF0000058BF62
:10122000C3F80823C7F8805100F016FB4FF0804345
:1012300000211822C3F80823C3F80C11C3F81011B9
:1012400014F00301BED11020C3F83805C3F80423FD
:101250003046C3F80453FFF74FFF0028B2D1C7F858
:101260000051AFE720BF40BF20BFC9E70C000020FE
:1012700000E100E0F8B54FF080430546D3F808E1FF
:10128000D3F80423D3F80C44D3F80071D3F8040145
:10129000D3F80C11D3F8106102F00102BEF1000F77
:1012A00003D04FF0000EC3F808E127B14FF08043A0
:1012B0000027C3F800713AB1E30341BF4FF0804308
:1012C0000122C3F808231A6120B14FF080430022A5
:1012D000C3F8042149B14FF080440021C4F80C1137
:1012E0002846FFF7CFFE0123636176B14FF08043BC
:1012F00000210124C3F810112846C3F80443FFF766
:10130000FBFE10B9014BC3F80041F8BD00E100E05D
:10131000084BC3F84005D3F80435C01A20F07F40CD
:10132000054B0238984282BF044B4FF40032C3F899
:101330000021704700100140FDFF7F0000E100E048
:1013400038B5114B114CD3F804052268104D801AA2
:101350002B6820F07F4098420FD3B0FBF3F00D498B
:101360000968884228BF084600FB032323F07F4317
:101370002360094B186012F017FC20682B68184492
:10138000BDE83840FFF7C4BF001001401400002042
:10139000783E002010000020743E0020024B002206
:1013A000C3F84021FFF7CCBF00100140031E0A4ADA
:1013B0000A4804DB116890FBF1F18B4202DD1368EF
:1013C00090FBF3F31068064A064912680B6000FBB5
:1013D0000320FFF79DBF00BF783E0020FFFF7F0086
:1013E000140000201000002008B5074B0022C3F8AD
:1013F0004021064B4FF40032C3F88021FFF7A0FFD5
:10140000034B01221A6008BD0010014000E100E01A
:101410001000002070B5184811F076FE48B34368FC
:10142000164D1B6801219847154B00241C60154B75
:1014300001261E60144BC5F808451B68C5F84035E9
:101440004FF48033C5F84433C5F804330F4BC5F867
:1014500040414FF40032C3F880213146224611202A
:1014600000F02CFA112000F0F7F9AE6020462E6053
:1014700070BD4FF0FF3070BD1847010000100140F3
:101480001400002010000020783E002000E100E061
:101490000A4A30B5D2F80435094DD5E90001D2F831
:1014A0000445A34207D1074A126850431B1A23F090
:1014B0007F43184430BD2346EFE700BF00100140D2
:1014C00088190020783E002007488168006A884219
:1014D00008D000B512F0A2FA5DF804EB03494FF012
:1014E00080520A60704700005019002004ED00E0AF
:1014F000044800232021C2180133272B82F800134F
:10150000F9D1704700E100E0084A09499368096889
:10151000D966084998664B6843F080534B600023B6
:1015200083F311889368D86E704700BF501900206C
:10153000587B010000ED00E0202080F311880D4968
:101540008A682C201044EFF3098C80E8F01F0A4FC2
:101550004FF000660A6A8A603E60906E00239366D0
:1015600080F3118802F12C0090E8F01F8CF30988B9
:10157000704700005019002004ED00E01EF0040F39
:101580000CBFEFF30880EFF30980816931F8021C8A
:1015900011F0FF010229FFD000B500F02BFA00BDC9
:1015A00010B5044612F088FA22680146BDE81040E2
:1015B0000148FFF7EBBC00BF7148010038B5044695
:1015C0001A480D46FFF7E2FC04F11800184CFFF72B
:1015D000E7FFA36AD90602D51648FFF7D7FCA36A2E
:1015E0001A0702D51448FFF7D1FCA36A9B070ED552
:1015F0001248FFF7CBFC616BA36A180607D51048A9
:10160000FFF7C4FC1DB1A36A23F08003A362084C5A
:10161000A26AD20702D50B48FFF7B8FCA36A9B0663
:1016200002D50948FFF7B2FC002038BDBB480100D5
:1016300000ED00E0D2480100E4480100F848010054
:1016400011490100224901004249010010B5044638
:101650001A48FFF79BFC04F11800194CFFF7A0FF94
:10166000A36A9A0102D51748FFF790FCA36ADB0131
:1016700002D51548FFF78AFCA36A180302D5134860
:10168000FFF784FC0E4CA36A590302D51048FFF7FC
:101690007DFCA36A9A0302D50E48FFF777FCA36A84
:1016A000DB0302D50C48FFF771FC054A936A6FEA29
:1016B00003436FEA13439362002010BD7249010097
:1016C00000ED00E08B4901009F490100BA4901008B
:1016D000D9490100FF4901001A4A010038B5044602
:1016E0001D480D46FFF752FC04F118001B4CFFF794
:1016F00057FFA36AD80404D51948BDE83840FFF75E
:1017000045BCA36A190501D51648F6E7A36A9A05F0
:1017100014D51548FFF73AFCA16BA36A1B0407D543
:101720001248FFF733FC1DB1A36A23F40043A36200
:101730000A4B9B6A58050ED50D48DEE7A36A59058A
:10174000FAD4A36ADA0501D50A48D6E7A36A9B044E
:1017500001D50948D1E738BD3847010000ED00E068
:10176000D2480100E44801004F470100114901003F
:1017700069470100854701004249010038B5274CFF
:101780006368C3F30803DA1E0546092A3BD8DFE87D
:1017900002F0053436303A3A3A3A3A382048FFF700
:1017A000F5FBE36A9A0703D51E48FFF7EFFB02E05B
:1017B000E36A5B0001D4002009E01B48FFF7E6FB69
:1017C0001A4B1B7843B101212846FFF7F7FE294643
:1017D000BDE8384000F012B9154B1B7823B1012148
:1017E0002846FFF77BFFE6E7124B1B889BB2002BD6
:1017F000E1D02846FFF72AFFE9E70021E4E70021CE
:10180000EEE70D48D1E70D480D49A3F110020F2B6B
:10181000D8BF01460B48FFF7B9FBCCE700ED00E06D
:10182000CC470100E44701000648010028ED00E034
:1018300029ED00E02AED00E0264801009E47010066
:10184000B34701005D480100024A536943F01003A9
:101850005361704700ED00E043B2002B08DB01222A
:1018600000F01F0002FA00F05B09024A42F8230070
:10187000704700BF00E100E043B2002B0DDB012206
:101880005B0900F01F0002FA00F02033034A42F81F
:101890002300BFF34F8FBFF36F8F704700E100E06D
:1018A0004209054B00F01F0053F82220012303FAE0
:1018B00000F01040704700BF00E100E043B2002B91
:1018C000A8BF03F1604301F101014FEA4111ADBF2F
:1018D00003F5614300F00F00034BC9B2B6BFC9B2B4
:1018E00083F800131954704714ED00E000F042B87B
:1018F00008B572B6044BD86918B10022DA6111F04C
:1019000029FC62B608BD00BF50190020F8B50C468E
:1019100016461F4604220A9B0999054612F060FBF1
:10192000A6F1200121440C4AEC6521F007010023B7
:1019300022F001022B656B652E668A61069A4A6069
:10194000079A8A60089ACA600F604FF08072CA6175
:10195000E964AB66F8BD00BF990800000149102298
:101960000A60704710ED00E0404080F3118830BFFE
:10197000704700BF404080F31188DFF81CC0DCF8DE
:1019800000C01CF4006C0CBFEFF30880EFF309807B
:1019900000B5FFF7F3FE00BD04ED00E0042838B504
:1019A00004460D4613D0052813D0032813D10C4844
:1019B000FFF7ECFA12F080F8AA6901460948FFF730
:1019C000E5FA29462046BDE8384000F017B8064839
:1019D000EEE70648ECE701460548FFF7D7FAE9E7E6
:1019E000464A0100C44A01006C4A0100864A0100CF
:1019F000A14A010001460068FFF7D0BF052810B5D5
:101A00000CD012F01BFA60B112F018FA0C4B0D4911
:101A1000002808BF19460C48FFF7B8FAFFF7A4FFE3
:101A2000FCE712F01BFA0028EED1084C0848A16828
:101A3000FFF7ACFAA068BDE8104000F00BB800BF9B
:101A4000044B0100004B0100154B01005019002010
:101A5000354B010038B505464FF02003EFF31184F4
:101A600083F3118812F052FA0B4B9B689D420DD103
:101A70000A4B5A68C2F3080222B911F0CFFF204680
:101A8000FFF742FD5A6842F080525A602046BDE896
:101A9000384011F07DBE00BF5019002000ED00E07D
:101AA00000B572B60B4AD06900281EBF0021D16173
:101AB00011F050FB62B6EFF30580A0F110004FEA81
:101AC000C0000549014409C998475DF804EBFFF7D8
:101AD000FBBC000050190020DC000000202080F337
:101AE000118806484FF40061401880F309880220ED
:101AF00080F31488BFF36F8F00F006B8282E002003
:101B000030BFFFF7FDBF00BF08B5074B074A23F002
:101B10007F039360BFF34F8FBFF36F8F11F04AFBCA
:101B200011F052FB11F074FB0000000000ED00E02A
:101B300008B5FFF7E5FFBDE80840FFF7C5BC0000AA
:101B4000124930B50D68082D0DD8114A4868002398
:101B500053609D4200F10C0007D105235360BFF391
:101B60004F8FBFF36F8F002030BD50F80C1C50F822
:101B7000044C936021F01F0141F01001194344F01F
:101B80000104D16001331461E3E700BF3C3A002057
:101B900090ED00E00139034611F8012F0AB91A70DF
:101BA000704703F8012BF7E702460346981A13F82B
:101BB000011B0029FAD170470138013910F8013FA3
:101BC00011F8012F934202D1002BF7D11A46981A2F
:101BD000704770B582B1013A0C46034603D11A78BA
:101BE0002078101A70BD1E782578AE4200F10100F1
:101BF00001F10101EFD0F2E7104670BD81EA000368
:101C000013F0030F70B503460BD0013B0A44914219
:101C10001BD170BD002AFCD011F8014B03F8014B19
:101C2000013A9C07F6D11E1F0D46541B0C44032C91
:101C300006D822F003042144234402F00302E4E71F
:101C400055F8044B46F8044FEFE711F8014B03F841
:101C5000014FDCE770B5C9B203469C0711D141EAD8
:101C6000012444EA04441E46951B1D44032D0ED84E
:101C700022F00304234402F003021A44934209D1E0
:101C800070BD002AFCD003F8011B013AE5E746F8D5
:101C9000044BE9E703F8011BF0E7000070B54FF0D3
:101CA0002003EFF3118583F31188144C144E23782D
:101CB00003EBC312013303F003033244237085F3B3
:101CC0001188402928BF40210E4D0138134602EBF0
:101CD0004106B34204D1002302F81130104670BD12
:101CE0004478240902332C5D03F8024C10F8014FAC
:101CF00004F00F042C5D03F8014CEAE774000020A7
:101D000075000020784B010010B50F4A0F4C137876
:101D100003EBC301013386B003F0010313700278B3
:101D2000437904924278039282780292C2780192B7
:101D300004EB4104027900921221054A2046FFF784
:101D400033F9204606B010BD7200002018000020B4
:101D50005A4B010070B51D4A1D49137803EB430629
:101D6000013303F00103137003788AB006EBC60653
:101D700004460E4407AD032B21D8DFE803F0021A16
:101D80001C1E14492846FFF705FF62780492A278CA
:101D90000392E27802922279019262790092A37909
:101DA00005950D4A1B213046FFF7FEF830460AB074
:101DB00070BD0A49E6E70A49E4E70A49E2E70A4A48
:101DC0000A212846FFF7F0F8DFE700BF7300002084
:101DD0003C000020B1450100DA450100B845010092
:101DE000BF450100C9450100D345010030B585B0AC
:101DF0000446154668460322FFF700FF0D22002126
:101E00000DF10300FFF726FF20466A46694605F0FC
:101E10007FFF044620B9032269462846FFF7EEFEFD
:101E2000204605B030BD13B50C4601AA0331FFF7BB
:101E3000DDFF48B9032201A92046FFF7CAFEB0FA28
:101E400080F0400902B010BD0020FBE770B5CD1C4A
:101E500006460C462846032105F03EFF60B963792B
:101E600003F03F0343F040036371224629463046A6
:101E7000BDE87040FFF7BABF70BD0000F0B4027853
:101E8000012A04460B4617D003D3022A2CD0F0BCFB
:101E90007047184A0D4602F11007106851682E4627
:101EA00003C60832BA423546F7D1127832706288DA
:101EB0005A73120A9A73EAE70E4A0D4602F11007A6
:101EC000106851682E4603C60832BA423546F7D12B
:101ED0001278327062685A73C2F30721120CDA73F7
:101EE000120A99731A74D2E7014611221846F0BCFF
:101EF000FFF784BE894B010010B50C4601782278AB
:101F00008A428AB00ED06946FFF7B8FF05A920467D
:101F1000FFF7B4FF10220DF115010DF10100FFF7DD
:101F200058FE0AE0012A0AD004D3022A0AD06FF030
:101F3000150002E040886388C01A0AB010BD4068EE
:101F40006368F9E71022611C0130E8E77047000080
:101F500070B50B4D06460FCD8AB06C460FC40FCD41
:101F60000FC495E80300092E84E803009BBF0AAB69
:101F700003EB8606034856F8280C0AB070BD00BF74
:101F8000684501006C5601000722FFF737BE00B517
:101F9000BFF35B8F50E8003F43EA010240E8002EA8
:101FA000BEF1000FF6D1BFF35B8F18465DF804FB5E
:101FB00000B5BFF35B8F50E8003F03EA010240E841
:101FC000002EBEF1000FF6D1BFF35B8F18465DF80F
:101FD00004FB0000C378002B41F2883200F170014D
:101FE00008BF0022014812F0D1B800BF90190020AC
:101FF0002DE9F041064686B09079264F8846154671
:1020000010F00EFC874213D0AC79204610F008FC8B
:10201000214B059303908DE84800049702941F4BD1
:102020001F4A20492048FEF7B1FF06B0BDE8F08105
:10203000284610F0FBFB1D4C04EBC0004388B34264
:1020400010D0284610F0F2FB134B039304EBC000B2
:102050001449428802928DE84800114A0F4B1448F7
:10206000FEF794FF284610F0E1FB04EBC000436844
:10207000002BDAD0284610F0D9FB04F8308028462F
:1020800010F0D4FB04EBC000406806B0BDE8F0419E
:1020900011F021BD743F002045460100624C010053
:1020A000DC530100E3530100E65301007C020020F1
:1020B0002B5401004B09BFF35B8F50F82300BFF393
:1020C0005B8F01F01F01084100F001007047000024
:1020D0002DE9F047804689461348144D4FF0FF31F3
:1020E00010F032FC044600F10806002130460027BB
:1020F00010F049FC2775204610F098FB05EBC00056
:10210000A0F80280204610F091FB05EBC0000321EF
:102110004760304610F07AFC80F80290A0F800800A
:102120002046BDE8F08700BF743F00207C020020FD
:1021300070B5154686B00C4619B9FFF7C9FF0446BD
:1021400068B301220021684611F0BCFC204610F063
:102150006DFB144E06EBC000C0F804D0204610F012
:1021600051FC2146104810F012FC42F210716846F2
:1021700011F0D9FC204610F059FB16F8300030B1B0
:10218000204610F011FC6FF0040006B070BD0DB1D8
:102190002C60FAE7204610F007FC2846F5E76FF0C0
:1021A0003600F2E77C0200202C3B002038B50221EB
:1021B000054642F20C00FFF78BFF044630B30221C4
:1021C000083010F023FC012D024616D10B211148D6
:1021D000FFF770FF507015702146002242F20C008C
:1021E000FFF7A6FF044630B9012D09D14FF48071E5
:1021F0000848FFF7CCFE204638BD00234370EAE7CD
:102200006FF480710348FFF7D3FEF4E76FF03604F4
:10221000F1E700BFD83A002070B5154D062205F150
:1022200008010646FFF7D5FC0446D8B1062142F264
:102230000500FFF74DFF0446B0B1062231460830D5
:1022400010F0EAFB2146002242F20500FFF770FF82
:10225000044638B90622314605F10800FFF7CEFCE6
:102260000123EB71204670BD6FF03604FAE700BF22
:10227000683A002038B50121054642F20A00FFF70E
:1022800027FF0446D8B108308DB1012110F0CDFBF5
:102290002146002242F20A00FFF74AFF044620B915
:1022A0003DB140210748FFF772FE204638BD294660
:1022B000ECE76FF040010348FFF77AFEF5E76FF0B7
:1022C0003604F2E7D83A0020028843889A4210B5D3
:1022D00018D8052A16D9B3F5486F13D88488B4F5F1
:1022E000FA7F0FD2C188A1F10A0292B240F676407D
:1022F000824207D804FB0333B3EB810FB4BF012044
:10230000002010BD002010BD012310B50621044699
:1023100000F8013B05F0E0FC18B9A37963F03F0336
:10232000A37110BD37B5114C2378012B04D1A379CB
:1023300003F0C003C02B0DD00D4B019300930D4A49
:102340000D4B0E490E48FEF721FE6FF0150528468D
:1023500003B030BD601CFFF75FFF05460028F6D1D3
:10236000042104F17000FFF712FEF0E7683A002044
:102370004546010094530100B94C0100E3530100AC
:102380009B5301002DE9F0431D4DDFF890801D4F58
:102390001D4E1E4C87B02846FFF7DCFC43463A46EC
:1023A00031460190029400941948FEF7EFFD95F82C
:1023B0000E904846FFF7CCFDAB8A04932B8A03931B
:1023C0003A4643463146CDF8089001900594009472
:1023D0001048FEF7DBFD95F80F904846FFF7B8FD73
:1023E0006B8A039301900494CDF8089000944346BF
:1023F0003A4631460848FEF7C9FD07B0BDE8F0830C
:10240000683A00201F4D0100E353010045460100DA
:10241000264D0100434D0100914D0100DA4C0100B1
:10242000024BD3F8D4301B69184700BF683A00202C
:1024300030B5044685B00D4619B9FFF749FE05468B
:10244000F0B140F635439C4214D12846FFF7E8FF2F
:10245000044660B10C4B02938DE818000B4A0C4BFC
:102460000C490D48FEF792FD284610F09DFA2046D3
:1024700005B030BD2946094810F089FA0024F6E776
:102480006FF03604F3E700BF4546010094530100A6
:102490009A4B0100E35301001D4E01002C3B00202C
:1024A00073B50D4614460646072200216846FFF71D
:1024B000D1FBADF801501B4DADF8034000238DF862
:1024C000063007212B788DF8006042F20B008DF862
:1024D0000530FFF7FDFD044600B3072269460830CA
:1024E00010F09AFA214642F20B00FFF7A1FF0120FB
:1024F000FFF75CFE044638B9012E08D14FF4806125
:1025000005F17000FFF743FD204602B070BD6FF487
:10251000806105F17000FFF74BFDF5E76FF03604C1
:10252000F2E700BF683A002038B509210546164891
:10253000FFF7C0FD024608B1002038BD082112484F
:10254000FFF7B8FDD0B90121002001F099FE044643
:102550000028F1D04FF400610B48FFF718FD20462A
:1025600001F0B0FE002D15BF3022122260214FF481
:1025700000610020BDE83840FFF792BF1046FFF72A
:1025800015FE0028DFD038BDD83A00202DE9F041F3
:102590004D4DD5F8D430996811F001018EB024D199
:1025A0000CAA40F60340FFF7C3FD0446002840F0A4
:1025B00087800C9B9B681B78A3B9444A13602B4609
:1025C000BFF35B8F53F8702FBFF35B8F02F00D02E8
:1025D000BFF35B8F53E8001F43E800200028F9D1C8
:1025E000BFF35B8F0C9810F0DFF90CAA002141F2C9
:1025F0000300FFF79DFD0446002861D10C9B344881
:10260000996808220131FFF7F9FA0C9810F0CCF91B
:1026100021460CAA41F20100FFF78AFD044600287A
:102620004ED10C9883685A78AA73D9789A7842EA7E
:1026300001222A821A79EA73197ADA7942EA0122A6
:102640006A825A799B7942EA0323AB8210F0ACF993
:1026500003212048FFF72EFD014688B90CAA41F25C
:102660000900FFF765FD044650BB0C9B1A489968AA
:1026700006220131FFF7C2FA0C982C7010F094F981
:102680000CAA002141F20200FFF752FD0446B8B93E
:102690000C9B1248996840220131FFF7AFFA0C9861
:1026A00010F082F9AB7E5A0624D40D4B01930093AF
:1026B0000C4A0D4B0D490E48FEF768FC6FF01204F2
:1026C00020460EB0BDE8F081683A0020D802002014
:1026D0007E3A0020D83A0020693A0020863A00204D
:1026E0004546010094530100B14C0100E353010041
:1026F0004F4E010021460CAA42F20300FFF718FDDD
:1027000004460028DCD10C9B9B48996808220131C3
:10271000FFF774FA0C9810F047F921460CAA42F220
:102720000200FFF705FD04460028C9D10C9B9B68F9
:10273000B3F80120A5F888203AB1DA788F48022A48
:1027400028BF0222114611F0BDF90C9810F02CF9A7
:10275000AC7E14F0200400F0C78095F83A301B07D7
:1027600013D50CAA002142F21C00FFF7E1FC04463D
:102770000028A5D10C98836853F8012F5B68C5F831
:102780008430C5F8802010F00FF995F878309F0656
:1027900000F1C680082142F20100FFF799FC0446CF
:1027A000002800F0A8800821084410F02FF995F8BF
:1027B00078108E074CBF2F220F22890695F87910CA
:1027C00048BF42F0400211F0090F95F8401001F0A7
:1027D000060118BF42F40062062908BF42F4C07225
:1027E0000270C2F30722427000228270C27002712E
:1027F00042718271C271214642F20100FFF798FCDA
:10280000044600287FF45CAFAB7E9A0621D4B5F86D
:102810008810F1B90CAA41F20500FFF789FC0446C3
:1028200000287FF44DAFB5F888307BB90C9B534836
:102830009B6899785A7842EA0122A5F888209A88FC
:10284000022A28BF0222114611F03CF90C9810F020
:10285000ABF8082140F60140FFF73AFC0446002897
:1028600049D00821084410F0D1F8102303708823C0
:10287000437002230022C3702023827002714271D0
:102880008271C371214640F60140FFF751FC0446B6
:1028900000287FF415AF01460CAA4FF60140FFF760
:1028A00047FC374E00287BD0364B374A37493848EB
:1028B00001960096FEF76AFB002307220CA9354813
:1028C0000C93CDF83330FFF784F9002840F0E28014
:1028D00095F86030DB0700F1FE80019600962E4BE4
:1028E000294A2A492D4803E1022140F66D40FFF7AD
:1028F000EFFB064610B96FF03604E1E6022108301E
:1029000010F084F80123447003702246314640F6EB
:102910006D40FFF70DFC044600283FF41EAFCFE6E4
:102920000CAA002142F22F00FFF702FC0446002807
:102930007FF4C6AE0C988368B3F80180B3F80370D7
:1029400010F032F8042142F22400FFF7C1FB0646E2
:102950000028D0D00421083010F058F82246A0F802
:1029600000804780314642F22400FFF7E1FB044635
:1029700000283FF40FAFA3E6E03A0020F43A00202D
:1029800045460100EB4C0100DC530100E35301001C
:10299000834E0100683A0020CC4C01002050010019
:1029A0000C9B72499C687248B4F801300293032B67
:1029B00096BF704A704A52F8232001926F4B704ABA
:1029C00003960096FEF7E2FAB4F80130B4F803205B
:1029D000022B3AD1022A38D86A4B53F8223002929D
:1029E0000193674A654B6149039600966648FEF776
:1029F000CDFA63790696D4F809100591032BB4F843
:102A0000071098BF614A0491A17994BF52F823201E
:102A1000594A039102935549584B01920096584ADE
:102A20005B48FEF7B3FA0C980FF0BEFF0CAA00212A
:102A30004FF60240FFF77CFB044640B1019600963A
:102A40004E4B544A4949544834E74B4BC7E70C9B1B
:102A50005248996802220131FFF7D0F80C980FF024
:102A6000A3FF0CAA21464FF60340FFF761FB30B1EC
:102A700001960096414B474A3C4949481AE70C9B4E
:102A80004848996801221144FFF7B8F80C980FF0F4
:102A90008BFF11E7444B18689A880A909B79ADF830
:102AA0002C200AA9072241488DF82E30FFF791F813
:102AB00000283FF40DAFFFF765FC01F047FE044628
:102AC00000287FF4FDAD02213948FFF760FA204667
:102AD000FFF72AFDF4E509AA00214FF60940FFF7A8
:102AE00027FB40B1334B2B4A2049334801960096CF
:102AF000FEF74CFA26E0099B99684B78BBB101239D
:102B0000062202312D482B70FFF778F809980FF054
:102B10004BFFFFF707FC04460028CCD00196009637
:102B2000274B284A11492848FEF730FAC8E5019694
:102B30000096204B174A0D492448FEF727FA0998BA
:102B40000FF032FF1948FFF7DFFB04460028E5D1FC
:102B50001A48FFF7D9F8029601900096154B0D4AD6
:102B600002491B48FEF712FAD3E700BFE353010006
:102B7000B74E01007C5501006C560100EB4C010082
:102B80001F4D010070550100E04E01005C56010030
:102B9000084F0100DC530100454F0100C73A0020F7
:102BA0007E4F0100C63A002090450100683A00209F
:102BB000D83A0020CC4C0100B74F0100693A002000
:102BC000F74C01009453010095500100E74F0100BC
:102BD0005C50010010B5FFF7D9FC034B1B6813B123
:102BE000BDE81040184710BDD402002038B50721B9
:102BF000044642F23200FFF76BFA054698B107210E
:102C000008300FF003FF2388038000240223847020
:102C1000C370037144718471294642F23200FFF798
:102C200007FC204638BD6FF0360038BDF7B50746C3
:102C300001AA002142F22F00FFF77AFAD8B90198D1
:102C40008368B3F80160B3F803500FF0ADFE0621BE
:102C500042F22200FFF73CFA044670B10621083028
:102C60000FF0D4FE3B88038046808580214642F2E7
:102C70002200FFF7DDFB03B0F0BD6FF03600FAE78E
:102C8000F0B5037889B005467BB10221002001F040
:102C9000F7FA044638B12B780372002101F0C8F925
:102CA000204601F00FFB09B0F0BD041DB0F8016033
:102CB000214606A8FFF768F99DF81830023BDBB201
:102CC000012BB7B229D8062205F111010DF111002F
:102CD0008DF81830FEF792FF01238DF81030022195
:102CE00006A801F0CDFAEB78012B044609D16FF06C
:102CF00040014A48FFF75CF9A4B906A801F064F95D
:102D000004467CB9464B02938DE88800454A464B01
:102D100046494748FEF73AF9C5E7214604A8FFF7B8
:102D200033F9DCE7204606A920F8446BFFF72CF9BD
:102D30002A7EEB7D43EA0223A4F85A30AA7E6B7EFA
:102D400043EA0223A4F86030EB7E2A7F43EA0223A1
:102D5000A4F86230EE78E670012E1AD1354F04A93E
:102D600004F14B00FFF710F9394604F15200FFF768
:102D70000BF9072107F17000FFF79CF948B1D7E97B
:102D80002023002203F04003134302D03046FFF714
:102D900071FA0321204601F04BF9637A032B18D115
:102DA000EB7823B1234B93F87830190718D502211B
:102DB00042F21600FFF78CF9054688B1022108306F
:102DC0000FF024FE23880380294642F21600FFF705
:102DD0002FFB204601F076FA0020FFF7A5FB62E703
:102DE000144D95F87920D20708D52046FFF7FEFE4E
:102DF00020B98021201DFFF7CAF8EAE795F878305E
:102E00009B0606D52046FFF711FF10B94FF48071DD
:102E1000F0E72046FFF7DEF8DBE700BFD83A0020F6
:102E20004546010094530100E14B0100E3530100CA
:102E300019550100683A002070B506460D4642F269
:102E400021000321FFF744F9044660B10321083053
:102E50000FF0DCFD85700680214642F22100BDE8BE
:102E60007040FFF7E5BA6FF0360070BD2DE9F04F06
:102E7000DFF848A14F4D85B09AF80D304E486FF3FA
:102E800007138AF80D3001F057F800F101094FF0EF
:102E9000FF324946494811F05FFA48B9484C474E5D
:102EA00004F1C40BB9F1000F11D110F0D5FDE3E727
:102EB000404B01930093434A434B44494448FEF737
:102EC00065F8404080F311884FF0040002DF737B07
:102ED0001B09012B52D9042B62D1377B002F51D112
:102EE000394658460FF036FD804638B9314B0193CC
:102EF0000093344A374B35493748E0E74FF0FF310C
:102F0000364810F010FED4F8C0306BB1314B2D4A6A
:102F10002E49019500953248FEF738F8D4F8C000E4
:102F20000FF042FDC4F8C07040460FF06BFDC4F8CE
:102F3000C0004046FFF774FA00B3264B214A2349EC
:102F40000190029500952748FEF720F8234810F0DD
:102F5000C2FD40460FF06AFC234B03EBC000002289
:102F60001F214088FFF744F8D4F8C0000FF01CFD83
:102F700000234046C4F8C0300FF016FD143609F1A6
:102F8000FF398FE7012F04D13069183800F0FEFEB9
:102F9000F4E7022FF2D13069283801F05BFBEDE74E
:102FA000019302950095114B114A08491148FDF70C
:102FB000EDFFE3E745460100543B0020403B002085
:102FC000683A002094530100A34C0100E353010030
:102FD0006E5401008B4C010098540100103B0020FE
:102FE000BD5401001D4E01007C020020944C0100E4
:102FF000DC530100E85401002DE9F04F037D012B63
:1030000095B0044640D0032B40F0388383681E8877
:103010005D88C6F30B03C382FF2343750421083088
:103020000FF022FDA28995420ED0A04B039301928E
:10303000009302959E4B9F4A9F49A048FDF7A6FF2B
:1030400020460FF0B1FC1BE0E08A01F0CDF8054608
:1030500058B9964BE28A029301920093954A944B99
:1030600095499748FDF792FFEAE701F063FB320BC1
:1030700060752146284600F0C9FD284601F022F976
:10308000002015B0BDE8F08F86683278132A00F270
:103090000583934013F40C2F00F00083834B0193BE
:1030A0000093844A874B84498748FDF76FFF40406F
:1030B00080F311884FF0040002DFA7683E78002EED
:1030C000BED1B7F80180404601F08EF80546C8B978
:1030D000764B02938DE80801764A7C4B76497C4812
:1030E000FDF754FF07217B48FEF7E4FF0028A7D037
:1030F00006217848FEF7DEFF0028A1D10120FFF766
:10310000B9F89DE7FB7803727349744810F094FE98
:103110003146284600F08CFF2E80AE780EB128464E
:1031200086E03146281DFEF7C5FF30B12846012153
:1031300000F07EFF3046FFF7F7F9284601F0C2F8AD
:10314000D0E7A668012128460FF08EFC3678731E62
:103150000B2B00F28182DFE813F00C009901430091
:103160006E007F02CB0028016A018A0141007F02C4
:103170004101A1680B788DF83030B1F80130ADF81D
:103180003130CB788DF83330B1F80B30ADF84730B3
:10319000B1F80D30ADF84930B1F80F30ADF84B3023
:1031A0004B7C8DF84D3004310DA8FEF7EDFE002567
:1031B000062208A90DF13B000895ADF82450FEF752
:1031C0001DFD06220AA90DF141000A95ADF82C500B
:1031D000FEF714FD0CA8FFF753FD31E7A068FAE7EE
:1031E000A568B5F80170384600F0FEFF064640B904
:1031F0002E4B02938DE88800394B2E4A2E493948D0
:1032000030E72B789BB92A79EB7843EA0223A0F8C0
:103210005A30AA796B7943EA0223A0F86030EB793F
:103220002A7A43EA0223A0F8623000F0B3FC304669
:1032300001F048F804E7A668B6F80170384600F0D7
:10324000D3FF054628B9194B02938DE88800264B19
:10325000D3E7337823B90822F11C6430FEF7CEFCA3
:10326000224E96F87920D2070CD595F86530DB0709
:1032700008D52846FFF7BAFC20B98021281DFEF7A3
:1032800086FE4CE796F878309F0640F1A38095F8CB
:1032900064309E0640F19E802846FFF7C7FC002858
:1032A00040F098804FF48071E8E700BF4546010088
:1032B000AA4B010094530100E3530100C4500100E4
:1032C000F8500100814C010023520100CC4B010059
:1032D0002A510100D83A0020605101004D1F000022
:1032E0004A4C010064510100F64B0100683A00208D
:1032F000A368D9789A781F8842EA0122ADF8302075
:1033000059791A7942EA0122ADF832209A79D979AD
:1033100042EA0122ADF834201A7A5B7ABDB242EA61
:1033200003232846ADF8363000F05EFF804670B9C2
:10333000BB4B02938DE82800BA4ABB4BBB49BC4843
:10334000FDF724FE02212846FFF776FD78E60CA95A
:1033500000F034FC28B91E212846FFF76DFD4046D9
:1033600066E70E2142F22000FEF7B2FE0646002874
:10337000F5D00E2108300FF049FB0E220546002142
:10338000FEF768FCBDF830306B80BDF83230AB80A2
:10339000BDF83430EB80BDF836302F802B813146BC
:1033A00042F22000FFF744F8D9E7A3681E883046B0
:1033B00000F01AFF054628B9994B02938DE84800A2
:1033C0009C4B1AE76FF480710430FEF7F1FDC005E5
:1033D0007FF5A5AE2846FEF7FDFDA0E6A368B3F88D
:1033E0000160304600F000FF054628B98C4B02937F
:1033F0008DE84800904B00E7061D6FF080013046D5
:10340000FEF7D6FD01067FF58AAE8C4B93F8783037
:103410009A06DFD595F864309B06DBD52846FFF782
:1034200005FC0028D6D14FF48071304627E7A66806
:1034300083486FF02001FEF7BBFD337843B9711C60
:1034400040228048FEF7DAFB10217D48FEF79FFD01
:103450007D4B1D68771C002D3FF4F2AD32782B6850
:10346000002A0CBF3846002098476D68F3E7774D77
:10347000A0682A68002A3FF4E3AD037823B901303D
:10348000904700232B60DBE50020F9E728460FF08A
:10349000F3FADFF8AC910690069B002B3FF4D0AD19
:1034A000A668092128460FF0DFFA337AB046334484
:1034B0000CA893F809B018F8013F023B012B4146D4
:1034C00000F29980FEF760FD9DF83030023B8DF8E8
:1034D00030305F4B1B68BBB128460FF0DDFAA38983
:1034E0000793337AA3815A4B32781B6882461F4672
:1034F0004FFA8BF12B460CA8B847236913FA8AF3CD
:10350000A360BDF81C30A381092148463278FEF73C
:10351000D1FD8246002864D1012A62D801210CA87D
:1035200000F0AEFE074600285BD008214846FEF7B3
:10353000C1FD002862D102214846FEF7BBFD10B153
:103540004448FEF769FE3D4907F14B0007F1520A76
:10355000FEF71AFD41465046FEF716FD192142F2CC
:103560000D00FEF7B5FD834600284CD01921083028
:103570000FF04CFA192280460021FEF76BFB002267
:10358000602388F8003088F8012088F8023088F835
:103590000320514608F105000792FEF7F5FC97F865
:1035A0004B3088F80C30B7F85C30A8F80D30B7F81D
:1035B0005E30A8F80F30B7F86030A8F81130B7F8CF
:1035C0006230A8F81330079A594642F20D00FEF710
:1035D000AFFDC0B93846022100F02AFD384600F0A0
:1035E00071FE317A284601310FF03EFA069B013B0D
:1035F000DBB2069350E7FEF7C7FC6AE75046FEF7DA
:10360000D5FD002897D01F233B720021384600F0DB
:103610000FFD384600F056FE0020FEF785FFE0E77C
:103620004546010094530100384C0100E35301006A
:10363000645101000E4C0100214C0100683A002049
:10364000D83A002090020020D00200208C020020F6
:10365000D8020020693A0020A589A0682946FEF713
:103660001DFB1D4B049303908DE848001B4A1C4B27
:103670001C491D480295FDF789FCE1E4164A0292B7
:103680008DE80C001749194B194A1A48FDF77EFCC2
:1036900020460FF089F96FF01500F2E404F10805F7
:1036A000022128460FF0E0F93678052E3FF405ADEB
:1036B0003E2E3FF446ADA589A0682946FEF7EEFAF6
:1036C000054B049303908DE8480002950A4B034A8A
:1036D00004490A48CFE700BF45460100DC5301001A
:1036E0006F4C0100E353010098510100004D0100AF
:1036F00094530100FF510100814C0100CD510100A4
:103700002DE9F04F037D8668012B87B004460ED06B
:10371000654B01930093654A654B66496648FDF722
:1037200035FC404080F311884FF0040002DF8289AD
:10373000012A07D85C4B019300935C4A5C4B5D49BE
:103740005E48ECE73278132A00F2A580934013F428
:103750000C2F00F0A08000F10805022128460FF090
:1037600083F933780F2B1DD0132B2BD00E2B40F069
:103770008780A36803212846B3F801701E780FF0F4
:1037800073F9A368224619783846FEF731FC16B162
:103790004B4810F0A0F920460FF006F9002007B0C2
:1037A000BDE8F08FA668B6F8028077780421284635
:1037B0000FF05AF9224631784046FEF719FC002FE7
:1037C000E9D0E5E7A368384FDFF80891DFF8DCA01F
:1037D00004930026049B1B789E42DCDA049B03EBD7
:1037E0008603B3F80120B3F803804FF02001EFF314
:1037F000118B81F311881046059200F0F5FC059AB3
:10380000054660B90192029700974B4652462949F6
:103810002C48FDF7BBFB8BF311880136DAE78BF3FD
:10382000118800F1180BB8F1000F1CD04FF02002E6
:10383000EFF3118E82F31188296929B16A6908684A
:103840002861914208BF68618EF3118808F1FF3347
:103850001FFA83F859B9019700974B46524615490C
:103860001948FDF793FB284600F02CFDD5E7584694
:103870000FF06CFE284600F089F910F02CF9D2E721
:1038800020460FF091F8084B01930093074A084B2C
:1038900008490E4843E7044B01930093034A044B45
:1038A00004490B483BE700BF454601009453010023
:1038B000084D0100E353010062520100A6520100CD
:1038C000103B0020E05201000C5301003353010073
:1038D00056530100B24B0100084AD2F8D4303BB92C
:1038E000C16841B1016931B1C2F8D40018467047CE
:1038F0006FF0440070476FF015007047683A002081
:1039000070B52A4DD5F8D43086B006466BB9284B31
:1039100001930093274A284B28492948FDF736FB95
:103920006FF01204204606B070BD012105F1700051
:10393000FEF72DFB10F0010034D1224B22491E600E
:103940006FF008030590049003930290019000909B
:103950001E4B1F484FF46B7210F0BAFAD5F8D430F2
:10396000DB689847044650B1114B02938DE818006C
:10397000104A114B11491748FDF708FBD2E726B949
:1039800006B0BDE87040FEF701BE012105F16C00F4
:10399000FEF7FDFAC307C5D405F164010E480FF028
:1039A000D5FDBFE76FF04404BCE700BF683A0020D4
:1039B0004546010094530100154D0100E3530100F9
:1039C000C84D0100D4020020101A00206D2E000006
:1039D000DC020020F14D010090190020002070470A
:1039E00070B50378012B05460E4610D84378012B9D
:1039F0000DD841880B1F9BB243F6FC70834206D85A
:103A0000AA88131F9BB2834201D891422BD26FF038
:103A100015040EE008211948FEF74CFB58B110467A
:103A2000FEF7C4FB044630B16FF400711348FEF793
:103A3000BFFA204670BD6B787BB14FF400610F4830
:103A4000FEF7A5FAAA8869882878FEF729FD0446BA
:103A50000028E9D10A4B1E60EBE76FF400610748CC
:103A6000FEF7A6FAEEE74FF400710448FEF78FFA6E
:103A700010F40072CED06FF04404DAE7D83A002098
:103A8000D802002008B56FF400710748FEF790FADD
:103A9000830506D5054B00201860BDE80840FEF7F9
:103AA00043BD6FF0440008BDD83A0020D802002082
:103AB00038B5054605480EF047FF044620B1002101
:103AC00008300EF060FF2575204638BD943F002079
:103AD00010B501464FF02003EFF3118083F31188F6
:103AE0000B4A0023D2F8C040C2F8C03080F31188DE
:103AF00024B90120BDE81040FFF7DABF012204F12C
:103B000008002275A38119460EF03DFF204610BD26
:103B1000683A002038B5064B1C68054604B938BD24
:103B2000236813B1297A284698472469F6E700BF2D
:103B30004C030020BFF35B8F0068BFF35B8F7047BF
:103B4000438910B504462BB1C0680EF02DFF002349
:103B5000E360638110BDBFF35B8F50E8003F5A1EE6
:103B600040E800210029F8D1BFF35B8F1846704769
:103B7000BFF35B8F50E8003F5A1C40E8002100294A
:103B8000F8D1BFF35B8F18467047000000487047BC
:103B9000F43A0020084B70B51C68054604B970BDA6
:103BA000E6683EB1B5F86230B5F86020B5F85A1055
:103BB0002846B0472469F1E74C030020F8B50746D2
:103BC00008460E46FEF780FB054610B9002528463C
:103BD000F8BD094B1C68002CF9D0A3680BB9246907
:103BE000F9E73146384698470028EFD03046FEF7CF
:103BF0006BFB0028F3D1E9E74C030020024B1A6865
:103C000002611860704700BF4C030020012A7FB595
:103C100004460D461BD0022A6BD18B681E8843894F
:103C20005BB13D4B019300933C4A3D4B3D493E48BF
:103C3000FDF7ACF92046FFF783FFAB89F31A043395
:103C40009BB26381002B42D0E56004B070BD438914
:103C50008BB9314B01930093304A314B3149334892
:103C6000FDF794F92046FFF76BFF284604B0BDE846
:103C700070400EF099BE8E89B34207D2264B019355
:103C80000093264A264B27492948E9E7C0680830AF
:103C90000EF006FF864207D91F4B019300931F4A7F
:103CA0001F4B20492348DBE7E068AA89A968083050
:103CB0000EF0B2FE6389AA899B1A638128460EF032
:103CC00073FE6389002BC0D1E5686381E360AB6854
:103CD000A9891A88131D8B4216D00F4B03930291AA
:103CE000019200930D4A0E4B0E491348FDF74EF911
:103CF000BBE7094B029301920093084A084B09491C
:103D00000E48FDF743F9ADE72946204604B0BDE86B
:103D1000704000F053BF00BF4546010094530100BE
:103D200074560100E3530100C0560100ED56010036
:103D30001B5701003F570100A457010076570100AF
:103D4000437A032B13B50C460FD00B4B0193009312
:103D50000A4A0B4B0B490C48FDF718F920460EF0A8
:103D600023FE6FF0380002B010BD28304A610EF01B
:103D70000EFE0020F7E700BF454601009453010006
:103D800081560100E3530100D05701002DE9F041B5
:103D90000D4D064600F118074FF000080021384687
:103DA0000FF0F8FB044608B9BDE8F08163680BB179
:103DB000304698472B6823606B68C4F804802C60F9
:103DC000002BEBD16C60E7E7F80300202DE9FF4101
:103DD00005460F4644484FF0FF31984614460FF011
:103DE000A2FE424B03F14000FFF7A4FE30B15A7A25
:103DF000033A012A02D81846FFF7C8FF6B7A032B53
:103E000053D1042107F108000EF026FE2A88384E0F
:103E100042EA04320280BB89346871687A69043BE3
:103E2000438002233B75236833608C4208BF736074
:103E300062604FF02003EFF3118283F311880023B7
:103E400023606B69002B3FD16C612C6182F3118878
:103E50003846FEF7E5FA002842D0264B029301903F
:103E60000093254A254B26492648FDF78FF84FF049
:103E70002003EFF3118183F311882B69002253B1E2
:103E80009C422AD1236812BB6A692B61944200D1FB
:103E90006B610023236081F3118800236360336822
:103EA00023607368346003B974600F480FF013FE29
:103EB000B8F1000F04D038460EF076FD4FF0000840
:103EC000404604B0BDE8F0811C606C61BEE7136041
:103ED0006B699C4208BF6A61DBE71A461B68CEE744
:103EE0004FF00108ECE700BFF43A00206003002027
:103EF000F80300204546010094530100915601004B
:103F0000E35301001D4E010038B5044600F12805B9
:103F1000002128460EF01EFD58B92046FFF736FF57
:103F20002046FFF70DFE04F14000BDE83840FFF7E2
:103F300012BE0EF039FDEBE738B51F4B0022012110
:103F40009A60054610F0F5F91C4B03F14000FFF7AD
:103F5000F1FD194608B9012038BD5A7A9AB9BFF364
:103F60005B8F1A1D52E8000F20F0400442E8004E1B
:103F7000BEF1000FF6D1BFF35B8F420603D51846A2
:103F8000FFF7C2FFE7E74C7A032CE4D105F11400F8
:103F90000B4B0022042110F0CCF9012385F82030CE
:103FA00005F12800074B0022042110F0C2F902237A
:103FB00085F83430204638BD903B00206003002057
:103FC0007803002088030020F8B5174C04F1400660
:103FD00007463046FFF7AEFD054608B10020F8BDA4
:103FE000014698222046FDF735FEBFF35B8F012383
:103FF00056E8002F46E800310029F9D1BFF35B8F66
:104000000722394604F14400FDF7F8FD1823A4F80F
:104010005C30282304F17000A570A4F85E300349D9
:1040200010F040F82046F8BD600300207D450000F8
:10403000F0B5457A8D4285B004460E460AD15F4BF5
:10404000019300935E4A5F4B5F496048FCF79EFF17
:1040500005B0F0BD61729DB1022D15D0637A042BBD
:1040600000F2A18001A252F823F000BFCD40000071
:10407000514000008B41000097400000514000007B
:104080004030FFF775FDE9E78378002BE6D170300B
:1040900010F018F8E2E7A378022BD9D004F1280039
:1040A0000FF04CFA04F118000FF048FA00214848CC
:1040B00010F0E2F900232046A363E36300F01CFC48
:1040C000204605B0BDE8F040FFF724BDA378022BE1
:1040D00006D104F1400005B0BDE8F040FFF73BBD5C
:1040E000EB1E012B44D8204600F040FC394B1D68E4
:1040F000EDB9394E394F4FF02003EFF3118183F3BF
:10410000118823692BB160691A682261834208BF54
:10411000626181F311888BB132681A6072685D60E8
:10412000336002B9736038460FF0D5FCE3E76B6883
:1041300013B1217A204698472D69D9E7A3781BB996
:1041400004F170000FF0BEFFBFF35B8F043454E83E
:10415000003F43F0400344E80032002AF7D1BFF3A8
:104160005B8F1B48002105B0BDE8F04010F084B91A
:10417000022D03D12046FFF7CDFCAAE7012D7FF4E5
:1041800067AF237A002BA4D0F4E7A378002B7FF449
:104190005FAF134840F6B83204F1700105B0BDE8D6
:1041A000F0400FF0F3BF054B02938DE84800044A3E
:1041B000044B05490B48FCF7E9FE49E74546010079
:1041C000DC530100AE560100E3530100EF5701003C
:1041D000903B00204C030020F8030020F43A00201C
:1041E000901900200D58010010B50B4C024604F147
:1041F0004000FFF79FFC68B1637A033B012B08D8AE
:104200002388934205D104F14000FFF7B1FC20461A
:1042100010BD002010BD00BF6003002038B50D4662
:10422000044600F1440107222846FDF7D2FC60B1A4
:10423000E378072233B904F152012846BDE838403B
:10424000FDF7C7BC04F14B01F7E738BD10B50B4CC7
:10425000014604F14000FFF76DFC08B9002010BDD5
:10426000A378002BFAD12046FFF7D8FF0028F5D11C
:1042700004F14000FFF77CFC204610BD60030020E5
:1042800038B50E4C034604F140000D46FFF752FCD2
:1042900008B9002038BDA278002AFAD13BB9637A68
:1042A000AB42F6D10648FFF763FC044838BD194617
:1042B0002046FFF7B3FF0028EBD1F0E760030020B2
:1042C000A00300204030FFF746BC44307047000098
:1042D00070B5064608460D46FDF7F6FF08B90024FE
:1042E0001DE01E48FFF726FC8305F8D43046FFF793
:1042F000ADFF0446A8B1437A012B07D001D3032BAD
:104300000DD904F14000FFF726FCE8E76B88A0F820
:104310005E30AB88A0F86030EB88A0F862302046B1
:1043200070BD3046FFF750FE04460028F7D0072244
:1043300031465230FDF762FC6B88A4F85E30AB88E2
:10434000A4F86030EB88A4F8623020460121FFF722
:104350006FFE0120FEF7E8F8E1E700BFD83A002041
:1043600070B506460D4600293DD13046FFF76EFF79
:10437000044628B93046FFF727FE0446002853D0EC
:10438000231D04F14006002D35D06A88A4F85E2074
:10439000AA88A4F86020EA88A4F86220BFF35B8FA3
:1043A00053E8002F42F0010143E800100028F7D144
:1043B000BFF35B8FD10702D43046FFF7D9FB637A96
:1043C00063B91B48FFF7B6FB830707D51DB1012171
:1043D0002046FFF72DFE0020FEF7A6F83046FFF737
:1043E000BAFB002070BD0846FDF76EFF0028BCD167
:1043F0006FF0150070BDBFF35B8F53E8002F22F004
:10440000010143E800100028F7D1BFF35B8FD2070A
:10441000D5D53046FFF79FFB637A012BCFD12946D4
:104420002046FFF705FECAE76FF00B0070BD00BF26
:10443000D83A002070B50E468178044611B9443050
:10444000FFF78EFF637A013B032B03D8DFE803F00D
:1044500006101B0E6FF03805284670BD20462672E8
:104460000021FFF7E5FD0020FEF75EF80025F3E7E9
:1044700004F170000FF026FE002142F20E00BDE8AC
:104480007040FDF7D5BF032140F20640FDF720FE46
:10449000054698B1032108300EF0B8FA238803804E
:1044A0008670294640F20640FDF7C2FF0546002807
:1044B000D2D104212046FFF7BBFDCDE76FF03605D2
:1044C000CAE7F8B507460D4642F213000E21FDF784
:1044D000FFFD0646C8B10E2108300EF097FA002104
:1044E00004460E22FDF7B6FB3B8823802B886380B1
:1044F0006B88A380AB88E380EB882381314642F24E
:104500001300BDE8F840FDF793BF6FF03600F8BD2B
:1045100038B50A88B0F85A309A4204460D460CD88D
:104520004A889A4209D3B0F860208B889A4204D115
:10453000B0F86220CB889A421AD004F170000FF0D4
:10454000C1FD0D4B93F878309A0703D594F8643089
:104550009B0701D4E3782BB929462046BDE83840B3
:10456000FFF7AFBF29462046BDE8384000F066BBE4
:104570006FF0440038BD00BF683A0020034607B51D
:1045800013F8672C022AA0F1700005D11321FFF760
:1045900051FF03B05DF804FB33F8142CADF8002094
:1045A00033F8122CADF80220694633F8102C33F89A
:1045B0000E3CADF80420ADF80630FFF7A9FFE8E7A0
:1045C00038B5084B0D46002808BF18464FF0FF319C
:1045D0000EF0BAF9291D044608300EF0D4F9204631
:1045E00038BD00BF343F00202DE9F04106460C469F
:1045F00016480021FFF7E4FF3378032B05464FF000
:10460000000605D00EF0D0F935462846BDE8F08109
:10461000466100F108070E4E3846B6F888800EF065
:104620003FFA80450CD2B6F8886054F8081F32462D
:1046300038460EF0F1F9314620460EF015FAE4E75F
:1046400038460EF02DFA86B2EFE700BF543F002047
:10465000683A0020437AF7B505469BB9BFF35B8FF4
:10466000031D53E8002F22F0400143E80014002C02
:10467000F7D1BFF35B8F530604D503B0BDE8F0401C
:10468000FFF742BC002105F128000EF063F9044653
:1046900070B9224B01930093214A224B22492348AF
:1046A000FCF774FC404080F311884FF0040002DFF7
:1046B0001F4E8189B6F88820914208D800231A46F7
:1046C00021462846FFF782FB48B103B0F0BD05F153
:1046D000090701463846FFF787FF014628B92046FB
:1046E00003B0BDE8F0400EF05FB901230022284678
:1046F000FFF76CFB0028F2D0A289B6F888309A4206
:1047000002D800230122DBE721463846FFF76CFF81
:1047100001460028E3D001231A46E8E74546010098
:10472000945301009B560100E3530100985401008B
:10473000683A0020034BC01A034BC0105843C0B264
:10474000704700BF600300201BCA6B28124B134A3E
:10475000196810B51160596801B95A6059689260BA
:104760000F4A1A6001B95A6001F066FB02F04EFA76
:10477000044670B900F08AFA0A48FFF7DBF940B145
:104780000948FFF7D7F9C30703D501210748FFF709
:104790004FFC204610BD00BFF8030020500300204E
:1047A00058030020A00300206403002060030020C1
:1047B000704700001FB50B4A136833B90A485060B0
:1047C0000A60184605B05DF804FB084B029301909F
:1047D0000093074A074B08490848FCF7D7FB6FF0DE
:1047E0000B00EFE700040020AC3B00204546010031
:1047F00094530100B2580100E35301002159010014
:10480000F8B507460E46002004211546FFF7D8FEEE
:104810000421044608300EF0F9F807704670458010
:104820002046F8BD7047000000238360054B59689F
:1048300000F1080211B95A601A6070470A605A60A4
:10484000704700BF98040020836B10B513B1083B7C
:10485000002203B910BD8B4203F108040FD19968FF
:104860003AB9C26B8163944200D1C16300229A605D
:1048700010BD1160C16B8C4208BFC263F6E72246CF
:10488000002CE7D09B68002BE4D0083BE1E70368ED
:1048900010B504462BB143685B6803B19847002309
:1048A0002360E3681BB12046BDE81040184710BDE7
:1048B00030B50C4B0C4A0D4985B0A0F110040546EB
:1048C00002938DE818000A480A4BFCF75FFB55F885
:1048D000100C2146FFF7B8FF204605B0BDE8304078
:1048E000FFF7D5BF4546010094530100E353010093
:1048F000755A01005C5801001A4B2DE9F7431C68FA
:1049000006462CB10027DFF86080083CB94614B990
:1049100003B0BDE8F083636801A9304698470028DA
:1049200018DB019D23882B87A5F85830414605F1F7
:1049300010000FF0B7FBAF60F26B05F1080372B91E
:10494000F363B36301982E604368C5F80C901B684D
:1049500003B19847A468002CDAD0083CD7E713606D
:10496000F363EFE798040020B1480000836B10B5B3
:10497000A3B1B3F108000AD110BD083CFFF787FFCF
:1049800064B1A36803B1083B20461C46F6E71C68E7
:10499000002CF2D1BDE81040FFF779BF10BD043103
:1049A000FFF70EBEF8B5144605460F4602F10800A3
:1049B00004211E460EF050F8A18947800439018079
:1049C000324621462846BDE8F840FFF7B9B9000055
:1049D000F0B58B89032B87B007460D4609D85A4B93
:1049E00001930093594A5A4B5A495B48FCF7CEFA57
:1049F00014E00846042150F8084F66880EF034F899
:104A0000AA8996420CD0504B0393019200930296D0
:104A10004F4B4E4A4F495148FCF7B8FA07B0F0BD2A
:104A2000617839B9484B01930093484A484B49494A
:104A30004B48DBE72378122B29D0132B1DD0012BF9
:104A4000ECD0414A02928DE80C004249404B454A65
:104A50004548FCF79BFA022261783D680120FFF788
:104A6000CFFE0221044608300DF0D0FF0023037072
:104A7000437022460521284625E0012ECED8324B30
:104A800001930093314A394B32493948AEE7072E3A
:104A900007D82D4B019300932C4A364B2D493648AD
:104AA000A4E73C68E6788EB102220120FFF7A8FE59
:104AB0000221054608300DF0A9FF00230370437062
:104AC0002A4605212046FFF76DFFA7E7AB68587817
:104AD0001A7842EA0022ADF81020D8789A7842EA93
:104AE0000022ADF8122058791A7942EA0022ADF876
:104AF00014209A79DB79132042EA03230222ADF8CD
:104B00001630FFF77DFE04A907462046FFF756F84A
:104B10000221054607F108000DF078FF7DB106700F
:104B2000467000233A4605212046FFF73BFF002D43
:104B30003FF474AF04A92046FFF7C3FC6EE70123DE
:104B400003704570EDE700BF454601009453010036
:104B500099580100E353010058590100865901009A
:104B6000B7590100DC530100475A01006E5801009B
:104B7000E859010080580100145A0100806B00B10F
:104B8000083800B97047B0F858308B42FAD08368C3
:104B90000020002BF6D0A3F10800F2E7806B00B1F3
:104BA000083800B97047038F8B42FBD08368002020
:104BB000002BF7D0A3F10800F3E700007FB58B8945
:104BC000032B06460C460ED8154B01930093154A4D
:104BD000154B16491648FCF7D9F9204604B0BDE834
:104BE00070400DF0E1BE0846042150F8083F5D8892
:104BF0000DF03AFF29463046FFF7D0FF50B9084B79
:104C000002938DE828000B4A074B08490A48FCF735
:104C1000BDF9E2E7436821461B699847DDE700BF1D
:104C20004546010094530100A4580100E3530100DC
:104C3000BF580100DC530100EC58010070B5124B65
:104C40001A78013212F0FF0208BF01221A700C46D6
:104C50000546197808221220FFF7D2FD08210646E2
:104C600008440DF0D3FE2388038063884380A38823
:104C70008380E388C3803246284600230521FFF75E
:104C800091FE002070BD00BF940400200148FFF792
:104C9000CBBD00BFA03B00200620704710B50A4ADC
:104CA000002312F8334084424FEAC30102D10A4480
:104CB000907810BD01331B2BF3D110F0400F14BFBF
:104CC0000020062010BD00BF9C5D01007FB5114D86
:104CD0002C680E4684B9E42221462846FCF7BAFF28
:104CE00002220D4B6B6005F1CC0011460EF0EAFE7E
:104CF0003560204604B070BD084B029301900093CC
:104D0000074A084B08490948FCF740F96FF00B00C7
:104D1000F0E700BFA0040020CC3B00204546010086
:104D200094530100145B0100E3530100305C010067
:104D300010B50446006908B10DF036FEA3680BB14A
:104D400020469847204614220021BDE81040FCF779
:104D500081BF38B5056801F108000C460DF094FEDE
:104D6000A389A2680146284601F066FE002038BDEE
:104D70002DE9FF410D6806460C464FF000084FF440
:104D8000205302A900682F688DF80880ADF80A301A
:104D9000FDF7B2F898B142F6010303A930688DF827
:104DA0000C80ADF80E30FDF7A7F840B1236923B1B0
:104DB000328A5988914200D25A80012012E06168FB
:104DC0003068FDF799F810B100232361F5E7E36837
:104DD000A0681A784AB1B5F85A3081895B1A9342B3
:104DE00003DA002004B0BDE8F081042108300DF0A2
:104DF0000DFE338AA1682061038043808A89B5F85B
:104E00005A308968D6F804809B1A00250A44009518
:104E100031469BB23846C047011EE2DBE0680278AB
:104E20000B1D2AB90370A06808300DF0EFFDC4E730
:104E30009A42F8D0A2689389043B9381D1E78B68AA
:104E400070B505460C460E6863B948680121083004
:104E50000DF0DCFD2B68A0601B78002B0CBF01233C
:104E600002230370A3681B78012B03D0022B1AD0F6
:104E7000002070BD2B681B78002BF9D160680421DD
:104E800008300DF0C3FDE0602B8A03802B685B883F
:104E900043806368B6F85A009B89C01A042894BFFF
:104EA0000020012070BD2B681B78022BE0D16068C8
:104EB000122108300DF0AAFDE06029682B8A20F845
:104EC000023B10220131FCF799FE6368B6F85A00E4
:104ED0009B89C01A1228E2E72DE9F0410E6888B0DC
:104EE00005460C46002742F6010302A90068D6F8E1
:104EF00000808DF80870ADF80A30FCF7FDFF28B986
:104F00000023A360012008B0BDE8F0814FF42053D6
:104F100003A928688DF80C70ADF80E30FCF7ECFF93
:104F200040B1A368002BEDD02A8A59889142E9D27A
:104F30005A80E7E76268B6F85A3092899B1A032BC9
:104F4000E1D9102300900DEB03026E68294640461C
:104F5000B047021ED4DB237C9A42D1D104A9E06879
:104F6000FCF737FE0028CBD160746068042108305C
:104F70000DF04CFD2B8AA06003804380C2E7000047
:104F800010B517230446A0F85A3043870649A430C9
:104F90000FF088F80023C4F89C30C4F8A0302068D3
:104FA000BDE8104001F07CBDCD54000011F0010FB0
:104FB000837C04D013F0150F12D0426882B18A07A7
:104FC00004D513F02A0F0DD082685AB1194011F0A0
:104FD000300F09D111F00C0F14BF0F2000207047C3
:104FE0000220704703207047052070472DE9F743E2
:104FF0000F6806460C4600684968D7F80090FCF731
:105000007BFF804600284DD115213046FFF7CEFFAB
:105010000546207548B1E3681D7815B184F8148001
:105020004546284603B0BDE8F083A0680221083059
:105030000DF0ECFC338AA168206103808A89B7F8FF
:105040005A308968D6F8048000959B1A9BB20A44AE
:1050500048463146C047011E08DA01F1FF03FE2B26
:105060009ABF4942C9B20E212175DAE7E068027899
:105070008B1C82B90370A06808300DF0C7FCA368D0
:10508000B7F85A509B89ED1AE3681B789D42D4BF4C
:1050900000250125C5E79A42EDD0A2689389023B1D
:1050A0009381BEE70125BCE710B58A89022A044630
:1050B00003D0102A0AD0002010BD0023037001F194
:1050C00008000DF0E1FC6080012010BD022300F813
:1050D000013B8968FCF792FDF6E7000010B504215A
:1050E000FFF74CFD0446CC300EF0F5FCD4F89830B8
:1050F00043B104F1A40147F230520348BDE8104027
:105100000FF044B810BD00BF9019002003685B7A0F
:10511000032B0AD1BFF35B8FD0F89400BFF35B8FF2
:105120006FEAA00000F001007047012070470620E0
:10513000704708B50421FFF721FDBDE80840CC30D9
:105140000EF0C9BC08B50421FFF718FDBFF35B8F53
:1051500000F1940353E8002F22F0010243E80021FC
:105160000029F7D1BFF35B8FCC30BDE808400EF0CB
:10517000B2BC08B50421FFF701FDBFF35B8F00F15E
:10518000940353E8002F22F0020243E80021002993
:10519000F7D1BFF35B8FCC30BDE808400EF09BBC6D
:1051A000437A032B13B50BD0154B01930093154A8B
:1051B000154B16491648FBF7E9FE002002B010BD5A
:1051C0000421FFF7EBFC044650B90D4B019300930B
:1051D000104A0D4B0D491048FBF7D8FE2046EDE76D
:1051E000BFF35B8FD0F89430BFF35B8F5B07F5D5CF
:1051F000034B01930093034A034B04490748DAE742
:1052000045460100DC530100E95A0100E353010067
:105210002E5B0100945301004C5B0100775B0100A1
:105220002DE9F3410C46D1F800802A210646FFF70C
:10523000BDFE05462075E0B9628A01900092237C8C
:10524000B768E26831464046B847002802DB237C55
:1052500098420BD000F1FF03FE2B9ABF4042C0B230
:105260000E202075284602B0BDE8F0812575012585
:10527000F8E70025F6E7000073B5054600F1CC0617
:10528000C5F898100C4630464FF0FF310EF04BFC3D
:105290002846FFF73BFF78B9184B01930093184A53
:1052A000184B19491948FBF771FE30460EF013FCF4
:1052B0006FF0380002B070BD266906F108000DF0ED
:1052C000EBFBB389A081E38120692D680DF09AFB87
:1052D00023699B6806461878FFF7E0FC0138C0B2E6
:1052E000042896BF0A4B0B4B53F820303246284611
:1052F0000421FFF757FB0020DCE700BF4546010013
:10530000DC530100AC5A0100E3530100D25B010001
:10531000985A0100335100002DE9F7430446A430A8
:105320001E460F4690460EF0CDFED4F89830DBB9FD
:105330001C4B019300931C4A1C4B1D491D48FBF755
:1053400025FED4F89C1059B1D4F8A0200B68C4F8FD
:105350009C30914208BFC4F8A0302046FFF78CFF74
:10536000002003B0BDE8F083186928B10DF01CFBE4
:10537000D4F8983000221A61D4F898302068D3F815
:10538000049000255D603A46009331464346C84785
:10539000D4F8980043680BB9FFF7CAFCC4F89850DA
:1053A000CFE700BF45460100DC530100B95A0100B8
:1053B000E3530100AB5B01008A8989680023FFF792
:1053C000ABBFFFF7F9BFFFF7F7BFFFF7F5BFFFF779
:1053D000F3BFFFF7F1BFFFF7EFBFFFF7EDBFFFF739
:1053E000EBBFFFF7E9BF10B40A46034680B18968F6
:1053F0000C88162C83BF17245C87A3F85A40002220
:1054000099BF042311460023928910BCFFF784BF83
:1054100010BC704730B4D0F898208C686AB113691A
:105420002BB195891969D2899A8129449960E378C9
:105430000022114630BCFFF76FBF0E23F8E7F7B527
:1054400000F194030546BFF35B8F53E8002F42F051
:10545000040243E800210029F7D1BFF35B8F05F177
:10546000CC0420460EF037FB20460EF034FBD5F876
:105470009C408CB9D5F898300022C5F89C20C5F81E
:10548000A0200BB903B0F0BD0E231146284603B08F
:10549000BDE8F040FFF740BF266867682FB10023E2
:1054A00000941A460E211846B8472046FFF740FCE4
:1054B000002EDFD034463668EFE710B50446FFF71C
:1054C000BEFF2068BDE8104001F00CBB13B50B4BCC
:1054D0000B4A0C490193044600930B480B4BFBF716
:1054E00055FDA4F1A400FFF7AAFF54F8A40C01F0A5
:1054F000F9FA002344F8A43C02B010BD454601006F
:1055000094530100E3530100145C0100085B0100A7
:105510002DE9F74306468868D1F800900C4608301C
:105520000021D9F800800DF071FA0027E06027749F
:1055300015213046FFF73AFD0546207408BBA168E7
:10554000B9F85A308A898968A08800909B1A7768D0
:105550000A449BB231464046B847011E0BDA01F1BE
:10556000FF03FE2B9ABF4942C9B20E21217428467F
:1055700003B0BDE8F083A06808300DF047FA0125BC
:10558000F5E73D46F3E7000030B585B00D4614461B
:10559000FFF706FEF0B1B0F85A1001348C420ED974
:1055A0000D4B03930294019100930C4A0C4B0D494F
:1055B0000D48FBF7EBFC0024204605B030BD002170
:1055C0000846FFF7ECF90121044608300DF01EFAF9
:1055D0000570F1E70446EFE745460100DC530100A2
:1055E000F65A0100E3530100655C010038B5046818
:1055F00001F108000D460DF047FAAB89AA68014693
:10560000204601F019FA00221E212046FFF7BCFFB8
:10561000024620B1034B04212046FFF7C3F90020C6
:1056200038BD00BF735100002DE9F0418B681B8825
:10563000162B05461CD9D0F80080022203214046D3
:10564000FFF7A2FF0746B0B1022108300DF0DEF9E6
:105650001726002406704470084B40463A46042141
:10566000FFF7A0F96E87A5F85A602046BDE8F081E3
:105670000420BDE8F0810E20BDE8F0814551000016
:105680002DE9F041884617460121042205461E46B1
:10569000FFF77AFF044680B1042108300DF0B6F917
:1056A00080F80080C670A0F8017022462846044B9E
:1056B0000421BDE8F041FFF775B9BDE8F08100BFF6
:1056C00045510000F0B58B8985B004460F4653B9AB
:1056D0004B4B019300934B4A4B4B4C494C48FBF7C7
:1056E00055FC05B0F0BD0846012150F8085F0DF0EB
:1056F000BBF9484A28780023114612F833608642E5
:105700004FEAC30E1CD172449678012E36D1BFF3F6
:105710005B8F04F1940252E8003F43F0010042E83D
:10572000000CBCF1000FF6D1BFF35B8FDA0740D558
:10573000334B01930093384A334B34493748CEE713
:1057400001331B2BD9D12E4B029301900093324A87
:105750002D4B2E493248FBF719FC2D782846FFF7D0
:105760009DFA0028BDD0002DBBD00623002229467B
:10577000206805B0BDE8F040FFF782BF052E18D1C4
:10578000BFF35B8F04F1940252E8003F43F0020044
:1057900042E8000CBCF1000FF6D1BFF35B8F9B0712
:1057A00007D5174B019300931B4A174B17491D4808
:1057B00095E701EB0E03BA89597891420FD9104B46
:1057C000039329780291019200930E4A0E4B0F49E0
:1057D0001548FBF7DBFB012E83D104230AE05B684D
:1057E000394620469847012E03467FF47AAF0028B9
:1057F0003FF477AF297800293FF473AF0022B7E771
:105800004546010094530100DD5A0100E3530100B5
:105810009A5C01009C5D0100DC530100C55C010045
:105820004F5D0100F15C0100205D01002DE9F043B6
:105830008B89062B8DB080460C4601D0142B68D185
:105840002046042150F8083FD8F800901D885E8853
:1058500002AF0DF009F921463846FFF725FC002874
:1058600059D0002D5AD00024002E56D0B54255D81C
:105870004FF42053694638468DF80040ADF80230A9
:10588000FCF73AFB38BBD8F800901422002107A897
:10589000FCF7E0F9012211214846FFF775FE099057
:1058A000002838D0012108300897CDF81C800DF071
:1058B000ADF800270A9007AB07701C4A0B973146DA
:1058C000284600F071FF0A9B1C78D4B909980DF0A6
:1058D0006BF80A230CE042F6010301A938468DF863
:1058E0000440ADF80630FCF707FB0028CBD01023AE
:1058F0002A4610214846FFF7C3FE20460DB0BDE8FA
:10590000F0830B4B099A04214846FFF74BF800241B
:10591000F3E70424F1E70E24EFE7354601232A4696
:1059200010214846FFF7ACFEF1E700BF714D0000C3
:10593000455100002DE9F043046887B01422064663
:105940000D4601A80021FCF785F900220F21204611
:10595000FFF71AFE039068B3DFF86090019605F137
:1059600008074FF00108AB89012B06D8124B039AA8
:1059700004212046FFF716F818E038460DF084F8A9
:1059800001AB4A46014606468DF8148000F00CFF34
:105990009DF81430002BE6D003980DF005F89DF823
:1059A000143032460E212046FFF76AFE002007B071
:1059B000BDE8F0830E20FAE74551000011550000C4
:1059C0002DE9F041074686B00C4690461D46A3B32C
:1059D00006681422002101A8FCF73CF90022414688
:1059E0003046FFF7D1FD039048B3BDF83030ADF835
:1059F000083001238DF81430124A019701AB294673
:105A0000284600F0D1FE9DF814707FB103980CF089
:105A1000CBFF3CB19DF814302A4621463046FFF7B3
:105A20002FFE0024204606B0BDE8F081064B039A05
:105A300004213046FEF7B6FFF3E70124F2E70E2417
:105A4000F0E700BF115500004551000007B58A6816
:105A50001388528800920C210D22FFF7B1FF03B08A
:105A60005DF804FB07B58B6800221B8800920A21B1
:105A70000B22FFF7A5FF03B05DF804FB2DE9F0430F
:105A80008B89062B8DB007460E4601D0142B52D1C0
:105A90003046042150F8083FD7F800901D885C88F4
:105AA0000DF104080CF0E0FF31464046FFF7FCFA28
:105AB00098B1002D42D0002C3FD0A5423ED81822EC
:105AC0003E6800210DEB0200FCF7C4F80122092119
:105AD0003046FFF759FD089008B90E2427E0012150
