:10000000102D0020DD1A0000311B000075190000C2
:1000100075190000751900007519000075190000A8
:100020007519000075190000751900007D15000094
:1000300075190000751900003915000075190000C8
:10004000A11A00007B1C0100A11A0000A11A0000E7
:10005000A11A0000A11A0000A11A0000A11A0000B4
:10006000A11A0000A11A0000A11A0000A11A0000A4
:10007000A11A0000A11A0000A11A0000A11A000094
:10008000A11A0000A11A0000A11A0000A11A000084
:10009000A11A0000A11A0000A11A0000A11A000074
:1000A000A11A0000A11A0000A11A0000A11A000064
:1000B000A11A0000A11A0000A11A0000A11A000054
:1000C000A11A0000A11A0000A11A0000A11A000044
:1000D000A11A0000A11A0000A11A000000000000EF
:1000E0007512000000000000ED1800000000000084
:1000F000ED18000000000000ED18000000000000F6
:10010000ED18000000000000ED18000000000000E5
:10011000A93C010000000000ED18000000000000F4
:10012000ED18000000000000ED18000000000000C5
:10013000ED18000000000000411C0100000000005C
:10014000ED180000E03E0020AD3F0100000000007F
:10015000ED18000000000000ED1800000000000095
:10016000ED180000000000009D13000000000000DA
:10017000ED18000000000000ED1800000000000075
:10018000ED18000000000000ED1800000000000065
:10019000ED18000000000000ED1800000000000055
:1001A000751C010000000000ED18000000000000B8
:1001B000ED18000000000000ED1800000000000035
:1001C000ED18000000000000ED1800000000000025
:1001D000ED18000000000000ED1800000000000015
:1001E000ED18000000000000ED1800000000000005
:1001F000ED18000000000000ED18000000000000F5
:10020000ED18000000000000ED18000000000000E4
:10021000ED18000053B94AB9002908BF00281CBFD7
:100220004FF0FF314FF0FF3000F08EB9ADF1080C08
:100230006DE904CE00F01AF8DDF804E0DDE90223F0
:1002400004B07047430803F05533C01A830803F025
:10025000333300F03330184400EB101000F00F304F
:1002600000EB002000EB0040000E70472DE9F04746
:100270008C460D460446089E002B51D18A421746F3
:100280006DD9B2FA82FEBEF1000F0BD0CEF1200C78
:1002900001FA0EF520FA0CFC02FA0EF74CEA050CF6
:1002A00000FA0EF44FEA174A250CBCFBFAF81FFAC5
:1002B00087F90AFB18CC45EA0C4508FB09F3AB4269
:1002C0000AD9ED1908F1FF3280F02381AB4240F2E8
:1002D0002081A8F102083D44ED1AA4B2B5FBFAF062
:1002E0000AFB105544EA054400FB09F9A14509D968
:1002F000E41900F1FF3380F00A81A14540F2078143
:1003000002383C44A4EB090440EA08400021002ED6
:1003100061D024FA0EF4002334607360BDE8F087E6
:100320008B4207D9002E54D0002186E821000846D0
:10033000BDE8F087B3FA83F1002940F08E80AB422C
:1003400002D3824200F2FA80841A65EB0305012091
:10035000AC46002E3FD086E81010BDE8F08712B9F9
:100360000127B7FBF2F7B7FA87FEBEF1000F34D1D1
:10037000EB1B3A0C1FFA87FC0121B3FBF2F8250CAA
:1003800002FB183345EA03450CFB08F3AB4207D9DF
:10039000ED1908F1FF3002D2AB4200F2D180804665
:1003A000ED1AA3B2B5FBF2F002FB105543EA054487
:1003B0000CFB00FCA44507D9E41900F1FF3302D27D
:1003C000A44500F2B8801846A4EB0C0440EA0840AB
:1003D0009DE731463046BDE8F087CEF1200405FAAE
:1003E0000EF307FA0EF720FA04F83A0C25FA04F493
:1003F00048EA0308B4FBF2F14FEA184502FB114446
:100400001FFA87FC45EA044501FB0CF3AB4200FAF6
:100410000EF409D9ED1901F1FF3080F08A80AB426A
:1004200040F2878002393D44EB1A1FFA88F5B3FB8E
:10043000F2F002FB103345EA034500FB0CF3AB423C
:1004400007D9ED1900F1FF386FD2AB426DD90238F0
:100450003D44EB1A40EA01418FE7C1F1200722FA3F
:1004600007F88B4005FA01F448EA030320FA07FE77
:100470004FEA134CFD404EEA040EB5FBFCF94FEA7F
:100480001E440CFB19551FFA83F844EA054509FB85
:1004900008F4AC4202FA01F200FA01FA08D9ED18A8
:1004A00009F1FF3043D2AC4241D9A9F102091D4400
:1004B0002D1B1FFA8EFEB5FBFCF00CFB10554EEA0F
:1004C000054400FB08F8A04507D9E41800F1FF3502
:1004D00029D2A04527D902381C4440EA0940A4EBA0
:1004E0000804A0FB02894C45C6464D4615D312D0E0
:1004F00056B1BAEB0E0364EB050404FA07F7CB40E0
:100500001F43CC40376074600021BDE8F087184677
:10051000F8E69046E0E6C245EAD2B8EB020E69EB97
:1005200003050138E4E72846D7E7404691E78146CE
:10053000BEE7014678E702383C4445E7084608E74D
:10054000A8F102083D442BE7704700BF70B503785F
:100550008AB004460E4607AD032B20D8DFE803F02F
:1005600002191B1D1149284601F014FB6278049200
:10057000A2780392E2780292227901926279009243
:10058000A37905950A4A1B21304600F00DFD0AB0FB
:1005900070BD0849E7E70849E5E70849E3E7084A85
:1005A0000A21284600F000FDE0E700BF31550100B8
:1005B0005A550100385501003F55010049550100C9
:1005C0005355010030B589B00D46044604F0C4FB14
:1005D00001A9FFF7BBFF35B12A4601A9084800F081
:1005E000D5FC09B030BD074B1B689C42F9D101A96D
:1005F000054800F0CBFC1321204604F05DFCF0E739
:100600007D550100000000209B55010030B5134CC2
:10061000236883428BB00D461DD104F09DFB03A9D6
:10062000FFF794FF2A4603A90D4800F0AFFC2068AD
:1006300004F0DAF9002323600A4B0B491868019093
:100640009B88ADF8083001A803F0BAFD014610B14F
:10065000064800F09BFC0BB030BD00BF000000203E
:10066000C6550100D454010071060000E455010094
:1006700070B5104C23688AB006460D46C3B9012AEE
:1006800016D803A9FFF762FF2A4603A90A4800F01B
:100690007DFC46350CDB03F0E5FD48B9074A1068E0
:1006A000516801AB03C301A9304604F057FB206039
:1006B0000AB070BD00000020AA550100DA54010004
:1006C00007B5002003F00CFD014628B10E4800F0EC
:1006D0005DFC03B05DF804FB0C4800F057FC0C48CF
:1006E00003F07CFE0B4B0C49186800909B88ADF81A
:1006F0000430684603F064FD014608B10748E6E7A8
:10070000074800F043FCE4E70756010027560100C4
:10071000503A0020E254010071060000E455010047
:100720003E5601000C4B1B78062B12D10B4B186860
:1007300010F00F000DD104331B6803F0F003302BD1
:1007400008D1074B1B6813F0F00F0CBF01200020ED
:1007500070470020704700BFE00F00F0E40F00F08A
:10076000EC0F00F008B54FF02003EFF3118183F395
:100770001188FFF7D7FF20B13D4AD36823F080737B
:10078000D360FFF7CFFF10B13A4B03221A60FFF797
:10079000C9FF30B14FF080430022C3F80C21C3F8E9
:1007A0001021354B1B78062B17D1344B1B681807CB
:1007B00013D1334B1B6803F0F002302A03D003F04F
:1007C000E003402B09D14FF08043D3F80024D20737
:1007D00003D56FF00102C3F800244FF01022D2F8C5
:1007E0000032002B274B03DBD2F80022002A2FDA3D
:1007F0000122C3F80425D3F80024002AFBD04FF0CF
:1008000010231522C3F800221E4A1346D2F8001402
:100810000029FBD04FF010221521C2F80412D3F8A2
:100820000024002AFBD00022C3F80425154AD2F880
:100830000034002BFBD0BFF34F8F1349134BCA6812
:1008400002F4E0621343CB60BFF34F8F00BFFDE7BC
:100850000122C3F840250C4B4FF0FF329A62DA6256
:100860000B4B0C4A1A6081F31188002008BD00BFB1
:10087000F0ED00E0A0050040E00F00F0E40F00F014
:10088000E80F00F000E0014000ED00E00400FA0590
:10089000843A00200090D00308B50446084611466B
:1008A0001A46A04714F0C8F801F0D4F810B5C47A7D
:1008B000C0688C424FF00C04B6BF614304FB0101D9
:1008C0004158202492FBF4F401EB8401196002F0FA
:1008D0001F0010BD07B501ABFFF7E8FF019A012328
:1008E00003FA00F013680343136003B05DF804FBE0
:1008F00007B501ABFFF7DAFF019A012303FA00F015
:10090000136823EA0003136003B05DF804FB2DE9CC
:10091000F0474368058904460068A77A5D43284488
:1009200000214FF00C0E4FF0200CB94205DB0025E2
:1009300023899D4223DBBDE8F087D4F80C90B5FBFA
:10094000F3F20EFB01F81F2A09EB08064FEA9303A6
:1009500006F1040AC8BF1F3203F10303C6F804A05E
:10096000C6F808A0CABF92FBFCF2E17249F8080081
:1009700023F00303C8BF00EB82000131D5E76268B2
:10098000E36820686A431E1D865081189A684A6091
:100990009A682046116099602A460021FFF79AFF65
:1009A0000135C5E72DE9F04F8BB0867A00AF0446DC
:1009B000FB60B3000A3323F00703ADEB030D43687C
:1009C0003A6103336A4623F0030342F80439E946E7
:1009D0004FF0FF3500234FF00C0E581EB3427862E3
:1009E00009DA2BB110688008033020F00300506052
:1009F000506888420BD27B6A013314D13A6D0023D0
:100A000013606FF00B002C37BD46BDE8F08FE06837
:100A10000EFB030000F1040C40680432604518BF6F
:100A20001D460133D9E76B1CE8D0E16859F8252051
:100A30000C2303FB051353F8046F9E4261D096E824
:100A40000A00196031684B6023682946F31A204672
:100A500093FBF2F2FFF74CFFA9EB890309EB850A40
:100A6000BB617B6A9D4223680EDB3A6911467A6A54
:100A70000A60F31A59F8222093FBF2F3FA68136024
:100A80003B6D00201E60BEE75AF8042BF31A93FB5F
:100A9000F2F3BA699B007B610AEB4A0313444FF0FF
:100AA000010BFB6105EB0B03BB60DAF80080B96852
:100AB0000BFB08F33B62F3187B607B6920460BEB72
:100AC0000302FFF707FF7B682268218908F1FF38DE
:100AD0009844A8EB020862684A4390450AD2E2684B
:100AE000F969386A0A44111D31509168596091685A
:100AF0000B6093600BF1010BBBF1040FD5D10135F5
:100B0000AFE76FF00A007EE72DE9F04F85B0837AFA
:100B10009B000A3323F0070300AFADEB030D4368DE
:100B2000033323F003030546EA4600936C46012095
:100B300081424CD20C4616463246214628465AF887
:100B40002480D5F80090FFF7C5FE002C48D007F1AF
:100B50000C03324621462846FFF7A8FEFA68042314
:100B600090FBF3F083001068D84000F00F000F28CE
:100B700036D126F003034FF000097B6008F1FF3BFC
:100B80007B684B441A46214628463B60FFF7B0FE7F
:100B90003B689E4212D008FB03F2B5F808C06B68B0
:100BA000296802EB0B0E03FB0CF39E4501EB0200E0
:100BB00004D240688B5803608B58586009F10109D2
:100BC000B9F1040FDCD196FBF9F6013CB4E72368D8
:100BD0009B08033323F0030344F8043F0130A7E7E5
:100BE00008FB06F62A68696809EB060308F1FF3876
:100BF0009844A8EB02082A89514388450BD2E9683A
:100C00000C2202FB0414221D49F80620A2685A6037
:100C1000A2681360A3601437BD46BDE8F08F0020C2
:100C2000704700000B6801330B60014B1B681847CD
:100C3000883A00202DE9F04F85B09B460E9CDFF8E6
:100C400090A0012CB8BF0124012B0CBF302320231E
:100C50001546804689460194029301260A27002200
:100C60000AF101040AB9AA451FD2B5FBF4F04946BE
:100C70003030C04701360122013F012FB5FBF4F1AE
:100C80004FF00A0304FB1155BAFBF3FAE8D14946C9
:100C900005F13000C047BBF1030F03D1019B9C1B42
:100CA000002C0FDC05B0BDE8F08F019BBB42E3DBFD
:100CB000BBF1020FE0D84946029803920136C047C3
:100CC000039AD9E749462020C047013CE8E700BF26
:100CD000FFC99A3B0A688B6830B512B14C68A342D1
:100CE00002DB01338B6030BD651EAB420BBF8C60F5
:100CF0005C1C00218C600CBFD154D05430BD00006E
:100D0000014B1860704700BF883A00202DE9F04F72
:100D100089B04FF0000A06460F4604921C464FF079
:100D2000FF39D0465546049B187810B909B0BDE884
:100D3000F08F45B9252800F00C813946B047049B57
:100D400001330493EFE7642861D019D839280AD811
:100D5000312850D22D283CD030283DD0252808D12C
:100D60003946B0476FE0582800F08980632800F0CA
:100D7000EA8039462520B047049B39461878F0E7C9
:100D8000702872D006D8692841D06C283CD06828D9
:100D9000D5D0EEE7752858D017D87328E9D1236845
:100DA00004F1040B1C46254615F8010B002840F001
:100DB000BF80B8F1030F40F0D580E41AA9EB04041A
:100DC000002C00F3BB805C463DE0782857D07A28A1
:100DD000DEE74FF00308B2E7B9F1000F0EDAB8F121
:100DE000000F00F0BC80A0F13009B8F1000F08BF7F
:100DF0004FF00208A3E7B9F1000FF4DB0A2303FB6D
:100E00000909A9F13009F0E70AF1010A97E7BAF1F7
:100E1000010FC5BF073424F0070325681D68D4BF40
:100E2000043403F10804002D05DA39462D20B047BB
:100E30006D4209F1FF39CDF8009043462A46394604
:100E40003046FFF7F7FE002579E7BAF1010FC5BF7D
:100E5000073424F0070322681A68CDF80090CCBF4D
:100E600003F1080404344346E9E739463020B0472B
:100E700039467820B0474FF008094FF00108BAF121
:100E8000010FC7BF073424F0070323680593C2BFCF
:100E900003F108041B6805934FF008024FF00003AC
:100EA000D8BF04340393079393460BF1FF3B059B94
:100EB0004FEA8B0023FA00F010F00F0009D1079BD6
:100EC00013B9BBF1000F22D14FF0300E07E0069AA4
:100ED000EBE709288CBF4FF0570E4FF0300E394624
:100EE00070440692B047039B079501330393BBF10F
:100EF000000FECD1B8F1030FA5D1039BC3EB49055B
:100F0000002DA0DD39462020B047013DF8E7531EF3
:100F100091450693EBDBB8F1010F03D13946302040
:100F2000B047E4E7B8F1020FE1D139462020F7E7F6
:100F3000394603932C46B047039B34E739462020BB
:100F4000B047013C3CE72068251D3946B0472C4698
:100F500079E7AA46A8464FF0FF390125EFE64FF0A2
:100F60000108ECE65C460546E9E6000013B502AC74
:100F7000002344F8043D02460B4603482146FFF790
:100F8000C5FE019802B010BD250C00000FB407B5D6
:100F900004A951F8040B0191FFF7E8FF03B05DF8D5
:100FA00004EB04B0704700000CB430B585B008AB5A
:100FB000044653F8042B01900291002501A907482B
:100FC00000930395FFF7A2FE0398029B9842B8BFD7
:100FD000255405B0BDE8304002B07047D50C000084
:100FE0007047000013B5114CBFF35B8F2068BFF34F
:100FF0005B8F60B90E4813F047F8BFF35B8F54E87E
:10100000003F44E80002002AF9D1BFF35B8F436838
:1010100004221B680DEB02019847002802DA00F059
:1010200037FA0190019802B010BD00BF0400002003
:101030006C5601000A2838B50446074D04D12868CB
:1010400043680D215B68984728684368E1B25B6894
:101050009847204638BD00BF080000200148FFF730
:101060004FBE00BF3510000008B5044813F00CF85F
:10107000034B1860FFF7F2FF002008BD7656010011
:101080000800002010B54FF02003EFF3118283F326
:101090001188114C237823B982F311886FF0440032
:1010A00010BD013BDBB2237023B182F311886FF0D6
:1010B0000F0010BD094B1878012128B1217082F36F
:1010C00011886FF00A0010BD197082F311884FF07B
:1010D00080425160187010BD0E0000200D000020ED
:1010E00008B500221046012100F0E8FB002000F0C6
:1010F000B3FB002008BD0000F8B54FF02002EFF36D
:10110000118382F31188254A1078441C147060B151
:1011100083F311884FF08043D3F80C3413F4803FED
:1011200014BF00206FF04300F8BD1D4D2F782FB184
:10113000107083F311886FF00A00F8BD01262E703D
:1011400083F311884FF0804419B3384600F094FBC4
:10115000C4F80071D4F80433C4F804632660D4F8EA
:10116000002192B10022C4F800210E4A13F0010FB1
:101170004FF0010308BFC4F808330020C2F88031E3
:1011800000F06AFB00232B70C4E720BF40BF20BFE4
:10119000E5E7C4F800112660F4E700BF0E00002068
:1011A0000D00002000E100E0F8B506460C464FF0C7
:1011B0002002EFF3118382F311882C4A157865B170
:1011C00083F311884FF08043D3F8183413F4803F31
:1011D0000CBF6FF043000020F8BD0127177083F3A8
:1011E0001188284600F048FB4FF080430221C3F8E5
:1011F0000451D3F80423C3F80413C3F818459F60BF
:10120000D3F8041171B39207194F58BF02224FF05F
:1012100000014FF00105C3F804114FF0000058BF62
:10122000C3F80823C7F8805100F016FB4FF0804345
:1012300000211822C3F80823C3F80C11C3F81011B9
:1012400014F00301BED11020C3F83805C3F80423FD
:101250003046C3F80453FFF74FFF0028B2D1C7F858
:101260000051AFE720BF40BF20BFC9E70C000020FE
:1012700000E100E0F8B54FF080430546D3F808E1FF
:10128000D3F80423D3F80C44D3F80071D3F8040145
:10129000D3F80C11D3F8106102F00102BEF1000F77
:1012A00003D04FF0000EC3F808E127B14FF08043A0
:1012B0000027C3F800713AB1E30341BF4FF0804308
:1012C0000122C3F808231A6120B14FF080430022A5
:1012D000C3F8042149B14FF080440021C4F80C1137
:1012E0002846FFF7CFFE0123636176B14FF08043BC
:1012F00000210124C3F810112846C3F80443FFF766
:10130000FBFE10B9014BC3F80041F8BD00E100E05D
:10131000084BC3F84005D3F80435C01A20F07F40CD
:10132000054B0238984282BF044B4FF40032C3F899
:101330000021704700100140FDFF7F0000E100E048
:1013400038B5114B114CD3F804052268104D801AA2
:101350002B6820F07F4098420FD3B0FBF3F00D498B
:101360000968884228BF084600FB032323F07F4317
:101370002360094B186013F0D7FB20682B681844D2
:10138000BDE83840FFF7C4BF001001401400002042
:10139000A03E0020100000209C3E0020024B0022B6
:1013A000C3F84021FFF7CCBF00100140031E0A4ADA
:1013B0000A4804DB116890FBF1F18B4202DD1368EF
:1013C00090FBF3F31068064A064912680B6000FBB5
:1013D0000320FFF79DBF00BFA03E0020FFFF7F005E
:1013E000140000201000002008B5074B0022C3F8AD
:1013F0004021064B4FF40032C3F88021FFF7A0FFD5
:10140000034B01221A6008BD0010014000E100E01A
:101410001000002070B5184812F036FE48B343683B
:10142000164D1B6801219847154B00241C60154B75
:1014300001261E60144BC5F808451B68C5F84035E9
:101440004FF48033C5F84433C5F804330F4BC5F867
:1014500040414FF40032C3F880213146224611202A
:1014600000F02CFA112000F0F7F9AE6020462E6053
:1014700070BD4FF0FF3070BD985601000010014064
:101480001400002010000020A03E002000E100E039
:101490000A4A30B5D2F80435094DD5E90001D2F831
:1014A0000445A34207D1074A126850431B1A23F090
:1014B0007F43184430BD2346EFE700BF00100140D2
:1014C000B0190020A03E002007488168006A8842C9
:1014D00008D000B513F062FA5DF804EB03494FF051
:1014E00080520A60704700007819002004ED00E087
:1014F000044800232021C2180133272B82F800134F
:10150000F9D1704700E100E0084A09499368096889
:10151000D966084998664B6843F080534B600023B6
:1015200083F311889368D86E704700BF7819002044
:10153000449A010000ED00E0202080F311880D495D
:101540008A682C201044EFF3098C80E8F01F0A4FC2
:101550004FF000660A6A8A603E60906E00239366D0
:1015600080F3118802F12C0090E8F01F8CF30988B9
:10157000704700007819002004ED00E01EF0040F11
:101580000CBFEFF30880EFF30980816931F8021C8A
:1015900011F0FF010229FFD000B500F02BFA00BDC9
:1015A00010B5044613F048FA22680146BDE8104021
:1015B0000148FFF7EBBC00BFF157010038B5044606
:1015C0001A480D46FFF7E2FC04F11800184CFFF72B
:1015D000E7FFA36AD90602D51648FFF7D7FCA36A2E
:1015E0001A0702D51448FFF7D1FCA36A9B070ED552
:1015F0001248FFF7CBFC616BA36A180607D51048A9
:10160000FFF7C4FC1DB1A36A23F08003A362084C5A
:10161000A26AD20702D50B48FFF7B8FCA36A9B0663
:1016200002D50948FFF7B2FC002038BD3B58010045
:1016300000ED00E0525801006458010078580100A4
:1016400091580100A2580100C258010010B504468B
:101650001A48FFF79BFC04F11800194CFFF7A0FF94
:10166000A36A9A0102D51748FFF790FCA36ADB0131
:1016700002D51548FFF78AFCA36A180302D5134860
:10168000FFF784FC0E4CA36A590302D51048FFF7FC
:101690007DFCA36A9A0302D50E48FFF777FCA36A84
:1016A000DB0302D50C48FFF771FC054A936A6FEA29
:1016B00003436FEA13439362002010BDF258010008
:1016C00000ED00E00B5901001F5901003A590100DB
:1016D000595901007F5901009A59010038B5044653
:1016E0001D480D46FFF752FC04F118001B4CFFF794
:1016F00057FFA36AD80404D51948BDE83840FFF75E
:1017000045BCA36A190501D51648F6E7A36A9A05F0
:1017100014D51548FFF73AFCA16BA36A1B0407D543
:101720001248FFF733FC1DB1A36A23F40043A36200
:101730000A4B9B6A58050ED50D48DEE7A36A59058A
:10174000FAD4A36ADA0501D50A48D6E7A36A9B044E
:1017500001D50948D1E738BDB856010000ED00E0D9
:101760005258010064580100CF5601009158010001
:10177000E956010005570100C258010038B5274C51
:101780006368C3F30803DA1E0546092A3BD8DFE87D
:1017900002F0053436303A3A3A3A3A382048FFF700
:1017A000F5FBE36A9A0703D51E48FFF7EFFB02E05B
:1017B000E36A5B0001D4002009E01B48FFF7E6FB69
:1017C0001A4B1B7843B101212846FFF7F7FE294643
:1017D000BDE8384000F012B9154B1B7823B1012148
:1017E0002846FFF77BFFE6E7124B1B889BB2002BD6
:1017F000E1D02846FFF72AFFE9E70021E4E70021CE
:10180000EEE70D48D1E70D480D49A3F110020F2B6B
:10181000D8BF01460B48FFF7B9FBCCE700ED00E06D
:101820004C570100645701008657010028ED00E085
:1018300029ED00E02AED00E0A65701001E57010047
:1018400033570100DD570100024A536943F010038A
:101850005361704700ED00E043B2002B08DB01222A
:1018600000F01F0002FA00F05B09024A42F8230070
:10187000704700BF00E100E043B2002B0DDB012206
:101880005B0900F01F0002FA00F02033034A42F81F
:101890002300BFF34F8FBFF36F8F704700E100E06D
:1018A0004209054B00F01F0053F82220012303FAE0
:1018B00000F01040704700BF00E100E043B2002B91
:1018C000A8BF03F1604301F101014FEA4111ADBF2F
:1018D00003F5614300F00F00034BC9B2B6BFC9B2B4
:1018E00083F800131954704714ED00E000F042B87B
:1018F00008B572B6044BD86918B10022DA6112F04B
:10190000E9FB62B608BD00BF78190020F8B50C46A7
:1019100016461F4604220A9B0999054613F020FB30
:10192000A6F1200121440C4AEC6521F007010023B7
:1019300022F001022B656B652E668A61069A4A6069
:10194000079A8A60089ACA600F604FF08072CA6175
:10195000E964AB66F8BD00BF990800000149102298
:101960000A60704710ED00E0404080F3118830BFFE
:10197000704700BF404080F31188DFF81CC0DCF8DE
:1019800000C01CF4006C0CBFEFF30880EFF309807B
:1019900000B5FFF7F3FE00BD04ED00E0042838B504
:1019A00004460D4613D0052813D0032813D10C4844
:1019B000FFF7ECFA13F040F8AA6901460948FFF76F
:1019C000E5FA29462046BDE8384000F017B8064839
:1019D000EEE70648ECE701460548FFF7D7FAE9E7E6
:1019E000C6590100445A0100EC590100065A010091
:1019F000215A010001460068FFF7D0BF052810B545
:101A00000CD013F0DBF960B113F0D8F90C4B0D4991
:101A1000002808BF19460C48FFF7B8FAFFF7A4FFE3
:101A2000FCE713F0DBF90028EED1084C0848A16868
:101A3000FFF7ACFAA068BDE8104000F00BB800BF9B
:101A4000845A0100805A0100955A0100781900203B
:101A5000B55A010038B505464FF02003EFF3118465
:101A600083F3118813F012FA0B4B9B689D420DD142
:101A70000A4B5A68C2F3080222B912F08FFF2046BF
:101A8000FFF742FD5A6842F080525A602046BDE896
:101A9000384012F03DBE00BF7819002000ED00E094
:101AA00000B572B60B4AD06900281EBF0021D16173
:101AB00012F010FB62B6EFF30580A0F110004FEAC0
:101AC000C0000549014409C998475DF804EBFFF7D8
:101AD000FBBC000078190020DC000000202080F30F
:101AE000118806484FF40061401880F309880220ED
:101AF00080F31488BFF36F8F00F006B8502E0020DB
:101B000030BFFFF7FDBF00BF08B5074B074A23F002
:101B10007F039360BFF34F8FBFF36F8F12F00AFB09
:101B200012F012FB12F034FB0000000000ED00E0A8
:101B300008B5FFF7E5FFBDE80840FFF7C5BC0000AA
:101B4000124930B50D68082D0DD8114A4868002398
:101B500053609D4200F10C0007D105235360BFF391
:101B60004F8FBFF36F8F002030BD50F80C1C50F822
:101B7000044C936021F01F0141F01001194344F01F
:101B80000104D16001331461E3E700BF643A00202F
:101B900090ED00E00139034611F8012F0AB91A70DF
:101BA000704703F8012BF7E702460346981A13F82B
:101BB000011B0029FAD170470138013910F8013FA3
:101BC00011F8012F934202D1002BF7D11A46981A2F
:101BD000704770B582B1013A0C46034603D11A78BA
:101BE0002078101A70BD1E782578AE4200F10100F1
:101BF00001F10101EFD0F2E7104670BD81EA000368
:101C000013F0030F70B503460BD0013B0A44914219
:101C10001BD170BD002AFCD011F8014B03F8014B19
:101C2000013A9C07F6D11E1F0D46541B0C44032C91
:101C300006D822F003042144234402F00302E4E71F
:101C400055F8044B46F8044FEFE711F8014B03F841
:101C5000014FDCE770B5C9B203469C0711D141EAD8
:101C6000012444EA04441E46951B1D44032D0ED84E
:101C700022F00304234402F003021A44934209D1E0
:101C800070BD002AFCD003F8011B013AE5E746F8D5
:101C9000044BE9E703F8011BF0E7000070B54FF0D3
:101CA0002003EFF3118583F31188144C144E23782D
:101CB00003EBC312013303F003033244237085F3B3
:101CC0001188402928BF40210E4D0138134602EBF0
:101CD0004106B34204D1002302F81130104670BD12
:101CE0004478240902332C5D03F8024C10F8014FAC
:101CF00004F00F042C5D03F8014CEAE774000020A7
:101D000075000020F85A010010B50F4A0F4C1378E7
:101D100003EBC301013386B003F0010313700278B3
:101D2000437904924278039282780292C2780192B7
:101D300004EB4104027900921221054A2046FFF784
:101D400033F9204606B010BD7200002018000020B4
:101D5000DA5A010070B51D4A1D49137803EB43069A
:101D6000013303F00103137003788AB006EBC60653
:101D700004460E4407AD032B21D8DFE803F0021A16
:101D80001C1E14492846FFF705FF62780492A278CA
:101D90000392E27802922279019262790092A37909
:101DA00005950D4A1B213046FFF7FEF830460AB074
:101DB00070BD0A49E6E70A49E4E70A49E2E70A4A48
:101DC0000A212846FFF7F0F8DFE700BF7300002084
:101DD0003C000020315501005A55010038550100E2
:101DE0003F550100495501005355010030B585B0FC
:101DF0000446154668460322FFF700FF0D22002126
:101E00000DF10300FFF726FF20466A46694606F0FB
:101E10003FFF044620B9032269462846FFF7EEFE3D
:101E2000204605B030BD13B50C4601AA0331FFF7BB
:101E3000DDFF48B9032201A92046FFF7CAFEB0FA28
:101E400080F0400902B010BD0020FBE770B5CD1C4A
:101E500006460C462846032106F0FEFE60B963796B
:101E600003F03F0343F040036371224629463046A6
:101E7000BDE87040FFF7BABF70BD0000F0B4027853
:101E8000012A04460B4617D003D3022A2CD0F0BCFB
:101E90007047184A0D4602F11007106851682E4627
:101EA00003C60832BA423546F7D1127832706288DA
:101EB0005A73120A9A73EAE70E4A0D4602F11007A6
:101EC000106851682E4603C60832BA423546F7D12B
:101ED0001278327062685A73C2F30721120CDA73F7
:101EE000120A99731A74D2E7014611221846F0BCFF
:101EF000FFF784BE265B010010B50C4601782278FE
:101F00008A428AB00ED06946FFF7B8FF05A920467D
:101F1000FFF7B4FF10220DF115010DF10100FFF7DD
:101F200058FE0AE0012A0AD004D3022A0AD06FF030
:101F3000150002E040886388C01A0AB010BD4068EE
:101F40006368F9E71022611C0130E8E7F0B5057815
:101F5000012D8BB004460E4617460FD006D3022D36
:101F60000ED000213046FFF775FE05E04388204A79
:101F700039463046FFF718F80BB0F0BD4368F6E776
:101F80002A46411C06A8FFF739FEE11C042208A8D6
:101F9000FFF734FE2A46E11D0DF11A00FFF72EFE71
:101FA0002A4604F1090107A8FFF728FE2A4604F192
:101FB0000B010DF11E00FFF721FE04F10D010422BB
:101FC00009A8FFF71BFEBDF818300493089B039384
:101FD000BDF81A300293BDF81C300193BDF81E30D5
:101FE0000093044A099B39463046FEF7DDFFC3E7FC
:101FF000215B0100095B010010B5034C252221463D
:10200000FFF7A4FF204610BD7902002070470000B2
:1020100070B50B4D06460FCD8AB06C460FC40FCD80
:102020000FC495E80300092E84E803009BBF0AABA8
:1020300003EB8606034856F8280C0AB070BD00BFB3
:10204000E8540100246E01000722FFF7D7BD00B558
:10205000BFF35B8F50E8003F43EA010240E8002EE7
:10206000BEF1000FF6D1BFF35B8F18465DF804FB9D
:1020700000B5BFF35B8F50E8003F03EA010240E880
:10208000002EBEF1000FF6D1BFF35B8F18465DF84E
:1020900004FB0000C378002B41F2883200F170018C
:1020A00008BF0022014813F031B800BFB819002062
:1020B0002DE9F04387B015468846074612F0BCFC70
:1020C0002C4E01902C4B2D4A2D4905960495CDF8A8
:1020D0000C80029700962B48DFF8BC90FEF756FF65
:1020E000A87911F05DFB814513D0AC79204611F041
:1020F00057FB05960390CDF8109002948DE8C00030
:102100001D4B214A1E492148FEF740FF07B0BDE89C
:10211000F083284611F04AFB1D4C04EBC0004388B5
:10212000BB420FD0284611F041FB04EBC0000396E0
:10213000438802938DE8C0000F4B134A104915489D
:10214000FEF724FF284611F031FB04EBC000436882
:10215000002BDBD0284611F029FB04F830802846FC
:1021600011F024FB04EBC000406807B0BDE8F04369
:1021700012F071BCC5550100875C0100E6690100E1
:10218000ED690100F0690100286A01002F6A010071
:10219000A0020020746A01009C3F00204B09BFF39D
:1021A0005B8F50F82300BFF35B8F01F01F010841E4
:1021B00000F00100704700002DE9F04786B00646A8
:1021C0000F4612F039FCDFF8A0A0DFF8A090DFF88E
:1021D000A080204D049553464A4601900095414603
:1021E000039702961C48FEF7D1FE4FF0FF311B48C3
:1021F00011F06AFB044612F01FFC4A465346039551
:10220000019000954146029404F108081448154DC8
:10221000FEF7BCFE4FF000090021404611F073FBB1
:1022200084F81490204611F0C1FA05EBC0004680F6
:10223000204611F0BBFA05EBC0000321C0F8049062
:10224000404611F0A3FB06808770204606B0BDE82B
:10225000F08700BFC5550100A15F01009C3F002031
:10226000D15F0100A0020020375B0100E669010098
:10227000ED6901002DE9F04381468DB015460C460D
:1022800021B9FFF799FF0446002853D012F0D4FB80
:102290002A4E0596A38904930DF11808284B019046
:1022A000284A2949CDF80C90029400962748284FD7
:1022B000FEF76CFE01220021404612F0C3FB2046CF
:1022C00011F074FA07EBC000C0F80480204611F04A
:1022D00059FB21461F4811F01AFB42F2107140468B
:1022E00012F0E1FB12F0A8FB8046204611F05EFAE6
:1022F000049617F830300393124A114B12491648CE
:102300008DE84003FEF742FE204611F04FFA17F821
:10231000300038B1204611F007FB6FF004000DB01B
:10232000BDE8F0830DB12C60F9E7204611F0FCFA0E
:102330002846F4E76FF03600F1E700BFC55501000D
:10234000595B0100E6690100ED6901004960010087
:10235000A0020020543B00207A60010038B5022121
:10236000054642F20C00FFF727FF044630B3022176
:10237000083011F00BFB012D024616D10B2111483C
:10238000FFF70CFF507015702146002242F20C003E
:10239000FFF770FF044630B9012D09D14FF4807169
:1023A0000848FFF754FE204638BD00234370EAE793
:1023B0006FF480710348FFF75BFEF4E76FF03604BB
:1023C000F1E700BF003B00207FB5054612F034FB6B
:1023D00004462846FFF798FC1A4B1B4E03938DE8E2
:1023E00018000290194B1A4A1A491B48FEF7CEFDF5
:1023F000062206F108012846FFF7EBFB0446D8B198
:10240000062142F20500FFF7D7FE0446B8B10622C6
:102410002946083011F0C0FA2146002242F2050098
:10242000FFF728FF044638B90622294606F10800BE
:10243000FFF7E4FB0123F371204604B070BD6FF099
:102440003604F9E7C5550100903A00206E5B0100A3
:10245000E6690100ED6901002C6D010038B501212C
:10246000054642F20A00FFF7A7FE0446D8B108303D
:102470008DB1012111F099FA2146002242F20A00A1
:10248000FFF7F8FE044620B93DB140210748FFF7A9
:10249000DEFD204638BD2946ECE76FF040010348D9
:1024A000FFF7E6FDF5E76FF03604F2E7003B0020AA
:1024B000028843889A4210B518D8052A16D9B3F570
:1024C000486F13D88488B4F5FA7F0FD2C188A1F180
:1024D0000A0292B240F67640824207D804FB0333E8
:1024E000B3EB810FB4BF0120002010BD002010BD50
:1024F000012310B50621044600F8013B06F0ACFBB1
:1025000018B9A37963F03F03A37110BD37B5114C1F
:102510002378012B04D1A37903F0C003C02B0DD085
:102520000D4B019300930D4A0D4B0E490E48FEF7DB
:102530002DFD6FF01505284603B030BD601CFFF778
:1025400043FF05460028F6D1042104F17000FFF78F
:102550007EFDF0E7903A0020C55501009E6901001C
:10256000E55D0100ED690100A56901002DE9F04379
:102570001D4DDFF890801D4F1D4E1E4C87B0284624
:10258000FFF7E8FB43463A46314601900294009437
:102590001948FEF7FBFC95F80E904846FFF738FD0A
:1025A000AB8A04932B8A03933A4643463146CDF8CF
:1025B00008900190059400941048FEF7E7FC95F808
:1025C0000F904846FFF724FD6B8A03930190049413
:1025D000CDF80890009443463A4631460848FEF745
:1025E000D5FC07B0BDE8F083903A0020A35E01005F
:1025F000ED690100C5550100AA5E0100C75E01003A
:10260000155F0100065E010010B5044686B012F0A9
:1026100013FA227D0B4B0492A28905930392019039
:1026200000930294084B094A09490A48FEF7AEFC98
:10263000094BD3F8D4301B69204606B0BDE81040E2
:10264000184700BFC55501002C5E0100E669010076
:10265000ED69010073690100903A002070B50546EC
:1026600086B00C4621B9FFF7A7FD044600282CD000
:1026700012F0E2F9164E0496A38903930190154BCC
:1026800002950096144A15491548FEF77FFC40F65E
:1026900035439D4213D12046FFF7B6FF054658B19A
:1026A0000190029600960B4B0E4A0C490E48FEF71D
:1026B0006DFC204611F038F9284606B070BD214661
:1026C0000A4811F024F90025F6E76FF03605F3E724
:1026D000C5550100495B0100E6690100ED69010093
:1026E000ED5F01009E69010017600100543B00206E
:1026F00073B50D4614460646072200216846FFF7CB
:10270000A9FAADF801501B4DADF8034000238DF838
:10271000063007212B788DF8006042F20B008DF80F
:102720000530FFF749FD044600B30722694608302B
:1027300011F032F9214642F20B00FFF78FFF012022
:10274000FFF70CFE044638B9012E08D14FF4806122
:1027500005F17000FFF77BFC204602B070BD6FF4FE
:10276000806105F17000FFF783FCF5E76FF0360438
:10277000F2E700BF903A002038B509210546164817
:10278000FFF70CFD024608B1002038BD08211248B1
:10279000FFF704FDD0B90121002002F007F904463B
:1027A0000028F1D04FF400610B48FFF750FC2046A1
:1027B00002F01AF9002D15BF3022122260214FF4C9
:1027C00000610020BDE83840FFF792BF1046FFF7D8
:1027D000C5FD0028DFD038BD003B00202DE9F043C7
:1027E000714ED6F8D430996811F001018FB031D113
:1027F0000CAA40F60340FFF73DFD0546002840F0D7
:10280000CE800C9B9B681C7812F016F9674B0393E3
:10281000019000930294664B664A67496748FEF749
:10282000B5FBA4B9664B1C603346BFF35B8F53F80E
:10283000702FBFF35B8F02F00D02BFF35B8F53E885
:10284000001F43E800200028F9D1BFF35B8F0C98EC
:1028500011F06AF80CAA002141F20300FFF70AFD0B
:102860000546002840F09B800C9B504C9F6812F05E
:10287000E3F8039417F8013B02930190514B4D4A42
:102880004D4900944D48FEF781FB082239464E48D9
:10289000FFF7B4F90C9811F047F829460CAA41F259
:1028A0000100FFF7E7FC0546002878D10C9B9D68E6
:1028B00012F0C2F803942B783F4902930190434BE6
:1028C0003C4A00943D48FEF761FB6B78B373EA78AD
:1028D000AB780C9843EA022333822B79F3732A7A7C
:1028E000EB7943EA02237382AA796B7943EA0223E4
:1028F000B38211F019F803213548FFF74FFC014668
:1029000000BB0CAA41F20900FFF7B4FC0546002801
:1029100045D10C9B9F6812F08FF8039417F8013B88
:10292000029301902B4B234A234900942348FEF73E
:102930002DFB062239462848FFF760F90C983570C0
:1029400010F0F2FF0CAA002141F20200FFF792FC06
:10295000054620BB0C9B9F6812F06EF8039417F895
:10296000013B029301901D4B124A134900941348F6
:10297000FEF70CFB394640221948FFF73FF90C9847
:1029800010F0D2FFB37E590632D401940094154B57
:10299000154A09491548FEF7F9FA6FF0120528465D
:1029A0000FB0BDE8F08300BF903A0020C55501008C
:1029B000745C0100E6690100ED690100CE60010070
:1029C000FC020020A35D0100A63A0020045D010086
:1029D000003B00201C5D0100913A0020825D010057
:1029E000AE3A0020DD5D01009E690100ED6001004E
:1029F00029460CAA42F20300FFF73CFC05460028DA
:102A0000CDD10C9B9F6812F017F8039417F8013B87
:102A100002930190B34BB44AB4490094B448FEF712
:102A2000B5FA08223946B348FFF7E8F80C9810F0D9
:102A30007BFF29460CAA42F20200FFF71BFC054669
:102A40000028ACD10C9B9D6811F0F6FF03942B7805
:102A500002930190A84B0094A34AA449A448FEF70E
:102A600095FAB5F80130A6F88830BBB111F0E4FF53
:102A7000B6F8883004940393EB78029301909A4A55
:102A80009A4900949C4B9D48FEF780FAEA789C484E
:102A9000022A28BF0222114611F0D4FF0C9810F030
:102AA00043FFB57E15F0200500F0008196F83A301E
:102AB0001A0723D50CAA002142F21C00FFF7DAFB0B
:102AC000054600287FF46BAF0C9B9D6811F0B4FFA6
:102AD00003942B78029301908A4B834A0094834994
:102AE0008348FEF753FA2B460C9853F8012F5B6886
:102AF000C6F88430C6F8802010F016FF96F87830BB
:102B00009B0600F11581082142F20100FFF754FBFA
:102B10000546002800F0D1800821084410F036FF57
:102B200096F878108F074CBF2F220F22890696F84F
:102B3000791048BF42F0400211F0090F96F840109A
:102B400001F0060118BF42F40062062908BF42F4F2
:102B5000C0720270C2F30722427000228270C270FB
:102B6000027142718271C271294642F20100FFF77F
:102B700081FB054600287FF412AFB37E9A063FD44E
:102B8000B6F8881000293BD10CAA41F20500FFF7E6
:102B900071FB054600287FF402AF0C9B9D6811F085
:102BA0004BFF03942B7802930190574B00944E4AAD
:102BB0004E494F48FEF7EAF9B6F88830EBB9AA78E3
:102BC0006B7843EA0223A6F88830AD8811F034FF11
:102BD000B6F8883003930190434A4449049402951F
:102BE0000094494B4948FEF7D1F9022D2A4628BFE7
:102BF00002221146424811F025FF0C9810F094FE75
:102C0000082140F60140FFF7D7FA0546002854D0C6
:102C10000821084410F0BAFE102303708823437083
:102C200002230022C37020238270027142718271DC
:102C3000C371294640F60140FFF71CFB05460028FA
:102C40007FF4ADAE01460CAA4FF60140FFF712FB30
:102C5000002800F09A802E4B2E4A24492E480194D9
:102C60000094FEF793F9002307220CA92B480C933C
:102C7000CDF83330FEF7ADFF002840F0008111F0B1
:102C8000DBFE274B019002940094174A1749254810
:102C9000FEF77CF996F86030DB0700F111810194B2
:102CA0000094214B1B4A1149204816E1022140F6AD
:102CB0006D40FFF781FA074610B96FF036056EE6F2
:102CC0000221083010F062FE0123457003702A468D
:102CD000394640F66D40FFF7CDFA054600283FF42F
:102CE000E5AE5CE6315D0100E6690100ED690100D9
:102CF000CE600100083B0020655D010021610100FC
:102D00001C3B0020C05D01004B5D010055610100CE
:102D1000175E0100286A01008D610100903A0020D1
:102D2000235E0100C1620100F85D01006F630100D4
:102D30000CAA002142F22F00FFF79CFA054600285A
:102D40007FF42DAE0C988368B3F80180B3F803903C
:102D500010F0EAFD042142F22400FFF72DFA0746A5
:102D60000028AAD00421083010F010FE2A46A0F84E
:102D70000080A0F80290394642F22400FFF77AFA68
:102D8000054600283FF4BFAE09E60C9B71499D68DB
:102D90007148B5F801300293032B96BF6F4A704A11
:102DA00052F8232001926F4B6F4A03940094FEF770
:102DB000EDF8B5F80130B5F80320022B3AD1022A1C
:102DC00038D86A4B53F8223002920193664A654B19
:102DD0006049039400946648FEF7D8F86B7906942E
:102DE000D5F809100591032BB5F8071098BF614A73
:102DF0000491A97994BF52F82320594A0391029370
:102E00005449584B01920094574A5B48FEF7BEF86C
:102E10000C9810F089FD0CAA00214FF60240FFF734
:102E200029FA054640B1019400944E4B534A494952
:102E3000534816E74A4BC7E70C9B52489968022251
:102E40000131FEF7DBFE0C9810F06EFD0CAA29464E
:102E50004FF60340FFF70EFA30B101940094414B56
:102E6000464A3C494848FCE60C9B48489968012280
:102E70001144FEF7C3FE0C9810F056FDF3E6444BE8
:102E800018689A880A909B79ADF82C200AA9072225
:102E900040488DF82E30FEF79CFE00283FF4EFAE40
:102EA000FFF764FB02F0F0F9054600287FF477ADE8
:102EB00002213948FFF7CBF82846FFF75DFC6EE5A5
:102EC00009AA00214FF60940FFF7D4F940B1334B6E
:102ED0002A4A2049324801940094FEF757F826E028
:102EE000099B99684B78BBB10123062202312D481A
:102EF0003370FEF783FE099810F016FDFFF706FB0E
:102F000005460028CCD001940094274B274A11494C
:102F10002748FEF73BF842E5019400941F4B174AFF
:102F20000C492448FEF732F8099810F0FDFC1948C6
:102F3000FFF7DEFA05460028E5D11A48FEF7E4FE61
:102F4000029401900094154B0C4A02491A48FEF76E
:102F50001DF8D3E7ED690100C16101001C6D01009E
:102F6000246E0100175E0100A35E0100106D0100D8
:102F7000EA610100146E010012620100286A01007A
:102F80004F620100EF3A002088620100EE3A002013
:102F900010550100903A0020003B0020F85D010030
:102FA00006630100913A0020235E01009E69010042
:102FB000E463010036630100AB63010010B5FFF765
:102FC0000DFC034B1B6813B1BDE81040184710BD42
:102FD000F802002038B50721044642F23200FFF71C
:102FE000EBF8054698B10721083010F0CFFC238894
:102FF0000380002402238470C370037144718471C0
:10300000294642F23200FFF729FB204638BD6FF017
:10301000360038BDF7B5074601AA002142F22F005D
:10302000FFF728F9D8B901988368B3F80160B3F8BD
:10303000035010F079FC062142F22200FFF7BCF8A1
:10304000044670B10621083010F0A0FC3B880380D4
:1030500046808580214642F22200FFF7FFFA03B046
:10306000F0BD6FF03600FAE72DE9F04F8DB0054660
:10307000B0F80170704E11F0DFFC2C1D8146204627
:1030800095F800A095F803B0FEF764FE1FFA87F8E4
:1030900005906A4B0696CDF810B0CDF80C808DE8FF
:1030A0004006674A67496848FDF770FF2B7883B18F
:1030B0000221002001F07AFC044638B12B7803721B
:1030C000002101F047FD204601F08EFC0DB0BDE867
:1030D000F08F21460AA8FEF7B7FF9DF82830023B83
:1030E000DBB2012B28D8062205F111010DF12100D8
:1030F0008DF82830FEF782FD01238DF82030022163
:103100000AA801F053FCEB78012B044609D16FF0BB
:1031100040014E48FEF7ACFF9CB90AA801F09AFBAB
:10312000044674B902968DE84001444B484A45492B
:103130004848FDF72BFFC9E7214608A8FEF784FFA2
:10314000DDE720460AA920F8447BFEF77DFF2A7EB2
:10315000EB7D43EA0223A4F85A30AA7E6B7E43EA51
:103160000223A4F86030EB7E2A7F43EA0223A4F80E
:103170006230EE78E670012E1AD1374F08A904F1BB
:103180004B00FEF761FF394604F15200FEF75CFF89
:10319000072107F17000FFF701F848B1D7E92023B4
:1031A000002203F04003134302D03046FFF756F9E4
:1031B0000321204601F0CEFC637A032B18D1EB7873
:1031C00023B1254B93F87830190718D5022142F224
:1031D0001600FEF7F1FF054688B10221083010F015
:1031E000D5FB23880380294642F21600FFF736FA02
:1031F000204601F0F9FB0020FFF7BEFA66E7164D06
:1032000095F87920D20708D52046FFF7E3FE20B9CC
:103210008021201DFEF71BFFEAE795F878309B061A
:1032200006D52046FFF7F6FE10B94FF48071F0E79F
:103230002046FEF72FFFDBE7C5550100B85B010014
:10324000E6690100ED690100856C0100003B00208A
:103250009E690100B96C0100903A002070B50646E5
:103260000D4642F221000321FEF7A6FF044660B19D
:103270000321083010F08AFB85700680214642F257
:103280002100BDE87040FFF7E9B96FF0360070BD6E
:103290002DE9F04F89B011F0CFFB814C01900294E1
:1032A0000094804B804A81498148DFF810A2FDF7E5
:1032B0006DFE9AF80D307F486FF307138AF80D30D2
:1032C00001F0DAFB00F1010811F0B6FB764A01903B
:1032D00076490394CDF808800094724B7648FDF748
:1032E00055FE4FF0FF324146744811F0F5FF68B1CA
:1032F0006C4B734A6D49734801940094FDF746FE88
:10330000404080F311884FF0040002DF11F094FB7D
:1033100003940190CDF8088000946B4B624A634996
:103320006A48664DDFF8A0B1694EFDF72FFEB8F18F
:10333000000F02D111F050FBBBE711F07DFB6B7B5E
:1033400001901B09029303945B460094564A574927
:103350006048FDF71BFE6B7B1B09012B40F281804F
:10336000042B40F0928095F80C90B9F1000F7CD1BD
:1033700011F062FB584B01904B4A4C490294009467
:103380005648FDF703FE4946554810F0A3FA074694
:1033900030B901940094504B494A44495148ADE733
:1033A00011F04AFB4C4B01903F4A40490294009473
:1033B0004D48FDF7EBFD4FF0FF314C4811F073FB2A
:1033C000D6F8C0306BB1444B3D4A38490194009463
:1033D0004748FDF7DBFDD6F8C00010F0A5FAC6F8A7
:1033E000C090384610F0CEFAC6F8C00011F024FBA9
:1033F0000790384610F0DAF9DFF80891049409EBE9
:10340000C00003974288079B029201930094324BBD
:10341000254A26493748FDF7B9FD3846FFF7F4F845
:10342000F8B12D4B264A214901900294009432486C
:10343000FDF7ACFD2D4811F00EFB384610F0B6F943
:1034400009EBC00000221F214088FEF731FED6F8AC
:10345000C00010F069FA00233846C6F8C03010F0FA
:1034600063FA143508F1FF3861E7B9F1010F04D1AF
:103470002869183801F0EAF8F3E7B9F1020FF0D142
:103480002869283801F04EFEEBE70193029400947E
:103490005B461A4A05491A48FDF778FDE1E700BF87
:1034A000C5550100F65C0100E6690100ED69010007
:1034B000B76A01007C3B0020D46A0100683B002011
:1034C0009E690100076B0100E75C0100316B0100A0
:1034D000903A00204F6B0100DE5C0100716B01002F
:1034E000543B00209A6B0100BF6B0100383B002069
:1034F000EA6B0100156C010017600100286A0100E9
:10350000546C0100A00200202DE9F04F97B0044652
:1035100011F092FAAD4EA3890393019004960294A0
:103520000096AB4BAB4AAC49AC48FDF72FFD277D6D
:10353000012F35465BD0032F40F02084A7687D889B
:1035400011F07AFAA34A0190A54BA349039602947D
:103550000096A448FDF71AFD3B881F0BC3F30B032D
:10356000E382FF236375042104F1080010F03CFAA4
:1035700011F062FAE38A02930190994B0596049741
:1035800003950096934A94499748FDF7FFFCA38959
:103590009D420DD00193039602950096904B934A5D
:1035A0008D499348FDF7F2FC204610F0BDF91AE072
:1035B000E08A01F0CBF9054650B9E38A01938B4AC2
:1035C000874B85498B4802960096FDF7DFFCEBE7B9
:1035D00001F04EFE3A4660752146284600F006FF8F
:1035E000284601F001FA002017B0BDE8F08FD4F8AA
:1035F000088011F021FA039698F8003002930190A8
:103600007D4B0096734A74497C48FDF7BFFC98F8DF
:103610000030132B00F2C1839F4017F40C2F00F0F1
:10362000BC8301960096744B704A6B497448FDF751
:10363000ADFC404080F311884FF0040002DFA76822
:10364000B7F8019011F0F8F90595FB780493CDF8DF
:103650000C903B780293019000956A4B5D4A5E495D
:103660006948FDF793FC97F80080B8F1000F9BD1F3
:10367000484601F06BF90646C0B902958DE8200274
:10368000604B5A4A54496148FDF780FC0721604865
:10369000FEF784FD002887D006215D48FEF77EFDF9
:1036A000002881D10120FEF7D9FE7DE7FB78037267
:1036B0005849594811F080FB4146304601F04AFA1A
:1036C000B578A6F800800DB13046E7E02946301DF8
:1036D000FEF764FD30B13046012101F03BFA284687
:1036E000FFF74AF8304601F07FF9CFE7A66811F0FE
:1036F000A3F90395337802930190484B354A364934
:1037000000954748FDF742FC0121384610F06CF95E
:103710003678731E0B2B00F22183DFE813F00C00C8
:103720002F028900C2001F03FB005701C2011302D0
:1037300087001F038901A66811F07EF9371D8046B6
:10374000384696F8009096F803A0FEF703FB214A4E
:10375000059504908DE82007324B1F493248FDF74C
:1037600015FC33788DF83830B6F80130ADF83930C3
:10377000F3788DF83B30B6F80B30ADF84F30B6F833
:103780000D30ADF85130B6F80F30ADF85330737CD2
:103790008DF8553039460FA8FEF756FC0025062255
:1037A0000AA90DF143000A95ADF82C50FEF726FA50
:1037B00006220CA90DF149000C95ADF83450FEF726
:1037C0001DFA0EA8FFF750FCEEE600BFC55501003C
:1037D000345E0100E6690100ED6901001364010037
:1037E000815B0100D15F0100366401009E69010028
:1037F0006564010099640100D45C0100CB640100A0
:1038000093670100A35B0100ED64010020650100E6
:10381000003B0020566501000D200000C25C010045
:103820005A650100CD5B01007F650100A068C9E712
:10383000A668B6F8018011F0FFF80495CDF80C8069
:10384000337802930190AD4BAD4AAE490095AE4836
:10385000FDF79CFB404601F079F8074638B98DE842
:103860002001A64B0295A94AA649A948ADE633789E
:103870009BB93279F37843EA0223A0F85A30B2793F
:10388000737943EA0223A0F86030F379327A43EA8D
:103890000223A0F8623000F06DFD384601F0A4F874
:1038A00082E6A768B7F80180404601F04FF8064667
:1038B00020B902958DE82001964BD4E73B7823B9D7
:1038C0000822F91C6430FEF799F9934D95F8792098
:1038D000D2070CD596F86530DB0708D53046FFF7E0
:1038E00079FB20B98021301DFEF7B1FBECE695F89D
:1038F00078309F0640F1988096F864309D0640F13C
:1039000093803046FFF786FB002840F08D804FF40F
:103910008071E8E7A368D9789A781F8842EA012283
:10392000ADF8382059791A7942EA0122ADF83A20E7
:103930009A79D97942EA0122ADF83C201A7A5B7A69
:10394000BEB242EA03233046ADF83E3000F0FEFF3F
:10395000804668B902958DE86000704B6B4A6949F2
:103960006B48FDF713FB02213046FFF777FC1BE69F
:103970000EA900F013FD28B91E213046FFF76EFC9A
:1039800040468BE70E2142F22000FEF715FC06466A
:103990000028F5D00E2108300FF0F8FF0E22054662
:1039A0000021FEF757F9BDF838306B80BDF83A308A
:1039B000AB80BDF83C30EB80BDF83E302F802B81D2
:1039C000314642F22000FEF749FED9E7A368B3F87A
:1039D00000B05F88B3F80690B3F80480B3F808A08D
:1039E000584600F0B3FF064620B902958DE820083E
:1039F0004B4B38E711F020F8494B0190404A4149C0
:103A00000695CDF814A0CDF81090CDF80C80029753
:103A100000954448FDF7BAFA6FF48071301DFEF747
:103A200027FBC0057FF550AE3046FEF733FB4BE673
:103A3000A768B7F80180404600F088FF064620B925
:103A400002958DE82001384B0DE710F0F5FF059544
:103A50003B790493FB7803933B78029301900095A4
:103A6000314B274A27493148351DFDF78FFA6FF052
:103A700080012846FEF7FCFA01067FF525AE264BAD
:103A800093F878309A06CFD596F864309B06CBD55C
:103A90003046FFF7BFFA0028C6D14FF480712846A0
:103AA00022E7A66810F0C8FF0395337802930190CF
:103AB0001F4B134A134900951E48FDF767FA6FF034
:103AC00020011D48FEF7D4FA337843B9711C402217
:103AD0001A48FEF793F810211748FEF7B8FA184B6A
:103AE0001D68771C002D3FF45FAD32782B68002AEB
:103AF0000CBF3846002098476D68F3E7395C010039
:103B0000E6690100ED690100A96501009E690100F7
:103B1000D3650100E55B0100903A0020275C0100BD
:103B2000FD5B010007660100105C010043660100B7
:103B3000515C010082660100003B0020B4020020BD
:103B4000F4020020A66810F077FF03953378009503
:103B5000A04D02930190A04AA04BA149A148FDF7B6
:103B600015FA2A68002A3FF41FAD337823B9701C78
:103B7000904700232B6017E50020F9E738460FF047
:103B80003BFF804610F058FF03950190CDF8088068
:103B90000095954B904A92499448FDF7F7F9B8F192
:103BA000000F3FF401ADA668092138460FF01CFF55
:103BB000337A334406F1010993F909A010F03CFF70
:103BC00083464846FEF7C6F80695CDF814A0337A2A
:103BD0000493337803930290834B81497E4A84484F
:103BE0008DE82008FDF7D2F97378023B012B494696
:103BF0000EA800F29D80FEF727FA9DF83830023BB0
:103C00008DF83830DFF818B2DBF80030BBB1384639
:103C10000FF002FFA3890993337AA38108903B46F2
:103C20003278DBF800B051460EA8D8472369BDF8BA
:103C3000202013FA82F3A360BDF82430A381092168
:103C40006C483278FEF7AAFA8346002866D1012A2A
:103C500064D801210EA800F0A9FE824600285DD09C
:103C600008216448FEF79AFA002864D102216148CD
:103C7000FEF794FA10B16048FEF7A6FB5F490AF11F
:103C80004B000AF1520BFEF7DFF949465846FEF7A2
:103C9000DBF9192142F20D00FEF78EFA03460028E7
:103CA0004ED01921083009930FF070FE1922814679
:103CB0000021FDF7CFFF0022602189F8001089F86C
:103CC000012089F8021089F80320594609F10500FE
:103CD0000892FEF7B9F99AF84B1089F80C10BAF867
:103CE0005C10A9F80D10BAF85E10A9F80F10BAF818
:103CF0006010A9F81110099BBAF86210A9F8131006
:103D0000089A194642F20D00FEF7B4FAC0B95046BF
:103D1000022100F01FFF504600F066FE317A38465F
:103D2000013108F1FF380FF05FFE5FFA88F836E7DF
:103D3000FEF78AF966E75846FEF710FB002895D093
:103D40001F238AF808300021504600F003FF504638
:103D500000F04AFE0020FEF70FFDDFE7A789A0680C
:103D60003946FDF79BFF8DE8E0000390244B254A80
:103D70001B4925480495FDF709F915E4234B244A0E
:103D8000174902968DE8C0002248FDF7FFF820464B
:103D90000FF0CAFD6FF0150026E404F108070221B8
:103DA00038460FF021FE98F80060052E3FF447AC2E
:103DB0003E2E3FF49BACA789A0683946FDF76EFF05
:103DC000049503908DE8E000134B0E4A0449134814
:103DD000D1E700BFB0020020E6690100625C01008B
:103DE000ED69010082660100B45C0100A466010077
:103DF000D2660100003B0020913A0020903A00205A
:103E0000C25C0100286A010008670100345E0100FD
:103E10009E6901006F670100D45C01003D670100ED
:103E2000FC0200202DE9F04F037D8768804C012BB8
:103E300089B005460DD07F4B7F4A80498048019468
:103E40000094FDF7A3F8404080F311884FF0040080
:103E500002DF8289012A06D801940094754B764AC4
:103E600076497848EDE73A78132A00F2D9809340F2
:103E700013F40C2F00F0D48000F108060221304624
:103E80000FF0B2FD3B780F2B2CD0132B49D00E2B0B
:103E900040F0BC80AB68B3F8017093F8008010F07C
:103EA000CBFD694B694A01906449039402970094E1
:103EB0006748FDF76BF8032130460FF095FDAB68BE
:103EC0002A4619783846FEF7F3F8B8F1000F02D009
:103ED000604810F0C0FD28460FF026FD002009B014
:103EE000BDE8F08FAF68B7F8028097F8019010F046
:103EF000A3FD564A0190584B50490394CDF80880D1
:103F000000945348FDF742F8042130460FF06CFD51
:103F10002A4639784046FEF7CBF8B9F1000FDAD0DF
:103F2000D6E7D5F808B0DFF8149110F085FD0394BA
:103F30009BF80030029301900094484B434A3F495C
:103F40004748FDF723F84FF000089BF800309845EC
:103F5000C1DA0BEB8803B3F801A0B3F8037010F0DB
:103F60006BFD049401900397CDF808A000943B4B9F
:103F7000364A3C484946FDF709F84FF02003EFF375
:103F8000118283F311885046079200F0DFFC064649
:103F900070B902948DE81004304B274A32484946E4
:103FA000FCF7F4FF079B83F3118808F10108CCE7C5
:103FB000079B83F3118800F1180AD7B14FF0200353
:103FC000EFF3118083F31188316929B172690B68AD
:103FD0003361914208BF736180F31188013FBFB222
:103FE00059B9019400941D4B134A20484946FCF7E7
:103FF000CDFF304600F0F8FCD7E7504610F066FAE7
:10400000304600F0B3F910F026FDD6E728460FF051
:104010008BFC01940094074B074A0849144810E7A9
:1040200001940094034B044A0449124809E700BF75
:10403000C55501003C5E01009E690100ED6901006B
:10404000D267010016680100945C0100E669010076
:1040500050680100383B0020A55C0100895B01002D
:104060007368010097680100BF680100EB680100F8
:10407000126901003569010030B5134BD3F8D44003
:1040800085B00546CCB9C268D2B10269C2B1C3F8E5
:10409000D40010F0D1FC0D4A2B680392002B08BF0E
:1040A0001346029301900092094B0A4A0A490B48B1
:1040B000FCF76CFF204605B030BD6FF04400FAE716
:1040C0006FF01500F7E700BF903A0020C5550100DA
:1040D000495E0100E6690100ED690100AB60010085
:1040E00070B52A4DD5F8D43086B006466BB9284B4A
:1040F00001930093274A284B28492948FCF746FF9B
:104100006FF01204204606B070BD012105F1700069
:10411000FDF79DFF10F0010034D1224B22491E60B3
:104120006FF00803059004900393029001900090B3
:104130001E4B1F484FF46B7210F08AFED5F8D43036
:10414000DB689847044650B1114B02938DE8180084
:10415000104A114B11491748FCF718FFD2E726B94E
:1041600006B0BDE87040FEF739BB012105F16C00D7
:10417000FDF76DFFC307C5D405F164010E4810F0CB
:10418000A5F9BFE76FF04404BCE700BF903A0020F8
:10419000C55501009E690100605E0100ED690100E6
:1041A0004C5F0100F8020020381A00209132000014
:1041B00000030020755F0100B8190020002070473F
:1041C00070B50378012B05460E4610D84378012BB5
:1041D0000DD841880B1F9BB243F6FC70834206D872
:1041E000AA88131F9BB2834201D891422BD26FF051
:1041F00015040EE008211948FDF7D0FF58B110460C
:10420000FEF7ACF8044630B16FF400711348FDF7C7
:104210002FFF204670BD6B787BB14FF400610F48D3
:10422000FDF715FFAA8869882878FEF761FA044629
:104230000028E9D10A4B1E60EBE76FF400610748E4
:10424000FDF716FFEEE74FF400710448FDF7FFFE9F
:1042500010F40072CED06FF04404DAE7003B002087
:10426000FC02002008B56FF400710748FDF700FF5D
:10427000830506D5054B00201860BDE80840FEF711
:104280007BBA6FF0440008BD003B0020FC02002018
:1042900038B5054605480FF017FB044620B100214C
:1042A00008300FF030FB2575204638BDBC3F00209C
:1042B0007FB506464FF02003EFF3118283F3118898
:1042C000134B0025D3F8C040C3F8C05082F31188C7
:1042D00010F0B2FB0F4B03930190009302940E4B2E
:1042E0000E4A0F490F48FCF751FE34B93146012000
:1042F00004B0BDE87040FFF7CBBF012304F1080014
:104300002375A58129460FF0FEFA204604B070BD42
:10431000903A0020C55501006A5E0100E66901007F
:10432000ED690100825E010038B5064B1C68054648
:1043300004B938BD236813B1297A284698472469FF
:10434000F6E700BF70030020BFF35B8F0068BFF388
:104350005B8F7047438910B504462BB1C0680FF0DE
:10436000E3FA0023E360638110BD0000004870475A
:104370001C3B0020084B70B51C68054604B970BD95
:10438000E6683EB1B5F86230B5F86020B5F85A106D
:104390002846B0472469F1E770030020F8B50746C6
:1043A00008460E46FEF784F8054610B90025284653
:1043B000F8BD094B1C68002CF9D0A3680BB924691F
:1043C000F9E73146384698470028EFD03046FEF7E7
:1043D0006FF80028F3D1E9E770030020024B1A6858
:1043E00002611860704700BF700300202DE9F041A2
:1043F00086B090460D46664E044610F01DFB0596AD
:10440000CDF81080AB890393238802930190009626
:10441000604B614A61496248FCF7B8FDB8F1010F91
:10442000374638D0B8F1020F40F09480AB681E8850
:1044300010F002FB04970396AB8902930190554B51
:104440000097554A55495748FCF7A0FD638953B179
:10445000019700974F4B544A50495448FCF796FD3A
:104460002046FFF777FFAB89F61A0436668110F015
:10447000E3FA638902930190464B03970097464AFB
:1044800046494B48FCF782FD6389002B51D0E5601B
:1044900006B0BDE8F081638983B93E4B424A3F498B
:1044A000444801960096FCF771FD2046FFF752FF45
:1044B000284606B0BDE8F0410FF036BAAA899A4204
:1044C00006D901960096334B374A34493A48EAE711
:1044D00010F0B2FA638904960393AB8902930190BA
:1044E0002C4B2D4A2D4900963448FCF74FFDE068CF
:1044F000B5F80C8008300FF093FA804506D9019684
:104500000096244B284A25492D48CCE7E068AA8923
:10451000A96808300FF040FA6389AA899B1A638161
:1045200028460FF001FA6389002BB1D1E568638159
:10453000E360AB68AA891B88191D914214D00292CE
:10454000019303970097134B174A14491D48FCF732
:104550001DFDADE702968DE840010E4B124A0F4952
:104560001948FCF713FDA0E710F066FA0397AB8932
:10457000029301900097074B074A08491348FCF73C
:1045800005FD2946204606B0BDE8F04101F0B4B86B
:10459000C5550100406E0100E6690100ED690100AA
:1045A0000A7001003B7001009E6901006770010004
:1045B00094700100B3700100E17001000571010009
:1045C000317101009671010068710100C271010032
:1045D000F0B50C4687B00646174610F02DFAA389B1
:1045E000134D0393338802930190124B0595049762
:1045F0000095114A11491248FCF7C8FC737A032B45
:104600000ED00C4B0F4A0D49019500950E48FCF752
:10461000BDFC20460FF088F96FF0380007B0F0BD00
:1046200006F12800676121460FF071F90020F5E7D7
:10463000C55501004D6E0100E6690100ED690100FC
:10464000267201009E6901005B7201002DE9FF41A5
:10465000064610F0F1F9134B039301900093029674
:10466000114B124A12491348134DFCF78FFC06F107
:1046700018074FF00008002138460FF04BFF0446A2
:1046800010B904B0BDE8F08163680BB130469847BB
:104690002B6823606B68C4F804802C60002BEAD17F
:1046A0006C60E6E7C55501005D6E0100E66901003A
:1046B000ED690100416F01001C0400202DE9F04765
:1046C00088B00F461446574E0546994610F0B4F987
:1046D00006960594BB89544A04930190534B544960
:1046E0000397029500965348FCF750FC4FF0FF31BA
:1046F000514810F0D8F9514B03F14000FFF724FE68
:10470000B04630B15A7A033A012A02D81846FFF768
:104710009DFF6B7A032B66D1042107F108000FF08F
:104720005BF92A88D7F814A0454E42EA0432028089
:10473000BB89043B438002233B7510F07DF9CDF823
:1047400010800190CDF80CA00295CDF800803D4B73
:10475000354A37493C48FCF719FC346872682368CD
:104760003360944208BF7360C4F804A04FF0200384
:10477000EFF3118283F31188002323606B69002B10
:1047800040D16C612C6182F311883846FDF73CFF03
:10479000002843D00190CDF80880CDF80080234B4D
:1047A0002A4A23492A48FCF7F1FB4FF02003EFF394
:1047B000118183F311882B69002253B19C422AD1C5
:1047C000236812BB6A692B61944200D16B6100239C
:1047D000236081F31188002363603368236073686A
:1047E000346003B97460144810F035F9B9F1000F62
:1047F00004D038460FF098F84FF00009484608B04A
:10480000BDE8F0871C606C61BDE713606B699C427A
:1048100008BF6A61DBE71A461B68CEE74FF0010963
:10482000ECE700BFC5550100E66901007E6E01009E
:10483000ED6901000C7301001C3B00208403002083
:104840001C0400206F6E0100447301009E6901008A
:1048500017600100F8B5174C04F1400607463046D2
:10486000FFF772FD054608B10020F8BD0146982209
:104870002046FDF7EFF9BFF35B8F012356E8002FC9
:1048800046E800310029F9D1BFF35B8F0722394692
:1048900004F14400FDF7B2F91823A4F85C30282392
:1048A00004F17000A570A4F85E30034910F0BAFB63
:1048B0002046F8BD840300204D50000038B50D4659
:1048C000044600F1440107222846FDF782F960B151
:1048D000E378072233B904F152012846BDE8384095
:1048E000FDF777B904F14B01F7E738BD30B5044661
:1048F00087B000F14005BFF35B8F55E8003F0133FF
:1049000045E80032002AF8D1BFF35B8F10F094F82D
:10491000024628462188FFF717FD074B04930390B2
:10492000029101920093054A054B06490648FCF79F
:104930002DFB204607B030BDC5550100E6690100DA
:10494000CD6E0100ED6901000072010008B50A4B4F
:10495000014603F14000FFF7F7FC58B15A7A033AD9
:10496000012A07D81A888A4204D11846BDE80840AF
:10497000FFF7BCBF002008BD8403002010B50A4C1F
:10498000014604F14000FFF7DFFC50B1A37843B9C2
:104990002046FFF793FF20B92046BDE81040FFF7FF
:1049A000A5BF002010BD00BF8403002038B50D4C0A
:1049B000034604F140000D46FFF7C6FC80B1A27823
:1049C00072B93BB9637AAB420AD10648BDE83840B8
:1049D000FFF78CBF19462046FFF770FF0028F1D083
:1049E000002038BD8403002030B5054687B000F1B3
:1049F0004004BFF35B8F54E8003F013B44E80032C2
:104A0000002AF8D1BFF35B8F10F016F8024620465B
:104A10002988FFF799FC074B0493039002910192B8
:104A20000093054A054B06490648FCF7AFFA07B064
:104A300030BD00BFC5550100E6690100D96E010017
:104A4000ED6901000072010038B5044600F1280547
:104A5000002128460EF03EFF50B92046FFF7F6FD34
:104A60002046FFF777FC2046BDE83840FFF7BCBF83
:104A70000EF05AFFECE70000F0B585B006460FF0E7
:104A8000DBFF2A4D01902A4B2A4A2B4902950095BB
:104A90002A48FCF77BFA2A4B0022012130469A6013
:104AA00010F007FC274B03F14000FFF74DFC1F46B9
:104AB00010B9012005B0F0BD5A7A92B9BFF35B8FEF
:104AC0001A1D52E8001F21F0400042E80004002CAB
:104AD000F7D1BFF35B8F4A0603D51846FFF7B4FF43
:104AE000E7E77C7A032CE4D10FF0A6FF104B01908E
:104AF000104A11490395029700951348FCF746FAAE
:104B0000124B0022042106F1140010F0D2FB012305
:104B100086F8203006F128000D4B0022042110F009
:104B2000C8FB022386F834302046C3E7C555010090
:104B3000916E0100E6690100ED6901005E6F010000
:104B4000B83B002084030020746F01009C03002008
:104B5000AC0300202DE9F041044686B00E460FF06C
:104B60006BFF637A6D4F0190042B96BF6C4A6D4BBF
:104B700052F823300293042E96BF694A694A52F8CC
:104B80002620039204970097674B684A6849694852
:104B9000FCF7FCF9657AAE42B8460AD10197009756
:104BA000614B654A62496548FCF7F0F906B0BDE81B
:104BB000F081667295B1022D14D0637A042B00F255
:104BC000A08001A252F823F02B4C0000AD4B000056
:104BD000E74C0000F54B0000AD4B00002046FFF70E
:104BE00085FEEAE7A378002BE7D104F1700010F00E
:104BF00029FAE2E7A378022BD8D004F128000FF0BD
:104C00005DFC04F118000FF059FC00214C4810F035
:104C1000F3FB00232046A363E36300F00BFC204674
:104C200006B0BDE8F041FFF77FBBA378022B05D1AA
:104C3000204606B0BDE8F041FFF7D6BEEB1E012BC3
:104C400044D8204600F030FC3E4B1D68EDB93E4E86
:104C50003E4F4FF02003EFF3118183F31188236956
:104C60002BB160691A682261834208BF626181F3D7
:104C700011888BB132681A6072685D60336002B966
:104C8000736038460FF0E7FEE3E76B6813B1217AF3
:104C9000204698472D69D9E7A3781BB904F1700025
:104CA00010F0D0F9BFF35B8F043454E8003F43F0B9
:104CB000400344E80032002AF7D1BFF35B8F20485D
:104CC000002106B0BDE8F04110F096BB022D03D1E3
:104CD0002046FFF729FBABE7012D7FF467AF237A6E
:104CE000002BA5D0F4E7A378002B7FF45FAF184822
:104CF00040F6B83204F1700106B0BDE8F04110F0A2
:104D000005BACDF808800196CDF80080064B0A4A16
:104D100007491048FCF73AF948E700BFC5550100BC
:104D20002C6E01007A720100BB6E0100E669010081
:104D3000ED69010084720100286A0100A27201007D
:104D4000B83B0020700300201C0400201C3B002006
:104D5000B8190020C07201004430704770B5064693
:104D600008460D46FDF7A4FB08B900241CE01D48C9
:104D7000FFF7EAFA8305F8D43046FFF7FFFD044653
:104D8000A0B1437A012B06D001D3032B0CD92046C6
:104D9000FFF72AFEE9E76B88A0F85E30AB88A0F841
:104DA0006030EB88A0F86230204670BD3046FFF7D7
:104DB00051FD04460028F7D0072231465230FCF757
:104DC0001DFF6B88A4F85E30AB88A4F86030EB88D8
:104DD000A4F8623020460121FFF7BCFE0120FDF758
:104DE000CBFCE1E7003B002070B506460D460029EC
:104DF0003BD13046FFF7C2FD044628B93046FFF7E5
:104E000029FD0446002851D0231D002D35D06A8885
:104E1000A4F85E20AA88A4F86020EA88A4F862209A
:104E2000BFF35B8F53E8002F42F0010143E800100D
:104E30000028F7D1BFF35B8FD10702D42046FFF7DC
:104E400055FD637A63B91B48FFF77EFA830707D5E0
:104E50001DB101212046FFF77DFE0020FDF78CFCEF
:104E60002046FFF7C1FD002070BD0846FDF720FB7E
:104E70000028BED16FF0150070BDBFF35B8F53E803
:104E8000002F22F0010143E800100028F7D1BFF302
:104E90005B8FD207D5D52046FFF7A6FD637A012B9D
:104EA000CFD129462046FFF755FECAE76FF00B0029
:104EB00070BD00BF003B002070B50E4681780446EF
:104EC00011B94430FFF790FF637A013B032B03D8FD
:104ED000DFE803F006101B0E6FF03805284670BDA2
:104EE000204626720021FFF735FE0020FDF744FC26
:104EF0000025F3E704F1700010F0A4F8002142F25D
:104F00000E00BDE87040FDF7A9BB032140F206404A
:104F1000FDF752F9054698B1032108300EF036FD31
:104F2000238803808670294640F20640FDF796FBF1
:104F300005460028D2D104212046FFF70BFECDE71D
:104F40006FF03605CAE7F8B507460D4642F2130082
:104F50000E21FDF731F90646C8B10E2108300EF0DA
:104F600015FD002104460E22FCF774FE3B882380C9
:104F70002B8863806B88A380AB88E380EB882381D8
:104F8000314642F21300BDE8F840FDF767BB6FF011
:104F90003600F8BD30B50D468BB004460FF04CFD21
:104FA000EA880792AA8806926A8805922A88214B85
:104FB000049294F8642008930392019000931E4A8F
:104FC0001E4B02941E491F48FBF7E0FFB4F85A300D
:104FD0002A889A420CD86A889A4209D3B4F8602089
:104FE000AB889A4204D1B4F86220EB889A421CD074
:104FF00004F1700010F026F8134B93F878309A07FC
:1050000003D594F864309B0701D4E37833B929467B
:1050100020460BB0BDE83040FFF795BF294620463B
:105020000BB0BDE8304000F0A7BB6FF044000BB000
:1050300030BD00BFC5550100E6690100E76E010003
:10504000ED690100FF6E0100903A0020034607B5AC
:1050500013F8672C022AA0F1700005D11321FFF785
:105060002BFF03B05DF804FB33F8142CADF80020DF
:1050700033F8122CADF80220694633F8102C33F8BF
:105080000E3CADF80420ADF80630FFF783FFE8E7EB
:1050900038B5084B0D46002808BF18464FF0FF31C1
:1050A0000EF012FC291D044608300EF02CFC2046A0
:1050B00038BD00BF5C3F00202DE9F04106460C469C
:1050C00016480021FFF7E4FF3378032B05464FF025
:1050D000000605D00EF028FC35462846BDE8F081D4
:1050E000466100F108070E4E3846B6F888800EF08B
:1050F00097FC80450CD2B6F8886054F8081F3246F9
:1051000038460EF049FC314620460EF06DFCE4E7CF
:1051100038460EF085FC86B2EFE700BF7C3F0020EA
:10512000903A0020F0B587B004460FF085FC454D5D
:105130000190454B039502940095444A44494548E3
:10514000FBF724FF637A2E460BBBBFF35B8F231D57
:1051500053E8002F22F0400143E800100028F7D167
:10516000BFF35B8F530612D50FF066FC23880293C2
:10517000019003950095344B344A35493648FBF786
:1051800005FF204607B0BDE8F040FFF75DBC0021F9
:1051900004F128000EF09EFB054668B901960096C2
:1051A000294B2E4A2A492E48FBF7F0FE404080F357
:1051B00011884FF0040002DF0FF03EFC0596AB892A
:1051C0000096284E04930190204A214903950294A9
:1051D000254B2648FBF7DAFEA989B6F888209142CC
:1051E00008D800231A4629462046FFF767FA48B137
:1051F00007B0F0BD04F1090729463846FFF75CFF08
:10520000014628B9284607B0BDE8F0400EF08CBB37
:10521000012300222046FFF751FA0028F2D0AA8984
:10522000B6F888309A4202D800230122DBE72946EB
:105230003846FFF741FF01460028E3D001231A4614
:10524000E8E700BFC5550100A86E0100E66901004E
:10525000ED690100416F0100A56F01009E69010029
:105260009A6B0100903A0020886E0100DF6F010008
:10527000034BC01A034BC0105843C0B2704700BF65
:10528000840300201BCA6B28124B134A196810B5FF
:105290001160596801B95A60596892600F4A1A60E2
:1052A00001B95A6001F066FB02F070FC044670B967
:1052B00000F08AFA0A48FFF747F840B10948FFF7BB
:1052C00043F8C30703D501210748FFF743FC2046F5
:1052D00010BD00BF1C040020740300207C030020CC
:1052E000C4030020880300208403002070470000CE
:1052F0001FB50B4A136833B90A4850600A60184654
:1053000005B05DF804FB084B029301900093074A37
:10531000074B08490848FBF739FE6FF00B00EFE731
:1053200024040020D43B0020C55501009E690100E3
:10533000E2730100ED69010051740100F8B5074600
:105340000E46002004211546FFF7A2FE0421044664
:1053500008300EF01BFB0770467045802046F8BDF4
:105360007047000000238360054B596800F1080274
:1053700011B95A601A6070470A605A60704700BFDE
:10538000BC040020836B10B513B1083B002203B9A5
:1053900010BD8B4203F108040FD199683AB9C26B72
:1053A0008163944200D1C16300229A6010BD1160F4
:1053B000C16B8C4208BFC263F6E72246002CE7D0DF
:1053C0009B68002BE4D0083BE1E7036810B5044676
:1053D0002BB143685B6803B1984700232360E368FF
:1053E0001BB12046BDE81040184710BD30B50C4B2E
:1053F0000C4A0D4985B0A0F11004054602938DE8D2
:1054000018000A480A4BFBF7C1FD55F8100C21465D
:10541000FFF7B8FF204605B0BDE83040FFF7D5BF25
:10542000C55501009E690100ED690100A5750100E7
:105430008C7301001A4B2DE9F7431C6806462CB10A
:105440000027DFF86080083CB94614B903B0BDE816
:10545000F083636801A930469847002818DB019D56
:1054600023882B87A5F85830414605F110000FF02E
:10547000D9FDAF60F26B05F1080372B9F363B36352
:1054800001982E604368C5F80C901B6803B19847DB
:10549000A468002CDAD0083CD7E71360F363EFE789
:1054A000BC040020ED530000836B10B5A3B1B3F131
:1054B00008000AD110BD083CFFF787FF64B1A3685C
:1054C00003B1083B20461C46F6E71C68002CF2D1CD
:1054D000BDE81040FFF779BF10BD0431FFF7D8BD1C
:1054E000F8B5144605460F4602F1080004211E4691
:1054F0000EF072FAA18947800439018032462146B4
:105500002846BDE8F840FFF763B80000F0B58B8986
:10551000032B87B007460D4609D85A4B01930093D9
:10552000594A5A4B5A495B48FBF730FD14E008468C
:10553000042150F8084F66880EF056FAAA89964260
:105540000CD0504B03930192009302964F4B4E4A5E
:105550004F495148FBF71AFD07B0F0BD617839B9E2
:10556000484B01930093484A484B49494B48DBE775
:105570002378122B29D0132B1DD0012BECD0414ABC
:1055800002928DE80C004249404B454A4548FBF7E2
:10559000FDFC022261783D680120FFF7CFFE022169
:1055A000044608300EF0F2F90023037043702246DF
:1055B0000521284625E0012ECED8324B01930093D9
:1055C000314A394B32493948AEE7072E07D82D4BBF
:1055D000019300932C4A364B2D493648A4E73C688A
:1055E000E6788EB102220120FFF7A8FE02210546CF
:1055F00008300EF0CBF90023037043702A460521D2
:105600002046FFF76DFFA7E7AB6858781A7842EAA3
:105610000022ADF81020D8789A7842EA0022ADF83E
:10562000122058791A7942EA0022ADF814209A79AA
:10563000DB79132042EA03230222ADF81630FFF78C
:105640007DFE04A907462046FEF7A8FE0221054676
:1056500007F108000EF09AF97DB10670467000233C
:105660003A4605212046FFF73BFF002D3FF474AF7B
:1056700004A92046FFF767FC6EE70123037045701D
:10568000EDE700BFC55501009E690100C973010027
:10569000ED69010088740100B6740100E77401002F
:1056A000286A0100777501009E73010018750100DA
:1056B000B073010044750100806B00B1083800B977
:1056C0007047B0F858308B42FAD083680020002B26
:1056D000F6D0A3F10800F2E7806B00B1083800B9FA
:1056E0007047038F8B42FBD083680020002BF7D0DC
:1056F000A3F10800F3E700007FB58B89032B064672
:105700000C460ED8154B01930093154A154B1649BC
:105710001648FBF73BFC204604B0BDE870400EF095
:1057200003B90846042150F8083F5D880EF05CF983
:1057300029463046FFF7D0FF50B9084B02938DE859
:1057400028000B4A074B08490A48FBF71FFCE2E711
:10575000436821461B699847DDE700BFC555010036
:105760009E690100D4730100ED690100EF7301002F
:10577000286A01001C74010070B5124B1A780132BE
:1057800012F0FF0208BF01221A700C460546197874
:1057900008221220FFF7D2FD0821064608440EF029
:1057A000F5F82388038063884380A3888380E38897
:1057B000C3803246284600230521FFF791FE0020D2
:1057C00070BD00BFB80400200148FFF7CBBD00BF8B
:1057D000C83B00200620704710B50A4A002312F883
:1057E000334084424FEAC30102D10A44907810BD8D
:1057F00001331B2BF3D110F0400F14BF0020062003
:1058000010BD00BFCC7801007FB5114D2C680E464D
:1058100084B9E42221462846FCF71CFA02220D4BEB
:105820006B6005F1CC0011460FF00CF93560204695
:1058300004B070BD084B029301900093074A084BD7
:1058400008490948FBF7A2FB6FF00B00F0E700BF27
:10585000C4040020F43B0020C55501009E690100EE
:1058600044760100ED6901006077010010B504463F
:10587000006908B10EF058F8A3680BB120469847AC
:10588000204614220021BDE81040FCF7E3B938B5EA
:10589000056801F108000C460EF0B6F8A389A2686D
:1058A0000146284602F02EF8002038BD2DE9FF41C0
:1058B0000D6806460C464FF000084FF4205302A92D
:1058C00000682F688DF80880ADF80A30FCF714FBEB
:1058D00098B142F6010303A930688DF80C80ADF849
:1058E0000E30FCF709FB40B1236923B1328A598895
:1058F000914200D25A80012012E061683068FCF7C2
:10590000FBFA10B100232361F5E7E368A0681A7879
:105910004AB1B5F85A3081895B1A934203DA002004
:1059200004B0BDE8F081042108300EF02FF8338A6E
:10593000A1682061038043808A89B5F85A3089685C
:10594000D6F804809B1A00250A44009531469BB284
:105950003846C047011EE2DBE06802780B1D2AB919
:105960000370A06808300EF011F8C4E79A42F8D02E
:10597000A2689389043B9381D1E78B6870B5054693
:105980000C460E6863B94868012108300DF0FEFF2F
:105990002B68A0601B78002B0CBF0123022303702F
:1059A000A3681B78012B03D0022B1AD0002070BDF6
:1059B0002B681B78002BF9D16068042108300DF0AA
:1059C000E5FFE0602B8A03802B685B884380636877
:1059D000B6F85A009B89C01A042894BF0020012001
:1059E00070BD2B681B78022BE0D160681221083053
:1059F0000DF0CCFFE06029682B8A20F8023B1022D2
:105A00000131FCF7FBF86368B6F85A009B89C01AAD
:105A10001228E2E72DE9F0410E6888B005460C46F1
:105A2000002742F6010302A90068D6F800808DF82D
:105A30000870ADF80A30FCF75FFA28B90023A360BC
:105A4000012008B0BDE8F0814FF4205303A9286875
:105A50008DF80C70ADF80E30FCF74EFA40B1A3682B
:105A6000002BEDD02A8A59889142E9D25A80E7E783
:105A70006268B6F85A3092899B1A032BE1D9102339
:105A800000900DEB03026E6829464046B047021EA7
:105A9000D4DB237C9A42D1D104A9E068FCF799F8C1
:105AA0000028CBD160746068042108300DF06EFFCF
:105AB0002B8AA06003804380C2E7000010B5172343
:105AC0000446A0F85A3043870649A4300FF0AAFADA
:105AD0000023C4F89C30C4F8A0302068BDE8104012
