:10000000282D0020011B0000551B00008519000051
:100010008519000085190000851900008519000068
:100020008519000085190000851900008915000058
:10003000851900008519000045150000851900008C
:10004000C51A0000130E0100C51A0000C51A0000F1
:10005000C51A0000C51A0000C51A0000C51A000024
:10006000C51A0000C51A0000C51A0000C51A000014
:10007000C51A0000C51A0000C51A0000C51A000004
:10008000C51A0000C51A0000C51A0000C51A0000F4
:10009000C51A0000C51A0000C51A0000C51A0000E4
:1000A000C51A0000C51A0000C51A0000C51A0000D4
:1000B000C51A0000C51A0000C51A0000C51A0000C4
:1000C000C51A0000C51A0000C51A0000C51A0000B4
:1000D000C51A0000C51A0000C51A00000000000083
:1000E0007912000000000000F91800000000000074
:1000F000F918000000000000F918000000000000DE
:10010000F918000000000000F918000000000000CD
:10011000492E010000000000F91800000000000056
:10012000F918000000000000F918000000000000AD
:10013000F918000000000000D90D010000000000C7
:10014000F9180000243F00204D310100000000009C
:10015000F918000000000000F9180000000000007D
:10016000F918000000000000A113000000000000CA
:10017000F918000000000000F9180000000000005D
:10018000F918000000000000F9180000000000004D
:10019000F918000000000000F9180000000000003D
:1001A0000D0E010000000000F91800000000000022
:1001B000F918000000000000F9180000000000001D
:1001C000F918000000000000F9180000000000000D
:1001D000F918000000000000F918000000000000FD
:1001E000F918000000000000F918000000000000ED
:1001F000F918000000000000F918000000000000DD
:10020000F918000000000000F918000000000000CC
:10021000F918000053B94AB9002908BF00281CBFCB
:100220004FF0FF314FF0FF3000F08EB9ADF1080C08
:100230006DE904CE00F01AF8DDF804E0DDE90223F0
:1002400004B07047430803F05533C01A830803F025
:10025000333300F03330184400EB101000F00F304F
:1002600000EB002000EB0040000E70472DE9F04746
:100270008C460D460446089E002B51D18A421746F3
:100280006DD9B2FA82FEBEF1000F0BD0CEF1200C78
:1002900001FA0EF520FA0CFC02FA0EF74CEA050CF6
:1002A00000FA0EF44FEA174A250CBCFBFAF81FFAC5
:1002B00087F90AFB18CC45EA0C4508FB09F3AB4269
:1002C0000AD9ED1908F1FF3280F02381AB4240F2E8
:1002D0002081A8F102083D44ED1AA4B2B5FBFAF062
:1002E0000AFB105544EA054400FB09F9A14509D968
:1002F000E41900F1FF3380F00A81A14540F2078143
:1003000002383C44A4EB090440EA08400021002ED6
:1003100061D024FA0EF4002334607360BDE8F087E6
:100320008B4207D9002E54D0002186E821000846D0
:10033000BDE8F087B3FA83F1002940F08E80AB422C
:1003400002D3824200F2FA80841A65EB0305012091
:10035000AC46002E3FD086E81010BDE8F08712B9F9
:100360000127B7FBF2F7B7FA87FEBEF1000F34D1D1
:10037000EB1B3A0C1FFA87FC0121B3FBF2F8250CAA
:1003800002FB183345EA03450CFB08F3AB4207D9DF
:10039000ED1908F1FF3002D2AB4200F2D180804665
:1003A000ED1AA3B2B5FBF2F002FB105543EA054487
:1003B0000CFB00FCA44507D9E41900F1FF3302D27D
:1003C000A44500F2B8801846A4EB0C0440EA0840AB
:1003D0009DE731463046BDE8F087CEF1200405FAAE
:1003E0000EF307FA0EF720FA04F83A0C25FA04F493
:1003F00048EA0308B4FBF2F14FEA184502FB114446
:100400001FFA87FC45EA044501FB0CF3AB4200FAF6
:100410000EF409D9ED1901F1FF3080F08A80AB426A
:1004200040F2878002393D44EB1A1FFA88F5B3FB8E
:10043000F2F002FB103345EA034500FB0CF3AB423C
:1004400007D9ED1900F1FF386FD2AB426DD90238F0
:100450003D44EB1A40EA01418FE7C1F1200722FA3F
:1004600007F88B4005FA01F448EA030320FA07FE77
:100470004FEA134CFD404EEA040EB5FBFCF94FEA7F
:100480001E440CFB19551FFA83F844EA054509FB85
:1004900008F4AC4202FA01F200FA01FA08D9ED18A8
:1004A00009F1FF3043D2AC4241D9A9F102091D4400
:1004B0002D1B1FFA8EFEB5FBFCF00CFB10554EEA0F
:1004C000054400FB08F8A04507D9E41800F1FF3502
:1004D00029D2A04527D902381C4440EA0940A4EBA0
:1004E0000804A0FB02894C45C6464D4615D312D0E0
:1004F00056B1BAEB0E0364EB050404FA07F7CB40E0
:100500001F43CC40376074600021BDE8F087184677
:10051000F8E69046E0E6C245EAD2B8EB020E69EB97
:1005200003050138E4E72846D7E7404691E78146CE
:10053000BEE7014678E702383C4445E7084608E74D
:10054000A8F102083D442BE7704700BF70B503785F
:100550008AB004460E4607AD032B20D8DFE803F02F
:1005600002191B1D1149284601F026FB62780492EE
:10057000A2780392E2780292227901926279009243
:10058000A37905950A4A1B21304600F00DFD0AB0FB
:1005900070BD0849E7E70849E5E70849E3E7084A85
:1005A0000A21284600F000FDE0E700BFFD470100FA
:1005B00026480100044801000B48010015480100CD
:1005C0001F48010030B589B00D46044604F026F8F6
:1005D00001A9FFF7BBFF35B12A4601A9084800F081
:1005E000D5FC09B030BD074B1B689C42F9D101A96D
:1005F000054800F0CBFC1321204604F0BFF8F0E7DB
:1006000049480100000000206748010030B5134C44
:10061000236883428BB00D461DD103F0FFFF03A971
:10062000FFF794FF2A4603A90D4800F0AFFC2068AD
:1006300003F034FE002323600A4B0B491868019035
:100640009B88ADF8083001A803F014FA014610B1F8
:10065000064800F09BFC0BB030BD00BF000000203E
:1006600092480100A047010071060000B048010057
:1006700070B5104C23688AB006460D46C3B9012AEE
:1006800016D803A9FFF762FF2A4603A90A4800F01B
:100690007DFC46350CDB03F03FFA48B9074A106889
:1006A000516801AB03C301A9304603F0B9FF2060D4
:1006B0000AB070BD0000002076480100A647010086
:1006C00007B5002003F066F9014628B10E4800F096
:1006D0005DFC03B05DF804FB0C4800F057FC0C48CF
:1006E00003F0BCFA0B4B0C49186800909B88ADF8DE
:1006F0000430684603F0BEF9014608B10748E6E752
:10070000074800F043FCE4E7D3480100F348010048
:10071000683A0020AE47010071060000B0480100B1
:100720000A4901000C4B1B78062B12D10B4B1868A1
:1007300010F00F000DD104331B6803F0F003302BD1
:1007400008D1074B1B6813F0F00F0CBF01200020ED
:1007500070470020704700BFE00F00F0E40F00F08A
:10076000EC0F00F008B54FF02003EFF3118183F395
:100770001188FFF7D7FF20B13D4AD36823F080737B
:10078000D360FFF7CFFF10B13A4B03221A60FFF797
:10079000C9FF30B14FF080430022C3F80C21C3F8E9
:1007A0001021354B1B78062B17D1344B1B681807CB
:1007B00013D1334B1B6803F0F002302A03D003F04F
:1007C000E003402B09D14FF08043D3F80024D20737
:1007D00003D56FF00102C3F800244FF01022D2F8C5
:1007E0000032002B274B03DBD2F80022002A2FDA3D
:1007F0000122C3F80425D3F80024002AFBD04FF0CF
:1008000010231522C3F800221E4A1346D2F8001402
:100810000029FBD04FF010221521C2F80412D3F8A2
:100820000024002AFBD00022C3F80425154AD2F880
:100830000034002BFBD0BFF34F8F1349134BCA6812
:1008400002F4E0621343CB60BFF34F8F00BFFDE7BC
:100850000122C3F840250C4B4FF0FF329A62DA6256
:100860000B4B0C4A1A6081F31188002008BD00BFB1
:10087000F0ED00E0A0050040E00F00F0E40F00F014
:10088000E80F00F000E0014000ED00E00400FA0590
:100890009C3A00200090D00308B504460846114653
:1008A0001A46A04713F0DCF901F0E4F810B5C47A59
:1008B000C0688C424FF00C04B6BF614304FB0101D9
:1008C0004158202492FBF4F401EB8401196002F0FA
:1008D0001F0010BD07B501ABFFF7E8FF019A012328
:1008E00003FA00F013680343136003B05DF804FBE0
:1008F00007B501ABFFF7DAFF019A012303FA00F015
:10090000136823EA0003136003B05DF804FB2DE9CC
:10091000F0474368058904460068A77A5D43284488
:1009200000214FF00C0E4FF0200CB94205DB0025E2
:1009300023899D4223DBBDE8F087D4F80C90B5FBFA
:10094000F3F20EFB01F81F2A09EB08064FEA9303A6
:1009500006F1040AC8BF1F3203F10303C6F804A05E
:10096000C6F808A0CABF92FBFCF2E17249F8080081
:1009700023F00303C8BF00EB82000131D5E76268B2
:10098000E36820686A431E1D865081189A684A6091
:100990009A682046116099602A460021FFF79AFF65
:1009A0000135C5E72DE9F04F8BB0867A00AF0446DC
:1009B000FB60B3000A3323F00703ADEB030D43687C
:1009C0003A6103336A4623F0030342F80439E946E7
:1009D0004FF0FF3500234FF00C0E581EB3427862E3
:1009E00009DA2BB110688008033020F00300506052
:1009F000506888420BD27B6A013314D13A6D0023D0
:100A000013606FF00B002C37BD46BDE8F08FE06837
:100A10000EFB030000F1040C40680432604518BF6F
:100A20001D460133D9E76B1CE8D0E16859F8252051
:100A30000C2303FB051353F8046F9E4261D096E824
:100A40000A00196031684B6023682946F31A204672
:100A500093FBF2F2FFF74CFFA9EB890309EB850A40
:100A6000BB617B6A9D4223680EDB3A6911467A6A54
:100A70000A60F31A59F8222093FBF2F3FA68136024
:100A80003B6D00201E60BEE75AF8042BF31A93FB5F
:100A9000F2F3BA699B007B610AEB4A0313444FF0FF
:100AA000010BFB6105EB0B03BB60DAF80080B96852
:100AB0000BFB08F33B62F3187B607B6920460BEB72
:100AC0000302FFF707FF7B682268218908F1FF38DE
:100AD0009844A8EB020862684A4390450AD2E2684B
:100AE000F969386A0A44111D31509168596091685A
:100AF0000B6093600BF1010BBBF1040FD5D10135F5
:100B0000AFE76FF00A007EE72DE9F04F85B0837AFA
:100B10009B000A3323F0070300AFADEB030D4368DE
:100B2000033323F003030546EA4600936C46012095
:100B300081424CD20C4616463246214628465AF887
:100B40002480D5F80090FFF7C5FE002C48D007F1AF
:100B50000C03324621462846FFF7A8FEFA68042314
:100B600090FBF3F083001068D84000F00F000F28CE
:100B700036D126F003034FF000097B6008F1FF3BFC
:100B80007B684B441A46214628463B60FFF7B0FE7F
:100B90003B689E4212D008FB03F2B5F808C06B68B0
:100BA000296802EB0B0E03FB0CF39E4501EB0200E0
:100BB00004D240688B5803608B58586009F10109D2
:100BC000B9F1040FDCD196FBF9F6013CB4E72368D8
:100BD0009B08033323F0030344F8043F0130A7E7E5
:100BE00008FB06F62A68696809EB060308F1FF3876
:100BF0009844A8EB02082A89514388450BD2E9683A
:100C00000C2202FB0414221D49F80620A2685A6037
:100C1000A2681360A3601437BD46BDE8F08F0020C2
:100C2000704700000B6801330B60014B1B681847CD
:100C3000A03A00202DE9F04F85B09B460E9CDFF8CE
:100C400090A0012CB8BF0124012B0CBF302320231E
:100C50001546804689460194029301260A27002200
:100C60000AF101040AB9AA451FD2B5FBF4F04946BE
:100C70003030C04701360122013F012FB5FBF4F1AE
:100C80004FF00A0304FB1155BAFBF3FAE8D14946C9
:100C900005F13000C047BBF1030F03D1019B9C1B42
:100CA000002C0FDC05B0BDE8F08F019BBB42E3DBFD
:100CB000BBF1020FE0D84946029803920136C047C3
:100CC000039AD9E749462020C047013CE8E700BF26
:100CD000FFC99A3B0A688B6830B512B14C68A342D1
:100CE00002DB01338B6030BD651EAB420BBF8C60F5
:100CF0005C1C00218C600CBFD154D05430BD00006E
:100D0000014B1860704700BFA03A00202DE9F04F5A
:100D100089B04FF0000A06460F4604921C464FF079
:100D2000FF39D0465546049B187810B909B0BDE884
:100D3000F08F45B9252800F00C813946B047049B57
:100D400001330493EFE7642861D019D839280AD811
:100D5000312850D22D283CD030283DD0252808D12C
:100D60003946B0476FE0582800F08980632800F0CA
:100D7000EA8039462520B047049B39461878F0E7C9
:100D8000702872D006D8692841D06C283CD06828D9
:100D9000D5D0EEE7752858D017D87328E9D1236845
:100DA00004F1040B1C46254615F8010B002840F001
:100DB000BF80B8F1030F40F0D580E41AA9EB04041A
:100DC000002C00F3BB805C463DE0782857D07A28A1
:100DD000DEE74FF00308B2E7B9F1000F0EDAB8F121
:100DE000000F00F0BC80A0F13009B8F1000F08BF7F
:100DF0004FF00208A3E7B9F1000FF4DB0A2303FB6D
:100E00000909A9F13009F0E70AF1010A97E7BAF1F7
:100E1000010FC5BF073424F0070325681D68D4BF40
:100E2000043403F10804002D05DA39462D20B047BB
:100E30006D4209F1FF39CDF8009043462A46394604
:100E40003046FFF7F7FE002579E7BAF1010FC5BF7D
:100E5000073424F0070322681A68CDF80090CCBF4D
:100E600003F1080404344346E9E739463020B0472B
:100E700039467820B0474FF008094FF00108BAF121
:100E8000010FC7BF073424F0070323680593C2BFCF
:100E900003F108041B6805934FF008024FF00003AC
:100EA000D8BF04340393079393460BF1FF3B059B94
:100EB0004FEA8B0023FA00F010F00F0009D1079BD6
:100EC00013B9BBF1000F22D14FF0300E07E0069AA4
:100ED000EBE709288CBF4FF0570E4FF0300E394624
:100EE00070440692B047039B079501330393BBF10F
:100EF000000FECD1B8F1030FA5D1039BC3EB49055B
:100F0000002DA0DD39462020B047013DF8E7531EF3
:100F100091450693EBDBB8F1010F03D13946302040
:100F2000B047E4E7B8F1020FE1D139462020F7E7F6
:100F3000394603932C46B047039B34E739462020BB
:100F4000B047013C3CE72068251D3946B0472C4698
:100F500079E7AA46A8464FF0FF390125EFE64FF0A2
:100F60000108ECE65C460546E9E6000013B502AC74
:100F7000002344F8043D02460B4603482146FFF790
:100F8000C5FE019802B010BD250C00000FB407B5D6
:100F900004A951F8040B0191FFF7E8FF03B05DF8D5
:100FA00004EB04B0704700000CB430B585B008AB5A
:100FB000044653F8042B01900291002501A907482B
:100FC00000930395FFF7A2FE0398029B9842B8BFD7
:100FD000255405B0BDE8304002B07047D50C000084
:100FE00070470FB404B0704713B5114CBFF35B8F5B
:100FF0002068BFF35B8F60B90E4812F015F9BFF39C
:101000005B8F54E8003F44E80002002AF9D1BFF3A7
:101010005B8F436804221B680DEB02019847002890
:1010200002DA00F037FA0190019802B010BD00BF5B
:1010300004000020384901000A2838B50446074D4D
:1010400004D1286843680D215B6898472868436885
:10105000E1B25B689847204638BD00BF0800002019
:101060000148FFF74DBE00BF3910000008B5044825
:1010700012F0DAF8034B1860FFF7F2FF002008BD0A
:10108000424901000800002010B54FF02003EFF3A3
:10109000118283F31188114C237823B982F31188CC
:1010A0006FF0440010BD013BDBB2237023B182F32B
:1010B00011886FF00F0010BD094B1878012128B17D
:1010C000217082F311886FF00A0010BD197082F34D
:1010D00011884FF080425160187010BD0E00002042
:1010E0000D00002008B500221046012100F0ECFBA5
:1010F000002000F0B7FB002008BD0000F8B54FF05D
:101100002002EFF3118382F31188254A1078441CE2
:10111000147060B183F311884FF08043D3F80C341E
:1011200013F4803F14BF00206FF04300F8BD1D4D45
:101130002F782FB1107083F311886FF00A00F8BD7B
:1011400001262E7083F311884FF0804419B338467E
:1011500000F098FBC4F80071D4F80433C4F80463B9
:101160002660D4F8002192B10022C4F800210E4A72
:1011700013F0010F4FF0010308BFC4F8083300203B
:10118000C2F8803100F06EFB00232B70C4E720BF53
:1011900040BF20BFE5E7C4F800112660F4E700BFB8
:1011A0000E0000200D00002000E100E0F8B506462A
:1011B0000C464FF02002EFF3118382F311882C4A82
:1011C000157865B183F311884FF08043D3F8183454
:1011D00013F4803F0CBF6FF043000020F8BD0127DF
:1011E000177083F31188284600F04CFB4FF08043C2
:1011F0000221C3F80451D3F80423C3F80413C3F83D
:1012000018459F60D3F8041171B39207194F58BF66
:1012100002224FF000014FF00105C3F804114FF016
:10122000000058BFC3F80823C7F8805100F01AFB2C
:101230004FF0804300211822C3F80823C3F80C1193
:10124000C3F8101114F00301BED11020C3F8380503
:10125000C3F804233046C3F80453FFF74FFF0028B8
:10126000B2D1C7F80051AFE720BF40BF20BFC9E7E8
:101270000C00002000E100E0F8B54FF08043054687
:10128000D3F808E1D3F80423D3F80C44D3F8007161
:10129000D3F80401D3F80C11D3F8106102F0010265
:1012A000BEF1000F03D04FF0000EC3F808E127B1E4
:1012B0004FF080430027C3F800713AB1E30341BF08
:1012C0004FF080430122C3F808231A6120B14FF088
:1012D00080430022C3F8042149B14FF0804400212B
:1012E000C4F80C112846FFF7CFFE0123636176B1E5
:1012F0004FF0804300210124C3F810112846C3F8A1
:101300000443FFF7FBFE10B9014BC3F80041F8BDE1
:1013100000E100E0084BC3F84005D3F80435C01ADB
:1013200020F07F40054B0238984282BF044B4FF4B7
:101330000032C3F80021704700100140FDFF7F001C
:1013400000E100E038B5114B114CD3F804052268D8
:10135000104D801A2B6820F07F4098420FD3B0FBCD
:10136000F3F00D490968884228BF084600FB0323B3
:1013700023F07F432360094B186012F013FD2068AF
:101380002B681844BDE83840FFF7C4BF0010014087
:1013900014000020C03E002010000020BC3E0020B1
:1013A000024B0022C3F84021FFF7CCBF00100140E0
:1013B000031E0A4A0A4804DB116890FBF1F18B42D4
:1013C00002DD136890FBF3F31068064A06491268C1
:1013D0000B6000FB0320FFF79DBF00BFC03E002055
:1013E000FFFF7F00140000201000002008B5074B0D
:1013F0000022C3F84021064B4FF40032C3F880218D
:10140000FFF7A0FF034B01221A6008BD0010014046
:1014100000E100E01000002070B5184811F004FF52
:1014200048B34368164D1B6801219847154B0024AB
:101430001C60154B01261E60144BC5F808451B683F
:10144000C5F840354FF48033C5F84433C5F804334C
:101450000F4BC5F840414FF40032C3F880213146AC
:101460002246112000F030FA112000F0FBF9AE60A6
:1014700020462E6070BD4FF0FF3070BD6449010002
:10148000001001401400002010000020C03E002089
:1014900000E100E00A4A30B5D2F80435094DD5E93B
:1014A0000001D2F80445A34207D1074A126850430D
:1014B0001B1A23F07F43184430BD2346EFE700BFDB
:1014C00000100140C0190020C03E0020094881687A
:1014D000006A884208D000B512F07AFB5DF804EB90
:1014E00005494FF080520A6000B512F0BDFD5DF86D
:1014F00004EB70478819002004ED00E00448002345
:101500002021C2180133272B82F80013F9D170472C
:1015100000E100E0084A094993680968D96608496A
:1015200098664B6843F080534B60002383F3118827
:101530009368D86E704700BF88190020F4800100BE
:1015400000ED00E0202080F311880D498A682C20EE
:101550001044EFF3098C80E8F01F0A4F4FF000664B
:101560000A6A8A603E60906E0023936680F3118859
:1015700002F12C0090E8F01F8CF3098870470000FE
:101580008819002004ED00E01EF0040F0CBFEFF3FB
:101590000880EFF30980816931F8021C11F0FF0126
:1015A0000229FFD000B500F033FA00BD10B50446A3
:1015B00012F056FB22680146BDE810400148FFF7D3
:1015C000E5BC00BFBD4A010038B504461A480D46C7
:1015D000FFF7DCFC04F11800184CFFF7E7FFA36AE3
:1015E000D90602D51648FFF7D1FCA36A1A0702D51F
:1015F0001448FFF7CBFCA36A9B070ED51248FFF7F0
:10160000C5FC616BA36A180607D51048FFF7BEFC3E
:101610001DB1A36A23F08003A362084CA26AD2071B
:1016200002D50B48FFF7B2FCA36A9B0602D5094816
:10163000FFF7ACFC002038BD074B010000ED00E0D7
:101640001E4B0100304B0100444B01005D4B01007B
:101650006E4B01008E4B010010B504461A48FFF78F
:1016600095FC04F11800194CFFF7A0FFA36A9A013A
:1016700002D51748FFF78AFCA36ADB0102D515489B
:10168000FFF784FCA36A180302D51348FFF77EFC1A
:101690000E4CA36A590302D51048FFF777FCA36AE2
:1016A0009A0302D50E48FFF771FCA36ADB0302D54B
:1016B0000C48FFF76BFC054A936A6FEA03436FEA35
:1016C00013439362002010BDBE4B010000ED00E00B
:1016D000D74B0100EB4B0100064C0100254C0100EB
:1016E0004B4C0100664C010038B504461D480D46C0
:1016F000FFF74CFC04F118001B4CFFF757FFA36ADF
:10170000D80404D51948BDE83840FFF73FBCA36AA8
:10171000190501D51648F6E7A36A9A0514D51548A8
:10172000FFF734FCA16BA36A1B0407D51248FFF72F
:101730002DFC1DB1A36A23F40043A3620A4B9B6AEC
:1017400058050ED50D48DEE7A36A5905FAD4A36AF9
:10175000DA0501D50A48D6E7A36A9B0401D50948F2
:10176000D1E738BD8449010000ED00E01E4B0100C7
:10177000304B01009B4901005D4B0100B549010060
:10178000D14901008E4B010038B5274C6368C3F383
:101790000803DA1E0546092A3BD8DFE802F00534C3
:1017A00036303A3A3A3A3A382048FFF7EFFBE36AE4
:1017B0009A0703D51E48FFF7E9FB02E0E36A5B00E6
:1017C00001D4002009E01B48FFF7E0FB1A4B1B780F
:1017D00043B101212846FFF7F7FE2946BDE838400E
:1017E00000F01AB9154B1B7823B101212846FFF7E9
:1017F0007BFFE6E7124B1B889BB2002BE1D028460B
:10180000FFF72AFFE9E70021E4E70021EEE70D48B2
:10181000D1E70D480D49A3F110020F2BD8BF0146A7
:101820000B48FFF7B3FBCCE700ED00E0184A0100DE
:10183000304A0100524A010028ED00E029ED00E0A5
:101840002AED00E0724A0100EA490100FF49010067
:10185000A94A0100024A536943F0100353617047DB
:1018600000ED00E043B2002B08DB012200F01F0076
:1018700002FA00F05B09024A42F82300704700BFF9
:1018800000E100E043B2002B0DDB01225B0900F018
:101890001F0002FA00F02033034A42F82300BFF38E
:1018A0004F8FBFF36F8F704700E100E04209054B97
:1018B00000F01F0053F82220012303FA00F010402B
:1018C000704700BF00E100E043B2002BA8BF03F166
:1018D000604301F101014FEA4111ADBF03F56143DE
:1018E00000F00F00034BC9B2B6BFC9B283F80013B2
:1018F0001954704714ED00E000F044B808B572B612
:10190000044BD86918B10022DA6111F0B3FC62B659
:1019100008BD00BF88190020F8B51F464FF0F0330E
:101920000C4616460B6004220A9B0999054612F0E4
:101930006BFCA6F1200121440B4AEC6521F0070164
:10194000002322F001022B656B652E668A61069AE0
:101950004A60079A8A60089ACA600F604FF08072E6
:10196000CA61E964AB66F8BD99080000014910221C
:101970000A60704710ED00E0404080F3118830BFEE
:10198000704700BF404080F31188DFF81CC0DCF8CE
:1019900000C01CF4006C0CBFEFF30880EFF309806B
:1019A00000B5FFF7F1FE00BD04ED00E038B5831E81
:1019B00004460D46032B19D8DFE803F00212141673
:1019C0000D48FFF7E3FA12F04BF9AA6901460B48FC
:1019D000FFF7DCFA29462046BDE8384000F01CB885
:1019E0000748EEE70748ECE70748EAE701460748FB
:1019F000FFF7CCFAE7E700BF924C01002F4D010042
:101A0000B14C0100D74C0100F14C01000C4D01001C
:101A100001460068FFF7CABF022810B50ED005289E
:101A20000CD012F009FB60B112F006FB0C4B0D4913
:101A3000002808BF19460C48FFF7A8FAFFF79CFFDB
:101A4000FCE712F009FB0028EED1084C0848A16819
:101A5000FFF79CFAA068BDE8104000F00BB800BF8B
:101A60006F4D01006B4D0100804D01008819002071
:101A7000A04D010038B505464FF02003EFF3118467
:101A800083F3118812F056FB0C4B9B689D420FD1DB
:101A90000B4B5A68C2F3080232B912F0E5FA12F0A1
:101AA00097F82046FFF736FD5A6842F080525A6098
:101AB0002046BDE8384011F04FBF00BF8819002014
:101AC00000ED00E000B572B60B4AD06900281EBFD9
:101AD0000021D16111F0CEFB62B6EFF30580A0F1D9
:101AE00010004FEAC0000549014409C998475DF854
:101AF00004EBFFF7EBBC000088190020DC000000BD
:101B0000202080F3118806484FF40061401880F3CC
:101B10000988022080F31488BFF36F8F00F006B8A5
:101B2000682E002030BFFFF7FDBF00BF08B5074B90
:101B3000074A23F07F039360BFF34F8FBFF36F8F8C
:101B400011F0C8FB11F0D0FB11F0F2FB0000000017
:101B500000ED00E008B5FFF7E5FFBDE80840FFF73E
:101B6000B5BC0000124930B50D68082D0DD8114ADA
:101B70004868002353609D4200F10C0007D1052303
:101B80005360BFF34F8FBFF36F8F002030BD50F80D
:101B90000C1C50F8044C936021F01F0141F010011F
:101BA000194344F00104D16001331461E3E700BF3D
:101BB0007C3A002090ED00E00139034611F8012F36
:101BC0000AB91A70704703F8012BF7E7024603467B
:101BD000981A13F8011B0029FAD17047013801390E
:101BE00010F8013F11F8012F934202D1002BF7D1D9
:101BF0001A46981A704770B582B1013A0C460346EE
:101C000003D11A782078101A70BD1E782578AE425C
:101C100000F1010001F10101EFD0F2E7104670BDC3
:101C200081EA000313F0030F70B503460BD0013BAC
:101C30000A4491421BD170BD002AFCD011F8014B1F
:101C400003F8014B013A9C07F6D11E1F0D46541BA9
:101C50000C44032C06D822F003042144234402F050
:101C60000302E4E755F8044B46F8044FEFE711F898
:101C7000014B03F8014FDCE770B5C9B203469C077E
:101C800011D141EA012444EA04441E46951B1D4437
:101C9000032D0ED822F00304234402F003021A4459
:101CA000934209D170BD002AFCD003F8011B013A10
:101CB000E5E746F8044BE9E703F8011BF0E700000D
:101CC00070B54FF02003EFF3118583F31188144CA6
:101CD000144E237803EBC312013303F003033244A1
:101CE000237085F31188402928BF40210E4D01380B
:101CF000134602EB4106B34204D1002302F811302F
:101D0000104670BD4478240902332C5D03F8024C60
:101D100010F8014F04F00F042C5D03F8014CEAE7C2
:101D20007400002075000020E34D010010B50F4A3B
:101D30000F4C137803EBC301013386B003F00103AA
:101D40001370027843790492427803928278029267
:101D5000C278019204EB4104027900921221054AF3
:101D60002046FFF721F9204606B010BD7200002082
:101D700018000020C54D010070B51D4A1D4913789B
:101D800003EB4306013303F00103137003788AB0B9
:101D900006EBC60604460E4407AD032B21D8DFE848
:101DA00003F0021A1C1E14492846FFF705FF62784B
:101DB0000492A2780392E2780292227901926279E7
:101DC0000092A37905950D4A1B213046FFF7ECF8E8
:101DD00030460AB070BD0A49E6E70A49E4E70A4915
:101DE000E2E70A4A0A212846FFF7DEF8DFE700BFEC
:101DF000730000203C000020FD4701002648010040
:101E0000044801000B480100154801001F4801006B
:101E100030B585B00446154668460322FFF700FF3B
:101E20000D2200210DF10300FFF726FF20466A4630
:101E3000694605F08DFF044620B90322694628460D
:101E4000FFF7EEFE204605B030BD13B50C4601AAE3
:101E50000331FFF7DDFF48B9032201A92046FFF750
:101E6000CAFEB0FA80F0400902B010BD0020FBE7C6
:101E700070B5CD1C06460C462846032105F04CFFE4
:101E800060B9637903F03F0343F040036371224676
:101E900029463046BDE87040FFF7BABF70BD00006C
:101EA000F0B40278012A04460B4617D003D3022A65
:101EB0002CD0F0BC7047184A0D4602F1100710688C
:101EC00051682E4603C60832BA423546F7D1127819
:101ED000327062885A73120A9A73EAE70E4A0D4604
:101EE00002F11007106851682E4603C60832BA4244
:101EF0003546F7D11278327062685A73C2F30721FF
:101F0000120CDA73120A99731A74D2E7014611227D
:101F10001846F0BCFFF784BEF44D010010B50C4626
:101F2000017822788A428AB00ED06946FFF7B8FF5E
:101F300005A92046FFF7B4FF10220DF115010DF1A0
:101F40000100FFF758FE0AE0012A0AD004D3022A52
:101F50000AD06FF0150002E040886388C01A0AB00A
:101F600010BD40686368F9E71022611C0130E8E7A2
:101F70007047000070B50B4D06460FCD8AB06C4619
:101F80000FC40FCD0FC495E80300092E84E80300A9
:101F90009BBF0AAB03EB8606034856F8280C0AB031
:101FA00070BD00BFB4470100C05801000722FFF711
:101FB00037BE00B5BFF35B8F50E8003F43EA010234
:101FC00040E8002EBEF1000FF6D1BFF35B8F18463C
:101FD0005DF804FB00B5BFF35B8F50E8003F03EAF8
:101FE000010240E8002EBEF1000FF6D1BFF35B8F77
:101FF00018465DF804FB0000C378002B41F28832DC
:1020000000F1780108BF0022014812F0D3B900BFE7
:10201000C81900202DE9F041064686B09079274F77
:102020008846154610F086FC874214D0AC79244BC4
:102030002046D3F8008010F07DFC224A03900592E0
:10204000049702948DE844001F4B20492048C04764
:1020500006B0BDE8F081284610F074FC1D4C04EB7E
:10206000C0004388B34210D0154B28461F6810F0BB
:1020700069FC144A039204EBC0001449438802939C
:102080008DE84400104B1448B847284610F05AFC1D
:1020900004EBC0004368002BDAD0284610F052FC55
:1020A00004F83080284610F04DFC04EBC000406876
:1020B00006B0BDE8F04111F00DBE00BFF03F0020BA
:1020C000A43A002091480100CD4E0100395601008C
:1020D0003C5601007C020020815601004B09BFF3F1
:1020E0005B8F50F82300BFF35B8F01F01F010841A5
:1020F00000F00100704700002DE9F0478046894656
:102100001348144D4FF0FF3110F0B6FC044600F1B7
:10211000080600213046002710F0CDFC2775204628
:1021200010F010FC05EBC000A0F80280204610F073
:1021300009FC05EBC00003214760304610F004FDA8
:1021400080F80290A0F800802046BDE8F08700BF2C
:10215000F03F00207C020020F0B5154689B00C4607
:1021600019B9FFF7C9FF044668B301AE0122002187
:10217000304611F097FD204610F0E4FB134F07EBBB
:10218000C0004660204610F0DBFC2146104810F0ED
:1021900096FC42F21071304611F0C4FD204610F05A
:1021A000D1FB17F8300030B1204610F095FC6FF0ED
:1021B000040009B0F0BD0DB12C60FAE7204610F024
:1021C0008BFC2846F5E76FF03600F2E77C02002032
:1021D000703B002038B50221054642F20C00FFF7A3
:1021E0008BFF044630B30221083010F0ADFC012D06
:1021F000024616D10B211148FFF770FF5070157081
:102200002146002242F20C00FFF7A6FF044630B937
:10221000012D09D14FF480710848FFF7CAFE20460E
:1022200038BD00234370EAE76FF480710348FFF77D
:10223000D1FEF4E76FF03604F1E700BF183B002051
:1022400070B5154D062205F108010646FFF7D3FCCF
:102250000446D8B1062142F20500FFF74DFF0446BF
:10226000B0B106223146083010F074FC214600223D
:1022700042F20500FFF770FF044638B906223146E6
:1022800005F10800FFF7CCFC0123EB71204670BD7F
:102290006FF03604FAE700BFA83A002007B5062120
:1022A000684605F039FD40B99DF80530684603F0F1
:1022B0003F038DF80530FFF7C3FF03B05DF804FB63
:1022C00038B50121054642F20A00FFF715FF044622
:1022D000D8B108308DB1012110F045FC2146002213
:1022E00042F20A00FFF738FF044620B93DB1402111
:1022F0000748FFF75EFE204638BD2946ECE76FF041
:1023000040010348FFF766FEF5E76FF03604F2E799
:10231000183B0020028843889A4210B518D8052A35
:1023200016D9B3F5486F13D88488B4F5FA7F0FD265
:10233000C188A1F10A0292B240F67640824207D8E3
:1023400004FB0333B3EB810FB4BF0120002010BDA9
:10235000002010BD012310B50621044600F8013B02
:1023600005F0DAFC18B9A37963F03F03A37110BD3F
:1023700037B5114C2378012B04D1A37903F0C003A6
:10238000C02B0DD00D4A0E4B019200921C680D49D6
:102390000D4B0E48A0476FF01505284603B030BD21
:1023A000601CFFF74DFF05460028F6D1042104F11B
:1023B0007000FFF7FEFDF0E7A83A00209148010009
:1023C000A43A002039560100244F0100F8550100BD
:1023D0002DE9F0471F4DDFF898801F4CD8F800908A
:1023E0001E4F1F4E86B02846FFF7C6FC3B462246CE
:1023F00031460190029400941A48C84795F80E900F
:10240000D8F800A04846FFF7B5FDAB8A04932B8AA5
:10241000039322463B463146CDF80890019005943F
:1024200000941148D047D8F8009095F80F804046A6
:10243000FFF7A0FD6B8A039301900494CDF8088008
:1024400000943B46224631460848C84706B0BDE8DE
:10245000F08700BFA83A002091480100454F0100D5
:10246000395601008A4F0100A74F0100F54F0100C6
:10247000A43A0020024BD3F8DC301B69184700BF98
:10248000A83A00207FB504460D4619B9FFF734FE7F
:102490000546F0B140F635439C4214D12846FFF77B
:1024A000E9FF044660B10C4A0C4B02928DE814001F
:1024B0000B481E680B490C4BB047284610F00CFB2C
:1024C000204604B070BD2946084810F0F8FA0024F0
:1024D000F6E76FF03604F3E791480100A43A0020D4
:1024E0008150010039560100054E0100703B00206B
:1024F00073B505460E461446002107226846FFF7CD
:10250000BBFB21488DF8005000238DF80630012DCB
:102510000378ADF80160ADF803408DF805300AD1BD
:1025200006217030FFF7DAFD28B9FFF7B7FE044641
:10253000F0B98DF80550072142F20B00FFF7DCFDE2
:102540000446F0B107226946083010F003FB21462B
:1025500042F20B00FFF796FF0120FFF73BFE044617
:1025600030B9012D07D14FF480610848FFF721FDF4
:10257000204602B070BD6FF480610448FFF72AFD69
:10258000F6E76FF03604F3E7A83A0020183B002086
:1025900038B5092105461648FFF7A0FD024608B1E7
:1025A000002038BD08211248FFF798FDD0B901215D
:1025B000002001F055FE04460028F1D04FF40061E0
:1025C0000B48FFF7F6FC204601F068FE002D15BF12
:1025D0003022122260214FF400610020BDE8384013
:1025E000FFF786BF1046FFF7F5FD0028DFD038BDA6
:1025F000183B00202DE9F0414D4DD5F8DC309968AD
:1026000011F001018EB024D10CAA40F60340FFF76F
:10261000A3FD0446002840F087800C9B9B681B7834
:10262000A3B9444A13602B46BFF35B8F53F8702F56
:10263000BFF35B8F02F00D02BFF35B8F53E8001F07
:1026400043E800200028F9D1BFF35B8F0C9810F00D
:1026500043FA0CAA002141F20300FFF77DFD044676
:10266000002861D10C9B3448996808220131FFF79A
:10267000D7FA0C9810F030FA21460CAA41F201006A
:10268000FFF76AFD044600284ED10C9883685A78FB
:10269000AA73D9789A7842EA01222A821A79EA73CF
:1026A000197ADA7942EA01226A825A799B7942EAF6
:1026B0000323AB8210F010FA03212048FFF70EFD30
:1026C000014688B90CAA41F20900FFF745FD04460E
:1026D00050BB0C9B1A48996806220131FFF7A0FAFB
:1026E0000C982C7010F0F8F90CAA002141F20200AD
:1026F000FFF732FD0446B8B90C9B12489968402296
:102700000131FFF78DFA0C9810F0E6F9AB7E5A060E
:1027100024D40D4A0D4B019200921C680C490D4BBC
:102720000D48A0476FF0120420460EB0BDE8F081BE
:10273000A83A0020D8020020BE3A0020183B002012
:10274000A93A0020C63A002091480100A43A00208E
:10275000395601001C4F0100B350010021460CAA5C
:1027600042F20300FFF7F8FC04460028DCD10C9B82
:102770009C48996808220131FFF752FA0C9810F032
:10278000ABF921460CAA42F20200FFF7E5FC044631
:102790000028C9D10C9B9B68B3F80120A5F88820BC
:1027A0003AB1DA789048022A28BF0222114611F085
:1027B00079FA0C9810F090F9AC7E14F0200400F037
:1027C000C98095F83A301B0713D50CAA002142F2B4
:1027D0001C00FFF7C1FC04460028A5D10C988368B3
:1027E00053F8012F5B68C5F88430C5F8802010F0DD
:1027F00073F995F878309F0600F1C880082142F2FD
:102800000100FFF779FC0446002800F0AA800821A7
:10281000084410F099F995F878108E074CBF2F22D4
:102820000F22890695F8791048BF42F0400211F056
:10283000090F95F8401001F0060118BF42F400623C
:10284000062908BF42F4C0720270C2F30722427028
:1028500000228270C270027142718271C27121467F
:1028600042F20100FFF778FC044600287FF45CAFD9
:10287000AB7E9A0621D4B5F88810F1B90CAA41F2C2
:102880000500FFF769FC044600287FF44DAFB5F85A
:1028900088307BB90C9B54489B6899785A7842EAF7
:1028A0000122A5F888209A88022A28BF0222114610
:1028B00011F0F8F90C9810F00FF9082140F60140DA
:1028C000FFF71AFC044600284BD00821084410F0FA
:1028D0003BF9102303708823437002230022C37046
:1028E00020238270027142718271C371214640F6C9
:1028F0000140FFF731FC044600287FF415AF014684
:102900000CAA4FF60140FFF727FC384E384F00283D
:102910007CD0019600963C68364B374937483246A2
:10292000A047002307220CA935480C93CDF833307B
:10293000FFF761F9002840F0E88095F86030DB0788
:1029400000F10481019600963C682E4B274A2A49E3
:102950002D4809E1022140F66D40FFF7CDFB064608
:1029600010B96FF03604DFE60221083010F0ECF801
:102970000123447003702246314640F66D40FFF754
:10298000EBFB044600283FF41CAFCDE60CAA002167
:1029900042F22F00FFF7E0FB044600287FF4C4AEAC
:1029A0000C988368B3F80180B3F8037010F094F8C2
:1029B000042142F22400FFF79FFB06460028D0D0F6
:1029C0000421083010F0C0F82246A0F800804780AB
:1029D000314642F22400FFF7BFFB044600283FF4D3
:1029E0000DAFA1E6203B0020343B002091480100C0
:1029F000A43A0020564F010039560100E75001006B
:102A0000A83A0020374F0100845201000C9BD7F8F0
:102A100000809C687249B4F801300293032B96BF82
:102A2000704A714A52F823200192704B704A039603
:102A300000967048C047B4F80130D7F80080B4F869
:102A40000320022B3BD1022A39D86B4B53F822309A
:102A500002920193664A654B614968480396009665
:102A6000C0476379D7F800800696D4F8091005911D
:102A7000032BB4F8071098BF614A0491A17994BF61
:102A800052F82320584A039102935549574B01921B
:102A90005C48574A0096C0470C9810F01DF80CAAE5
:102AA00000214FF60240FFF757FB044648B101965C
:102AB00000963C684D4B4E4A4949534830E74A4BD3
:102AC000C6E70C9B5148996802220131FFF7A8F82C
:102AD0000C9810F001F80CAA21464FF60340FFF7BE
:102AE0003BFB38B1019600963C68404B404A3C495C
:102AF000474815E70C9B4748996801221144FFF7A6
:102B00008FF80C980FF0E8FF0BE7434B18689A8892
:102B10000A909B79ADF82C200AA907223F488DF82E
:102B20002E30FFF768F800283FF407AFFFF750FC9E
:102B300002F010F8044600287FF4F6AD0221384870
:102B4000FFF737FA2046FFF723FDEDE509AA00213C
:102B50004FF60940FFF700FB40B1019600963C6834
:102B6000304B234A1E493048A04726E0099B99680C
:102B70004B78BBB10123062202312C482B70FFF7A2
:102B80004FF809980FF0A8FFFFF7F2FB0446002862
:102B9000CCD0019600963D68254B154A1049254832
:102BA000A847C1E50196009623483C681D4B104A92
:102BB0000B49A04709980FF08FFF1848FFF7CAFB91
:102BC00004460028E5D119483C68FFF7AFF80296A3
:102BD00001900096134B064A01491848A047D3E7D5
:102BE00039560100D0570100C0580100564F01006E
:102BF000914801001B510100C457010044510100DC
:102C0000B05801006C510100A9510100073B0020A0
:102C1000E2510100063B0020DC470100A83A0020F9
:102C2000183B0020374F01001B520100A93A002039
:102C3000624F0100F95201004B520100C0520100E5
:102C400010B5FFF7D7FC034B1B6813B1BDE810406C
:102C5000184710BDD402002038B50721044642F2BF
:102C60003200FFF749FA054698B1072108300FF006
:102C70006BFF23880380002402238470C3700371D8
:102C800044718471294642F23200FFF7FBFB204673
:102C900038BD6FF0360038BDF7B5074601AA0021F0
:102CA00042F22F00FFF758FAD8B901988368B3F8B9
:102CB0000160B3F803500FF00FFF062142F222002B
:102CC000FFF71AFA044670B1062108300FF03CFFF6
:102CD0003B88038046808580214642F22200FFF730
:102CE000D1FB03B0F0BD6FF03600FAE7F0B5037822
:102CF00089B005467BB10221002001F0B1FA0446FB
:102D000038B12B780372002101F084FB204601F0DA
:102D1000C5FA09B0F0BD041DB0F80160214606A84F
:102D2000FFF744F99DF81830023BDBB2012BB7B234
:102D300029D8062205F111010DF111008DF8183086
:102D4000FEF76EFF01238DF81030022106A801F076
:102D500087FAEB78012B044609D16FF040014A480D
:102D6000FFF738F9A4B906A801F0CEF904467CB9FA
:102D7000464A474B02928DE8840046491C68464803
:102D8000464BA047C5E7214604A8FFF70FF9DCE74B
:102D9000204606A920F84C6BFFF708F92A7EEB7D48
:102DA00043EA0223A4F86230AA7E6B7E43EA022340
:102DB000A4F86830EB7E2A7F43EA0223A4F86A3045
:102DC000EE78E670012E1AD1354F04A904F15300B4
:102DD000FFF7ECF8394604F15A00FFF7E7F807214E
:102DE00007F17000FFF77AF948B1D7E920230022F4
:102DF00003F04003134302D03046FFF761FA03218A
:102E0000204601F007FB637A032B18D1EB7823B13E
:102E1000234B93F87830190718D5022142F2160097
:102E2000FFF76AF9054688B1022108300FF08CFEE1
:102E300023880380294642F21600FFF723FB204631
:102E400001F02CFA0020FFF7A3FB62E7144D95F880
:102E50007920D20708D52046FFF7FEFE20B9802151
:102E6000201DFFF7A6F8EAE795F878309B0606D50F
:102E70002046FFF711FF10B94FF48071F0E72046AC
:102E8000FFF7BAF8DBE700BF183B002091480100CC
:102E9000A43A0020395601006F5701004C4E010042
:102EA000A83A002070B506460D4642F221000321E3
:102EB000FFF722F9044660B1032108300FF044FE09
:102EC00085700680214642F22100BDE87040FFF780
:102ED000D9BA6FF0360070BD2DE9F04FDFF858A178
:102EE000544D85B00AF1140B9AF80D3058466FF323
:102EF00007138AF80D3001F019FA00F101094FF0BB
:102F0000FF3249464C4811F03BFB30B94A4EB9F10B
:102F1000000F11D110F07AFEE6E7464A474B0192C6
:102F200000921C684649474B4748A047404080F301
:102F300011884FF0040002DF737B1B09012B5CD961
:102F4000042B6CD1377B002F5BD139463F480FF003
:102F500099FD804640B9374A384B019200921C686F
:102F600037493B4B3B48E0E74FF0FF313A4810F020
:102F7000D9FE3A4BD3F8C4308BB1304B0195009554
:102F80001B682C4A2E4936481C46314BA047334B10
:102F9000D3F8C4000FF0A0FD304BC3F8C470404616
:102FA0000FF0CEFD2D4BC3F8C4004046FFF762FA88
:102FB00018B3224B0190029500951E4A20491F68C4
:102FC0002848234BB847244810F084FE40460FF0B1
:102FD000B9FC254B03EBC00000221F214088FFF7FE
:102FE00019F81E4BD3F8C4000FF076FD1B4A0023DE
:102FF0004046C2F8C4300FF06FFD143609F1FF39B6
:1030000085E7012F04D13069183800F077FFF4E725
:10301000022FF2D130692C3801F0E6FCEDE7019384
:10302000064B029500951F68024A104B0449104850
:10303000B847E2E791480100883B0020A43A00200D
:10304000395601000E4F0100C4560100703B0020AC
:10305000F64E0100EE560100503B0020A83A002039
:1030600013570100815001007C020020FF4E010037
:103070003E5701002DE9F04F037D012B95B004462A
:103080003FD0032B40F03F8383681E885D88C6F3E2
:103090000B03C382FF234375042108300FF073FD37
:1030A000A3899D420DD0A14A03928DE82C00A04B2C
:1030B000A0491D68A048A14BA84720460FF00CFD71
:1030C0001BE0E08A01F09CF8054658B9974A029245
:1030D000E38A98499A488DE80C00954B1E68974BF7
:1030E000B047EAE701F02AFD320B60752146284619
:1030F00000F0BCFD284601F0D1F8002015B0BDE875
:10310000F08F86683278132A00F20D83934013F40F
:103110000C2F00F00883854A854B019200921C68B1
:103120008449884B8848A047404080F311884FF07D
:10313000040002DFA7683E78002EBED1B7F80180F8
:10314000404601F05DF80546C8B9784A784B0292CE
:103150008DE8040177491D687C487D4BA84707210D
:103160007C48FEF7BBFF0028A7D006217948FEF770
:10317000B5FF0028A1D10120FFF7A2F89DE7FB7859
:1031800003727549754810F055FF3146284601F025
:1031900041F92E80AE780EB1284688E03146281DD0
:1031A000FEF79CFF30B12846012101F033F930468B
:1031B000FFF7EEF9284601F071F8D0E7A668012183
:1031C00028460FF0E0FC3678731E0B2B00F2898244
:1031D000DFE813F00C00A001430070008702CE006E
:1031E0002B0171019101410087024601A1680B7812
:1031F0008DF83030B1F80130ADF83130CB788DF842
:103200003330B1F80B30ADF84730B1F80D30ADF8D0
:103210004930B1F80F30ADF84B304B7C8DF84D3064
:1032200004310DA8FEF7C2FE0025062208A90DF103
:103230003B000895ADF82450FEF7F2FC06220AA9DF
:103240000DF141000A95ADF82C50FEF7E9FC0CA8F1
:10325000FFF74CFD31E7A068FAE7A568B5F8017003
:10326000384600F0CDFF064650B9304A304B029246
:103270008DE884001D683A4B2E493A48A8471CE760
:103280002B789BB92A79EB7843EA0223A0F86230C5
:10329000AA796B7943EA0223A0F86830EB792A7A9D
:1032A00043EA0223A0F86A3000F0A4FC304600F0A4
:1032B000F5FF02E7A668B6F80170384600F0A0FFF7
:1032C000054638B9194A1A4B02928DE884001D68E8
:1032D000254BD1E7337823B90822F11C6C30FEF777
:1032E0009FFC224E96F87920D2070CD595F86D30C8
:1032F000DB0708D52846FFF7AFFC20B98021281D41
:10330000FEF757FE48E796F878309F0640F1A48014
:1033100095F86C309E0640F19F802846FFF7BCFC74
:10332000002840F099804FF48071E8E7914801004F
:10333000A43A00203956010028530100154E01001F
:103340005C530100EC4E0100875401008E530100D4
:10335000374E0100183B0020C4530100711F0000CC
:10336000B54E0100C8530100614E0100A83A00208B
:10337000A368D9789A781F8842EA0122ADF83020F4
:1033800059791A7942EA0122ADF832209A79D9792D
:1033900042EA0122ADF834201A7A5B7ABDB242EAE1
:1033A00003232846ADF8363000F02AFF804670B976
:1033B000B44AB54B02928DE82400B4491E68B44863
:1033C000B44BB04702212846FFF76CFD75E60CA907
:1033D00000F024FC28B91E212846FFF763FD404673
:1033E00065E70E2142F22000FEF786FE0646002821
:1033F000F5D00E2108300FF0A7FB0E220546002164
:10340000FEF73AFCBDF830306B80BDF83230AB804F
:10341000BDF83430EB80BDF836302F802B8131463B
:1034200042F22000FFF72EF8D9E7A3681E88304645
:1034300000F0E6FE054638B9924A934B02928DE8B9
:1034400044001D68944B17E76FF480710430FEF759
:10345000C1FDC0057FF5A0AE2846FEF7CDFD9BE679
:10346000A368B3F80160304600F0CAFE054638B9DB
:10347000844A854B02928DE844001D68874BFBE629
:10348000061D6FF080013046FEF7A4FD01067FF5B2
:1034900083AE834B93F878309A06DDD595F86C307F
:1034A0009B06D9D52846FFF7F7FB0028D4D14FF467
:1034B0008071304624E7A6687A486FF02001FEF755
:1034C00089FD337843B9711C40227748FEF7A8FB89
:1034D00010217448FEF76DFD744B1D68771C002D9C
:1034E0003FF4EBAD32782B68002A0CBF3846002041
:1034F00098476D68F3E76E4DA0682A68002A3FF48C
:10350000DCAD037823B90130904700232B60D4E56C
:103510000020F9E728460FF03EFBDFF8889106907F
:10352000069B002B3FF4C9ADA668092128460FF081
:103530002AFB337AB04633440CA893F809B018F844
:10354000013F023B012B414600F29980FEF72EFD20
:103550009DF83030023B8DF83030564B1B68BBB1C4
:1035600028460FF028FBA3890793337AA381514B98
:1035700032781B6882461F464FFA8BF12B460CA807
:10358000B847236913FA8AF3A360BDF81C30A381FE
:10359000092148463278FEF7A1FD8246002864D111
:1035A000012A62D801210CA800F05AFE0746002823
:1035B0005BD008214846FEF791FD00287ED102210C
:1035C0004846FEF78BFD10B13B48FEF739FE344903
:1035D00007F1530007F15A0AFEF7E8FC414650464E
:1035E000FEF7E4FC192142F20D00FEF785FD83464B
:1035F000002869D0192108300FF0A6FA1922804658
:103600000021FEF739FB0022602388F8003088F89B
:10361000012088F8023088F80320514608F105009F
:103620000792FEF7C3FC97F8533088F80C30B7F8D0
:103630006430A8F80D30B7F86630A8F80F30B7F846
:103640006830A8F81130B7F86A30A8F81330079A34
:10365000594642F20D00FEF77FFDA8BB3846022115
:1036600000F0D8FE384600F019FE317A28460131C4
:103670000FF089FA069B013BDBB2069350E7FEF799
:1036800095FC6AE791480100A43A002039560100F0
:10369000C8530100A34E0100794E01008C4E010079
:1036A000A83A0020183B002090020020D002002001
:1036B0008C020020D8020020A93A00205046FEF7D4
:1036C00089FD00283FF47BAF1F233B720021384661
:1036D00000F0A0FE384600F0E1FD0020FEF758FFA4
:1036E000C3E7A5891F4BA0681F682946FEF7E8FAC3
:1036F0001D4A03908DE844001C4B1D491D4804924F
:103700000295B847D9E4184A02928DE80C00154B8F
:1037100017491D681848194BA84720460FF0DCF9D7
:103720006FF01500EAE404F10805022128460FF0C5
:103730002AFA3678052E3FF4FDAC3E2E3FF43EAD1E
:10374000A589084BA0681F682946FEF7B9FA064A02
:103750000390049202958DE84400094B04490948FE
:10376000CFE700BFA43A002091480100DA4E0100E3
:1037700039560100FC530100635401006B4F0100F6
:10378000EC4E0100315401002DE9F04F037D8668B5
:10379000012B87B004460ED0684A694B0192009213
:1037A0001C686849684B6948A047404080F311880D
:1037B0004FF0040002DF8289012A08D85F4A604B7B
:1037C000019200921C685F495F4B6148ECE73278D8
:1037D000132A00F2AA80934013F40C2F00F0A58066
:1037E00000F10805022128460FF0CDF933780F2BA0
:1037F0001DD0132B2BD00E2B40F08B80A368032100
:103800002846B3F801701E780FF0BDF9A368224670
:1038100019783846FEF7FEFB16B14E4810F05AFAFA
:1038200020460FF059F9002007B0BDE8F08FA668D8
:10383000B6F802807778042128460FF0A4F92246D2
:1038400031784046FEF7E6FB002FE9D0E5E7D4F8F3
:1038500008B0DFF8E880DFF8E89000269BF8003039
:103860009E42DDDA0BEB8603B3F80120B3F803A028
:103870004FF02001EFF3118781F311881046059274
:1038800000F0BEFC059A054678B90192CDF8088093
:10389000CDF80080D9F800502F4B284A29492F48ED
:1038A000A84787F311880136D8E787F3118800F11C
:1038B0001807BAF1000F1FD04FF02002EFF3118E5E
:1038C00082F31188296929B16A69086828619142DF
:1038D00008BF68618EF311880AF1FF331FFA83FA7B
:1038E00071B9CDF80480CDF80080D9F800701A4B7A
:1038F000124A14491A48B847284600F0CFFCD2E7CC
:1039000038460FF0F9FE284600F070F910F0E2F9A1
:10391000CFE720460FF0E0F8084A094B01920092E9
:103920001C680849084B0F483EE7044A044B0192C3
:1039300000921C680349044B0B4835E7914801008D
:10394000A43A002039560100734F0100C65401000B
:103950000A550100503B00201D4E01004455010056
:103960007055010097550100BA550100084AD2F878
:10397000DC303BB9C16841B1016931B1C2F8DC004A
:10398000184670476FF0440070476FF0150070479D
:10399000A83A002070B52A4DD5F8DC3086B006462E
:1039A0006BB9284A284B019200921C682749284B82
:1039B0002848A0476FF01204204606B070BD0121D0
:1039C00005F17000FEF7F5FA10F0010034D1224B3A
:1039D00022491E606FF00803059004900393029043
:1039E000019000901E4B1F484FF46B7210F084FB47
:1039F000D5F8DC30DB689847044650B1114A124BC9
:103A000002928DE8140011491D681748104BA84711
:103A1000D2E726B906B0BDE87040FEF7EBBD012144
:103A200005F16C00FEF7C5FAC307C5D405F16401C2
:103A30000E480FF061FEBFE76FF04404BCE700BF23
:103A4000A83A002091480100A43A0020395601000C
:103A5000804F01002C500100D4020020501A002099
:103A6000D92E0000DC02002055500100C8190020AA
:103A70000020704770B50378012B05460E4610D81C
:103A80004378012B0DD841880B1F9BB243F6FC7085
:103A9000834206D8AA88131F9BB2834201D8914261
:103AA0002BD26FF015040EE008211948FEF716FB23
:103AB00058B11046FEF78EFB044630B16FF400712A
:103AC0001348FEF787FA204670BD6B787BB14FF440
:103AD00000610F48FEF76DFAAA8869882878FEF71A
:103AE00007FD04460028E9D10A4B1E60EBE76FF49E
:103AF00000610748FEF76EFAEEE74FF400710448E4
:103B0000FEF757FA10F40072CED06FF04404DAE7F3
:103B1000183B0020D802002008B56FF40071074858
:103B2000FEF758FA830506D5054B00201860BDE85E
:103B30000840FEF72DBD6FF0440008BD183B002083
:103B4000D802002038B5054605480EF095FF04461A
:103B500020B1002108300EF0AEFF2575204638BD9B
:103B60001440002010B501464FF02003EFF3118000
:103B700083F311880B4A0023D2F8C440C2F8C43042
:103B800080F3118824B90120BDE81040FFF7DABFA7
:103B9000012204F108002275A38119460EF08BFF63
:103BA000204610BDA83A002038B5064B1C680546D3
:103BB00004B938BD236813B1297A28469847246987
:103BC000F6E700BF4C030020BFF35B8F0068BFF334
:103BD0005B8F7047438910B504462BB1C0680EF067
:103BE0007BFF0023E360638110BD00000048704745
:103BF000343B0020084B70B51C68054604B970BD05
:103C0000E6683EB1B5F86A30B5F86820B5F86210DC
:103C10002846B0472469F1E74C030020F8B5074671
:103C200008460E46FEF776FB054610B900252846E5
:103C3000F8BD094B1C68002CF9D0A3680BB92469A6
:103C4000F9E73146384698470028EFD03046FEF76E
:103C500061FB0028F3D1E9E74C030020024B1A680E
:103C600002611860704700BF4C0300202DE9F04747
:103C7000DFF80082714ED8F8007086B092460D468B
:103C800004460FF0EDFF0596CDF810A0AB89039325
:103C90002388029301900096694B6A496A4832462C
:103CA000B847BAF1010FC146374640D0BAF1020F0A
:103CB00040F0A380AB68D9F80060B3F800800FF043
:103CC000CFFF0497CDF80C80AB89029301905C4B39
:103CD00000973A465B495D48B04763895BB10197FD
:103CE00000975B48D9F80060554B56493A46B047B3
:103CF0002046FFF76FFFAB89D9F80060A8EB0308F7
:103D000008F10408A4F80A800FF0AAFF039763895A
:103D1000029301904A4B0097484A4A494D48B047A0
:103D20006389002B57D0E56006B0BDE8F087638952
:103D30008BB901960096D8F80070414B414946482E
:103D40003246B8472046FFF745FF284606B0BDE893
:103D5000F0470EF0C1BEAA899A4208D90196009692
:103D6000D8F80070364B37493C483246E9E7D8F876
:103D700000A00FF075FF049663890393AB8902934B
:103D800001902F4B2F49364800963246D047E068C5
:103D9000B5F80CA008300EF012FF824508D9019644
:103DA0000096D8F80070264B26492E483246C8E7C0
:103DB000E068AA89A96808300EF0CCFE6389AA8958
:103DC0009B1A638128460EF087FE6389002BABD1D6
:103DD000E5686381E360AB68AA891B88191D91427D
:103DE00016D00292019303970097D9F80040144B24
:103DF000124A14491C48A047A7E78DE840040296E0
:103E0000D8F800700E4B0F4918483246B84799E76A
:103E1000D9F800600FF024FF0397AB89029301905B
:103E20000097074B054A07491148B04729462046E5
:103E300006B0BDE8F04701F0C5B800BF91480100E9
:103E4000DC58010039560100A65A0100D75A01007A
:103E5000035B0100305B01004F5B01007D5B0100F3
:103E6000A15B0100CD5B0100325C0100045C01003C
:103E70005E5C0100A43A00202DE9F0430D46DFF816
:103E80007880184CD8F8009087B0064617460FF097
:103E9000E7FEAB890594049703933388029301905E
:103EA000114B0094224611491148C847737A032BDD
:103EB00010D00D4B0D490F48019422460094D8F8BC
:103EC0000060B04728460EF007FE6FF0380007B0DC
:103ED000BDE8F08306F12C006F6129460EF0EFFD7E
:103EE0000020F4E791480100E9580100395601002B
:103EF000C25C0100F75C0100A43A00202DE9FF41FB
:103F0000144B154D1C6806460FF0AAFE134A01908B
:103F1000039202960092124B12491348A04706F1F1
:103F200018074FF00008002138460FF009FC04463E
:103F300010B904B0BDE8F08163680BB13046984712
:103F40002B6823606B68C4F804802C60002BEAD1D6
:103F50006C60E6E7A43A00200004002091480100CC
:103F6000F958010039560100DD5901002DE9F04FE3
:103F70005A4E5B4FD6F8009089B0884614460546E5
:103F80009A460FF06DFEB8F80C3004933A46554B44
:103F900001905549554806970594CDF80C80029537
:103FA0000097C8474FF0FF3151480FF0BBFE514B0F
:103FB00003F14800FFF708FEB14630B15A7A033AE0
:103FC000012A02D81846FFF799FF6B7A032B66D1B6
:103FD000042108F108000EF0CEFD2A88D8F814B0AC
:103FE000454E42EA04320280B8F80C30D9F800405D
:103FF000043B4380022388F814300FF031FE04970D
:104000000190CDF80CB0029500973C4B344A3649EC
:104010003B48A0473468726823683360944208BF05
:104020007360C4F804B04FF02003EFF3118283F300
:104030001188002323606B69002B3FD16C612C61D8
:1040400082F311884046FEF715FA002842D001900D
:1040500002970097D9F80070224B214A224929483B
:10406000B8474FF02003EFF3118183F311882B69D8
:10407000002253B19C422AD1236812BB6A692B618A
:10408000944200D16B610023236081F311880023E7
:104090006360336823607368346003B974601448E4
:1040A0000FF018FEBAF1000F04D040460EF014FDD8
:1040B0004FF0000A504609B0BDE8F08F1C606C61FB
:1040C000BEE713606B699C4208BF6A61DBE71A4672
:1040D0001B68CEE74FF0010AECE700BFA43A0020CE
:1040E000914801001A59010039560100A85D0100EC
:1040F000343B002060030020000400200B59010025
:10410000E05D010081500100F8B5174C04F148064C
:1041100007463046FFF758FD054608B10020F8BDB8
:104120000146A0222046FDF7A7FDBFF35B8F0123C8
:1041300056E8002F46E800310029F9D1BFF35B8F24
:104140000722394604F14C00FDF76AFD1823A4F854
:104150006430282304F17800A570A4F86630034980
:1041600010F0B4F82046F8BD6003002011490000AB
:1041700038B50D46044600F14C0107222846FDF7EC
:104180003AFD60B1E378072233B904F15A012846B9
:10419000BDE83840FDF72FBD04F15301F7E738BD06
:1041A00070B5044686B000F14805BFF35B8F55E853
:1041B000003F013345E80032002AF8D1BFF35B8F9E
:1041C0000A4B1E680FF04CFD034628462188FFF776
:1041D000FBFC074A039002918DE80C000492054B0A
:1041E00005490648B047204606B070BDA43A0020F5
:1041F0009148010069590100395601009C5C010099
:1042000008B50A4B014603F14800FFF7DDFC58B141
:104210005A7A033A012A07D81A888A4204D11846E2
:10422000BDE80840FFF7BCBF002008BD60030020C8
:1042300010B50A4C014604F14800FFF7C5FC50B127
:10424000A37843B92046FFF793FF20B92046BDE885
:104250001040FFF7A5BF002010BD00BF6003002085
:1042600038B50D4C034604F148000D46FFF7ACFC91
:1042700080B1A27872B93BB9637AAB420AD10648E1
:10428000BDE83840FFF78CBF19462046FFF770FFA6
:104290000028F1D0002038BD6003002070B505462D
:1042A00086B000F14804BFF35B8F54E8003F013B48
:1042B00044E80032002AF8D1BFF35B8F0A4B1E6836
:1042C0000FF0CEFC034620462988FFF77DFC074A05
:1042D000039002918DE80C000492054B05490648B5
:1042E000B04706B070BD00BFA43A0020914801005D
:1042F00075590100395601009C5C010038B504462F
:1043000000F12C05002128460EF0BCFB50B92046D8
:10431000FFF7F4FD2046FFF75DFC2046BDE838407E
:10432000FFF7BCBF0EF0D8FBECE700002DE9FF4122
:104330002E4D2F4C2F6806460FF092FC2D4B01900E
:1043400022462D492D4802940094B8472C4B002258
:10435000012130469A6010F000F92A4B03F1480021
:10436000FFF732FC2A461F4618B9012004B0BDE809
:10437000F081597A99B9BFF35B8F191D51E8000F8D
:1043800020F0400541E8005EBEF1000FF6D1BFF31A
:104390005B8F410603D51846FFF7B0FFE5E77D7A4E
:1043A000032DE2D1D2F800800FF05AFC114B01909E
:1043B0000F4A11491448039402970094C047134BC5
:1043C0000022042106F1140010F0C7F8012386F83A
:1043D000203006F128000E4B0022042110F0BDF819
:1043E000022386F834302846C0E700BFA43A0020F4
:1043F000914801002D59010039560100FA59010078
:10440000D83B002060030020105A010078030020F0
:104410008C0300202DE9F0430446724F724D3E6834
:1044200087B088460FF01CFC637A70490190042B1A
:1044300096BF6F4A6F4B52F823300293B8F1040FC6
:1044400096BF6B4A6B4A52F8282003920495009558
:10445000694B6A482A46B047667AB045A9460AD1F0
:10446000019500953C68644B604965482A46A04721
:1044700007B0BDE8F08384F809809EB1022E15D004
:10448000637A042B00F2A18001A252F823F000BF4E
:10449000F344000071440000AF450000BD4400003B
:1044A000714400002046FFF77BFEE9E7A378002B6C
:1044B000E6D104F178000FF019FFE1E7A378022BB1
:1044C000D6D004F12C000FF001F904F118000FF020
:1044D000FDF800214B4810F0E3F800232046236448
:1044E000636400F00DFC204607B0BDE8F043FFF721
:1044F0005BBBA378022B05D1204607B0BDE8F04393
:10450000FFF7CCBEF31E012B44D8204600F032FC4E
:104510003D4B1D68EDB93D4E3D4F4FF02003EFF38D
:10452000118183F3118823692BB160691A682261B4
:10453000834208BF626181F311888BB132681A60CF
:1045400072685D60336002B9736038460FF0C2FB79
:10455000E3E76B6813B1217A204698472D69D9E7C4
:10456000A3781BB904F178000FF0C0FEBFF35B8F96
:10457000043454E8003F43F0400344E80032002A8A
:10458000F7D1BFF35B8F1F48002107B0BDE8F043B0
:1045900010F086B8022E03D12046FFF705FBABE7EB
:1045A000012E7FF465AF237A002BA5D0F4E7A37822
:1045B000002B7FF45DAF174840F6B83204F1780164
:1045C00007B0BDE8F0430FF0F5BECDF80890CDF888
:1045D0000480CDF800903C68074B034A03490E481D
:1045E000A04745E7A43A0020914801003956010050
:1045F000C8580100165D010057590100205D0100F7
:104600003E5D0100D83B00204C0300200004002048
:10461000343B0020C81900205C5D01004C3070471D
:1046200070B5064608460D46FDF774FE08B900242D
:104630001CE01D48FFF7C8FA8305F8D43046FFF7A1
:10464000F7FD0446A0B1437A012B06D001D3032B1A
:104650000CD92046FFF722FEE9E76B88A0F8663008
:10466000AB88A0F86830EB88A0F86A30204670BDAF
:104670003046FFF749FD04460028F7D007223146AF
:104680005A30FDF7CDFA6B88A4F86630AB88A4F8F1
:104690006830EB88A4F86A3020460121FFF7BAFEA3
:1046A0000120FDF775FFE1E7183B002070B50646D5
:1046B0000D4600293BD13046FFF7BAFD044628B924
:1046C0003046FFF721FD0446002851D0231D002D60
:1046D00035D06A88A4F86620AA88A4F86820EA88F9
:1046E000A4F86A20BFF35B8F53E8002F42F001016A
:1046F00043E800100028F7D1BFF35B8FD10702D445
:104700002046FFF74DFD637A63B91B48FFF75CFA5B
:10471000830707D51DB101212046FFF77BFE00204E
:10472000FDF736FF2046FFF7B9FD002070BD0846B3
:10473000FDF7F0FD0028BED16FF0150070BDBFF38E
:104740005B8F53E8002F22F0010143E8001000289E
:10475000F7D1BFF35B8FD207D5D52046FFF79EFD7B
:10476000637A012BCFD129462046FFF753FECAE7D3
:104770006FF00B0070BD00BF183B002070B50E46F7
:104780008178044611B94C30FFF790FF637A013B02
:10479000032B03D8DFE803F006101B0E6FF038057B
:1047A000284670BD204626720021FFF733FE002008
:1047B000FDF7EEFE0025F3E704F178000FF096FD1B
:1047C000002142F20E00BDE87040FDF75BBE032100
:1047D00040F20640FDF790FC054698B103210830F1
:1047E0000EF0B2F9238803808670294640F2064015
:1047F000FDF748FE05460028D2D104212046FFF7E8
:1048000009FECDE76FF03605CAE7F8B507460D4655
:1048100042F213000E21FDF76FFC0646C8B10E21CF
:1048200008300EF091F9002104460E22FDF724FA1B
:104830003B8823802B8863806B88A380AB88E380D0
:10484000EB882381314642F21300BDE8F840FDF7C2
:1048500019BE6FF03600F8BD70B5274B0D468AB013
:1048600004461E680FF0FCF9EB880793AB880693AB
:104870006B8805932B88214A049394F86C30089236
:104880000393019000921E4B02941E491E48B047AC
:10489000B4F862302A889A420CD86A889A4209D3BE
:1048A000B4F86820AB889A4204D1B4F86A20EB8847
:1048B0009A421CD004F178000FF018FD134B93F8C6
:1048C00078309A0703D594F86C309B0701D4E378CD
:1048D00033B9294620460AB0BDE87040FFF795BFBE
:1048E000294620460AB0BDE8704000F0A9BB6FF031
:1048F00044000AB070BD00BFA43A002091480100F6
:1049000083590100395601009B590100A83A002043
:10491000034607B513F86F2C022AA0F1780005D1E1
:104920001321FFF72BFF03B05DF804FB33F8142CC1
:10493000ADF8002033F8122CADF80220694633F8A8
:10494000102C33F80E3CADF80420ADF80630FFF71C
:1049500083FFE8E738B5084B0D46002808BF184626
:104960004FF0FF310EF088F8291D044608300EF094
:10497000A2F8204638BD00BFA83F00202DE9F04135
:1049800006460C4616480021FFF7E4FF3378032B58
:1049900005464FF0000605D00EF09EF83546284635
:1049A000BDE8F081466100F108070E4E3846B6F8C2
:1049B00088800EF004F980450CD2B6F8886054F86F
:1049C000081F324638460EF0C5F8314620460EF034
:1049D000DAF8E4E738460EF0F2F886B2EFE700BF07
:1049E000CC3F0020A83A00202DE9F041494F4A4D24
:1049F0003E6886B004460FF033F9484B01900395AA
:104A0000029400952A4646494648B047637AB8461C
:104A10002E460BBBBFF35B8F231D53E8002F22F004
:104A2000400143E800100028F7D1BFF35B8F530625
:104A300012D53E680FF014F9039523880293019074
:104A40000095364B364938482A46B047204606B0CE
:104A5000BDE8F041FFF752BC002104F12C000EF03C
:104A600011F8054670B901960096D8F800402B4B16
:104A7000294A2B492D48A047404080F311884FF028
:104A8000040002DFD8F800700FF0EAF80596AB8951
:104A90000096274E049301901F4A214903950294E2
:104AA000244B2548B847A989B6F88820914209D8EF
:104AB00000231A4629462046FFF758FA50B106B09F
:104AC000BDE8F08104F1090729463846FFF756FF93
:104AD000014628B9284606B0BDE8F0410DF0FCBFFC
:104AE000012300222046FFF741FA0028F2D0AA89CC
:104AF000B6F888309A4202D800230122DAE7294624
:104B00003846FFF73BFF01460028E3D001231A4651
:104B1000E8E700BFA43A0020914801004459010091
:104B200039560100DD590100415A0100EE560100DD
:104B3000A83A0020245901007B5A0100034BC01AF7
:104B4000034B40115843C0B2704700BF60030020C0
:104B5000CDCCCCCC124B134A196810B511605968F2
:104B600001B95A60596892600F4A1A6001B95A60D7
:104B700001F054FB02F06AF8044670B900F088FABC
:104B80000A48FFF721F840B10948FFF71DF8C307AD
:104B900003D501210748FFF73DFC204610BD00BFAB
:104BA000000400205003002058030020A803002028
:104BB0006403002060030020704700001FB50B4A0B
:104BC00013682BB90A4850600A60184604B010BD3B
:104BD000084A094B0190029200921C680748084B52
:104BE0000849A0476FF00B00F0E700BF0804002061
:104BF000F43B002091480100A43A0020ED5E010042
:104C00007E5E010039560100F8B507460E460020C9
:104C100004211546FFF79EFE0421044608300DF0DE
:104C200093FF0770467045802046F8BD704700002E
:104C300000238360054B596800F1080211B95A60DE
:104C40001A6070470A605A60704700BFAC040020C9
:104C5000036C10B513B1083B002203B910BD8B42A1
:104C600003F108040FD199683AB9426C0164944287
:104C700000D1416400229A6010BD1160416C8C42E9
:104C800008BF4264F6E72246002CE7D09B68002B61
:104C9000E4D0083BE1E7036810B504462BB1436854
:104CA0005B6803B1984700232360E3681BB120468B
:104CB000BDE81040184710BD7FB50C4A0C4B02925E
:104CC000A0F110048DE8140005461E6809490A4B3E
:104CD0000A48B04755F8100C2146FFF7B9FF2046A7
:104CE00004B0BDE87040FFF7D6BF00BF9148010097
:104CF000A43A002039560100285E010041600100FD
:104D00001A4B2DE9F7431C6806462CB10027DFF843
:104D10006080083CB94614B903B0BDE8F08363680D
:104D200001A930469847002818DB019D23882B876E
:104D3000A5F85C30414605F110000FF0C7FAAF60EE
:104D4000726C05F1080372B97364336401982E60C4
:104D50004368C5F80C901B6803B19847A468002C01
:104D6000DAD0083CD7E713607364EFE7AC040020A7
:104D7000B94C0000036C10B5A3B1B3F108000AD11F
:104D800010BD083CFFF787FF64B1A36803B1083B7F
:104D900020461C46F6E71C68002CF2D1BDE8104006
:104DA000FFF779BF10BD0431FFF7D4BDF8B5144645
:104DB00005460F4602F1080004211E460DF0DBFEF9
:104DC000A189478004390180324621462846BDE842
:104DD000F840FFF751B80000F0B58B89032B87B07E
:104DE00007460D4609D85B4A5B4B019200921C684E
:104DF0005A495B4B5B48A04713E00846042150F832
:104E0000084F66880DF0BFFEAB899E420BD0514A19
:104E100003928DE84C00504B50491C685248504B4F
:104E2000A04707B0F0BD617841B94A4A4A4B0192A8
:104E300000921C6849494A4B4C48DCE72378122B06
:104E40002AD0132B1DD0012BEBD0424A02928DE8C1
:104E50000C00414B41491D684548414BA84702227F
:104E600061783D680120FFF7CFFE0221044608303B
:104E70000DF06AFE00230370437022460521284688
:104E800027E0012ECDD8334A334B019200921C68A3
:104E90003249384B3848AEE7072E08D82D4A2E4BFA
:104EA000019200921C682D49344B3548A3E73C68B9
:104EB000E6788EB102220120FFF7A6FE0221054608
:104EC00008300DF041FE0023037043702A4605218F
:104ED0002046FFF76BFFA4E7AB6858781A7842EAE0
:104EE0000022ADF81020D8789A7842EA0022ADF876
:104EF000122058791A7942EA0022ADF814209A79E2
:104F0000DB79132042EA03230222ADF81630FFF7C3
:104F10007BFE04A907462046FEF780FE02210546D7
:104F200007F108000DF010FE7DB1067046700023F9
:104F30003A4605212046FFF739FF002D3FF471AFB7
:104F400004A92046FFF761FC6BE70123037045705D
:104F5000EDE700BF91480100A43A00203956010056
:104F6000655E0100245F0100525F0100835F010064
:104F7000136001003A5E0100B45F01004C5E010065
:104F8000E05F0100006C00B1083800B97047B0F86C
:104F90005C308B42FAD083680020002BF6D0A3F15E
:104FA0000800F2E7006C00B1083800B97047038FC1
:104FB0008B42FBD083680020002BF7D0A3F10800C0
:104FC000F3E700007FB58B89032B06460C460ED80D
:104FD000154A164B019200921D681549154B16484B
:104FE000A847204604B0BDE870400DF075BD0846E6
:104FF000042150F8083F5D880DF0C5FD2946304674
:10500000FFF7D0FF50B9084A084B02928DE8240000
:1050100007491D680948074BA847E2E7436821464E
:105020001B699847DDE700BF91480100A43A0020C2
:1050300039560100705E01008B5E0100B85E010010
:1050400070B5124B1A78013212F0FF0208BF01222C
:105050001A700C460546197808221220FFF7D4FD75
:105060000821064608440DF06FFD238803806388FD
:105070004380A3888380E388C38032462846002388
:105080000521FFF793FE002070BD00BFA80400209B
:105090000148FFF7CDBD00BFE83B00200620704768
:1050A00010B50A4A002312F8334084424FEAC30184
:1050B00002D10A44907810BD01331B2BF3D110F0BC
:1050C000400F14BF0020062010BD00BF3863010050
:1050D0007FB5114D2C680E4684B9F422214628462E
:1050E000FCF7CAFD02220D4B6B6005F1D80011469A
:1050F0000EF0D8FD3560204604B070BD084A094B5B
:105100000190029200921C680748084B0849A0478A
:105110006FF00B00F0E700BFB4040020143C002047
:1051200091480100A43A0020F0610100E060010014
:105130003956010010B50446006908B10DF0CCFCE9
:10514000A3680BB120469847204614220021BDE8F1
:105150001040FCF791BD08B501F108000DF023FDEA
:10516000002008BD2DE9FF410D6806460C464FF0B2
:1051700000084FF4205302A900682F688DF80880BA
:10518000ADF80A30FCF7CAFE98B142F6010303A954
:1051900030688DF80C80ADF80E30FCF7BFFE40B1E2
:1051A000236923B1328A5988914200D25A80012062
:1051B00012E061683068FCF7B1FE10B10023236192
:1051C000F5E7E368A0681A784AB1B5F85E308189DE
:1051D0005B1A934203DA002004B0BDE8F081042199
:1051E00008300DF0B1FC338AA16820610380438050
:1051F0008A89B5F85E308968D6F804809B1A002544
:105200000A44009531469BB23846C047011EE2DB96
:10521000E06802780B1D2AB90370A06808300DF011
:1052200093FCC4E79A42F8D0A2689389043B938127
:10523000D1E78B6870B505460C460E6863B94868BF
:10524000012108300DF080FC2B68A0601B78002B3A
:105250000CBF012302230370A3681B78012B03D02A
:10526000022B1AD0002070BD2B681B78002BF9D1BF
:105270006068042108300DF067FCE0602B8A038031
:105280002B685B8843806368B6F85E009B89C01A10
:10529000042894BF0020012070BD2B681B78022BCE
:1052A000E0D16068122108300DF04EFCE060296802
:1052B0002B8A20F8023B10220131FCF7B1FC636815
:1052C000B6F85E009B89C01A1228E2E72DE9F0418A
:1052D0000E6888B005460C46002742F6010302A975
:1052E0000068D6F800808DF80870ADF80A30FCF739
:1052F00015FE28B90023A360012008B0BDE8F081A5
:105300004FF4205303A928688DF80C70ADF80E30C7
:10531000FCF704FE40B1A368002BEDD02A8A59881F
:105320009142E9D25A80E7E76268B6F85E30928926
:105330009B1A032BE1D9102300900DEB03026E683A
:1053400029464046B047021ED4DB237C9A42D1D185
:1053500004A9E068FCF74FFC0028CBD160746068BA
:10536000042108300DF0F0FB2B8AA06003804380FD
:10537000C2E7000010B517230446A0F85E3043874B
:105380000649B0300EF0A2FF0023C4F8A830C4F8DC
:10539000AC302068BDE8104001F0FEBBC1580000F1
:1053A00011F0010F837C04D013F0150F12D0426866
:1053B00082B18A0704D513F02A0F0DD082685AB142
:1053C000194011F0300F09D111F00C0F14BF0F204C
:1053D0000020704702207047032070470520704767
:1053E0002DE9F7430F6806460C4600684968D7F870
:1053F0000090FCF793FD804600284DD115213046E2
:10540000FFF7CEFF0546207548B1E3681D7815B15A
:1054100084F814804546284603B0BDE8F083A068B0
:10542000022108300DF090FB338AA16820610380CF
:105430008A89B7F85E308968D6F8048000959B1A8F
:105440009BB20A4448463146C047011E08DA01F1C2
:10545000FF03FE2B9ABF4942C9B20E212175DAE73C
:10546000E06802788B1C82B90370A06808300DF0E8
:105470006BFBA368B7F85E509B89ED1AE3681B7855
:105480009D42D4BF00250125C5E79A42EDD0A26810
:105490009389023B9381BEE70125BCE710B58A8959
:1054A000022A044603D0102A0AD0002010BD00238F
:1054B000037001F108000DF076FB6080012010BD43
:1054C000022300F8013B8968FCF7AAFBF6E700001D
:1054D00010B50421FFF756FD0446D8300EF0FAFB54
:1054E000D4F8A43043B104F1B00147F2305203487C
:1054F000BDE810400EF05EBF10BD00BFC81900200F
:1055000003685B7A032B0AD1BFF35B8FD0F8A0004E
:10551000BFF35B8F6FEAA00000F00100704701202D
:1055200070470620704708B50421FFF72BFDBDE842
:105530000840D8300EF0CEBB08B50421FFF722FD9D
:10554000BFF35B8F00F1A00353E8002F22F00102AC
:1055500043E800210029F7D1BFF35B8FD830BDE8C5
:1055600008400EF0B7BB08B50421FFF70BFDBFF3F1
:105570005B8F00F1A00353E8002F22F0020243E802
:1055800000210029F7D1BFF35B8FD830BDE8084078
:105590000EF0A0BB437A032B37B50BD0164A174B3E
:1055A000019200921C681649164B1748A04700202C
:1055B00003B030BD0421FFF7F5FC044650B90E4A94
:1055C0000E4B019200921D680D490E4B0F48A847E3
:1055D0002046EDE7BFF35B8FD0F8A030BFF35B8FC1
:1055E0005B07F5D5044A054B019200921C680449FB
:1055F000044B0748DAE700BF91480100A43A0020B5
:1056000039560100B5600100EE6001000C61010037
:10561000376101002DE9F3410C46D1F800802A21C1
:105620000646FFF7BDFE05462075E0B9628A019087
:105630000092237CB768E26831464046B8470028AC
:1056400002DB237C98420BD000F1FF03FE2B9ABFB4
:105650004042C0B20E202075284602B0BDE8F0815D
:1056600025750125F8E70025F6E7000073B5054626
:1056700000F1D806C5F8A4100C4630464FF0FF31B3
:105680000EF050FB2846FFF73BFF78B9184A194B3C
:10569000019200921C681849184B1948A0473046DF
:1056A0000EF018FB6FF0380002B070BD266906F1ED
:1056B00008000DF080FAB389A081E38120692D688C
:1056C0000DF03EFA23699B6806461878FFF7E8FC60
:1056D0000138C0B2042896BF0A4B0B4B53F8203058
:1056E000324628460421FFF761FB0020DCE700BFBB
:1056F00091480100A43A0020395601007860010069
:105700009261010064600100275500002DE9F74314
:105710000446B0301E460F4690460EF0E7FDD4F822
:10572000A430DBB91C4A1D4B019200921D681C4934
:105730001C4B1D48A847D4F8A81059B1D4F8AC2088
:105740000B68C4F8A830914208BFC4F8AC302046BA
:10575000FFF78CFF002003B0BDE8F083186928B183
:105760000DF0BAF9D4F8A43000221A61D4F8A430AC
:105770002068D3F8049000255D603A4600933146D6
:105780004346C847D4F8A40043680BB9FFF7D2FCDE
:10579000C4F8A450CFE700BF91480100A43A00200C
:1057A00039560100856001006B6101008A898968B2
:1057B0000023FFF7ABBFFFF7F9BFFFF7F7BFFFF716
:1057C000F5BFFFF7F3BFFFF7F1BFFFF7EFBFFFF73D
:1057D000EDBFFFF7EBBFFFF7E9BF10B40A46034682
:1057E00080B189680C88162C83BF17245C87A3F8C6
:1057F0005E40002299BF042311460023928910BC09
:10580000FFF784BF10BC704730B4D0F8A4208C6878
:105810006AB113692BB195891969D2899A81294492
:105820009960E3780022114630BCFFF76FBF0E236A
:10583000F8E7F7B500F1A0030546BFF35B8F53E827
:10584000002F42F0040243E800210029F7D1BFF302
:105850005B8F05F1D80420460EF03CFA20460EF08E
:1058600039FAD5F8A8408CB9D5F8A4300022C5F88B
:10587000A820C5F8AC200BB903B0F0BD0E2311462B
:10588000284603B0BDE8F040FFF740BF26686768D0
:105890002FB1002300941A460E211846B84720461F
:1058A000FFF748FC002EDFD034463668EFE710B52E
:1058B0000446FFF7BEFF2068BDE8104001F076B94E
:1058C00037B50B4B0B4A0192009204460A491D68FA
:1058D0000A480B4BA847A4F1B000FFF7AAFF54F801
:1058E000B00C01F063F9002344F8B03C03B030BDC4
:1058F000A43A00209148010039560100D46101000A
:10590000D46001002DE9F74306468868D1F800907D
:105910000C4608300021D9F800800DF015F9002759
:10592000E060277415213046FFF73AFD05462074E4
:1059300008BBA168B9F85E308A898968A0880090A0
:105940009B1A77680A449BB231464046B847011E0D
:105950000BDA01F1FF03FE2B9ABF4942C9B20E21B7
:105960002174284603B0BDE8F083A06808300DF02C
:10597000EBF80125F5E73D46F3E7000030B585B0CB
:105980000D461446FFF706FEF0B1B0F85E10013484
:105990008C420ED90D4A0E4B019103920294009253
:1059A0001C680C490C4B0D48A0470024204605B04C
:1059B00030BD00210846FFF7F6F901210446083002
:1059C0000DF0C2F80570F1E70446EFE791480100D9
:1059D000A43A002039560100C2600100256201008E
:1059E00010B5046801F108000DF0DDF800221E2159
:1059F0002046FFF7C3FF024620B1034B0421204697
:105A0000FFF7D4F9002010BD675500002DE9F041E3
:105A10008B681B88162B05461CD9D0F80080022203
:105A200003214046FFF7AAFF0746B0B10221083024
:105A30000DF08AF81726002406704470084B404683
:105A40003A460421FFF7B2F96E87A5F85E6020465A
:105A5000BDE8F0810420BDE8F0810E20BDE8F081B2
:105A6000395500002DE9F0418846174601210422EE
:105A700005461E46FFF782FF044680B10421083028
:105A80000DF062F880F80080C670A0F80170224620
:105A90002846044B0421BDE8F041FFF787B9BDE873
:105AA000F08100BF39550000F0B58B8985B0044600
:105AB0000F4653B94C4A4D4B019200921C684C4919
:105AC0004C4B4D48A04705B0F0BD0846012150F8A9
:105AD000085F0DF058F8494A28780023114612F85B
