:10000000802D0020DD1A0000311B00007519000052
:1000100075190000751900007519000075190000A8
:100020007519000075190000751900007D15000094
:1000300075190000751900003915000075190000C8
:10004000A11A00003B210100A11A0000A11A000022
:10005000A11A0000A11A0000A11A0000A11A0000B4
:10006000A11A0000A11A0000A11A0000A11A0000A4
:10007000A11A0000A11A0000A11A0000A11A000094
:10008000A11A0000A11A0000A11A0000A11A000084
:10009000A11A0000A11A0000A11A0000A11A000074
:1000A000A11A0000A11A0000A11A0000A11A000064
:1000B000A11A0000A11A0000A11A0000A11A000054
:1000C000A11A0000A11A0000A11A0000A11A000044
:1000D000A11A0000A11A0000A11A000000000000EF
:1000E0007512000000000000ED1800000000000084
:1000F000ED18000000000000ED18000000000000F6
:10010000ED18000000000000ED18000000000000E5
:10011000D541010000000000ED18000000000000C3
:10012000ED18000000000000ED18000000000000C5
:10013000ED18000000000000012101000000000097
:10014000ED180000883F0020D944010000000000A5
:10015000ED18000000000000ED1800000000000095
:10016000ED180000000000009D13000000000000DA
:10017000ED18000000000000ED1800000000000075
:10018000ED18000000000000ED1800000000000065
:10019000ED18000000000000ED1800000000000055
:1001A0003521010000000000ED18000000000000F3
:1001B000ED18000000000000ED1800000000000035
:1001C000ED18000000000000ED1800000000000025
:1001D000ED18000000000000ED1800000000000015
:1001E000ED18000000000000ED1800000000000005
:1001F000ED18000000000000ED18000000000000F5
:10020000ED18000000000000ED18000000000000E4
:10021000ED18000053B94AB9002908BF00281CBFD7
:100220004FF0FF314FF0FF3000F08EB9ADF1080C08
:100230006DE904CE00F01AF8DDF804E0DDE90223F0
:1002400004B07047430803F05533C01A830803F025
:10025000333300F03330184400EB101000F00F304F
:1002600000EB002000EB0040000E70472DE9F04746
:100270008C460D460446089E002B51D18A421746F3
:100280006DD9B2FA82FEBEF1000F0BD0CEF1200C78
:1002900001FA0EF520FA0CFC02FA0EF74CEA050CF6
:1002A00000FA0EF44FEA174A250CBCFBFAF81FFAC5
:1002B00087F90AFB18CC45EA0C4508FB09F3AB4269
:1002C0000AD9ED1908F1FF3280F02381AB4240F2E8
:1002D0002081A8F102083D44ED1AA4B2B5FBFAF062
:1002E0000AFB105544EA054400FB09F9A14509D968
:1002F000E41900F1FF3380F00A81A14540F2078143
:1003000002383C44A4EB090440EA08400021002ED6
:1003100061D024FA0EF4002334607360BDE8F087E6
:100320008B4207D9002E54D0002186E821000846D0
:10033000BDE8F087B3FA83F1002940F08E80AB422C
:1003400002D3824200F2FA80841A65EB0305012091
:10035000AC46002E3FD086E81010BDE8F08712B9F9
:100360000127B7FBF2F7B7FA87FEBEF1000F34D1D1
:10037000EB1B3A0C1FFA87FC0121B3FBF2F8250CAA
:1003800002FB183345EA03450CFB08F3AB4207D9DF
:10039000ED1908F1FF3002D2AB4200F2D180804665
:1003A000ED1AA3B2B5FBF2F002FB105543EA054487
:1003B0000CFB00FCA44507D9E41900F1FF3302D27D
:1003C000A44500F2B8801846A4EB0C0440EA0840AB
:1003D0009DE731463046BDE8F087CEF1200405FAAE
:1003E0000EF307FA0EF720FA04F83A0C25FA04F493
:1003F00048EA0308B4FBF2F14FEA184502FB114446
:100400001FFA87FC45EA044501FB0CF3AB4200FAF6
:100410000EF409D9ED1901F1FF3080F08A80AB426A
:1004200040F2878002393D44EB1A1FFA88F5B3FB8E
:10043000F2F002FB103345EA034500FB0CF3AB423C
:1004400007D9ED1900F1FF386FD2AB426DD90238F0
:100450003D44EB1A40EA01418FE7C1F1200722FA3F
:1004600007F88B4005FA01F448EA030320FA07FE77
:100470004FEA134CFD404EEA040EB5FBFCF94FEA7F
:100480001E440CFB19551FFA83F844EA054509FB85
:1004900008F4AC4202FA01F200FA01FA08D9ED18A8
:1004A00009F1FF3043D2AC4241D9A9F102091D4400
:1004B0002D1B1FFA8EFEB5FBFCF00CFB10554EEA0F
:1004C000054400FB08F8A04507D9E41800F1FF3502
:1004D00029D2A04527D902381C4440EA0940A4EBA0
:1004E0000804A0FB02894C45C6464D4615D312D0E0
:1004F00056B1BAEB0E0364EB050404FA07F7CB40E0
:100500001F43CC40376074600021BDE8F087184677
:10051000F8E69046E0E6C245EAD2B8EB020E69EB97
:1005200003050138E4E72846D7E7404691E78146CE
:10053000BEE7014678E702383C4445E7084608E74D
:10054000A8F102083D442BE7704700BF70B503785F
:100550008AB004460E4607AD032B20D8DFE803F02F
:1005600002191B1D1149284601F014FB6278049200
:10057000A2780392E2780292227901926279009243
:10058000A37905950A4A1B21304600F00DFD0AB0FB
:1005900070BD0849E7E70849E5E70849E3E7084A85
:1005A0000A21284600F000FDE0E700BF5D5A010087
:1005B000865A0100645A01006B5A0100755A010005
:1005C0007F5A010030B589B00D46044604F09EFC08
:1005D00001A9FFF7BBFF35B12A4601A9084800F081
:1005E000D5FC09B030BD074B1B689C42F9D101A96D
:1005F000054800F0CBFC1321204604F037FDF0E75E
:10060000A95A010000000020C75A010030B5134C60
:10061000236883428BB00D461DD104F077FC03A9FB
:10062000FFF794FF2A4603A90D4800F0AFFC2068AD
:1006300004F0B4FA002323600A4B0B4918680190B8
:100640009B88ADF8083001A803F08EFE014610B17A
:10065000064800F09BFC0BB030BD00BF000000203E
:10066000F25A0100005A010071060000105B0100FF
:1006700070B5104C23688AB006460D46C3B9012AEE
:1006800016D803A9FFF762FF2A4603A90A4800F01B
:100690007DFC46350CDB03F0B9FE48B9074A10680B
:1006A000516801AB03C301A9304604F031FC20605E
:1006B0000AB070BD00000020D65A0100065A0100A1
:1006C00007B5002003F0E0FD014628B10E4800F018
:1006D0005DFC03B05DF804FB0C4800F057FC0C48CF
:1006E00003F056FF0B4B0C49186800909B88ADF83F
:1006F0000430684603F038FE014608B10748E6E7D3
:10070000074800F043FCE4E7335B0100535B010062
:10071000C03A00200E5A010071060000105B010073
:100720006A5B01000C4B1B78062B12D10B4B18682F
:1007300010F00F000DD104331B6803F0F003302BD1
:1007400008D1074B1B6813F0F00F0CBF01200020ED
:1007500070470020704700BFE00F00F0E40F00F08A
:10076000EC0F00F008B54FF02003EFF3118183F395
:100770001188FFF7D7FF20B13D4AD36823F080737B
:10078000D360FFF7CFFF10B13A4B03221A60FFF797
:10079000C9FF30B14FF080430022C3F80C21C3F8E9
:1007A0001021354B1B78062B17D1344B1B681807CB
:1007B00013D1334B1B6803F0F002302A03D003F04F
:1007C000E003402B09D14FF08043D3F80024D20737
:1007D00003D56FF00102C3F800244FF01022D2F8C5
:1007E0000032002B274B03DBD2F80022002A2FDA3D
:1007F0000122C3F80425D3F80024002AFBD04FF0CF
:1008000010231522C3F800221E4A1346D2F8001402
:100810000029FBD04FF010221521C2F80412D3F8A2
:100820000024002AFBD00022C3F80425154AD2F880
:100830000034002BFBD0BFF34F8F1349134BCA6812
:1008400002F4E0621343CB60BFF34F8F00BFFDE7BC
:100850000122C3F840250C4B4FF0FF329A62DA6256
:100860000B4B0C4A1A6081F31188002008BD00BFB1
:10087000F0ED00E0A0050040E00F00F0E40F00F014
:10088000E80F00F000E0014000ED00E00400FA0590
:10089000F43A00200090D00308B5044608461146FB
:1008A0001A46A04714F05EFB01F0D4F810B5C47AE4
:1008B000C0688C424FF00C04B6BF614304FB0101D9
:1008C0004158202492FBF4F401EB8401196002F0FA
:1008D0001F0010BD07B501ABFFF7E8FF019A012328
:1008E00003FA00F013680343136003B05DF804FBE0
:1008F00007B501ABFFF7DAFF019A012303FA00F015
:10090000136823EA0003136003B05DF804FB2DE9CC
:10091000F0474368058904460068A77A5D43284488
:1009200000214FF00C0E4FF0200CB94205DB0025E2
:1009300023899D4223DBBDE8F087D4F80C90B5FBFA
:10094000F3F20EFB01F81F2A09EB08064FEA9303A6
:1009500006F1040AC8BF1F3203F10303C6F804A05E
:10096000C6F808A0CABF92FBFCF2E17249F8080081
:1009700023F00303C8BF00EB82000131D5E76268B2
:10098000E36820686A431E1D865081189A684A6091
:100990009A682046116099602A460021FFF79AFF65
:1009A0000135C5E72DE9F04F8BB0867A00AF0446DC
:1009B000FB60B3000A3323F00703ADEB030D43687C
:1009C0003A6103336A4623F0030342F80439E946E7
:1009D0004FF0FF3500234FF00C0E581EB3427862E3
:1009E00009DA2BB110688008033020F00300506052
:1009F000506888420BD27B6A013314D13A6D0023D0
:100A000013606FF00B002C37BD46BDE8F08FE06837
:100A10000EFB030000F1040C40680432604518BF6F
:100A20001D460133D9E76B1CE8D0E16859F8252051
:100A30000C2303FB051353F8046F9E4261D096E824
:100A40000A00196031684B6023682946F31A204672
:100A500093FBF2F2FFF74CFFA9EB890309EB850A40
:100A6000BB617B6A9D4223680EDB3A6911467A6A54
:100A70000A60F31A59F8222093FBF2F3FA68136024
:100A80003B6D00201E60BEE75AF8042BF31A93FB5F
:100A9000F2F3BA699B007B610AEB4A0313444FF0FF
:100AA000010BFB6105EB0B03BB60DAF80080B96852
:100AB0000BFB08F33B62F3187B607B6920460BEB72
:100AC0000302FFF707FF7B682268218908F1FF38DE
:100AD0009844A8EB020862684A4390450AD2E2684B
:100AE000F969386A0A44111D31509168596091685A
:100AF0000B6093600BF1010BBBF1040FD5D10135F5
:100B0000AFE76FF00A007EE72DE9F04F85B0837AFA
:100B10009B000A3323F0070300AFADEB030D4368DE
:100B2000033323F003030546EA4600936C46012095
:100B300081424CD20C4616463246214628465AF887
:100B40002480D5F80090FFF7C5FE002C48D007F1AF
:100B50000C03324621462846FFF7A8FEFA68042314
:100B600090FBF3F083001068D84000F00F000F28CE
:100B700036D126F003034FF000097B6008F1FF3BFC
:100B80007B684B441A46214628463B60FFF7B0FE7F
:100B90003B689E4212D008FB03F2B5F808C06B68B0
:100BA000296802EB0B0E03FB0CF39E4501EB0200E0
:100BB00004D240688B5803608B58586009F10109D2
:100BC000B9F1040FDCD196FBF9F6013CB4E72368D8
:100BD0009B08033323F0030344F8043F0130A7E7E5
:100BE00008FB06F62A68696809EB060308F1FF3876
:100BF0009844A8EB02082A89514388450BD2E9683A
:100C00000C2202FB0414221D49F80620A2685A6037
:100C1000A2681360A3601437BD46BDE8F08F0020C2
:100C2000704700000B6801330B60014B1B681847CD
:100C3000F83A00202DE9F04F85B09B460E9CDFF876
:100C400090A0012CB8BF0124012B0CBF302320231E
:100C50001546804689460194029301260A27002200
:100C60000AF101040AB9AA451FD2B5FBF4F04946BE
:100C70003030C04701360122013F012FB5FBF4F1AE
:100C80004FF00A0304FB1155BAFBF3FAE8D14946C9
:100C900005F13000C047BBF1030F03D1019B9C1B42
:100CA000002C0FDC05B0BDE8F08F019BBB42E3DBFD
:100CB000BBF1020FE0D84946029803920136C047C3
:100CC000039AD9E749462020C047013CE8E700BF26
:100CD000FFC99A3B0A688B6830B512B14C68A342D1
:100CE00002DB01338B6030BD651EAB420BBF8C60F5
:100CF0005C1C00218C600CBFD154D05430BD00006E
:100D0000014B1860704700BFF83A00202DE9F04F02
:100D100089B04FF0000A06460F4604921C464FF079
:100D2000FF39D0465546049B187810B909B0BDE884
:100D3000F08F45B9252800F00C813946B047049B57
:100D400001330493EFE7642861D019D839280AD811
:100D5000312850D22D283CD030283DD0252808D12C
:100D60003946B0476FE0582800F08980632800F0CA
:100D7000EA8039462520B047049B39461878F0E7C9
:100D8000702872D006D8692841D06C283CD06828D9
:100D9000D5D0EEE7752858D017D87328E9D1236845
:100DA00004F1040B1C46254615F8010B002840F001
:100DB000BF80B8F1030F40F0D580E41AA9EB04041A
:100DC000002C00F3BB805C463DE0782857D07A28A1
:100DD000DEE74FF00308B2E7B9F1000F0EDAB8F121
:100DE000000F00F0BC80A0F13009B8F1000F08BF7F
:100DF0004FF00208A3E7B9F1000FF4DB0A2303FB6D
:100E00000909A9F13009F0E70AF1010A97E7BAF1F7
:100E1000010FC5BF073424F0070325681D68D4BF40
:100E2000043403F10804002D05DA39462D20B047BB
:100E30006D4209F1FF39CDF8009043462A46394604
:100E40003046FFF7F7FE002579E7BAF1010FC5BF7D
:100E5000073424F0070322681A68CDF80090CCBF4D
:100E600003F1080404344346E9E739463020B0472B
:100E700039467820B0474FF008094FF00108BAF121
:100E8000010FC7BF073424F0070323680593C2BFCF
:100E900003F108041B6805934FF008024FF00003AC
:100EA000D8BF04340393079393460BF1FF3B059B94
:100EB0004FEA8B0023FA00F010F00F0009D1079BD6
:100EC00013B9BBF1000F22D14FF0300E07E0069AA4
:100ED000EBE709288CBF4FF0570E4FF0300E394624
:100EE00070440692B047039B079501330393BBF10F
:100EF000000FECD1B8F1030FA5D1039BC3EB49055B
:100F0000002DA0DD39462020B047013DF8E7531EF3
:100F100091450693EBDBB8F1010F03D13946302040
:100F2000B047E4E7B8F1020FE1D139462020F7E7F6
:100F3000394603932C46B047039B34E739462020BB
:100F4000B047013C3CE72068251D3946B0472C4698
:100F500079E7AA46A8464FF0FF390125EFE64FF0A2
:100F60000108ECE65C460546E9E6000013B502AC74
:100F7000002344F8043D02460B4603482146FFF790
:100F8000C5FE019802B010BD250C00000FB407B5D6
:100F900004A951F8040B0191FFF7E8FF03B05DF8D5
:100FA00004EB04B0704700000CB430B585B008AB5A
:100FB000044653F8042B01900291002501A907482B
:100FC00000930395FFF7A2FE0398029B9842B8BFD7
:100FD000255405B0BDE8304002B07047D50C000084
:100FE0007047000013B5114CBFF35B8F2068BFF34F
:100FF0005B8F60B90E4813F0DDFABFF35B8F54E8E6
:10100000003F44E80002002AF9D1BFF35B8F436838
:1010100004221B680DEB02019847002802DA00F059
:1010200037FA0190019802B010BD00BF0400002003
:10103000985B01000A2838B50446074D04D128689A
:1010400043680D215B68984728684368E1B25B6894
:101050009847204638BD00BF080000200148FFF730
:101060004FBE00BF3510000008B5044813F0A2FAC7
:10107000034B1860FFF7F2FF002008BDA25B0100E0
:101080000800002010B54FF02003EFF3118283F326
:101090001188114C237823B982F311886FF0440032
:1010A00010BD013BDBB2237023B182F311886FF0D6
:1010B0000F0010BD094B1878012128B1217082F36F
:1010C00011886FF00A0010BD197082F311884FF07B
:1010D00080425160187010BD0E0000200D000020ED
:1010E00008B500221046012100F0E8FB002000F0C6
:1010F000B3FB002008BD0000F8B54FF02002EFF36D
:10110000118382F31188254A1078441C147060B151
:1011100083F311884FF08043D3F80C3413F4803FED
:1011200014BF00206FF04300F8BD1D4D2F782FB184
:10113000107083F311886FF00A00F8BD01262E703D
:1011400083F311884FF0804419B3384600F094FBC4
:10115000C4F80071D4F80433C4F804632660D4F8EA
:10116000002192B10022C4F800210E4A13F0010FB1
:101170004FF0010308BFC4F808330020C2F88031E3
:1011800000F06AFB00232B70C4E720BF40BF20BFE4
:10119000E5E7C4F800112660F4E700BF0E00002068
:1011A0000D00002000E100E0F8B506460C464FF0C7
:1011B0002002EFF3118382F311882C4A157865B170
:1011C00083F311884FF08043D3F8183413F4803F31
:1011D0000CBF6FF043000020F8BD0127177083F3A8
:1011E0001188284600F048FB4FF080430221C3F8E5
:1011F0000451D3F80423C3F80413C3F818459F60BF
:10120000D3F8041171B39207194F58BF02224FF05F
:1012100000014FF00105C3F804114FF0000058BF62
:10122000C3F80823C7F8805100F016FB4FF0804345
:1012300000211822C3F80823C3F80C11C3F81011B9
:1012400014F00301BED11020C3F83805C3F80423FD
:101250003046C3F80453FFF74FFF0028B2D1C7F858
:101260000051AFE720BF40BF20BFC9E70C000020FE
:1012700000E100E0F8B54FF080430546D3F808E1FF
:10128000D3F80423D3F80C44D3F80071D3F8040145
:10129000D3F80C11D3F8106102F00102BEF1000F77
:1012A00003D04FF0000EC3F808E127B14FF08043A0
:1012B0000027C3F800713AB1E30341BF4FF0804308
:1012C0000122C3F808231A6120B14FF080430022A5
:1012D000C3F8042149B14FF080440021C4F80C1137
:1012E0002846FFF7CFFE0123636176B14FF08043BC
:1012F00000210124C3F810112846C3F80443FFF766
:10130000FBFE10B9014BC3F80041F8BD00E100E05D
:10131000084BC3F84005D3F80435C01A20F07F40CD
:10132000054B0238984282BF044B4FF40032C3F899
:101330000021704700100140FDFF7F0000E100E048
:1013400038B5114B114CD3F804052268104D801AA2
:101350002B6820F07F4098420FD3B0FBF3F00D498B
:101360000968884228BF084600FB032323F07F4317
:101370002360094B186013F06DFE20682B68184439
:10138000BDE83840FFF7C4BF001001401400002042
:10139000483F002010000020443F0020024B002264
:1013A000C3F84021FFF7CCBF00100140031E0A4ADA
:1013B0000A4804DB116890FBF1F18B4202DD1368EF
:1013C00090FBF3F31068064A064912680B6000FBB5
:1013D0000320FFF79DBF00BF483F0020FFFF7F00B5
:1013E000140000201000002008B5074B0022C3F8AD
:1013F0004021064B4FF40032C3F88021FFF7A0FFD5
:10140000034B01221A6008BD0010014000E100E01A
:101410001000002070B5184813F0CCF848B34368AA
:10142000164D1B6801219847154B00241C60154B75
:1014300001261E60144BC5F808451B68C5F84035E9
:101440004FF48033C5F84433C5F804330F4BC5F867
:1014500040414FF40032C3F880213146224611202A
:1014600000F02CFA112000F0F7F9AE6020462E6053
:1014700070BD4FF0FF3070BDC45B01000010014033
:101480001400002010000020483F002000E100E090
:101490000A4A30B5D2F80435094DD5E90001D2F831
:1014A0000445A34207D1074A126850431B1A23F090
:1014B0007F43184430BD2346EFE700BF00100140D2
:1014C000B0190020483F002007488168006A884220
:1014D00008D000B513F0F8FC5DF804EB03494FF0B9
:1014E00080520A60704700007819002004ED00E087
:1014F000044800232021C2180133272B82F800134F
:10150000F9D1704700E100E0084A09499368096889
:10151000D966084998664B6843F080534B600023B6
:1015200083F311889368D86E704700BF7819002044
:101530009CA2010000ED00E0202080F311880D49FD
:101540008A682C201044EFF3098C80E8F01F0A4FC2
:101550004FF000660A6A8A603E60906E00239366D0
:1015600080F3118802F12C0090E8F01F8CF30988B9
:10157000704700007819002004ED00E01EF0040F11
:101580000CBFEFF30880EFF30980816931F8021C8A
:1015900011F0FF010229FFD000B500F02BFA00BDC9
:1015A00010B5044613F0DEFC22680146BDE8104089
:1015B0000148FFF7EBBC00BF1D5D010038B50446D4
:1015C0001A480D46FFF7E2FC04F11800184CFFF72B
:1015D000E7FFA36AD90602D51648FFF7D7FCA36A2E
:1015E0001A0702D51448FFF7D1FCA36A9B070ED552
:1015F0001248FFF7CBFC616BA36A180607D51048A9
:10160000FFF7C4FC1DB1A36A23F08003A362084C5A
:10161000A26AD20702D50B48FFF7B8FCA36A9B0663
:1016200002D50948FFF7B2FC002038BD675D010014
:1016300000ED00E07E5D0100905D0100A45D010011
:10164000BD5D0100CE5D0100EE5D010010B50446F8
:101650001A48FFF79BFC04F11800194CFFF7A0FF94
:10166000A36A9A0102D51748FFF790FCA36ADB0131
:1016700002D51548FFF78AFCA36A180302D5134860
:10168000FFF784FC0E4CA36A590302D51048FFF7FC
:101690007DFCA36A9A0302D50E48FFF777FCA36A84
:1016A000DB0302D50C48FFF771FC054A936A6FEA29
:1016B00003436FEA13439362002010BD1E5E0100D6
:1016C00000ED00E0375E01004B5E0100665E010048
:1016D000855E0100AB5E0100C65E010038B50446C0
:1016E0001D480D46FFF752FC04F118001B4CFFF794
:1016F00057FFA36AD80404D51948BDE83840FFF75E
:1017000045BCA36A190501D51648F6E7A36A9A05F0
:1017100014D51548FFF73AFCA16BA36A1B0407D543
:101720001248FFF733FC1DB1A36A23F40043A36200
:101730000A4B9B6A58050ED50D48DEE7A36A59058A
:10174000FAD4A36ADA0501D50A48D6E7A36A9B044E
:1017500001D50948D1E738BDE45B010000ED00E0A8
:101760007E5D0100905D0100FB5B0100BD5D01003D
:10177000155C0100315C0100EE5D010038B5274CBD
:101780006368C3F30803DA1E0546092A3BD8DFE87D
:1017900002F0053436303A3A3A3A3A382048FFF700
:1017A000F5FBE36A9A0703D51E48FFF7EFFB02E05B
:1017B000E36A5B0001D4002009E01B48FFF7E6FB69
:1017C0001A4B1B7843B101212846FFF7F7FE294643
:1017D000BDE8384000F012B9154B1B7823B1012148
:1017E0002846FFF77BFFE6E7124B1B889BB2002BD6
:1017F000E1D02846FFF72AFFE9E70021E4E70021CE
:10180000EEE70D48D1E70D480D49A3F110020F2B6B
:10181000D8BF01460B48FFF7B9FBCCE700ED00E06D
:10182000785C0100905C0100B25C010028ED00E0F2
:1018300029ED00E02AED00E0D25C01004A5C0100E5
:101840005F5C0100095D0100024A536943F0100327
:101850005361704700ED00E043B2002B08DB01222A
:1018600000F01F0002FA00F05B09024A42F8230070
:10187000704700BF00E100E043B2002B0DDB012206
:101880005B0900F01F0002FA00F02033034A42F81F
:101890002300BFF34F8FBFF36F8F704700E100E06D
:1018A0004209054B00F01F0053F82220012303FAE0
:1018B00000F01040704700BF00E100E043B2002B91
:1018C000A8BF03F1604301F101014FEA4111ADBF2F
:1018D00003F5614300F00F00034BC9B2B6BFC9B2B4
:1018E00083F800131954704714ED00E000F042B87B
:1018F00008B572B6044BD86918B10022DA6112F04B
:101900007FFE62B608BD00BF78190020F8B50C460E
:1019100016461F4604220A9B0999054613F0B6FD98
:10192000A6F1200121440C4AEC6521F007010023B7
:1019300022F001022B656B652E668A61069A4A6069
:10194000079A8A60089ACA600F604FF08072CA6175
:10195000E964AB66F8BD00BF990800000149102298
:101960000A60704710ED00E0404080F3118830BFFE
:10197000704700BF404080F31188DFF81CC0DCF8DE
:1019800000C01CF4006C0CBFEFF30880EFF309807B
:1019900000B5FFF7F3FE00BD04ED00E0042838B504
:1019A00004460D4613D0052813D0032813D10C4844
:1019B000FFF7ECFA13F0D6FAAA6901460948FFF7D7
:1019C000E5FA29462046BDE8384000F017B8064839
:1019D000EEE70648ECE701460548FFF7D7FAE9E7E6
:1019E000F25E0100705F0100185F0100325F0100CC
:1019F0004D5F010001460068FFF7D0BF052810B514
:101A00000CD013F071FC60B113F06EFC0C4B0D495F
:101A1000002808BF19460C48FFF7B8FAFFF7A4FFE3
:101A2000FCE713F071FC0028EED1084C0848A168CF
:101A3000FFF7ACFAA068BDE8104000F00BB800BF9B
:101A4000B05F0100AC5F0100C15F010078190020A8
:101A5000E15F010038B505464FF02003EFF3118434
:101A600083F3118813F0A8FC0B4B9B689D420DD1AA
:101A70000A4B5A68C2F3080222B913F025FA20462D
:101A8000FFF742FD5A6842F080525A602046BDE896
:101A9000384013F0D3B800BF7819002000ED00E003
:101AA00000B572B60B4AD06900281EBF0021D16173
:101AB00012F0A6FD62B6EFF30580A0F110004FEA28
:101AC000C0000549014409C998475DF804EBFFF7D8
:101AD000FBBC000078190020DC000000202080F30F
:101AE000118806484FF40061401880F309880220ED
:101AF00080F31488BFF36F8F00F006B8C02E00206B
:101B000030BFFFF7FDBF00BF08B5074B074A23F002
:101B10007F039360BFF34F8FBFF36F8F12F0A0FD71
:101B200012F0A8FD12F0CAFD0000000000ED00E078
:101B300008B5FFF7E5FFBDE80840FFF7C5BC0000AA
:101B4000124930B50D68082D0DD8114A4868002398
:101B500053609D4200F10C0007D105235360BFF391
:101B60004F8FBFF36F8F002030BD50F80C1C50F822
:101B7000044C936021F01F0141F01001194344F01F
:101B80000104D16001331461E3E700BFD43A0020BF
:101B900090ED00E00139034611F8012F0AB91A70DF
:101BA000704703F8012BF7E702460346981A13F82B
:101BB000011B0029FAD170470138013910F8013FA3
:101BC00011F8012F934202D1002BF7D11A46981A2F
:101BD000704770B582B1013A0C46034603D11A78BA
:101BE0002078101A70BD1E782578AE4200F10100F1
:101BF00001F10101EFD0F2E7104670BD81EA000368
:101C000013F0030F70B503460BD0013B0A44914219
:101C10001BD170BD002AFCD011F8014B03F8014B19
:101C2000013A9C07F6D11E1F0D46541B0C44032C91
:101C300006D822F003042144234402F00302E4E71F
:101C400055F8044B46F8044FEFE711F8014B03F841
:101C5000014FDCE770B5C9B203469C0711D141EAD8
:101C6000012444EA04441E46951B1D44032D0ED84E
:101C700022F00304234402F003021A44934209D1E0
:101C800070BD002AFCD003F8011B013AE5E746F8D5
:101C9000044BE9E703F8011BF0E7000070B54FF0D3
:101CA0002003EFF3118583F31188144C144E23782D
:101CB00003EBC312013303F003033244237085F3B3
:101CC0001188402928BF40210E4D0138134602EBF0
:101CD0004106B34204D1002302F81130104670BD12
:101CE0004478240902332C5D03F8024C10F8014FAC
:101CF00004F00F042C5D03F8014CEAE774000020A7
:101D0000750000202460010010B50F4A0F4C1378B5
:101D100003EBC301013386B003F0010313700278B3
:101D2000437904924278039282780292C2780192B7
:101D300004EB4104027900921221054A2046FFF784
:101D400033F9204606B010BD7200002018000020B4
:101D50000660010070B51D4A1D49137803EB430668
:101D6000013303F00103137003788AB006EBC60653
:101D700004460E4407AD032B21D8DFE803F0021A16
:101D80001C1E14492846FFF705FF62780492A278CA
:101D90000392E27802922279019262790092A37909
:101DA00005950D4A1B213046FFF7FEF830460AB074
:101DB00070BD0A49E6E70A49E4E70A49E2E70A4A48
:101DC0000A212846FFF7F0F8DFE700BF7300002084
:101DD0003C0000205D5A0100865A0100645A01004F
:101DE0006B5A0100755A01007F5A01002DE9F0413C
:101DF0008AB004460D46164613F0B4F81021074683
:101E00002046FFF74BFF032180462846FFF746FF99
:101E1000124B049303908DE88801114A114B12492B
:101E20001248FFF7B3F80322294606A8FFF7E6FE9B
:101E30000D2200210DF11B00FFF70CFF06AA204622
:101E4000114606F003FE044620B9032206A93046D7
:101E5000FFF7D4FE20460AB0BDE8F081F15A010038
:101E6000596001003560010060600100636001009D
:101E7000F0B589B00C46054613F074F810210646FB
:101E80002846FFF70BFF07462046FFF73DFF0E4BA6
:101E9000049303908DE8C8000C4A0D490D4B0E4881
:101EA000FFF774F807AAE11C2846FFF79FFF48B91F
:101EB000032207A92046FFF78CFEB0FA80F0400904
:101EC00009B0F0BD0020FBE7F15A010059600100A4
:101ED0006060010038600100A9600100F0B5CE1C0F
:101EE00085B007460C463046032106F093FD0546B3
:101EF000E8B9637903F03F0343F04003637122467E
:101F000031463846FFF772FF054680B913F02AF8CC
:101F100006462046FFF7F8FE064B039302908DE835
:101F20004800054A054B06490648FFF72FF82846A2
:101F300005B0F0BDF15A0100596001004B6001008D
:101F40006060010085600100F0B40278012A044657
:101F50000B4617D003D3022A2CD0F0BC7047184A86
:101F60000D4602F11007106851682E4603C608326C
:101F7000BA423546F7D11278327062885A73120A23
:101F80009A73EAE70E4A0D4602F11007106851688D
:101F90002E4603C60832BA423546F7D1127832705F
:101FA00062685A73C2F30721120CDA73120A99732A
:101FB0001A74D2E7014611221846F0BCFFF71EBE84
:101FC000CF60010010B50C46017822788A428AB0B1
:101FD0000ED06946FFF7B8FF05A92046FFF7B4FF0A
:101FE00010220DF115010DF10100FFF7F2FD0AE0DD
:101FF000012A0AD004D3022A0AD06FF0150002E0A9
:1020000040886388C01A0AB010BD40686368F9E769
:102010001022611C0130E8E77047000070B50B4DDD
:1020200006460FCD8AB06C460FC40FCD0FC495E89D
:102030000300092E84E803009BBF0AAB03EB86066E
:10204000034856F8280C0AB070BD00BF145A0100AE
:102050001C7501000722FFF7D1BD00B5BFF35B8FF0
:1020600050E8003F43EA010240E8002EBEF1000FB5
:10207000F6D1BFF35B8F18465DF804FB00B5BFF3E4
:102080005B8F50E8003F03EA010240E8002EBEF1FA
:10209000000FF6D1BFF35B8F18465DF804FB00001C
:1020A000C378002B41F2883200F1700108BF002292
:1020B000014813F0C1BA00BFB81900202DE9F04360
:1020C00087B015468846074612F04CFF2C4E01900B
:1020D0002C4B2D4A2D4905960495CDF80C8002977E
:1020E00000962B48DFF8BC90FEF750FFA87911F05E
:1020F000EDFD814513D0AC79204611F0E7FD059642
:102100000390CDF8109002948DE8C0001D4B214A39
:102110001E492148FEF73AFF07B0BDE8F083284684
:1021200011F0DAFD1D4C04EBC0004388BB420FD018
:10213000284611F0D1FD04EBC000039643880293BA
:102140008DE8C0000F4B134A10491548FEF71EFFDB
:10215000284611F0C1FD04EBC0004368002BDBD022
:10216000284611F0B9FD04F83080284611F0B4FD7E
:1021700004EBC000406807B0BDE8F04312F001BFB7
:10218000F15A0100596201005960010060600100CC
:10219000F66F01002E700100357001007C020020F6
:1021A0007A700100644000204B09BFF35B8F50F848
:1021B0002300BFF35B8F01F01F01084100F0010015
:1021C000704700002DE9F04786B006460F4612F032
:1021D000C9FEDFF8A0A0DFF8A090DFF8A080204DB6
:1021E000049553464A46019000954146039702964E
:1021F0001C48FEF7CBFE4FF0FF311B4811F0FAFDF3
:10220000044612F0AFFE4A465346039501900095EE
:102210004146029404F108081448154DFEF7B6FE35
:102220004FF000090021404611F003FE84F814909D
:10223000204611F051FD05EBC0004680204611F00C
:102240004BFD05EBC0000321C0F80490404611F09F
:1022500033FE06808770204606B0BDE8F08700BFD9
:10226000F15A01007365010064400020A36501007C
:102270007C020020F86001005960010060600100EC
:102280002DE9F04381468DB015460C4621B9FFF784
:1022900099FF0446002853D012F064FE2A4E05969A
:1022A000A38904930DF11808284B0190284A294965
:1022B000CDF80C90029400962748284FFEF766FE52
:1022C00001220021404612F053FE204611F004FD89
:1022D00007EBC000C0F80480204611F0E9FD21465C
:1022E0001F4811F0AAFD42F21071404612F071FE33
:1022F00012F038FE8046204611F0EEFC049617F8E6
:1023000030300393124A114B124916488DE84003AE
:10231000FEF73CFE204611F0DFFC17F8300038B124
:10232000204611F097FD6FF004000DB0BDE8F0837A
:102330000DB12C60F9E7204611F08CFD2846F4E73A
:102340006FF03600F1E700BFF15A01001A61010099
:1023500059600100606001001B6601007C020020E2
:10236000C43B00204C66010038B50221054642F20C
:102370000C00FFF727FF044630B30221083011F0AC
:102380009BFD012D024616D10B211148FFF70CFFD2
:10239000507015702146002242F20C00FFF770FFCA
:1023A000044630B9012D09D14FF480710848FFF778
:1023B00054FE204638BD00234370EAE76FF4807175
:1023C0000348FFF75BFEF4E76FF03604F1E700BF68
:1023D000703B00207FB5054612F0C4FD0446284638
:1023E000FFF792FC1A4B1B4E03938DE818000290E6
:1023F000194B1A4A1A491B48FEF7C8FD062206F176
:1024000008012846FFF7E5FB0446D8B1062142F251
:102410000500FFF7D7FE0446B8B10622294608306A
:1024200011F050FD2146002242F20500FFF728FF7F
:10243000044638B90622294606F10800FFF7DEFBFC
:102440000123F371204604B070BD6FF03604F9E744
:10245000F15A0100003B00202F610100596001008A
:10246000606001002374010038B50121054642F285
:102470000A00FFF7A7FE0446D8B108308DB101214C
:1024800011F029FD2146002242F20A00FFF7F8FE72
:10249000044620B93DB140210748FFF7DEFD204644
:1024A00038BD2946ECE76FF040010348FFF7E6FD31
:1024B000F5E76FF03604F2E7703B002002884388AE
:1024C0009A4210B518D8052A16D9B3F5486F13D813
:1024D0008488B4F5FA7F0FD2C188A1F10A0292B2C2
:1024E00040F67640824207D804FB0333B3EB810FFA
:1024F000B4BF0120002010BD002010BD012310B585
:102500000621044600F8013B06F084FA18B9A379C5
:1025100063F03F03A37110BD37B5114C2378012B35
:1025200004D1A37903F0C003C02B0DD00D4B019350
:1025300000930D4A0D4B0E490E48FEF727FD6FF034
:102540001505284603B030BD601CFFF743FF054664
:102550000028F6D1042104F17000FFF77EFDF0E7BA
:10256000003B0020F15A0100AE6F0100B76301008B
:1025700060600100B56F01002DE9F0431D4DDFF8EB
:1025800090801D4F1D4E1E4C87B02846FFF7E2FB82
:1025900043463A4631460190029400941948FEF7AA
:1025A000F5FC95F80E904846FFF738FDAB8A04938A
:1025B0002B8A03933A4643463146CDF80890019062
:1025C000059400941048FEF7E1FC95F80F904846FA
:1025D000FFF724FD6B8A039301900494CDF80890D3
:1025E000009443463A4631460848FEF7CFFC07B010
:1025F000BDE8F083003B00207564010060600100CD
:10260000F15A01007C64010099640100E764010053
:10261000D863010010B5044686B012F0A3FC227DF9
:102620000B4B0492A28905930392019000930294AC
:10263000084B094A09490A48FEF7A8FC094BD3F898
:10264000D4301B69204606B0BDE81040184700BFD3
:10265000F15A0100FE630100596001006060010051
:10266000836F0100003B002070B5054686B00C4624
:1026700021B9FFF7A7FD044600282CD012F072FC08
:10268000164E0496A38903930190154B029500966C
:10269000144A15491548FEF779FC40F635439D422A
:1026A00013D12046FFF7B6FF054658B101900296B8
:1026B00000960B4B0E4A0C490E48FEF767FC20466D
:1026C00011F0C8FB284606B070BD21460A4811F03B
:1026D000B4FB0025F6E76FF03605F3E7F15A010089
:1026E0000A6101005960010060600100BF650100DE
:1026F000AE6F0100E9650100C43B0020F0B505465E
:1027000085B0C68A807911F0E1FA294612F079F98C
:102710002F4B93F828309B060FD5687D2D4C02F087
:102720008DFE074658B902946B7D019300942A4BA5
:102730002A4A2B492B48FEF729FC05B0F0BD437A05
:10274000033B012B0DD901940094234B234A2449C8
:102750002548FEF71BFC384605B0BDE8F04002F006
:102760001DBA02F01BFA12F0FDFB1B4B01901F4A31
:102770001B490394029600941D48FEF707FC0521AF
:1027800040F63540FFF71EFD054640B90194009420
:10279000114B184A12491848FEF7F8FBCDE700F133
:1027A00008070121384611F087FB01240470042139
:1027B000384611F081FB002306808470C3702946DF
:1027C00040F6354005B0BDE8F040FFF74DBF00BF13
:1027D000003B0020F15A0100E06001002E70010072
:1027E00060600100407301007673010059600100D0
:1027F000B2730100AE6F0100F073010073B50D46B6
:1028000014460646072200216846FFF723FAADF872
:1028100001501B4DADF8034000238DF80630072111
:102820002B788DF8006042F20B008DF80530FFF731
:10283000C9FC044600B307226946083011F042FB88
:10284000214642F20B00FFF70FFF0120FFF78CFD3E
:10285000044638B9012E08D14FF4806105F17000AB
:10286000FFF7FBFB204602B070BD6FF4806105F1FD
:102870007000FFF703FCF5E76FF03604F2E700BFE6
:10288000003B002038B5092105461648FFF78CFCAF
:10289000024608B1002038BD08211248FFF784FC29
:1028A000D0B90121002002F05BF904460028F1D0E4
:1028B0004FF400610B48FFF7D0FB204602F06EF9A1
:1028C000002D15BF3022122260214FF4006100203C
:1028D000BDE83840FFF792BF1046FFF745FD0028DE
:1028E000DFD038BD703B00202DE9F043944ED6F880
:1028F000D430996811F001018FB031D10CAA40F6A3
:102900000340FFF7BDFC0446002840F014810C9BF7
:102910009B681C7812F026FB8A4B0393019000936E
:102920000294894B894A8A498A48FEF72FFBA4B949
:10293000894B1C603346BFF35B8F53F8702FBFF396
:102940005B8F02F00D02BFF35B8F53E8001F43E87B
:1029500000200028F9D1BFF35B8F0C9811F07AFAB0
:102960000CAA002141F20300FFF78AFC044600286C
:1029700040F0E1800C9B734D9F6812F0F3FA0395D1
:1029800017F8013B02930190744B704A704900950F
:102990007048FEF7FBFA082239467148FFF72EF916
:1029A0000C9811F057FA21460CAA41F20100FFF7EA
:1029B00067FC0446002840F0BE800C9B9C6812F027
:1029C000D1FA03952378624902930190654B5F4ADF
:1029D00000956048FEF7DAFA6378B373E278A3787B
:1029E0000C9843EA022333822379F373227AE37942
:1029F00043EA02237382A279637943EA0223B38212
:102A000011F028FA03215848FFF7CEFB014608BB16
:102A10000CAA41F20900FFF733FC0446002840F0FD
:102A20008A800C9B9F6812F09DFA039517F8013B72
:102A3000029301904D4B454A454900954548FEF7A4
:102A4000A5FA062239464A48FFF7D8F80C983470A0
:102A500011F000FA0CAA002141F20200FFF710FC6D
:102A60000446002867D10C9B9F6812F07BFA0395FF
:102A700017F8013B029301903E4B344A34490095CC
:102A80003448FEF783FA402239463B48FFF7B6F850
:102A90000C9811F0DFF996F82830980615D40195B6
:102AA0000095364B364A2A493648FEF76FFAB37E10
:102AB0005B066FD401950095334B344A2449344862
:102AC000FEF764FA6FF0120435E0072140F6334058
:102AD000FFF778FB804610B96FF036042BE0072132
:102AE000083011F0E9F9214607460722FFF7B2F84E
:102AF0001B233B7002237C703C712246FB704146D5
:102B000040F63340FFF7BCFB0446A0B9012140F674
:102B10003140FFF757FB07460028DDD00121083080
:102B200011F0D9F92246394640F63140FFF7A8FBAB
:102B300004460028BBD020460FB0BDE8F08300BF9C
:102B4000003B0020F15A010046620100596001007B
:102B500060600100A0660100D802002075630100DA
:102B6000163B0020D6620100703B0020EE6201009F
:102B7000013B0020546301001E3B00201262010053
:102B80002E700100BF660100AF630100AE6F01004F
:102B9000FD6601000CAA002142F20300FFF770FB62
:102BA00004460028C7D10C9B9F6812F0DBF90395FF
:102BB00017F8013B02930190B34BB44AB449009516
:102BC000B448FEF7E3F908223946B348FFF716F890
:102BD0000C9811F03FF921460CAA42F20200FFF7CF
:102BE0004FFB04460028A6D10C9B9C6812F0BAF952
:102BF0000395237802930190A84B0095A34AA4491A
:102C0000A448FEF7C3F9B4F80130A6F88830BBB188
:102C100012F0A8F9B6F8883004950393E37802938C
:102C200001909A4A9A4900959C4B9D48FEF7AEF94F
:102C3000E2789C48022A28BF0222114612F098F935
:102C40000C9811F007F9B47E14F0200400F0018113
:102C500096F83A30190723D50CAA002142F21C003D
:102C6000FFF70EFB044600287FF465AF0C9B9C68C1
:102C700012F078F903952378029301908A4B834AE6
:102C8000009583498348FEF781F923460C9853F851
:102C9000012F5B68C6F88430C6F8802011F0DAF89E
:102CA00096F878309A0600F11581082142F2010069
:102CB000FFF788FA044600283FF40EAF08210844C5
:102CC00011F0FAF896F878108B074CBF2F220F22DC
:102CD0008F0696F8791048BF42F0400211F0090FB4
:102CE00096F8401001F0060118BF42F40062062970
:102CF00008BF42F4C0720270C2F307224270002281
:102D00008270C270027142718271C271214642F2B8
:102D10000100FFF7B5FA044600287FF40CAFB37E3C
:102D200099063FD4B6F8881000293BD10CAA41F28D
:102D30000500FFF7A5FA044600287FF4FCAE0C9BC3
:102D40009C6812F00FF90395237802930190574B7A
:102D500000954E4A4E494F48FEF718F9B6F88830AC
:102D6000EBB9A278637843EA0223A6F88830A488F6
:102D700012F0F8F8B6F8883003930190434A4449BA
:102D8000049502940095494B4948FEF7FFF8022C40
:102D9000224628BF02221146424812F0E9F80C9858
:102DA00011F058F8082140F60140FFF70BFA0446ED
:102DB00000283FF491AE0821084411F07DF810235B
:102DC00003708823437002230022C3702023827083
:102DD000027142718271C371214640F60140FFF7D2
:102DE0004FFA044600287FF4A6AE01460CAA4FF61F
:102DF0000140FFF745FA002800F09A802D4B2E4A3B
:102E000023492E4801950095FEF7C0F800230722BC
:102E10000CA92B480C93CDF83330FEF7DAFE0028CE
:102E200040F0008112F09EF8264B0190174A02955F
:102E3000009517492448FEF7A9F896F86030DA079C
:102E400000F1118101950095204B1B4A1049204843
:102E500016E1022140F66D40FFF7B4F9074600285D
:102E60003FF43AAE0221083011F026F801234470F5
:102E700003702246394640F66D40FFF701FA0446DA
:102E800000283FF4E5AE56E60363010059600100F7
:102E900060600100A0660100783B002037630100FC
:102EA000316701008C3B0020926301001D6301002B
:102EB00065670100E96301002E7001009D67010054
:102EC000003B0020F5630100D1680100CA630100E6
:102ED0007F6901000CAA002142F22F00FFF7D0F910
:102EE000044600287FF427AE0C988368B3F801806D
:102EF000B3F8039010F0AEFF042142F22400FFF774
:102F000061F9074600283FF4E7AD0421083010F0CE
:102F1000D3FF2246A0F80080A0F80290394642F282
:102F20002400FFF7ADF9044600283FF4BEAE02E6E8
:102F30000C9B72499C687248B4F801300293032BD1
:102F400096BF704A704A52F8232001926F4B704A24
:102F500003950095FEF71AF8B4F80130B4F8032091
:102F6000022B3AD1022A38D86A4B53F82230029207
:102F70000193674A654B6149039500956648FEF7E2
:102F800005F863790695D4F809100591032BB4F878
:102F9000071098BF614A0491A17994BF52F8232089
:102FA000594A039102935549584B01920095584A4A
:102FB0005B48FDF7EBFF0C9810F04CFF0CAA0021CA
:102FC0004FF60240FFF75CF9044640B101950095C9
:102FD0004E4B544A4949544816E74B4BC7E70C9BA4
:102FE0005248996802220131FEF708FE0C9810F051
:102FF00031FF0CAA21464FF60340FFF741F930B1EB
:1030000001950095414B474A3C494948FCE60C9BD9
:103010004848996801221144FEF7F0FD0C9810F021
:1030200019FFF3E6444B18689A880A909B79ADF82B
:103030002C200AA9072241488DF82E30FEF7C9FD41
:1030400000283FF4EFAEFFF797FA02F009FA0446C2
:1030500000287FF470AD02213948FEF7FEFF2046BC
:10306000FFF710FC67E509AA00214FF60940FFF7BA
:1030700007F940B1334B2B4A20493348019500955D
:10308000FDF784FF26E0099B99684B78BBB10123CB
:10309000062202312D483370FEF7B0FD099810F07A
:1030A000D9FEFFF739FA04460028CCD001950095E7
:1030B000274B284A11492848FDF768FF3BE5019551
:1030C0000095204B174A0D492448FDF75FFF0998EA
:1030D00010F0C0FE1948FFF711FA04460028E5D1A8
:1030E0001A48FEF711FE029501900095154B0D4A06
:1030F00002491B48FDF74AFFD3E700BF60600100AB
:10310000D1670100307301001C750100E963010003
:103110007564010024730100FA6701000C75010059
:10312000226801002E7001005F6801005F3B0020F3
:10313000986801005E3B00203C5A0100003B0020E3
:10314000703B0020CA63010016690100013B0020AA
:10315000F5630100AE6F0100F469010046690100EA
:10316000BB69010010B5FFF7BFFB034B1B6813B130
:10317000BDE81040184710BDD402002038B5072123
:10318000044642F23200FFF71DF8054698B10721C8
:10319000083010F091FE23880380002402238470FD
:1031A000C370037144718471294642F23200FFF703
:1031B0005BFA204638BD6FF0360038BDF7B50746DC
:1031C00001AA002142F22F00FFF75AF8D8B901985E
:1031D0008368B3F80160B3F8035010F03BFE06219A
:1031E00042F22200FEF7EEFF044670B106210830DD
:1031F00010F062FE3B88038046808580214642F2C3
:103200002200FFF731FA03B0F0BD6FF03600FAE7A5
:103210002DE9F04F8DB00546B0F80170704E11F0F9
:10322000A1FE2C1D8146204695F800A095F803B01C
:10323000FEF790FD1FFA87F805906A4B0696CDF8C9
:1032400010B0CDF80C808DE84006674A67496848A1
:10325000FDF79CFE2B7883B10221002001F080FC59
:10326000044638B12B780372002101F04DFD204651
:1032700001F094FC0DB0BDE8F08F21460AA8FEF7DE
:10328000E9FE9DF82830023BDBB2012B28D806224C
:1032900005F111010DF121008DF82830FEF7AEFC8B
:1032A00001238DF8203002210AA801F059FCEB78A7
:1032B000012B044609D16FF040014E48FEF7DEFEB7
:1032C0009CB90AA801F0A0FB044674B902968DE8E7
:1032D0004001444B484A45494848FDF757FEC9E775
:1032E000214608A8FEF7B6FEDDE720460AA920F829
:1032F000447BFEF7AFFE2A7EEB7D43EA0223A4F86F
:103300005A30AA7E6B7E43EA0223A4F86030EB7E3B
:103310002A7F43EA0223A4F86230EE78E670012E99
:103320001AD1374F08A904F14B00FEF793FE394636
:1033300004F15200FEF78EFE072107F17000FEF740
:1033400033FF48B1D7E92023002203F040031343A1
:1033500002D03046FFF788F80321204601F0D4FC64
:10336000637A032B18D1EB7823B1254B93F878308F
:10337000190718D5022142F21600FEF723FF054671
:1033800088B10221083010F097FD23880380294678
:1033900042F21600FFF768F9204601F0FFFB00201B
:1033A000FFF770FA66E7164D95F87920D20708D531
:1033B0002046FFF7E3FE20B98021201DFEF74DFED9
:1033C000EAE795F878309B0606D52046FFF7F6FE2B
:1033D00010B94FF48071F0E72046FEF761FEDBE79D
:1033E000F15A01007961010059600100606001003B
:1033F0008B720100703B0020AE6F0100BF720100B4
:10340000003B002070B506460D4642F22100032124
:10341000FEF7D8FE044660B10321083010F04CFDE1
:1034200085700680214642F22100BDE87040FFF71A
:103430001BB96FF0360070BD2DE9F04F89B011F067
:1034400091FD814C019002940094804B804A814907
:103450008148DFF810A2FDF799FD9AF80D307F48FA
:103460006FF307138AF80D3001F0E0FB00F101085B
:1034700011F078FD764A019076490394CDF80880E2
:103480000094724B7648FDF781FD4FF0FF324146C4
:10349000744812F0B7F968B16C4B734A6D497348C0
:1034A00001940094FDF772FD404080F311884FF0C5
:1034B000040002DF11F056FD03940190CDF808805E
:1034C00000946B4B624A63496A48664DDFF8A0B1CD
:1034D000694EFDF75BFDB8F1000F02D111F012FD4E
:1034E000BBE711F03FFD6B7B01901B090293039436
:1034F0005B460094564A57496048FDF747FD6B7B91
:103500001B09012B40F28180042B40F0928095F83A
:103510000C90B9F1000F7CD111F024FD584B0190B3
:103520004B4A4C49029400945648FDF72FFD4946FA
:10353000554810F065FC074630B901940094504B93
:10354000494A44495148ADE711F00CFD4C4B0190FC
:103550003F4A4049029400944D48FDF717FD4FF053
:10356000FF314C4811F035FDD6F8C0306BB1444BFB
:103570003D4A3849019400944748FDF707FDD6F8C5
:10358000C00010F067FCC6F8C090384610F090FC00
:10359000C6F8C00011F0E6FC0790384610F09CFB1E
:1035A000DFF80891049409EBC00003974288079B59
:1035B000029201930094324B254A26493748FDF781
:1035C000E5FC3846FFF726F8F8B12D4B264A21498D
:1035D0000190029400943248FDF7D8FC2D4811F078
:1035E000D0FC384610F078FB09EBC00000221F2108
:1035F0004088FEF763FDD6F8C00010F02BFC0023D6
:103600003846C6F8C03010F025FC143508F1FF38F4
:1036100061E7B9F1010F04D12869183801F0F0F819
:10362000F3E7B9F1020FF0D12869283801F054FE10
:10363000EBE70193029400945B461A4A05491A4845
:10364000FDF7A4FCE1E700BFF15A0100C8620100E8
:103650005960010060600100BD700100EC3B00207A
:10366000DA700100D83B0020AE6F01000D7101003F
:10367000B962010037710100003B00205571010063
:10368000B062010077710100C43B0020A07101000D
:10369000C5710100A83B0020F07101001B72010000
:1036A000E96501002E7001005A7201007C020020C1
:1036B0002DE9F04F97B0044611F054FCAD4EA389AC
:1036C00003930190049602940096AB4BAB4AAC492D
:1036D000AC48FDF75BFC277D012F35465BD0032FFF
:1036E00040F02084A7687D8811F03CFCA34A01903B
:1036F000A54BA349039602940096A448FDF746FC07
:103700003B881F0BC3F30B03E382FF236375042184
:1037100004F1080010F0FEFB11F024FCE38A029390
:103720000190994B0596049703950096934A944906
:103730009748FDF72BFCA3899D420DD0019303967A
:1037400002950096904B934A8D499348FDF71EFCD5
:10375000204610F07FFB1AE0E08A01F0D1F905461F
:1037600050B9E38A01938B4A874B85498B4802966F
:103770000096FDF70BFCEBE701F054FE3A4660754E
:103780002146284600F00CFF284601F007FA0020E9
:1037900017B0BDE8F08FD4F8088011F0E3FB039672
:1037A00098F80030029301907D4B0096734A74495B
:1037B0007C48FDF7EBFB98F80030132B00F2C18337
:1037C0009F4017F40C2F00F0BC8301960096744BB9
:1037D000704A6B497448FDF7D9FB404080F311886B
:1037E0004FF0040002DFA768B7F8019011F0BAFBB0
:1037F0000595FB780493CDF80C903B7802930190EB
:1038000000956A4B5D4A5E496948FDF7BFFB97F832
:103810000080B8F1000F9BD1484601F071F90646CF
:10382000C0B902958DE82002604B5A4A544961485C
:10383000FDF7ACFB07216048FEF7B6FC002887D0F7
:1038400006215D48FEF7B0FC002881D10120FEF77B
:103850000BFE7DE7FB7803725849594811F042FD91
:103860004146304601F050FAB578A6F800800DB117
:103870003046E7E02946301DFEF796FC30B1304671
:10388000012101F041FA2846FEF7FCFF304601F025
:1038900085F9CFE7A66811F065FB039533780293AD
:1038A0000190484B354A364900954748FDF76EFB75
:1038B0000121384610F02EFB3678731E0B2B00F2D8
:1038C0002183DFE813F00C002F028900C2001F03E0
:1038D000FB005701C201130287001F038901A6687C
:1038E00011F040FB371D8046384696F8009096F858
:1038F00003A0FEF72FFA214A059504908DE82007D2
:10390000324B1F493248FDF741FB33788DF8383090
:10391000B6F80130ADF83930F3788DF83B30B6F8B1
:103920000B30ADF84F30B6F80D30ADF85130B6F879
:103930000F30ADF85330737C8DF8553039460FA8F1
:10394000FEF788FB002506220AA90DF143000A951F
:10395000ADF82C50FEF752F906220CA90DF14900E2
:103960000C95ADF83450FEF749F90EA8FFF750FC5E
:10397000EEE600BFF15A0100066401005960010043
:1039800060600100236A010042610100A36501003B
:10399000466A0100AE6F0100756A0100A96A010064
:1039A000A6620100DB6A0100A36D010064610100F1
:1039B000FD6A0100306B0100703B0020666B010066
:1039C00019200000946201006A6B01008E61010001
:1039D0008F6B0100A068C9E7A668B6F8018011F0F6
:1039E000C1FA0495CDF80C80337802930190AD4B69
:1039F000AD4AAE490095AE48FDF7C8FA404601F021
:103A00007FF8074638B98DE82001A64B0295A94AF0
:103A1000A649A948ADE633789BB93279F37843EAF1
:103A20000223A0F85A30B279737943EA0223A0F84E
:103A30006030F379327A43EA0223A0F8623000F072
:103A400073FD384601F0AAF882E6A768B7F801804E
:103A5000404601F055F8064620B902958DE8200150
:103A6000964BD4E73B7823B90822F91C6430FEF763
:103A7000C5F8934D95F87920D2070CD596F86530A6
:103A8000DB0708D53046FFF779FB20B98021301DD0
:103A9000FEF7E3FAECE695F878309F0640F198805F
:103AA00096F864309D0640F193803046FFF786FB20
:103AB000002840F08D804FF48071E8E7A368D97842
:103AC0009A781F8842EA0122ADF8382059791A798C
:103AD00042EA0122ADF83A209A79D97942EA0122E4
:103AE000ADF83C201A7A5B7ABEB242EA0323304634
:103AF000ADF83E3001F004F8804668B902958DE8D3
:103B00006000704B6B4A69496B48FDF73FFA022130
:103B10003046FFF777FC1BE60EA900F019FD28B927
:103B20001E213046FFF76EFC40468BE70E2142F225
:103B30002000FEF747FB06460028F5D00E2108308E
:103B400010F0BAF90E2205460021FEF783F8BDF801
:103B500038306B80BDF83A30AB80BDF83C30EB803C
:103B6000BDF83E302F802B81314642F22000FEF717
:103B70007BFDD9E7A368B3F800B05F88B3F806907F
:103B8000B3F80480B3F808A0584600F0B9FF064621
:103B900020B902958DE820084B4B38E711F0E2F987
:103BA000494B0190404A41490695CDF814A0CDF803
:103BB0001090CDF80C80029700954448FDF7E6F987
:103BC0006FF48071301DFEF759FAC0057FF550AED5
:103BD0003046FEF765FA4BE6A768B7F80180404625
:103BE00000F08EFF064620B902958DE82001384B83
:103BF0000DE711F0B7F905953B790493FB78039332
:103C00003B78029301900095314B274A2749314870
:103C1000351DFDF7BBF96FF080012846FEF72EFA3F
:103C200001067FF525AE264B93F878309A06CFD55E
:103C300096F864309B06CBD53046FFF7BFFA0028D4
:103C4000C6D14FF48071284622E7A66811F08AF9A0
:103C500003953378029301901F4B134A1349009543
:103C60001E48FDF793F96FF020011D48FEF706FA94
:103C7000337843B9711C40221A48FDF7BFFF102169
:103C80001748FEF7EAF9184B1D68771C002D3FF422
:103C90005FAD32782B68002A0CBF38460020984769
:103CA0006D68F3E7FA61010059600100606001008E
:103CB000B96B0100AE6F0100E36B0100A66101006A
:103CC000003B0020E8610100BE610100176C0100AB
:103CD000D1610100536C010023620100926C01006C
:103CE000703B002090020020D0020020A66811F056
:103CF00039F9039533780095A04D02930190A04ABD
:103D0000A04BA149A148FDF741F92A68002A3FF4D8
:103D10001FAD337823B9701C904700232B6017E543
:103D20000020F9E7384610F0FDF8804611F01AF946
:103D300003950190CDF808800095954B904A9249E3
:103D40009448FDF723F9B8F1000F3FF401ADA668E0
:103D50000921384610F0DEF8337A334406F10109C0
:103D600093F909A011F0FEF883464846FDF7F2FFEB
:103D70000695CDF814A0337A049333780393029018
:103D8000834B81497E4A84488DE82008FDF7FEF880
:103D90007378023B012B49460EA800F29D80FEF786
:103DA00059F99DF83830023B8DF83830DFF818B2F9
:103DB000DBF80030BBB1384610F0C4F8A389099392
:103DC000337AA38108903B463278DBF800B0514645
:103DD0000EA8D8472369BDF8202013FA82F3A36008
:103DE000BDF82430A38109216C483278FEF7DCF954
:103DF0008346002866D1012A64D801210EA800F06C
:103E0000AFFE824600285DD008216448FEF7CCF959
:103E1000002864D102216148FEF7C6F910B160485C
:103E2000FEF7D8FA5F490AF14B000AF1520BFEF790
:103E300011F949465846FEF70DF9192142F20D00D5
:103E4000FEF7C0F9034600284ED019210830099327
:103E500010F032F8192281460021FDF7FBFE002206
:103E6000602189F8001089F8012089F8021089F88A
:103E70000320594609F105000892FEF7EBF89AF87D
:103E80004B1089F80C10BAF85C10A9F80D10BAF8AC
:103E90005E10A9F80F10BAF86010A9F81110099B6C
:103EA000BAF86210A9F81310089A194642F20D00E8
:103EB000FEF7E6F9C0B95046022100F025FF504652
:103EC00000F06CFE317A3846013108F1FF3810F00D
:103ED00021F85FFA88F836E7FEF7BCF866E758463F
:103EE000FEF742FA002895D01F238AF808300021F7
:103EF000504600F009FF504600F050FE0020FEF74B
:103F0000C1FCDFE7A789A0683946FDF7C7FE8DE849
:103F1000E0000390244B254A1B4925480495FDF7F2
:103F200035F815E4234B244A174902968DE8C00062
:103F30002248FDF72BF820460FF08CFF6FF015009C
:103F400026E404F10807022138460FF0E3FF98F851
:103F50000060052E3FF447AC3E2E3FF49BACA78992
:103F6000A0683946FDF79AFE049503908DE8E000BD
:103F7000134B0E4A04491348D1E700BF8C020020BE
:103F8000596001003462010060600100926C010020
:103F900086620100B46C0100E26C0100703B0020FD
:103FA000013B0020003B0020946201002E700100C4
:103FB000186D010006640100AE6F01007F6D010005
:103FC000A66201004D6D0100D80200202DE9F04FDE
:103FD000037D8768804C012B89B005460DD07F4B4F
:103FE0007F4A8049804801940094FCF7CFFF40400D
:103FF00080F311884FF0040002DF8289012A06D87D
:1040000001940094754B764A76497848EDE73A7802
:10401000132A00F2D980934013F40C2F00F0D480BF
:1040200000F10806022130460FF074FF3B780F2B99
:104030002CD0132B49D00E2B40F0BC80AB68B3F8CA
:10404000017093F8008010F08DFF694B694A019070
:1040500064490394029700946748FCF797FF032193
:1040600030460FF057FFAB682A4619783846FEF7FE
:1040700025F8B8F1000F02D0604810F082FF284602
:104080000FF0E8FE002009B0BDE8F08FAF68B7F888
:10409000028097F8019010F065FF564A0190584B46
:1040A00050490394CDF8088000945348FCF76EFF04
:1040B000042130460FF02EFF2A4639784046FDF79E
:1040C000FDFFB9F1000FDAD0D6E7D5F808B0DFF878
:1040D000149110F047FF03949BF800300293019075
:1040E0000094484B434A3F494748FCF74FFF4FF085
:1040F00000089BF800309845C1DA0BEB8803B3F851
:1041000001A0B3F8037010F02DFF04940190039701
:10411000CDF808A000943B4B364A3C484946FCF792
:1041200035FF4FF02003EFF3118283F311885046DF
:10413000079200F0E5FC064670B902948DE8100481
:10414000304B274A32484946FCF720FF079B83F350
:10415000118808F10108CCE7079B83F3118800F16F
:10416000180AD7B14FF02003EFF3118083F31188C1
:10417000316929B172690B683361914208BF73617B
:1041800080F31188013FBFB259B9019400941D4BCF
:10419000134A20484946FCF7F9FE304600F0FEFC81
:1041A000D7E7504610F028FC304600F0B9F910F07F
:1041B000E8FED6E728460FF04DFE01940094074B29
:1041C000074A0849144810E701940094034B044A35
:1041D0000449124809E700BFF15A01000E640100CA
:1041E000AE6F010060600100E26D0100266E01000B
:1041F0006662010059600100606E0100A83B00206A
:10420000776201004A610100836E0100A76E010020
:10421000CF6E0100FB6E0100226F0100456F0100AF
:1042200030B5134BD3F8D44085B00546CCB9C2683D
:10423000D2B10269C2B1C3F8D40010F093FE0D4AA6
:104240002B680392002B08BF134602930190009243
:10425000094B0A4A0A490B48FCF798FE204605B06C
:1042600030BD6FF04400FAE76FF01500F7E700BFCC
:10427000003B0020F15A01001B640100596001005D
:10428000606001007D66010070B52A4DD5F8D4301C
:1042900086B006466BB9284B01930093274A284BFA
:1042A00028492948FCF772FE6FF01204204606B038
:1042B00070BD012105F17000FDF7CFFE10F0010087
:1042C00034D1224B22491E606FF008030590049000
:1042D00003930290019000901E4B1F484FF46B72A5
:1042E00011F04CF8D5F8D430DB689847044650B14B
:1042F000114B02938DE81800104A114B11491748D1
:10430000FCF744FED2E726B906B0BDE87040FEF7E0
:10431000EBBA012105F16C00FDF79FFEC307C5D480
:1043200005F164010E4810F067FBBFE76FF044042D
:10433000BCE700BF003B0020F15A0100AE6F010056
:1043400032640100606001001E650100D40200209B
:10435000381A002039340000DC02002047650100D3
:10436000B81900200020704770B50378012B05466E
:104370000E4610D84378012B0DD841880B1F9BB2F5
:1043800043F6FC70834206D8AA88131F9BB283426F
:1043900001D891422BD26FF015040EE00821194884
:1043A000FDF702FF58B11046FDF7DEFF044630B1BD
:1043B0006FF400711348FDF761FE204670BD6B7805
:1043C0007BB14FF400610F48FDF747FEAA8869886A
:1043D0002878FEF713FA04460028E9D10A4B1E603C
:1043E000EBE76FF400610748FDF748FEEEE74FF496
:1043F00000710448FDF731FE10F40072CED06FF06A
:104400004404DAE7703B0020D802002008B56FF4BE
:1044100000710748FDF732FE830506D5054B0020E5
:104420001860BDE80840FEF72DBA6FF0440008BDE3
:10443000703B0020D8020020012838B505460CBF8B
:10444000064807480FF0D6FC044620B1002108308A
:104450000FF0EFFC2575204638BD00BF84400020DA
:10446000044000207FB506464FF02003EFF3118291
:1044700083F31188134B0025D3F8C040C3F8C05014
:1044800082F3118810F06EFD0F4B0393019000939F
:1044900002940E4B0E4A0F490F48FCF777FD34B9D2
:1044A0003146012004B0BDE87040FFF7C5BF0123CD
:1044B00004F108002375A58129460FF0BAFC2046B7
:1044C00004B070BD003B0020F15A01003C640100C3
:1044D00059600100606001005464010038B5064B6A
:1044E0001C68054604B938BD236813B1297A2846EB
:1044F00098472469F6E700BF4C030020BFF35B8FA9
:104500000068BFF35B8F7047438910B504462BB139
:10451000C0680FF09FFC0023E360638110BD0000C2
:10452000004870478C3B0020084B70B51C6805465E
:1045300004B970BDE6683EB1B5F86230B5F86020E8
:10454000B5F85A102846B0472469F1E74C0300201B
:10455000F8B5074608460E46FDF7B0FF054610B908
:1045600000252846F8BD094B1C68002CF9D0A3682B
:104570000BB92469F9E73146384698470028EFD04F
:104580003046FDF79BFF0028F3D1E9E74C030020FC
:10459000024B1A6802611860704700BF4C0300208C
:1045A0002DE9F04186B090460D46664E044610F067
:1045B000D9FC0596CDF81080AB890393238802932C
:1045C00001900096604B614A61496248FCF7DEFC4D
:1045D000B8F1010F374638D0B8F1020F40F094809F
:1045E000AB681E8810F0BEFC04970396AB8902935B
:1045F0000190554B0097554A55495748FCF7C6FC62
:10460000638953B1019700974F4B544A504954481E
:10461000FCF7BCFC2046FFF777FFAB89F61A04369F
:10462000668110F09FFC638902930190464B0397CB
:104630000097464A46494B48FCF7A8FC6389002B83
:1046400051D0E56006B0BDE8F081638983B93E4B87
:10465000424A3F49444801960096FCF797FC2046A1
:10466000FFF752FF284606B0BDE8F0410FF0F2BB5D
:10467000AA899A4206D901960096334B374A3449A3
:104680003A48EAE710F06EFC638904960393AB891D
:10469000029301902C4B2D4A2D4900963448FCF78B
:1046A00075FCE068B5F80C8008300FF04FFC8045D1
:1046B00006D901960096244B284A25492D48CCE777
:1046C000E068AA89A96808300FF0FCFB6389AA8911
:1046D0009B1A638128460FF0BDFB6389002BB1D183
:1046E000E5686381E360AB68AA891B88191D914264
:1046F00014D00292019303970097134B174A144961
:104700001D48FCF743FCADE702968DE840010E4BD7
:10471000124A0F491948FCF739FCA0E710F022FCB7
:104720000397AB89029301900097074B074A08490A
:104730001348FCF72BFC2946204606B0BDE8F041A3
:1047400001F0C6B8F15A0100387501005960010046
:10475000606001000277010033770100AE6F010055
:104760005F7701008C770100AB770100D9770100FA
:10477000FD770100297801008E7801006078010042
:10478000BA780100F0B50C4687B00646174610F01F
:10479000E9FBA389134D0393338802930190124BD5
:1047A000059504970095114A11491248FCF7EEFB54
:1047B000737A032B0ED00C4B0F4A0D4901950095CF
:1047C0000E48FCF7E3FB20460FF044FB6FF0380087
:1047D00007B0F0BD06F12800676121460FF02DFB00
:1047E0000020F5E7F15A010045750100596001000C
:1047F000606001001E790100AE6F01005379010075
:104800002DE9FF41064610F0ADFB134B03930190D9
:1048100000930296114B124A12491348134DFCF7AC
:10482000B5FB06F118074FF000080021384610F0DC
:1048300007F9044610B904B0BDE8F08163680BB114
:10484000304698472B6823606B68C4F804802C605E
:10485000002BEAD16C60E6E7F15A010055750100C2
:10486000596001006060010039760100F803002002
:104870002DE9F04788B00F461446574E0546994635
:1048800010F070FB06960594BB89544A049301907E
:10489000534B54490397029500965348FCF776FB17
:1048A0004FF0FF31514810F094FB514B03F14000A1
:1048B000FFF724FEB04630B15A7A033A012A02D8F3
:1048C0001846FFF79DFF6B7A032B66D1042107F191
:1048D00008000FF017FB2A88D7F814A0454E42EACB
:1048E00004320280BB89043B438002233B7510F0F5
:1048F00039FBCDF810800190CDF80CA00295CDF8D1
:1049000000803D4B354A37493C48FCF73FFB346853
:10491000726823683360944208BF7360C4F804A0CF
:104920004FF02003EFF3118283F3118800232360FB
:104930006B69002B40D16C612C6182F31188384681
:10494000FDF768FE002843D00190CDF80880CDF82F
:104950000080234B2A4A23492A48FCF717FB4FF0D3
:104960002003EFF3118183F311882B69002253B1E7
:104970009C422AD1236812BB6A692B61944200D100
:104980006B610023236081F3118800236360336827
:1049900023607368346003B97460144810F0F1FA4E
:1049A000B9F1000F04D038460FF054FA4FF0000967
:1049B000484608B0BDE8F0871C606C61BDE7136035
:1049C0006B699C4208BF6A61DBE71A461B68CEE749
:1049D0004FF00109ECE700BFF15A010059600100F6
:1049E0007675010060600100047A01008C3B0020B4
:1049F00060030020F8030020677501003C7A010085
:104A0000AE6F0100E9650100F8B5174C04F14006EE
:104A100007463046FFF772FD054608B10020F8BD95
:104A2000014698222046FDF715F9BFF35B8F01235D
:104A300056E8002F46E800310029F9D1BFF35B8F1B
:104A40000722394604F14400FDF7D8F81823A4F8EA
:104A50005C30282304F17000A570A4F85E3003498F
:104A600010F076FD2046F8BD6003002001520000E2
:104A700038B50D46044600F1440107222846FDF7EB
:104A8000A8F860B1E378072233B904F1520128464F
:104A9000BDE83840FDF79DB804F14B01F7E738BD9C
:104AA00030B5044687B000F14005BFF35B8F55E891
:104AB000003F013345E80032002AF8D1BFF35B8F95
:104AC00010F050FA024628462188FFF717FD074BE1
:104AD00004930390029101920093054A054B064905
:104AE0000648FCF753FA204607B030BDF15A0100E2
:104AF00059600100C575010060600100F87801008F
:104B000008B50A4B014603F14000FFF7F7FC58B126
:104B10005A7A033A012A07D81A888A4204D11846D9
:104B2000BDE80840FFF7BCBF002008BD60030020BF
:104B300010B50A4C014604F14000FFF7DFFC50B10C
:104B4000A37843B92046FFF793FF20B92046BDE87C
:104B50001040FFF7A5BF002010BD00BF600300207C
:104B600038B50D4C034604F140000D46FFF7C6FC76
:104B700080B1A27872B93BB9637AAB420AD10648D8
:104B8000BDE83840FFF78CBF19462046FFF770FF9D
:104B90000028F1D0002038BD6003002030B5054664
:104BA00087B000F14004BFF35B8F54E8003F013B46
:104BB00044E80032002AF8D1BFF35B8F10F0D2F93D
:104BC000024620462988FFF799FC074B049303907F
:104BD000029101920093054A054B06490648FCF7ED
:104BE000D5F907B030BD00BFF15A0100596001008E
:104BF000D175010060600100F878010038B5044605
:104C000000F12805002128460FF0FAF850B9204697
:104C1000FFF7F6FD2046FFF777FC2046BDE8384059
:104C2000FFF7BCBF0FF016F9ECE70000F0B585B058
:104C3000064610F097F92A4D01902A4B2A4A2B4933
:104C4000029500952A48FCF7A1F92A4B0022012180
:104C500030469A6010F0C3FD274B03F14000FFF788
:104C60004DFC1F4610B9012005B0F0BD5A7A92B92B
:104C7000BFF35B8F1A1D52E8001F21F0400042E88D
:104C80000004002CF7D1BFF35B8F4A0603D518460A
:104C9000FFF7B4FFE7E77C7A032CE4D110F062F968
:104CA000104B0190104A1149039502970095134843
:104CB000FCF76CF9124B0022042106F1140010F0ED
:104CC0008EFD012386F8203006F128000D4B0022CE
:104CD000042110F084FD022386F834302046C3E717
:104CE000F15A0100897501005960010060600100FE
:104CF00056760100283C0020600300206C760100FD
:104D000078030020880300202DE9F041044686B096
:104D10000E4610F027F9637A6D4F0190042B96BF71
:104D20006C4A6D4B52F823300293042E96BF694AA9
:104D3000694A52F82620039204970097674B684A05
:104D400068496948FCF722F9657AAE42B8460AD14B
:104D500001970097614B654A62496548FCF716F96F
:104D600006B0BDE8F081667295B1022D14D0637A69
:104D7000042B00F2A08001A252F823F0DF4D0000C6
:104D8000614D00009B4E0000A94D0000614D0000E8
:104D90002046FFF785FEEAE7A378002BE7D104F170
:104DA000700010F0E5FBE2E7A378022BD8D004F105
:104DB00028000FF019FE04F118000FF015FE002175
:104DC0004C4810F0AFFD00232046A363E36300F0DE
:104DD0001DFC204606B0BDE8F041FFF77FBBA3787D
:104DE000022B05D1204606B0BDE8F041FFF7D6BE44
:104DF000EB1E012B44D8204600F042FC3E4B1D68C0
:104E0000EDB93E4E3E4F4FF02003EFF3118183F397
:104E1000118823692BB160691A682261834208BF37
:104E2000626181F311888BB132681A6072685D60CB
:104E3000336002B97360384610F0A3F8E3E76B689B
:104E400013B1217A204698472D69D9E7A3781BB979
:104E500004F1700010F08CFBBFF35B8F043454E856
:104E6000003F43F0400344E80032002AF7D1BFF38B
:104E70005B8F2048002106B0BDE8F04110F052BD24
:104E8000022D03D12046FFF729FBABE7012D7FF46C
:104E900067AF237A002BA5D0F4E7A378002B7FF42B
:104EA0005FAF184840F6B83204F1700106B0BDE8B3
:104EB000F04110F0C1BBCDF808800196CDF800801C
:104EC000064B0A4A07491048FCF760F848E700BF5C
:104ED000F15A01002475010072790100B3750100D7
:104EE00059600100606001007C7901002E700100B2
:104EF0009A790100283C00204C030020F803002090
:104F00008C3B0020B8190020B8790100443070476C
:104F100070B5064608460D46FDF7D0FA08B90024DC
:104F20001CE01D48FFF7EAFA8305F8D43046FFF786
:104F3000FFFD0446A0B1437A012B06D001D3032B19
:104F40000CD92046FFF72AFEE9E76B88A0F85E300F
:104F5000AB88A0F86030EB88A0F86230204670BDC6
:104F60003046FFF751FD04460028F7D007223146AE
:104F70005230FCF743FE6B88A4F85E30AB88A4F88F
:104F80006030EB88A4F8623020460121FFF7BCFEB8
:104F90000120FDF777FCE1E7703B002070B5064685
:104FA0000D4600293BD13046FFF7C2FD044628B923
:104FB0003046FFF729FD0446002851D0231D002D5F
:104FC00035D06A88A4F85E20AA88A4F86020EA8810
:104FD000A4F86220BFF35B8F53E8002F42F0010179
:104FE00043E800100028F7D1BFF35B8FD10702D44C
:104FF0002046FFF755FD637A63B91B48FFF77EFA39
:10500000830707D51DB101212046FFF77DFE002053
:10501000FDF738FC2046FFF7C1FD002070BD0846B3
:10502000FDF74CFA0028BED16FF0150070BDBFF33C
:105030005B8F53E8002F22F0010143E800100028A5
:10504000F7D1BFF35B8FD207D5D52046FFF7A6FD7A
:10505000637A012BCFD129462046FFF755FECAE7D8
:105060006FF00B0070BD00BF703B002070B50E46A6
:105070008178044611B94430FFF790FF637A013B11
:10508000032B03D8DFE803F006101B0E6FF0380582
:10509000284670BD204626720021FFF735FE00200D
:1050A000FDF7F0FB0025F3E704F1700010F060FA63
:1050B000002142F20E00BDE87040FDF7D5BA032191
:1050C00040F20640FDF77EF8054698B1032108300E
:1050D0000EF0F2FE238803808670294640F20640D7
:1050E000FDF7C2FA05460028D2D104212046FFF779
:1050F0000BFECDE76FF03605CAE7F8B507460D465B
:1051000042F213000E21FDF75DF80646C8B10E21EC
:1051100008300EF0D1FE002104460E22FCF79AFD65
:105120003B8823802B8863806B88A380AB88E380D7
:10513000EB882381314642F21300BDE8F840FDF7C9
:1051400093BA6FF03600F8BD30B50D468BB004460B
:105150000FF008FFEA880792AA8806926A880592EB
:105160002A88214B049294F86420089303920190BA
:1051700000931E4A1E4B02941E491F48FBF706FF70
:10518000B4F85A302A889A420CD86A889A4209D3CD
:10519000B4F86020AB889A4204D1B4F86220EB885E
:1051A0009A421CD004F1700010F0E2F9134B93F80E
:1051B00078309A0703D594F864309B0701D4E378DC
:1051C00033B9294620460BB0BDE83040FFF795BF04
:1051D000294620460BB0BDE8304000F0B9BB6FF067
:1051E00044000BB030BD00BFF15A0100596001000E
:1051F000DF75010060600100F7750100003B0020D1
:10520000034607B513F8672C022AA0F1700005D1F8
:105210001321FFF72BFF03B05DF804FB33F8142CC8
:10522000ADF8002033F8122CADF80220694633F8AF
:10523000102C33F80E3CADF80420ADF80630FFF723
:1052400083FFE8E738B5084B0D46002808BF18462D
:105250004FF0FF310EF0CEFD291D044608300EF050
:10526000E8FD204638BD00BF244000202DE9F04174
:1052700006460C4616480021FFF7E4FF3378032B5F
:1052800005464FF0000605D00EF0E4FD35462846F1
:10529000BDE8F081466100F108070E4E3846B6F8C9
:1052A00088800EF053FE80450CD2B6F8886054F822
:1052B000081F324638460EF005FE314620460EF0F5
:1052C00029FEE4E738460EF041FE86B2EFE700BF64
:1052D00044400020003B0020F0B587B004460FF0AA
:1052E00041FE454D0190454B039502940095444A7B
:1052F00044494548FBF74AFE637A2E460BBBBFF391
:105300005B8F231D53E8002F22F0400143E800107B
:105310000028F7D1BFF35B8F530612D50FF022FEA2
:1053200023880293019003950095344B344A354904
:105330003648FBF72BFE204607B0BDE8F040FFF7EC
:105340005DBC002104F128000EF05AFD054668B945
:1053500001960096294B2E4A2A492E48FBF716FE45
:10536000404080F311884FF0040002DF0FF0FAFD97
:105370000596AB890096284E04930190204A214956
:1053800003950294254B2648FBF700FEA989B6F841
:105390008820914208D800231A4629462046FFF764
:1053A00067FA48B107B0F0BD04F10907294638464D
:1053B000FFF75CFF014628B9284607B0BDE8F0407A
:1053C0000EF048BD012300222046FFF751FA0028C5
:1053D000F2D0AA89B6F888309A4202D80023012276
:1053E000DBE729463846FFF741FF01460028E3D0B6
:1053F00001231A46E8E700BFF15A0100A075010039
:105400005960010060600100397601009D7601005D
:10541000AE6F0100A0710100003B0020807501000B
:10542000D7760100034BC01A034BC0105843C0B2DB
:10543000704700BF600300201BCA6B2808B540B945
:105440000548FFF75BF820B10448BDE80840FFF7C6
:1054500027BB002008BD00BFA00300206003002080
:10546000124B134A196810B51160596801B95A6096
:10547000596892600F4A1A6001B95A6001F066FBE0
:1054800002F062FA044670B900F08AFA0A48FFF79F
:1054900035F840B10948FFF731F8C30703D50121BA
:1054A0000748FFF731FC204610BD00BFF80300207D
:1054B0005003002058030020A003002064030020B4
:1054C00060030020704700001FB50B4A136833B912
:1054D0000A4850600A60184605B05DF804FB084BA6
:1054E000029301900093074A074B08490848FBF7CD
:1054F0004DFD6FF00B00EFE700040020443C00205E
:10550000F15A0100AE6F0100DA7A0100606001001B
:10551000497B0100F8B507460E46002004211546D8
:10552000FFF790FE0421044608300EF0C5FC07701A
:10553000467045802046F8BD704700000023836018
:10554000054B596800F1080211B95A601A6070479A
:105550000A605A60704700BF98040020836B10B542
:1055600013B1083B002203B910BD8B4203F10804BC
:105570000FD199683AB9C26B8163944200D1C1637B
:1055800000229A6010BD1160C16B8C4208BFC263DB
:10559000F6E72246002CE7D09B68002BE4D0083BBE
:1055A000E1E7036810B504462BB143685B6803B1BB
:1055B000984700232360E3681BB12046BDE81040F4
:1055C000184710BD30B50C4B0C4A0D4985B0A0F101
:1055D0001004054602938DE818000A480A4BFBF7B1
:1055E000D5FC55F8100C2146FFF7B8FF204605B052
:1055F000BDE83040FFF7D5BFF15A0100AE6F0100A2
:10560000606001009D7C0100847A01001A4B2DE945
:10561000F7431C6806462CB10027DFF86080083C81
:10562000B94614B903B0BDE8F083636801A93046F8
:105630009847002818DB019D23882B87A5F8583050
:10564000414605F110000FF083FFAF60F26B05F1EA
:10565000080372B9F363B36301982E604368C5F819
:105660000C901B6803B19847A468002CDAD0083C62
:10567000D7E71360F363EFE798040020C5550000F7
:10568000836B10B5A3B1B3F108000AD110BD083C7B
:10569000FFF787FF64B1A36803B1083B20461C46AF
:1056A000F6E71C68002CF2D1BDE81040FFF779BF87
:1056B00010BD0431FFF7C6BDF8B5144605460F46C8
:1056C00002F1080004211E460EF01CFCA18947804F
:1056D00004390180324621462846BDE8F840FFF7EC
:1056E00051B80000F0B58B89032B87B007460D46F3
:1056F00009D85A4B01930093594A5A4B5A495B486F
:10570000FBF744FC14E00846042150F8084F668873
:105710000EF000FCAA8996420CD0504B03930192E4
:10572000009302964F4B4E4A4F495148FBF72EFCCF
:1057300007B0F0BD617839B9484B01930093484AEE
:10574000484B49494B48DBE72378122B29D0132BD0
:105750001DD0012BECD0414A02928DE80C00424949
:10576000404B454A4548FBF711FC022261783D68F1
:105770000120FFF7CFFE0221044608300EF09CFB0B
:1057800000230370437022460521284625E0012EA0
:10579000CED8324B01930093314A394B32493948C4
:1057A000AEE7072E07D82D4B019300932C4A364BBA
:1057B0002D493648A4E73C68E6788EB102220120E4
:1057C000FFF7A8FE0221054608300EF075FB002306
:1057D000037043702A4605212046FFF76DFFA7E7B7
:1057E000AB6858781A7842EA0022ADF81020D878D1
:1057F0009A7842EA0022ADF8122058791A7942EAE2
:105800000022ADF814209A79DB79132042EA0323B1
:105810000222ADF81630FFF77DFE04A907462046A8
:10582000FEF796FE0221054607F108000EF044FB44
:105830007DB10670467000233A4605212046FFF7E9
:105840003BFF002D3FF474AF04A92046FFF755FC41
:105850006EE7012303704570EDE700BFF15A0100C8
:10586000AE6F0100C17A010060600100807B010021
:10587000AE7B0100DF7B01002E7001006F7C010018
:10588000967A0100107C0100A87A01003C7C01009E
:10589000806B00B1083800B97047B0F858308B42BF
:1058A000FAD083680020002BF6D0A3F10800F2E7BD
:1058B000806B00B1083800B97047038F8B42FBD072
:1058C00083680020002BF7D0A3F10800F3E7000065
:1058D0007FB58B89032B06460C460ED8154B0193DA
:1058E0000093154A154B16491648FBF74FFB204607
:1058F00004B0BDE870400EF0ADBA0846042150F87F
:10590000083F5D880EF006FB29463046FFF7D0FFC2
:1059100050B9084B02938DE828000B4A074B084901
:105920000A48FBF733FBE2E7436821461B699847C7
:10593000DDE700BFF15A0100AE6F0100CC7A010033
:1059400060600100E77A01002E700100147B010005
:1059500070B5124B1A78013212F0FF0208BF012213
:105960001A700C460546197808221220FFF7D2FD5E
:105970000821064608440EF09FFA238803806388B6
:105980004380A3888380E388C3803246284600236F
:105990000521FFF791FE002070BD00BF9404002098
:1059A0000148FFF7CBBD00BF383C00200620704700
:1059B00010B50A4A002312F8334084424FEAC3016B
:1059C00002D10A44907810BD01331B2BF3D110F0A3
:1059D000400F14BF0020062010BD00BFC47F01008F
:1059E0007FB5114D2C680E4684B9E4222146284625
:1059F000FCF730F902220D4B6B6005F1CC0011462B
:105A00000FF0B6FA3560204604B070BD084B029323
:105A100001900093074A084B08490948FBF7B6FA7A
:105A20006FF00B00F0E700BFA0040020643C0020F2
:105A3000F15A0100AE6F01003C7D01006060010081
:105A4000587E010010B50446006908B10EF002FA54
:105A5000A3680BB120469847204614220021BDE8D8
:105A60001040FCF7F7B838B5056801F108000C469E
:105A70000EF060FAA389A2680146284601F066FE8E
:105A8000002038BD2DE9FF410D6806460C464FF059
:105A900000084FF4205302A900682F688DF8088091
:105AA000ADF80A30FCF78EFA98B142F6010303A96B
:105AB00030688DF80C80ADF80E30FCF783FA40B1F9
:105AC000236923B1328A5988914200D25A80012039
:105AD00012E061683068FCF775FA10B100232361A9
