:10000000E82C0020F51A0000491B00008D190000A3
:100010008D1900008D1900008D1900008D19000048
:100020008D1900008D1900008D1900009515000034
:100030008D1900008D190000511500008D19000068
:10004000B91A00000B110100B91A0000B91A00001A
:10005000B91A0000B91A0000B91A0000B91A000054
:10006000B91A0000B91A0000B91A0000B91A000044
:10007000B91A0000B91A0000B91A0000B91A000034
:10008000B91A0000B91A0000B91A0000B91A000024
:10009000B91A0000B91A0000B91A0000B91A000014
:1000A000B91A0000B91A0000B91A0000B91A000004
:1000B000B91A0000B91A0000B91A0000B91A0000F4
:1000C000B91A0000B91A0000B91A0000B91A0000E4
:1000D000B91A0000B91A0000B91A000000000000A7
:1000E0008D1200000000000005190000003F0020F4
:1000F0002932010000000000051900000000000086
:1001000005190000000000000519000000000000B3
:100110001D31010000000000051900000000000072
:100120000519000000000000051900000000000093
:100130000519000000000000D110010000000000BF
:1001400005190000B83E00208135010000000000C4
:100150000519000000000000051900000000000063
:100160000519000000000000B513000000000000A9
:100170000519000000000000051900000000000043
:100180000519000000000000051900000000000033
:100190000519000000000000051900000000000023
:1001A000051101000000000005190000000000001A
:1001B0000519000000000000051900000000000003
:1001C00005190000000000000519000000000000F3
:1001D00005190000000000000519000000000000E3
:1001E00005190000000000000519000000000000D3
:1001F00005190000000000000519000000000000C3
:1002000005190000000000000519000000000000B2
:100210000519000053B94AB9002908BF00281CBFBE
:100220004FF0FF314FF0FF3000F08EB9ADF1080C08
:100230006DE904CE00F01AF8DDF804E0DDE90223F0
:1002400004B07047430803F05533C01A830803F025
:10025000333300F03330184400EB101000F00F304F
:1002600000EB002000EB0040000E70472DE9F04746
:100270008C460D460446089E002B51D18A421746F3
:100280006DD9B2FA82FEBEF1000F0BD0CEF1200C78
:1002900001FA0EF520FA0CFC02FA0EF74CEA050CF6
:1002A00000FA0EF44FEA174A250CBCFBFAF81FFAC5
:1002B00087F90AFB18CC45EA0C4508FB09F3AB4269
:1002C0000AD9ED1908F1FF3280F02381AB4240F2E8
:1002D0002081A8F102083D44ED1AA4B2B5FBFAF062
:1002E0000AFB105544EA054400FB09F9A14509D968
:1002F000E41900F1FF3380F00A81A14540F2078143
:1003000002383C44A4EB090440EA08400021002ED6
:1003100061D024FA0EF4002334607360BDE8F087E6
:100320008B4207D9002E54D0002186E821000846D0
:10033000BDE8F087B3FA83F1002940F08E80AB422C
:1003400002D3824200F2FA80841A65EB0305012091
:10035000AC46002E3FD086E81010BDE8F08712B9F9
:100360000127B7FBF2F7B7FA87FEBEF1000F34D1D1
:10037000EB1B3A0C1FFA87FC0121B3FBF2F8250CAA
:1003800002FB183345EA03450CFB08F3AB4207D9DF
:10039000ED1908F1FF3002D2AB4200F2D180804665
:1003A000ED1AA3B2B5FBF2F002FB105543EA054487
:1003B0000CFB00FCA44507D9E41900F1FF3302D27D
:1003C000A44500F2B8801846A4EB0C0440EA0840AB
:1003D0009DE731463046BDE8F087CEF1200405FAAE
:1003E0000EF307FA0EF720FA04F83A0C25FA04F493
:1003F00048EA0308B4FBF2F14FEA184502FB114446
:100400001FFA87FC45EA044501FB0CF3AB4200FAF6
:100410000EF409D9ED1901F1FF3080F08A80AB426A
:1004200040F2878002393D44EB1A1FFA88F5B3FB8E
:10043000F2F002FB103345EA034500FB0CF3AB423C
:1004400007D9ED1900F1FF386FD2AB426DD90238F0
:100450003D44EB1A40EA01418FE7C1F1200722FA3F
:1004600007F88B4005FA01F448EA030320FA07FE77
:100470004FEA134CFD404EEA040EB5FBFCF94FEA7F
:100480001E440CFB19551FFA83F844EA054509FB85
:1004900008F4AC4202FA01F200FA01FA08D9ED18A8
:1004A00009F1FF3043D2AC4241D9A9F102091D4400
:1004B0002D1B1FFA8EFEB5FBFCF00CFB10554EEA0F
:1004C000054400FB08F8A04507D9E41800F1FF3502
:1004D00029D2A04527D902381C4440EA0940A4EBA0
:1004E0000804A0FB02894C45C6464D4615D312D0E0
:1004F00056B1BAEB0E0364EB050404FA07F7CB40E0
:100500001F43CC40376074600021BDE8F087184677
:10051000F8E69046E0E6C245EAD2B8EB020E69EB97
:1005200003050138E4E72846D7E7404691E78146CE
:10053000BEE7014678E702383C4445E7084608E74D
:10054000A8F102083D442BE7704700BF70B503785F
:100550008AB004460E4607AD032B20D8DFE803F02F
:1005600002191B1D1149284601F020FB62780492F4
:10057000A2780392E2780292227901926279009243
:10058000A37905950A4A1B21304600F00DFD0AB0FB
:1005900070BD0849E7E70849E5E70849E3E7084A85
:1005A0000A21284600F000FDE0E700BF054B0100EE
:1005B0002E4B01000C4B0100134B01001D4B0100A1
:1005C000274B010030B589B00D46044604F051FABE
:1005D00001A9FFF7BBFF35B12A4601A9084800F081
:1005E000D5FC09B030BD074B1B689C42F9D101A96D
:1005F000054800F0CBFC1321204604F0EFFAF0E7A9
:10060000514B0100000000206F4B010030B5134C2E
:10061000236883428BB00D461DD104F02AFA03A94A
:10062000FFF794FF2A4603A90D4800F0AFFC2068AD
:1006300004F01CFA002323600A4B0B491868019050
:100640009B88ADF8083001A803F084FD014610B185
:10065000064800F09BFC0BB030BD00BF000000203E
:100660009A4B0100A84A010071060000B84B010036
:1006700070B5104C23688AB006460D46C3B9012AEE
:1006800016D803A9FFF762FF2A4603A90A4800F01B
:100690007DFC46350CDB03F0AFFD48B9074A106816
:1006A000516801AB03C301A9304604F0E5F92060AD
:1006B0000AB070BD000000207E4B0100AE4A010070
:1006C00007B5002003F0D6FC014628B10E4800F023
:1006D0005DFC03B05DF804FB0C4800F057FC0C48CF
:1006E00003F060FE0B4B0C49186800909B88ADF836
:1006F0000430684603F02EFD014608B10748E6E7DE
:10070000074800F043FCE4E7DB4B0100FB4B010032
:10071000283A0020B64A010071060000B84B0100DB
:10072000124C01000C4B1B78062B12D10B4B186896
:1007300010F00F000DD104331B6803F0F003302BD1
:1007400008D1074B1B6813F0F00F0CBF01200020ED
:1007500070470020704700BFE00F00F0E40F00F08A
:10076000EC0F00F008B54FF02003EFF3118183F395
:100770001188FFF7D7FF20B13D4AD36823F080737B
:10078000D360FFF7CFFF10B13A4B03221A60FFF797
:10079000C9FF30B14FF080430022C3F80C21C3F8E9
:1007A0001021354B1B78062B17D1344B1B681807CB
:1007B00013D1334B1B6803F0F002302A03D003F04F
:1007C000E003402B09D14FF08043D3F80024D20737
:1007D00003D56FF00102C3F800244FF01022D2F8C5
:1007E0000032002B274B03DBD2F80022002A2FDA3D
:1007F0000122C3F80425D3F80024002AFBD04FF0CF
:1008000010231522C3F800221E4A1346D2F8001402
:100810000029FBD04FF010221521C2F80412D3F8A2
:100820000024002AFBD00022C3F80425154AD2F880
:100830000034002BFBD0BFF34F8F1349134BCA6812
:1008400002F4E0621343CB60BFF34F8F00BFFDE7BC
:100850000122C3F840250C4B4FF0FF329A62DA6256
:100860000B4B0C4A1A6081F31188002008BD00BFB1
:10087000F0ED00E0A0050040E00F00F0E40F00F014
:10088000E80F00F000E0014000ED00E00400FA0590
:100890005C3A00200090D00308B504460846114693
:1008A0001A46A04713F0B2FB01F0E0F810B5C47A85
:1008B000C0688C424FF00C04B6BF614304FB0101D9
:1008C0004158202492FBF4F401EB8401196002F0FA
:1008D0001F0010BD07B501ABFFF7E8FF019A012328
:1008E00003FA00F013680343136003B05DF804FBE0
:1008F00007B501ABFFF7DAFF019A012303FA00F015
:10090000136823EA0003136003B05DF804FB2DE9CC
:10091000F0474368058904460068A77A5D43284488
:1009200000214FF00C0E4FF0200CB94205DB0025E2
:1009300023899D4223DBBDE8F087D4F80C90B5FBFA
:10094000F3F20EFB01F81F2A09EB08064FEA9303A6
:1009500006F1040AC8BF1F3203F10303C6F804A05E
:10096000C6F808A0CABF92FBFCF2E17249F8080081
:1009700023F00303C8BF00EB82000131D5E76268B2
:10098000E36820686A431E1D865081189A684A6091
:100990009A682046116099602A460021FFF79AFF65
:1009A0000135C5E72DE9F04F8BB0867A00AF0446DC
:1009B000FB60B3000A3323F00703ADEB030D43687C
:1009C0003A6103336A4623F0030342F80439E946E7
:1009D0004FF0FF3500234FF00C0E581EB3427862E3
:1009E00009DA2BB110688008033020F00300506052
:1009F000506888420BD27B6A013314D13A6D0023D0
:100A000013606FF00B002C37BD46BDE8F08FE06837
:100A10000EFB030000F1040C40680432604518BF6F
:100A20001D460133D9E76B1CE8D0E16859F8252051
:100A30000C2303FB051353F8046F9E4261D096E824
:100A40000A00196031684B6023682946F31A204672
:100A500093FBF2F2FFF74CFFA9EB890309EB850A40
:100A6000BB617B6A9D4223680EDB3A6911467A6A54
:100A70000A60F31A59F8222093FBF2F3FA68136024
:100A80003B6D00201E60BEE75AF8042BF31A93FB5F
:100A9000F2F3BA699B007B610AEB4A0313444FF0FF
:100AA000010BFB6105EB0B03BB60DAF80080B96852
:100AB0000BFB08F33B62F3187B607B6920460BEB72
:100AC0000302FFF707FF7B682268218908F1FF38DE
:100AD0009844A8EB020862684A4390450AD2E2684B
:100AE000F969386A0A44111D31509168596091685A
:100AF0000B6093600BF1010BBBF1040FD5D10135F5
:100B0000AFE76FF00A007EE72DE9F04F85B0837AFA
:100B10009B000A3323F0070300AFADEB030D4368DE
:100B2000033323F003030546EA4600936C46012095
:100B300081424CD20C4616463246214628465AF887
:100B40002480D5F80090FFF7C5FE002C48D007F1AF
:100B50000C03324621462846FFF7A8FEFA68042314
:100B600090FBF3F083001068D84000F00F000F28CE
:100B700036D126F003034FF000097B6008F1FF3BFC
:100B80007B684B441A46214628463B60FFF7B0FE7F
:100B90003B689E4212D008FB03F2B5F808C06B68B0
:100BA000296802EB0B0E03FB0CF39E4501EB0200E0
:100BB00004D240688B5803608B58586009F10109D2
:100BC000B9F1040FDCD196FBF9F6013CB4E72368D8
:100BD0009B08033323F0030344F8043F0130A7E7E5
:100BE00008FB06F62A68696809EB060308F1FF3876
:100BF0009844A8EB02082A89514388450BD2E9683A
:100C00000C2202FB0414221D49F80620A2685A6037
:100C1000A2681360A3601437BD46BDE8F08F0020C2
:100C2000704700000B6801330B60014B1B681847CD
:100C3000603A00202DE9F04F85B09B460E9CDFF80E
:100C400090A0012CB8BF0124012B0CBF302320231E
:100C50001546804689460194029301260A27002200
:100C60000AF101040AB9AA451FD2B5FBF4F04946BE
:100C70003030C04701360122013F012FB5FBF4F1AE
:100C80004FF00A0304FB1155BAFBF3FAE8D14946C9
:100C900005F13000C047BBF1030F03D1019B9C1B42
:100CA000002C0FDC05B0BDE8F08F019BBB42E3DBFD
:100CB000BBF1020FE0D84946029803920136C047C3
:100CC000039AD9E749462020C047013CE8E700BF26
:100CD000FFC99A3B0A688B6830B512B14C68A342D1
:100CE00002DB01338B6030BD651EAB420BBF8C60F5
:100CF0005C1C00218C600CBFD154D05430BD00006E
:100D0000014B1860704700BF603A00202DE9F04F9A
:100D100089B04FF0000A06460F4604921C464FF079
:100D2000FF39D0465546049B187810B909B0BDE884
:100D3000F08F45B9252800F00C813946B047049B57
:100D400001330493EFE7642861D019D839280AD811
:100D5000312850D22D283CD030283DD0252808D12C
:100D60003946B0476FE0582800F08980632800F0CA
:100D7000EA8039462520B047049B39461878F0E7C9
:100D8000702872D006D8692841D06C283CD06828D9
:100D9000D5D0EEE7752858D017D87328E9D1236845
:100DA00004F1040B1C46254615F8010B002840F001
:100DB000BF80B8F1030F40F0D580E41AA9EB04041A
:100DC000002C00F3BB805C463DE0782857D07A28A1
:100DD000DEE74FF00308B2E7B9F1000F0EDAB8F121
:100DE000000F00F0BC80A0F13009B8F1000F08BF7F
:100DF0004FF00208A3E7B9F1000FF4DB0A2303FB6D
:100E00000909A9F13009F0E70AF1010A97E7BAF1F7
:100E1000010FC5BF073424F0070325681D68D4BF40
:100E2000043403F10804002D05DA39462D20B047BB
:100E30006D4209F1FF39CDF8009043462A46394604
:100E40003046FFF7F7FE002579E7BAF1010FC5BF7D
:100E5000073424F0070322681A68CDF80090CCBF4D
:100E600003F1080404344346E9E739463020B0472B
:100E700039467820B0474FF008094FF00108BAF121
:100E8000010FC7BF073424F0070323680593C2BFCF
:100E900003F108041B6805934FF008024FF00003AC
:100EA000D8BF04340393079393460BF1FF3B059B94
:100EB0004FEA8B0023FA00F010F00F0009D1079BD6
:100EC00013B9BBF1000F22D14FF0300E07E0069AA4
:100ED000EBE709288CBF4FF0570E4FF0300E394624
:100EE00070440692B047039B079501330393BBF10F
:100EF000000FECD1B8F1030FA5D1039BC3EB49055B
:100F0000002DA0DD39462020B047013DF8E7531EF3
:100F100091450693EBDBB8F1010F03D13946302040
:100F2000B047E4E7B8F1020FE1D139462020F7E7F6
:100F3000394603932C46B047039B34E739462020BB
:100F4000B047013C3CE72068251D3946B0472C4698
:100F500079E7AA46A8464FF0FF390125EFE64FF0A2
:100F60000108ECE65C460546E9E6000013B502AC74
:100F7000002344F8043D02460B4603482146FFF790
:100F8000C5FE019802B010BD250C00000FB407B5D6
:100F900004A951F8040B0191FFF7E8FF03B05DF8D5
:100FA00004EB04B0704700000CB430B585B008AB5A
:100FB000044653F8042B01900291002501A907482B
:100FC00000930395FFF7A2FE0398029B9842B8BFD7
:100FD000255405B0BDE8304002B07047D50C000084
:100FE0007047000013B5114CBFF35B8F2068BFF34F
:100FF0005B8F60B90E4812F031FBBFF35B8F54E892
:10100000003F44E80002002AF9D1BFF35B8F436838
:1010100004221B680DEB02019847002802DA00F059
:1010200043FA0190019802B010BD00BF04000020F7
:10103000404C010043685B6818470020704700007F
:101040000A4B70B5C6B204461B6830469847012863
:101050000AD00A2C064D03D10D212868FFF7EAFFBC
:1010600031462868FFF7E6FF204670BD643A00204D
:10107000080000200148FFF743BE00BF41100000F8
:1010800008B5044812F0EAFA034B1860FFF7F2FFC4
:10109000002008BD4A4C01000800002010B54FF0A8
:1010A0002003EFF3118283F31188114C237823B9C5
:1010B00082F311886FF0440010BD013BDBB2237056
:1010C00023B182F311886FF00F0010BD094B18781F
:1010D000012128B1217082F311886FF00A0010BD40
:1010E000197082F311884FF080425160187010BD62
:1010F0000E0000200D00002008B50022104601213E
:1011000000F0E8FB002000F0B3FB002008BD000069
:10111000F8B54FF02002EFF3118382F31188254ACE
:101120001078441C147060B183F311884FF0804331
:10113000D3F80C3413F4803F14BF00206FF0430049
:10114000F8BD1D4D2F782FB1107083F311886FF00B
:101150000A00F8BD01262E7083F311884FF08044F9
:1011600019B3384600F094FBC4F80071D4F8043386
:10117000C4F804632660D4F8002192B10022C4F8B8
:1011800000210E4A13F0010F4FF0010308BFC4F80D
:1011900008330020C2F8803100F06AFB00232B7076
:1011A000C4E720BF40BF20BFE5E7C4F800112660B8
:1011B000F4E700BF0E0000200D00002000E100E079
:1011C000F8B506460C464FF02002EFF3118382F388
:1011D00011882C4A157865B183F311884FF080434C
:1011E000D3F8183413F4803F0CBF6FF04300002095
:1011F000F8BD0127177083F31188284600F048FBDB
:101200004FF080430221C3F80451D3F80423C3F8FC
:101210000413C3F818459F60D3F8041171B3920703
:10122000194F58BF02224FF000014FF00105C3F8DB
:1012300004114FF0000058BFC3F80823C7F88051CD
:1012400000F016FB4FF0804300211822C3F808235A
:10125000C3F80C11C3F8101114F00301BED1102013
:10126000C3F83805C3F804233046C3F80453FFF726
:101270004FFF0028B2D1C7F80051AFE720BF40BFF1
:1012800020BFC9E70C00002000E100E0F8B54FF0F6
:1012900080430546D3F808E1D3F80423D3F80C447F
:1012A000D3F80071D3F80401D3F80C11D3F810610E
:1012B00002F00102BEF1000F03D04FF0000EC3F8A0
:1012C00008E127B14FF080430027C3F800713AB11D
:1012D000E30341BF4FF080430122C3F808231A61A2
:1012E00020B14FF080430022C3F8042149B14FF0F0
:1012F00080440021C4F80C112846FFF7CFFE0123DB
:10130000636176B14FF0804300210124C3F81011CE
:101310002846C3F80443FFF7FBFE10B9014BC3F89E
:101320000041F8BD00E100E0084BC3F84005D3F8E8
:101330000435C01A20F07F40054B0238984282BF26
:10134000044B4FF40032C3F80021704700100140F5
:10135000FDFF7F0000E100E038B5114B114CD3F8E0
:1013600004052268104D801A2B6820F07F409842B7
:101370000FD3B0FBF3F00D490968884228BF084637
:1013800000FB032323F07F432360094B186012F016
:10139000B5FE20682B681844BDE83840FFF7C4BF8D
:1013A0000010014014000020783E002010000020B2
:1013B000743E0020024B0022C3F84021FFF7CCBF4F
:1013C00000100140031E0A4A0A4804DB116890FB22
:1013D000F1F18B4202DD136890FBF3F31068064ACB
:1013E000064912680B6000FB0320FFF79DBF00BF9A
:1013F000783E0020FFFF7F00140000201000002036
:1014000008B5074B0022C3F84021064B4FF40032C9
:10141000C3F88021FFF7A0FF034B01221A6008BD2B
:101420000010014000E100E01000002070B51848F5
:1014300012F014F948B34368164D1B680121984710
:10144000154B00241C60154B01261E60144BC5F87B
:1014500008451B68C5F840354FF48033C5F8443360
:10146000C5F804330F4BC5F840414FF40032C3F8C0
:10147000802131462246112000F02CFA112000F084
:10148000F7F9AE6020462E6070BD4FF0FF3070BDA2
:101490006C4C0100001001401400002010000020DE
:1014A000783E002000E100E00A4A30B5D2F8043569
:1014B000094DD5E90001D2F80445A34207D1074AF6
:1014C000126850431B1A23F07F43184430BD234653
:1014D000EFE700BF0010014088190020783E00208F
:1014E00007488168006A884208D000B512F040FDC4
:1014F0005DF804EB03494FF080520A60704700002A
:101500005019002004ED00E0044800232021C218F7
:101510000133272B82F80013F9D1704700E100E076
:10152000084A094993680968D966084998664B686A
:1015300043F080534B60002383F311889368D86E87
:10154000704700BF50190020F888010000ED00E04E
:10155000202080F311880D498A682C201044EFF375
:10156000098C80E8F01F0A4F4FF000660A6A8A6013
:101570003E60906E0023936680F3118802F12C0088
:1015800090E8F01F8CF30988704700005019002084
:1015900004ED00E01EF0040F0CBFEFF30880EFF342
:1015A0000980816931F8021C11F0FF010229FFD086
:1015B00000B500F02BFA00BD10B5044612F026FD70
:1015C00022680146BDE810400148FFF7DFBC00BFBC
:1015D000C54D010038B504461A480D46FFF7D6FC44
:1015E00004F11800184CFFF7E7FFA36AD90602D5EB
:1015F0001648FFF7CBFCA36A1A0702D51448FFF779
:10160000C5FCA36A9B070ED51248FFF7BFFC616BB0
:10161000A36A180607D51048FFF7B8FC1DB1A36AE6
:1016200023F08003A362084CA26AD20702D50B48BC
:10163000FFF7ACFCA36A9B0602D50948FFF7A6FC9E
:10164000002038BD0F4E010000ED00E0264E0100E5
:10165000384E01004C4E0100654E0100764E0100EF
:10166000964E010010B504461A48FFF78FFC04F1AE
:101670001800194CFFF7A0FFA36A9A0102D517487A
:10168000FFF784FCA36ADB0102D51548FFF77EFC57
:10169000A36A180302D51348FFF778FC0E4CA36A1F
:1016A000590302D51048FFF771FCA36A9A0302D5CB
:1016B0000E48FFF76BFCA36ADB0302D50C48FFF76B
:1016C00065FC054A936A6FEA03436FEA134393622A
:1016D000002010BDC64E010000ED00E0DF4E01000D
:1016E000F34E01000E4F01002D4F0100534F01003A
:1016F0006E4F010038B504461D480D46FFF746FC05
:1017000004F118001B4CFFF757FFA36AD80404D557
:101710001948BDE83840FFF739BCA36A190501D55F
:101720001648F6E7A36A9A0514D51548FFF72EFC6C
:10173000A16BA36A1B0407D51248FFF727FC1DB154
:10174000A36A23F40043A3620A4B9B6A58050ED593
:101750000D48DEE7A36A5905FAD4A36ADA0501D574
:101760000A48D6E7A36A9B0401D50948D1E738BDEA
:101770008C4C010000ED00E0264E0100384E0100C7
:10178000A34C0100654E0100BD4C0100D94C010085
:10179000964E010038B5274C6368C3F30803DA1E80
:1017A0000546092A3BD8DFE802F0053436303A3ADC
:1017B0003A3A3A382048FFF7E9FBE36A9A0703D53B
:1017C0001E48FFF7E3FB02E0E36A5B0001D4002060
:1017D00009E01B48FFF7DAFB1A4B1B7843B10121E4
:1017E0002846FFF7F7FE2946BDE8384000F012B959
:1017F000154B1B7823B101212846FFF77BFFE6E755
:10180000124B1B889BB2002BE1D02846FFF72AFF22
:10181000E9E70021E4E70021EEE70D48D1E70D48B4
:101820000D49A3F110020F2BD8BF01460B48FFF75B
:10183000ADFBCCE700ED00E0204D0100384D01008C
:101840005A4D010028ED00E029ED00E02AED00E00E
:101850007A4D0100F24C0100074D0100B14D01002D
:10186000024A536943F010035361704700ED00E0F2
:1018700043B2002B08DB012200F01F0002FA00F047
:101880005B09024A42F82300704700BF00E100E014
:1018900043B2002B0DDB01225B0900F01F0002FAAE
:1018A00000F02033034A42F82300BFF34F8FBFF309
:1018B0006F8F704700E100E04209054B00F01F0008
:1018C00053F82220012303FA00F01040704700BFB4
:1018D00000E100E043B2002BA8BF03F1604301F137
:1018E00001014FEA4111ADBF03F5614300F00F0064
:1018F000034BC9B2B6BFC9B283F80013195470477D
:1019000014ED00E000F042B808B572B6044BD86997
:1019100018B10022DA6111F0C7FE62B608BD00BF3F
:1019200050190020F8B50C4616461F4604220A9BA3
:101930000999054612F0FEFDA6F1200121440C4A4A
:10194000EC6521F00701002322F001022B656B6595
:101950002E668A61069A4A60079A8A60089ACA6067
:101960000F604FF08072CA61E964AB66F8BD00BFDA
:1019700099080000014910220A60704710ED00E04C
:10198000404080F3118830BF704700BF404080F373
:101990001188DFF81CC0DCF800C01CF4006C0CBF20
:1019A000EFF30880EFF3098000B5FFF7F3FE00BD09
:1019B00004ED00E0042838B504460D4613D0052890
:1019C00013D0032813D10C48FFF7E0FA12F01EFBE6
:1019D000AA6901460948FFF7D9FA29462046BDE819
:1019E000384000F017B80648EEE70648ECE7014635
:1019F0000548FFF7CBFAE9E79A4F010018500100BC
:101A0000C04F0100DA4F0100F54F010001460068A8
:101A1000FFF7D0BF052810B50CD012F0B9FC60B1AB
:101A200012F0B6FC0C4B0D49002808BF19460C48B3
:101A3000FFF7ACFAFFF7A4FFFCE712F0B9FC0028AF
:101A4000EED1084C0848A168FFF7A0FAA068BDE8ED
:101A5000104000F00BB800BF585001005450010076
:101A600069500100501900208950010038B5054621
:101A70004FF02003EFF3118483F3118812F0F0FC90
:101A80000B4B9B689D420DD10A4B5A68C2F308026A
:101A900022B912F06DFA2046FFF742FD5A6842F073
:101AA00080525A602046BDE8384012F01BB900BF92
:101AB0005019002000ED00E000B572B60B4AD06965
:101AC00000281EBF0021D16111F0EEFD62B6EFF3D8
:101AD0000580A0F110004FEAC0000549014409C982
:101AE00098475DF804EBFFF7FBBC0000501900209D
:101AF000DC000000202080F3118806484FF40061CC
:101B0000401880F30988022080F31488BFF36F8F98
:101B100000F006B8282E002030BFFFF7FDBF00BF41
:101B200008B5074B074A23F07F039360BFF34F8F3D
:101B3000BFF36F8F11F0E8FD11F0F0FD11F012FE10
:101B40000000000000ED00E008B5FFF7E5FFBDE88C
:101B50000840FFF7C5BC0000124930B50D68082DDC
:101B60000DD8114A4868002353609D4200F10C00D3
:101B700007D105235360BFF34F8FBFF36F8F002052
:101B800030BD50F80C1C50F8044C936021F01F013C
:101B900041F01001194344F00104D1600133146194
:101BA000E3E700BF3C3A002090ED00E00139034636
:101BB00011F8012F0AB91A70704703F8012BF7E7E3
:101BC00002460346981A13F8011B0029FAD1704700
:101BD0000138013910F8013F11F8012F934202D169
:101BE000002BF7D11A46981A704770B582B1013AA6
:101BF0000C46034603D11A782078101A70BD1E785F
:101C00002578AE4200F1010001F10101EFD0F2E7C9
:101C1000104670BD81EA000313F0030F70B5034650
:101C20000BD0013B0A4491421BD170BD002AFCD06D
:101C300011F8014B03F8014B013A9C07F6D11E1F26
:101C40000D46541B0C44032C06D822F003042144F7
:101C5000234402F00302E4E755F8044B46F8044F2E
:101C6000EFE711F8014B03F8014FDCE770B5C9B29B
:101C700003469C0711D141EA012444EA04441E466C
:101C8000951B1D44032D0ED822F00304234402F0BB
:101C900003021A44934209D170BD002AFCD003F814
:101CA000011B013AE5E746F8044BE9E703F8011B9D
:101CB000F0E7000070B54FF02003EFF3118583F3D8
:101CC0001188144C144E237803EBC312013303F034
:101CD00003033244237085F31188402928BF402133
:101CE0000E4D0138134602EB4106B34204D10023E6
:101CF00002F81130104670BD4478240902332C5D7F
:101D000003F8024C10F8014F04F00F042C5D03F8A7
:101D1000014CEAE77400002075000020CC5001005F
:101D200010B50F4A0F4C137803EBC301013386B093
:101D300003F001031370027843790492427803920E
:101D400082780292C278019204EB410402790092F7
:101D50001221054A2046FFF727F9204606B010BD9C
:101D60007200002018000020AE50010070B51D4A1E
:101D70001D49137803EB4306013303F0010313708D
:101D800003788AB006EBC60604460E4407AD032B63
:101D900021D8DFE803F0021A1C1E14492846FFF779
:101DA00005FF62780492A2780392E2780292227987
:101DB000019262790092A37905950D4A1B21304664
:101DC000FFF7F2F830460AB070BD0A49E6E70A4963
:101DD000E4E70A49E2E70A4A0A212846FFF7E4F85D
:101DE000DFE700BF730000203C000020054B01002E
:101DF0002E4B01000C4B0100134B01001D4B010049
:101E0000274B010030B585B00446154668460322CD
:101E1000FFF700FF0D2200210DF10300FFF726FF61
:101E200020466A46694606F07BF9044620B903223B
:101E300069462846FFF7EEFE204605B030BD13B5D3
:101E40000C4601AA0331FFF7DDFF48B9032201A9BF
:101E50002046FFF7CAFEB0FA80F0400902B010BD7C
:101E60000020FBE770B5CD1C06460C462846032132
:101E700006F03AF960B9637903F03F0343F0400399
:101E80006371224629463046BDE87040FFF7BABF6D
:101E900070BD0000F0B40278012A04460B4617D04A
:101EA00003D3022A2CD0F0BC7047184A0D4602F129
:101EB0001007106851682E4603C60832BA423546EC
:101EC000F7D11278327062885A73120A9A73EAE76D
:101ED0000E4A0D4602F11007106851682E4603C6DF
:101EE0000832BA423546F7D11278327062685A73B6
:101EF000C2F30721120CDA73120A99731A74D2E72B
:101F0000014611221846F0BCFFF784BEDD500100E7
:101F100010B50C46017822788A428AB00ED0694604
:101F2000FFF7B8FF05A92046FFF7B4FF10220DF117
:101F300015010DF10100FFF758FE0AE0012A0AD051
:101F400004D3022A0AD06FF0150002E040886388AB
:101F5000C01A0AB010BD40686368F9E71022611C1E
:101F60000130E8E77047000070B50B4D06460FCD15
:101F70008AB06C460FC40FCD0FC495E80300092E3C
:101F800084E803009BBF0AAB03EB8606034856F8C0
:101F9000280C0AB070BD00BFBC4A0100DC63010020
:101FA0000722FFF737BE00B5BFF35B8F50E8003F55
:101FB00043EA010240E8002EBEF1000FF6D1BFF364
:101FC0005B8F18465DF804FB00B5BFF35B8F50E8EC
:101FD000003F03EA010240E8002EBEF1000FF6D1F7
:101FE000BFF35B8F18465DF804FB0000C378002B3D
:101FF00041F2883200F1700108BF0022014812F05E
:102000006FBB00BF901900202DE9F04387B0154643
:102010008846074611F0FAFF2C4E01902C4B2D4AB2
:102020002D4905960495CDF80C80029700962B4813
:10203000DFF8BC90FEF7AAFFA87910F0F9FD814502
:1020400013D0AC79204610F0F3FD05960390CDF83F
:10205000109002948DE8C0001D4B214A1E49214872
:10206000FEF794FF07B0BDE8F083284610F0E6FDC8
:102070001D4C04EBC0004388BB420FD0284610F033
:10208000DDFD04EBC0000396438802938DE8C00099
:102090000F4B134A10491548FEF778FF284610F0F9
:1020A000CDFD04EBC0004368002BDBD0284610F0C8
:1020B000C5FD04F83080284610F0C0FD04EBC000D8
:1020C000406807B0BDE8F04311F0AFBF994B010085
:1020D0003E5201009D5F0100A45F0100A75F010067
:1020E000DF5F0100E65F01007C0200202B60010041
:1020F000743F00204B09BFF35B8F50F82300BFF300
:102100005B8F01F01F01084100F0010070470000E3
:102110002DE9F04786B006460F4611F077FFDFF84D
:10212000A0A0DFF8A090DFF8A080204D04955346D2
:102130004A46019000954146039702961C48FEF7D7
:1021400025FF4FF0FF311B4810F006FE044611F04A
:102150005DFF4A465346039501900095414602941F
:1021600004F108081448154DFEF710FF4FF0000960
:102170000021404610F00FFE84F81490204610F025
:102180005DFD05EBC0004680204610F057FD05EBD5
:10219000C0000321C0F80490404610F03FFE0680C6
:1021A0008770204606B0BDE8F08700BF994B01005C
:1021B00058550100743F0020885501007C02002022
:1021C000EE5001009D5F0100A45F01002DE9F04386
:1021D00081468DB015460C4621B9FFF799FF04469C
:1021E000002853D011F012FF2A4E0596A3890493BC
:1021F0000DF11808284B0190284A2949CDF80C9078
:10220000029400962748284FFEF7C0FE01220021C5
:10221000404611F001FF204610F010FD07EBC00012
:10222000C0F80480204610F0F5FD21461F4810F04C
:10223000B6FD42F21071404611F01FFF11F0E6FEAC
:102240008046204610F0FAFC049617F830300393CD
:10225000124A114B124916488DE84003FEF796FECC
:10226000204610F0EBFC17F8300038B1204610F093
:10227000A3FD6FF004000DB0BDE8F0830DB12C603C
:10228000F9E7204610F098FD2846F4E76FF0360095
:10229000F1E700BF994B0100105101009D5F010063
:1022A000A45F0100005601007C0200202C3B0020AE
:1022B0003156010038B50221054642F20C00FFF705
:1022C00027FF044630B30221083010F0A7FD012D8E
:1022D000024616D10B211148FFF70CFF5070157004
:1022E0002146002242F20C00FFF770FF044630B98D
:1022F000012D09D14FF480710848FFF754FE2046A4
:1023000038BD00234370EAE76FF480710348FFF79C
:102310005BFEF4E76FF03604F1E700BFD83A002027
:102320007FB5054611F072FE04462846FFF7F8FC1B
:102330001A4B1B4E03938DE818000290194B1A4A52
:102340001A491B48FEF722FE062206F1080128461C
:10235000FFF74BFC0446D8B1062142F20500FFF717
:10236000D7FE0446B8B106222946083010F05CFDBD
:102370002146002242F20500FFF728FF044638B943
:102380000622294606F10800FFF744FC0123F371F9
:10239000204604B070BD6FF03604F9E7994B010098
:1023A000683A0020255101009D5F0100A45F0100F3
:1023B000E462010007B50621684605F095FE40B9C4
:1023C0009DF80530684603F03F038DF80530FFF7B0
:1023D000A7FF03B05DF804FB38B50121054642F2C2
:1023E0000A00FFF795FE0446D8B108308DB10121EF
:1023F00010F023FD2146002242F20A00FFF7E6FE1C
:10240000044620B93DB140210748FFF7CCFD2046E6
:1024100038BD2946ECE76FF040010348FFF7D4FDD3
:10242000F5E76FF03604F2E7D83A002002884388D7
:102430009A4210B518D8052A16D9B3F5486F13D8A3
:102440008488B4F5FA7F0FD2C188A1F10A0292B252
:1024500040F67640824207D804FB0333B3EB810F8A
:10246000B4BF0120002010BD002010BD012310B515
:102470000621044600F8013B05F036FE18B9A379A1
:1024800063F03F03A37110BD37B5114C2378012BC6
:1024900004D1A37903F0C003C02B0DD00D4B0193E1
:1024A00000930D4A0D4B0E490E48FEF76FFD6FF07D
:1024B0001505284603B030BD601CFFF731FF054607
:1024C0000028F6D1042104F17000FFF76CFDF0E75D
:1024D000683A0020994B0100555F01009C530100B0
:1024E000A45F01005C5F01002DE9F0431D4DDFF8A2
:1024F00090801D4F1D4E1E4C87B02846FFF736FCBE
:1025000043463A4631460190029400941948FEF73A
:102510003DFD95F80E904846FFF726FDAB8A0493E3
:102520002B8A03933A4643463146CDF808900190F2
:10253000059400941048FEF729FD95F80F90484641
:10254000FFF712FD6B8A039301900494CDF8089075
:10255000009443463A4631460848FEF717FD07B057
:10256000BDE8F083683A00205A540100A45F0100DE
:10257000994B0100615401007E540100CC540100CC
:10258000BD53010010B5044686B011F03FFD227D19
:102590000B4B0492A289059303920190009302943D
:1025A000084B094A09490A48FEF7F0FC094BD3F8E1
:1025B000D4301B69204606B0BDE81040184700BF64
:1025C000994B0100E35301009D5F0100A45F0100EE
:1025D0002A5F0100683A002070B5054686B00C46B7
:1025E00021B9FFF795FD044600282CD011F00EFD0F
:1025F000164E0496A38903930190154B02950096FD
:10260000144A15491548FEF7C1FC40F635439D4272
:1026100013D12046FFF7B6FF054658B10190029648
:1026200000960B4B0E4A0C490E48FEF7AFFC2046B5
:1026300010F0C2FB284606B070BD21460A4810F0D3
:10264000AEFB0025F6E76FF03605F3E7994B010086
:10265000005101009D5F0100A45F0100A45501002D
:10266000555F0100CE5501002C3B002073B5054697
:102670000E461446002107226846FFF7F7FA214864
:102680008DF8005000238DF80630012D0378ADF849
:102690000160ADF803408DF805300AD10621703095
:1026A000FFF728FD28B9FFF785FE0446F0B98DF83D
:1026B0000550072142F20B00FFF72AFD0446F0B156
:1026C00007226946083010F0AFFB214642F20B00AA
:1026D000FFF782FF0120FFF7EDFD044630B9012D21
:1026E00007D14FF480610848FFF75DFC204602B037
:1026F00070BD6FF480610448FFF766FCF6E76FF089
:102700003604F3E7683A0020D83A002038B50921AA
:1027100005461648FFF7EEFC024608B1002038BD1A
:1027200008211248FFF7E6FCD0B90121002002F091
:102730007BF904460028F1D04FF400610B48FFF705
:1027400032FC204602F092F9002D15BF30221222F1
:1027500060214FF400610020BDE83840FFF786BFDC
:102760001046FFF7A7FD0028DFD038BDD83A00207B
:102770002DE9F043714ED6F8D430996811F001017B
:102780008FB031D10CAA40F60340FFF71FFD05467C
:10279000002840F0CE800C9B9B681C7811F036FC22
:1027A000674B0393019000930294664B664A674916
:1027B0006748FEF7EBFBA4B9664B1C603346BFF3DA
:1027C0005B8F53F8702FBFF35B8F02F00D02BFF3E6
:1027D0005B8F53E8001F43E800200028F9D1BFF3C6
:1027E0005B8F0C9810F0E8FA0CAA002141F203006C
:1027F000FFF7ECFC0546002840F09B800C9B504CFA
:102800009F6811F003FC039417F8013B02930190B9
:10281000514B4D4A4D4900944D48FEF7B7FB0822F5
:1028200039464E48FFF7F6F90C9810F0C5FA2946DC
:102830000CAA41F20100FFF7C9FC0546002878D137
:102840000C9B9D6811F0E2FB03942B783F490293A7
:102850000190434B3C4A00943D48FEF797FB6B7850
:10286000B373EA78AB780C9843EA022333822B796E
:10287000F3732A7AEB7943EA02237382AA796B799C
:1028800043EA0223B38210F097FA03213548FFF799
:1028900031FC014600BB0CAA41F20900FFF796FC8F
:1028A0000546002845D10C9B9F6811F0AFFB0394AF
:1028B00017F8013B029301902B4B234A23490094C4
:1028C0002348FEF763FB062239462848FFF7A2F9A2
:1028D0000C98357010F070FA0CAA002141F2020039
:1028E000FFF774FC054620BB0C9B9F6811F08EFB24
:1028F000039417F8013B029301901D4B124A1349B0
:1029000000941348FEF742FB394640221948FFF76E
:1029100081F90C9810F050FAB37E590632D4019424
:102920000094154B154A09491548FEF72FFB6FF027
:10293000120528460FB0BDE8F08300BF683A0020BA
:10294000994B01002B5201009D5F0100A45F010023
:1029500085560100D80200205A5301007E3A00201B
:10296000BB520100D83A0020D3520100693A00203E
:1029700039530100863A002094530100555F01004D
:10298000A456010029460CAA42F20300FFF71EFCE0
:1029900005460028CDD10C9B9F6811F037FB0394AE
:1029A00017F8013B02930190B34BB44AB449009429
:1029B000B448FEF7EBFA08223946B348FFF72AF984
:1029C0000C9810F0F9F929460CAA42F20200FFF720
:1029D000FDFB05460028ACD10C9B9D6811F016FB51
:1029E00003942B7802930190A84B0094A34AA44926
:1029F000A448FEF7CBFAB5F80130A6F88830BBB191
:102A000011F004FBB6F8883004940393EB7802933A
:102A100001909A4A9A4900949C4B9D48FEF7B6FA59
:102A2000EA789C48022A28BF0222114611F0F4FAE3
:102A30000C9810F0C1F9B57E15F0200500F000816A
:102A400096F83A301A0723D50CAA002142F21C004E
:102A5000FFF7BCFB054600287FF46BAF0C9B9D681D
:102A600011F0D4FA03942B78029301908A4B834A95
:102A7000009483498348FEF789FA2B460C9853F853
:102A8000012F5B68C6F88430C6F8802010F094F9F6
:102A900096F878309B0600F11581082142F201007A
:102AA000FFF736FB0546002800F0D18008210844D6
:102AB00010F0B4F996F878108F074CBF2F220F2230
:102AC000890696F8791048BF42F0400211F0090FCC
:102AD00096F8401001F0060118BF42F40062062982
:102AE00008BF42F4C0720270C2F307224270002293
:102AF0008270C270027142718271C271294642F2C3
:102B00000100FFF763FB054600287FF412AFB37E98
:102B10009A063FD4B6F8881000293BD10CAA41F29E
:102B20000500FFF753FB054600287FF402AF0C9B1E
:102B30009D6811F06BFA03942B7802930190574B28
:102B400000944E4A4E494F48FEF720FAB6F88830B6
:102B5000EBB9AA786B7843EA0223A6F88830AD88EF
:102B600011F054FAB6F8883003930190434A44496F
:102B7000049402950094494B4948FEF707FA022D48
:102B80002A4628BF02221146424811F045FA0C9805
:102B900010F012F9082140F60140FFF7B9FA054696
:102BA000002854D00821084410F038F9102303708D
:102BB0008823437002230022C37020238270027195
:102BC00042718271C371294640F60140FFF7FEFA57
:102BD000054600287FF4ADAE01460CAA4FF6014031
:102BE000FFF7F4FA002800F09A802E4B2E4A244971
:102BF0002E4801940094FEF7C9F9002307220CA97E
:102C00002B480C93CDF83330FEF7EFFF002840F04F
:102C1000008111F0FBF9274B019002940094174AB0
:102C200017492548FEF7B2F996F86030DB0700F146
:102C3000118101940094214B1B4A1149204816E14F
:102C4000022140F66D40FFF763FA074610B96FF0B6
:102C500036056EE60221083010F0E0F801234570D9
:102C600003702A46394640F66D40FFF7AFFA054635
:102C700000283FF4E5AE5CE6E85201009D5F0100EC
:102C8000A45F010085560100E03A00201C530100BA
:102C9000D8560100F43A0020775301000253010096
:102CA0000C570100CE530100DF5F010044570100C3
:102CB000683A0020DA53010078580100AF53010050
:102CC000265901000CAA002142F22F00FFF77EFADC
:102CD000054600287FF42DAE0C988368B3F8018078
:102CE000B3F8039010F068F8042142F22400FFF7D3
:102CF0000FFA07460028AAD00421083010F08EF8F9
:102D00002A46A0F80080A0F80290394642F224003A
:102D1000FFF75CFA054600283FF4BFAE09E60C9BBE
:102D200071499D687148B5F801300293032B96BF35
:102D30006F4A704A52F8232001926F4B6F4A0394F6
:102D40000094FEF723F9B5F80130B5F80320022B03
:102D50003AD1022A38D86A4B53F8223002920193B2
:102D6000664A654B6049039400946648FEF70EF985
:102D70006B790694D5F809100591032BB5F8071067
:102D800098BF614A0491A97994BF52F82320594A07
:102D9000039102935449584B01920094574A5B485F
:102DA000FEF7F4F80C9810F007F80CAA00214FF683
:102DB0000240FFF70BFA054640B1019400944E4BD8
:102DC000534A4949534816E74A4BC7E70C9B5248B8
:102DD000996802220131FEF71DFF0C980FF0ECFFFD
:102DE0000CAA29464FF60340FFF7F0F930B10194E1
:102DF0000094414B464A3C494848FCE60C9B4848F5
:102E0000996801221144FEF705FF0C980FF0D4FFDA
:102E1000F3E6444B18689A880A909B79ADF82C2009
:102E20000AA9072240488DF82E30FEF7DEFE002862
:102E30003FF4EFAEFFF758FB02F05CF805460028C0
:102E40007FF477AD02213948FFF7ADF82846FFF748
:102E50005DFC6EE509AA00214FF60940FFF7B6F9BF
:102E600040B1334B2A4A2049324801940094FEF77E
:102E70008DF826E0099B99684B78BBB101230622A7
:102E800002312D483370FEF7C5FE09980FF094FF0C
:102E9000FFF7FAFA05460028CCD001940094274B9E
:102EA000274A11492748FEF771F842E5019400943A
:102EB0001F4B174A0C492448FEF768F809980FF091
:102EC0007BFF1948FFF7D2FA05460028E5D11A48DA
:102ED000FEF726FF029401900094154B0C4A02491C
:102EE0001A48FEF753F8D3E7A45F010078570100B2
:102EF000D4620100DC630100CE5301005A5401008A
:102F0000C8620100A1570100CC630100C95701004C
:102F1000DF5F010006580100C73A00203F5801005A
:102F2000C63A0020E44A0100683A0020D83A00205E
:102F3000AF530100BD580100693A0020DA53010087
:102F4000555F01009B590100ED58010062590100D5
:102F500010B5FFF70DFC034B1B6813B1BDE8104023
:102F6000184710BDD402002038B50721044642F2AC
:102F70003200FFF7CDF8054698B1072108300FF071
:102F80004DFF23880380002402238470C3700371E3
:102F900044718471294642F23200FFF71DFB20463E
:102FA00038BD6FF0360038BDF7B5074601AA0021DD
:102FB00042F22F00FFF70AF9D8B901988368B3F8F5
:102FC0000160B3F803500FF0F7FE062142F2220031
:102FD000FFF79EF8044670B1062108300FF01EFF7F
:102FE0003B88038046808580214642F22200FFF71D
:102FF000F3FA03B0F0BD6FF03600FAE72DE9F04FB9
:103000008DB00546B0F80170704E10F0FFFF2C1D1A
:103010008146204695F800A095F803B0FEF7A6FE7D
:103020001FFA87F805906A4B0696CDF810B0CDF8D8
:103030000C808DE84006674A67496848FDF7A6FF9F
:103040002B7883B10221002001F0EEFC044638B158
:103050002B780372002101F0BFFB204601F006FD32
:103060000DB0BDE8F08F21460AA8FEF799FF9DF844
:103070002830023BDBB2012B28D8062205F11101D2
:103080000DF121008DF82830FEF7C4FD01238DF8E5
:10309000203002210AA801F0C7FCEB78012B04467E
:1030A00009D16FF040014E48FEF78EFF9CB90AA887
:1030B00001F05EFB044674B902968DE84001444B72
:1030C000484A45494848FDF761FFC9E7214608A835
:1030D000FEF766FFDDE720460AA920F8447BFEF7ED
:1030E0005FFF2A7EEB7D43EA0223A4F85A30AA7ED2
:1030F0006B7E43EA0223A4F86030EB7E2A7F43EA2A
:103100000223A4F86230EE78E670012E1AD1374F10
:1031100008A904F14B00FEF743FF394604F15200C1
:10312000FEF73EFF072107F17000FEF7E3FF48B10D
:10313000D7E92023002203F04003134302D0304696
:10314000FFF74AF90321204601F046FB637A032B7F
:1031500018D1EB7823B1254B93F87830190718D59F
:10316000022142F21600FEF7D3FF054688B1022184
:1031700008300FF053FE23880380294642F21600E0
:10318000FFF72AFA204601F071FC0020FFF7BEFA93
:1031900066E7164D95F87920D20708D52046FFF747
:1031A000E3FE20B98021201DFEF7FDFEEAE795F839
:1031B00078309B0606D52046FFF7F6FE10B94FF48F
:1031C0008071F0E72046FEF711FFDBE7994B010025
:1031D0006F5101009D5F0100A45F01003C6201008E
:1031E000D83A0020555F010070620100683A002063
:1031F00070B506460D4642F221000321FEF788FF16
:10320000044660B1032108300FF008FE8570068087
:10321000214642F22100BDE87040FFF7DDB96FF0B2
:10322000360070BD2DE9F04F89B010F0EFFE814CF3
:10323000019002940094804B804A81498148DFF8D4
:1032400010A2FDF7A3FE9AF80D307F486FF3071325
:103250008AF80D3001F044FA00F1010810F0D6FEB2
:10326000764A019076490394CDF808800094724B19
:103270007648FDF78BFE4FF0FF324146744811F05F
:1032800015FB68B16C4B734A6D4973480194009407
:10329000FDF77CFE404080F311884FF0040002DF10
:1032A00010F0B4FE03940190CDF8088000946B4BAD
:1032B000624A63496A48664DDFF8A0B1694EFDF77E
:1032C00065FEB8F1000F02D110F070FEBBE710F000
:1032D0009DFE6B7B01901B09029303945B46009457
:1032E000564A57496048FDF751FE6B7B1B09012B7D
:1032F00040F28180042B40F0928095F80C90B9F157
:10330000000F7CD110F082FE584B01904B4A4C4983
:10331000029400945648FDF739FE494655480FF08F
:1033200021FD074630B901940094504B494A444965
:103330005148ADE710F06AFE4C4B01903F4A4049BE
:10334000029400944D48FDF721FE4FF0FF314C48A8
:1033500010F093FED6F8C0306BB1444B3D4A38496B
:10336000019400944748FDF711FED6F8C0000FF015
:1033700023FDC6F8C09038460FF04CFDC6F8C000DB
:1033800010F044FE079038460FF058FCDFF8089123
:10339000049409EBC00003974288079B02920193B3
:1033A0000094324B254A26493748FDF7EFFD384651
:1033B000FFF7E8F8F8B12D4B264A21490190029415
:1033C00000943248FDF7E2FD2D4810F02EFE3846FD
:1033D0000FF034FC09EBC00000221F214088FEF7EB
:1033E00013FED6F8C0000FF0E7FC00233846C6F8FD
:1033F000C0300FF0E1FC143508F1FF3861E7B9F196
:10340000010F04D12869183801F094F8F3E7B9F1F5
:10341000020FF0D12869283801F0F0FCEBE70193A6
:10342000029400945B461A4A05491A48FDF7AEFD1E
:10343000E1E700BF994B0100AD5201009D5F010023
:10344000A45F01006E600100543B00208B6001000E
:10345000403B0020555F0100BE6001009E5201000C
:10346000E8600100683A0020066101009552010001
:10347000286101002C3B00205161010076610100B0
:10348000103B0020A1610100CC610100CE5501007C
:10349000DF5F01000B6201007C0200202DE9F04F8C
:1034A00097B0044610F0B2FDAD4EA389039301908E
:1034B000049602940096AB4BAB4AAC49AC48FDF77E
:1034C00065FD277D012F35465BD0032F40F020841A
:1034D000A7687D8810F09AFDA34A0190A54BA349E7
:1034E000039602940096A448FDF750FD3B881F0BFD
:1034F000C3F30B03E382FF236375042104F1080087
:103500000FF0ABFC10F082FDE38A02930190994B1F
:103510000596049703950096934A94499748FDF7BA
:1035200035FDA3899D420DD0019303960295009627
:10353000904B934A8D499348FDF728FD20460FF0A4
:103540003BFC1AE0E08A01F023FA054650B9E38A11
:1035500001938B4A874B85498B4802960096FDF76D
:1035600015FDEBE701F0BAFC3A46607521462846A6
:1035700000F020FF284601F079FA002017B0BDE8DE
:10358000F08FD4F8088010F041FD039698F80030D1
:10359000029301907D4B0096734A74497C48FDF775
:1035A000F5FC98F80030132B00F2C1839F4017F40C
:1035B0000C2F00F0BC8301960096744B704A6B4947
:1035C0007448FDF7E3FC404080F311884FF004009D
:1035D00002DFA768B7F8019010F018FD0595FB7899
:1035E0000493CDF80C903B780293019000956A4BC0
:1035F0005D4A5E496948FDF7C9FC97F80080B8F15B
:10360000000F9BD1484601F0C3F90646C0B90295A8
:103610008DE82002604B5A4A54496148FDF7B6FCD8
:1036200007216048FEF766FD002887D006215D4827
:10363000FEF760FD002881D10120FEF7CDFE7DE779
:10364000FB7803725849594810F0A0FE41463046B5
:1036500001F0C2F8B578A6F800800DB13046E7E079
:103660002946301DFEF746FD30B13046012101F0FC
:10367000B3F82846FFF74AF8304601F0F7F9CFE7EC
:10368000A66810F0C3FC0395337802930190484B71
:10369000354A364900954748FDF778FC0121384600
:1036A0000FF0DBFB3678731E0B2B00F22183DFE873
:1036B00013F00C002F028900C2001F03FB0057010A
:1036C000C201130287001F038901A66810F09EFC47
:1036D000371D8046384696F8009096F803A0FEF70E
:1036E00045FB214A059504908DE82007324B1F4980
:1036F0003248FDF74BFC33788DF83830B6F801309E
:10370000ADF83930F3788DF83B30B6F80B30ADF8C2
:103710004F30B6F80D30ADF85130B6F80F30ADF887
:103720005330737C8DF8553039460FA8FEF738FCBE
:10373000002506220AA90DF143000A95ADF82C5088
:10374000FEF768FA06220CA90DF149000C95ADF8B8
:103750003450FEF75FFA0EA8FFF750FCEEE600BF0C
:10376000994B0100EB5301009D5F0100A45F010034
:10377000CA5901003851010088550100ED59010076
:10378000555F01001C5A0100505A01008B52010084
:10379000825A01004A5D01005A510100A45A0100F9
:1037A000D75A0100D83A00200D5B0100651F0000C8
:1037B00079520100115B010084510100365B010068
:1037C000A068C9E7A668B6F8018010F01FFC049550
:1037D000CDF80C80337802930190AD4BAD4AAE49E1
:1037E0000095AE48FDF7D2FB404601F0D1F8074600
:1037F00038B98DE82001A64B0295A94AA649A948E7
:10380000ADE633789BB93279F37843EA0223A0F826
:103810005A30B279737943EA0223A0F86030F37921
:10382000327A43EA0223A0F8623000F087FD38467E
:1038300001F01CF982E6A768B7F80180404601F064
:10384000A7F8064620B902958DE82001964BD4E7EB
:103850003B7823B90822F91C6430FEF7DBF9934D5D
:1038600095F87920D2070CD596F86530DB0708D596
:103870003046FFF779FB20B98021301DFEF793FB1E
:10388000ECE695F878309F0640F1988096F8643021
:103890009D0640F193803046FFF786FB002840F0FC
:1038A0008D804FF48071E8E7A368D9789A781F88F3
:1038B00042EA0122ADF8382059791A7942EA012208
:1038C000ADF83A209A79D97942EA0122ADF83C2044
:1038D0001A7A5B7ABEB242EA03233046ADF83E3034
:1038E00001F056F8804668B902958DE86000704B8B
:1038F0006B4A69496B48FDF749FB02213046FFF7E7
:1039000077FC1BE60EA900F02DFD28B91E213046DC
:10391000FFF76EFC40468BE70E2142F22000FEF7D7
:10392000F7FB06460028F5D00E2108300FF076FA96
:103930000E2205460021FEF799F9BDF838306B805C
:10394000BDF83A30AB80BDF83C30EB80BDF83E307E
:103950002F802B81314642F22000FEF73DFED9E751
:10396000A368B3F800B05F88B3F80690B3F804809A
:10397000B3F808A0584601F00BF8064620B90295A6
:103980008DE820084B4B38E710F040FB494B019085
:10399000404A41490695CDF814A0CDF81090CDF8D5
:1039A0000C80029700954448FDF7F0FA6FF480719F
:1039B000301DFEF709FBC0057FF550AE3046FEF71F
:1039C00015FB4BE6A768B7F80180404600F0E0FF22
:1039D000064620B902958DE82001384B0DE710F01E
:1039E00015FB05953B790493FB7803933B78029391
:1039F00001900095314B274A27493148351DFDF785
:103A0000C5FA6FF080012846FEF7DEFA01067FF561
:103A100025AE264B93F878309A06CFD596F86430C9
:103A20009B06CBD53046FFF7BFFA0028C6D14FF42E
:103A30008071284622E7A66810F0E8FA03953378EB
:103A4000029301901F4B134A134900951E48FDF73E
:103A50009DFA6FF020011D48FEF7B6FA337843B99E
:103A6000711C40221A48FEF7D5F810211748FEF7BE
:103A70009AFA184B1D68771C002D3FF45FAD327821
:103A80002B68002A0CBF3846002098476D68F3E782
:103A9000F05101009D5F0100A45F0100605B010027
:103AA000555F01008A5B01009C510100683A0020CB
:103AB000DE510100B4510100BE5B0100C75101009D
:103AC000FA5B010008520100395C0100D83A00207D
:103AD00090020020D0020020A66810F097FA03950B
:103AE00033780095A04D02930190A04AA04BA149C4
:103AF000A148FDF74BFA2A68002A3FF41FAD33783E
:103B000023B9701C904700232B6017E50020F9E7CC
:103B100038460FF0AAF9804610F078FA0395019024
:103B2000CDF808800095954B904A92499448FDF74E
:103B30002DFAB8F1000F3FF401ADA668092138460F
:103B40000FF08BF9337A334406F1010993F909A098
:103B500010F05CFA83464846FEF708F90695CDF862
:103B600014A0337A0493337803930290834B8149F2
:103B70007E4A84488DE82008FDF708FA7378023BF6
:103B8000012B49460EA800F29D80FEF709FA9DF828
:103B90003830023B8DF83830DFF818B2DBF80030EF
:103BA000BBB138460FF071F9A3890993337AA38129
:103BB00008903B463278DBF800B051460EA8D84753
:103BC0002369BDF8202013FA82F3A360BDF82430E6
:103BD000A38109216C483278FEF78CFA83460028CD
:103BE00066D1012A64D801210EA800F01DFF82468B
:103BF00000285DD008216448FEF77CFA002864D1D3
:103C000002216148FEF776FA10B16048FEF788FBA2
:103C10005F490AF14B000AF1520BFEF7C1F9494620
:103C20005846FEF7BDF9192142F20D00FEF770FA71
:103C3000034600284ED01921083009930FF0EEF802
:103C4000192281460021FEF711F80022602189F82F
:103C5000001089F8012089F8021089F803205946DC
:103C600009F105000892FEF79BF99AF84B1089F8C4
:103C70000C10BAF85C10A9F80D10BAF85E10A9F88B
:103C80000F10BAF86010A9F81110099BBAF8621069
:103C9000A9F81310089A194642F20D00FEF796FA99
:103CA000C0B95046022100F097FD504600F0DEFEFC
:103CB000317A3846013108F1FF380FF0CEF85FFA5B
:103CC00088F836E7FEF76CF966E75846FEF7F2FA31
:103CD000002895D01F238AF808300021504600F0B4
:103CE0007BFD504600F0C2FE0020FEF70FFDDFE72F
:103CF000A789A0683946FDF7DDFF8DE8E000039055
:103D0000244B254A1B4925480495FDF73FF915E446
:103D1000234B244A174902968DE8C0002248FDF73C
:103D200035F920460FF048F86FF0150026E404F14D
:103D30000807022138460FF090F898F80060052E29
:103D40003FF447AC3E2E3FF49BACA789A0683946B0
:103D5000FDF7B0FF049503908DE8E000134B0E4A89
:103D600004491348D1E700BF8C0200209D5F010089
:103D700019520100A45F0100395C01006B5201007F
:103D80005B5C0100895C0100D83A0020693A0020A0
:103D9000683A002079520100DF5F0100BF5C01003A
:103DA000EB530100555F0100265D01008B520100BD
:103DB000F45C0100D80200202DE9F04F037D8768F4
:103DC000804C012B89B005460DD07F4B7F4A80493E
:103DD000804801940094FDF7D9F8404080F31188A1
:103DE0004FF0040002DF8289012A06D80194009472
:103DF000754B764A76497848EDE73A78132A00F20F
:103E0000D980934013F40C2F00F0D48000F1080601
:103E1000022130460FF021F83B780F2B2CD0132BCA
:103E200049D00E2B40F0BC80AB68B3F8017093F81A
:103E3000008010F0EBF8694B694A019064490394E3
:103E4000029700946748FDF7A1F8032130460FF070
:103E500004F8AB682A4619783846FEF7D5F8B8F169
:103E6000000F02D0604810F0E0F828460EF0A4FFE2
:103E7000002009B0BDE8F08FAF68B7F8028097F86E
:103E8000019010F0C3F8564A0190584B50490394E2
:103E9000CDF8088000945348FDF778F804213046A7
:103EA0000EF0DBFF2A4639784046FEF7ADF8B9F14F
:103EB000000FDAD0D6E7D5F808B0DFF8149110F08B
:103EC000A5F803949BF80030029301900094484BAE
:103ED000434A3F494748FDF759F84FF000089BF81F
:103EE00000309845C1DA0BEB8803B3F801A0B3F8B2
:103EF000037010F08BF8049401900397CDF808A09C
:103F000000943B4B364A3C484946FDF73FF84FF09A
:103F10002003EFF3118283F311885046079200F0DB
:103F200037FD064670B902948DE81004304B274ADD
:103F300032484946FDF72AF8079B83F3118808F1B8
:103F40000108CCE7079B83F3118800F1180AD7B169
:103F50004FF02003EFF3118083F31188316929B109
:103F600072690B683361914208BF736180F31188F5
:103F7000013FBFB259B9019400941D4B134A204828
:103F80004946FDF703F8304600F070FDD7E750468C
:103F90000FF086FD304600F0CDF910F046F8D6E778
:103FA00028460EF009FF01940094074B074A084980
:103FB000144810E701940094034B044A0449124842
:103FC00009E700BF994B0100F3530100555F010061
:103FD000A45F0100895D0100CD5D01004B5201002D
:103FE0009D5F0100075E0100103B00205C52010054
:103FF000405101002A5E01004E5E0100765E010024
:10400000A25E0100C95E0100EC5E010030B5134BF9
:10401000D3F8D44085B00546CCB9C268D2B10269A4
:10402000C2B1C3F8D4000FF0F1FF0D4A2B68039220
:10403000002B08BF1346029301900092094B0A4AD5
:104040000A490B48FCF7A2FF204605B030BD6FF0CF
:104050004400FAE76FF01500F7E700BF683A002068
:10406000994B0100005401009D5F0100A45F010015
:104070006256010070B52A4DD5F8D43086B0064698
:104080006BB9284B01930093274A284B28492948AC
:10409000FCF77CFF6FF01204204606B070BD0121D2
:1040A00005F17000FDF77FFF10F0010034D1224BC5
:1040B00022491E606FF0080305900490039302905C
:1040C000019000901E4B1F484FF46B7210F0AAF93C
:1040D000D5F8D430DB689847044650B1114B0293B1
:1040E0008DE81800104A114B11491748FCF74EFF94
:1040F000D2E726B906B0BDE87040FEF739BB012112
:1041000005F16C00FDF74FFFC307C5D405F164014D
:104110000E480FF0C5FCBFE76FF04404BCE700BFDA
:10412000683A0020994B0100555F010017540100C7
:10413000A45F010003550100D4020020101A0020E2
:1041400025320000DC0200202C55010090190020CF
:104150000020704770B50378012B05460E4610D835
:104160004378012B0DD841880B1F9BB243F6FC709E
:10417000834206D8AA88131F9BB2834201D891427A
:104180002BD26FF015040EE008211948FDF7B2FF9D
:1041900058B11046FEF78EF8044630B16FF4007146
:1041A0001348FDF711FF204670BD6B787BB14FF4CB
:1041B00000610F48FDF7F7FEAA8869882878FEF7A6
:1041C00055FA04460028E9D10A4B1E60EBE76FF46C
:1041D00000610748FDF7F8FEEEE74FF40071044870
:1041E000FDF7E1FE10F40072CED06FF04404DAE780
:1041F000D83A0020D802002008B56FF400710748B3
:10420000FDF7E2FE830506D5054B00201860BDE8EA
:104210000840FEF77BBA6FF0440008BDD83A002092
:10422000D802002038B5054605480EF095FD044635
:1042300020B1002108300EF0AEFD2575204638BDB6
:10424000943F00207FB506464FF02003EFF3118224
:1042500083F31188134B0025D3F8C040C3F8C05036
:1042600082F311880FF0D2FE0F4B0393019000935D
:1042700002940E4B0E4A0F490F48FCF787FE34B9E3
:104280003146012004B0BDE87040FFF7CBBF0123E9
:1042900004F108002375A58129460EF07CFD204617
:1042A00004B070BD683A0020994B01002154010010
:1042B0009D5F0100A45F01003954010038B5064B31
:1042C0001C68054604B938BD236813B1297A28460D
:1042D00098472469F6E700BF4C030020BFF35B8FCB
:1042E0000068BFF35B8F7047438910B504462BB15C
:1042F000C0680EF061FD0023E360638110BDBFF371
:104300005B8F50E8003F5A1E40E800210029F8D199
:10431000BFF35B8F18467047BFF35B8F50E8003FD9
:104320005A1C40E800210029F8D1BFF35B8F1846E2
:104330007047000000487047F43A0020084B70B501
:104340001C68054604B970BDE6683EB1B5F8623038
:10435000B5F86020B5F85A102846B0472469F1E74F
:104360004C030020F8B5074608460E46FEF75EF8F7
:10437000054610B900252846F8BD094B1C68002CDD
:10438000F9D0A3680BB92469F9E731463846984754
:104390000028EFD03046FEF749F80028F3D1E9E7CE
:1043A0004C030020024B1A6802611860704700BF7E
:1043B0004C030020012A7FB504460D461BD0022A7B
:1043C0006BD18B681E8843895BB13D4B0193009391
:1043D0003C4A3D4B3D493E48FCF7D8FD2046FFF79F
:1043E00083FFAB89F31A04339BB26381002B42D065
:1043F000E56004B070BD43898BB9314B01930093E4
:10440000304A314B31493348FCF7C0FD2046FFF7B5
:104410006BFF284604B0BDE870400EF0CDBC8E891D
:10442000B34207D2264B01930093264A264B2749D5
:104430002948E9E7C06808300EF02BFD864207D90D
:104440001F4B019300931F4A1F4B20492348DBE772
:10445000E068AA89A96808300EF0E6FC6389AA8999
:104460009B1A638128460EF0A7FC6389002BC0D1FC
:10447000E5686381E360AB68A9891A88131D8B42E4
:1044800016D00F4B03930291019200930D4A0E4BED
:104490000E491348FCF77AFDBBE7094B02930192E2
:1044A0000093084A084B09490E48FCF76FFDADE739
:1044B0002946204604B0BDE8704000F053BF00BF5D
:1044C000994B0100555F0100E4630100A45F010006
:1044D000306401005D6401008B640100AF64010081
:1044E00014650100E6640100437A032B13B50C4602
:1044F0000FD00B4B019300930A4A0B4B0B490C480E
:10450000FCF744FD20460EF057FC6FF0380002B077
:1045100010BD28304A610EF042FC0020F7E700BFD2
:10452000994B0100555F0100F1630100A45F010098
:10453000406501002DE9F0410D4D064600F11807D8
:104540004FF00008002138460FF0CEFA044608B9B3
:10455000BDE8F08163680BB1304698472B68236053
:104560006B68C4F804802C60002BEBD16C60E7E72B
:10457000F80300202DE9FF4105460F4644484FF05F
:10458000FF31984614460FF078FD424B03F140008E
:10459000FFF7A4FE30B15A7A033A012A02D818462E
:1045A000FFF7C8FF6B7A032B53D1042107F10800F2
:1045B0000EF04BFC2A88384E42EA04320280BB8956
:1045C000346871687A69043B438002233B75236831
:1045D00033608C4208BF736062604FF02003EFF3DA
:1045E000118283F31188002323606B69002B3FD174
:1045F0006C612C6182F311883846FDF7C3FF0028F7
:1046000042D0264B029301900093254A254B264920
:104610002648FCF7BBFC4FF02003EFF3118183F336
:1046200011882B69002253B19C422AD1236812BB06
:104630006A692B61944200D16B610023236081F38E
:10464000118800236360336823607368346003B9A2
:1046500074600F480FF0E9FCB8F1000F04D0384641
:104660000EF0AAFB4FF00008404604B0BDE8F08110
:104670001C606C61BEE713606B699C4208BF6A6195
:10468000DBE71A461B68CEE74FF00108ECE700BFF6
:10469000F43A002060030020F8030020994B010049
:1046A000555F010001640100A45F0100CE550100C7
:1046B00038B5044600F12805002128460EF052FBCB
:1046C00058B92046FFF736FF2046FFF70DFE04F1EC
:1046D0004000BDE83840FFF712BE0EF06DFBEBE77F
:1046E00038B51F4B002201219A60054610F0CBF827
:1046F0001C4B03F14000FFF7F1FD194608B90120FA
:1047000038BD5A7A9AB9BFF35B8F1A1D52E8000F71
:1047100020F0400442E8004EBEF1000FF6D1BFF396
:104720005B8F420603D51846FFF7C2FFE7E74C7AD6
:10473000032CE4D105F114000B4B0022042110F0EE
:10474000A2F8012385F8203005F12800074B00224C
:10475000042110F098F8022385F83430204638BD43
:10476000903B002060030020780300208803002095
:10477000F8B5174C04F1400607463046FFF7AEFD8A
:10478000054608B10020F8BD014698222046FDF7F5
:104790006DFABFF35B8F012356E8002F46E8003126
:1047A0000029F9D1BFF35B8F0722394604F1440099
:1047B000FDF730FA1823A4F85C30282304F17000C8
:1047C000A570A4F85E3003490FF016FF2046F8BD2F
:1047D00060030020254D0000F0B5457A8D4285B07C
:1047E00004460E460AD15F4B019300935E4A5F4B2D
:1047F0005F496048FCF7CAFB05B0F0BD61729DB12E
:10480000022D15D0637A042B00F2A18001A252F888
:1048100023F000BF75480000F9470000334900004D
:104820003F480000F94700004030FFF775FDE9E719
:104830008378002BE6D170300FF0EEFEE2E7A3782C
:10484000022BD9D004F128000FF022F904F118004E
:104850000FF01EF90021484810F0B8F80023204658
:10486000A363E36300F01CFC204605B0BDE8F04004
:10487000FFF724BDA378022B06D104F1400005B058
:10488000BDE8F040FFF73BBDEB1E012B44D82046AE
:1048900000F040FC394B1D68EDB9394E394F4FF0EF
:1048A0002003EFF3118183F3118823692BB1606931
:1048B0001A682261834208BF626181F311888BB15B
:1048C00032681A6072685D60336002B9736038469E
:1048D0000FF0ABFBE3E76B6813B1217A20469847F2
:1048E0002D69D9E7A3781BB904F170000FF094FE8D
:1048F000BFF35B8F043454E8003F43F0400344E8C7
:104900000032002AF7D1BFF35B8F1B48002105B0AE
:10491000BDE8F04010F05AB8022D03D12046FFF751
:10492000CDFCAAE7012D7FF467AF237A002BA4D03A
:10493000F4E7A378002B7FF45FAF134840F6B8325A
:1049400004F1700105B0BDE8F0400FF0C9BE054BA1
:1049500002938DE84800044A044B05490B48FCF7D4
:1049600015FB49E7994B0100DF5F01001E64010060
:10497000A45F01005F650100903B00204C03002014
:10498000F8030020F43A0020901900207D65010012
:1049900010B50B4C024604F14000FFF79FFC68B1D4
:1049A000637A033B012B08D82388934205D104F195
:1049B0004000FFF7B1FC204610BD002010BD00BF35
:1049C0006003002038B50D46044600F1440107227B
:1049D0002846FDF70AF960B1E378072233B904F1FC
:1049E00052012846BDE83840FDF7FFB804F14B01FD
:1049F000F7E738BD10B50B4C014604F14000FFF756
:104A00006DFC08B9002010BDA378002BFAD1204618
:104A1000FFF7D8FF0028F5D104F14000FFF77CFC38
:104A2000204610BD6003002038B50E4C034604F14B
:104A300040000D46FFF752FC08B9002038BDA278AF
:104A4000002AFAD13BB9637AAB42F6D10648FFF7A8
:104A500063FC044838BD19462046FFF7B3FF002821
:104A6000EBD1F0E760030020A00300204030FFF707
:104A700046BC44307047000070B5064608460D46F7
:104A8000FDF7D4FC08B900241DE01E48FFF726FC02
:104A90008305F8D43046FFF7ADFF0446A8B1437A4A
:104AA000012B07D001D3032B0DD904F14000FFF7F0
:104AB00026FCE8E76B88A0F85E30AB88A0F8603091
:104AC000EB88A0F86230204670BD3046FFF750FEFC
:104AD00004460028F7D0072231465230FDF79AF8F5
:104AE0006B88A4F85E30AB88A4F86030EB88A4F83B
:104AF000623020460121FFF76FFE0120FDF706FE20
:104B0000E1E700BFD83A002070B506460D460029FF
:104B10003DD13046FFF76EFF044628B93046FFF717
:104B200027FE0446002853D0231D04F14006002D23
:104B300035D06A88A4F85E20AA88A4F86020EA88A4
:104B4000A4F86220BFF35B8F53E8002F42F001010D
:104B500043E800100028F7D1BFF35B8FD10702D4E0
:104B60003046FFF7D9FB637A63B91B48FFF7B6FB02
:104B7000830707D51DB101212046FFF72DFE002038
:104B8000FDF7C4FD3046FFF7BAFB002070BD0846B4
:104B9000FDF74CFC0028BCD16FF0150070BDBFF3D1
:104BA0005B8F53E8002F22F0010143E8001000283A
:104BB000F7D1BFF35B8FD207D5D53046FFF79FFB08
:104BC000637A012BCFD129462046FFF705FECAE7BD
:104BD0006FF00B0070BD00BFD83A002070B50E46D4
:104BE0008178044611B94430FFF78EFF637A013BA8
:104BF000032B03D8DFE803F006101B0E6FF0380517
:104C0000284670BD204626720021FFF7E5FD0020F2
:104C1000FDF77CFD0025F3E704F170000FF0FCFCCC
:104C2000002142F20E00BDE87040FDF7D5BC032123
:104C300040F20640FDF76CFA054698B103210830B2
:104C40000EF0ECF8238803808670294640F2064077
:104C5000FDF7C2FC05460028D2D104212046FFF70B
:104C6000BBFDCDE76FF03605CAE7F8B507460D4640
:104C700042F213000E21FDF74BFA0646C8B10E2191
:104C800008300EF0CBF8002104460E22FCF7EEFFB0
:104C90003B8823802B8863806B88A380AB88E3806C
:104CA000EB882381314642F21300BDE8F840FDF75E
:104CB00093BC6FF03600F8BD38B50A88B0F85A30AA
:104CC0009A4204460D460CD84A889A4209D3B0F855
:104CD00060208B889A4204D1B0F86220CB889A4237
:104CE0001AD004F170000FF097FC0D4B93F8783058
:104CF0009A0703D594F864309B0701D4E3782BB965
:104D000029462046BDE83840FFF7AFBF2946204678
:104D1000BDE8384000F066BB6FF0440038BD00BF0E
:104D2000683A0020034607B513F8672C022AA0F161
:104D3000700005D11321FFF751FF03B05DF804FBAC
:104D400033F8142CADF8002033F8122CADF8022003
:104D5000694633F8102C33F80E3CADF80420ADF85A
:104D60000630FFF7A9FFE8E738B5084B0D460028E5
:104D700008BF18464FF0FF310DF0EEFF291D044625
:104D800008300EF008F8204638BD00BF343F002040
:104D90002DE9F04106460C4616480021FFF7E4FFD6
:104DA0003378032B05464FF0000605D00EF004F8CB
:104DB00035462846BDE8F081466100F108070E4EF1
:104DC0003846B6F888800EF064F880450CD2B6F804
:104DD000886054F8081F324638460EF025F83146F0
:104DE00020460EF03AF8E4E738460EF052F886B264
:104DF000EFE700BF543F0020683A0020437AF7B540
:104E000005469BB9BFF35B8F031D53E8002F22F0CB
:104E1000400143E80014002CF7D1BFF35B8F530629
:104E200004D503B0BDE8F040FFF742BC002105F116
:104E300028000DF097FF044670B9224B01930093B0
:104E4000214A224B22492348FCF7A0F8404080F336
:104E500011884FF0040002DF1F4E8189B6F88820C8
:104E6000914208D800231A4621462846FFF782FBC4
:104E700048B103B0F0BD05F1090701463846FFF718
:104E800087FF014628B9204603B0BDE8F0400DF089
:104E900093BF012300222846FFF76CFB0028F2D0C5
:104EA000A289B6F888309A4202D800230122DBE7B3
:104EB00021463846FFF76CFF01460028E3D0012366
:104EC0001A46E8E7994B0100555F01000B640100A9
:104ED000A45F010051610100683A0020034BC01A31
:104EE000034BC0105843C0B2704700BF600300209E
:104EF0001BCA6B28124B134A196810B51160596808
:104F000001B95A60596892600F4A1A6001B95A6033
:104F100001F056FB02F082F8044670B900F08AFAFC
:104F20000A48FFF7DBF940B10948FFF7D7F9C30793
:104F300003D501210748FFF74FFC204610BD00BFF5
:104F4000F80300205003002058030020A003002095
:104F50006403002060030020704700001FB50B4A67
:104F6000136833B90A4850600A60184605B05DF806
:104F700004FB084B029301900093074A074B084932
:104F80000848FCF703F86FF00B00EFE7000400207F
:104F9000AC3B0020994B0100555F010022660100E7
:104FA000A45F010091660100F8B507460E46002097
:104FB00004211546FFF7D8FE0421044608300DF001
:104FC0002DFF0770467045802046F8BD70470000F1
:104FD00000238360054B596800F1080211B95A603B
:104FE0001A6070470A605A60704700BF980400203A
:104FF000836B10B513B1083B002203B910BD8B427F
:1050000003F108040FD199683AB9C26B81639442E5
:1050100000D1C16300229A6010BD1160C16B8C4247
:1050200008BFC263F6E72246002CE7D09B68002B3E
:10503000E4D0083BE1E7036810B504462BB14368B0
:105040005B6803B1984700232360E3681BB12046E7
:10505000BDE81040184710BD30B50C4B0C4A0D4947
:1050600085B0A0F11004054602938DE818000A48A7
:105070000A4BFBF78BFF55F8100C2146FFF7B8FFE2
:10508000204605B0BDE83040FFF7D5BF994B010081
:10509000555F0100A45F0100E5670100CC650100D8
:1050A0001A4B2DE9F7431C6806462CB10027DFF8A0
:1050B0006080083CB94614B903B0BDE8F08363686A
:1050C00001A930469847002818DB019D23882B87CB
:1050D000A5F85830414605F110000FF08DFAAF6089
:1050E000F26B05F1080372B9F363B36301982E60A4
:1050F0004368C5F80C901B6803B19847A468002C5E
:10510000DAD0083CD7E71360F363EFE79804002098
:1051100059500000836B10B5A3B1B3F108000AD158
:1051200010BD083CFFF787FF64B1A36803B1083BDB
:1051300020461C46F6E71C68002CF2D1BDE8104062
:10514000FFF779BF10BD0431FFF70EBEF8B5144666
:1051500005460F4602F1080004211E460DF075FEBB
:10516000A189478004390180324621462846BDE89E
:10517000F840FFF7B9B90000F0B58B89032B87B071
:1051800007460D4609D85A4B01930093594A5A4B8A
:105190005A495B48FBF7FAFE14E00846042150F830
:1051A000084F66880DF059FEAA8996420CD0504BE4
:1051B00003930192009302964F4B4E4A4F49514838
:1051C000FBF7E4FE07B0F0BD617839B9484B0193B5
:1051D0000093484A484B49494B48DBE72378122B58
:1051E00029D0132B1DD0012BECD0414A02928DE81F
:1051F0000C004249404B454A4548FBF7C7FE022296
:1052000061783D680120FFF7CFFE02210446083097
:105210000DF004FE0023037043702246052128464A
:1052200025E0012ECED8324B01930093314A394B01
:1052300032493948AEE7072E07D82D4B019300932A
:105240002C4A364B2D493648A4E73C68E6788EB1A7
:1052500002220120FFF7A8FE0221054608300DF0CA
:10526000DDFD0023037043702A4605212046FFF729
:105270006DFFA7E7AB6858781A7842EA0022ADF8CC
:105280001020D8789A7842EA0022ADF81220587996
:105290001A7942EA0022ADF814209A79DB791320BA
:1052A00042EA03230222ADF81630FFF77DFE04A97F
:1052B00007462046FFF756F80221054607F1080089
:1052C0000DF0ACFD7DB10670467000233A46052115
:1052D0002046FFF73BFF002D3FF474AF04A92046A2
:1052E000FFF7C3FC6EE7012303704570EDE700BFD5
:1052F000994B0100555F010009660100A45F0100A0
:10530000C8660100F666010027670100DF5F010043
:10531000B7670100DE65010058670100F065010014
:1053200084670100806B00B1083800B97047B0F89D
:1053300058308B42FAD083680020002BF6D0A3F1BE
:105340000800F2E7806B00B1083800B97047038F9E
:105350008B42FBD083680020002BF7D0A3F108001C
:10536000F3E700007FB58B89032B06460C460ED869
:10537000154B01930093154A154B16491648FBF738
:1053800005FE204604B0BDE870400DF015BD08468E
:10539000042150F8083F5D880DF05FFD2946304636
:1053A000FFF7D0FF50B9084B02938DE828000B4A55
:1053B000074B08490A48FBF7E9FDE2E74368214645
:1053C0001B699847DDE700BF994B0100555F01005D
:1053D00014660100A45F01002F660100DF5F010079
:1053E0005C66010070B5124B1A78013212F0FF02B0
:1053F00008BF01221A700C460546197808221220AF
:10540000FFF7D2FD0821064608440DF007FD23886A
:10541000038063884380A3888380E388C380324607
:10542000284600230521FFF791FE002070BD00BF34
:10543000940400200148FFF7CBBD00BFA03B002033
:105440000620704710B50A4A002312F83340844200
:105450004FEAC30102D10A44907810BD01331B2BDF
:10546000F3D110F0400F14BF0020062010BD00BF84
:10547000DC6A01007FB5114D2C680E4684B9E42228
:1054800021462846FCF7F2FB02220D4B6B6005F12A
:10549000CC0011460EF0C0FD3560204604B070BD52
:1054A000084B029301900093074A084B08490948AA
:1054B000FBF76CFD6FF00B00F0E700BFA0040020CD
:1054C000CC3B0020994B0100555F0100846801002E
:1054D000A45F01009469010010B50446006908B199
:1054E0000DF06AFCA3680BB12046984720461422B1
:1054F0000021BDE81040FCF7B9BB08B501F1080078
:105500000DF0BBFC002008BD2DE9FF410D680646EB
:105510000C464FF000084FF4205302A900682F6892
:105520008DF80880ADF80A30FCF7F2FC98B142F62D
:10553000010303A930688DF80C80ADF80E30FCF73C
:10554000E7FC40B1236923B1328A5988914200D2E5
:105550005A80012012E061683068FCF7D9FC10B174
:1055600000232361F5E7E368A0681A784AB1B5F82B
:105570005A3081895B1A934203DA002004B0BDE8F7
:10558000F081042108300DF049FC338AA1682061C4
:10559000038043808A89B5F85A308968D6F8048038
:1055A0009B1A00250A44009531469BB23846C047F5
:1055B000011EE2DBE06802780B1D2AB90370A068C7
:1055C00008300DF02BFCC4E79A42F8D0A26893890A
:1055D000043B9381D1E78B6870B505460C460E6895
:1055E00063B94868012108300DF018FC2B68A060F1
:1055F0001B78002B0CBF012302230370A3681B78C8
:10560000012B03D0022B1AD0002070BD2B681B7811
:10561000002BF9D16068042108300DF0FFFBE06039
:105620002B8A03802B685B8843806368B6F85A0036
:105630009B89C01A042894BF0020012070BD2B68EC
:105640001B78022BE0D16068122108300DF0E6FBD8
:10565000E06029682B8A20F8023B10220131FCF718
:10566000D9FA6368B6F85A009B89C01A1228E2E793
:105670002DE9F0410E6888B005460C46002742F639
:10568000010302A90068D6F800808DF80870ADF813
:105690000A30FCF73DFC28B90023A360012008B0C4
:1056A000BDE8F0814FF4205303A928688DF80C70F1
:1056B000ADF80E30FCF72CFC40B1A368002BEDD008
:1056C0002A8A59889142E9D25A80E7E76268B6F897
:1056D0005A3092899B1A032BE1D9102300900DEBCD
:1056E00003026E6829464046B047021ED4DB237C85
:1056F0009A42D1D104A9E068FCF777FA0028CBD10F
:1057000060746068042108300DF088FB2B8AA0606B
:1057100003804380C2E7000010B517230446A0F8B9
:105720005A3043870649A4300EF066FF0023C4F8C0
:105730009C30C4F8A0302068BDE8104001F000BCE7
:10574000655C000011F0010F837C04D013F0150F8D
:1057500012D0426882B18A0704D513F02A0F0DD007
:1057600082685AB1194011F0300F09D111F00C0FB5
:1057700014BF0F200020704702207047032070479D
:10578000052070472DE9F7430F6806460C46006870
:105790004968D7F80090FCF7BBFB804600284DD144
:1057A00015213046FFF7CEFF0546207548B1E36866
:1057B0001D7815B184F814804546284603B0BDE82D
:1057C000F083A068022108300DF028FB338AA1681D
:1057D000206103808A89B7F85A308968D6F8048036
:1057E00000959B1A9BB20A4448463146C047011EA9
:1057F00008DA01F1FF03FE2B9ABF4942C9B20E211C
:105800002175DAE7E06802788B1C82B90370A06822
:1058100008300DF003FBA368B7F85A509B89ED1AC6
:10582000E3681B789D42D4BF00250125C5E79A4255
:10583000EDD0A2689389023B9381BEE70125BCE7C6
:1058400010B58A89022A044603D0102A0AD0002003
:1058500010BD0023037001F108000DF00EFB608005
:10586000012010BD022300F8013B8968FCF7D2F942
:10587000F6E7000010B50421FFF754FD0446CC30D4
:105880000EF0D3FBD4F8983043B104F1A40147F2F1
:1058900030520348BDE810400EF022BF10BD00BFDB
:1058A0009019002003685B7A032B0AD1BFF35B8F4A
:1058B000D0F89400BFF35B8F6FEAA00000F0010006
:1058C0007047012070470620704708B50421FFF794
:1058D00029FDBDE80840CC300EF0A7BB08B5042177
:1058E000FFF720FDBFF35B8F00F1940353E8002F17
:1058F00022F0010243E800210029F7D1BFF35B8FBA
:10590000CC30BDE808400EF090BB08B50421FFF78D
:1059100009FDBFF35B8F00F1940353E8002F22F0E1
:10592000020243E800210029F7D1BFF35B8FCC309E
:10593000BDE808400EF079BB437A032B13B50BD0BA
:10594000154B01930093154A154B16491648FBF762
:105950001DFB002002B010BD0421FFF7F3FC04463C
:1059600050B90D4B01930093104A0D4B0D4910484F
:10597000FBF70CFB2046EDE7BFF35B8FD0F89430CC
:10598000BFF35B8F5B07F5D5034B01930093034A8D
:10599000034B04490748DAE7994B0100DF5F010038
:1059A00059680100A45F010092680100555F010081
:1059B000B0680100DB6801002DE9F3410C46D1F825
:1059C00000802A210646FFF7BDFE05462075E0B996
:1059D000628A01900092237CB768E26831464046B3
:1059E000B847002802DB237C98420BD000F1FF036C
:1059F000FE2B9ABF4042C0B20E202075284602B04E
:105A0000BDE8F08125750125F8E70025F6E70000DF
:105A100073B5054600F1CC06C5F898100C46304623
:105A20004FF0FF310EF029FB2846FFF73BFF78B916
:105A3000184B01930093184A184B19491948FBF762
:105A4000A5FA30460EF0F1FA6FF0380002B070BDE2
:105A5000266906F108000DF018FAB389A081E381E8
:105A600020692D680DF0D6F923699B6806461878E1
:105A7000FFF7E8FC0138C0B2042896BF0A4B0B4B75
:105A800053F82030324628460421FFF75FFB002000
:105A9000DCE700BF994B0100DF5F01001C680100DB
:105AA000A45F01003669010008680100CB580000BE
:105AB0002DE9F7430446A4301E460F4690460EF0EB
:105AC000ABFDD4F89830DBB91C4B019300931C4A12
:105AD0001C4B1D491D48FBF759FAD4F89C1059B1CD
