:10000000E02C0020B51C0000091D0000251B00008D
:10001000251B0000251B0000251B0000251B0000E0
:10002000251B0000251B0000251B0000B516000045
:10003000251B0000251B000071160000251B000079
:10004000791C00001B200100791C0000791C0000B5
:10005000791C0000791C0000791C0000791C00004C
:10006000791C0000791C0000791C0000791C00003C
:10007000791C0000791C0000791C0000791C00002C
:10008000791C0000791C0000791C0000791C00001C
:10009000791C0000791C0000791C0000791C00000C
:1000A000791C0000791C0000791C0000791C0000FC
:1000B000791C0000791C0000791C0000791C0000EC
:1000C000791C0000791C0000791C0000791C0000DC
:1000D000791C0000791C0000791C00000000000061
:1000E0002912000000000000511A0000000000006A
:1000F000511A000000000000511A0000000000002A
:10010000511A000000000000511A00000000000019
:10011000D941010000000000511A00000000000059
:10012000511A000000000000511A000000000000F9
:10013000511A000000000000E11F01000000000053
:10014000511A0000B03E00202544010000000000CC
:10015000511A000000000000511A000000000000C9
:10016000511A000000000000D5140000000000003B
:10017000511A000000000000511A000000000000A9
:10018000511A000000000000511A00000000000099
:10019000511A000000000000511A00000000000089
:1001A0001520010000000000511A000000000000AE
:1001B000511A000000000000511A00000000000069
:1001C000511A000000000000511A00000000000059
:1001D000511A000000000000511A00000000000049
:1001E000511A000000000000511A00000000000039
:1001F000511A000000000000511A00000000000029
:10020000511A000000000000511A00000000000018
:10021000511A000053B94AB9002908BF00281CBF71
:100220004FF0FF314FF0FF3000F08EB9ADF1080C08
:100230006DE904CE00F01AF8DDF804E0DDE90223F0
:1002400004B07047430803F05533C01A830803F025
:10025000333300F03330184400EB101000F00F304F
:1002600000EB002000EB0040000E70472DE9F04746
:100270008C460D460446089E002B51D18A421746F3
:100280006DD9B2FA82FEBEF1000F0BD0CEF1200C78
:1002900001FA0EF520FA0CFC02FA0EF74CEA050CF6
:1002A00000FA0EF44FEA174A250CBCFBFAF81FFAC5
:1002B00087F90AFB18CC45EA0C4508FB09F3AB4269
:1002C0000AD9ED1908F1FF3280F02381AB4240F2E8
:1002D0002081A8F102083D44ED1AA4B2B5FBFAF062
:1002E0000AFB105544EA054400FB09F9A14509D968
:1002F000E41900F1FF3380F00A81A14540F2078143
:1003000002383C44A4EB090440EA08400021002ED6
:1003100061D024FA0EF4002334607360BDE8F087E6
:100320008B4207D9002E54D0002186E821000846D0
:10033000BDE8F087B3FA83F1002940F08E80AB422C
:1003400002D3824200F2FA80841A65EB0305012091
:10035000AC46002E3FD086E81010BDE8F08712B9F9
:100360000127B7FBF2F7B7FA87FEBEF1000F34D1D1
:10037000EB1B3A0C1FFA87FC0121B3FBF2F8250CAA
:1003800002FB183345EA03450CFB08F3AB4207D9DF
:10039000ED1908F1FF3002D2AB4200F2D180804665
:1003A000ED1AA3B2B5FBF2F002FB105543EA054487
:1003B0000CFB00FCA44507D9E41900F1FF3302D27D
:1003C000A44500F2B8801846A4EB0C0440EA0840AB
:1003D0009DE731463046BDE8F087CEF1200405FAAE
:1003E0000EF307FA0EF720FA04F83A0C25FA04F493
:1003F00048EA0308B4FBF2F14FEA184502FB114446
:100400001FFA87FC45EA044501FB0CF3AB4200FAF6
:100410000EF409D9ED1901F1FF3080F08A80AB426A
:1004200040F2878002393D44EB1A1FFA88F5B3FB8E
:10043000F2F002FB103345EA034500FB0CF3AB423C
:1004400007D9ED1900F1FF386FD2AB426DD90238F0
:100450003D44EB1A40EA01418FE7C1F1200722FA3F
:1004600007F88B4005FA01F448EA030320FA07FE77
:100470004FEA134CFD404EEA040EB5FBFCF94FEA7F
:100480001E440CFB19551FFA83F844EA054509FB85
:1004900008F4AC4202FA01F200FA01FA08D9ED18A8
:1004A00009F1FF3043D2AC4241D9A9F102091D4400
:1004B0002D1B1FFA8EFEB5FBFCF00CFB10554EEA0F
:1004C000054400FB08F8A04507D9E41800F1FF3502
:1004D00029D2A04527D902381C4440EA0940A4EBA0
:1004E0000804A0FB02894C45C6464D4615D312D0E0
:1004F00056B1BAEB0E0364EB050404FA07F7CB40E0
:100500001F43CC40376074600021BDE8F087184677
:10051000F8E69046E0E6C245EAD2B8EB020E69EB97
:1005200003050138E4E72846D7E7404691E78146CE
:10053000BEE7014678E702383C4445E7084608E74D
:10054000A8F102083D442BE7704700BF70B503785F
:100550008AB004460E4607AD032B20D8DFE803F02F
:1005600002191B1D1149284601F04EFC62780492C5
:10057000A2780392E2780292227901926279009243
:10058000A37905950A4A1B21304600F00DFD0AB0FB
:1005900070BD0849E7E70849E5E70849E3E7084A85
:1005A0000A21284600F000FDE0E700BFFD5F0100E2
:1005B00026600100046001000B600100156001006D
:1005C0001F60010030B589B00D46044604F00CFEF2
:1005D00001A9FFF7BBFF35B12A4601A9084800F081
:1005E000D5FC09B030BD074B1B689C42F9D101A96D
:1005F000054800F0CBFC1321204604F0A5FEF0E7EF
:1006000049600100000000206760010030B5134C14
:10061000236883428BB00D461DD104F0E5FD03A98C
:10062000FFF794FF2A4603A90D4800F0AFFC2068AD
:1006300004F0FCFB002323600A4B0B49186801906F
:100640009B88ADF8083001A803F07EFF014610B189
:10065000064800F09BFC0BB030BD00BF000000203E
:1006600092600100A05F010071060000B06001000F
:1006700070B5104C23688AB006460D46C3B9012AEE
:1006800016D803A9FFF762FF2A4603A90A4800F01B
:100690007DFC46350CDB03F0A9FF48B9074A10681A
:1006A000516801AB03C301A9304604F09FFD2060EF
:1006B0000AB070BD0000002076600100A65F010056
:1006C00007B5002003F0CCFE014628B10E4800F02B
:1006D0005DFC03B05DF804FB0C4800F057FC0C48CF
:1006E00004F05CF80B4B0C49186800909B88ADF83F
:1006F0000430684603F028FF014608B10748E6E7E2
:10070000074800F043FCE4E7D3600100F360010018
:10071000203A0020AE5F010071060000B0600100C9
:100720000A6101000C4B1B78062B12D10B4B186889
:1007300010F00F000DD104331B6803F0F003302BD1
:1007400008D1074B1B6813F0F00F0CBF01200020ED
:1007500070470020704700BFE00F00F0E40F00F08A
:10076000EC0F00F008B54FF02003EFF3118183F395
:100770001188FFF7D7FF20B13D4AD36823F080737B
:10078000D360FFF7CFFF10B13A4B03221A60FFF797
:10079000C9FF30B14FF080430022C3F80C21C3F8E9
:1007A0001021354B1B78062B17D1344B1B681807CB
:1007B00013D1334B1B6803F0F002302A03D003F04F
:1007C000E003402B09D14FF08043D3F80024D20737
:1007D00003D56FF00102C3F800244FF01022D2F8C5
:1007E0000032002B274B03DBD2F80022002A2FDA3D
:1007F0000122C3F80425D3F80024002AFBD04FF0CF
:1008000010231522C3F800221E4A1346D2F8001402
:100810000029FBD04FF010221521C2F80412D3F8A2
:100820000024002AFBD00022C3F80425154AD2F880
:100830000034002BFBD0BFF34F8F1349134BCA6812
:1008400002F4E0621343CB60BFF34F8F00BFFDE7BC
:100850000122C3F840250C4B4FF0FF329A62DA6256
:100860000B4B0C4A1A6081F31188002008BD00BFB1
:10087000F0ED00E0A0050040E00F00F0E40F00F014
:10088000E80F00F000E0014000ED00E00400FA0590
:10089000543A00200090D00308B50446084611469B
:1008A0001A46A04714F07EFC01F0ACF910B5C47AEA
:1008B000C0688C424FF00C04B6BF614304FB0101D9
:1008C0004158202492FBF4F401EB8401196002F0FA
:1008D0001F0010BD07B501ABFFF7E8FF019A012328
:1008E00003FA00F013680343136003B05DF804FBE0
:1008F00007B501ABFFF7DAFF019A012303FA00F015
:10090000136823EA0003136003B05DF804FB2DE9CC
:10091000F0474368058904460068A77A5D43284488
:1009200000214FF00C0E4FF0200CB94205DB0025E2
:1009300023899D4223DBBDE8F087D4F80C90B5FBFA
:10094000F3F20EFB01F81F2A09EB08064FEA9303A6
:1009500006F1040AC8BF1F3203F10303C6F804A05E
:10096000C6F808A0CABF92FBFCF2E17249F8080081
:1009700023F00303C8BF00EB82000131D5E76268B2
:10098000E36820686A431E1D865081189A684A6091
:100990009A682046116099602A460021FFF79AFF65
:1009A0000135C5E72DE9F04F8BB0867A00AF0446DC
:1009B000FB60B3000A3323F00703ADEB030D43687C
:1009C0003A6103336A4623F0030342F80439E946E7
:1009D0004FF0FF3500234FF00C0E581EB3427862E3
:1009E00009DA2BB110688008033020F00300506052
:1009F000506888420BD27B6A013314D13A6D0023D0
:100A000013606FF00B002C37BD46BDE8F08FE06837
:100A10000EFB030000F1040C40680432604518BF6F
:100A20001D460133D9E76B1CE8D0E16859F8252051
:100A30000C2303FB051353F8046F9E4261D096E824
:100A40000A00196031684B6023682946F31A204672
:100A500093FBF2F2FFF74CFFA9EB890309EB850A40
:100A6000BB617B6A9D4223680EDB3A6911467A6A54
:100A70000A60F31A59F8222093FBF2F3FA68136024
:100A80003B6D00201E60BEE75AF8042BF31A93FB5F
:100A9000F2F3BA699B007B610AEB4A0313444FF0FF
:100AA000010BFB6105EB0B03BB60DAF80080B96852
:100AB0000BFB08F33B62F3187B607B6920460BEB72
:100AC0000302FFF707FF7B682268218908F1FF38DE
:100AD0009844A8EB020862684A4390450AD2E2684B
:100AE000F969386A0A44111D31509168596091685A
:100AF0000B6093600BF1010BBBF1040FD5D10135F5
:100B0000AFE76FF00A007EE72DE9F04F85B0837AFA
:100B10009B000A3323F0070300AFADEB030D4368DE
:100B2000033323F003030546EA4600936C46012095
:100B300081424CD20C4616463246214628465AF887
:100B40002480D5F80090FFF7C5FE002C48D007F1AF
:100B50000C03324621462846FFF7A8FEFA68042314
:100B600090FBF3F083001068D84000F00F000F28CE
:100B700036D126F003034FF000097B6008F1FF3BFC
:100B80007B684B441A46214628463B60FFF7B0FE7F
:100B90003B689E4212D008FB03F2B5F808C06B68B0
:100BA000296802EB0B0E03FB0CF39E4501EB0200E0
:100BB00004D240688B5803608B58586009F10109D2
:100BC000B9F1040FDCD196FBF9F6013CB4E72368D8
:100BD0009B08033323F0030344F8043F0130A7E7E5
:100BE00008FB06F62A68696809EB060308F1FF3876
:100BF0009844A8EB02082A89514388450BD2E9683A
:100C00000C2202FB0414221D49F80620A2685A6037
:100C1000A2681360A3601437BD46BDE8F08F0020C2
:100C2000704700000B6801330B60014B1B681847CD
:100C3000583A00202DE9F04F85B09B460E9CDFF816
:100C400090A0012CB8BF0124012B0CBF302320231E
:100C50001546804689460194029301260A27002200
:100C60000AF101040AB9AA451FD2B5FBF4F04946BE
:100C70003030C04701360122013F012FB5FBF4F1AE
:100C80004FF00A0304FB1155BAFBF3FAE8D14946C9
:100C900005F13000C047BBF1030F03D1019B9C1B42
:100CA000002C0FDC05B0BDE8F08F019BBB42E3DBFD
:100CB000BBF1020FE0D84946029803920136C047C3
:100CC000039AD9E749462020C047013CE8E700BF26
:100CD000FFC99A3B0A688B6830B512B14C68A342D1
:100CE00002DB01338B6030BD651EAB420BBF8C60F5
:100CF0005C1C00218C600CBFD154D05430BD00006E
:100D0000014B1860704700BF583A00202DE9F04FA2
:100D100089B04FF0000A06460F4604921C464FF079
:100D2000FF39D0465546049B187810B909B0BDE884
:100D3000F08F45B9252800F00C813946B047049B57
:100D400001330493EFE7642861D019D839280AD811
:100D5000312850D22D283CD030283DD0252808D12C
:100D60003946B0476FE0582800F08980632800F0CA
:100D7000EA8039462520B047049B39461878F0E7C9
:100D8000702872D006D8692841D06C283CD06828D9
:100D9000D5D0EEE7752858D017D87328E9D1236845
:100DA00004F1040B1C46254615F8010B002840F001
:100DB000BF80B8F1030F40F0D580E41AA9EB04041A
:100DC000002C00F3BB805C463DE0782857D07A28A1
:100DD000DEE74FF00308B2E7B9F1000F0EDAB8F121
:100DE000000F00F0BC80A0F13009B8F1000F08BF7F
:100DF0004FF00208A3E7B9F1000FF4DB0A2303FB6D
:100E00000909A9F13009F0E70AF1010A97E7BAF1F7
:100E1000010FC5BF073424F0070325681D68D4BF40
:100E2000043403F10804002D05DA39462D20B047BB
:100E30006D4209F1FF39CDF8009043462A46394604
:100E40003046FFF7F7FE002579E7BAF1010FC5BF7D
:100E5000073424F0070322681A68CDF80090CCBF4D
:100E600003F1080404344346E9E739463020B0472B
:100E700039467820B0474FF008094FF00108BAF121
:100E8000010FC7BF073424F0070323680593C2BFCF
:100E900003F108041B6805934FF008024FF00003AC
:100EA000D8BF04340393079393460BF1FF3B059B94
:100EB0004FEA8B0023FA00F010F00F0009D1079BD6
:100EC00013B9BBF1000F22D14FF0300E07E0069AA4
:100ED000EBE709288CBF4FF0570E4FF0300E394624
:100EE00070440692B047039B079501330393BBF10F
:100EF000000FECD1B8F1030FA5D1039BC3EB49055B
:100F0000002DA0DD39462020B047013DF8E7531EF3
:100F100091450693EBDBB8F1010F03D13946302040
:100F2000B047E4E7B8F1020FE1D139462020F7E7F6
:100F3000394603932C46B047039B34E739462020BB
:100F4000B047013C3CE72068251D3946B0472C4698
:100F500079E7AA46A8464FF0FF390125EFE64FF0A2
:100F60000108ECE65C460546E9E6000013B502AC74
:100F7000002344F8043D02460B4603482146FFF790
:100F8000C5FE019802B010BD250C00000FB407B5D6
:100F900004A951F8040B0191FFF7E8FF03B05DF8D5
:100FA00004EB04B0704700000CB430B585B008AB5A
:100FB000044653F8042B01900291002501A907482B
:100FC00000930395FFF7A2FE0398029B9842B8BFD7
:100FD000255405B0BDE8304002B07047D50C000084
:100FE00070470FB404B0704713B51C4CBFF35B8F50
:100FF0002068BFF35B8FC0B9194813F017FB50B9D5
:101000001849194A19481B23FFF7C0FF144918480B
:10101000FFF7BCFFFEE7BFF35B8F54E8003F44E8F7
:101020000002002AF9D1BFF35B8F43681B684BB9FC
:101030004A23104A10490D48FFF7A8FF0F48FFF751
:10104000A5FFFEE704220DEB02019847002802DA13
:1010500000F0BAFA0190019802B010BD040000201F
:101060003861010087610100426101009C6101005B
:10107000BB61010011620100426201005362010084
:101080000A2838B50446074D04D1286843680D2165
:101090005B68984728684368E1B25B6898472046D8
:1010A00038BD00BF080000200148FFF729BE00BF7F
:1010B0008110000008B5044813F0B8FA034B18601B
:1010C000FFF7F2FF002008BD776201000800002052
:1010D00010B54FF02003EFF3118283F31188114C08
:1010E000237823B982F311886FF0440010BD013BCF
:1010F000DBB2237023B182F311886FF00F0010BDB3
:10110000094B1878012128B1217082F311886FF002
:101110000A0010BD197082F311884FF080425160AF
:10112000187010BD0E0000200D00002008B5002230
:101130001046012100F05EFC002000F029FC002098
:1011400008BD00002DE9F0414FF02003EFF31182BC
:1011500083F311882D4B1878441C1C70984678B185
:1011600082F3118898F80030002B42D15E23284A80
:1011700028492948FFF70AFF2848FFF707FFFEE73D
:10118000274D2F7837B1187082F311886FF00A005D
:10119000BDE8F08101262E7082F311884FF0804463
:1011A00019B3384600F004FCC4F80071D4F80433D5
:1011B000C4F804632660D4F8002192B10022C4F878
:1011C0000021184A13F0010F4FF0010308BFC4F8C3
:1011D00008330020C2F8803100F0DAFB00232B70C6
:1011E000C0E720BF40BF20BFE5E7C4F8001126607C
:1011F000F4E74FF08043D3F80C3413F4803F14BF6E
:1012000000206FF04300BDE8F08100BF0E00002019
:1012100098620100E06201009C610100BA61010076
:101220000D00002000E100E0F8B54FF080430546D6
:10123000D3F808E1D3F80423D3F80C74D3F8006191
:10124000D3F80411D3F80C01D3F8104102F00102D5
:10125000BEF1000F30D1F6B14FF080430026C3F845
:1012600000613AB1FB0341BF4FF080430122C3F854
:1012700008231A6139B34FF080430022C3F80421D8
:101280002C492D4A2D4840F22F13FFF77FFE2C48A2
:10129000FFF77CFEFEE7002AE4D10029EBD190B9EC
:1012A00044BB40F21713244A26492448FFF76EFE38
:1012B0002348FFF76BFEFEE74FF0000EC3F808E18E
:1012C000002ECED0C8E7A8B14FF080462846C6F819
:1012D0000C110021FFF7FCFE50B140F23913164A01
:1012E00019491648FFF752FE1548FFF74FFEFEE773
:1012F00001237361E4B14FF0804300210124C3F85E
:1013000010112846C3F80443FFF71CFF18B90F4B10
:10131000C3F80041F8BD44300AD04FF4A773064A21
:101320000B490648FFF732FE0548FFF72FFEFEE7A0
:10133000F8BD00BF5DAF0100986201009C61010033
:10134000BA610100EB6201001A63010000E100E0F4
:101350001F630100F8B506460C464FF02002EFF37C
:10136000118382F31188324A157865B183F31188AD
:101370004FF08043D3F8183413F4803F0CBF6FF064
:1013800043000020F8BD0127177083F31188284619
:1013900000F00EFB4FF080430221C3F80451D3F854
:1013A0000423C3F80413C3F818459F60D3F804114D
:1013B00069B392071F4F58BF02224FF000014FF050
:1013C0000105C3F804114FF0000058BFC3F808230B
:1013D000C7F8805100F0DCFA4FF08043002118225A
:1013E000C3F80823C3F80C11C3F8101114F003015B
:1013F000BED11020C3F83805C3F804233046C3F823
:101400000453FFF79FFE30B9C7F80051B0E720BF83
:1014100040BF20BFCAE710F1440FA9D0E623064A17
:1014200006490748FFF7B2FD0648FFF7AFFDFEE7A4
:101430000C00002000E100E0986201001F63010041
:101440009C610100BA610100084BC3F84005D3F864
:101450000435C01A20F07F40054B0238984282BF05
:10146000044B4FF40032C3F80021704700100140D4
:10147000FDFF7F0000E100E038B5114B114CD3F8BF
:1014800004052268104D801A2B6820F07F40984296
:101490000FD3B0FBF3F00D490968884228BF084616
:1014A00000FB032323F07F432360094B186013F0F4
:1014B00035FF20682B681844BDE83840FFF7C4BFEB
:1014C0000010014014000020703E00201000002099
:1014D0006C3E0020024B0022C3F84021FFF7CCBF36
:1014E00000100140031E0A4A0A4804DB116890FB01
:1014F000F1F18B4202DD136890FBF3F31068064AAA
:10150000064912680B6000FB0320FFF79DBF00BF78
:10151000703E0020FFFF7F0014000020100000201C
:1015200008B5074B0022C3F84021064B4FF40032A8
:10153000C3F88021FFF7A0FF034B01221A6008BD0A
:101540000010014000E100E01000002070B51848D4
:1015500013F06CF848B34368164D1B680121984797
:10156000154B00241C60154B01261E60144BC5F85A
:1015700008451B68C5F840354FF48033C5F844333F
:10158000C5F804330F4BC5F840414FF40032C3F89F
:10159000802131462246112000F02CFA112000F063
:1015A000F7F9AE6020462E6070BD4FF0FF3070BD81
:1015B0002A630100001001401400002010000020E8
:1015C000703E002000E100E00A4A30B5D2F8043550
:1015D000094DD5E90001D2F80445A34207D1074AD5
:1015E000126850431B1A23F07F43184430BD234632
:1015F000EFE700BF0010014080190020703E00207E
:1016000007488168006A884208D000B513F05CFD85
:101610005DF804EB03494FF080520A607047000008
:101620004819002004ED00E0044800232021C218DE
:101630000133272B82F80013F9D1704700E100E055
:10164000084A094993680968D966084998664B6849
:1016500043F080534B60002383F311889368D86E66
:10166000704700BF4819002048AD010000ED00E0C0
:10167000202080F311880D498A682C201044EFF354
:10168000098C80E8F01F0A4F4FF000660A6A8A60F2
:101690003E60906E0023936680F3118802F12C0067
:1016A00090E8F01F8CF3098870470000481900206B
:1016B00004ED00E01EF0040F0CBFEFF30880EFF321
:1016C0000980816931F8021C11F0FF010229FFD065
:1016D00000B500F067FA00BD10B5044613F062FDD6
:1016E00022680146BDE810400148FFF74FBC00BF2B
:1016F0008364010038B504461A480D46FFF746FCDE
:1017000004F11800184CFFF7E7FFA36AD90602D5C9
:101710001648FFF73BFCA36A1A0702D51448FFF7E7
:1017200035FCA36A9B070ED51248FFF72FFC616BAF
:10173000A36A180607D51048FFF728FC1DB1A36A55
:1017400023F08003A362084CA26AD20702D50B489B
:10175000FFF71CFCA36A9B0602D50948FFF716FC9D
:10176000002038BDCD64010000ED00E0E46401001C
:10177000F66401000A65010023650100346501007B
:101780005465010010B504461A48FFF7FFFB04F149
:101790001800194CFFF7A0FFA36A9A0102D5174859
:1017A000FFF7F4FBA36ADB0102D51548FFF7EEFB58
:1017B000A36A180302D51348FFF7E8FB0E4CA36A8F
:1017C000590302D51048FFF7E1FBA36A9A0302D53B
:1017D0000E48FFF7DBFBA36ADB0302D50C48FFF7DB
:1017E000D5FB054A936A6FEA03436FEA134393629A
:1017F000002010BD8465010000ED00E09D65010042
:10180000B1650100CC650100EB65010011660100C6
:101810002C66010038B504461D480D46FFF7B6FB9F
:1018200004F118001B4CFFF757FFA36AD80404D536
:101830001948BDE83840FFF7A9BBA36A190501D5CF
:101840001648F6E7A36A9A0514D51548FFF79EFBDC
:10185000A16BA36A1B0407D51248FFF797FB1DB1C4
:10186000A36A23F40043A3620A4B9B6A58050ED572
:101870000D48DEE7A36A5905FAD4A36ADA0501D553
:101880000A48D6E7A36A9B0401D50948D1E738BDC9
:101890004A63010000ED00E0E4640100F664010029
:1018A00061630100236501007B6301009763010010
:1018B0005465010038B5274C6368C3F30803DA1E8A
:1018C0000546092A3BD8DFE802F0053436303A3ABB
:1018D0003A3A3A382048FFF759FBE36A9A0703D5AA
:1018E0001E48FFF753FB02E0E36A5B0001D40020CF
:1018F00009E01B48FFF74AFB1A4B1B7843B1012153
:101900002846FFF7F7FE2946BDE8384000F04EB9FB
:10191000154B1B7823B101212846FFF77BFFE6E733
:10192000124B1B889BB2002BE1D02846FFF72AFF01
:10193000E9E70021E4E70021EEE70D48D1E70D4893
:101940000D49A3F110020F2BD8BF01460B48FFF73A
:101950001DFBCCE700ED00E0DE630100F663010053
:101960001864010028ED00E029ED00E02AED00E018
:1019700038640100B0630100C56301006F640100B9
:10198000024A536943F010035361704700ED00E0D1
:1019900043B2002B08DB012200F01F0002FA00F026
:1019A0005B09024A42F82300704700BF00E100E0F3
:1019B00043B2002B0DDB01225B0900F01F0002FA8D
:1019C00000F02033034A42F82300BFF34F8FBFF3E8
:1019D0006F8F704700E100E04209054B00F01F00E7
:1019E00053F82220012303FA00F01040704700BF93
:1019F00000E100E04B1C072B10B50C460BD90F4A39
:101A00000F4910487223FFF7C1FA072221460E48FA
:101A1000FFF7BCFAFEE742B2002A4FEA4313ADBF1C
:101A200002F1604200F00F00084A02F56142B5BFC2
:101A3000DBB2DBB2135482F8003310BD58660100EC
:101A4000926601009C610100A966010014ED00E0AE
:101A500000F068B808B572B6044BD86918B1002216
:101A6000DA6112F009FE62B608BD00BF4819002015
:101A70002DE9F041099F0F2F05460C461646984662
:101A800025D11C4B984526D10A9B0422394628466D
:101A900013F0AAFEA6F120012144174AEC6521F0BB
:101AA0000701002322F001022B656B652E668A6117
:101AB000069A4A60079A8A60089ACA60C1F800804C
:101AC0004FF08072CA61E964AB66BDE8F08107F14E
:101AD00010031E2BD8D93F23084A09490948FFF7AC
:101AE00055FA6FF00F030E2239460748FFF74EFAFA
:101AF000FEE700BF9146010099080000DB66010087
:101B0000116701009C610100AD67010001491022CD
:101B10000A60704710ED00E0404080F3118830BF4C
:101B2000704700BF404080F31188DFF81CC0DCF82C
:101B300000C01CF4006C0CBFEFF30880EFF30980C9
:101B400000B5FFF7B7FE00BD04ED00E0042838B58E
:101B500004460D4613D0052813D0032813D10C4892
:101B6000FFF714FA13F01EFBAA6901460948FFF7B4
:101B70000DFA29462046BDE8384000F017B806485F
:101B8000EEE70648ECE701460548FFF7FFF9E9E70D
:101B9000DC6701005A680100026801001C6801004E
:101BA0003768010001460068FFF7D0BF052810B56F
:101BB0000CD013F0FDFC60B113F0FAFC0C4B0D4996
:101BC000002808BF19460C48FFF7E0F9FFF7A4FF0B
:101BD000FCE713F0FDFC0028EED1084C0848A16892
:101BE000FFF7D4F9A068BDE8104000F00BB800BFC3
:101BF0009A68010096680100AB680100481900204E
:101C0000CB68010038B505464FF02003EFF311848F
:101C100083F31188037ADB0709D52523104A11497C
:101C20001148FFF7B3F91148FFF7B0F9FEE713F0D9
:101C300047FD0F4B9B689D420DD10E4B5A68C2F376
:101C4000080222B913F040FA2046FFF7F9FC5A685F
:101C500042F080525A602046BDE8384013F016B872
:101C6000F06801002C6901009C61010054690100C9
:101C70004819002000ED00E000B572B60B4AD069AB
:101C800000281EBF0021D16112F0F6FC62B6EFF30E
:101C90000580A0F110004FEAC0000549014409C9C0
:101CA00098475DF804EBFFF7ABBC00004819002033
:101CB000DC000000202080F3118806484FF400610A
:101CC000401880F30988022080F31488BFF36F8FD7
:101CD00000F006B8202E002030BFFFF7FDBF00BF88
:101CE00008B5074B074A23F07F039360BFF34F8F7C
:101CF000BFF36F8F12F0F0FC12F0F8FC12F01AFD37
:101D00000000000000ED00E008B5FFF7E5FFBDE8CA
:101D10000840FFF775BC000010B521F01F030C4C04
:101D2000034343F01003A06086B0E36042F0010378
:101D30002361084B04930093074B03920291019097
:101D40001C68064A064B07490748A04706B010BD65
:101D500090ED00E0BA6101005C3A00207A69010070
:101D60006D6901008169010089690100F8B51E4CA7
:101D70002368082B26460CD91C4A1D491D4840F2F1
:101D8000CD13FFF703F9082221681B48FFF7FEF87F
:101D9000FEE71A4D00246C600C2733689C4215D373
:101DA00005236B60BFF34F8FBFF36F8F2B68C3F3B7
:101DB0000723082B15D04FF4F8730C4A10490D482F
:101DC000FFF7E4F80F48FFF7E1F8FEE7716807FB5B
:101DD00004F3CA1820469268C958FFF79DFF0134E2
:101DE000DBE70020F8BD00BF343A0020AC690100F9
:101DF0005DAF01009C610100F069010090ED00E021
:101E0000226A0100666A01000139034611F8012FB8
:101E10000AB91A70704703F8012BF7E70246034628
:101E2000981A13F8011B0029FAD1704701380139BB
:101E300010F8013F11F8012F934202D1002BF7D186
:101E40001A46981A704770B582B1013A0C4603469B
:101E500003D11A782078101A70BD1E782578AE420A
:101E600000F1010001F10101EFD0F2E7104670BD71
:101E700081EA000313F0030F70B503460BD0013B5A
:101E80000A4491421BD170BD002AFCD011F8014BCD
:101E900003F8014B013A9C07F6D11E1F0D46541B57
:101EA0000C44032C06D822F003042144234402F0FE
:101EB0000302E4E755F8044B46F8044FEFE711F846
:101EC000014B03F8014FDCE770B5C9B203469C072C
:101ED00011D141EA012444EA04441E46951B1D44E5
:101EE000032D0ED822F00304234402F003021A4407
:101EF000934209D170BD002AFCD003F8011B013ABE
:101F0000E5E746F8044BE9E703F8011BF0E70000BA
:101F100070B54FF02003EFF3118583F31188144C53
:101F2000144E237803EBC312013303F0030332444E
:101F3000237085F31188402928BF40210E4D0138B8
:101F4000134602EB4106B34204D1002302F81130DC
:101F5000104670BD4478240902332C5D03F8024C0E
:101F600010F8014F04F00F042C5D03F8014CEAE770
:101F70007400002075000020A36A010010B50F4A0C
:101F80000F4C137803EBC301013386B003F0010358
:101F90001370027843790492427803928278029215
:101FA000C278019204EB4104027900921221054AA1
:101FB0002046FEF7F9FF204606B010BD7200002053
:101FC00018000020856A010070B51D4A1D4913786C
:101FD00003EB4306013303F00103137003788AB067
:101FE00006EBC60604460E4407AD032B21D8DFE8F6
:101FF00003F0021A1C1E14492846FFF705FF6278F9
:102000000492A2780392E278029222790192627994
:102010000092A37905950D4A1B213046FEF7C4FFB7
:1020200030460AB070BD0A49E6E70A49E4E70A49C2
:10203000E2E70A4A0A212846FEF7B6FFDFE700BFBB
:10204000730000203C000020FD5F010026600100BD
:10205000046001000B600100156001001F600100B9
:1020600030B585B00446154668460322FFF700FFE9
:102070000D2200210DF10300FFF726FF20466A46DE
:10208000694606F021FD044620B903226946284628
:10209000FFF7EEFE204605B030BD13B50C4601AA91
:1020A0000331FFF7DDFF48B9032201A92046FFF7FE
:1020B000CAFEB0FA80F0400902B010BD0020FBE774
:1020C00070B5CD1C06460C462846032106F0E0FC00
:1020D00060B9637903F03F0343F040036371224624
:1020E00029463046BDE87040FFF7BABF70BD00001A
:1020F000F0B40278012A04460B4617D003D3022A13
:102100002CD0F0BC7047184A0D4602F11007106839
:1021100051682E4603C60832BA423546F7D11278C6
:10212000327062885A73120A9A73EAE70E4A0D46B1
:1021300002F11007106851682E4603C60832BA42F1
:102140003546F7D11278327062685A73C2F30721AC
:10215000120CDA73120A99731A74D2E7014611222B
:102160001846F0BCFFF784BEB46A010010B50C46F7
:10217000017822788A428AB00ED06946FFF7B8FF0C
:1021800005A92046FFF7B4FF10220DF115010DF14E
:102190000100FFF758FE0AE0012A0AD004D3022A00
:1021A0000AD06FF0150002E040886388C01A0AB0B8
:1021B00010BD40686368F9E71022611C0130E8E750
:1021C0007047000070B50B4D06460FCD8AB06C46C7
:1021D0000FC40FCD0FC495E80300092E84E8030057
:1021E0009BBF0AAB03EB8606034856F8280C0AB0DF
:1021F00070BD00BFB45F0100607E01000722FFF7E1
:1022000037BE00B5BFF35B8F50E8003F43EA0102E1
:1022100040E8002EBEF1000FF6D1BFF35B8F1846E9
:102220005DF804FB00B5BFF35B8F50E8003F03EAA5
:10223000010240E8002EBEF1000FF6D1BFF35B8F24
:1022400018465DF804FB0000C378002B41F2883289
:1022500000F1700108BF0022014813F09BBB00BFD2
:10226000881900202DE9F047304D314F2C68DFF8F8
:10227000E4A086B016468946804612F093FF2D4BA7
:1022800001902D4A2D492E4805970496CDF80C90C3
:10229000CDF808800097A047B07911F0E1FC8245A5
:1022A00013D0B4792D68204611F0DAFC059703901D
:1022B000CDF810A002948DE880011E4B214A1F49E1
:1022C0002148A84706B0BDE8F087304611F0CEFCA3
:1022D0001E4C04EBC000438843450FD030462D68A8
:1022E00011F0C4FC04EBC0000397438802938DE80F
:1022F0008001104B134A11491548A847304611F088
:10230000B5FC04EBC0004368002BDBD0304611F075
:10231000ADFC04F83090304611F0A8FC04EBC0008E
:10232000406806B0BDE8F04712F070BF5C3A00208C
:10233000BA610100156C01007A690100297A010077
:102340002C7A0100647A01006B7A01007C02002083
:10235000B07A01006C3F00204B09BFF35B8F50F84F
:102360002300BFF35B8F01F01F01084100F0010063
:10237000704700002DE9F047DFF8D080284DD8F8ED
:10238000004086B00F46064612F00CFF254B019028
:10239000254A264926480495039702960095A047AA
:1023A0004FF0FF31234811F0EFFC044648B9C22337
:1023B000214A22492248FEF7E9FD2846FEF7E6FDBC
:1023C000FEE7D8F8008012F0EDFE164B164A039592
:1023D00001900095029415491A481B4DC04704F11D
:1023E0000808002140464FF0000911F0ECFC84F889
:1023F0001490204611F03AFC05EBC00046802046C0
:1024000011F034FC05EBC0000321C0F804904046F5
:1024100011F01CFD06808770204606B0BDE8F087ED
:10242000BA610100C56A01007A690100297A0100D8
:10243000796F01006C3F0020A96F0100E96F010076
:102440009C610100ED6F01007C0200205C3A0020DD
:102450002DE9F04F81468DB090460C4621B9FFF72B
:1024600089FF0446002868D0DFF804A1344EDAF86A
:102470000050344F12F096FE0596A3890493019004
:10248000314B324A32493348CDF80C9002940096D1
:10249000A84706AD01220021284612F089FE2046F9
:1024A00011F0E4FB07EBC0004560204611F0CAFCC8
:1024B0002146294811F08BFC284642F2107112F097
:1024C000CDFE054658B12549254A264840F20B1352
:1024D000FEF75CFD29462448FEF758FDFEE7DAF8D2
:1024E00000A012F05FFE8346204611F0BFFB049669
:1024F00017F830300393154A134B15491B48CDF894
:1025000008908DE84008D047204611F0AFFB17F83F
:10251000303043B1204611F067FC6FF004052846C7
:102520000DB0BDE8F08FB8F1000F02D0C8F8004040
:10253000F5E7204611F058FCF1E76FF03605EEE7BD
:10254000BA6101007C020020E76A01007A6901009B
:10255000297A010065700100243B0020967001007B
:10256000A96F01009C6101009F700100BD70010016
:102570005C3A002038B50221054642F20C00FFF714
:10258000F9FE044630B30221083011F05FFC012D42
:10259000024616D10B211148FFF7DEFE5070157070
:1025A0002146002242F20C00FFF752FF044630B9E8
:1025B000012D09D14FF480710848FFF722FE204613
:1025C00038BD00234370EAE76FF480710348FFF7DA
:1025D00029FEF4E76FF03604F1E700BFD03A00209F
:1025E0007FB51F4B05461C6812F0DCFD06462846E9
:1025F000FFF7C4FC1B4B03938DE848001A4E029072
:102600001A4B1B4A1B491C48A047062206F1080129
:102610002846FFF718FC0446D8B1062142F205000F
:10262000FFF7A8FE0446B8B106222946083011F08B
:1026300013FC2146002242F20500FFF709FF044681
:1026400038B90622294606F10800FFF711FC0123DC
:10265000F371204604B070BD6FF03604F9E700BF97
:102660005C3A0020BA610100603A0020FC6A010077
:102670007A690100297A0100687D010007B5062109
:10268000684606F005FA40B99DF80530684603F043
:102690003F038DF80530FFF7A3FF03B05DF804FB9F
:1026A00038B50121054642F20A00FFF763FE0446F1
:1026B000D8B108308DB1012111F0D7FB214600229D
:1026C00042F20A00FFF7C4FE044620B93DB14021A2
:1026D0000748FFF796FD204638BD2946ECE76FF026
:1026E00040010348FFF79EFDF5E76FF03604F2E77F
:1026F000D03A0020028843889A4210B518D8052A9B
:1027000016D9B3F5486F13D88488B4F5FA7F0FD281
:10271000C188A1F10A0292B240F67640824207D8FF
:1027200004FB0333B3EB810FB4BF0120002010BDC5
:10273000002010BD012310B50621044600F8013B1E
:1027400006F0A6F918B9A37963F03F03A37110BD91
:1027500037B5124C2378012B04D1A37903F0C003C1
:10276000C02B0ED00E4B019300930E4B0E4A1C68EB
:102770000E490F4B0F48A0476FF01505284603B0D0
:1027800030BD601CFFF72CFF05460028F6D1042160
:1027900004F17000FFF735FDF0E700BF603A00205C
:1027A000BA6101005C3A0020E1790100297A010058
:1027B000736D0100E87901002DE9F04F204DDFF83D
:1027C0009C90DFF89C80D9F800A01E4F1E4E1F4C35
:1027D00087B02846FFF7F8FB43463A46314601905A
:1027E000029400941A48D04795F80EA0D9F800B08A
:1027F0005046FFF7E7FCAB8A04932B8A03933A46D3
:1028000043463146CDF808A0019005940094114844
:10281000D847D9F800A095F80F904846FFF7D2FCAA
:102820006B8A039301900494CDF80890009443467A
:102830003A4631460848D04707B0BDE8F08F00BFA0
:10284000603A00207B6E0100297A0100BA61010024
:10285000826E01009F6E0100ED6E01005C3A002067
:10286000946D010030B50E4B87B004461D6812F020
:1028700099FC227D0B4B0492A2890593039201904F
:1028800000930294084B094A09490A48A8470A4B91
:10289000D3F8D4301B69204607B0BDE83040184754
:1028A0005C3A0020BA610100BA6D01007A6901004A
:1028B000297A0100B6790100603A00202DE9F04143
:1028C000054686B00C4621B9FFF754FD04460028A2
:1028D0002FD0194F194ED7F8008012F063FC0496E0
:1028E000A38903930190164B02950096154A164949
:1028F0001648C04740F635439D4214D12046FFF7A5
:10290000B1FF054658B101900296009610483E6806
:102910000B4B104A0C49B047204611F065FA284687
:1029200006B0BDE8F08121460B4811F050FA0025B1
:10293000F5E76FF03605F2E75C3A0020BA61010076
:10294000D76A01007A690100297A01000970010043
:1029500033700100E1790100243B002073B5054686
:102960000E461446002107226846FFF7ADFA2148BB
:102970008DF8005000238DF80630012D0378ADF856
:102980000160ADF803408DF805300AD106217030A2
:10299000FFF7E2FC28B9FFF771FE0446F0B98DF8A5
:1029A0000550072142F20B00FFF7E4FC0446F0B1AA
:1029B00007226946083011F04FFA214642F20B0017
:1029C000FFF77CFF0120FFF7D5FD044630B9012D4C
:1029D00007D14FF480610848FFF713FC204602B08E
:1029E00070BD6FF480610448FFF71CFCF6E76FF0E0
:1029F0003604F3E7603A0020D03A002038B50921C8
:102A000005461648FFF7A8FC024608B1002038BD6D
:102A100008211248FFF7A0FCD0B90121002002F0E4
:102A2000E7F904460028F1D04FF400610B48FFF7A6
:102A3000E8FB204602F0FAF9002D15BF30221222E1
:102A400060214FF400610020BDE83840FFF786BFE9
:102A50001046FFF78FFD0028DFD038BDD03A0020A8
:102A60002DE9F047754DD5F8D430996811F0010182
:102A70008EB032D10CAA40F60340FFF7E9FC0446C1
:102A8000002840F0D7800C9B9B681C786C4B1E681C
:102A900012F088FB6B4B03930190009302946A4BF6
:102AA0006A4A6B496B48B047A4B96B4B1C602B4614
:102AB000BFF35B8F53F8702FBFF35B8F02F00D02F3
:102AC000BFF35B8F53E8001F43E800200028F9D1D3
:102AD000BFF35B8F0C9811F087F90CAA002141F22B
:102AE0000300FFF7B5FC0446002840F0A3800C9BD0
:102AF000534ED3F80880D6F80090524F12F052FB94
:102B0000039718F8013B02930190544B4F4A5049E8
:102B100050480097C847082241465148FFF7A8F996
:102B20000C9811F061F921460CAA41F20100FFF75F
:102B30008FFC044600287DD10C9BD6F800809C6851
:102B400012F030FB03972378414902930190454BE3
:102B50003E4A40480097C0476378AB73E278A37859
:102B60000C9843EA02232B822379EB73227AE379D0
:102B700043EA02236B82A279637943EA0223AB82A0
:102B800011F032F903213848FFF7E6FB014610BB8C
:102B90000CAA41F20900FFF75BFC0446002849D16A
:102BA0000C9BD6F80090D3F8088012F0FBFA03973C
:102BB00018F8013B029301902C4B244A24492548E4
:102BC0000097C847062241462948FFF751F90C985B
:102BD0002C7011F009F90CAA002141F20200FFF754
:102BE00037FC044630BB0C9BD6F80090D3F8088025
:102BF00012F0D8FA039718F8013B029301901D4B8D
:102C0000124A134913480097C847402241461A48C0
:102C1000FFF72EF90C9811F0E7F8AB7E580633D485
:102C2000019700973468154B154A09491548A04784
:102C30006FF0120420460EB0BDE8F087603A002025
:102C40005C3A0020BA610100026C01007A6901005F
:102C5000297A010011710100D8020020316D0100B4
:102C6000763A0020926C0100D03A0020AA6C010054
:102C7000613A0020106D01007E3A00206B6D01006A
:102C8000E17901003071010021460CAA42F20300F3
:102C9000FFF7DEFB04460028CCD10C9BD6F8009051
:102CA000D3F8088012F07EFA039718F8013B0293DC
:102CB0000190B54BB54AB649B6480097C8470822B7
:102CC0004146B548FFF7D4F80C9811F08DF821462D
:102CD0000CAA42F20200FFF7BBFB04460028A9D170
:102CE0000C9BD6F800809C6812F05CFA039723785E
:102CF00002930190A94B0097A44AA549A548C04753
:102D0000B4F80130A5F88830C3B1D6F8008012F0CD
:102D100049FA0497B5F888300393E3780293019059
:102D20009A4A9B499E4800979C4BC047E2789D4831
:102D3000022A28BF0222114612F03AFA0C9811F02A
:102D400053F8AC7E14F0200400F0138195F83A306B
:102D5000190725D50CAA002142F21C00FFF778FBC9
:102D6000044600287FF466AF0C9BD6F800809C6870
:102D700012F018FA8C4B0393227802920190009380
:102D8000824A8A4B83488249C04723460C9853F8AD
:102D9000012F5B68C5F88430C5F8802011F024F855
:102DA00095F878309A0600F12981082142F2010055
:102DB000FFF7E0FA0446002800F0E280082108440A
:102DC00011F044F895F878108B074CBF2F220F2292
:102DD000890695F8791048BF42F0400211F0090FBA
:102DE00095F8401001F0060118BF42F40062062970
:102DF00008BF42F4C0720270C2F307224270002280
:102E00008270C270027142718271C271214642F2B7
:102E10000100FFF71DFB044600287FF40BAFAB7EDB
:102E20009A0647D4B5F88810002943D10CAA41F27C
:102E30000500FFF70DFB044600287FF4FBAE0C9B5A
:102E4000D6F800909C68DFF8608112F0ABF9CDF8FD
:102E50000C80237802930190554BCDF800804B4AAB
:102E60004B494C48C847B5F8883003BBA278637813
:102E7000D6F8009043EA0223A5F88830A48812F01F
:102E800091F9CDF81080B5F88830039301903F4A4E
:102E90003F4948480294CDF80080454BC847022C72
:102EA000224628BF022211463E4812F081F90C98B2
:102EB00010F09AFF082140F60140FFF75BFA044644
:102EC00000285DD00821084410F0C0FF10230370D3
:102ED0008823437002230022C37020238270027172
:102EE00042718271C371214640F60140FFF7B0FA8A
:102EF000044600287FF49EAE01460CAA4FF601401E
:102F0000FFF7A6FADFF8A080002800F0A480CDF833
:102F10000480CDF800803468274B284A1C49284893
:102F2000A047002307220CA926480C93CDF8333084
:102F3000FEF789FF002840F01181346812F032F961
:102F4000214B0190CDF80880CDF800800F4A104940
:102F50001E48A04795F86030DB0700F12081CDF8CE
:102F60000480CDF800803468194B144A0849194888
:102F700025E1022140F66D40FFF7FCF9804658BB81
:102F80006FF0360456E600BFBF6C01007A6901009D
:102F9000297A010011710100D83A0020F36C010078
:102FA00064710100EC3A0020BA6101004E6D01002D
:102FB000D96C010098710100A56D0100647A0100CF
:102FC000D0710100603A0020B16D0100047301006E
:102FD000866D0100B27301000221083010F036FF47
:102FE0000123447003702246414640F66D40FFF7CE
:102FF0002FFA044600283FF4A9AE1BE60CAA0021D4
:1030000042F22F00FFF724FA044600287FF412AEA4
:103010000C988368B3F801A0B3F8039010F0E4FEB5
:10302000042142F22400FFF7A5F980460028A7D02A
:103030000421083010F00AFF2246A0F800A0A0F8F2
:103040000290414642F22400FFF702FA04460028AB
:103050003FF4ABAEEEE50C9BD6F800909C68794946
:10306000B4F801300293032B96BF774A774A52F89F
:1030700023200192764B774ACDF80C80CDF8008062
:103080007548C847B4F80130D6F80090B4F803206A
:10309000022B3DD1022A3BD8704B53F822300292CA
:1030A00001936C4A6A4B67496D48CDF80C80CDF8A6
:1030B0000080C8476379D6F800900697D4F80910C5
:1030C0000591032BB4F8071098BF664A0491A179C3
:1030D00094BF52F823205D4A0391029359495C4BF7
:1030E000019261485B4A0097C8470C9810F07CFE3B
:1030F0000CAA00214FF60240FFF7AAF9044648B196
:10310000019700973468524B584A4E49584807E790
:103110004E4BC4E70C9B5748996802220131FEF7D9
:10312000A7FE0C9810F060FE0CAA21464FF6034053
:10313000FFF78EF938B1019700973468444B4B4A3A
:1031400040494D48ECE60C9B4C48996801221144DB
:10315000FEF78EFE0C9810F047FEE2E6484B18682A
:103160009A880A909B79ADF82C200AA90722454835
:103170008DF82E30FEF767FE00283FF4DEAEFFF735
:103180001BFB02F0E7FA044600287FF453AD02214E
:103190003D48FFF736F82046FFF730FC4AE509AA1C
:1031A00000214FF60940FFF753F950B1CDF80480E4
:1031B000CDF800803468354B2C4A22493448A0476A
:1031C0002AE0099B99684B78CBB101230622023192
:1031D00030482B70FEF74CFE099810F005FEFFF703
:1031E000B7FA04460028CAD0CDF80480CDF8008094
:1031F0003568294B294A13492948A8471AE5CDF8CB
:103200000480CDF8008027483468204B174A0D49C8
:10321000A047099810F0E8FD1A48FFF78BFA04461A
:103220000028E1D11B483468FEF7A8FECDF80880DD
:103230000190CDF80080154B0C4A02491A48A0476E
:10324000CDE700BF297A0100587D0100607E0100B2
:10325000A56D01007B6E0100047201004C7D010030
:103260002D720100507E010055720100647A010048
:1032700092720100BF3A0020CB720100BE3A0020DA
:10328000DC5F0100603A0020D03A0020866D01002A
:1032900049730100613A0020B16D0100E17901003C
:1032A0002774010079730100EE73010010B5FFF778
:1032B000D7FB034B1B6813B1BDE81040184710BD86
:1032C000D402002038B50721044642F23200FFF74D
:1032D00051F8054698B10721083010F0B7FD238852
:1032E0000380002402238470C370037144718471CD
:1032F000294642F23200FFF7E1FA204638BD6FF06E
:10330000360038BDF7B5074601AA002142F22F006A
:10331000FFF79EF8D8B901988368B3F80160B3F855
:10332000035010F061FD062142F22200FFF722F85F
:10333000044670B10621083010F088FD3B880380F8
:1033400046808580214642F22200FFF7B7FA03B09B
:10335000F0BD6FF03600FAE72DE9F04F744FB0F88A
:103360000180D7F800A0734E8FB0054611F01AFF08
:103370002C1D2B78EA780993834620460892FEF7A5
:1033800023FE1FFA88F9089A099B0590049202937C
:103390000696694BCDF80C908DE84008674A68495D
:1033A0006848D0472B7883B10221002001F020FD2E
:1033B000044638B12B780372002101F00BFE204641
:1033C00001F034FD0FB0BDE8F08F21460CA8FEF7E8
:1033D00015FF9DF83030023BDBB2012B28D80622C6
:1033E00005F111010DF129008DF83030FEF740FD97
:1033F00001238DF8283002210CA801F0F9FCEB78AC
:10340000012B044609D16FF040014F48FEF70AFF37
:103410009CB90CA801F03CFC044674B98DE840024C
:1034200002963C68444B494A45494948A047C9E788
:1034300021460AA8FEF7E2FEDDE720460CA920F8A7
:10344000448BFEF7DBFE2A7EEB7D43EA0223A4F8E1
:103450005A30AA7E6B7E43EA0223A4F86030EB7EEA
:103460002A7F43EA0223A4F86230EE78E670012E48
:103470001AD1384F0AA904F14B00FEF7BFFE3946B6
:1034800004F15200FEF7BAFE072107F17000FEF7C3
:1034900063FF48B1D7E92023002203F04003134320
:1034A00002D03046FFF7FCF80321204601F092FDE0
:1034B000637A032B18D1EB7823B1264B93F878303D
:1034C000190718D5022142F21600FEF753FF0546F0
:1034D00088B10221083010F0B9FC23880380294606
:1034E00042F21600FFF7EAF9204601F09FFC0020A7
:1034F000FFF784FA66E7174D95F87920D20708D5CB
:103500002046FFF7DFFE20B98021201DFEF779FE5F
:10351000EAE795F878309B0606D52046FFF7F2FEDD
:1035200010B94FF48071F0E72046FEF78DFEDBE71F
:103530005C3A0020BA610100466B01007A69010023
:10354000297A0100C17C0100D03A0020E179010014
:10355000F57C0100603A002070B506460D4642F247
:1035600021000321FEF706FF044660B10321083065
:1035700010F06CFC85700680214642F22100BDE807
:103580007040FFF79BB96FF0360070BD2DE9F04F2A
:10359000824D834C2E6889B011F004FE0294019094
:1035A0000094804B804A81498148B047814B814AD1
:1035B0005B7B6FF30713537302F1140001F094FC6B
:1035C0002E6800F1010911F0EDFD774A019077496D
:1035D00079480394CDF808900094724BB0474FF0AF
:1035E000FF324946734812F047FB68B101940094DA
:1035F0006C4B2C68714A6D497148A047404080F37C
:1036000011884FF0040002DF2E68DFF8F08111F01E
:10361000C9FD03940190CDF808900094694B624A6B
:1036200062496948B047634EB9F1000F02D111F009
:1036300069FDBBE72F6811F0B5FD0394737B5A4A0F
:1036400001901B09029300945E4B58495F48B847AC
:10365000737B1B09012B40F28380042B40F0948084
:1036600096F80CB0BBF1000F7ED12F6811F09AFDD7
:10367000574B01904C4A4D49564802940094B84724
:103680005946554810F086FB824638B9019400949B
:103690004F4B2C68494A45495048AEE72F6811F016
:1036A00081FD4B4B0190404A40494D4802940094A3
:1036B000B8474FF0FF314B4811F0D0FDD8F8C0307B
:1036C0006BB1434B3D4A39494748019400942F68F8
:1036D000B847D8F8C00010F087FBC8F8C0B0504613
:1036E00010F0B0FB2F68C8F8C00011F05BFD079028
:1036F000504610F0BBFADFF808B104940BEBC000A1
:10370000CDF80CA04288079B0292019337480094A1
:103710002F4B254A2549B8475046FFF7A3F8F8B183
:103720002B4B264A214901900294314800942F687E
:10373000B8472C4811F06AFD504610F097FA0BEB91
:10374000C00000221F214088FEF78CFDD8F8C00081
:1037500010F04AFB00235046C8F8C03010F044FB7C
:10376000143609F1FF395FE7BBF1010F04D130696D
:10377000183801F06BF9F3E7BBF1020FF0D13069B3
:10378000283801F02DFFEBE70193029400942F6895
:103790000C4B184A05491848B847E1E75C3A002045
:1037A000BA610100846C01007A690100297A010084
:1037B000F37A0100383B0020107B0100E179010021
:1037C000437B0100756C01006D7B01008B7B010068
:1037D0006C6C0100AD7B0100243B0020D67B010016
:1037E000FB7B0100083B0020267C0100517C01008E
:1037F00033700100647A0100907C0100603A00207F
:103800007C0200202DE9F04FDFF8A882934FD8F812
:10381000005099B0044611F0C5FC0497A3890393A6
:103820000190029400978E4B8E4A8F498F48A8478B
:1038300094F81490B9F1010F46463D4660D0B9F1B5
:10384000030F40F05C84A668D8F80090758811F0EA
:10385000A9FC844A0190864B8349864803970294C9
:103860000097C84733881E0BC3F30B03E382FF2383
:103870006375042104F1080010F007FBD8F80090EC
:1038800011F090FC059704960395E38A029301904A
:10389000774B0097734A74497748C847A3899D427C
:1038A0000ED00193039702950097D8F80050704B03
:1038B000724A6D497248A847204610F095FA1BE0FD
:1038C000E08A01F065FA054658B90297E38A019348
:1038D0000097D8F80060664B684A63496948B0476A
:1038E000EAE701F02BFF324660752146284600F0DA
:1038F0005DFF284601F09AFA002019B0BDE8F08F6C
:10390000D4F808A0D8F800B011F04CFC03979AF84E
:103910000030029301905C4B0097524A52495B4839
:10392000D8479AF80030132B00F2FA8309FA03F90A
:1039300019F40C2F00F0F48301970097D8F8004099
:10394000514B4E4A48495248A047404080F31188A5
:103950004FF0040002DFD4F808803768B8F801A0FF
:1039600011F020FC059598F803300493CDF80CA0D5
:1039700098F80030029301900095464B394A3A4935
:103980004548B84798F80090B9F1000F94D15046D7
:1039900001F0FEF90746C8B98DE8200402953568A4
:1039A0003C4B364A30493D48A84707213C48FEF782
:1039B000D3FC002880D006213948FEF7CDFC002832
:1039C0007FF47AAF0120FEF76BFE75E798F80330BD
:1039D00003723449344811F0E9FD4946384601F094
:1039E000F9FABD78A7F800900DB13846EAE029460B
:1039F000381DFEF7B1FC30B13846012101F0EAFA7A
:103A00002846FEF7FBFF384601F010FACDE7A7681D
:103A1000D6F8008011F0C6FB03953B780293019025
:103A2000224B104A104922480095C04701210998AD
:103A300010F02BFA3F787B1E0B2B00F24D83DFE852
:103A400013F03B003C028800C4004B0301016001FD
:103A5000F301200286004B03950100BFBA6101000B
:103A6000C26D01007A690100297A010056740100D3
:103A70000F6B0100ED6F010079740100E179010025
:103A8000A8740100DC740100626C01000E75010075
:103A9000D6770100316B01003075010063750100BC
:103AA000D03A002099750100C1210000506C01003E
:103AB0009D7501005C3A0020A768D6F8008011F0DF
:103AC00071FB3E1D8146304697F800A097F803B081
:103AD000FEF77AFAAD4A059504908DE8200EAC4BBE
:103AE000AC49AD48C0473B788DF84030B7F801305D
:103AF000ADF84130FB788DF84330B7F80B30ADF8B6
:103B00005730B7F80D30ADF85930B7F80F30ADF881
:103B10005B307B7C8DF85D30314611A8FEF76EFB83
:103B2000002506220CA90DF14B000C95ADF8345080
:103B3000FEF79EF906220EA90DF151000E95ADF883
:103B40003C50FEF795F910A8FFF706FCB4E6A06814
:103B5000FAE7A768D6F80080B7F8019011F022FBC9
:103B60000495CDF80C903B78029301908B4B874ADB
:103B700088498B480095C047484601F009F98046BE
:103B800048B98DE8200202953568844B854A814901
:103B90008548A84790E63B789BB93A79FB7843EA99
:103BA0000223A0F85A30BA797B7943EA0223A0F8BD
:103BB0006030FB793A7A43EA0223A0F8623000F0E1
:103BC000B9FD404601F032F976E6D4F80880B8F83D
:103BD0000190484601F0DCF8074628B98DE820023C
:103BE00002953568714BD1E798F800302BB908225F
:103BF00008F103016430FEF73BF96D4D95F879202B
:103C0000D2070CD597F86530DB0708D53846FFF7A3
:103C100059FB20B98021381DFEF7F3FAE5E695F847
:103C200078309E0640F1FC8097F864309D0640F1A4
:103C3000F7803846FFF766FB002840F0F1804FF42C
:103C40008071E8E7A368D9789A78B3F8008042EAEF
:103C50000122ADF8402059791A7942EA0122ADF8E3
:103C600042209A79D97942EA0122ADF844201A7AA1
:103C70005B7A1FFA88F742EA03233846ADF84630EC
:103C800001F086F8814668B98DE8A0000295356894
:103C9000484B444A3F494448A84702213846FFF769
:103CA0005BFC09E610A900F059FD28B91E21384631
:103CB000FFF752FC484685E70E2142F22000FEF74E
:103CC00059FB06460028F5D00E21083010F0BEF84A
:103CD0000E2205460021FEF7F7F8BDF840306B8054
:103CE000BDF84230AB80BDF84430EB80BDF84630C3
:103CF000A5F800802B81314642F22000FEF7DEFD60
:103D0000D8E7A3685F88B3F80690B3F80480B3F8E7
:103D100008A01B880993184601F03AF8099B8346CE
:103D200028B90193029500953568234B2EE7366834
:103D300011F038FA204B0190144A16491F48069595
:103D4000CDF814A0CDF81090CDF80C800297009516
:103D5000B0476FF480710BF10400FEF763FAC00501
:103D600002D55846FEF770FA58462BE7D4F808807B
:103D7000B8F80190484601F00BF8074610BB8DE8F3
:103D80002002029535680E4B00E700BF7A690100FA
:103D90005B6B0100297A0100C2750100C76B01004D
:103DA000EC750100E179010016760100736B0100EA
:103DB000603A0020B56B01008B6B01004A76010070
:103DC0009E6B0100366811F0EDF9059598F8043006
:103DD000049398F80330039398F80030029301900D
:103DE0000095AC4BAC4AAD49AD483D1DB0476FF0B6
:103DF00080012846FEF716FA01067FF5F6ADA94BBD
:103E000093F878309A060BD597F864309B0607D55F
:103E10003846FFF777FA18B94FF480712846FBE669
:103E20003846FEF711FAE0E5A768366811F0BAF9EE
:103E300003953B78029301909B4B974A97499B4887
:103E40000095B0476FF020019948FEF7EBF93B78F9
:103E500043B9791C40229748FEF70AF8102194488C
:103E6000FEF7CFF9944B1D687E1C002D3FF424AD66
:103E70003A782B68002A0CBF3046002098476D68BE
:103E8000F3E7A768366811F08DF903953B78009544
:103E90008A4D02930190804A894B80498348B047FC
:103EA0002A68002A3FF408AD3B7823B9781C904774
:103EB00000232B6000E50020F9E709980FF0EDFFE3
:103EC00037680A9011F06EF90A9B029301900395EE
:103ED00000957C4B704A71497B48B8470A9B002B80
:103EE0003FF4EAACA768099809210FF0CEFF3B7AAE
:103EF000D6F800903B4407F1010893F909300B9381
:103F000011F050F982464046FEF75EF80B9B06958D
:103F100005933B7A04933B7803930290694B5F4986
:103F20006A485D4A8DE82004C8477B78023B012B34
:103F3000414610A800F29880FEF760F99DF84030E5
:103F4000023B8DF84030DFF88CB1DBF80030A3B1D4
:103F500009980FF0B2FF3B7AB4F80CA0A381814618
:103F6000099BDBF800B03A780B9910A8D847236971
:103F7000A4F80CA013FA89F3A36009214C483A78FD
:103F8000FEF7EAF98246002864D1012A62D80121AD
:103F900010A800F02DFF814600285BD0082144487E
:103FA000FEF7DAF9002862D102214148FEF7D4F980
:103FB00010B14748FEF714FB3A4909F14B0009F1EB
:103FC000520AFEF71BF941465046FEF717F9192130
:103FD00042F20D00FEF7CEF9834600284CD019219D
:103FE00008300FF033FF192280460021FDF76CFFE7
:103FF0000022602388F8003088F8012088F8023019
:1040000088F80320514608F105000B92FEF7F6F8F8
:1040100099F84B3088F80C30B9F85C30A8F80D30BE
:10402000B9F85E30A8F80F30B9F86030A8F8113050
:10403000B9F86230A8F813300B9A594642F20D00D5
:10404000FEF706FAC0B94846022100F0C3FF484611
:1040500000F0ECFE397A099801310FF016FF0A9B47
:10406000013BDBB20A9339E7FEF7C8F86BE750462D
:10407000FEF780FA002897D01F2389F80830002126
:10408000484600F0A7FF484600F0D0FE0020FEF7AB
:10409000B5FCDFE79E6B01007A690100297A010017
:1040A00086760100603A0020DF6B0100C5760100D2
:1040B000D03A002090020020D00200208C02002084
:1040C000F06B0100426C0100E776010015770100FA
:1040D000613A0020D8020020D6F80080A689A068A6
:1040E0003146FDF715FF8DE8A00003901C4B1D4ADB
:1040F0001D491E4804950296C047FFF7DDBB8DE8B9
:10410000800202971A4B1B4A17491B48D8F80050E7
:10411000A84720460FF068FE6FF01500FFF7EDBBD3
:1041200004F108030221184609930FF0AEFE9AF835
:104130000070052F3FF40FAC3E2F3FF468ACD6F86B
:104140000080A689A0683146FDF7E2FE0495039041
:1041500002968DE8A000094B024A03490848CBE7C4
:10416000506C0100647A0100297A01004B7701004C
:10417000C26D0100E1790100B2770100626C0100BB
:10418000807701002DE9F04F037DD0F80880864E3E
:10419000864C012B89B005460DD0019400943468FB
:1041A000834B844A84498548A047404080F3118866
:1041B0004FF0040002DF8289012A07D8019400949D
:1041C00034687B4B7B4A7C497D48EDE798F80020BA
:1041D000132A00F2E180934013F40C2F00F0DC80EE
:1041E00000F10807022138460FF04FFE98F8003022
:1041F0000F2B2DD0132B4CD00E2B40F0C280AB6870
:104200003668B3F8018093F8009010F0CBFF6D4B47
:104210006D4A019068496D480394CDF80880009478
:10422000B047032138460FF030FEAB682A461978B4
:104230004046FEF717F8B9F1000F02D0644810F0BD
:10424000E5FF28460FF0D0FD002009B0BDE8F08F53
:10425000D5F808803668B8F8029098F801A010F0F8
:10426000A1FF594A01905B4B534958480394CDF83C
:1042700008900094B047042138460FF006FE2A4605
:1042800098F800104846FDF7EDFFBAF1000FD8D0BE
:10429000D4E7D5F808B0376810F084FF03949BF892
:1042A00000300293019000944B4B474A42494B48DF
:1042B000B8474FF000099BF800309945C1DA0BEB85
:1042C0008903D6F80080B3F801A0B3F8037010F0AA
:1042D00069FF049401900397CDF808A000943E4B29
:1042E000394A35493E48C0474FF02003EFF3118269
:1042F00083F311885046079200F04AFD804670B95A
:104300008DE8100402943768334B2A4A2A4935480D
:10431000B847079B83F3118809F10109CBE7079B95
:1043200083F3118800F1180AF7B14FF02003EFF37F
:10433000118083F31188D8F8101041B1D8F81420F7
:104340000B68C8F81030914208BFC8F8143080F3E9
:104350001188013FBFB259B90194009437681E4BD0
:10436000144A15492048B847404600F05FFDD3E79E
:10437000504610F09DFB404600F0D8F910F046FF83
:10438000D2E728460FF030FD019400943468084BC2
:10439000084A0949154807E7019400943468044B1A
:1043A000044A05491248FFE65C3A0020BA61010060
:1043B000CA6D0100E1790100297A01001578010038
:1043C00059780100226C01007A690100937801009C
:1043D000083B0020336C0100176B0100B678010028
:1043E000DA780100027901002E7901005579010087
:1043F000787901007FB5134BD3F8D4400546D4B982
:10440000C268DAB10269CAB1C3F8D4000E4B1E68A3
:1044100010F0C8FE0D4A2B680392002B08BF13460C
:104420000293019000920A480A4B0B4A0B49B0478D
:10443000204604B070BD6FF04400FAE76FF015003D
:10444000F7E700BF603A00205C3A0020BA61010043
:10445000EE700100D76D01007A690100297A010030
:1044600070B52B4DD5F8D43086B0064673B9294BBC
:1044700001930093284B294A1C682949294B2A4853
:10448000A0476FF01204204606B070BD012105F16F
:104490007000FDF7B6FE10F0010035D1234B244922
:1044A0001E606FF008030590049003930290019042
:1044B0000090204B20484FF46B7211F0C3F8D5F8F0
:1044C000D430DB689847044658B1124B02938DE80C
:1044D0001800114B114A1D681149124B1748A84783
:1044E000D1E726B906B0BDE87040FEF7B9BA0121A0
:1044F00005F16C00FDF785FEC307C4D405F1640126
:104500000F4810F0D5FABEE76FF04404BBE700BFD8
:10451000603A0020BA6101005C3A0020E1790100B4
:10452000297A0100EE6D0100246F0100D402002001
:10453000081A00208D350000DC0200204D6F0100BC
:10454000881900200020704770B50378012B0546BC
:104550000E4610D84378012B0DD841880B1F9BB213
:1045600043F6FC70834206D8AA88131F9BB283428D
:1045700001D891422BD26FF015040EE008211948A2
:10458000FDF7EAFE58B11046FDF7F4FF044630B1DE
:104590006FF400711348FDF745FE204670BD6B783F
:1045A0007BB14FF400610F48FDF72BFEAA886988A4
:1045B0002878FEF7D3F904460028E9D10A4B1E609B
:1045C000EBE76FF400610748FDF72CFEEEE74FF4D0
:1045D00000710448FDF715FE10F40072CED06FF0A4
:1045E0004404DAE7D03A0020D802002008B56FF47E
:1045F00000710748FDF716FE830506D5054B002020
:104600001860BDE80840FEF7F9B96FF0440008BD36
:10461000D03A0020D802002038B500F0FD03012B6D
:1046200005460AD041F25A330A4A0B490B48FCF7B7
:10463000ADFC0B48FCF7AAFCFEE70A480FF0A4FB10
:10464000044620B1002108300FF0BDFB257520463F
:1046500038BD00BFA96F0100316E01009C610100EF
:104660005D6E01008C3F0020F0B5064685B04FF02E
:104670002003EFF3118283F31188144B0025D3F844
:10468000C040C3F8C05082F31188114B1F6810F06E
:1046900089FD104B03930190009302940E4B0F4A37
:1046A0000F491048B84734B93146012005B0BDE87C
:1046B000F040FFF7B1BF012304F108002375A58185
:1046C00029460FF080FB204605B0F0BD603A00207F
:1046D0005C3A0020BA610100F86D01007A690100BE
:1046E000297A0100106E010038B5064B1C6805469A
:1046F00004B938BD236813B1297A2846984724693C
:10470000F6E700BF4C030020BFF35B8F0068BFF3E8
:104710005B8F7047438910B504462BB1C0680FF01A
:1047200063FB0023E360638110BD00000048704715
:10473000EC3A0020084B70B51C68054604B970BD02
:10474000E6683EB1B5F86230B5F86020B5F85A10A9
:104750002846B0472469F1E74C030020F8B5074626
:1047600008460E46FDF7C6FF054610B90025284647
:10477000F8BD094B1C68002CF9D0A3680BB924695B
:10478000F9E73146384698470028EFD03046FDF724
:10479000B1FF0028F3D1E9E74C030020024B1A686F
:1047A00002611860704700BF4C0300202DE9F047FC
:1047B000DFF80882714ED8F8007086B092460D4638
:1047C000044610F0EFFC0596CDF810A0AB890393DA
:1047D0002388029301900096694B6A4A6A496B48A4
:1047E000B847BAF1010FC146374640D0BAF1020FBF
:1047F00040F0A380AB68D9F80060B3F8008010F0F7
:10480000D1FC0497CDF80C80AB89029301905C4BEE
:1048100000975C4A5C495E48B04763895BB1019789
:1048200000975C48D9F80060554B5B4A5649B04741
:104830002046FFF76FFFAB89D9F80060A8EB0308AB
:1048400008F10408A4F80A8010F0ACFC039763890F
:10485000029301904A4B00974A4A4B494F48B04750
:104860006389002B57D0E56006B0BDE8F087638907
:104870008BB901960096D8F80060414B464A4249F0
:104880004748B0472046FFF745FF284606B0BDE839
:10489000F0470FF0A9BAAA899A4208D90196009662
:1048A000D8F80060364B3C4A37493E48E9E7D8F82B
:1048B00000A010F077FC049663890393AB89029300
:1048C00001902F4B2F4A304937480096D047E06877
:1048D000B5F80CA008300FF0F4FA824508D901961B
:1048E0000096D8F80060264B2B4A27492F48C8E786
:1048F000E068AA89A96808300FF0AEFA6389AA892E
:104900009B1A638128460FF06FFA6389002BABD1A5
:10491000E5686381E360AB68AA891B88191D914231
:1049200016D00292019303970097D9F80040144BD8
:10493000194A15491E48A047A7E78DE8400402968A
:10494000D8F800600E4B144A0F491A48B04799E74F
:10495000D9F8006010F026FC0397AB890293019010
:104960000097074B074A08491348B0472946204695
:1049700006B0BDE8F04701F033B900BFBA610100ED
:104980007C7E01007A690100297A010046800100DD
:1049900077800100A3800100E1790100D08001004F
:1049A000EF8001001D810100418101006D81010046
:1049B000D2810100A4810100FE8101005C3A002047
:1049C0002DE9F043DFF88080184DD8F8009087B0CB
:1049D0000C460646174610F0E5FBA389039333887F
:1049E00002930190124B059504970095114A1249C4
:1049F0001248C847737A032B10D0019500950C4BD1
:104A00000F4A0D490F48D8F80050A84720460FF02C
:104A1000EBF96FF0380007B0BDE8F08306F128002D
:104A2000676121460FF0D3F90020F4E7BA61010075
:104A3000897E01007A690100297A01006282010001
:104A4000E1790100978201005C3A00202DE9FF41E5
:104A5000154B164D1C68064610F0A4FB144B03932F
:104A6000019000930296134B134A14491448A0472F
:104A700006F118074FF000080021384610F050F8F2
:104A8000044610B904B0BDE8F08163680BB130464C
:104A900098472B6823606B68C4F804802C60002B57
:104AA000EAD16C60E6E700BF5C3A0020F803002022
:104AB000BA610100997E01007A690100297A01003A
:104AC0007D7F01002DE9F04FDFF8C0915F4ED9F8EE
:104AD000008089B00F46144605469A4610F062FBE6
:104AE00006960594BB895A4A04930190594B5A493A
:104AF0005A48039702950096C0474FF0FF31584837
:104B000010F0ACFB574B03F14000FFF7FDFDB04642
:104B100030B15A7A033A012A02D81846FFF796FFB5
:104B20006B7A032B74D1042107F108000FF0A5F96B
:104B30002A88D7F814B04C4E42EA04320280BB896E
:104B4000D9F80040043B438002233B7510F02AFB58
:104B5000CDF810800190CDF80CB00295CDF8008012
:104B6000424B3B4A3C494248A047346854B940F262
:104B70006B43404A40494148FCF708FA4048FCF77B
:104B800005FAFEE7726823683360944208BF7360D9
:104B9000C4F804B04FF02003EFF3118283F31188BF
:104BA000002323606B69002B41D16C612C6182F37F
:104BB00011883846FDF756FE002844D0CDF808800D
:104BC0000190CDF80080234BD9F800802D4A22496E
:104BD0002D48C0474FF02003EFF3118183F3118874
:104BE0002B69002253B19C422AD1236812BB6A6907
:104BF0002B61944200D16B610023236081F3118803
:104C000000236360336823607368346003B97460A1
:104C1000134810F0FBFABAF1000F04D038460FF039
:104C2000E3F84FF0000A504609B0BDE8F08F1C6071
:104C30006C61BCE713606B699C4208BF6A61DBE78B
:104C40001A461B68CEE74FF0010AECE7BA61010093
:104C50007A690100BA7E0100297A0100848301008B
:104C6000EC3A002060030020F8030020AB7E010036
:104C7000BC830100DF8301001B8401009C610100F3
:104C800039840100E1790100337001005C3A0020B1
:104C9000F8B5174C04F1400607463046FFF734FDDF
:104CA000054608B10020F8BD014698222046FDF7D0
:104CB0000BF9BFF35B8F012356E8002F46E8003164
:104CC0000029F9D1BFF35B8F0722394604F1440074
:104CD000FDF7CEF81823A4F85C30282304F1700007
:104CE000A570A4F85E30034910F0E0FD2046F8BD41
:104CF00060030020E154000038B50D46044600F181
:104D0000440107222846FDF79EF860B1E3780722A8
:104D100033B904F152012846BDE83840FDF793B895
:104D200004F14B01F7E738BD70B5044686B000F1D9
:104D30004005BFF35B8F55E8003F013345E8003283
:104D4000002AF8D1BFF35B8F0B4B1E6810F02AFAD4
:104D5000024628462188FFF7D7FC084B04930390AE
:104D6000029101920093064A064B07490748B04753
:104D7000204606B070BD00BF5C3A0020BA61010059
:104D80007A690100097F0100297A01003C82010053
:104D900008B50A4B014603F14000FFF7B5FC58B1D6
:104DA0005A7A033A012A07D81A888A4204D1184647
:104DB000BDE80840FFF7B8BF002008BD6003002031
:104DC00010B50A4C014604F14000FFF79DFC50B1BC
:104DD000A37843B92046FFF78FFF20B92046BDE8EE
:104DE0001040FFF7A1BF002010BD00BF60030020EE
:104DF00038B50D4C034604F140000D46FFF784FC26
:104E000080B1A27872B93BB9637AAB420AD1064845
:104E1000BDE83840FFF788BF19462046FFF76CFF12
:104E20000028F1D0002038BD6003002070B5054691
:104E300086B000F14004BFF35B8F54E8003F013BB4
:104E400044E80032002AF8D1BFF35B8F0A4B1E689A
:104E500010F0A8F9024620462988FFF755FC074BB9
:104E600004930390029101920093054A054B064971
:104E70000648B04706B070BD5C3A0020BA61010038
:104E80007A690100157F0100297A01003C82010046
:104E900038B5044600F12805002128460EF07AFFB7
:104EA00060B923696BB140F20B530B4A0B490C48B4
:104EB000FCF76CF80B48FCF769F8FEE70EF094FF7E
:104EC000EAE72046FFF7C2FD2046FFF723FC204615
:104ED000BDE83840FFF7AABFDF8301002883010047
:104EE0009C6101004E8301002DE9FF412E4D2F4CA6
:104EF0002F68064610F056F92D4B01902D4A2E4989
:104F00002E4802940094B8472D4B002201213046D0
:104F10009A6010F06BFE2B4B03F14000FFF7F4FB9F
:104F20002A461F46254618B9012004B0BDE8F08185
:104F3000597A99B9BFF35B8F191D51E8000F20F022
:104F4000400441E8004EBEF1000FF6D1BFF35B8F85
:104F5000410603D51846FFF79BFFE5E77C7A032C53
:104F6000E2D1D2F8008010F01DF9114B0190114AE6
:104F700011491548039502970095C047134B00222D
:104F8000042106F1140010F031FE012386F82030D0
:104F900006F128000E4B0022042110F027FE022308
:104FA00086F834302046C0E75C3A0020BA61010040
:104FB000CD7E01007A690100297A01009A7F010003
:104FC000883B002060030020B07F010078030020B0
:104FD000880300202DE9F0430446734EDFF8048275
:104FE000356887B00F4610F0DDF8637A6F4901909D
:104FF000042B96BF6E4A6F4B52F823300293042F56
:1050000096BF6B4A6B4A52F827200392CDF8108066
:10501000CDF80080684B694A6948A847657AAF4275
:10502000C1460CD1CDF80480CDF800803468624BC5
:10503000644A5E496448A04707B0BDE8F0836772E0
:1050400095B1022D14D0637A042B00F2A08001A246
:1050500052F823F0B750000039500000735100009F
:1050600081500000395000002046FFF75DFEEAE75E
:10507000A378002BE7D104F1700010F027FCE2E7E1
:10508000A378022BD8D004F128000FF009FD04F119
:1050900018000FF005FD00214C4810F013FF00230D
:1050A0002046A363E36300F02FFC204607B0BDE871
:1050B000F043FFF719BBA378022B05D1204607B0B8
:1050C000BDE8F043FFF7B2BEEB1E012B44D82046EB
:1050D00000F054FC3E4B1D68EDB93E4E3E4F4FF084
:1050E0002003EFF3118183F3118823692BB16069E9
:1050F0001A682261834208BF626181F311888BB113
:1051000032681A6072685D60336002B97360384655
:1051100010F07CF8E3E76B6813B1217A20469847DA
:105120002D69D9E7A3781BB904F1700010F0CEFB0C
:10513000BFF35B8F043454E8003F43F0400344E87E
:105140000032002AF7D1BFF35B8F2048002107B05F
:10515000BDE8F04310F0B6BE022D03D12046FFF7A4
:10516000C3FAABE7012D7FF467AF237A002BA5D0FC
:10517000F4E7A378002B7FF45FAF184840F6B8320D
:1051800004F1700107B0BDE8F04310F003BCCDF8A6
:1051900008900197CDF800903468074B094A0349FD
:1051A0000F48A04748E700BF5C3A0020297A010079
:1051B000687E0100B6820100F77E01007A69010075
:1051C000C0820100647A0100DE820100883B002079
:1051D0004C030020F8030020EC3A0020881900203E
:1051E000FC820100BA6101004430704770B5064688
:1051F00008460D46FDF77EFA08B900241CE01D485C
:10520000FFF782FA8305F8D43046FFF7D9FD04464C
:10521000A0B1437A012B06D001D3032B0CD9204631
:10522000FFF704FEE9E76B88A0F85E30AB88A0F8D2
:105230006030EB88A0F86230204670BD3046FFF742
:1052400027FD04460028F7D0072231465230FCF7EC
:105250000FFE6B88A4F85E30AB88A4F86030EB8852
:10526000A4F8623020460121FFF7B4FE0120FDF7CB
:10527000C5FBE1E7D03A002070B506460D4600298F
:105280003BD13046FFF79CFD044628B93046FFF776
:10529000FFFC0446002851D0231D002D35D06A881C
:1052A000A4F85E20AA88A4F86020EA88A4F8622006
:1052B000BFF35B8F53E8002F42F0010143E8001079
:1052C0000028F7D1BFF35B8FD10702D42046FFF748
:1052D0002BFD637A63B91B48FFF716FA830707D5DE
:1052E0001DB101212046FFF775FE0020FDF786FB6A
:1052F0002046FFF79BFD002070BD0846FDF7FAF938
:105300000028BED16FF0150070BDBFF35B8F53E86E
:10531000002F22F0010143E800100028F7D1BFF36D
:105320005B8FD207D5D52046FFF780FD637A012B2E
:10533000CFD129462046FFF74DFECAE76FF00B009C
:1053400070BD00BFD03A002070B50E46817804468B
:1053500011B94430FFF790FF637A013B032B03D868
:10536000DFE803F006101B0E6FF03805284670BD0D
:10537000204626720021FFF72DFE0020FDF73EFBA0
:105380000025F3E704F1700010F0A0FA002142F2CA
:105390000E00BDE87040FDF791BA032140F20640CF
:1053A000FCF7E8FF054698B1032108300EF04EFDEA
:1053B000238803808670294640F20640FDF77EFA76
:1053C00005460028D2D104212046FFF703FECDE791
:1053D0006FF03605CAE7F8B507460D4642F21300EE
:1053E0000E21FCF7C7FF0646C8B10E2108300EF0AB
:1053F0002DFD002104460E22FCF766FD3B8823802C
:105400002B8863806B88A380AB88E380EB88238143
:10541000314642F21300BDE8F840FDF74FBA6FF095
:105420003600F8BD70B5274B0D468AB004461E689D
:105430000FF0B8FEEA880792AA8806926A88059259
:105440002A88214B049294F86420089303920190D7
:1054500000931E4A1E4B02941E491F48B047B4F8E1
:105460005A302A889A420CD86A889A4209D3B4F8EA
:105470006020AB889A4204D1B4F86220EB889A424B
:105480001CD004F1700010F021FA144B93F878301E
:105490009A0703D594F864309B0701D4E37833B9B5
:1054A000294620460AB0BDE87040FFF794BF294660
:1054B00020460AB0BDE8704000F0D6BB6FF0440053
:1054C0000AB070BD5C3A0020BA6101007A6901003F
:1054D000237F0100297A01003B7F0100603A002010
:1054E000034607B513F8672C022AA0F1700005D116
:1054F0001321FFF729FF03B05DF804FB33F8142CE8
:10550000ADF8002033F8122CADF80220694633F8CC
:10551000102C33F80E3CADF80420ADF80630FFF740
:1055200081FFE8E738B50E4B0D46002808BF184646
:105530004FF0FF310EF028FC044650B94FF4F263EF
:10554000084A09490948FBF721FD0948FBF71EFDF8
:10555000FEE7291D08300EF036FC204638BD00BF9E
:105560002C3F0020DF830100E96F01009C610100F6
:10557000BA6101002DE9F04106460C4616480021AB
:10558000FFF7D0FF3378032B05464FF0000605D018
:105590000EF02AFC35462846BDE8F081466100F150
:1055A00008070E4E3846B6F888800EF08AFC804513
:1055B0000CD2B6F8886054F8081F324638460EF010
:1055C0004BFC314620460EF060FCE4E738460EF016
:1055D00078FC86B2EFE700BF4C3F0020603A002025
:1055E0002DE9F041494F4A4D3E6886B004460FF020
:1055F000D9FD484B0190039502940095464A4749CE
:105600004748B047637AB8462E460BBBBFF35B8F63
:10561000231D53E8002F22F0400143E8001000282A
:10562000F7D1BFF35B8F530612D53E680FF0BAFD7A
:1056300003952388029301900095364B364A3749EB
:105640003848B047204606B0BDE8F041FFF720BC1F
:10565000002104F128000EF09DFB054670B901966B
:105660000096D8F800402B4B2F4A2C492F48A047D2
:10567000404080F311884FF0040002DFD8F800703A
:105680000FF090FD0596AB890096294E049301908A
:10569000214A224903950294264B2748B847A989F5
:1056A000B6F88820914209D800231A462946204698
:1056B000FFF708FA50B106B0BDE8F08104F1090720
:1056C00029463846FFF756FF014628B9284606B056
:1056D000BDE8F0410EF088BB012300222046FFF711
:1056E000F1F90028F2D0AA89B6F888309A4202D897
:1056F00000230122DAE729463846FFF73BFF01463F
:105700000028E3D001231A46E8E700BF5C3A0020F6
:10571000BA610100E47E01007A690100297A010082
:105720007D7F0100E17F0100E1790100D67B01006E
:10573000603A0020C47E01001B800100034BC01AA8
:10574000034BC0105843C0B2704700BF6003002035
:105750001BCA6B28124B134A196810B5116059689F
:1057600001B95A60596892600F4A1A6001B95A60CB
:1057700001F09EFB02F024F9044670B900F09CFA97
:105780000A48FEF7C1FF40B10948FEF7BDFFC30755
:1057900003D501210748FFF71DFC204610BD00BFBF
:1057A000F80300205003002058030020A00300202D
:1057B0006403002060030020704700001FB50B4AFF
:1057C00013682BB90A4850600A60184604B010BD2F
:1057D000084B02930093084B01901C680748084B44
:1057E000084A0949A0476FF00B00EFE700040020CA
:1057F000A43B0020BA6101005C3A00203C85010016
:10580000CD840100E1790100297A0100F8B507464D
:105810000E46002004211546FFF784FE04210446AD
:1058200008300EF013FB0770467045802046F8BD27
:105830007047000000238360054B596800F108029F
:1058400011B95A601A6070470A605A60704700BF09
:1058500098040020836B10B513B1083B002203B9F4
:1058600010BD8B4203F108040FD199683AB9C26B9D
:105870008163944200D1C16300229A6010BD11601F
:10588000C16B8C4208BFC263F6E72246002CE7D00A
:105890009B68002BE4D0083BE1E7036810B50446A1
:1058A0002BB143685B6803B1984700232360E3682A
:1058B0001BB12046BDE81040184710BD7FB50C4B0A
:1058C0000293A0F110048DE818000A4B0A4A1E68E2
:1058D0000A490B4B05460B48B04755F8100C2146BA
:1058E000FFF7B8FF204604B0BDE87040FFF7D5BF12
:1058F000BA6101005C3A0020E1790100297A0100D7
:1059000077840100908601001A4B2DE9F7431C684B
:1059100006462CB10027DFF86080083CB94614B970
:1059200003B0BDE8F083636801A9304698470028BA
:1059300018DB019D23882B87A5F85830414605F1D7
:1059400010000FF0B3FFAF60F26B05F1080372B9FE
:10595000F363B36301982E604368C5F80C901B682D
:1059600003B19847A468002CDAD0083CD7E713604D
:10597000F363EFE798040020BD580000836B10B577
:10598000A3B1B3F108000AD110BD083CFFF785FFB1
:1059900064B1A36803B1083B20461C46F6E71C68C7
:1059A000002CF2D1BDE81040FFF777BF10BD0431E5
:1059B000FFF7B8BDF8B5144605460F4602F10800DA
:1059C00004211E460EF059FAA1894780043901804E
:1059D000324621462846BDE8F840FEF7F1BF0000F8
:1059E000F0B58B89032B87B007460D460AD85E4B6E
:1059F000019300935D4B5E4A1C685E495E4B5F48B5
:105A0000A04715E00846042150F8084F66880EF0BC
:105A10003CFAAA8996420DD0534B03930093534B03
:105A2000019202961C68524A534B52495448A0476F
:105A300007B0F0BD617849B94B4B019300934B4BD4
:105A40004B4A1C684B494C4B4E48D9E72378122BE4
:105A50002CD0132B1ED0012BEAD0434A02928DE8A2
:105A60000C00424B484A1D684249434B4748A847EF
:105A7000022261783D680120FFF7C8FE022104463A
:105A800008300EF0E3F9002303704370224605212D
:105A9000284629E0012ECBD8334B01930093334B9A
:105AA000334A1C6833493A4B3A48A9E7072E09D8CC
:105AB0002D4B019300932D4B2D4A1C682D49364BDD
:105AC00036489DE73C68E6788EB102220120FFF758
:105AD0009DFE0221054608300EF0B8F90023037040
