:10000000E02C0020DD1A0000311B000075190000F3
:1000100075190000751900007519000075190000A8
:100020007519000075190000751900007D15000094
:1000300075190000751900003915000075190000C8
:10004000A11A0000BB0C0100A11A0000A11A0000B7
:10005000A11A0000A11A0000A11A0000A11A0000B4
:10006000A11A0000A11A0000A11A0000A11A0000A4
:10007000A11A0000A11A0000A11A0000A11A000094
:10008000A11A0000A11A0000A11A0000A11A000084
:10009000A11A0000A11A0000A11A0000A11A000074
:1000A000A11A0000A11A0000A11A0000A11A000064
:1000B000A11A0000A11A0000A11A0000A11A000054
:1000C000A11A0000A11A0000A11A0000A11A000044
:1000D000A11A0000A11A0000A11A000000000000EF
:1000E0007512000000000000ED1800000000000084
:1000F000ED18000000000000ED18000000000000F6
:10010000ED18000000000000ED18000000000000E5
:10011000CD2C010000000000ED18000000000000E0
:10012000ED18000000000000ED18000000000000C5
:10013000ED18000000000000810C0100000000002C
:10014000ED180000B03E0020D12F0100000000009B
:10015000ED18000000000000ED1800000000000095
:10016000ED180000000000009D13000000000000DA
:10017000ED18000000000000ED1800000000000075
:10018000ED18000000000000ED1800000000000065
:10019000ED18000000000000ED1800000000000055
:1001A000B50C010000000000ED1800000000000088
:1001B000ED18000000000000ED1800000000000035
:1001C000ED18000000000000ED1800000000000025
:1001D000ED18000000000000ED1800000000000015
:1001E000ED18000000000000ED1800000000000005
:1001F000ED18000000000000ED18000000000000F5
:10020000ED18000000000000ED18000000000000E4
:10021000ED18000053B94AB9002908BF00281CBFD7
:100220004FF0FF314FF0FF3000F08EB9ADF1080C08
:100230006DE904CE00F01AF8DDF804E0DDE90223F0
:1002400004B07047430803F05533C01A830803F025
:10025000333300F03330184400EB101000F00F304F
:1002600000EB002000EB0040000E70472DE9F04746
:100270008C460D460446089E002B51D18A421746F3
:100280006DD9B2FA82FEBEF1000F0BD0CEF1200C78
:1002900001FA0EF520FA0CFC02FA0EF74CEA050CF6
:1002A00000FA0EF44FEA174A250CBCFBFAF81FFAC5
:1002B00087F90AFB18CC45EA0C4508FB09F3AB4269
:1002C0000AD9ED1908F1FF3280F02381AB4240F2E8
:1002D0002081A8F102083D44ED1AA4B2B5FBFAF062
:1002E0000AFB105544EA054400FB09F9A14509D968
:1002F000E41900F1FF3380F00A81A14540F2078143
:1003000002383C44A4EB090440EA08400021002ED6
:1003100061D024FA0EF4002334607360BDE8F087E6
:100320008B4207D9002E54D0002186E821000846D0
:10033000BDE8F087B3FA83F1002940F08E80AB422C
:1003400002D3824200F2FA80841A65EB0305012091
:10035000AC46002E3FD086E81010BDE8F08712B9F9
:100360000127B7FBF2F7B7FA87FEBEF1000F34D1D1
:10037000EB1B3A0C1FFA87FC0121B3FBF2F8250CAA
:1003800002FB183345EA03450CFB08F3AB4207D9DF
:10039000ED1908F1FF3002D2AB4200F2D180804665
:1003A000ED1AA3B2B5FBF2F002FB105543EA054487
:1003B0000CFB00FCA44507D9E41900F1FF3302D27D
:1003C000A44500F2B8801846A4EB0C0440EA0840AB
:1003D0009DE731463046BDE8F087CEF1200405FAAE
:1003E0000EF307FA0EF720FA04F83A0C25FA04F493
:1003F00048EA0308B4FBF2F14FEA184502FB114446
:100400001FFA87FC45EA044501FB0CF3AB4200FAF6
:100410000EF409D9ED1901F1FF3080F08A80AB426A
:1004200040F2878002393D44EB1A1FFA88F5B3FB8E
:10043000F2F002FB103345EA034500FB0CF3AB423C
:1004400007D9ED1900F1FF386FD2AB426DD90238F0
:100450003D44EB1A40EA01418FE7C1F1200722FA3F
:1004600007F88B4005FA01F448EA030320FA07FE77
:100470004FEA134CFD404EEA040EB5FBFCF94FEA7F
:100480001E440CFB19551FFA83F844EA054509FB85
:1004900008F4AC4202FA01F200FA01FA08D9ED18A8
:1004A00009F1FF3043D2AC4241D9A9F102091D4400
:1004B0002D1B1FFA8EFEB5FBFCF00CFB10554EEA0F
:1004C000054400FB08F8A04507D9E41800F1FF3502
:1004D00029D2A04527D902381C4440EA0940A4EBA0
:1004E0000804A0FB02894C45C6464D4615D312D0E0
:1004F00056B1BAEB0E0364EB050404FA07F7CB40E0
:100500001F43CC40376074600021BDE8F087184677
:10051000F8E69046E0E6C245EAD2B8EB020E69EB97
:1005200003050138E4E72846D7E7404691E78146CE
:10053000BEE7014678E702383C4445E7084608E74D
:10054000A8F102083D442BE7704700BF70B503785F
:100550008AB004460E4607AD032B20D8DFE803F02F
:1005600002191B1D1149284601F014FB6278049200
:10057000A2780392E2780292227901926279009243
:10058000A37905950A4A1B21304600F00DFD0AB0FB
:1005900070BD0849E7E70849E5E70849E3E7084A85
:1005A0000A21284600F000FDE0E700BF55450100A4
:1005B0007E4501005C450100634501006D45010079
:1005C0007745010030B589B00D46044603F0E4FFDD
:1005D00001A9FFF7BBFF35B12A4601A9084800F081
:1005E000D5FC09B030BD074B1B689C42F9D101A96D
:1005F000054800F0CBFC1321204604F07DF8F0E71D
:10060000A145010000000020BF45010030B5134C9A
:10061000236883428BB00D461DD103F0BDFF03A9B3
:10062000FFF794FF2A4603A90D4800F0AFFC2068AD
:1006300003F0FAFD002323600A4B0B491868019070
:100640009B88ADF8083001A803F0F4F9014610B119
:10065000064800F09BFC0BB030BD00BF000000203E
:10066000EA450100F8440100710600000846010057
:1006700070B5104C23688AB006460D46C3B9012AEE
:1006800016D803A9FFF762FF2A4603A90A4800F01B
:100690007DFC46350CDB03F01FFA48B9074A1068A9
:1006A000516801AB03C301A9304603F077FF206016
:1006B0000AB070BD00000020CE450100FE440100DC
:1006C00007B5002003F046F9014628B10E4800F0B6
:1006D0005DFC03B05DF804FB0C4800F057FC0C48CF
:1006E00003F09CFA0B4B0C49186800909B88ADF8FE
:1006F0000430684603F09EF9014608B10748E6E772
:10070000074800F043FCE4E72B4601004B4601009C
:10071000203A00200645010071060000084601004D
:10072000624601000C4B1B78062B12D10B4B18684C
:1007300010F00F000DD104331B6803F0F003302BD1
:1007400008D1074B1B6813F0F00F0CBF01200020ED
:1007500070470020704700BFE00F00F0E40F00F08A
:10076000EC0F00F008B54FF02003EFF3118183F395
:100770001188FFF7D7FF20B13D4AD36823F080737B
:10078000D360FFF7CFFF10B13A4B03221A60FFF797
:10079000C9FF30B14FF080430022C3F80C21C3F8E9
:1007A0001021354B1B78062B17D1344B1B681807CB
:1007B00013D1334B1B6803F0F002302A03D003F04F
:1007C000E003402B09D14FF08043D3F80024D20737
:1007D00003D56FF00102C3F800244FF01022D2F8C5
:1007E0000032002B274B03DBD2F80022002A2FDA3D
:1007F0000122C3F80425D3F80024002AFBD04FF0CF
:1008000010231522C3F800221E4A1346D2F8001402
:100810000029FBD04FF010221521C2F80412D3F8A2
:100820000024002AFBD00022C3F80425154AD2F880
:100830000034002BFBD0BFF34F8F1349134BCA6812
:1008400002F4E0621343CB60BFF34F8F00BFFDE7BC
:100850000122C3F840250C4B4FF0FF329A62DA6256
:100860000B4B0C4A1A6081F31188002008BD00BFB1
:10087000F0ED00E0A0050040E00F00F0E40F00F014
:10088000E80F00F000E0014000ED00E00400FA0590
:10089000543A00200090D00308B50446084611469B
:1008A0001A46A04713F0DAF801F0D4F810B5C47A6C
:1008B000C0688C424FF00C04B6BF614304FB0101D9
:1008C0004158202492FBF4F401EB8401196002F0FA
:1008D0001F0010BD07B501ABFFF7E8FF019A012328
:1008E00003FA00F013680343136003B05DF804FBE0
:1008F00007B501ABFFF7DAFF019A012303FA00F015
:10090000136823EA0003136003B05DF804FB2DE9CC
:10091000F0474368058904460068A77A5D43284488
:1009200000214FF00C0E4FF0200CB94205DB0025E2
:1009300023899D4223DBBDE8F087D4F80C90B5FBFA
:10094000F3F20EFB01F81F2A09EB08064FEA9303A6
:1009500006F1040AC8BF1F3203F10303C6F804A05E
:10096000C6F808A0CABF92FBFCF2E17249F8080081
:1009700023F00303C8BF00EB82000131D5E76268B2
:10098000E36820686A431E1D865081189A684A6091
:100990009A682046116099602A460021FFF79AFF65
:1009A0000135C5E72DE9F04F8BB0867A00AF0446DC
:1009B000FB60B3000A3323F00703ADEB030D43687C
:1009C0003A6103336A4623F0030342F80439E946E7
:1009D0004FF0FF3500234FF00C0E581EB3427862E3
:1009E00009DA2BB110688008033020F00300506052
:1009F000506888420BD27B6A013314D13A6D0023D0
:100A000013606FF00B002C37BD46BDE8F08FE06837
:100A10000EFB030000F1040C40680432604518BF6F
:100A20001D460133D9E76B1CE8D0E16859F8252051
:100A30000C2303FB051353F8046F9E4261D096E824
:100A40000A00196031684B6023682946F31A204672
:100A500093FBF2F2FFF74CFFA9EB890309EB850A40
:100A6000BB617B6A9D4223680EDB3A6911467A6A54
:100A70000A60F31A59F8222093FBF2F3FA68136024
:100A80003B6D00201E60BEE75AF8042BF31A93FB5F
:100A9000F2F3BA699B007B610AEB4A0313444FF0FF
:100AA000010BFB6105EB0B03BB60DAF80080B96852
:100AB0000BFB08F33B62F3187B607B6920460BEB72
:100AC0000302FFF707FF7B682268218908F1FF38DE
:100AD0009844A8EB020862684A4390450AD2E2684B
:100AE000F969386A0A44111D31509168596091685A
:100AF0000B6093600BF1010BBBF1040FD5D10135F5
:100B0000AFE76FF00A007EE72DE9F04F85B0837AFA
:100B10009B000A3323F0070300AFADEB030D4368DE
:100B2000033323F003030546EA4600936C46012095
:100B300081424CD20C4616463246214628465AF887
:100B40002480D5F80090FFF7C5FE002C48D007F1AF
:100B50000C03324621462846FFF7A8FEFA68042314
:100B600090FBF3F083001068D84000F00F000F28CE
:100B700036D126F003034FF000097B6008F1FF3BFC
:100B80007B684B441A46214628463B60FFF7B0FE7F
:100B90003B689E4212D008FB03F2B5F808C06B68B0
:100BA000296802EB0B0E03FB0CF39E4501EB0200E0
:100BB00004D240688B5803608B58586009F10109D2
:100BC000B9F1040FDCD196FBF9F6013CB4E72368D8
:100BD0009B08033323F0030344F8043F0130A7E7E5
:100BE00008FB06F62A68696809EB060308F1FF3876
:100BF0009844A8EB02082A89514388450BD2E9683A
:100C00000C2202FB0414221D49F80620A2685A6037
:100C1000A2681360A3601437BD46BDE8F08F0020C2
:100C2000704700000B6801330B60014B1B681847CD
:100C3000583A00202DE9F04F85B09B460E9CDFF816
:100C400090A0012CB8BF0124012B0CBF302320231E
:100C50001546804689460194029301260A27002200
:100C60000AF101040AB9AA451FD2B5FBF4F04946BE
:100C70003030C04701360122013F012FB5FBF4F1AE
:100C80004FF00A0304FB1155BAFBF3FAE8D14946C9
:100C900005F13000C047BBF1030F03D1019B9C1B42
:100CA000002C0FDC05B0BDE8F08F019BBB42E3DBFD
:100CB000BBF1020FE0D84946029803920136C047C3
:100CC000039AD9E749462020C047013CE8E700BF26
:100CD000FFC99A3B0A688B6830B512B14C68A342D1
:100CE00002DB01338B6030BD651EAB420BBF8C60F5
:100CF0005C1C00218C600CBFD154D05430BD00006E
:100D0000014B1860704700BF583A00202DE9F04FA2
:100D100089B04FF0000A06460F4604921C464FF079
:100D2000FF39D0465546049B187810B909B0BDE884
:100D3000F08F45B9252800F00C813946B047049B57
:100D400001330493EFE7642861D019D839280AD811
:100D5000312850D22D283CD030283DD0252808D12C
:100D60003946B0476FE0582800F08980632800F0CA
:100D7000EA8039462520B047049B39461878F0E7C9
:100D8000702872D006D8692841D06C283CD06828D9
:100D9000D5D0EEE7752858D017D87328E9D1236845
:100DA00004F1040B1C46254615F8010B002840F001
:100DB000BF80B8F1030F40F0D580E41AA9EB04041A
:100DC000002C00F3BB805C463DE0782857D07A28A1
:100DD000DEE74FF00308B2E7B9F1000F0EDAB8F121
:100DE000000F00F0BC80A0F13009B8F1000F08BF7F
:100DF0004FF00208A3E7B9F1000FF4DB0A2303FB6D
:100E00000909A9F13009F0E70AF1010A97E7BAF1F7
:100E1000010FC5BF073424F0070325681D68D4BF40
:100E2000043403F10804002D05DA39462D20B047BB
:100E30006D4209F1FF39CDF8009043462A46394604
:100E40003046FFF7F7FE002579E7BAF1010FC5BF7D
:100E5000073424F0070322681A68CDF80090CCBF4D
:100E600003F1080404344346E9E739463020B0472B
:100E700039467820B0474FF008094FF00108BAF121
:100E8000010FC7BF073424F0070323680593C2BFCF
:100E900003F108041B6805934FF008024FF00003AC
:100EA000D8BF04340393079393460BF1FF3B059B94
:100EB0004FEA8B0023FA00F010F00F0009D1079BD6
:100EC00013B9BBF1000F22D14FF0300E07E0069AA4
:100ED000EBE709288CBF4FF0570E4FF0300E394624
:100EE00070440692B047039B079501330393BBF10F
:100EF000000FECD1B8F1030FA5D1039BC3EB49055B
:100F0000002DA0DD39462020B047013DF8E7531EF3
:100F100091450693EBDBB8F1010F03D13946302040
:100F2000B047E4E7B8F1020FE1D139462020F7E7F6
:100F3000394603932C46B047039B34E739462020BB
:100F4000B047013C3CE72068251D3946B0472C4698
:100F500079E7AA46A8464FF0FF390125EFE64FF0A2
:100F60000108ECE65C460546E9E6000013B502AC74
:100F7000002344F8043D02460B4603482146FFF790
:100F8000C5FE019802B010BD250C00000FB407B5D6
:100F900004A951F8040B0191FFF7E8FF03B05DF8D5
:100FA00004EB04B0704700000CB430B585B008AB5A
:100FB000044653F8042B01900291002501A907482B
:100FC00000930395FFF7A2FE0398029B9842B8BFD7
:100FD000255405B0BDE8304002B07047D50C000084
:100FE0007047000013B5114CBFF35B8F2068BFF34F
:100FF0005B8F60B90E4812F059F8BFF35B8F54E86D
:10100000003F44E80002002AF9D1BFF35B8F436838
:1010100004221B680DEB02019847002802DA00F059
:1010200037FA0190019802B010BD00BF0400002003
:10103000904601000A2838B50446074D04D12868B7
:1010400043680D215B68984728684368E1B25B6894
:101050009847204638BD00BF080000200148FFF730
:101060004FBE00BF3510000008B5044812F01EF84E
:10107000034B1860FFF7F2FF002008BD9A460100FD
:101080000800002010B54FF02003EFF3118283F326
:101090001188114C237823B982F311886FF0440032
:1010A00010BD013BDBB2237023B182F311886FF0D6
:1010B0000F0010BD094B1878012128B1217082F36F
:1010C00011886FF00A0010BD197082F311884FF07B
:1010D00080425160187010BD0E0000200D000020ED
:1010E00008B500221046012100F0E8FB002000F0C6
:1010F000B3FB002008BD0000F8B54FF02002EFF36D
:10110000118382F31188254A1078441C147060B151
:1011100083F311884FF08043D3F80C3413F4803FED
:1011200014BF00206FF04300F8BD1D4D2F782FB184
:10113000107083F311886FF00A00F8BD01262E703D
:1011400083F311884FF0804419B3384600F094FBC4
:10115000C4F80071D4F80433C4F804632660D4F8EA
:10116000002192B10022C4F800210E4A13F0010FB1
:101170004FF0010308BFC4F808330020C2F88031E3
:1011800000F06AFB00232B70C4E720BF40BF20BFE4
:10119000E5E7C4F800112660F4E700BF0E00002068
:1011A0000D00002000E100E0F8B506460C464FF0C7
:1011B0002002EFF3118382F311882C4A157865B170
:1011C00083F311884FF08043D3F8183413F4803F31
:1011D0000CBF6FF043000020F8BD0127177083F3A8
:1011E0001188284600F048FB4FF080430221C3F8E5
:1011F0000451D3F80423C3F80413C3F818459F60BF
:10120000D3F8041171B39207194F58BF02224FF05F
:1012100000014FF00105C3F804114FF0000058BF62
:10122000C3F80823C7F8805100F016FB4FF0804345
:1012300000211822C3F80823C3F80C11C3F81011B9
:1012400014F00301BED11020C3F83805C3F80423FD
:101250003046C3F80453FFF74FFF0028B2D1C7F858
:101260000051AFE720BF40BF20BFC9E70C000020FE
:1012700000E100E0F8B54FF080430546D3F808E1FF
:10128000D3F80423D3F80C44D3F80071D3F8040145
:10129000D3F80C11D3F8106102F00102BEF1000F77
:1012A00003D04FF0000EC3F808E127B14FF08043A0
:1012B0000027C3F800713AB1E30341BF4FF0804308
:1012C0000122C3F808231A6120B14FF080430022A5
:1012D000C3F8042149B14FF080440021C4F80C1137
:1012E0002846FFF7CFFE0123636176B14FF08043BC
:1012F00000210124C3F810112846C3F80443FFF766
:10130000FBFE10B9014BC3F80041F8BD00E100E05D
:10131000084BC3F84005D3F80435C01A20F07F40CD
:10132000054B0238984282BF044B4FF40032C3F899
:101330000021704700100140FDFF7F0000E100E048
:1013400038B5114B114CD3F804052268104D801AA2
:101350002B6820F07F4098420FD3B0FBF3F00D498B
:101360000968884228BF084600FB032323F07F4317
:101370002360094B186012F0E9FB20682B681844C1
:10138000BDE83840FFF7C4BF001001401400002042
:10139000703E0020100000206C3E0020024B002216
:1013A000C3F84021FFF7CCBF00100140031E0A4ADA
:1013B0000A4804DB116890FBF1F18B4202DD1368EF
:1013C00090FBF3F31068064A064912680B6000FBB5
:1013D0000320FFF79DBF00BF703E0020FFFF7F008E
:1013E000140000201000002008B5074B0022C3F8AD
:1013F0004021064B4FF40032C3F88021FFF7A0FFD5
:10140000034B01221A6008BD0010014000E100E01A
:101410001000002070B5184811F048FE48B343682A
:10142000164D1B6801219847154B00241C60154B75
:1014300001261E60144BC5F808451B68C5F84035E9
:101440004FF48033C5F84433C5F804330F4BC5F867
:1014500040414FF40032C3F880213146224611202A
:1014600000F02CFA112000F0F7F9AE6020462E6053
:1014700070BD4FF0FF3070BDBC4601000010014050
:101480001400002010000020703E002000E100E069
:101490000A4A30B5D2F80435094DD5E90001D2F831
:1014A0000445A34207D1074A126850431B1A23F090
:1014B0007F43184430BD2346EFE700BF00100140D2
:1014C00080190020703E002007488168006A884229
:1014D00008D000B512F074FA5DF804EB03494FF040
:1014E00080520A60704700004819002004ED00E0B7
:1014F000044800232021C2180133272B82F800134F
:10150000F9D1704700E100E0084A09499368096889
:10151000D966084998664B6843F080534B600023B6
:1015200083F311889368D86E704700BF4819002074
:101530006C7E010000ED00E0202080F311880D4951
:101540008A682C201044EFF3098C80E8F01F0A4FC2
:101550004FF000660A6A8A603E60906E00239366D0
:1015600080F3118802F12C0090E8F01F8CF30988B9
:10157000704700004819002004ED00E01EF0040F41
:101580000CBFEFF30880EFF30980816931F8021C8A
:1015900011F0FF010229FFD000B500F02BFA00BDC9
:1015A00010B5044612F05AFA22680146BDE8104010
:1015B0000148FFF7EBBC00BF1548010038B50446F1
:1015C0001A480D46FFF7E2FC04F11800184CFFF72B
:1015D000E7FFA36AD90602D51648FFF7D7FCA36A2E
:1015E0001A0702D51448FFF7D1FCA36A9B070ED552
:1015F0001248FFF7CBFC616BA36A180607D51048A9
:10160000FFF7C4FC1DB1A36A23F08003A362084C5A
:10161000A26AD20702D50B48FFF7B8FCA36A9B0663
:1016200002D50948FFF7B2FC002038BD5F48010031
:1016300000ED00E076480100884801009C48010068
:10164000B5480100C6480100E648010010B504464F
:101650001A48FFF79BFC04F11800194CFFF7A0FF94
:10166000A36A9A0102D51748FFF790FCA36ADB0131
:1016700002D51548FFF78AFCA36A180302D5134860
:10168000FFF784FC0E4CA36A590302D51048FFF7FC
:101690007DFCA36A9A0302D50E48FFF777FCA36A84
:1016A000DB0302D50C48FFF771FC054A936A6FEA29
:1016B00003436FEA13439362002010BD16490100F3
:1016C00000ED00E02F490100434901005E4901009F
:1016D0007D490100A3490100BE49010038B5044617
:1016E0001D480D46FFF752FC04F118001B4CFFF794
:1016F00057FFA36AD80404D51948BDE83840FFF75E
:1017000045BCA36A190501D51648F6E7A36A9A05F0
:1017100014D51548FFF73AFCA16BA36A1B0407D543
:101720001248FFF733FC1DB1A36A23F40043A36200
:101730000A4B9B6A58050ED50D48DEE7A36A59058A
:10174000FAD4A36ADA0501D50A48D6E7A36A9B044E
:1017500001D50948D1E738BDDC46010000ED00E0C5
:101760007648010088480100F3460100B5480100B1
:101770000D47010029470100E648010038B5274C14
:101780006368C3F30803DA1E0546092A3BD8DFE87D
:1017900002F0053436303A3A3A3A3A382048FFF700
:1017A000F5FBE36A9A0703D51E48FFF7EFFB02E05B
:1017B000E36A5B0001D4002009E01B48FFF7E6FB69
:1017C0001A4B1B7843B101212846FFF7F7FE294643
:1017D000BDE8384000F012B9154B1B7823B1012148
:1017E0002846FFF77BFFE6E7124B1B889BB2002BD6
:1017F000E1D02846FFF72AFFE9E70021E4E70021CE
:10180000EEE70D48D1E70D480D49A3F110020F2B6B
:10181000D8BF01460B48FFF7B9FBCCE700ED00E06D
:101820007047010088470100AA47010028ED00E049
:1018300029ED00E02AED00E0CA470100424701001F
:101840005747010001480100024A536943F0100361
:101850005361704700ED00E043B2002B08DB01222A
:1018600000F01F0002FA00F05B09024A42F8230070
:10187000704700BF00E100E043B2002B0DDB012206
:101880005B0900F01F0002FA00F02033034A42F81F
:101890002300BFF34F8FBFF36F8F704700E100E06D
:1018A0004209054B00F01F0053F82220012303FAE0
:1018B00000F01040704700BF00E100E043B2002B91
:1018C000A8BF03F1604301F101014FEA4111ADBF2F
:1018D00003F5614300F00F00034BC9B2B6BFC9B2B4
:1018E00083F800131954704714ED00E000F042B87B
:1018F00008B572B6044BD86918B10022DA6111F04C
:10190000FBFB62B608BD00BF48190020F8B50C46C5
:1019100016461F4604220A9B0999054612F032FB1F
:10192000A6F1200121440C4AEC6521F007010023B7
:1019300022F001022B656B652E668A61069A4A6069
:10194000079A8A60089ACA600F604FF08072CA6175
:10195000E964AB66F8BD00BF990800000149102298
:101960000A60704710ED00E0404080F3118830BFFE
:10197000704700BF404080F31188DFF81CC0DCF8DE
:1019800000C01CF4006C0CBFEFF30880EFF309807B
:1019900000B5FFF7F3FE00BD04ED00E0042838B504
:1019A00004460D4613D0052813D0032813D10C4844
:1019B000FFF7ECFA12F052F8AA6901460948FFF75E
:1019C000E5FA29462046BDE8384000F017B8064839
:1019D000EEE70648ECE701460548FFF7D7FAE9E7E6
:1019E000EA490100684A0100104A01002A4A010040
:1019F000454A010001460068FFF7D0BF052810B531
:101A00000CD012F0EDF960B112F0EAF90C4B0D496F
:101A1000002808BF19460C48FFF7B8FAFFF7A4FFE3
:101A2000FCE712F0EDF90028EED1084C0848A16857
:101A3000FFF7ACFAA068BDE8104000F00BB800BF9B
:101A4000A84A0100A44A0100B94A0100481900202F
:101A5000D94A010038B505464FF02003EFF3118451
:101A600083F3118812F024FA0B4B9B689D420DD131
:101A70000A4B5A68C2F3080222B911F0A1FF2046AE
:101A8000FFF742FD5A6842F080525A602046BDE896
:101A9000384011F04FBE00BF4819002000ED00E0B3
:101AA00000B572B60B4AD06900281EBF0021D16173
:101AB00011F022FB62B6EFF30580A0F110004FEAAF
:101AC000C0000549014409C998475DF804EBFFF7D8
:101AD000FBBC000048190020DC000000202080F33F
:101AE000118806484FF40061401880F309880220ED
:101AF00080F31488BFF36F8F00F006B8202E00200B
:101B000030BFFFF7FDBF00BF08B5074B074A23F002
:101B10007F039360BFF34F8FBFF36F8F11F01CFBF8
:101B200011F024FB11F046FB0000000000ED00E086
:101B300008B5FFF7E5FFBDE80840FFF7C5BC0000AA
:101B4000124930B50D68082D0DD8114A4868002398
:101B500053609D4200F10C0007D105235360BFF391
:101B60004F8FBFF36F8F002030BD50F80C1C50F822
:101B7000044C936021F01F0141F01001194344F01F
:101B80000104D16001331461E3E700BF343A00205F
:101B900090ED00E00139034611F8012F0AB91A70DF
:101BA000704703F8012BF7E702460346981A13F82B
:101BB000011B0029FAD170470138013910F8013FA3
:101BC00011F8012F934202D1002BF7D11A46981A2F
:101BD000704770B582B1013A0C46034603D11A78BA
:101BE0002078101A70BD1E782578AE4200F10100F1
:101BF00001F10101EFD0F2E7104670BD81EA000368
:101C000013F0030F70B503460BD0013B0A44914219
:101C10001BD170BD002AFCD011F8014B03F8014B19
:101C2000013A9C07F6D11E1F0D46541B0C44032C91
:101C300006D822F003042144234402F00302E4E71F
:101C400055F8044B46F8044FEFE711F8014B03F841
:101C5000014FDCE770B5C9B203469C0711D141EAD8
:101C6000012444EA04441E46951B1D44032D0ED84E
:101C700022F00304234402F003021A44934209D1E0
:101C800070BD002AFCD003F8011B013AE5E746F8D5
:101C9000044BE9E703F8011BF0E7000070B54FF0D3
:101CA0002003EFF3118583F31188144C144E23782D
:101CB00003EBC312013303F003033244237085F3B3
:101CC0001188402928BF40210E4D0138134602EBF0
:101CD0004106B34204D1002302F81130104670BD12
:101CE0004478240902332C5D03F8024C10F8014FAC
:101CF00004F00F042C5D03F8014CEAE774000020A7
:101D0000750000201C4B010010B50F4A0F4C1378D2
:101D100003EBC301013386B003F0010313700278B3
:101D2000437904924278039282780292C2780192B7
:101D300004EB4104027900921221054A2046FFF784
:101D400033F9204606B010BD7200002018000020B4
:101D5000FE4A010070B51D4A1D49137803EB430686
:101D6000013303F00103137003788AB006EBC60653
:101D700004460E4407AD032B21D8DFE803F0021A16
:101D80001C1E14492846FFF705FF62780492A278CA
:101D90000392E27802922279019262790092A37909
:101DA00005950D4A1B213046FFF7FEF830460AB074
:101DB00070BD0A49E6E70A49E4E70A49E2E70A4A48
:101DC0000A212846FFF7F0F8DFE700BF7300002084
:101DD0003C000020554501007E4501005C450100A6
:101DE000634501006D4501007745010030B585B0C0
:101DF0000446154668460322FFF700FF0D22002126
:101E00000DF10300FFF726FF20466A46694605F0FC
:101E10005DFF044620B9032269462846FFF7EEFE1F
:101E2000204605B030BD13B50C4601AA0331FFF7BB
:101E3000DDFF48B9032201A92046FFF7CAFEB0FA28
:101E400080F0400902B010BD0020FBE770B5CD1C4A
:101E500006460C462846032105F01CFF60B963794D
:101E600003F03F0343F040036371224629463046A6
:101E7000BDE87040FFF7BABF70BD0000F0B4027853
:101E8000012A04460B4617D003D3022A2CD0F0BCFB
:101E90007047184A0D4602F11007106851682E4627
:101EA00003C60832BA423546F7D1127832706288DA
:101EB0005A73120A9A73EAE70E4A0D4602F11007A6
:101EC000106851682E4603C60832BA423546F7D12B
:101ED0001278327062685A73C2F30721120CDA73F7
:101EE000120A99731A74D2E7014611221846F0BCFF
:101EF000FFF784BE2D4B010010B50C460178227807
:101F00008A428AB00ED06946FFF7B8FF05A920467D
:101F1000FFF7B4FF10220DF115010DF10100FFF7DD
:101F200058FE0AE0012A0AD004D3022A0AD06FF030
:101F3000150002E040886388C01A0AB010BD4068EE
:101F40006368F9E71022611C0130E8E77047000080
:101F500070B50B4D06460FCD8AB06C460FC40FCD41
:101F60000FC495E80300092E84E803009BBF0AAB69
:101F700003EB8606034856F8280C0AB070BD00BF74
:101F80000C450100305601000722FFF737BE00B5AF
:101F9000BFF35B8F50E8003F43EA010240E8002EA8
:101FA000BEF1000FF6D1BFF35B8F18465DF804FB5E
:101FB00000B5BFF35B8F50E8003F03EA010240E841
:101FC000002EBEF1000FF6D1BFF35B8F18465DF80F
:101FD00004FB0000C378002B41F2883200F170014D
:101FE00008BF0022014812F0A3B800BF88190020E2
:101FF0002DE9F041064686B09079264F8846154671
:1020000010F0EEFB874213D0AC79204610F0E8FBCD
:10201000214B059303908DE84800049702941F4BD1
:102020001F4A20492048FEF7B1FF06B0BDE8F08105
:10203000284610F0DBFB1D4C04EBC0004388B34284
:1020400010D0284610F0D2FB134B039304EBC000D2
:102050001449428802928DE84800114A0F4B1448F7
:10206000FEF794FF284610F0C1FB04EBC000436864
:10207000002BDAD0284610F0B9FB04F8308028464F
:1020800010F0B4FB04EBC000406806B0BDE8F041BE
:1020900011F0F3BC6C3F0020E9450100064C010043
:1020A000A1530100A8530100AB5301007C020020A2
:1020B000F05301004B09BFF35B8F50F82300BFF3CF
:1020C0005B8F01F01F01084100F001007047000024
:1020D0002DE9F047804689461348144D4FF0FF31F3
:1020E00010F012FC044600F10806002130460027DB
:1020F00010F029FC2775204610F078FB05EBC00096
:10210000A0F80280204610F071FB05EBC00003210F
:102110004760304610F05AFC80F80290A0F800802A
:102120002046BDE8F08700BF6C3F00207C02002005
:1021300070B5154686B00C4619B9FFF7C9FF0446BD
:1021400068B301220021684611F08EFC204610F091
:102150004DFB144E06EBC000C0F804D0204610F032
:1021600031FC2146104810F0F2FB42F21071684633
:1021700011F0ABFC204610F039FB16F8300030B1FE
:10218000204610F0F1FB6FF0040006B070BD0DB1F9
:102190002C60FAE7204610F0E7FB2846F5E76FF0E1
:1021A0003600F2E77C020020243B002038B50221F3
:1021B000054642F20C00FFF78BFF044630B30221C4
:1021C000083010F003FC012D024616D10B211148F6
:1021D000FFF770FF507015702146002242F20C008C
:1021E000FFF7A6FF044630B9012D09D14FF48071E5
:1021F0000848FFF7CCFE204638BD00234370EAE7CD
:102200006FF480710348FFF7D3FEF4E76FF03604F4
:10221000F1E700BFD03A002070B5154D062205F158
:1022200008010646FFF7D5FC0446D8B1062142F264
:102230000500FFF74DFF0446B0B1062231460830D5
:1022400010F0CAFB2146002242F20500FFF770FFA2
:10225000044638B90622314605F10800FFF7CEFCE6
:102260000123EB71204670BD6FF03604FAE700BF22
:10227000603A002007B50621684605F00BFD40B91D
:102280009DF80530684603F03F038DF80530FFF7F1
:10229000C3FF03B05DF804FB38B50121054642F2E7
:1022A0000A00FFF715FF0446D8B108308DB10121AF
:1022B00010F09BFB2146002242F20A00FFF738FF94
:1022C000044620B93DB140210748FFF760FE204693
:1022D00038BD2946ECE76FF040010348FFF768FE80
:1022E000F5E76FF03604F2E7D03A00200288438821
:1022F0009A4210B518D8052A16D9B3F5486F13D8E5
:102300008488B4F5FA7F0FD2C188A1F10A0292B293
:1023100040F67640824207D804FB0333B3EB810FCB
:10232000B4BF0120002010BD002010BD012310B556
:102330000621044600F8013B05F0ACFC18B9A3796E
:1023400063F03F03A37110BD37B5114C2378012B07
:1023500004D1A37903F0C003C02B0DD00D4B019322
:1023600000930D4A0D4B0E490E48FEF70FFE6FF01D
:102370001505284603B030BD601CFFF74DFF05462C
:102380000028F6D1042104F17000FFF700FEF0E709
:10239000603A0020E9450100595301005D4C0100FD
:1023A000A8530100605301002DE9F0431D4DDFF8F3
:1023B00090801D4F1D4E1E4C87B02846FFF7CAFC6B
:1023C00043463A4631460190029400941948FEF77C
:1023D000DDFD95F80E904846FFF7BAFDAB8A0493F1
:1023E0002B8A03933A4643463146CDF80890019034
:1023F000059400941048FEF7C9FD95F80F904846E3
:10240000FFF7A6FD6B8A039301900494CDF8089022
:10241000009443463A4631460848FEF7B7FD07B0F8
:10242000BDE8F083603A0020C34C0100A8530100CE
:10243000E9450100CA4C0100E74C0100354D01009F
:102440007E4C0100024BD3F8D4301B69184700BF03
:10245000603A002030B5044685B00D4619B9FFF743
:1024600037FE0546F0B140F635439C4214D128466C
:10247000FFF7E8FF044660B10C4B02938DE81800AB
:102480000B4A0C4B0C490D48FEF780FD284610F016
:102490006BFA204605B030BD2946094810F057FABE
:1024A0000024F6E76FF03604F3E700BFE9450100CA
:1024B000595301003E4B0100A8530100C14D0100DA
:1024C000243B002073B505460E4614460021072222
:1024D0006846FFF7BFFB21488DF8005000238DF8B8
:1024E0000630012D0378ADF80160ADF803408DF89A
:1024F00005300AD106217030FFF7DCFD28B9FFF75F
:10250000B9FE0446F0B98DF80550072142F20B00E0
:10251000FFF7DEFD0446F0B107226946083010F0EF
:102520005BFA214642F20B00FFF794FF0120FFF710
:102530003DFE044630B9012D07D14FF480610848B3
:10254000FFF725FD204602B070BD6FF4806104489E
:10255000FFF72EFDF6E76FF03604F3E7603A002050
:10256000D03A002038B5092105461648FFF7A2FDEC
:10257000024608B1002038BD08211248FFF79AFD35
:10258000D0B90121002001F031FE04460028F1D02D
:102590004FF400610B48FFF7FAFC204601F044FEBF
:1025A000002D15BF3022122260214FF4006100205F
:1025B000BDE83840FFF786BF1046FFF7F7FD00285B
:1025C000DFD038BDD03A00202DE9F0414D4DD5F88F
:1025D000D430996811F001018EB024D10CAA40F6D4
:1025E0000340FFF7A5FD0446002840F087800C9BC0
:1025F0009B681B78A3B9444A13602B46BFF35B8FDB
:1026000053F8702FBFF35B8F02F00D02BFF35B8FA7
:1026100053E8001F43E800200028F9D1BFF35B8F87
:102620000C9810F0A1F90CAA002141F20300FFF769
:102630007FFD0446002861D10C9B3448996808222C
:102640000131FFF7DBFA0C9810F08EF921460CAA45
:1026500041F20100FFF76CFD044600284ED10C98B2
:1026600083685A78AA73D9789A7842EA01222A8232
:102670001A79EA73197ADA7942EA01226A825A7976
:102680009B7942EA0323AB8210F06EF903212048C4
:10269000FFF710FD014688B90CAA41F20900FFF7C7
:1026A00047FD044650BB0C9B1A489968062201312D
:1026B000FFF7A4FA0C982C7010F056F90CAA002120
:1026C00041F20200FFF734FD0446B8B90C9B1248F2
:1026D000996840220131FFF791FA0C9810F044F903
:1026E000AB7E5A0624D40D4B019300930C4A0D4B3C
:1026F0000D490E48FEF74AFC6FF0120420460EB05A
:10270000BDE8F081603A0020D8020020763A00202F
:10271000D03A0020613A00207E3A0020E9450100CD
:1027200059530100554C0100A8530100F34D01001D
:1027300021460CAA42F20300FFF7FAFC04460028E7
:10274000DCD10C9B9B48996808220131FFF756FAAF
:102750000C9810F009F921460CAA42F20200FFF78A
:10276000E7FC04460028C9D10C9B9B68B3F8012004
:10277000A5F888203AB1DA788F48022A28BF0222C9
:10278000114611F071F90C9810F0EEF8AC7E14F0CF
:10279000200400F0C78095F83A301B0713D50CAA27
:1027A000002142F21C00FFF7C3FC04460028A5D11B
:1027B0000C98836853F8012F5B68C5F88430C5F81E
:1027C000802010F0D1F895F878309F0600F1C6808F
:1027D000082142F20100FFF77BFC0446002800F0CC
:1027E000A8800821084410F0F1F895F878108E07B9
:1027F0004CBF2F220F22890695F8791048BF42F06E
:10280000400211F0090F95F8401001F0060118BFC1
:1028100042F40062062908BF42F4C0720270C2F39B
:102820000722427000228270C2700271427182716E
:10283000C271214642F20100FFF77AFC04460028EB
:102840007FF45CAFAB7E9A0621D4B5F88810F1B95D
:102850000CAA41F20500FFF76BFC044600287FF448
:102860004DAFB5F888307BB90C9B53489B6899787D
:102870005A7842EA0122A5F888209A88022A28BFBD
:102880000222114611F0F0F80C9810F06DF80821B2
:1028900040F60140FFF71CFC0446002849D00821FF
:1028A000084410F093F81023037088234370022328
:1028B0000022C37020238270027142718271C37141
:1028C000214640F60140FFF733FC044600287FF420
:1028D00015AF01460CAA4FF60140FFF729FC374E11
:1028E00000287BD0364B374A374938480196009646
:1028F000FEF74CFB002307220CA935480C93CDF8BA
:102900003330FFF766F9002840F0E28095F8603038
:10291000DB0700F1FE80019600962E4B294A2A49DA
:102920002D4803E1022140F66D40FFF7D1FB06463A
:1029300010B96FF03604E1E60221083010F046F8D5
:102940000123447003702246314640F66D40FFF784
:10295000EFFB044600283FF41EAFCFE60CAA00218F
:1029600042F22F00FFF7E4FB044600287FF4C6AED6
:102970000C988368B3F80180B3F803700FF0F4FF8C
:10298000042142F22400FFF7A3FB06460028D0D022
:102990000421083010F01AF82246A0F80080478081
:1029A000314642F22400FFF7C3FB044600283FF4FF
:1029B0000FAFA3E6D83A0020EC3A0020E945010029
:1029C0008F4C0100A1530100A8530100274E0100C4
:1029D000603A0020704C0100C44F01000C9B72490A
:1029E0009C687248B4F801300293032B96BF704A7A
:1029F000704A52F8232001926F4B704A039600965A
:102A0000FEF7C4FAB4F80130B4F80320022B3AD12F
:102A1000022A38D86A4B53F8223002920193674A4F
:102A2000654B6149039600966648FEF7AFFA6379F5
:102A30000696D4F809100591032BB4F8071098BF37
:102A4000614A0491A17994BF52F82320594A039115
:102A500002935549584B01920096584A5B48FEF73D
:102A600095FA0C980FF080FF0CAA00214FF6024057
:102A7000FFF75EFB044640B1019600964E4B544A68
:102A80004949544834E74B4BC7E70C9B5248996877
:102A900002220131FFF7B2F80C980FF065FF0CAA83
:102AA00021464FF60340FFF743FB30B101960096F5
:102AB000414B474A3C4949481AE70C9B48489968AA
:102AC00001221144FFF79AF80C980FF04DFF11E71F
:102AD000444B18689A880A909B79ADF82C200AA973
:102AE000072241488DF82E30FFF773F800283FF495
:102AF0000DAFFFF759FC01F0E7FF044600287FF413
:102B0000FDAD02213948FFF742FA2046FFF72AFDC2
:102B1000F4E509AA00214FF60940FFF709FB40B18F
:102B2000334B2B4A2049334801960096FEF72EFA84
:102B300026E0099B99684B78BBB10123062202313C
:102B40002D482B70FFF75AF809980FF00DFFFFF78B
:102B5000FBFB04460028CCD001960096274B284A60
:102B600011492848FEF712FAC8E501960096204B55
:102B7000174A0D492448FEF709FA09980FF0F4FEA8
:102B80001948FFF7D3FB04460028E5D11A48FFF7A0
:102B9000BBF8029601900096154B0D4A02491B485E
:102BA000FEF7F4F9D3E700BFA85301005B4E010024
:102BB00040550100305601008F4C0100C34C01000C
:102BC00034550100844E010020560100AC4E010036
:102BD000A1530100E94E0100BF3A0020224F01003D
:102BE000BE3A002034450100603A0020D03A00206F
:102BF000704C01005B4F0100613A00209B4C0100CA
:102C000059530100395001008B4F01000050010061
:102C100010B5FFF7D9FC034B1B6813B1BDE810409A
:102C2000184710BDD402002038B50721044642F2EF
:102C30003200FFF74DFA054698B1072108300FF032
:102C4000C5FE23880380002402238470C3700371AF
:102C500044718471294642F23200FFF7FBFB2046A3
:102C600038BD6FF0360038BDF7B5074601AA002120
:102C700042F22F00FFF75CFAD8B901988368B3F8E5
:102C80000160B3F803500FF06FFE062142F22200FC
:102C9000FFF71EFA044670B1062108300FF096FEC9
:102CA0003B88038046808580214642F22200FFF760
:102CB000D1FB03B0F0BD6FF03600FAE7F0B5037852
:102CC00089B005467BB10221002001F08FFA04464D
:102CD00038B12B780372002101F05CFB204601F033
:102CE000A3FA09B0F0BD041DB0F80160214606A8A2
:102CF000FFF74AF99DF81830023BDBB2012BB7B25F
:102D000029D8062205F111010DF111008DF81830B6
:102D1000FEF774FF01238DF81030022106A801F0A0
:102D200065FAEB78012B044609D16FF040014A485F
:102D3000FFF73EF9A4B906A801F0ACF904467CB946
:102D4000464B02938DE88800454A464B4649474822
:102D5000FEF71CF9C5E7214604A8FFF715F9DCE7E3
:102D6000204606A920F8446BFFF70EF92A7EEB7D7A
:102D700043EA0223A4F85A30AA7E6B7E43EA022378
:102D8000A4F86030EB7E2A7F43EA0223A4F8623085
:102D9000EE78E670012E1AD1354F04A904F14B00EC
:102DA000FFF7F2F8394604F15200FFF7EDF807217A
:102DB00007F17000FFF77EF948B1D7E92023002220
:102DC00003F04003134302D03046FFF765FA0321B6
:102DD000204601F0DFFA637A032B18D1EB7823B198
:102DE000234B93F87830190718D5022142F21600C8
:102DF000FFF76EF9054688B1022108300FF0E6FDB5
:102E000023880380294642F21600FFF723FB204661
:102E100001F00AFA0020FFF7A5FB62E7144D95F8D0
:102E20007920D20708D52046FFF7FEFE20B9802181
:102E3000201DFFF7ACF8EAE795F878309B0606D539
:102E40002046FFF711FF10B94FF48071F0E72046DC
:102E5000FFF7C0F8DBE700BFD03A0020E9450100EA
:102E600059530100854B0100A8530100DE540100B5
:102E7000603A002070B506460D4642F2210003215B
:102E8000FFF726F9044660B1032108300FF09EFDDC
:102E900085700680214642F22100BDE87040FFF7B0
:102EA000D9BA6FF0360070BD2DE9F04FDFF848A1B8
:102EB0004F4D85B09AF80D304E486FF307138AF8DE
:102EC0000D3001F0F9F900F101094FF0FF324946E8
:102ED000494811F013FA48B9484C474E04F1C40B65
:102EE000B9F1000F11D110F089FDE3E7404B0193D8
:102EF0000093434A434B44494448FEF747F8404057
:102F000080F311884FF0040002DF737B1B09012B53
:102F100052D9042B62D1377B002F51D13946584604
:102F20000FF0F8FC804638B9314B01930093344AD6
:102F3000374B35493748E0E74FF0FF31364810F05E
:102F4000C4FDD4F8C0306BB1314B2D4A2E490195E8
:102F500000953248FEF71AF8D4F8C0000FF004FDCF
:102F6000C4F8C07040460FF02DFDC4F8C0004046C4
:102F7000FFF768FA00B3264B214A234901900295D6
:102F800000952748FEF702F8234810F076FD4046EA
:102F90000FF02CFC234B03EBC00000221F214088C4
:102FA000FFF726F8D4F8C0000FF0DEFC00234046FF
:102FB000C4F8C0300FF0D8FC143609F1FF398FE7A0
:102FC000012F04D13069183800F060FFF4E7022FB8
:102FD000F2D13069283801F0C5FCEDE70193029584
:102FE0000095114B114A08491148FDF7CFFFE3E75F
:102FF000E94501004C3B0020383B0020603A0020AE
:1030000059530100474C0100A853010033540100FB
:103010002F4C01005D540100083B00208254010048
:10302000C14D01007C020020384C0100A153010079
:10303000AD5401002DE9F04F037D012B95B00446FE
:1030400040D0032B40F0468383681E885D88C6F31A
:103050000B03C382FF234375042108300FF0D5FC16
:10306000A28995420ED0A04B039301920093029542
:103070009E4B9F4A9F49A048FDF788FF20460FF0CE
:1030800073FC1BE0E08A01F081F8054658B9964BC5
:10309000E28A029301920093954A944B954997488E
:1030A000FDF774FFEAE701F003FD320B607521467E
:1030B000284600F0BBFD284601F0B6F8002015B008
:1030C000BDE8F08F85682A78132A00F213839340B5
:1030D00013F40C2F00F00E83834B01930093844A6A
:1030E000874B84498748FDF751FF404080F31188A2
:1030F0004FF0040002DFA7683E78002EBED1B7F87B
:103100000180404601F042F80546C8B9764B02936B
:103110008DE80801764A7C4B76497C48FDF736FFFE
:1031200007217B48FEF7C6FF0028A7D00621784874
:10313000FEF7C0FF0028A1D10120FFF7ADF89DE701
:10314000FB7803727349744810F048FE31462846F4
:1031500001F020F92E80AE780EB1284686E0314687
:10316000281DFEF7A7FF30B12846012101F012F912
:103170003046FFF7F7F9284601F056F8D0E7A56882
:10318000012130460FF041FC2D786B1E0B2B00F215
:103190009082DFE813F00C00990143006E008E026C
:1031A000CB0028016A018A0141008E024101A16819
:1031B0000B788DF83030B1F80130ADF83130CB7884
:1031C0008DF83330B1F80B30ADF84730B1F80D3031
:1031D000ADF84930B1F80F30ADF84B304B7C8DF87D
:1031E0004D3004310DA8FEF7CFFE0025062208A9B8
:1031F0000DF13B000895ADF82450FEF7FFFC0622C8
:103200000AA90DF141000A95ADF82C50FEF7F6FC25
:103210000CA8FFF753FD31E7A068FAE7A568B5F8F9
:103220000170384600F0B2FF064640B92E4B0293BB
:103230008DE88800394B2E4A2E49394830E72B78E3
:103240009BB92A79EB7843EA0223A0F85A30AA798D
:103250006B7943EA0223A0F86030EB792A7A43EADB
:103260000223A0F8623000F0A5FC304600F0DCFF3D
:1032700004E7A668B6F80170384600F087FF0546F7
:1032800028B9194B02938DE88800264BD3E7337891
:1032900023B90822F11C6430FEF7B0FC224E96F8E8
:1032A0007920D2070CD595F86530DB0708D528467C
:1032B000FFF7BAFC20B98021281DFEF768FE4CE715
:1032C00096F878309F0640F1A38095F864309E060A
:1032D00040F19E802846FFF7C7FC002840F0988008
:1032E0004FF48071E8E700BFE94501004E4B010053
:1032F00059530100A8530100685001009C5001007F
:10330000254C0100E8510100704B0100CE50010036
:10331000D03A0020045101004D1F0000EE4B010087
:10332000085101009A4B0100603A0020A368D97847
:103330009A781F8842EA0122ADF8302059791A792B
:1033400042EA0122ADF832209A79D97942EA012283
:10335000ADF834201A7A5B7ABDB242EA03232846DC
:10336000ADF8363000F012FF804670B9B84B0293CA
:103370008DE82800B74AB84BB849B948FDF706FEB2
:1033800002212846FFF776FD78E60CA900F026FC1E
:1033900028B91E212846FFF76DFD404666E70E213D
:1033A00042F22000FEF794FE06460028F5D00E21DA
:1033B00008300FF00BFB0E2205460021FEF74AFCF9
:1033C000BDF830306B80BDF83230AB80BDF83430A2
:1033D000EB80BDF836302F802B81314642F2200041
:1033E000FFF738F8D9E7A3681E88304600F0CEFE14
:1033F000054628B9964B02938DE84800994B1AE789
:103400006FF480710430FEF7D3FDC0057FF5A5AEE3
:103410002846FEF7DFFDA0E6A368B3F8016030465A
:1034200000F0B4FE054628B9894B02938DE84800A8
:103430008D4B00E7061D6FF080013046FEF7B8FDAA
:1034400001067FF58AAE894B93F878309A06DFD56E
:1034500095F864309B06DBD52846FFF705FC00286D
:10346000D6D14FF48071304627E7A66880486FF0C8
:103470002001FEF79DFD337843B9711C40227D4841
:10348000FEF7BCFB10217A48FEF781FD7A4B1D68E0
:10349000771C002D3FF4F2AD32782B68002A0CBF68
:1034A0003846002098476D68F3E7744DA0682A6895
:1034B000002A3FF4E3AD037823B90130904700239D
:1034C0002B60DBE50020F9E730460FF0A6FADFF8C5
:1034D000B8A10690069B002B3FF4D0ADA56809214A
:1034E00030460FF092FA2B7A05F101082B44404642
:1034F00093F909B0FEF72EFC2B7A2A78CDF800B0AC
:1035000001465F48FDF742FD6B78023B012B4146C7
:103510000CA800F29980FEF737FD9DF83030023B91
:103520008DF83030DAF80030ABB130460FF085FA64
:10353000A38907932B7AA381814633462A78DAF848
:10354000007059460CA8B847236913FA89F3A360A1
:10355000BDF81C30A381092145482F78FEF7AAFD4C
:103560008146002866D1012F64D801210CA800F003
:103570003DFE074600285DD008213D48FEF79AFD34
:10358000002840F0838002213948FEF793FD10B1F6
:103590003C48FEF741FE354907F14B0007F152095F
:1035A000FEF7F2FC41464846FEF7EEFC192142F2D6
:1035B0000D00FEF78DFD834600286DD019210830DF
:1035C0000FF004FA192280460021FEF743FB002287
:1035D000602388F8003088F8012088F8023088F8E5
:1035E0000320494608F105000792FEF7CDFC97F845
:1035F0004B3088F80C30B7F85C30A8F80D30B7F8CD
:103600005E30A8F80F30B7F86030A8F81130B7F87E
:103610006230A8F81330079A594642F20D00FEF7BF
:1036200087FD002838D13846022100F0B3FE384625
:1036300000F0FAFD297A304601310FF0E6F9069BD9
:10364000013BDBB2069345E7FEF79EFC6AE700BF4D
:10365000E945010059530100DC4B0100A85301006A
:1036600008510100B24B0100C54B0100603A002037
:10367000D03A002090020020D00200208C020020CE
:103680003C510100613A0020D80200204846FEF774
:103690008DFD00283FF477AF1F233B720021384691
:1036A00000F078FE384600F0BFFD0020FEF75AFF1C
:1036B000C0E7A689A0683146FEF7F0FA1B4B0493D9
:1036C00003908DE868001A4A1A4B1B491B48FDF706
:1036D0005DFCD3E4154A02928DE80C001649184BA4
:1036E000184A1948FDF752FC20460FF03DF96FF0DB
:1036F0001500E4E404F10806022130460FF085F9D4
:103700002D78052D3FF4F7AC3E2D3FF438ADA6895A
:10371000A0683146FEF7C2FA044B049303908DE88B
:103720006800034A094B04490948D0E7E94501000C
:10373000A1530100134C0100A85301005D51010089
:10374000A44C010059530100C4510100254C010053
:10375000925101002DE9F04F037D8668012B87B05F
:1037600004460ED0654B01930093654A654B66494C
:103770006648FDF70BFC404080F311884FF00400D1
:1037800002DF8289012A07D85C4B019300935C4ACF
:103790005C4B5D495E48ECE73278132A00F2A58065
:1037A000934013F40C2F00F0A08000F108050221D3
:1037B00028460FF02AF933780F2B1DD0132B2BD06E
:1037C0000E2B40F08780A36803212846B3F80170D0
:1037D0001E780FF01AF9A368224619783846FEF7CA
:1037E00007FC16B14B4810F048F920460FF0BCF822
:1037F000002007B0BDE8F08FA668B6F802807778A1
:10380000042128460FF001F9224631784046FEF7A0
:10381000EFFB002FE9D0E5E7A368384FDFF8089108
:10382000DFF8DCA004930026049B1B789E42DCDAC0
:10383000049B03EB8603B3F80120B3F803804FF039
:103840002001EFF3118B81F311881046059200F0EF
:103850009DFC059A054660B90192029700974B4678
:10386000524629492C48FDF791FB8BF3118801360C
:10387000DAE78BF3118800F1180BB8F1000F1CD0B8
:103880004FF02002EFF3118E82F31188296929B1DC
:103890006A6908682861914208BF68618EF31188DF
:1038A00008F1FF331FFA83F859B9019700974B4687
:1038B000524615491948FDF769FB284600F0B4FC4B
:1038C000D5E758460FF014FE284600F06FF910F0C7
:1038D000D4F8D2E720460FF047F8084B0193009345
:1038E000074A084B08490E4843E7044B01930093ED
:1038F000034A044B04490B483BE700BFE94501007C
:1039000059530100AC4C0100A8530100275201009B
:103910006B520100083B0020A5520100D15201006A
:10392000F85201001B530100564B0100084AD2F81F
:10393000D4303BB9C16841B1016931B1C2F8D4009A
:10394000184670476FF0440070476FF015007047DD
:10395000603A002070B52A4DD5F8D43086B00646BE
:103960006BB9284B01930093274A284B28492948D3
:10397000FDF70CFB6FF01204204606B070BD01216C
:1039800005F17000FEF703FB10F0010034D1224B6B
:1039900022491E606FF00803059004900393029083
:1039A000019000901E4B1F484FF46B7210F062FAAA
:1039B000D5F8D430DB689847044650B1114B0293D8
:1039C0008DE81800104A114B11491748FDF7DEFA2F
:1039D000D2E726B906B0BDE87040FEF7F5BD01217B
:1039E00005F16C00FEF7D3FAC307C5D405F16401F5
:1039F0000E480FF07DFDBFE76FF04404BCE700BF49
:103A0000603A0020E945010059530100B94C01001A
:103A1000A85301006C4D0100D4020020081A0020B8
:103A2000A92E0000DC020020954D0100881900201D
:103A30000020704770B50378012B05460E4610D85C
:103A40004378012B0DD841880B1F9BB243F6FC70C5
:103A5000834206D8AA88131F9BB2834201D89142A1
:103A60002BD26FF015040EE008211948FEF722FB57
:103A700058B11046FEF79AFB044630B16FF400715E
:103A80001348FEF795FA204670BD6B787BB14FF472
:103A900000610F48FEF77BFAAA8869882878FEF74C
:103AA00011FD04460028E9D10A4B1E60EBE76FF4D4
:103AB00000610748FEF77CFAEEE74FF40071044816
:103AC000FEF765FA10F40072CED06FF04404DAE726
:103AD000D03A0020D802002008B56FF400710748E2
:103AE000FEF766FA830506D5054B00201860BDE891
:103AF0000840FEF737BD6FF0440008BDD03A002003
:103B0000D802002038B5054605480EF0FDFE0446F3
:103B100020B1002108300EF016FF2575204638BD73
:103B20008C3F002010B501464FF02003EFF31180C9
:103B300083F311880B4A0023D2F8C040C2F8C0308A
:103B400080F3118824B90120BDE81040FFF7DABFE7
:103B5000012204F108002275A38119460EF0F3FE3C
:103B6000204610BD603A002038B5064B1C6805465B
:103B700004B938BD236813B1297A284698472469C7
:103B8000F6E700BF4C030020BFF35B8F0068BFF374
:103B90005B8F7047438910B504462BB1C0680EF0A7
:103BA000E3FE0023E360638110BD0000004870471E
:103BB000EC3A0020084B70B51C68054604B970BD8E
:103BC000E6683EB1B5F86230B5F86020B5F85A1035
:103BD0002846B0472469F1E74C030020F8B50746B2
:103BE00008460E46FEF782FB054610B9002528461A
:103BF000F8BD094B1C68002CF9D0A3680BB92469E7
:103C0000F9E73146384698470028EFD03046FEF7AE
:103C10006DFB0028F3D1E9E74C030020024B1A6842
:103C200002611860704700BF4C0300202DE9F0418D
:103C300086B090460D46664E04460FF00FFF05967F
:103C4000CDF81080AB8903932388029301900096EE
:103C5000604B614A61496248FDF798F9B8F1010F7C
:103C6000374638D0B8F1020F40F09480AB681E8818
:103C70000FF0F4FE04970396AB8902930190554B25
:103C80000097554A55495748FDF780F9638953B164
:103C9000019700974F4B544A50495448FDF776F925
:103CA0002046FFF777FFAB89F61A043666810FF0DE
:103CB000D5FE638902930190464B03970097464ACD
:103CC00046494B48FDF762F96389002B51D0E56006
:103CD00006B0BDE8F081638983B93E4B424A3F4953
:103CE000444801960096FDF751F92046FFF752FF30
:103CF000284606B0BDE8F0410EF036BEAA899A42C9
:103D000006D901960096334B374A34493A48EAE7D8
:103D10000FF0A4FE638904960393AB89029301908C
:103D20002C4B2D4A2D4900963448FDF72FF9E068B9
:103D3000B5F80C8008300EF084FE804506D9019657
:103D40000096244B284A25492D48CCE7E068AA89EB
:103D5000A96808300EF040FE6389AA899B1A638126
:103D600028460EF001FE6389002BB1D1E56863811E
:103D7000E360AB68AA891B88191D914214D0029296
:103D8000019303970097134B174A14491D48FDF7F9
:103D9000FDF8ADE702968DE840010E4B124A0F493F
:103DA0001948FDF7F3F8A0E70FF058FE0397AB8929
:103DB000029301900097074B074A08491348FDF703
:103DC000E5F82946204606B0BDE8F04101F0B4B858
:103DD000E94501004C56010016580100A8530100A6
:103DE0001D5801004E580100595301007A58010036
:103DF000A7580100C6580100F458010018590100E5
:103E000044590100A95901007B590100D55901000D
:103E1000F0B50C4687B0064617460FF01FFEA38983
:103E2000134D0393338802930190124B0595049729
:103E30000095114A11491248FDF7A8F8737A032B2F
:103E40000ED00C4B0F4A0D49019500950E48FDF719
:103E50009DF820460EF088FD6FF0380007B0F0BDE9
:103E600006F12800676121460EF071FD0020F5E79C
:103E7000E94501005956010016580100A8530100F8
:103E8000395A0100595301006E5A01002DE9FF41D2
:103E900006460FF0E3FD134B039301900093029647
:103EA000114B124A12491348134DFDF76FF806F1F2
:103EB00018074FF00008002138460FF03DFB04467C
:103EC00010B904B0BDE8F08163680BB13046984783
:103ED0002B6823606B68C4F804802C60002BEAD147
:103EE0006C60E6E7E94501006956010016580100DB
:103EF000A85301004D570100F80300202DE9F047B9
:103F000088B00F461446574E054699460FF0A6FD59
:103F100006960594BB89544A04930190534B544927
:103F20000397029500965348FDF730F84FF0FF31A4
:103F300051480FF0CAFD514B03F14000FFF724FE3A
:103F4000B04630B15A7A033A012A02D81846FFF730
:103F50009DFF6B7A032B66D1042107F108000EF058
:103F60004CFD2A88D7F814A0454E42EA043202805C
:103F7000BB89043B438002233B750FF06FFDCDF8F6
:103F800010800190CDF80CA00295CDF800803D4B3B
:103F9000354A37493C48FCF7F9FF346872682368B2
:103FA0003360944208BF7360C4F804A04FF020034C
:103FB000EFF3118283F31188002323606B69002BD8
:103FC00040D16C612C6182F311883846FEF73AFAD1
:103FD000002843D00190CDF80880CDF80080234B15
:103FE0002A4A23492A48FCF7D1FF4FF02003EFF378
:103FF000118183F311882B69002253B19C422AD18D
:10400000236812BB6A692B61944200D16B61002363
:10401000236081F311880023636033682360736831
:10402000346003B9746014480FF027FDB9F1000F34
:1040300004D038460EF098FC4FF00009484608B00E
:10404000BDE8F0871C606C61BDE713606B699C4242
:1040500008BF6A61DBE71A461B68CEE74FF001092B
:10406000ECE700BFE9450100165801008A5601003F
:10407000A8530100205B0100EC3A002060030020FF
:10408000F80300207B560100585B010059530100E2
:10409000C14D0100F8B5174C04F140060746304603
:1040A000FFF772FD054608B10020F8BD01469822D1
:1040B0002046FDF7CFFDBFF35B8F012356E8002FAD
:1040C00046E800310029F9D1BFF35B8F072239465A
:1040D00004F14400FDF792FD1823A4F85C30282376
:1040E00004F17000A570A4F85E3003490FF0ACFF36
:1040F0002046F8BD600300208D48000038B50D460D
:10410000044600F1440107222846FDF762FD60B134
:10411000E378072233B904F152012846BDE838405C
:10412000FDF757BD04F14B01F7E738BD30B5044644
:1041300087B000F14005BFF35B8F55E8003F0133C6
:1041400045E80032002AF8D1BFF35B8F0FF086FC00
:10415000024628462188FFF717FD074B049303907A
:10416000029101920093054A054B06490648FCF767
:104170000DFF204607B030BDE9450100165801008B
:10418000D9560100A8530100135A010008B50A4B83
:10419000014603F14000FFF7F7FC58B15A7A033AA1
:1041A000012A07D81A888A4204D11846BDE8084077
:1041B000FFF7BCBF002008BD6003002010B50A4C0B
:1041C000014604F14000FFF7DFFC50B1A37843B98A
:1041D0002046FFF793FF20B92046BDE81040FFF7C7
:1041E000A5BF002010BD00BF6003002038B50D4CF6
:1041F000034604F140000D46FFF7C6FC80B1A278EB
:1042000072B93BB9637AAB420AD10648BDE838407F
:10421000FFF78CBF19462046FFF770FF0028F1D04A
:10422000002038BD6003002030B5054687B000F19E
:104230004004BFF35B8F54E8003F013B44E8003289
:10424000002AF8D1BFF35B8F0FF008FC024620462E
:104250002988FFF799FC074B049303900291019280
:104260000093054A054B06490648FCF78FFE07B048
:1042700030BD00BFE945010016580100E5560100B8
:10428000A8530100135A010038B5044600F128056F
:10429000002128460EF03EFB50B92046FFF7F6FD00
:1042A0002046FFF777FC2046BDE83840FFF7BCBF4B
:1042B0000EF05AFBECE70000F0B585B006460FF0B3
:1042C000CDFB2A4D01902A4B2A4A2B490295009595
:1042D0002A48FCF75BFE2A4B0022012130469A60F7
:1042E0000FF0F9FF274B03F14000FFF74DFC1F468D
:1042F00010B9012005B0F0BD5A7A92B9BFF35B8FB7
:104300001A1D52E8001F21F0400042E80004002C72
:10431000F7D1BFF35B8F4A0603D51846FFF7B4FF0A
:10432000E7E77C7A032CE4D10FF098FB104B019067
:10433000104A11490395029700951348FCF726FE91
:10434000124B0022042106F114000FF0C4FF0123D8
:1043500086F8203006F128000D4B002204210FF0D2
:10436000BAFF022386F834302046C3E7E94501004E
:104370009D56010016580100A85301006A5701001C
:10438000883B002060030020805701007803002054
:10439000880300202DE9F041044686B00E460FF058
:1043A0005DFB637A6D4F0190042B96BF6C4A6D4B99
:1043B00052F823300293042E96BF694A694A52F894
:1043C0002620039204970097674B684A684969481A
:1043D000FCF7DCFD657AAE42B8460AD1019700973A
:1043E000614B654A62496548FCF7D0FD06B0BDE8FF
:1043F000F081667295B1022D14D0637A042B00F21D
:10440000A08001A252F823F06B440000ED430000AD
:104410002745000035440000ED4300002046FFF72B
:1044200085FEEAE7A378002BE7D104F170000FF0D6
:104430001BFEE2E7A378022BD8D004F128000FF08E
:104440004FF804F118000FF04BF800214C480FF022
:10445000E5FF00232046A363E36300F00BFC204646
:1044600006B0BDE8F041FFF77FBBA378022B05D172
:10447000204606B0BDE8F041FFF7D6BEEB1E012B8B
:1044800044D8204600F030FC3E4B1D68EDB93E4E4E
:104490003E4F4FF02003EFF3118183F3118823691E
:1044A0002BB160691A682261834208BF626181F39F
:1044B00011888BB132681A6072685D60336002B92E
:1044C000736038460FF0D9FAE3E76B6813B1217ACD
:1044D000204698472D69D9E7A3781BB904F17000ED
:1044E0000FF0C2FDBFF35B8F043454E8003F43F08C
:1044F000400344E80032002AF7D1BFF35B8F204825
:10450000002106B0BDE8F0410FF088BF022D03D1B5
:104510002046FFF729FBABE7012D7FF467AF237A35
:10452000002BA5D0F4E7A378002B7FF45FAF1848E9
:1045300040F6B83204F1700106B0BDE8F0410FF06A
:10454000F7BDCDF808800196CDF80080064B0A4AE9
:1045500007491048FCF71AFD48E700BFE94501008C
:10456000385601008D5A0100C75601001658010047
:10457000A8530100975A0100A1530100B55A010048
:10458000883B00204C030020F8030020EC3A002078
:1045900088190020D35A01004430704770B5064690
:1045A00008460D46FDF7A2FE08B900241CE01D4890
:1045B000FFF7EAFA8305F8D43046FFF7FFFD04461B
:1045C000A0B1437A012B06D001D3032B0CD920468E
:1045D000FFF72AFEE9E76B88A0F85E30AB88A0F809
:1045E0006030EB88A0F86230204670BD3046FFF79F
:1045F00051FD04460028F7D0072231465230FDF71E
:10460000FDFA6B88A4F85E30AB88A4F86030EB88C4
:10461000A4F8623020460121FFF7BCFE0120FDF71F
:10462000A1FFE1E7D03A002070B506460D4600290B
:104630003BD13046FFF7C2FD044628B93046FFF7AC
:1046400029FD0446002851D0231D002D35D06A884D
:10465000A4F85E20AA88A4F86020EA88A4F8622062
:10466000BFF35B8F53E8002F42F0010143E80010D5
:104670000028F7D1BFF35B8FD10702D42046FFF7A4
:1046800055FD637A63B91B48FFF77EFA830707D5A8
:104690001DB101212046FFF77DFE0020FDF762FFDE
:1046A0002046FFF7C1FD002070BD0846FDF71EFE45
:1046B0000028BED16FF0150070BDBFF35B8F53E8CB
:1046C000002F22F0010143E800100028F7D1BFF3CA
:1046D0005B8FD207D5D52046FFF7A6FD637A012B65
:1046E000CFD129462046FFF755FECAE76FF00B00F1
:1046F00070BD00BFD03A002070B50E4681780446E8
:1047000011B94430FFF790FF637A013B032B03D8C4
:10471000DFE803F006101B0E6FF03805284670BD69
:10472000204626720021FFF735FE0020FDF71AFF14
:104730000025F3E704F170000FF096FC002142F22F
:104740000E00BDE87040FDF785BE032140F2064033
:10475000FDF7BEFC054698B1032108300EF036F98E
:10476000238803808670294640F20640FDF772FEDA
:1047700005460028D2D104212046FFF70BFECDE7E5
:104780006FF03605CAE7F8B507460D4642F213004A
:104790000E21FDF79DFC0646C8B10E2108300EF033
:1047A00015F9002104460E22FDF754FA3B882380B8
:1047B0002B8863806B88A380AB88E380EB882381A0
:1047C000314642F21300BDE8F840FDF743BE6FF0FA
:1047D0003600F8BD30B50D468BB004460FF03EF9FB
:1047E000EA880792AA8806926A8805922A88214B4D
:1047F000049294F8642008930392019000931E4A57
:104800001E4B02941E491F48FCF7C0FBB4F85A30F7
:104810002A889A420CD86A889A4209D3B4F8602050
:10482000AB889A4204D1B4F86220EB889A421CD03B
:1048300004F170000FF018FC134B93F878309A07CE
:1048400003D594F864309B0701D4E37833B9294643
:1048500020460BB0BDE83040FFF795BF2946204603
:104860000BB0BDE8304000F0A7BB6FF044000BB0C8
:1048700030BD00BFE945010016580100F3560100A4
:10488000A85301000B570100603A0020034607B50A
:1048900013F8672C022AA0F1700005D11321FFF74D
:1048A0002BFF03B05DF804FB33F8142CADF80020A7
:1048B00033F8122CADF80220694633F8102C33F887
:1048C0000E3CADF80420ADF80630FFF783FFE8E7B3
:1048D00038B5084B0D46002808BF18464FF0FF3189
:1048E0000EF012F8291D044608300EF02CF8204670
:1048F00038BD00BF2C3F00202DE9F04106460C4694
:1049000016480021FFF7E4FF3378032B05464FF0EC
:10491000000605D00EF028F835462846BDE8F0819F
:10492000466100F108070E4E3846B6F888800EF052
:1049300088F880450CD2B6F8886054F8081F3246D3
:1049400038460EF049F8314620460EF05EF8E4E7AE
:1049500038460EF076F886B2EFE700BF4C3F0020F5
:10496000603A0020F0B587B004460FF077F8454D67
:104970000190454B039502940095444A44494548AB
:10498000FCF704FB637A2E460BBBBFF35B8F231D42
:1049900053E8002F22F0400143E800100028F7D12F
:1049A000BFF35B8F530612D50FF058F8238802939C
:1049B000019003950095344B344A35493648FCF74D
:1049C000E5FA204607B0BDE8F040FFF75DBC0021E6
:1049D00004F128000DF09EFF054668B90196009687
:1049E000294B2E4A2A492E48FCF7D0FA404080F342
:1049F00011884FF0040002DF0FF030F80596AB8904
:104A00000096284E04930190204A21490395029470
:104A1000254B2648FCF7BAFAA989B6F888209142B6
:104A200008D800231A4629462046FFF767FA48B1FE
:104A300007B0F0BD04F1090729463846FFF75CFFCF
:104A4000014628B9284607B0BDE8F0400DF08CBFFC
:104A5000012300222046FFF751FA0028F2D0AA894C
:104A6000B6F888309A4202D800230122DBE72946B3
:104A70003846FFF741FF01460028E3D001231A46DC
:104A8000E8E700BFE9450100B456010016580100EF
:104A9000A85301004D570100B157010059530100BF
:104AA0005D540100603A002094560100EB5701006C
:104AB000034BC01A034BC0105843C0B2704700BF2D
:104AC000600300201BCA6B28124B134A196810B5EB
:104AD0001160596801B95A60596892600F4A1A60AA
:104AE00001B95A6001F056FB02F06EF8044670B945
:104AF00000F08AFA0A48FFF747F840B10948FFF783
:104B000043F8C30703D501210748FFF743FC2046BC
:104B100010BD00BFF8030020500300205803002000
:104B2000A003002064030020600300207047000001
:104B30001FB50B4A136833B90A4850600A6018461B
:104B400005B05DF804FB084B029301900093074AFF
:104B5000074B08490848FCF719FA6FF00B00EFE71C
:104B600000040020A43B0020E94501005953010046
:104B7000F65B0100A8530100655C0100F8B507462B
:104B80000E46002004211546FFF7A2FE042104462C
:104B900008300DF01BFF0770467045802046F8BDB9
:104BA0007047000000238360054B596800F108023C
:104BB00011B95A601A6070470A605A60704700BFA6
:104BC00098040020836B10B513B1083B002203B991
:104BD00010BD8B4203F108040FD199683AB9C26B3A
:104BE0008163944200D1C16300229A6010BD1160BC
:104BF000C16B8C4208BFC263F6E72246002CE7D0A7
:104C00009B68002BE4D0083BE1E7036810B504463D
:104C10002BB143685B6803B1984700232360E368C6
:104C20001BB12046BDE81040184710BD30B50C4BF5
:104C30000C4A0D4985B0A0F11004054602938DE899
:104C400018000A480A4BFCF7A1F955F8100C214648
:104C5000FFF7B8FF204605B0BDE83040FFF7D5BFED
:104C6000E945010059530100A8530100B95D010055
:104C7000A05B01001A4B2DE9F7431C6806462CB1D6
:104C80000027DFF86080083CB94614B903B0BDE8DE
:104C9000F083636801A930469847002818DB019D1E
:104CA00023882B87A5F85830414605F110000FF0F6
:104CB000CBF9AF60F26B05F1080372B9F363B3632C
:104CC00001982E604368C5F80C901B6803B19847A3
:104CD000A468002CDAD0083CD7E71360F363EFE751
:104CE000980400202D4C0000836B10B5A3B1B3F1E4
:104CF00008000AD110BD083CFFF787FF64B1A36824
:104D000003B1083B20461C46F6E71C68002CF2D194
:104D1000BDE81040FFF779BF10BD0431FFF7D8BDE3
:104D2000F8B5144605460F4602F1080004211E4658
:104D30000DF063FEA1894780043901803246214687
:104D40002846BDE8F840FFF763B80000F0B58B894E
:104D5000032B87B007460D4609D85A4B01930093A1
:104D6000594A5A4B5A495B48FCF710F914E0084677
:104D7000042150F8084F66880DF047FEAA89964234
:104D80000CD0504B03930192009302964F4B4E4A26
:104D90004F495148FCF7FAF807B0F0BD617839B9CE
:104DA000484B01930093484A484B49494B48DBE73D
:104DB0002378122B29D0132B1DD0012BECD0414A84
:104DC00002928DE80C004249404B454A4548FCF7A9
:104DD000DDF8022261783D680120FFF7CFFE022155
:104DE000044608300DF0F2FD0023037043702246A4
:104DF0000521284625E0012ECED8324B01930093A1
:104E0000314A394B32493948AEE7072E07D82D4B86
:104E1000019300932C4A364B2D493648A4E73C6851
:104E2000E6788EB102220120FFF7A8FE0221054696
:104E300008300DF0CBFD0023037043702A46052196
:104E40002046FFF76DFFA7E7AB6858781A7842EA6B
:104E50000022ADF81020D8789A7842EA0022ADF806
:104E6000122058791A7942EA0022ADF814209A7972
:104E7000DB79132042EA03230222ADF81630FFF754
:104E80007DFE04A907462046FEF7A8FE022105463E
:104E900007F108000DF09AFD7DB106704670002301
:104EA0003A4605212046FFF73BFF002D3FF474AF43
:104EB00004A92046FFF767FC6EE7012303704570E5
:104EC000EDE700BFE945010059530100DD5B01003A
:104ED000A85301009C5C0100CA5C0100FB5C01005E
:104EE000A15301008B5D0100B25B01002C5D01004C
:104EF000C45B0100585D0100806B00B1083800B947
:104F00007047B0F858308B42FAD083680020002BED
:104F1000F6D0A3F10800F2E7806B00B1083800B9C1
:104F20007047038F8B42FBD083680020002BF7D0A3
:104F3000A3F10800F3E700007FB58B89032B064639
:104F40000C460ED8154B01930093154A154B164984
:104F50001648FCF71BF8204604B0BDE870400DF081
:104F600003BD0846042150F8083F5D880DF04DFD53
:104F700029463046FFF7D0FF50B9084B02938DE821
:104F800028000B4A074B08490A48FBF7FFFFE2E7F6
:104F9000436821461B699847DDE700BFE9450100EA
:104FA00059530100E85B0100A8530100035C0100B4
:104FB000A1530100305C010070B5124B1A78013228
:104FC00012F0FF0208BF01221A700C46054619783C
:104FD00008221220FFF7D2FD0821064608440DF0F2
:104FE000F5FC2388038063884380A3888380E3885B
:104FF000C3803246284600230521FFF791FE00209A
:1050000070BD00BF940400200148FFF7CBBD00BF76
:10501000983B00200620704710B50A4A002312F87A
:10502000334084424FEAC30102D10A44907810BD54
:1050300001331B2BF3D110F0400F14BF00200620CA
:1050400010BD00BFB06001007FB5114D2C680E4649
:1050500084B9E42221462846FCF7FCFD02220D4BD0
:105060006B6005F1CC0011460EF0FEFC3560204669
:1050700004B070BD084B029301900093074A084B9F
:1050800008490948FBF782FF6FF00B00F0E700BF0B
:10509000A0040020C43B0020E94501005953010051
:1050A000585E0100A8530100685F010010B5044676
:1050B000006908B10DF058FCA3680BB12046984771
:1050C000204614220021BDE81040FCF7C3BD08B5FE
:1050D00001F108000DF0A9FC002008BD2DE9FF41F9
:1050E0000D6806460C464FF000084FF4205302A905
:1050F00000682F688DF80880ADF80A30FCF7FCFED8
:1051000098B142F6010303A930688DF80C80ADF820
:105110000E30FCF7F1FE40B1236923B1328A598881
:10512000914200D25A80012012E061683068FCF799
:10513000E3FE10B100232361F5E7E368A0681A7865
:105140004AB1B5F85A3081895B1A934203DA0020DC
:1051500004B0BDE8F081042108300DF037FC338A3B
:10516000A1682061038043808A89B5F85A30896834
:10517000D6F804809B1A00250A44009531469BB25C
:105180003846C047011EE2DBE06802780B1D2AB9F1
:105190000370A06808300DF019FCC4E79A42F8D0FB
:1051A000A2689389043B9381D1E78B6870B505466B
:1051B0000C460E6863B94868012108300DF006FC02
:1051C0002B68A0601B78002B0CBF01230223037007
:1051D000A3681B78012B03D0022B1AD0002070BDCE
:1051E0002B681B78002BF9D16068042108300DF082
:1051F000EDFBE0602B8A03802B685B88438063684B
:10520000B6F85A009B89C01A042894BF00200120D8
:1052100070BD2B681B78022BE0D16068122108302A
:105220000DF0D4FBE06029682B8A20F8023B1022A5
:105230000131FCF7E3FC6368B6F85A009B89C01A99
:105240001228E2E72DE9F0410E6888B005460C46C9
:10525000002742F6010302A90068D6F800808DF805
:105260000870ADF80A30FCF747FE28B90023A360A8
:10527000012008B0BDE8F0814FF4205303A928684D
:105280008DF80C70ADF80E30FCF736FE40B1A36817
:10529000002BEDD02A8A59889142E9D25A80E7E75B
:1052A0006268B6F85A3092899B1A032BE1D9102311
:1052B00000900DEB03026E6829464046B047021E7F
:1052C000D4DB237C9A42D1D104A9E068FCF781FCAD
:1052D0000028CBD160746068042108300DF076FBA3
:1052E0002B8AA06003804380C2E7000010B517231B
:1052F0000446A0F85A3043870649A4300EF0A4FEB5
:105300000023C4F89C30C4F8A0302068BDE81040E9
:1053100001F000BC3958000011F0010F837C04D06B
:1053200013F0150F12D0426882B18A0704D513F02A
:105330002A0F0DD082685AB1194011F0300F09D1EF
:1053400011F00C0F14BF0F2000207047022070478F
:1053500003207047052070472DE9F7430F68064684
:105360000C4600684968D7F80090FCF7C5FD8046F8
:1053700000284DD115213046FFF7CEFF0546207598
:1053800048B1E3681D7815B184F814804546284675
:1053900003B0BDE8F083A068022108300DF016FBD1
:1053A000338AA168206103808A89B7F85A308968F6
:1053B000D6F8048000959B1A9BB20A4448463146B1
:1053C000C047011E08DA01F1FF03FE2B9ABF4942D4
:1053D000C9B20E212175DAE7E06802788B1C82B928
:1053E0000370A06808300DF0F1FAA368B7F85A50BE
:1053F0009B89ED1AE3681B789D42D4BF00250125E7
:10540000C5E79A42EDD0A2689389023B9381BEE73B
:105410000125BCE710B58A89022A044603D0102A68
:105420000AD0002010BD0023037001F108000DF028
:10543000FCFA6080012010BD022300F8013B89685E
:10544000FCF7DCFBF6E7000010B50421FFF754FD84
:105450000446CC300EF011FBD4F8983043B104F17F
:10546000A40147F230520348BDE810400EF060BE80
:1054700010BD00BF8819002003685B7A032B0AD196
:10548000BFF35B8FD0F89400BFF35B8F6FEAA0008F
:1054900000F001007047012070470620704708B5F2
:1054A0000421FFF729FDBDE80840CC300EF0E5BA35
:1054B00008B50421FFF720FDBFF35B8F00F19403D3
:1054C00053E8002F22F0010243E800210029F7D120
:1054D000BFF35B8FCC30BDE808400EF0CEBA08B504
:1054E0000421FFF709FDBFF35B8F00F1940353E83C
:1054F000002F22F0020243E800210029F7D1BFF378
:105500005B8FCC30BDE808400EF0B7BA437A032B6E
:1055100013B50BD0154B01930093154A154B164943
:105520001648FBF733FD002002B010BD0421FFF741
:10553000F3FC044650B90D4B01930093104A0D4BF8
:105540000D491048FBF722FD2046EDE7BFF35B8FC6
:10555000D0F89430BFF35B8F5B07F5D5034B019315
:105560000093034A034B04490748DAE7E945010081
:10557000A15301002D5E0100A8530100665E0100E9
:1055800059530100845E0100AF5E01002DE9F34133
:105590000C46D1F800802A210646FFF7BDFE0546DD
:1055A0002075E0B9628A01900092237CB768E268B6
:1055B00031464046B847002802DB237C98420BD096
:1055C00000F1FF03FE2B9ABF4042C0B20E202075AF
:1055D000284602B0BDE8F08125750125F8E70025D1
:1055E000F6E7000073B5054600F1CC06C5F8981043
:1055F0000C4630464FF0FF310EF067FA2846FFF7B1
:105600003BFF78B9184B01930093184A184B19497E
:105610001948FBF7BBFC30460EF02FFA6FF038004C
:1056200002B070BD266906F108000DF006FAB389D4
:10563000A081E38120692D680DF0C4F923699B687E
:1056400006461878FFF7E8FC0138C0B2042896BF78
:105650000A4B0B4B53F82030324628460421FFF703
:105660005FFB0020DCE700BFE9450100A15301001A
:10567000F05D0100A85301000A5F0100DC5D01003C
:105680009F5400002DE9F7430446A4301E460F4600
:1056900090460EF0E9FCD4F89830DBB91C4B01932E
:1056A00000931C4A1C4B1D491D48FBF76FFCD4F8A6
:1056B0009C1059B1D4F8A0200B68C4F89C309142DA
:1056C00008BFC4F8A0302046FFF78CFF002003B0CD
:1056D000BDE8F083186928B10DF046F9D4F8983088
:1056E00000221A61D4F898302068D3F8049000257D
:1056F0005D603A46009331464346C847D4F8980067
:1057000043680BB9FFF7D2FCC4F89850CFE700BF4D
:10571000E9450100A1530100FD5D0100A85301000E
:10572000E35E01008A8989680023FFF7ABBFFFF7BA
:10573000F9BFFFF7F7BFFFF7F5BFFFF7F3BFFFF7BD
:10574000F1BFFFF7EFBFFFF7EDBFFFF7EBBFFFF7CD
:10575000E9BF10B40A46034680B189680C88162C4C
:1057600083BF17245C87A3F85A40002299BF042303
:1057700011460023928910BCFFF784BF10BC70470C
:1057800030B4D0F898208C686AB113692BB1958930
:105790001969D2899A8129449960E37800221146D7
:1057A00030BCFFF76FBF0E23F8E7F7B500F19403A5
:1057B0000546BFF35B8F53E8002F42F0040243E835
:1057C00000210029F7D1BFF35B8F05F1CC042046FF
:1057D0000EF053F920460EF050F9D5F89C408CB9E4
:1057E000D5F898300022C5F89C20C5F8A0200BB948
:1057F00003B0F0BD0E231146284603B0BDE8F040CB
:10580000FFF740BF266867682FB1002300941A464F
:105810000E211846B8472046FFF748FC002EDFD07F
:1058200034463668EFE710B50446FFF7BEFF206840
:10583000BDE8104001F078B913B50B4B0B4A0C4989
:105840000193044600930B480B4BFBF79FFBA4F11D
:10585000A400FFF7AAFF54F8A40C01F065F9002397
:1058600044F8A43C02B010BDE945010059530100C1
:10587000A85301004C5F01004C5E01002DE9F74385
:1058800006468868D1F800900C4608300021D9F807
:1058900000800DF09BF80027E0602774152130464A
:1058A000FFF73AFD0546207408BBA168B9F85A30E5
:1058B0008A898968A08800909B1A77680A449BB2FD
:1058C00031464046B847011E0BDA01F1FF03FE2BBB
:1058D0009ABF4942C9B20E212174284603B0BDE8DF
:1058E000F083A06808300DF071F80125F5E73D461A
:1058F000F3E7000030B585B00D461446FFF706FE0D
:10590000F0B1B0F85A1001348C420ED90D4B03930C
:105910000294019100930C4A0C4B0D490D48FBF782
:1059200035FB0024204605B030BD00210846FFF7B6
:10593000F4F90121044608300DF048F80570F1E74C
:105940000446EFE7E9450100A15301003A5E01007A
:10595000A85301009D5F010010B5046801F1080023
:105960000DF063F800221E212046FFF7C3FF024618
:1059700020B1034B04212046FFF7D2F9002010BDCF
:10598000DF5400002DE9F0418B681B88162B05467B
:105990001CD9D0F80080022203214046FFF7AAFF5D
:1059A0000746B0B1022108300DF010F81726002488
:1059B00006704470084B40463A460421FFF7B0F9A0
:1059C0006E87A5F85A602046BDE8F0810420BDE846
:1059D000F0810E20BDE8F081B15400002DE9F041C6
:1059E000884617460121042205461E46FFF782FF1E
:1059F000044680B1042108300CF0E8FF80F80080F4
:105A0000C670A0F8017022462846044B0421BDE868
:105A1000F041FFF785B9BDE8F08100BFB154000047
:105A2000F0B58B8985B004460F4653B94B4B0193B3
:105A300000934B4A4B4B4C494C48FBF7A7FA05B037
:105A4000F0BD0846012150F8085F0CF0DEFF484A1F
:105A500028780023114612F8336086424FEAC30EBD
:105A60001CD172449678012E36D1BFF35B8F04F1BE
:105A7000940252E8003F43F0010042E8000CBCF100
:105A8000000FF6D1BFF35B8FDA0740D5334B01939C
:105A90000093384A334B34493748CEE701331B2B48
:105AA000D9D12E4B029301900093324A2D4B2E49AF
:105AB0003248FBF76BFA2D782846FFF7ADFA00283D
:105AC000BDD0002DBBD0062300222946206805B09A
:105AD000BDE8F040FFF782BF052E18D1BFF35B8F02
