:10000000E02C0020E11A0000351B000079190000E7
:100010007919000079190000791900007919000098
:100020007919000079190000791900008115000084
:1000300079190000791900003D15000079190000B8
:10004000A51A00005B1C0100A51A0000A51A0000FB
:10005000A51A0000A51A0000A51A0000A51A0000A4
:10006000A51A0000A51A0000A51A0000A51A000094
:10007000A51A0000A51A0000A51A0000A51A000084
:10008000A51A0000A51A0000A51A0000A51A000074
:10009000A51A0000A51A0000A51A0000A51A000064
:1000A000A51A0000A51A0000A51A0000A51A000054
:1000B000A51A0000A51A0000A51A0000A51A000044
:1000C000A51A0000A51A0000A51A0000A51A000034
:1000D000A51A0000A51A0000A51A000000000000E3
:1000E0007912000000000000F1180000000000007C
:1000F000F118000000000000F118000000000000EE
:10010000F118000000000000F118000000000000DD
:10011000493D010000000000F1180000000000004F
:10012000F118000000000000F118000000000000BD
:10013000F118000000000000211C01000000000078
:10014000F1180000B03E00204D400100000000000A
:10015000F118000000000000F1180000000000008D
:10016000F118000000000000A113000000000000D2
:10017000F118000000000000F1180000000000006D
:10018000F118000000000000F1180000000000005D
:10019000F118000000000000F1180000000000004D
:1001A000551C010000000000F118000000000000D4
:1001B000F118000000000000F1180000000000002D
:1001C000F118000000000000F1180000000000001D
:1001D000F118000000000000F1180000000000000D
:1001E000F118000000000000F118000000000000FD
:1001F000F118000000000000F118000000000000ED
:10020000F118000000000000F118000000000000DC
:10021000F118000053B94AB9002908BF00281CBFD3
:100220004FF0FF314FF0FF3000F08EB9ADF1080C08
:100230006DE904CE00F01AF8DDF804E0DDE90223F0
:1002400004B07047430803F05533C01A830803F025
:10025000333300F03330184400EB101000F00F304F
:1002600000EB002000EB0040000E70472DE9F04746
:100270008C460D460446089E002B51D18A421746F3
:100280006DD9B2FA82FEBEF1000F0BD0CEF1200C78
:1002900001FA0EF520FA0CFC02FA0EF74CEA050CF6
:1002A00000FA0EF44FEA174A250CBCFBFAF81FFAC5
:1002B00087F90AFB18CC45EA0C4508FB09F3AB4269
:1002C0000AD9ED1908F1FF3280F02381AB4240F2E8
:1002D0002081A8F102083D44ED1AA4B2B5FBFAF062
:1002E0000AFB105544EA054400FB09F9A14509D968
:1002F000E41900F1FF3380F00A81A14540F2078143
:1003000002383C44A4EB090440EA08400021002ED6
:1003100061D024FA0EF4002334607360BDE8F087E6
:100320008B4207D9002E54D0002186E821000846D0
:10033000BDE8F087B3FA83F1002940F08E80AB422C
:1003400002D3824200F2FA80841A65EB0305012091
:10035000AC46002E3FD086E81010BDE8F08712B9F9
:100360000127B7FBF2F7B7FA87FEBEF1000F34D1D1
:10037000EB1B3A0C1FFA87FC0121B3FBF2F8250CAA
:1003800002FB183345EA03450CFB08F3AB4207D9DF
:10039000ED1908F1FF3002D2AB4200F2D180804665
:1003A000ED1AA3B2B5FBF2F002FB105543EA054487
:1003B0000CFB00FCA44507D9E41900F1FF3302D27D
:1003C000A44500F2B8801846A4EB0C0440EA0840AB
:1003D0009DE731463046BDE8F087CEF1200405FAAE
:1003E0000EF307FA0EF720FA04F83A0C25FA04F493
:1003F00048EA0308B4FBF2F14FEA184502FB114446
:100400001FFA87FC45EA044501FB0CF3AB4200FAF6
:100410000EF409D9ED1901F1FF3080F08A80AB426A
:1004200040F2878002393D44EB1A1FFA88F5B3FB8E
:10043000F2F002FB103345EA034500FB0CF3AB423C
:1004400007D9ED1900F1FF386FD2AB426DD90238F0
:100450003D44EB1A40EA01418FE7C1F1200722FA3F
:1004600007F88B4005FA01F448EA030320FA07FE77
:100470004FEA134CFD404EEA040EB5FBFCF94FEA7F
:100480001E440CFB19551FFA83F844EA054509FB85
:1004900008F4AC4202FA01F200FA01FA08D9ED18A8
:1004A00009F1FF3043D2AC4241D9A9F102091D4400
:1004B0002D1B1FFA8EFEB5FBFCF00CFB10554EEA0F
:1004C000054400FB08F8A04507D9E41800F1FF3502
:1004D00029D2A04527D902381C4440EA0940A4EBA0
:1004E0000804A0FB02894C45C6464D4615D312D0E0
:1004F00056B1BAEB0E0364EB050404FA07F7CB40E0
:100500001F43CC40376074600021BDE8F087184677
:10051000F8E69046E0E6C245EAD2B8EB020E69EB97
:1005200003050138E4E72846D7E7404691E78146CE
:10053000BEE7014678E702383C4445E7084608E74D
:10054000A8F102083D442BE7704700BF70B503785F
:100550008AB004460E4607AD032B20D8DFE803F02F
:1005600002191B1D1149284601F03AFB62780492DA
:10057000A2780392E2780292227901926279009243
:10058000A37905950A4A1B21304600F00DFD0AB0FB
:1005900070BD0849E7E70849E5E70849E3E7084A85
:1005A0000A21284600F000FDE0E700BFD155010018
:1005B000FA550100D8550100DF550100E955010049
:1005C000F355010030B589B00D46044604F098FC9F
:1005D00001A9FFF7BBFF35B12A4601A9084800F081
:1005E000D5FC09B030BD074B1B689C42F9D101A96D
:1005F000054800F0CBFC1321204604F031FDF0E764
:100600001D560100000000203B56010030B5134C80
:10061000236883428BB00D461DD104F071FC03A901
:10062000FFF794FF2A4603A90D4800F0AFFC2068AD
:1006300004F09CFA002323600A4B0B4918680190D0
:100640009B88ADF8083001A803F04AFE014610B1BE
:10065000064800F09BFC0BB030BD00BF000000203E
:1006600066560100745501007106000084560100B1
:1006700070B5104C23688AB006460D46C3B9012AEE
:1006800016D803A9FFF762FF2A4603A90A4800F01B
:100690007DFC46350CDB03F075FE48B9074A10684F
:1006A000516801AB03C301A9304604F02BFC206064
:1006B0000AB070BD000000204A5601007A550100C2
:1006C00007B5002003F098FD014628B10E4800F060
:1006D0005DFC03B05DF804FB0C4800F057FC0C48CF
:1006E00003F010FF0B4B0C49186800909B88ADF885
:1006F0000430684603F0F4FD014608B10748E6E718
:10070000074800F043FCE4E7A7560100C756010084
:10071000203A002082550100710600008456010035
:10072000DE5601000C4B1B78062B12D10B4B1868C0
:1007300010F00F000DD104331B6803F0F003302BD1
:1007400008D1074B1B6813F0F00F0CBF01200020ED
:1007500070470020704700BFE00F00F0E40F00F08A
:10076000EC0F00F008B54FF02003EFF3118183F395
:100770001188FFF7D7FF20B13D4AD36823F080737B
:10078000D360FFF7CFFF10B13A4B03221A60FFF797
:10079000C9FF30B14FF080430022C3F80C21C3F8E9
:1007A0001021354B1B78062B17D1344B1B681807CB
:1007B00013D1334B1B6803F0F002302A03D003F04F
:1007C000E003402B09D14FF08043D3F80024D20737
:1007D00003D56FF00102C3F800244FF01022D2F8C5
:1007E0000032002B274B03DBD2F80022002A2FDA3D
:1007F0000122C3F80425D3F80024002AFBD04FF0CF
:1008000010231522C3F800221E4A1346D2F8001402
:100810000029FBD04FF010221521C2F80412D3F8A2
:100820000024002AFBD00022C3F80425154AD2F880
:100830000034002BFBD0BFF34F8F1349134BCA6812
:1008400002F4E0621343CB60BFF34F8F00BFFDE7BC
:100850000122C3F840250C4B4FF0FF329A62DA6256
:100860000B4B0C4A1A6081F31188002008BD00BFB1
:10087000F0ED00E0A0050040E00F00F0E40F00F014
:10088000E80F00F000E0014000ED00E00400FA0590
:10089000543A00200090D00308B50446084611469B
:1008A0001A46A04714F018F901F0D6F810B5C47A2A
:1008B000C0688C424FF00C04B6BF614304FB0101D9
:1008C0004158202492FBF4F401EB8401196002F0FA
:1008D0001F0010BD07B501ABFFF7E8FF019A012328
:1008E00003FA00F013680343136003B05DF804FBE0
:1008F00007B501ABFFF7DAFF019A012303FA00F015
:10090000136823EA0003136003B05DF804FB2DE9CC
:10091000F0474368058904460068A77A5D43284488
:1009200000214FF00C0E4FF0200CB94205DB0025E2
:1009300023899D4223DBBDE8F087D4F80C90B5FBFA
:10094000F3F20EFB01F81F2A09EB08064FEA9303A6
:1009500006F1040AC8BF1F3203F10303C6F804A05E
:10096000C6F808A0CABF92FBFCF2E17249F8080081
:1009700023F00303C8BF00EB82000131D5E76268B2
:10098000E36820686A431E1D865081189A684A6091
:100990009A682046116099602A460021FFF79AFF65
:1009A0000135C5E72DE9F04F8BB0867A00AF0446DC
:1009B000FB60B3000A3323F00703ADEB030D43687C
:1009C0003A6103336A4623F0030342F80439E946E7
:1009D0004FF0FF3500234FF00C0E581EB3427862E3
:1009E00009DA2BB110688008033020F00300506052
:1009F000506888420BD27B6A013314D13A6D0023D0
:100A000013606FF00B002C37BD46BDE8F08FE06837
:100A10000EFB030000F1040C40680432604518BF6F
:100A20001D460133D9E76B1CE8D0E16859F8252051
:100A30000C2303FB051353F8046F9E4261D096E824
:100A40000A00196031684B6023682946F31A204672
:100A500093FBF2F2FFF74CFFA9EB890309EB850A40
:100A6000BB617B6A9D4223680EDB3A6911467A6A54
:100A70000A60F31A59F8222093FBF2F3FA68136024
:100A80003B6D00201E60BEE75AF8042BF31A93FB5F
:100A9000F2F3BA699B007B610AEB4A0313444FF0FF
:100AA000010BFB6105EB0B03BB60DAF80080B96852
:100AB0000BFB08F33B62F3187B607B6920460BEB72
:100AC0000302FFF707FF7B682268218908F1FF38DE
:100AD0009844A8EB020862684A4390450AD2E2684B
:100AE000F969386A0A44111D31509168596091685A
:100AF0000B6093600BF1010BBBF1040FD5D10135F5
:100B0000AFE76FF00A007EE72DE9F04F85B0837AFA
:100B10009B000A3323F0070300AFADEB030D4368DE
:100B2000033323F003030546EA4600936C46012095
:100B300081424CD20C4616463246214628465AF887
:100B40002480D5F80090FFF7C5FE002C48D007F1AF
:100B50000C03324621462846FFF7A8FEFA68042314
:100B600090FBF3F083001068D84000F00F000F28CE
:100B700036D126F003034FF000097B6008F1FF3BFC
:100B80007B684B441A46214628463B60FFF7B0FE7F
:100B90003B689E4212D008FB03F2B5F808C06B68B0
:100BA000296802EB0B0E03FB0CF39E4501EB0200E0
:100BB00004D240688B5803608B58586009F10109D2
:100BC000B9F1040FDCD196FBF9F6013CB4E72368D8
:100BD0009B08033323F0030344F8043F0130A7E7E5
:100BE00008FB06F62A68696809EB060308F1FF3876
:100BF0009844A8EB02082A89514388450BD2E9683A
:100C00000C2202FB0414221D49F80620A2685A6037
:100C1000A2681360A3601437BD46BDE8F08F0020C2
:100C2000704700000B6801330B60014B1B681847CD
:100C3000583A00202DE9F04F85B09B460E9CDFF816
:100C400090A0012CB8BF0124012B0CBF302320231E
:100C50001546804689460194029301260A27002200
:100C60000AF101040AB9AA451FD2B5FBF4F04946BE
:100C70003030C04701360122013F012FB5FBF4F1AE
:100C80004FF00A0304FB1155BAFBF3FAE8D14946C9
:100C900005F13000C047BBF1030F03D1019B9C1B42
:100CA000002C0FDC05B0BDE8F08F019BBB42E3DBFD
:100CB000BBF1020FE0D84946029803920136C047C3
:100CC000039AD9E749462020C047013CE8E700BF26
:100CD000FFC99A3B0A688B6830B512B14C68A342D1
:100CE00002DB01338B6030BD651EAB420BBF8C60F5
:100CF0005C1C00218C600CBFD154D05430BD00006E
:100D0000014B1860704700BF583A00202DE9F04FA2
:100D100089B04FF0000A06460F4604921C464FF079
:100D2000FF39D0465546049B187810B909B0BDE884
:100D3000F08F45B9252800F00C813946B047049B57
:100D400001330493EFE7642861D019D839280AD811
:100D5000312850D22D283CD030283DD0252808D12C
:100D60003946B0476FE0582800F08980632800F0CA
:100D7000EA8039462520B047049B39461878F0E7C9
:100D8000702872D006D8692841D06C283CD06828D9
:100D9000D5D0EEE7752858D017D87328E9D1236845
:100DA00004F1040B1C46254615F8010B002840F001
:100DB000BF80B8F1030F40F0D580E41AA9EB04041A
:100DC000002C00F3BB805C463DE0782857D07A28A1
:100DD000DEE74FF00308B2E7B9F1000F0EDAB8F121
:100DE000000F00F0BC80A0F13009B8F1000F08BF7F
:100DF0004FF00208A3E7B9F1000FF4DB0A2303FB6D
:100E00000909A9F13009F0E70AF1010A97E7BAF1F7
:100E1000010FC5BF073424F0070325681D68D4BF40
:100E2000043403F10804002D05DA39462D20B047BB
:100E30006D4209F1FF39CDF8009043462A46394604
:100E40003046FFF7F7FE002579E7BAF1010FC5BF7D
:100E5000073424F0070322681A68CDF80090CCBF4D
:100E600003F1080404344346E9E739463020B0472B
:100E700039467820B0474FF008094FF00108BAF121
:100E8000010FC7BF073424F0070323680593C2BFCF
:100E900003F108041B6805934FF008024FF00003AC
:100EA000D8BF04340393079393460BF1FF3B059B94
:100EB0004FEA8B0023FA00F010F00F0009D1079BD6
:100EC00013B9BBF1000F22D14FF0300E07E0069AA4
:100ED000EBE709288CBF4FF0570E4FF0300E394624
:100EE00070440692B047039B079501330393BBF10F
:100EF000000FECD1B8F1030FA5D1039BC3EB49055B
:100F0000002DA0DD39462020B047013DF8E7531EF3
:100F100091450693EBDBB8F1010F03D13946302040
:100F2000B047E4E7B8F1020FE1D139462020F7E7F6
:100F3000394603932C46B047039B34E739462020BB
:100F4000B047013C3CE72068251D3946B0472C4698
:100F500079E7AA46A8464FF0FF390125EFE64FF0A2
:100F60000108ECE65C460546E9E6000013B502AC74
:100F7000002344F8043D02460B4603482146FFF790
:100F8000C5FE019802B010BD250C00000FB407B5D6
:100F900004A951F8040B0191FFF7E8FF03B05DF8D5
:100FA00004EB04B0704700000CB430B585B008AB5A
:100FB000044653F8042B01900291002501A907482B
:100FC00000930395FFF7A2FE0398029B9842B8BFD7
:100FD000255405B0BDE8304002B07047D50C000084
:100FE00070470FB404B0704713B5114CBFF35B8F5B
:100FF0002068BFF35B8F60B90E4813F095F8BFF31C
:101000005B8F54E8003F44E80002002AF9D1BFF3A7
:101010005B8F436804221B680DEB02019847002890
:1010200002DA00F037FA0190019802B010BD00BF5B
:10103000040000200C5701000A2838B50446074D6B
:1010400004D1286843680D215B6898472868436885
:10105000E1B25B689847204638BD00BF0800002019
:101060000148FFF74DBE00BF3910000008B5044825
:1010700013F05AF8034B1860FFF7F2FF002008BD89
:10108000165701000800002010B54FF02003EFF3C1
:10109000118283F31188114C237823B982F31188CC
:1010A0006FF0440010BD013BDBB2237023B182F32B
:1010B00011886FF00F0010BD094B1878012128B17D
:1010C000217082F311886FF00A0010BD197082F34D
:1010D00011884FF080425160187010BD0E00002042
:1010E0000D00002008B500221046012100F0E8FBA9
:1010F000002000F0B3FB002008BD0000F8B54FF061
:101100002002EFF3118382F31188254A1078441CE2
:10111000147060B183F311884FF08043D3F80C341E
:1011200013F4803F14BF00206FF04300F8BD1D4D45
:101130002F782FB1107083F311886FF00A00F8BD7B
:1011400001262E7083F311884FF0804419B338467E
:1011500000F094FBC4F80071D4F80433C4F80463BD
:101160002660D4F8002192B10022C4F800210E4A72
:1011700013F0010F4FF0010308BFC4F8083300203B
:10118000C2F8803100F06AFB00232B70C4E720BF57
:1011900040BF20BFE5E7C4F800112660F4E700BFB8
:1011A0000E0000200D00002000E100E0F8B506462A
:1011B0000C464FF02002EFF3118382F311882C4A82
:1011C000157865B183F311884FF08043D3F8183454
:1011D00013F4803F0CBF6FF043000020F8BD0127DF
:1011E000177083F31188284600F048FB4FF08043C6
:1011F0000221C3F80451D3F80423C3F80413C3F83D
:1012000018459F60D3F8041171B39207194F58BF66
:1012100002224FF000014FF00105C3F804114FF016
:10122000000058BFC3F80823C7F8805100F016FB30
:101230004FF0804300211822C3F80823C3F80C1193
:10124000C3F8101114F00301BED11020C3F8380503
:10125000C3F804233046C3F80453FFF74FFF0028B8
:10126000B2D1C7F80051AFE720BF40BF20BFC9E7E8
:101270000C00002000E100E0F8B54FF08043054687
:10128000D3F808E1D3F80423D3F80C44D3F8007161
:10129000D3F80401D3F80C11D3F8106102F0010265
:1012A000BEF1000F03D04FF0000EC3F808E127B1E4
:1012B0004FF080430027C3F800713AB1E30341BF08
:1012C0004FF080430122C3F808231A6120B14FF088
:1012D00080430022C3F8042149B14FF0804400212B
:1012E000C4F80C112846FFF7CFFE0123636176B1E5
:1012F0004FF0804300210124C3F810112846C3F8A1
:101300000443FFF7FBFE10B9014BC3F80041F8BDE1
:1013100000E100E0084BC3F84005D3F80435C01ADB
:1013200020F07F40054B0238984282BF044B4FF4B7
:101330000032C3F80021704700100140FDFF7F001C
:1013400000E100E038B5114B114CD3F804052268D8
:10135000104D801A2B6820F07F4098420FD3B0FBCD
:10136000F3F00D490968884228BF084600FB0323B3
:1013700023F07F432360094B186013F025FC20689D
:101380002B681844BDE83840FFF7C4BF0010014087
:1013900014000020703E0020100000206C3E002051
:1013A000024B0022C3F84021FFF7CCBF00100140E0
:1013B000031E0A4A0A4804DB116890FBF1F18B42D4
:1013C00002DD136890FBF3F31068064A06491268C1
:1013D0000B6000FB0320FFF79DBF00BF703E0020A5
:1013E000FFFF7F00140000201000002008B5074B0D
:1013F0000022C3F84021064B4FF40032C3F880218D
:10140000FFF7A0FF034B01221A6008BD0010014046
:1014100000E100E01000002070B5184812F084FED2
:1014200048B34368164D1B6801219847154B0024AB
:101430001C60154B01261E60144BC5F808451B683F
:10144000C5F840354FF48033C5F84433C5F804334C
:101450000F4BC5F840414FF40032C3F880213146AC
:101460002246112000F02CFA112000F0F7F9AE60AE
:1014700020462E6070BD4FF0FF3070BD3857010020
:10148000001001401400002010000020703E0020D9
:1014900000E100E00A4A30B5D2F80435094DD5E93B
:1014A0000001D2F80445A34207D1074A126850430D
:1014B0001B1A23F07F43184430BD2346EFE700BFDB
:1014C0000010014080190020703E0020074881680C
:1014D000006A884208D000B513F0B0FA5DF804EB5A
:1014E00003494FF080520A607047000048190020FD
:1014F00004ED00E0044800232021C2180133272B0B
:1015000082F80013F9D1704700E100E0084A094968
:1015100093680968D966084998664B6843F0805318
:101520004B60002383F311889368D86E704700BF27
:10153000481900209C99010000ED00E0202080F374
:1015400011880D498A682C201044EFF3098C80E83B
:10155000F01F0A4F4FF000660A6A8A603E60906E84
:101560000023936680F3118802F12C0090E8F01FAD
:101570008CF30988704700004819002004ED00E052
:101580001EF0040F0CBFEFF30880EFF309808169B0
:1015900031F8021C11F0FF010229FFD000B500F064
:1015A0002BFA00BD10B5044613F096FA22680146E6
:1015B000BDE810400148FFF7E9BC00BF91580100A9
:1015C00038B504461A480D46FFF7E0FC04F1180050
:1015D000184CFFF7E7FFA36AD90602D51648FFF7B4
:1015E000D5FCA36A1A0702D51448FFF7CFFCA36AFB
:1015F0009B070ED51248FFF7C9FC616BA36A18065A
:1016000007D51048FFF7C2FC1DB1A36A23F0800381
:10161000A362084CA26AD20702D50B48FFF7B6FCBA
:10162000A36A9B0602D50948FFF7B0FC002038BD2D
:10163000DB58010000ED00E0F25801000459010000
:101640001859010031590100425901006259010045
:1016500010B504461A48FFF799FC04F11800194C1C
:10166000FFF7A0FFA36A9A0102D51748FFF78EFC87
:10167000A36ADB0102D51548FFF788FCA36A1803AB
:1016800002D51348FFF782FC0E4CA36A590302D51A
:101690001048FFF77BFCA36A9A0302D50E48FFF7B8
:1016A00075FCA36ADB0302D50C48FFF76FFC054A03
:1016B000936A6FEA03436FEA13439362002010BDFD
:1016C0009259010000ED00E0AB590100BF59010043
:1016D000DA590100F95901001F5A01003A5A010074
:1016E00038B504461D480D46FFF750FC04F11800BC
:1016F0001B4CFFF757FFA36AD80404D51948BDE86F
:101700003840FFF743BCA36A190501D51648F6E730
:10171000A36A9A0514D51548FFF738FCA16BA36A94
:101720001B0407D51248FFF731FC1DB1A36A23F44F
:101730000043A3620A4B9B6A58050ED50D48DEE7AD
:10174000A36A5905FAD4A36ADA0501D50A48D6E78F
:10175000A36A9B0401D50948D1E738BD5857010059
:1017600000ED00E0F2580100045901006F5701003C
:101770003159010089570100A55701006259010044
:1017800038B5274C6368C3F30803DA1E0546092AF7
:101790003BD8DFE802F0053436303A3A3A3A3A3884
:1017A0002048FFF7F3FBE36A9A0703D51E48FFF7CB
:1017B000EDFB02E0E36A5B0001D4002009E01B4876
:1017C000FFF7E4FB1A4B1B7843B101212846FFF7D2
:1017D000F7FE2946BDE8384000F012B9154B1B78DA
:1017E00023B101212846FFF77BFFE6E7124B1B8858
:1017F0009BB2002BE1D02846FFF72AFFE9E7002142
:10180000E4E70021EEE70D48D1E70D480D49A3F1CB
:1018100010020F2BD8BF01460B48FFF7B7FBCCE7F0
:1018200000ED00E0EC5701000458010026580100CB
:1018300028ED00E029ED00E02AED00E04658010027
:10184000BE570100D35701007D580100024A536979
:1018500043F010035361704700ED00E043B2002BEA
:1018600008DB012200F01F0002FA00F05B09024AC7
:1018700042F82300704700BF00E100E043B2002BB4
:101880000DDB01225B0900F01F0002FA00F020339B
:10189000034A42F82300BFF34F8FBFF36F8F7047A7
:1018A00000E100E04209054B00F01F0053F8222040
:1018B000012303FA00F01040704700BF00E100E090
:1018C00043B2002BA8BF03F1604301F101014FEACD
:1018D0004111ADBF03F5614300F00F00034BC9B2E6
:1018E000B6BFC9B283F800131954704714ED00E075
:1018F00000F042B808B572B6044BD86918B100229E
:10190000DA6112F037FC62B608BD00BF481900204A
:10191000F8B50C4616461F4604220A9B099905464F
:1019200013F06EFBA6F1200121440C4AEC6521F076
:101930000701002322F001022B656B652E668A6188
:10194000069A4A60079A8A60089ACA600F604FF048
:101950008072CA61E964AB66F8BD00BF99080000F7
:10196000014910220A60704710ED00E0404080F30A
:10197000118830BF704700BF404080F31188DFF806
:101980001CC0DCF800C01CF4006C0CBFEFF3088036
:10199000EFF3098000B5FFF7F3FE00BD04ED00E0B2
:1019A000042838B504460D4613D0052813D0032863
:1019B00013D10C48FFF7EAFA13F08EF8AA69014632
:1019C0000948FFF7E3FA29462046BDE8384000F011
:1019D00017B80648EEE70648ECE701460548FFF76A
:1019E000D5FAE9E7665A0100E45A01008C5A010071
:1019F000A65A0100C15A010001460068FFF7D0BF96
:101A0000052810B50CD013F029FA60B113F026FAAE
:101A10000C4B0D49002808BF19460C48FFF7B6FAD1
:101A2000FFF7A4FFFCE713F029FA0028EED1084CD9
:101A30000848A168FFF7AAFAA068BDE8104000F0C6
:101A40000BB800BF245B0100205B0100355B010087
:101A500048190020555B010038B505464FF02003BA
:101A6000EFF3118483F3118813F060FA0B4B9B683A
:101A70009D420DD10A4B5A68C2F3080222B912F0F6
:101A8000DDFF2046FFF742FD5A6842F080525A605F
:101A90002046BDE8384012F08BBE00BF4819002038
:101AA00000ED00E000B572B60B4AD06900281EBFF9
:101AB0000021D16112F05EFB62B6EFF30580A0F168
:101AC00010004FEAC0000549014409C998475DF874
:101AD00004EBFFF7FBBC000048190020DC0000000D
:101AE000202080F3118806484FF40061401880F3ED
:101AF0000988022080F31488BFF36F8F00F006B8C6
:101B0000202E002030BFFFF7FDBF00BF08B5074BF8
:101B1000074A23F07F039360BFF34F8FBFF36F8FAC
:101B200012F058FB12F060FB12F082FB0000000084
:101B300000ED00E008B5FFF7E5FFBDE80840FFF75E
:101B4000C5BC000010B521F01F030C4C034343F04B
:101B50001003A06086B0E36042F001032361084BEC
:101B600004930093074B0392029101901C68064A6C
:101B7000064B07490748A04706B010BD90ED00E0AE
:101B8000655601005C3A0020875B01007A5B01002A
:101B90008E5B0100965B0100F8B50F4D2B68082B9A
:101BA0000CD80E4E002474600C272B689C4207D37F
:101BB00005237360BFF34F8FBFF36F8F0020F8BD15
:101BC000696807FB04F3CA1820469268C958FFF7F2
:101BD000B9FF0134E9E700BF343A002090ED00E09E
:101BE0000139034611F8012F0AB91A70704703F83A
:101BF000012BF7E702460346981A13F8011B002948
:101C0000FAD170470138013910F8013F11F8012F5E
:101C1000934202D1002BF7D11A46981A704770B53B
:101C200082B1013A0C46034603D11A782078101A83
:101C300070BD1E782578AE4200F1010001F101016E
:101C4000EFD0F2E7104670BD81EA000313F0030FF6
:101C500070B503460BD0013B0A4491421BD170BDC5
:101C6000002AFCD011F8014B03F8014B013A9C0704
:101C7000F6D11E1F0D46541B0C44032C06D822F02F
:101C800003042144234402F00302E4E755F8044B23
:101C900046F8044FEFE711F8014B03F8014FDCE77A
:101CA00070B5C9B203469C0711D141EA012444EA48
:101CB00004441E46951B1D44032D0ED822F0030438
:101CC000234402F003021A44934209D170BD002A52
:101CD000FCD003F8011B013AE5E746F8044BE9E7BD
:101CE00003F8011BF0E7000070B54FF02003EFF39D
:101CF000118583F31188144C144E237803EBC3121F
:101D0000013303F003033244237085F31188402923
:101D100028BF40210E4D0138134602EB4106B34265
:101D200004D1002302F81130104670BD4478240914
:101D300002332C5D03F8024C10F8014F04F00F043D
:101D40002C5D03F8014CEAE77400002075000020C8
:101D5000D75B010010B50F4A0F4C137803EBC3019A
:101D6000013386B003F001031370027843790492C3
:101D70004278039282780292C278019204EB410485
:101D8000027900921221054A2046FFF70DF92046FC
:101D900006B010BD7200002018000020B95B0100E1
:101DA00070B51D4A1D49137803EB4306013303F058
:101DB0000103137003788AB006EBC60604460E448E
:101DC00007AD032B21D8DFE803F0021A1C1E1449CB
:101DD0002846FFF705FF62780492A2780392E27822
:101DE00002922279019262790092A37905950D4AB7
:101DF0001B213046FFF7D8F830460AB070BD0A49BB
:101E0000E6E70A49E4E70A49E2E70A4A0A212846DE
:101E1000FFF7CAF8DFE700BF730000203C00002096
:101E2000D1550100FA550100D8550100DF550100D8
:101E3000E9550100F355010030B585B0044615465B
:101E400068460322FFF700FF0D2200210DF1030079
:101E5000FFF726FF20466A46694606F057FC04460F
:101E600020B9032269462846FFF7EEFE204605B05A
:101E700030BD13B50C4601AA0331FFF7DDFF48B9A9
:101E8000032201A92046FFF7CAFEB0FA80F04009FC
:101E900002B010BD0020FBE770B5CD1C06460C4615
:101EA0002846032106F016FC60B9637903F03F036E
:101EB00043F040036371224629463046BDE8704036
:101EC000FFF7BABF70BD0000F0B40278012A0446E3
:101ED0000B4617D003D3022A2CD0F0BC7047184A07
:101EE0000D4602F11007106851682E4603C60832ED
:101EF000BA423546F7D11278327062885A73120AA4
:101F00009A73EAE70E4A0D4602F11007106851680D
:101F10002E4603C60832BA423546F7D112783270DF
:101F200062685A73C2F30721120CDA73120A9973AA
:101F30001A74D2E7014611221846F0BCFFF784BE9E
:101F4000E85B010010B50C46017822788A428AB01D
:101F50000ED06946FFF7B8FF05A92046FFF7B4FF8A
:101F600010220DF115010DF10100FFF758FE0AE0F6
:101F7000012A0AD004D3022A0AD06FF0150002E029
:101F800040886388C01A0AB010BD40686368F9E7EA
:101F90001022611C0130E8E77047000070B50B4D5E
:101FA00006460FCD8AB06C460FC40FCD0FC495E81E
:101FB0000300092E84E803009BBF0AAB03EB8606EF
:101FC000034856F8280C0AB070BD00BF88550100C0
:101FD000E06E01000722FFF737BE00B5BFF35B8F4D
:101FE00050E8003F43EA010240E8002EBEF1000F36
:101FF000F6D1BFF35B8F18465DF804FB00B5BFF365
:102000005B8F50E8003F03EA010240E8002EBEF17A
:10201000000FF6D1BFF35B8F18465DF804FB00009C
:10202000C378002B41F2883200F1700108BF002212
:10203000014813F0BBB800BF881900202DE9F04714
:10204000304D314F2C68DFF8E4A086B01646894643
:10205000804612F041FD2D4B01902D4A2D492E480E
:1020600005970496CDF80C90CDF808800097A0470E
:10207000B07911F0F3FB824513D0B4792D68204676
:1020800011F0ECFB05970390CDF810A002948DE8B9
:1020900080011E4B214A1F492148A84706B0BDE8D0
:1020A000F087304611F0E0FB1E4C04EBC000438883
:1020B00043450FD030462D6811F0D6FB04EBC0002D
:1020C0000397438802938DE88001104B134A11490E
:1020D0001548A847304611F0C7FB04EBC000436821
:1020E000002BDBD0304611F0BFFB04F830903046B7
:1020F00011F0BAFB04EBC000406806B0BDE8F04741
:1021000012F0F9BC5C3A002065560100495D0100FF
:10211000875B0100A86A0100AB6A0100E36A010065
:10212000EA6A01007C0200202F6B01006C3F002056
:102130004B09BFF35B8F50F82300BFF35B8F01F0B7
:102140001F01084100F00100704700002DE9F04F29
:10215000DFF8B0B0DFF8B0A0DBF80040DFF8AC90FB
:10216000DFF8AC80224D87B006460F4612F0B4FC73
:1021700053464A46049501900095414603970296BE
:102180001C48A0474FF0FF311B4811F0FBFBDBF868
:1021900000B0044612F0A0FC4A4653460395019055
:1021A00000954146029404F108081448144DD8479C
:1021B0004FF000090021404611F003FC84F8149010
:1021C000204611F051FB05EBC0004680204611F07F
:1021D0004BFB05EBC0000321C0F80490404611F012
:1021E00033FC06808770204607B0BDE8F08F00BF43
:1021F00065560100636001006C3F002093600100A0
:102200007C0200205C3A0020F95B0100875B010042
:10221000A86A01002DE9F04781468CB015460C46AE
:1022200021B9FFF793FF0446002859D0DFF8D8A062
:102230002D4EDAF8007012F04FFC0596A389049336
:102240000DF11808294B0190294A2A492A48CDF84E
:102250000C9002940096B84701220021404612F0EB
:1022600041FC204611F000FB244F07EBC000C0F8F2
:102270000480204611F0E4FB2146214811F0A5FB23
:1022800042F21071404612F05EFCDAF8008012F063
:1022900023FC8246204611F0E7FA049617F8303006
:1022A0000393134A114B13491648CDF808908DE853
:1022B0004004C047204611F0D7FA17F8300038B173
:1022C000204611F08FFB6FF004000CB0BDE8F087E2
:1022D0000DB12C60F9E7204611F084FB2846F4E7A5
:1022E0006FF03600F1E700BF655601001B5C01008E
:1022F000875B0100A86A01000B6101007C020020DD
:10230000243B00203C6101005C3A002038B50221EA
:10231000054642F20C00FFF719FF044630B30221D4
:10232000083011F091FB012D024616D10B21114806
:10233000FFF7FEFE507015702146002242F20C009D
:10234000FFF768FF044630B9012D09D14FF48071C1
:102350000848FFF742FE204638BD00234370EAE7F5
:102360006FF480710348FFF749FEF4E76FF036041D
:10237000F1E700BFD03A00207FB51F4B05461C682F
:1023800012F0AAFB06462846FFF7E4FC1B4B03931A
:102390008DE848001A4E02901A4B1B4A1B491C48F4
:1023A000A047062206F108012846FFF738FC04463C
:1023B000D8B1062142F20500FFF7C8FE0446B8B1C5
:1023C00006222946083011F045FB2146002242F240
:1023D0000500FFF71FFF044638B90622294606F11B
:1023E0000800FFF731FC0123F371204604B070BDF3
:1023F0006FF03604F9E700BF5C3A00206556010033
:10240000603A0020305C0100875B0100A86A01008F
:10241000E86D010007B50621684606F05BF940B992
:102420009DF80530684603F03F038DF80530FFF74F
:10243000A3FF03B05DF804FB38B50121054642F265
:102440000A00FFF783FE0446D8B108308DB10121A0
:1024500011F009FB2146002242F20A00FFF7DAFEE2
:10246000044620B93DB140210748FFF7B6FD20469C
:1024700038BD2946ECE76FF040010348FFF7BEFD89
:10248000F5E76FF03604F2E7D03A0020028843887F
:102490009A4210B518D8052A16D9B3F5486F13D843
:1024A0008488B4F5FA7F0FD2C188A1F10A0292B2F2
:1024B00040F67640824207D804FB0333B3EB810F2A
:1024C000B4BF0120002010BD002010BD012310B5B5
:1024D0000621044600F8013B06F0FCF818B9A37980
:1024E00063F03F03A37110BD37B5124C2378012B65
:1024F00004D1A37903F0C003C02B0ED00E4B01937F
:1025000000930E4B0E4A1C680E490F4B0F48A04714
:102510006FF01505284603B030BD601CFFF72CFF97
:1025200005460028F6D1042104F17000FFF755FD9F
:10253000F0E700BF603A0020655601005C3A0020D9
:10254000606A0100A86A0100A75E0100676A0100D5
:102550002DE9F04F204DDFF89C90DFF89C80D9F8F2
:1025600000A01E4F1E4E1F4C87B02846FFF718FCD8
:1025700043463A4631460190029400941A48D047A7
:1025800095F80EA0D9F800B05046FFF707FDAB8ACA
:1025900004932B8A03933A4643463146CDF808A06C
:1025A0000190059400941148D847D9F800A095F8F7
:1025B0000F904846FFF7F2FC6B8A03930190049456
:1025C000CDF80890009443463A4631460848D04733
:1025D00007B0BDE8F08F00BF603A0020655F0100E2
:1025E000A86A0100655601006C5F0100895F010067
:1025F000D75F01005C3A0020C85E010030B50E4B89
:1026000087B004461D6812F067FA227D0B4B0492D6
:10261000A28905930392019000930294084B094A02
:1026200009490A48A8470A4BD3F8D4301B69204609
:1026300007B0BDE8304018475C3A002065560100FD
:10264000EE5E0100875B0100A86A0100356A0100A7
:10265000603A00202DE9F041054686B00C4621B9CC
:10266000FFF774FD044600282FD0194F194ED7F8F4
:10267000008012F031FA0496A38903930190164B5F
:1026800002950096154A16491648C04740F635434C
:102690009D4214D12046FFF7B1FF054658B1019085
:1026A0000296009610483E680B4B104A0C49B04702
:1026B000204611F097F9284606B0BDE8F081214682
:1026C0000B4811F082F90025F5E76FF03605F2E7C7
:1026D0005C3A0020655601000B5C0100875B01003D
:1026E000A86A0100AF600100D9600100606A0100C2
:1026F000243B002073B505460E46144600210722F0
:102700006846FFF7CDFA21488DF8005000238DF878
:102710000630012D0378ADF80160ADF803408DF867
:1027200005300AD106217030FFF702FD28B9FFF706
:1027300071FE0446F0B98DF80550072142F20B00F6
:10274000FFF704FD0446F0B107226946083011F096
:1027500081F9214642F20B00FFF77CFF0120FFF7D1
:10276000D5FD044630B9012D07D14FF480610848EA
:10277000FFF733FC204602B070BD6FF4806104485F
:10278000FFF73CFCF6E76FF03604F3E7603A002011
:10279000D03A002038B5092105461648FFF7C8FC95
:1027A000024608B1002038BD08211248FFF7C0FCDE
:1027B000D0B90121002002F0BBF904460028F1D075
:1027C0004FF400610B48FFF708FC204602F0CEF9F9
:1027D000002D15BF3022122260214FF4006100202D
:1027E000BDE83840FFF786BF1046FFF78FFD002891
:1027F000DFD038BDD03A00202DE9F047754DD5F82F
:10280000D430996811F001018EB032D10CAA40F693
:102810000340FFF7FFFC0446002840F0D7800C9BE4
:102820009B681C786C4B1E6812F056F96B4B039337
:102830000190009302946A4B6A4A6B496B48B04717
:10284000A4B96B4B1C602B46BFF35B8F53F8702F02
:10285000BFF35B8F02F00D02BFF35B8F53E8001FE5
:1028600043E800200028F9D1BFF35B8F0C9811F0EA
:10287000B9F80CAA002141F20300FFF7CBFC044693
:10288000002840F0A3800C9B534ED3F80880D6F864
:102890000090524F12F020F9039718F8013B029371
:1028A0000190544B4F4A504950480097C84708225E
:1028B00041465148FFF7C8F90C9811F093F82146AA
:1028C0000CAA41F20100FFF7A5FC044600287DD1C7
:1028D0000C9BD6F800809C6812F0FEF803972378D2
:1028E000414902930190454B3E4A40480097C047FA
:1028F0006378AB73E278A3780C9843EA02232B82C7
:102900002379EB73227AE37943EA02236B82A2797B
:10291000637943EA0223AB8211F064F8032138485B
:10292000FFF706FC014610BB0CAA41F20900FFF7B5
:1029300071FC0446002849D10C9BD6F80090D3F8CE
:10294000088012F0C9F8039718F8013B0293019030
:102950002C4B244A244925480097C8470622414663
:102960002948FFF771F90C982C7011F03BF80CAA6C
:10297000002141F20200FFF74DFC044630BB0C9BE6
:10298000D6F80090D3F8088012F0A6F8039718F84C
:10299000013B029301901D4B124A134913480097C3
:1029A000C847402241461A48FFF74EF90C9811F0EB
:1029B00019F8AB7E580633D4019700973468154B4D
:1029C000154A09491548A0476FF0120420460EB079
:1029D000BDE8F087603A00205C3A002065560100AF
:1029E000365D0100875B0100A86A0100906101006B
:1029F000D8020020655E0100763A0020C65D010025
:102A0000D03A0020DE5D0100613A0020445E010002
:102A10007E3A00209F5E0100606A0100AF61010004
:102A200021460CAA42F20300FFF7F4FB04460028FB
:102A3000CCD10C9BD6F80090D3F8088012F04CF85B
:102A4000039718F8013B02930190B54BB54AB6497C
:102A5000B6480097C84708224146B548FFF7F4F842
:102A60000C9810F0BFFF21460CAA42F20200FFF7BB
:102A7000D1FB04460028A9D10C9BD6F800809C68A5
:102A800012F02AF80397237802930190A94B00973C
:102A9000A44AA549A548C047B4F80130A5F8883034
:102AA000C3B1D6F8008012F017F80497B5F8883053
:102AB0000393E378029301909A4A9B499E480097BA
:102AC0009C4BC047E2789D48022A28BF022211464B
:102AD00012F008F80C9810F085FFAC7E14F020047A
:102AE00000F0138195F83A30190725D50CAA00217A
:102AF00042F21C00FFF78EFB044600287FF466AF0D
:102B00000C9BD6F800809C6811F0E6FF8C4B039379
:102B10002278029201900093824A8A4B834882492C
:102B2000C04723460C9853F8012F5B68C5F88430E2
:102B3000C5F8802010F056FF95F878309A0600F11D
:102B40002981082142F20100FFF700FB044600281A
:102B500000F0E2800821084410F076FF95F8781024
:102B60008B074CBF2F220F22890695F8791048BF9A
:102B700042F0400211F0090F95F8401001F00601F3
:102B800018BF42F40062062908BF42F4C072027006
:102B9000C2F30722427000228270C2700271427139
:102BA0008271C271214642F20100FFF733FB0446F5
:102BB00000287FF40BAFAB7E9A0647D4B5F8881097
:102BC000002943D10CAA41F20500FFF723FB04467C
:102BD00000287FF4FBAE0C9BD6F800909C68DFF8D1
:102BE000608111F079FFCDF80C8023780293019079
:102BF000554BCDF800804B4A4B494C48C847B5F877
:102C0000883003BBA2786378D6F8009043EA0223A9
:102C1000A5F88830A48811F05FFFCDF81080B5F8D2
:102C20008830039301903F4A3F4948480294CDF8C9
:102C30000080454BC847022C224628BF022211467D
:102C40003E4811F04FFF0C9810F0CCFE082140F6E2
:102C50000140FFF77BFA044600285DD008210844B4
:102C600010F0F2FE10230370882343700223002229
:102C7000C37020238270027142718271C371214638
:102C800040F60140FFF7C6FA044600287FF49EAEE6
:102C900001460CAA4FF60140FFF7BCFADFF8A0800E
:102CA000002800F0A480CDF80480CDF800803468BE
:102CB000274B284A1C492848A047002307220CA973
:102CC00026480C93CDF83330FEF7A9FF002840F0DA
:102CD0001181346811F000FF214B0190CDF808807C
:102CE000CDF800800F4A10491E48A04795F8603083
:102CF000DB0700F12081CDF80480CDF80080346836
:102D0000194B144A0849194825E1022140F66D4043
:102D1000FFF71CFA804658BB6FF0360456E600BF3A
:102D2000F35D0100875B0100A86A0100906101006A
:102D3000D83A0020275E0100E3610100EC3A002050
:102D400065560100825E01000D5E01001762010000
:102D5000D95E0100E36A01004F620100603A002081
:102D6000E55E010083630100BA5E01003164010089
:102D70000221083010F068FE0123447003702246DF
:102D8000414640F66D40FFF745FA044600283FF4FF
:102D9000A9AE1BE60CAA002142F22F00FFF73AFA77
:102DA000044600287FF412AE0C988368B3F801A0A3
:102DB000B3F8039010F016FE042142F22400FFF74E
:102DC000C5F980460028A7D00421083010F03CFE49
:102DD0002246A0F800A0A0F80290414642F224004A
:102DE000FFF718FA044600283FF4ABAEEEE50C9B63
:102DF000D6F800909C687949B4F801300293032B0F
:102E000096BF774A774A52F823200192764B774A49
:102E1000CDF80C80CDF800807548C847B4F8013073
:102E2000D6F80090B4F80320022B3DD1022A3BD8FB
:102E3000704B53F82230029201936C4A6A4B6749F7
:102E40006D48CDF80C80CDF80080C8476379D6F87E
:102E500000900697D4F809100591032BB4F80710D9
:102E600098BF664A0491A17994BF52F823205D4A25
:102E70000391029359495C4B019261485B4A009768
:102E8000C8470C9810F0AEFD0CAA00214FF6024086
:102E9000FFF7C0F9044648B1019700973468524BD8
:102EA000584A4E49584807E74E4BC4E70C9B5748D1
:102EB000996802220131FEF7C7FE0C9810F092FDCE
:102EC0000CAA21464FF60340FFF7A4F938B1019749
:102ED00000973468444B4B4A40494D48ECE60C9B04
:102EE0004C48996801221144FEF7AEFE0C9810F090
:102EF00079FDE2E6484B18689A880A909B79ADF80C
:102F00002C200AA9072245488DF82E30FEF787FEAF
:102F100000283FF4DEAEFFF71BFB02F093FA0446F5
:102F200000287FF453AD02213D48FFF756F82046B4
:102F3000FFF730FC4AE509AA00214FF60940FFF7E8
:102F400069F950B1CDF80480CDF800803468354B74
:102F50002C4A22493448A0472AE0099B99684B78BB
:102F6000CBB101230622023130482B70FEF76CFEF4
:102F7000099810F037FDFFF7B7FA04460028CAD0C9
:102F8000CDF80480CDF800803568294B294A1349D3
:102F90002948A8471AE5CDF80480CDF800802748D5
:102FA0003468204B174A0D49A047099810F01AFDC4
:102FB0001A48FFF78BFA04460028E1D11B48346811
:102FC000FEF7C8FECDF808800190CDF80080154BC3
:102FD0000C4A02491A48A047CDE700BFA86A010081
:102FE000D86D0100E06E0100D95E0100655F01004F
:102FF00083620100CC6D0100AC620100D06E010063
:10300000D4620100E36A010011630100BF3A0020AD
:103010004A630100BE3A0020B0550100603A00202A
:10302000D03A0020BA5E0100C8630100613A002076
:10303000E55E0100606A0100A6640100F86301001A
:103040006D64010010B5FFF7D7FB034B1B6813B18C
:10305000BDE81040184710BDD402002038B5072144
:10306000044642F23200FFF771F8054698B1072195
:10307000083010F0E9FC23880380002402238470C8
:10308000C370037144718471294642F23200FFF724
:10309000E1FA204638BD6FF0360038BDF7B5074677
:1030A00001AA002142F22F00FFF7B4F8D8B9019825
:1030B0008368B3F80160B3F8035010F093FC062165
:1030C00042F22200FFF742F8044670B106210830B0
:1030D00010F0BAFC3B88038046808580214642F28E
:1030E0002200FFF7B7FA03B0F0BD6FF03600FAE741
:1030F0002DE9F04F744FB0F80180D7F800A0734E5F
:103100008FB0054611F0E8FC2C1D2B78EA78099366
:10311000834620460892FEF743FE1FFA88F9089A74
:10312000099B0590049202930696694BCDF80C908A
:103130008DE84008674A68496848D0472B7883B1D2
:103140000221002001F0F4FC044638B12B78037210
:10315000002101F0CBFD204601F008FD0FB0BDE8D5
:10316000F08F21460CA8FEF735FF9DF83030023B6A
:10317000DBB2012B28D8062205F111010DF129003F
:103180008DF83030FEF760FD01238DF828300221E4
:103190000CA801F0CDFCEB78012B044609D16FF0AF
:1031A00040014F48FEF72AFF9CB90CA801F010FC23
:1031B000044674B98DE8400202963C68444B494A83
:1031C00045494948A047C9E721460AA8FEF702FF3A
:1031D000DDE720460CA920F8448BFEF7FBFE2A7E93
:1031E000EB7D43EA0223A4F85A30AA7E6B7E43EAC1
:1031F0000223A4F86030EB7E2A7F43EA0223A4F87E
:103200006230EE78E670012E1AD1384F0AA904F127
:103210004B00FEF7DFFE394604F15200FEF7DAFEFE
:10322000072107F17000FEF783FF48B1D7E920239B
:10323000002203F04003134302D03046FFF7FCF8AE
:103240000321204601F052FD637A032B18D1EB785D
:1032500023B1264B93F87830190718D5022142F292
:103260001600FEF773FF054688B10221083010F002
:10327000EBFB23880380294642F21600FFF7EAF9A8
:10328000204601F073FC0020FFF784FA66E7174D33
:1032900095F87920D20708D52046FFF7DFFE20B940
:1032A0008021201DFEF799FEEAE795F878309B060D
:1032B00006D52046FFF7F2FE10B94FF48071F0E713
:1032C0002046FEF7ADFEDBE75C3A002065560100C4
:1032D0007A5C0100875B0100A86A0100406D010073
:1032E000D03A0020606A0100746D0100603A00204D
:1032F00070B506460D4642F221000321FEF726FF77
:10330000044660B10321083010F09EFB85700680F2
:10331000214642F22100BDE87040FFF79BB96FF0F3
:10332000360070BD2DE9F04F824D834C2E6889B078
:1033300011F0D2FB029401900094804B804A8149A5
:103340008148B047814B814A5B7B6FF3071353730E
:1033500002F1140001F054FC2E6800F1010911F093
:10336000BBFB774A0190774979480394CDF80890E0
:103370000094724BB0474FF0FF324946734811F04A
:10338000FBFF68B1019400946C4B2C68714A6D4945
:103390007148A047404080F311884FF0040002DFDD
:1033A0002E68DFF8F08111F097FB03940190CDF8BF
:1033B00008900094694B624A62496948B047634E7D
:1033C000B9F1000F02D111F057FBBBE72F6811F0E4
:1033D00083FB0394737B5A4A01901B090293009468
:1033E0005E4B58495F48B847737B1B09012B40F27D
:1033F0008380042B40F0948096F80CB0BBF1000F52
:103400007ED12F6811F068FB574B01904C4A4D4913
:10341000564802940094B8475946554810F0B8FAF7
:10342000824638B9019400944F4B2C68494A45496B
:103430005048AEE72F6811F04FFB4B4B0190404ACC
:1034400040494D4802940094B8474FF0FF314B4833
:1034500011F079FBD8F8C0306BB1434B3D4A394984
:103460004748019400942F68B847D8F8C00010F07E
:10347000B9FAC8F8C0B0504610F0E2FA2F68C8F8A0
:10348000C00011F029FB0790504610F0EDF9DFF86D
:1034900008B104940BEBC000CDF80CA04288079B48
:1034A00002920193374800942F4B254A2549B8478B
:1034B0005046FFF7A3F8F8B12B4B264A214901905B
:1034C0000294314800942F68B8472C4811F013FB40
:1034D000504610F0C9F90BEBC00000221F214088B4
:1034E000FEF7ACFDD8F8C00010F07CFA002350467F
:1034F000C8F8C03010F076FA143609F1FF395FE7EA
:10350000BBF1010F04D13069183801F053F9F3E72A
:10351000BBF1020FF0D13069283801F0D9FEEBE79A
:103520000193029400942F680C4B184A05491848DF
:10353000B847E1E75C3A002065560100B85D01003C
:10354000875B0100A86A0100726B0100383B002014
:103550008F6B0100606A0100C26B0100A95D010070
:10356000EC6B01000A6C0100A05D01002C6C0100F5
:10357000243B0020556C01007A6C0100083B0020C0
:10358000A56C0100D06C0100D9600100E36A010064
:103590000F6D0100603A00207C0200202DE9F04F01
:1035A000DFF8A882934FD8F8005099B0044611F084
:1035B00093FA0497A38903930190029400978E4B8A
:1035C0008E4A8F498F48A84794F81490B9F1010F9B
:1035D00046463D4660D0B9F1030F40F05C84A668D2
:1035E000D8F80090758811F077FA844A0190864BDC
:1035F00083498648039702940097C84733881E0B77
:10360000C3F30B03E382FF236375042104F1080075
:1036100010F039FAD8F8009011F05EFA0597049688
:103620000395E38A02930190774B0097734A74499C
:103630007748C847A3899D420ED00193039702950E
:103640000097D8F80050704B724A6D497248A847ED
:10365000204610F0C7F91BE0E08A01F039FA054670
:1036600058B90297E38A01930097D8F80060664B37
:10367000684A63496948B047EAE701F0D7FE324635
:1036800060752146284600F045FF284601F06EFA95
:10369000002019B0BDE8F08FD4F808A0D8F800B029
:1036A00011F01AFA03979AF80030029301905C4BDC
:1036B0000097524A52495B48D8479AF80030132B7A
:1036C00000F2FA8309FA03F919F40C2F00F0F483DD
:1036D00001970097D8F80040514B4E4A484952484C
:1036E000A047404080F311884FF0040002DFD4F877
:1036F00008803768B8F801A011F0EEF9059598F840
:1037000003300493CDF80CA098F800300293019098
:103710000095464B394A3A494548B84798F80090D1
:10372000B9F1000F94D1504601F0D2F90746C8B95B
:103730008DE82004029535683C4B364A30493D48B7
:10374000A84707213C48FEF7F3FC002880D006215B
:103750003948FEF7EDFC00287FF47AAF0120FEF730
:103760006BFE75E798F8033003723449344811F062
:1037700073FB4946384601F0B9FABD78A7F80090C6
:103780000DB13846EAE02946381DFEF7D1FC30B1CC
:103790003846012101F0AAFA2846FEF7FBFF384619
:1037A00001F0E4F9CDE7A768D6F8008011F094F9AC
:1037B00003953B7802930190224B104A104922480E
:1037C0000095C0470121099810F05DF93F787B1EF4
:1037D0000B2B00F24D83DFE813F03B003C02880026
:1037E000C4004B0301016001F301200286004B037A
:1037F000950100BF65560100F65E0100875B010080
:10380000A86A0100D5640100435C010093600100D7
:10381000F8640100606A0100276501005B65010032
:10382000965D01008D65010055680100655C010031
:10383000AF650100E2650100D03A00201866010082
:10384000991F0000845D01001C6601005C3A0020A5
:10385000A768D6F8008011F03FF93E1D814630463A
:1038600097F800A097F803B0FEF79AFAAD4A0595CD
:1038700004908DE8200EAC4BAC49AD48C0473B7876
:103880008DF84030B7F80130ADF84130FB788DF855
:103890004330B7F80B30ADF85730B7F80D30ADF80E
:1038A0005930B7F80F30ADF85B307B7C8DF85D3068
:1038B000314611A8FEF78EFB002506220CA90DF15A
:1038C0004B000C95ADF83450FEF7BEF906220EA958
:1038D0000DF151000E95ADF83C50FEF7B5F910A86A
:1038E000FFF706FCB4E6A068FAE7A768D6F8008000
:1038F000B7F8019011F0F0F80495CDF80C903B78F2
:10390000029301908B4B874A88498B480095C047AA
:10391000484601F0DDF8804648B98DE8200202955E
:103920003568844B854A81498548A84790E63B78AD
:103930009BB93A79FB7843EA0223A0F85A30BA7966
:103940007B7943EA0223A0F86030FB793A7A43EAB4
:103950000223A0F8623000F0A1FD404601F006F914
:1039600076E6D4F80880B8F80190484601F0B0F83F
:10397000074628B98DE8200202953568714BD1E7DA
:1039800098F800302BB9082208F103016430FEF7E3
:103990005BF96D4D95F87920D2070CD597F8653015
:1039A000DB0708D53846FFF759FB20B98021381DC1
:1039B000FEF713FBE5E695F878309E0640F1FC80B3
:1039C00097F864309D0640F1F7803846FFF766FBB4
:1039D000002840F0F1804FF48071E8E7A368D978BF
:1039E0009A78B3F8008042EA0122ADF84020597974
:1039F0001A7942EA0122ADF842209A79D97942EA4D
:103A00000122ADF844201A7A5B7A1FFA88F742EA5D
:103A100003233846ADF8463001F05AF8814668B9BC
:103A20008DE8A00002953568484B444A3F49444818
:103A3000A84702213846FFF75BFC09E610A900F011
:103A400041FD28B91E213846FFF752FC484685E75C
:103A50000E2142F22000FEF779FB06460028F5D041
:103A60000E2108300FF0F0FF0E2205460021FEF770
:103A700017F9BDF840306B80BDF84230AB80BDF81F
:103A80004430EB80BDF84630A5F800802B813146EC
:103A900042F22000FEF7DEFDD8E7A3685F88B3F8A6
:103AA0000690B3F80480B3F808A01B880993184661
:103AB00001F00EF8099B834628B901930295009501
:103AC0003568234B2EE7366811F006F8204B01903D
:103AD000144A16491F480695CDF814A0CDF8109049
:103AE000CDF80C8002970095B0476FF480710BF110
:103AF0000400FEF783FAC00502D55846FEF790FA97
:103B000058462BE7D4F80880B8F80190484600F0F2
:103B1000DFFF074610BB8DE82002029535680E4B8B
:103B200000E700BF875B01008F5C0100A86A01000D
:103B300041660100FB5C01006B660100606A0100E8
:103B400095660100A75C0100603A0020E95C010075
:103B5000BF5C0100C9660100D25C0100366810F04C
:103B6000BBFF059598F80430049398F8033003934D
:103B700098F80030029301900095AC4BAC4AAD49E7
:103B8000AD483D1DB0476FF080012846FEF736FA7C
:103B900001067FF5F6ADA94B93F878309A060BD560
:103BA00097F864309B0607D53846FFF777FA18B9BF
:103BB0004FF480712846FBE63846FEF731FAE0E51F
:103BC000A768366810F088FF03953B780293019050
:103BD0009B4B974A97499B480095B0476FF020014F
:103BE0009948FEF70BFA3B7843B9791C4022974875
:103BF000FEF72AF810219448FEF7EFF9944B1D6860
:103C00007E1C002D3FF424AD3A782B68002A0CBFAF
:103C10003046002098476D68F3E7A768366810F0D3
:103C20005BFF03953B7800958A4D02930190804A93
:103C3000894B80498348B0472A68002A3FF408AD81
:103C40003B7823B9781C904700232B6000E50020C7
:103C5000F9E709980FF01FFF37680A9010F03CFF52
:103C60000A9B02930190039500957C4B704A714921
:103C70007B48B8470A9B002B3FF4EAACA768099839
:103C800009210FF000FF3B7AD6F800903B4407F182
:103C9000010893F909300B9310F01EFF824640464D
:103CA000FEF77EF80B9B069505933B7A04933B78D1
:103CB00003930290694B5F496A485D4A8DE820048E
:103CC000C8477B78023B012B414610A800F2988040
:103CD000FEF780F99DF84030023B8DF84030DFF868
:103CE0008CB1DBF80030A3B109980FF0E4FE3B7A09
:103CF000B4F80CA0A3818146099BDBF800B03A78A8
:103D00000B9910A8D8472369A4F80CA013FA89F3DB
:103D1000A36009214C483A78FEF70AFA8246002847
:103D200064D1012A62D8012110A800F001FF814668
:103D300000285BD008214448FEF7FAF9002862D138
:103D400002214148FEF7F4F910B14748FEF714FB91
:103D50003A4909F14B0009F1520AFEF73BF9414695
:103D60005046FEF737F9192142F20D00FEF7EEF941
:103D7000834600284CD0192108300FF065FE192227
:103D800080460021FDF78CFF0022602388F8003078
:103D900088F8012088F8023088F80320514608F19D
:103DA00005000B92FEF716F999F84B3088F80C30A5
:103DB000B9F85C30A8F80D30B9F85E30A8F80F30CB
:103DC000B9F86030A8F81130B9F86230A8F81330AB
:103DD0000B9A594642F20D00FEF71CFAC0B948464C
:103DE000022100F083FF484600F0C0FE397A0998AE
:103DF00001310FF048FE0A9B013BDBB20A9339E721
:103E0000FEF7E8F86BE75046FEF780FA002897D0F7
:103E10001F2389F808300021484600F067FF484614
:103E200000F0A4FE0020FEF7B5FCDFE7D25C010045
:103E3000875B0100A86A010005670100603A002065
:103E4000135D010044670100D03A00209002002079
:103E5000D00200208C020020245D0100765D01006C
:103E60006667010094670100613A0020D8020020D3
:103E7000D6F80080A689A0683146FDF735FF8DE8A9
:103E8000A00003901C4B1D4A1D491E480495029634
:103E9000C047FFF7DDBB8DE8800202971A4B1B4A33
:103EA00017491B48D8F80050A84720460FF09AFD44
:103EB0006FF01500FFF7EDBB04F10803022118466F
:103EC00009930FF0E0FD9AF80070052F3FF40FAC56
:103ED0003E2F3FF468ACD6F80080A689A068314632
:103EE000FDF702FF0495039002968DE8A000094BB0
:103EF000024A03490848CBE7845D0100E36A0100F8
:103F0000A86A0100CA670100F65E0100606A01004C
:103F100031680100965D0100FF6701002DE9F04F57
:103F2000037DD0F80880864E864C012B89B005466B
:103F30000DD0019400943468834B844A84498548A9
:103F4000A047404080F311884FF0040002DF8289CF
:103F5000012A07D80194009434687B4B7B4A7C4942
:103F60007D48EDE798F80020132A00F2E1809340A5
:103F700013F40C2F00F0DC8000F108070221384612
:103F80000FF081FD98F800300F2B2DD0132B4CD063
:103F90000E2B40F0C280AB683668B3F8018093F80E
:103FA000009010F099FD6D4B6D4A019068496D4885
:103FB0000394CDF808800094B047032138460FF0F1
:103FC00062FDAB682A4619784046FEF737F8B9F12A
:103FD000000F02D0644810F08EFD28460FF002FD5D
:103FE000002009B0BDE8F08FD5F808803668B8F831
:103FF000029098F801A010F06FFD594A01905B4BB8
:10400000534958480394CDF808900094B0470421D0
:1040100038460FF038FD2A4698F800104846FEF75B
:104020000DF8BAF1000FD8D0D4E7D5F808B037684A
:1040300010F052FD03949BF800300293019000941D
:104040004B4B474A42494B48B8474FF000099BF851
:1040500000309945C1DA0BEB8903D6F80080B3F83C
:1040600001A0B3F8037010F037FD0494019003979A
:10407000CDF808A000943E4B394A35493E48C04728
:104080004FF02003EFF3118283F31188504607921B
:1040900000F01EFD804670B98DE810040294376868
:1040A000334B2A4A2A493548B847079B83F311887E
:1040B00009F10109CBE7079B83F3118800F1180A86
:1040C000F7B14FF02003EFF3118083F31188D8F894
:1040D000101041B1D8F814200B68C8F81030914284
:1040E00008BFC8F8143080F31188013FBFB259B936
:1040F0000194009437681E4B144A15492048B8476C
:10410000404600F033FDD3E7504610F02FFA40460A
:1041100000F0C0F910F0EFFCD2E728460FF062FC87
:10412000019400943468084B084A0949154807E788
:10413000019400943468044B044A05491248FFE690
:104140005C3A002065560100FE5E0100606A0100D5
:10415000A86A010094680100D8680100565D01005A
:10416000875B010012690100083B0020675D0100C8
:104170004B5C01003569010059690100816901004A
:10418000AD690100D4690100F76901007FB5134BE7
:10419000D3F8D4400546D4B9C268DAB10269CAB1CD
:1041A000C3F8D4000E4B1E6810F096FC0D4A2B6825
:1041B0000392002B08BF13460293019000920A4815
:1041C0000A4B0B4A0B49B047204604B070BD6FF054
:1041D0004400FAE76FF01500F7E700BF603A0020EF
:1041E0005C3A0020655601006D6101000B5F010023
:1041F000875B0100A86A010070B52B4DD5F8D4305B
:1042000086B0064673B9294B01930093284B294A7F
:104210001C682949294B2A48A0476FF01204204600
:1042200006B070BD012105F17000FDF7D6FE10F05B
:10423000010035D1234B24491E606FF0080305901F
:1042400004900393029001900090204B20484FF47B
:104250006B7210F04DFED5F8D430DB6898470446F9
:1042600058B1124B02938DE81800114B114A1D688A
:104270001149124B1748A847D1E726B906B0BDE847
:104280007040FEF7B9BA012105F16C00FDF7A5FEFB
:10429000C307C4D405F164010F4810F067F9BEE705
:1042A0006FF04404BBE700BF603A00206556010090
:1042B0005C3A0020606A0100A86A0100225F0100E8
:1042C0000E600100D4020020081A002025330000EF
:1042D000DC020020376001008819002000207047B0
:1042E00070B50378012B05460E4610D84378012B94
:1042F0000DD841880B1F9BB243F6FC70834206D851
:10430000AA88131F9BB2834201D891422BD26FF02F
:1043100015040EE008211948FDF70AFF58B11046B0
:10432000FDF7F4FF044630B16FF400711348FDF758
:1043300065FE204670BD6B787BB14FF400610F487D
:10434000FDF74BFEAA8869882878FEF7D3F9044662
:104350000028E9D10A4B1E60EBE76FF400610748C3
:10436000FDF74CFEEEE74FF400710448FDF735FE13
:1043700010F40072CED06FF04404DAE7D03A002097
:10438000D802002008B56FF400710748FDF736FE2B
:10439000830506D5054B00201860BDE80840FEF7F0
:1043A000F9B96FF0440008BDD03A0020D8020020CF
:1043B00038B5054605480FF0E5FA044620B100215E
:1043C00008300FF0FEFA2575204638BD8C3F0020DE
:1043D000F0B5064685B04FF02003EFF3118283F36A
:1043E0001188144B0025D3F8C040C3F8C05082F3A5
:1043F0001188114B1F6810F06FFB104B0393019055
:10440000009302940E4B0F4A0F491048B84734B935
:104410003146012005B0BDE8F040FFF7C9BF0123D8
:1044200004F108002375A58129460FF0CAFA204639
:1044300005B0F0BD603A00205C3A002065560100EE
:104440002C5F0100875B0100A86A0100445F010046
:1044500038B5064B1C68054604B938BD236813B14E
:10446000297A284698472469F6E700BF4C030020C4
:10447000BFF35B8F0068BFF35B8F7047438910B554
:1044800004462BB1C0680FF0ADFA0023E3606381EE
:1044900010BD000000487047EC3A0020084B70B592
:1044A0001C68054604B970BDE6683EB1B5F86230D7
:1044B000B5F86020B5F85A102846B0472469F1E7EE
:1044C0004C030020F8B5074608460E46FDF7DEFF10
:1044D000054610B900252846F8BD094B1C68002C7C
:1044E000F9D0A3680BB92469F9E7314638469847F3
:1044F0000028EFD03046FDF7C9FF0028F3D1E9E7E7
:104500004C030020024B1A6802611860704700BF1C
:104510004C0300202DE9F047DFF80882714ED8F8EF
:10452000007086B092460D46044610F0D5FA059606
:10453000CDF810A0AB8903932388029301900096D5
:10454000694B6A4A6A496B48B847BAF1010FC146DC
:10455000374640D0BAF1020F40F0A380AB68D9F8DB
:104560000060B3F8008010F0B7FA0497CDF80C8023
:10457000AB89029301905C4B00975C4A5C495E48B2
:10458000B04763895BB1019700975C48D9F8006038
:10459000554B5B4A5649B0472046FFF76FFFAB8942
:1045A000D9F80060A8EB030808F10408A4F80A8011
:1045B00010F092FA03976389029301904A4B009797
:1045C0004A4A4B494F48B0476389002B57D0E560B2
:1045D00006B0BDE8F08763898BB901960096D8F8DC
:1045E0000060414B464A42494748B0472046FFF7E2
:1045F00045FF284606B0BDE8F0470FF0F3B9AA8999
:104600009A4208D901960096D8F80060364B3C4A89
:1046100037493E48E9E7D8F800A010F05DFA049663
:1046200063890393AB89029301902F4B2F4A304942
:1046300037480096D047E068B5F80CA008300FF076
:104640003EFA824508D901960096D8F80060264BBC
:104650002B4A27492F48C8E7E068AA89A96808308B
:104660000FF0F8F96389AA899B1A638128460FF035
:10467000B9F96389002BABD1E5686381E360AB686E
:10468000AA891B88191D914216D0029201930397A3
:104690000097D9F80040144B194A15491E48A04705
:1046A000A7E78DE840040296D8F800600E4B144A44
:1046B0000F491A48B04799E7D9F8006010F00CFA92
:1046C0000397AB89029301900097074B074A08496B
:1046D0001348B0472946204606B0BDE8F04701F030
:1046E000F7B800BF65560100FC6E0100875B010052
:1046F000A86A0100C6700100F77001002371010073
:10470000606A0100507101006F7101009D7101002C
:10471000C1710100ED7101005272010024720100AB
:104720007E7201005C3A00202DE9F043DFF88080C2
:10473000184DD8F8009087B00C460646174610F082
:10474000CBF9A3890393338802930190124B05950B
:1047500004970095114A12491248C847737A032BEF
:1047600010D0019500950C4B0F4A0D490F48D8F811
:104770000050A84720460FF035F96FF0380007B019
:10478000BDE8F08306F12800676121460FF01DF9AE
:104790000020F4E765560100096F0100875B010006
:1047A000A86A0100E2720100606A0100177301004B
:1047B0005C3A00202DE9FF41154B164D1C6806465A
:1047C00010F08AF9144B0393019000930296134B57
:1047D000134A14491448A04706F118074FF000087F
:1047E000002138460FF0E6FE044610B904B0BDE8DB
:1047F000F08163680BB1304698472B6823606B6883
:10480000C4F804802C60002BEAD16C60E6E700BF9E
:104810005C3A0020F803002065560100196F010082
:10482000875B0100A86A0100FD6F01002DE9F04FD0
:10483000DFF89891594ED9F8008089B00F46144698
:1048400005469A4610F048F906960594BB89544AE5
:1048500004930190534B5449544803970295009692
:10486000C0474FF0FF31524810F06DF9514B03F142
:104870004000FFF7FDFDB04630B15A7A033A012AF5
:1048800002D81846FFF796FF6B7A032B68D10421F4
:1048900007F108000FF0EFF82A88D7F814B0464E59
:1048A00042EA04320280BB89D9F80040043B4380CD
:1048B00002233B7510F010F9CDF810800190CDF86F
:1048C0000CB00295CDF800803C4B354A36493C4847
:1048D000A0473468726823683360944208BF7360ED
:1048E000C4F804B04FF02003EFF3118283F3118872
:1048F000002323606B69002B41D16C612C6182F332
:1049000011883846FDF77AFE002844D0CDF808809B
:104910000190CDF80080234BD9F80080294A224924
:104920002948C0474FF02003EFF3118183F311882A
:104930002B69002253B19C422AD1236812BB6A69B9
:104940002B61944200D16B610023236081F31188B5
:1049500000236360336823607368346003B9746054
:10496000134810F0C8F8BAF1000F04D038460FF021
:1049700039F84FF0000A504609B0BDE8F08F1C60CE
:104980006C61BCE713606B699C4208BF6A61DBE73E
:104990001A461B68CEE74FF0010AECE765560100A6
:1049A000875B01003A6F0100A86A0100C87301002B
:1049B000EC3A002060030020F80300202B6F010078
:1049C00000740100606A0100D96001005C3A0020B7
:1049D000F8B5174C04F1400607463046FFF748FD8E
:1049E000054608B10020F8BD014698222046FDF793
:1049F00057F9BFF35B8F012356E8002F46E80031DB
:104A00000029F9D1BFF35B8F0722394604F1440036
:104A1000FDF71AF91823A4F85C30282304F170007C
:104A2000A570A4F85E30034910F04CFB2046F8BD99
:104A300060030020F951000038B50D46044600F12E
:104A4000440107222846FDF7EAF860B1E37807221F
:104A500033B904F152012846BDE83840FDF7DFB80C
:104A600004F14B01F7E738BD70B5044686B000F19C
:104A70004005BFF35B8F55E8003F013345E8003246
:104A8000002AF8D1BFF35B8F0B4B1E6810F024F89F
:104A9000024628462188FFF7EBFC084B049303905D
:104AA000029101920093064A064B07490748B04716
:104AB000204606B070BD00BF5C3A0020655601007C
:104AC000875B0100896F0100A86A0100BC720100C8
:104AD00008B50A4B014603F14000FFF7C9FC58B185
:104AE0005A7A033A012A07D81A888A4204D118460A
:104AF000BDE80840FFF7B8BF002008BD60030020F4
:104B000010B50A4C014604F14000FFF7B1FC50B16A
:104B1000A37843B92046FFF78FFF20B92046BDE8B0
:104B20001040FFF7A1BF002010BD00BF60030020B0
:104B300038B50D4C034604F140000D46FFF798FCD4
:104B400080B1A27872B93BB9637AAB420AD1064808
:104B5000BDE83840FFF788BF19462046FFF76CFFD5
:104B60000028F1D0002038BD6003002070B5054654
:104B700086B000F14004BFF35B8F54E8003F013B77
:104B800044E80032002AF8D1BFF35B8F0A4B1E685D
:104B90000FF0A2FF024620462988FFF769FC074B69
:104BA00004930390029101920093054A054B064934
:104BB0000648B04706B070BD5C3A0020655601005B
:104BC000875B0100956F0100A86A0100BC720100BB
:104BD00038B5044600F12805002128460EF0D8FE1D
:104BE00050B92046FFF7E6FD2046FFF747FC204678
:104BF000BDE83840FFF7BABF0EF0F4FEECE7000066
:104C00002DE9FF412E4D2F4C2F6806460FF064FF13
:104C10002D4B01902D4A2E492E4802940094B847FE
:104C20002D4B0022012130469A6010F092FB2B4B55
:104C300003F14000FFF71CFC2A461F46254618B921
:104C4000012004B0BDE8F081597A99B9BFF35B8FB8
:104C5000191D51E8000F20F0400441E8004EBEF15C
:104C6000000FF6D1BFF35B8F410603D51846FFF75F
:104C7000AFFFE5E77C7A032CE2D1D2F800800FF099
:104C80002BFF114B0190114A1149154803950297CA
:104C90000095C047134B0022042106F1140010F0C8
:104CA00058FB012386F8203006F128000E4B002225
:104CB000042110F04EFB022386F834302046C0E772
:104CC0005C3A0020655601004D6F0100875B0100D2
:104CD000A86A01001A700100883B002060030020D0
:104CE0003070010078030020880300202DE9F04394
:104CF0000446734EDFF80482356887B00F460FF024
:104D0000EBFE637A6F490190042B96BF6E4A6F4B9E
:104D100052F823300293042F96BF6B4A6B4A52F825
:104D200027200392CDF81080CDF80080684B694AA7
:104D30006948A847657AAF42C1460CD1CDF80480D6
:104D4000CDF800803468624B644A5E496448A047ED
:104D500007B0BDE8F083677295B1022D14D0637A75
:104D6000042B00F2A08001A252F823F0CF4D0000E6
:104D7000514D00008B4E0000994D0000514D000038
:104D80002046FFF771FEEAE7A378002BE7D104F194
:104D9000700010F0A7F9E2E7A378022BD8D004F155
:104DA00028000FF0DBFB04F118000FF0D7FB002107
:104DB0004C4810F071FB00232046A363E36300F02E
:104DC0001BFC204607B0BDE8F043FFF741BBA378CA
:104DD000022B05D1204607B0BDE8F043FFF7C6BE61
:104DE000EB1E012B44D8204600F040FC3E4B1D68D2
:104DF000EDB93E4E3E4F4FF02003EFF3118183F3A8
:104E0000118823692BB160691A682261834208BF47
:104E1000626181F311888BB132681A6072685D60DB
:104E2000336002B9736038460FF065FEE3E76B68E4
:104E300013B1217A204698472D69D9E7A3781BB989
:104E400004F1700010F04EF9BFF35B8F043454E8A6
:104E5000003F43F0400344E80032002AF7D1BFF39B
:104E60005B8F2048002107B0BDE8F04310F014BB71
:104E7000022D03D12046FFF7EBFAABE7012D7FF4BB
:104E800067AF237A002BA5D0F4E7A378002B7FF43B
:104E90005FAF184840F6B83204F1700107B0BDE8C2
:104EA000F04310F083B9CDF808900197CDF8009049
:104EB0003468074B094A03490F48A04748E700BF39
:104EC0005C3A0020A86A0100E86E01003673010018
:104ED000776F0100875B010040730100E36A010006
:104EE0005E730100883B00204C030020F803002083
:104EF000EC3A0020881900207C73010065560100FF
:104F00004430704770B5064608460D46FDF7BEFAB8
:104F100008B900241CE01D48FFF7AAFA8305F8D45D
:104F20003046FFF7EDFD0446A0B1437A012B06D0D1
:104F300001D3032B0CD92046FFF718FEE9E76B8855
:104F4000A0F85E30AB88A0F86030EB88A0F8623043
:104F5000204670BD3046FFF73BFD04460028F7D0E1
:104F6000072231465230FCF76FFE6B88A4F85E30A2
:104F7000AB88A4F86030EB88A4F8623020460121A9
:104F8000FFF7B4FE0120FDF705FCE1E7D03A002071
:104F900070B506460D4600293BD13046FFF7B0FDFF
:104FA000044628B93046FFF713FD0446002851D0C7
:104FB000231D002D35D06A88A4F85E20AA88A4F8A5
:104FC0006020EA88A4F86220BFF35B8F53E8002FCB
:104FD00042F0010143E800100028F7D1BFF35B8FD6
:104FE000D10702D42046FFF73FFD637A63B91B481F
:104FF000FFF73EFA830707D51DB101212046FFF7D1
:1050000075FE0020FDF7C6FB2046FFF7AFFD002030
:1050100070BD0846FDF73AFA0028BED16FF01500C2
:1050200070BDBFF35B8F53E8002F22F0010143E80E
:1050300000100028F7D1BFF35B8FD207D5D52046EB
:10504000FFF794FD637A012BCFD129462046FFF765
:105050004DFECAE76FF00B0070BD00BFD03A0020D4
:1050600070B50E468178044611B94430FFF790FFC1
:10507000637A013B032B03D8DFE803F006101B0E15
:105080006FF03805284670BD204626720021FFF7D4
:105090002DFE0020FDF77EFB0025F3E704F17000F4
:1050A00010F020F8002142F20E00BDE87040FDF73C
:1050B000D1BA032140F20640FDF748F8054698B101
:1050C000032108300EF0C0FC238803808670294637
:1050D00040F20640FDF7BEFA05460028D2D1042171
:1050E0002046FFF703FECDE76FF03605CAE7F8B5B7
:1050F00007460D4642F213000E21FDF727F806463B
:10510000C8B10E2108300EF09FFC002104460E228B
:10511000FCF7C6FD3B8823802B8863806B88A380C7
:10512000AB88E380EB882381314642F21300BDE86F
:10513000F840FDF78FBA6FF03600F8BD70B5274B19
:105140000D468AB004461E680FF0C6FCEA88079236
:10515000AA8806926A8805922A88214B049294F8BC
:10516000642008930392019000931E4A1E4B029400
:105170001E491F48B047B4F85A302A889A420CD8C2
:105180006A889A4209D3B4F86020AB889A4204D165
:10519000B4F86220EB889A421CD004F170000FF042
:1051A000A1FF144B93F878309A0703D594F8643034
:1051B0009B0701D4E37833B9294620460AB0BDE8FD
:1051C0007040FFF794BF294620460AB0BDE8704002
:1051D00000F0C2BB6FF044000AB070BD5C3A002022
:1051E00065560100875B0100A36F0100A86A0100FA
:1051F000BB6F0100603A0020034607B513F8672C27
:10520000022AA0F1700005D11321FFF729FF03B096
:105210005DF804FB33F8142CADF8002033F8122CA1
:10522000ADF80220694633F8102C33F80E3CADF887
:105230000420ADF80630FFF781FFE8E738B5084BEA
:105240000D46002808BF18464FF0FF310EF09AFBBC
:10525000291D044608300EF0B4FB204638BD00BFBF
:105260002C3F00202DE9F04106460C46164800214F
:10527000FFF7E4FF3378032B05464FF0000605D017
:105280000EF0B0FB35462846BDE8F081466100F1DE
:1052900008070E4E3846B6F888800EF010FC8045A0
:1052A0000CD2B6F8886054F8081F324638460EF023
:1052B000D1FB314620460EF0E6FBE4E738460EF01F
:1052C000FEFB86B2EFE700BF4C3F0020603A0020B3
:1052D0002DE9F041494F4A4D3E6886B004460FF033
:1052E000FBFB484B0190039502940095464A4749C1
:1052F0004748B047637AB8462E460BBBBFF35B8F77
:10530000231D53E8002F22F0400143E8001000283D
:10531000F7D1BFF35B8F530612D53E680FF0DCFB6D
:1053200003952388029301900095364B364A3749FE
:105330003848B047204606B0BDE8F041FFF748BC0A
:10534000002104F128000EF023FB054670B90196F8
:105350000096D8F800402B4B2F4A2C492F48A047E5
:10536000404080F311884FF0040002DFD8F800704D
:105370000FF0B2FB0596AB890096294E049301907D
:10538000214A224903950294264B2748B847A98908
:10539000B6F88820914209D800231A4629462046AB
:1053A000FFF744FA50B106B0BDE8F08104F10907F7
:1053B00029463846FFF756FF014628B9284606B069
:1053C000BDE8F0410EF00EBB012300222046FFF79E
:1053D0002DFA0028F2D0AA89B6F888309A4202D86D
:1053E00000230122DAE729463846FFF73BFF014652
:1053F0000028E3D001231A46E8E700BF5C3A00200A
:1054000065560100646F0100875B0100A86A010016
:10541000FD6F010061700100606A0100556C0100C0
:10542000603A0020446F01009B700100034BC01ADA
:10543000034BC0105843C0B2704700BF6003002048
:105440001BCA6B28124B134A196810B511605968B2
:1054500001B95A60596892600F4A1A6001B95A60DE
:1054600001F08AFB02F0CEF8044670B900F09CFA15
:105470000A48FEF7FDFF40B10948FEF7F9FFC307F0
:1054800003D501210748FFF731FC204610BD00BFBE
:10549000F80300205003002058030020A003002040
:1054A0006403002060030020704700001FB50B4A12
:1054B00013682BB90A4850600A60184604B010BD42
:1054C000084B02930093084B01901C680748084B57
:1054D000084A0949A0476FF00B00EFE700040020DD
:1054E000A43B0020655601005C3A00200D750100C8
:1054F0009E740100606A0100A86A0100F8B50746C1
:105500000E46002004211546FFF798FE04210446AC
:1055100008300EF099FA0770467045802046F8BDB5
:105520007047000000238360054B596800F10802B2
:1055300011B95A601A6070470A605A60704700BF1C
:1055400098040020836B10B513B1083B002203B907
:1055500010BD8B4203F108040FD199683AB9C26BB0
:105560008163944200D1C16300229A6010BD116032
:10557000C16B8C4208BFC263F6E72246002CE7D01D
:105580009B68002BE4D0083BE1E7036810B50446B4
:105590002BB143685B6803B1984700232360E3683D
:1055A0001BB12046BDE81040184710BD7FB50C4B1D
:1055B0000293A0F110048DE818000A4B0A4A1E68F5
:1055C0000A490B4B05460B48B04755F8100C2146CD
:1055D000FFF7B8FF204604B0BDE87040FFF7D5BF25
:1055E000655601005C3A0020606A0100A86A01006B
:1055F00048740100617601001A4B2DE9F7431C68DD
:1056000006462CB10027DFF86080083CB94614B983
:1056100003B0BDE8F083636801A9304698470028CD
:1056200018DB019D23882B87A5F85830414605F1EA
:1056300010000FF047FDAF60F26B05F1080372B97F
:10564000F363B36301982E604368C5F80C901B6840
:1056500003B19847A468002CDAD0083CD7E7136060
:10566000F363EFE798040020AD550000836B10B59D
:10567000A3B1B3F108000AD110BD083CFFF785FFC4
:1056800064B1A36803B1083B20461C46F6E71C68DA
:10569000002CF2D1BDE81040FFF777BF10BD0431F8
:1056A000FFF7CCBDF8B5144605460F4602F10800D9
:1056B00004211E460EF0DFF9A189478004390180DC
:1056C000324621462846BDE8F840FFF72DB80000D5
:1056D000F0B58B89032B87B007460D460AD85E4B81
:1056E000019300935D4B5E4A1C685E495E4B5F48C8
:1056F000A04715E00846042150F8084F66880EF0D0
:10570000C2F9AA8996420DD0534B03930093534B91
:10571000019202961C68524A534B52495448A04782
:1057200007B0F0BD617849B94B4B019300934B4BE7
:105730004B4A1C684B494C4B4E48D9E72378122BF7
:105740002CD0132B1ED0012BEAD0434A02928DE8B5
:105750000C00424B484A1D684249434B4748A84702
:10576000022261783D680120FFF7C8FE022104464D
:1057700008300EF069F900230370437022460521BA
:10578000284629E0012ECBD8334B01930093334BAD
:10579000334A1C6833493A4B3A48A9E7072E09D8DF
:1057A0002D4B019300932D4B2D4A1C682D49364BF0
:1057B00036489DE73C68E6788EB102220120FFF76B
:1057C0009DFE0221054608300EF03EF900230370CD
:1057D00043702A4605212046FFF764FFA0E7AB6827
:1057E00058781A7842EA0022ADF81020D8789A78D2
:1057F00042EA0022ADF8122058791A7942EA0022D2
:10580000ADF814209A79DB79132042EA03230222AF
:10581000ADF81630FFF772FE04A907462046FEF7E2
:1058200051FE0221054607F108000EF00DF97DB189
:105830000670467000233A4605212046FFF732FFE6
:10584000002D3FF46DAF04A92046FFF750FC67E739
:10585000012303704570EDE7655601005C3A0020B6
:10586000606A0100A86A01008574010044750100A6
:1058700072750100A3750100E36A0100337601002F
:105880005A740100D47501006C74010000760100A7
:10589000806B00B1083800B97047B0F858308B42BF
:1058A000FAD083680020002BF6D0A3F10800F2E7BD
:1058B000806B00B1083800B97047038F8B42FBD072
:1058C00083680020002BF7D0A3F10800F3E7000065
:1058D0007FB58B89032B06460C460FD8164B0193D8
:1058E0000093164B164A1D681649174B1748A847D0
:1058F000204604B0BDE870400EF074B8084604219C
:1059000050F8083F5D880EF0BEF829463046FFF794
:10591000CFFF58B9084B02938DE82800074B0C4A7B
:105920001D680849084B0B48A847E1E74368214632
:105930001B699847DCE700BF655601005C3A002010
:10594000606A0100A86A010090740100AB74010054
:10595000E36A0100D874010070B5124B1A78013265
:1059600012F0FF0208BF01221A700C460546197892
:1059700008221220FFF7C2FD0821064608440EF057
:1059800063F82388038063884380A3888380E38847
:10599000C3803246284600230521FFF783FE0020FE
:1059A00070BD00BF940400200148FFF7BBBD00BFDD
:1059B000983B00200620704710B50A4A002312F8D1
:1059C000334084424FEAC30102D10A44907810BDAB
:1059D00001331B2BF3D110F0400F14BF0020062021
:1059E00010BD00BF587901007FB5114D2C680E46DF
:1059F00084B9E42221462846FCF752F902220D4BD5
:105A00006B6005F1CC0011460FF06CF83560204654
:105A100004B070BD084B02930093084B01901C68C2
:105A20000748084B084A0949A0476FF00B00EFE709
:105A3000A0040020C43B0020655601005C3A002011
:105A40001078010000770100606A0100A86A010077
:105A500010B50446006908B10DF0C4FFA3680BB18E
:105A600020469847204614220021BDE81040FCF74C
:105A700017B908B501F108000EF015F8002008BDAF
:105A80002DE9FF410D6806460C464FF000084FF423
:105A9000205302A900682F688DF80880ADF80A30FD
:105AA000FCF750FA98B142F6010303A930688DF86B
:105AB0000C80ADF80E30FCF745FA40B1236923B1F4
:105AC000328A5988914200D25A80012012E06168DE
:105AD0003068FCF737FA10B100232361F5E7E3687B
