:1000000000270020DD1A0000311B000075190000D8
:1000100075190000751900007519000075190000A8
:100020007519000075190000751900007D15000094
:1000300075190000751900003915000075190000C8
:10004000A11A0000F7EF0000A11A0000A11A000099
:10005000A11A0000A11A0000A11A0000A11A0000B4
:10006000A11A0000A11A0000A11A0000A11A0000A4
:10007000A11A0000A11A0000A11A0000A11A000094
:10008000A11A0000A11A0000A11A0000A11A000084
:10009000A11A0000A11A0000A11A0000A11A000074
:1000A000A11A0000A11A0000A11A0000A11A000064
:1000B000A11A0000A11A0000A11A0000A11A000054
:1000C000A11A0000A11A0000A11A0000A11A000044
:1000D000A11A0000A11A0000A11A000000000000EF
:1000E0007512000000000000ED1800000000000084
:1000F000ED18000000000000ED18000000000000F6
:10010000ED18000000000000ED18000000000000E5
:100110004D0D010000000000ED180000000000007F
:10012000ED18000000000000ED18000000000000C5
:10013000ED18000000000000BDEF0000000000000E
:10014000ED180000D0380020511001000000000020
:10015000ED18000000000000ED1800000000000095
:10016000ED180000000000009D13000000000000DA
:10017000ED18000000000000ED1800000000000075
:10018000ED18000000000000ED1800000000000065
:10019000ED18000000000000ED1800000000000055
:1001A000F1EF000000000000ED180000000000006A
:1001B000ED18000000000000ED1800000000000035
:1001C000ED18000000000000ED1800000000000025
:1001D000ED18000000000000ED1800000000000015
:1001E000ED18000000000000ED1800000000000005
:1001F000ED18000000000000ED18000000000000F5
:10020000ED18000000000000ED18000000000000E4
:10021000ED18000053B94AB9002908BF00281CBFD7
:100220004FF0FF314FF0FF3000F08EB9ADF1080C08
:100230006DE904CE00F01AF8DDF804E0DDE90223F0
:1002400004B07047430803F05533C01A830803F025
:10025000333300F03330184400EB101000F00F304F
:1002600000EB002000EB0040000E70472DE9F04746
:100270008C460D460446089E002B51D18A421746F3
:100280006DD9B2FA82FEBEF1000F0BD0CEF1200C78
:1002900001FA0EF520FA0CFC02FA0EF74CEA050CF6
:1002A00000FA0EF44FEA174A250CBCFBFAF81FFAC5
:1002B00087F90AFB18CC45EA0C4508FB09F3AB4269
:1002C0000AD9ED1908F1FF3280F02381AB4240F2E8
:1002D0002081A8F102083D44ED1AA4B2B5FBFAF062
:1002E0000AFB105544EA054400FB09F9A14509D968
:1002F000E41900F1FF3380F00A81A14540F2078143
:1003000002383C44A4EB090440EA08400021002ED6
:1003100061D024FA0EF4002334607360BDE8F087E6
:100320008B4207D9002E54D0002186E821000846D0
:10033000BDE8F087B3FA83F1002940F08E80AB422C
:1003400002D3824200F2FA80841A65EB0305012091
:10035000AC46002E3FD086E81010BDE8F08712B9F9
:100360000127B7FBF2F7B7FA87FEBEF1000F34D1D1
:10037000EB1B3A0C1FFA87FC0121B3FBF2F8250CAA
:1003800002FB183345EA03450CFB08F3AB4207D9DF
:10039000ED1908F1FF3002D2AB4200F2D180804665
:1003A000ED1AA3B2B5FBF2F002FB105543EA054487
:1003B0000CFB00FCA44507D9E41900F1FF3302D27D
:1003C000A44500F2B8801846A4EB0C0440EA0840AB
:1003D0009DE731463046BDE8F087CEF1200405FAAE
:1003E0000EF307FA0EF720FA04F83A0C25FA04F493
:1003F00048EA0308B4FBF2F14FEA184502FB114446
:100400001FFA87FC45EA044501FB0CF3AB4200FAF6
:100410000EF409D9ED1901F1FF3080F08A80AB426A
:1004200040F2878002393D44EB1A1FFA88F5B3FB8E
:10043000F2F002FB103345EA034500FB0CF3AB423C
:1004400007D9ED1900F1FF386FD2AB426DD90238F0
:100450003D44EB1A40EA01418FE7C1F1200722FA3F
:1004600007F88B4005FA01F448EA030320FA07FE77
:100470004FEA134CFD404EEA040EB5FBFCF94FEA7F
:100480001E440CFB19551FFA83F844EA054509FB85
:1004900008F4AC4202FA01F200FA01FA08D9ED18A8
:1004A00009F1FF3043D2AC4241D9A9F102091D4400
:1004B0002D1B1FFA8EFEB5FBFCF00CFB10554EEA0F
:1004C000054400FB08F8A04507D9E41800F1FF3502
:1004D00029D2A04527D902381C4440EA0940A4EBA0
:1004E0000804A0FB02894C45C6464D4615D312D0E0
:1004F00056B1BAEB0E0364EB050404FA07F7CB40E0
:100500001F43CC40376074600021BDE8F087184677
:10051000F8E69046E0E6C245EAD2B8EB020E69EB97
:1005200003050138E4E72846D7E7404691E78146CE
:10053000BEE7014678E702383C4445E7084608E74D
:10054000A8F102083D442BE7704700BF70B503785F
:100550008AB004460E4607AD032B20D8DFE803F02F
:1005600002191B1D1149284601F014FB6278049200
:10057000A2780392E2780292227901926279009243
:10058000A37905950A4A1B21304600F00DFD0AB0FB
:1005900070BD0849E7E70849E5E70849E3E7084A85
:1005A0000A21284600F000FDE0E700BFAD2501006C
:1005B000D6250100B4250100BB250100C525010099
:1005C000CF25010030B589B00D46044603F0F3F99C
:1005D00001A9FFF7BBFF35B12A4601A9084800F081
:1005E000D5FC09B030BD074B1B689C42F9D101A96D
:1005F000054800F0CBFC1321204603F091FAF0E708
:10060000F9250100000000201726010030B5134C29
:10061000236883428BB00D461DD103F0CCF903A9AA
:10062000FFF794FF2A4603A90D4800F0AFFC2068AD
:1006300003F0BEF9002323600A4B0B4918680190B0
:100640009B88ADF8083001A802F0F0FD014610B11A
:10065000064800F09BFC0BB030BD00BF000000203E
:100660004226010078250100710600006026010085
:1006700070B5104C23688AB006460D46C3B9012AEE
:1006800016D803A9FFF762FF2A4603A90A4800F01B
:100690007DFC46350CDB02F01BFE48B9074A1068AA
:1006A000516801AB03C301A9304603F087F920600C
:1006B0000AB070BD00000020262601007E25010042
:1006C00007B5002002F062FD014628B10E4800F097
:1006D0005DFC03B05DF804FB0C4800F057FC0C48CF
:1006E00002F0B2FE0B4B0C49186800909B88ADF8E5
:1006F0000430684602F09AFD014608B10748E6E773
:10070000074800F043FCE4E783260100A32601002C
:10071000403400208625010071060000602601009B
:10072000BA2601000C4B1B78062B12D10B4B186814
:1007300010F00F000DD104331B6803F0F003302BD1
:1007400008D1074B1B6813F0F00F0CBF01200020ED
:1007500070470020704700BFE00F00F0E40F00F08A
:10076000EC0F00F008B54FF02003EFF3118183F395
:100770001188FFF7D7FF20B13D4AD36823F080737B
:10078000D360FFF7CFFF10B13A4B03221A60FFF797
:10079000C9FF30B14FF080430022C3F80C21C3F8E9
:1007A0001021354B1B78062B17D1344B1B681807CB
:1007B00013D1334B1B6803F0F002302A03D003F04F
:1007C000E003402B09D14FF08043D3F80024D20737
:1007D00003D56FF00102C3F800244FF01022D2F8C5
:1007E0000032002B274B03DBD2F80022002A2FDA3D
:1007F0000122C3F80425D3F80024002AFBD04FF0CF
:1008000010231522C3F800221E4A1346D2F8001402
:100810000029FBD04FF010221521C2F80412D3F8A2
:100820000024002AFBD00022C3F80425154AD2F880
:100830000034002BFBD0BFF34F8F1349134BCA6812
:1008400002F4E0621343CB60BFF34F8F00BFFDE7BC
:100850000122C3F840250C4B4FF0FF329A62DA6256
:100860000B4B0C4A1A6081F31188002008BD00BFB1
:10087000F0ED00E0A0050040E00F00F0E40F00F014
:10088000E80F00F000E0014000ED00E00400FA0590
:10089000743400200090D00308B504460846114681
:1008A0001A46A04711F01AF901F0D4F810B5C47A2D
:1008B000C0688C424FF00C04B6BF614304FB0101D9
:1008C0004158202492FBF4F401EB8401196002F0FA
:1008D0001F0010BD07B501ABFFF7E8FF019A012328
:1008E00003FA00F013680343136003B05DF804FBE0
:1008F00007B501ABFFF7DAFF019A012303FA00F015
:10090000136823EA0003136003B05DF804FB2DE9CC
:10091000F0474368058904460068A77A5D43284488
:1009200000214FF00C0E4FF0200CB94205DB0025E2
:1009300023899D4223DBBDE8F087D4F80C90B5FBFA
:10094000F3F20EFB01F81F2A09EB08064FEA9303A6
:1009500006F1040AC8BF1F3203F10303C6F804A05E
:10096000C6F808A0CABF92FBFCF2E17249F8080081
:1009700023F00303C8BF00EB82000131D5E76268B2
:10098000E36820686A431E1D865081189A684A6091
:100990009A682046116099602A460021FFF79AFF65
:1009A0000135C5E72DE9F04F8BB0867A00AF0446DC
:1009B000FB60B3000A3323F00703ADEB030D43687C
:1009C0003A6103336A4623F0030342F80439E946E7
:1009D0004FF0FF3500234FF00C0E581EB3427862E3
:1009E00009DA2BB110688008033020F00300506052
:1009F000506888420BD27B6A013314D13A6D0023D0
:100A000013606FF00B002C37BD46BDE8F08FE06837
:100A10000EFB030000F1040C40680432604518BF6F
:100A20001D460133D9E76B1CE8D0E16859F8252051
:100A30000C2303FB051353F8046F9E4261D096E824
:100A40000A00196031684B6023682946F31A204672
:100A500093FBF2F2FFF74CFFA9EB890309EB850A40
:100A6000BB617B6A9D4223680EDB3A6911467A6A54
:100A70000A60F31A59F8222093FBF2F3FA68136024
:100A80003B6D00201E60BEE75AF8042BF31A93FB5F
:100A9000F2F3BA699B007B610AEB4A0313444FF0FF
:100AA000010BFB6105EB0B03BB60DAF80080B96852
:100AB0000BFB08F33B62F3187B607B6920460BEB72
:100AC0000302FFF707FF7B682268218908F1FF38DE
:100AD0009844A8EB020862684A4390450AD2E2684B
:100AE000F969386A0A44111D31509168596091685A
:100AF0000B6093600BF1010BBBF1040FD5D10135F5
:100B0000AFE76FF00A007EE72DE9F04F85B0837AFA
:100B10009B000A3323F0070300AFADEB030D4368DE
:100B2000033323F003030546EA4600936C46012095
:100B300081424CD20C4616463246214628465AF887
:100B40002480D5F80090FFF7C5FE002C48D007F1AF
:100B50000C03324621462846FFF7A8FEFA68042314
:100B600090FBF3F083001068D84000F00F000F28CE
:100B700036D126F003034FF000097B6008F1FF3BFC
:100B80007B684B441A46214628463B60FFF7B0FE7F
:100B90003B689E4212D008FB03F2B5F808C06B68B0
:100BA000296802EB0B0E03FB0CF39E4501EB0200E0
:100BB00004D240688B5803608B58586009F10109D2
:100BC000B9F1040FDCD196FBF9F6013CB4E72368D8
:100BD0009B08033323F0030344F8043F0130A7E7E5
:100BE00008FB06F62A68696809EB060308F1FF3876
:100BF0009844A8EB02082A89514388450BD2E9683A
:100C00000C2202FB0414221D49F80620A2685A6037
:100C1000A2681360A3601437BD46BDE8F08F0020C2
:100C2000704700000B6801330B60014B1B681847CD
:100C3000783400202DE9F04F85B09B460E9CDFF8FC
:100C400090A0012CB8BF0124012B0CBF302320231E
:100C50001546804689460194029301260A27002200
:100C60000AF101040AB9AA451FD2B5FBF4F04946BE
:100C70003030C04701360122013F012FB5FBF4F1AE
:100C80004FF00A0304FB1155BAFBF3FAE8D14946C9
:100C900005F13000C047BBF1030F03D1019B9C1B42
:100CA000002C0FDC05B0BDE8F08F019BBB42E3DBFD
:100CB000BBF1020FE0D84946029803920136C047C3
:100CC000039AD9E749462020C047013CE8E700BF26
:100CD000FFC99A3B0A688B6830B512B14C68A342D1
:100CE00002DB01338B6030BD651EAB420BBF8C60F5
:100CF0005C1C00218C600CBFD154D05430BD00006E
:100D0000014B1860704700BF783400202DE9F04F88
:100D100089B04FF0000A06460F4604921C464FF079
:100D2000FF39D0465546049B187810B909B0BDE884
:100D3000F08F45B9252800F00C813946B047049B57
:100D400001330493EFE7642861D019D839280AD811
:100D5000312850D22D283CD030283DD0252808D12C
:100D60003946B0476FE0582800F08980632800F0CA
:100D7000EA8039462520B047049B39461878F0E7C9
:100D8000702872D006D8692841D06C283CD06828D9
:100D9000D5D0EEE7752858D017D87328E9D1236845
:100DA00004F1040B1C46254615F8010B002840F001
:100DB000BF80B8F1030F40F0D580E41AA9EB04041A
:100DC000002C00F3BB805C463DE0782857D07A28A1
:100DD000DEE74FF00308B2E7B9F1000F0EDAB8F121
:100DE000000F00F0BC80A0F13009B8F1000F08BF7F
:100DF0004FF00208A3E7B9F1000FF4DB0A2303FB6D
:100E00000909A9F13009F0E70AF1010A97E7BAF1F7
:100E1000010FC5BF073424F0070325681D68D4BF40
:100E2000043403F10804002D05DA39462D20B047BB
:100E30006D4209F1FF39CDF8009043462A46394604
:100E40003046FFF7F7FE002579E7BAF1010FC5BF7D
:100E5000073424F0070322681A68CDF80090CCBF4D
:100E600003F1080404344346E9E739463020B0472B
:100E700039467820B0474FF008094FF00108BAF121
:100E8000010FC7BF073424F0070323680593C2BFCF
:100E900003F108041B6805934FF008024FF00003AC
:100EA000D8BF04340393079393460BF1FF3B059B94
:100EB0004FEA8B0023FA00F010F00F0009D1079BD6
:100EC00013B9BBF1000F22D14FF0300E07E0069AA4
:100ED000EBE709288CBF4FF0570E4FF0300E394624
:100EE00070440692B047039B079501330393BBF10F
:100EF000000FECD1B8F1030FA5D1039BC3EB49055B
:100F0000002DA0DD39462020B047013DF8E7531EF3
:100F100091450693EBDBB8F1010F03D13946302040
:100F2000B047E4E7B8F1020FE1D139462020F7E7F6
:100F3000394603932C46B047039B34E739462020BB
:100F4000B047013C3CE72068251D3946B0472C4698
:100F500079E7AA46A8464FF0FF390125EFE64FF0A2
:100F60000108ECE65C460546E9E6000013B502AC74
:100F7000002344F8043D02460B4603482146FFF790
:100F8000C5FE019802B010BD250C00000FB407B5D6
:100F900004A951F8040B0191FFF7E8FF03B05DF8D5
:100FA00004EB04B0704700000CB430B585B008AB5A
:100FB000044653F8042B01900291002501A907482B
:100FC00000930395FFF7A2FE0398029B9842B8BFD7
:100FD000255405B0BDE8304002B07047D50C000084
:100FE0007047000013B5114CBFF35B8F2068BFF34F
:100FF0005B8F60B90E4810F099F8BFF35B8F54E82F
:10100000003F44E80002002AF9D1BFF35B8F436838
:1010100004221B680DEB02019847002802DA00F059
:1010200037FA0190019802B010BD00BF0400002003
:10103000E82601000A2838B50446074D04D128687F
:1010400043680D215B68984728684368E1B25B6894
:101050009847204638BD00BF080000200148FFF730
:101060004FBE00BF3510000008B5044810F05EF810
:10107000034B1860FFF7F2FF002008BDF2260100C5
:101080000800002010B54FF02003EFF3118283F326
:101090001188114C237823B982F311886FF0440032
:1010A00010BD013BDBB2237023B182F311886FF0D6
:1010B0000F0010BD094B1878012128B1217082F36F
:1010C00011886FF00A0010BD197082F311884FF07B
:1010D00080425160187010BD0E0000200D000020ED
:1010E00008B500221046012100F0E8FB002000F0C6
:1010F000B3FB002008BD0000F8B54FF02002EFF36D
:10110000118382F31188254A1078441C147060B151
:1011100083F311884FF08043D3F80C3413F4803FED
:1011200014BF00206FF04300F8BD1D4D2F782FB184
:10113000107083F311886FF00A00F8BD01262E703D
:1011400083F311884FF0804419B3384600F094FBC4
:10115000C4F80071D4F80433C4F804632660D4F8EA
:10116000002192B10022C4F800210E4A13F0010FB1
:101170004FF0010308BFC4F808330020C2F88031E3
:1011800000F06AFB00232B70C4E720BF40BF20BFE4
:10119000E5E7C4F800112660F4E700BF0E00002068
:1011A0000D00002000E100E0F8B506460C464FF0C7
:1011B0002002EFF3118382F311882C4A157865B170
:1011C00083F311884FF08043D3F8183413F4803F31
:1011D0000CBF6FF043000020F8BD0127177083F3A8
:1011E0001188284600F048FB4FF080430221C3F8E5
:1011F0000451D3F80423C3F80413C3F818459F60BF
:10120000D3F8041171B39207194F58BF02224FF05F
:1012100000014FF00105C3F804114FF0000058BF62
:10122000C3F80823C7F8805100F016FB4FF0804345
:1012300000211822C3F80823C3F80C11C3F81011B9
:1012400014F00301BED11020C3F83805C3F80423FD
:101250003046C3F80453FFF74FFF0028B2D1C7F858
:101260000051AFE720BF40BF20BFC9E70C000020FE
:1012700000E100E0F8B54FF080430546D3F808E1FF
:10128000D3F80423D3F80C44D3F80071D3F8040145
:10129000D3F80C11D3F8106102F00102BEF1000F77
:1012A00003D04FF0000EC3F808E127B14FF08043A0
:1012B0000027C3F800713AB1E30341BF4FF0804308
:1012C0000122C3F808231A6120B14FF080430022A5
:1012D000C3F8042149B14FF080440021C4F80C1137
:1012E0002846FFF7CFFE0123636176B14FF08043BC
:1012F00000210124C3F810112846C3F80443FFF766
:10130000FBFE10B9014BC3F80041F8BD00E100E05D
:10131000084BC3F84005D3F80435C01A20F07F40CD
:10132000054B0238984282BF044B4FF40032C3F899
:101330000021704700100140FDFF7F0000E100E048
:1013400038B5114B114CD3F804052268104D801AA2
:101350002B6820F07F4098420FD3B0FBF3F00D498B
:101360000968884228BF084600FB032323F07F4317
:101370002360094B186010F029FC20682B68184482
:10138000BDE83840FFF7C4BF001001401400002042
:1013900090380020100000208C380020024B0022E2
:1013A000C3F84021FFF7CCBF00100140031E0A4ADA
:1013B0000A4804DB116890FBF1F18B4202DD1368EF
:1013C00090FBF3F31068064A064912680B6000FBB5
:1013D0000320FFF79DBF00BF90380020FFFF7F0074
:1013E000140000201000002008B5074B0022C3F8AD
:1013F0004021064B4FF40032C3F88021FFF7A0FFD5
:10140000034B01221A6008BD0010014000E100E01A
:101410001000002070B518480FF088FE48B34368EC
:10142000164D1B6801219847154B00241C60154B75
:1014300001261E60144BC5F808451B68C5F84035E9
:101440004FF48033C5F84433C5F804330F4BC5F867
:1014500040414FF40032C3F880213146224611202A
:1014600000F02CFA112000F0F7F9AE6020462E6053
:1014700070BD4FF0FF3070BD142701000010014017
:1014800014000020100000209038002000E100E04F
:101490000A4A30B5D2F80435094DD5E90001D2F831
:1014A0000445A34207D1074A126850431B1A23F090
:1014B0007F43184430BD2346EFE700BF00100140D2
:1014C000281700209038002007488168006A884269
:1014D00008D000B510F0B4FA5DF804EB03494FF002
:1014E00080520A6070470000F016002004ED00E012
:1014F000044800232021C2180133272B82F800134F
:10150000F9D1704700E100E0084A09499368096889
:10151000D966084998664B6843F080534B600023B6
:1015200083F311889368D86E704700BFF0160020CF
:10153000A82D010000ED00E0202080F311880D4966
:101540008A682C201044EFF3098C80E8F01F0A4FC2
:101550004FF000660A6A8A603E60906E00239366D0
:1015600080F3118802F12C0090E8F01F8CF30988B9
:1015700070470000F016002004ED00E01EF0040F9C
:101580000CBFEFF30880EFF30980816931F8021C8A
:1015900011F0FF010229FFD000B500F02BFA00BDC9
:1015A00010B5044610F09AFA22680146BDE81040D2
:1015B0000148FFF7EBBC00BF6D28010038B50446B9
:1015C0001A480D46FFF7E2FC04F11800184CFFF72B
:1015D000E7FFA36AD90602D51648FFF7D7FCA36A2E
:1015E0001A0702D51448FFF7D1FCA36A9B070ED552
:1015F0001248FFF7CBFC616BA36A180607D51048A9
:10160000FFF7C4FC1DB1A36A23F08003A362084C5A
:10161000A26AD20702D50B48FFF7B8FCA36A9B0663
:1016200002D50948FFF7B2FC002038BDB7280100F9
:1016300000ED00E0CE280100E0280100F4280100C0
:101640000D2901001E2901003E29010010B50446A4
:101650001A48FFF79BFC04F11800194CFFF7A0FF94
:10166000A36A9A0102D51748FFF790FCA36ADB0131
:1016700002D51548FFF78AFCA36A180302D5134860
:10168000FFF784FC0E4CA36A590302D51048FFF7FC
:101690007DFCA36A9A0302D50E48FFF777FCA36A84
:1016A000DB0302D50C48FFF771FC054A936A6FEA29
:1016B00003436FEA13439362002010BD6E290100BB
:1016C00000ED00E0872901009B290100B6290100F7
:1016D000D5290100FB290100162A010038B504466E
:1016E0001D480D46FFF752FC04F118001B4CFFF794
:1016F00057FFA36AD80404D51948BDE83840FFF75E
:1017000045BCA36A190501D51648F6E7A36A9A05F0
:1017100014D51548FFF73AFCA16BA36A1B0407D543
:101720001248FFF733FC1DB1A36A23F40043A36200
:101730000A4B9B6A58050ED50D48DEE7A36A59058A
:10174000FAD4A36ADA0501D50A48D6E7A36A9B044E
:1017500001D50948D1E738BD3427010000ED00E08C
:10176000CE280100E02801004B2701000D290100CF
:1017700065270100812701003E29010038B5274C6B
:101780006368C3F30803DA1E0546092A3BD8DFE87D
:1017900002F0053436303A3A3A3A3A382048FFF700
:1017A000F5FBE36A9A0703D51E48FFF7EFFB02E05B
:1017B000E36A5B0001D4002009E01B48FFF7E6FB69
:1017C0001A4B1B7843B101212846FFF7F7FE294643
:1017D000BDE8384000F012B9154B1B7823B1012148
:1017E0002846FFF77BFFE6E7124B1B889BB2002BD6
:1017F000E1D02846FFF72AFFE9E70021E4E70021CE
:10180000EEE70D48D1E70D480D49A3F110020F2B6B
:10181000D8BF01460B48FFF7B9FBCCE700ED00E06D
:10182000C8270100E02701000228010028ED00E0A0
:1018300029ED00E02AED00E0222801009A270100AE
:10184000AF27010059280100024A536943F01003F1
:101850005361704700ED00E043B2002B08DB01222A
:1018600000F01F0002FA00F05B09024A42F8230070
:10187000704700BF00E100E043B2002B0DDB012206
:101880005B0900F01F0002FA00F02033034A42F81F
:101890002300BFF34F8FBFF36F8F704700E100E06D
:1018A0004209054B00F01F0053F82220012303FAE0
:1018B00000F01040704700BF00E100E043B2002B91
:1018C000A8BF03F1604301F101014FEA4111ADBF2F
:1018D00003F5614300F00F00034BC9B2B6BFC9B2B4
:1018E00083F800131954704714ED00E000F042B87B
:1018F00008B572B6044BD86918B10022DA610FF04E
:101900003BFC62B608BD00BFF0160020F8B50C46DF
:1019100016461F4604220A9B0999054610F072FBE1
:10192000A6F1200121440C4AEC6521F007010023B7
:1019300022F001022B656B652E668A61069A4A6069
:10194000079A8A60089ACA600F604FF08072CA6175
:10195000E964AB66F8BD00BF990800000149102298
:101960000A60704710ED00E0404080F3118830BFFE
:10197000704700BF404080F31188DFF81CC0DCF8DE
:1019800000C01CF4006C0CBFEFF30880EFF309807B
:1019900000B5FFF7F3FE00BD04ED00E0042838B504
:1019A00004460D4613D0052813D0032813D10C4844
:1019B000FFF7ECFA10F092F8AA6901460948FFF720
:1019C000E5FA29462046BDE8384000F017B8064839
:1019D000EEE70648ECE701460548FFF7D7FAE9E7E6
:1019E000422A0100C02A0100682A0100822A01005F
:1019F0009D2A010001460068FFF7D0BF052810B5F9
:101A00000CD010F02DFA60B110F02AFA0C4B0D49F1
:101A1000002808BF19460C48FFF7B8FAFFF7A4FFE3
:101A2000FCE710F02DFA0028EED1084C0848A16818
:101A3000FFF7ACFAA068BDE8104000F00BB800BF9B
:101A4000002B0100FC2A0100112B0100F0160020E0
:101A5000312B010038B505464FF02003EFF3118418
:101A600083F3118810F064FA0B4B9B689D420DD1F3
:101A70000A4B5A68C2F3080222B90FF0E1FF204670
:101A8000FFF742FD5A6842F080525A602046BDE896
:101A900038400FF08FBE00BFF016002000ED00E0D0
:101AA00000B572B60B4AD06900281EBF0021D16173
:101AB0000FF062FB62B6EFF30580A0F110004FEA71
:101AC000C0000549014409C998475DF804EBFFF7D8
:101AD000FBBC0000F0160020DC000000202080F39A
:101AE000118806484FF40061401880F309880220ED
:101AF00080F31488BFF36F8F00F006B840280020F1
:101B000030BFFFF7FDBF00BF08B5074B074A23F002
:101B10007F039360BFF34F8FBFF36F8F0FF05CFBBA
:101B20000FF064FB0FF086FB0000000000ED00E00A
:101B300008B5FFF7E5FFBDE80840FFF7C5BC0000AA
:101B4000124930B50D68082D0DD8114A4868002398
:101B500053609D4200F10C0007D105235360BFF391
:101B60004F8FBFF36F8F002030BD50F80C1C50F822
:101B7000044C936021F01F0141F01001194344F01F
:101B80000104D16001331461E3E700BF5434002045
:101B900090ED00E00139034611F8012F0AB91A70DF
:101BA000704703F8012BF7E702460346981A13F82B
:101BB000011B0029FAD170470138013910F8013FA3
:101BC00011F8012F934202D1002BF7D11A46981A2F
:101BD000704770B582B1013A0C46034603D11A78BA
:101BE0002078101A70BD1E782578AE4200F10100F1
:101BF00001F10101EFD0F2E7104670BD81EA000368
:101C000013F0030F70B503460BD0013B0A44914219
:101C10001BD170BD002AFCD011F8014B03F8014B19
:101C2000013A9C07F6D11E1F0D46541B0C44032C91
:101C300006D822F003042144234402F00302E4E71F
:101C400055F8044B46F8044FEFE711F8014B03F841
:101C5000014FDCE770B5C9B203469C0711D141EAD8
:101C6000012444EA04441E46951B1D44032D0ED84E
:101C700022F00304234402F003021A44934209D1E0
:101C800070BD002AFCD003F8011B013AE5E746F8D5
:101C9000044BE9E703F8011BF0E730B585B00446D3
:101CA000154668460322FFF7A9FF0D2200210DF11A
:101CB0000300FFF7CFFF20466A46694605F018F992
:101CC000044620B9032269462846FFF797FF2046BD
:101CD00005B030BD13B50C4601AA0331FFF7DDFF97
:101CE00048B9032201A92046FFF773FFB0FA80F03C
:101CF000400902B010BD0020FBE770B5CD1C0646C0
:101D00000C462846032105F0D7F860B9637903F043
:101D10003F0343F040036371224629463046BDE845
:101D20007040FFF7BABF70BDF0B40278012A0446D4
:101D30000B4617D003D3022A2CD0F0BC7047184AA8
:101D40000D4602F11007106851682E4603C608328E
:101D5000BA423546F7D11278327062885A73120A45
:101D60009A73EAE70E4A0D4602F1100710685168AF
:101D70002E4603C60832BA423546F7D11278327081
:101D800062685A73C2F30721120CDA73120A99734C
:101D90001A74D2E7014611221846F0BCFFF72EBF95
:101DA000562B010010B50C46017822788A428AB081
:101DB0000ED06946FFF7B8FF05A92046FFF7B4FF2C
:101DC00010220DF115010DF10100FFF702FF0AE0ED
:101DD000012A0AD004D3022A0AD06FF0150002E0CB
:101DE00040886388C01A0AB010BD40686368F9E78C
:101DF0001022611C0130E8E770470722FFF7FEBEA2
:101E000000B5BFF35B8F50E8003F43EA010240E8B2
:101E1000002EBEF1000FF6D1BFF35B8F18465DF8C0
:101E200004FB00B5BFF35B8F50E8003F03EA0102FB
:101E300040E8002EBEF1000FF6D1BFF35B8F1846CD
:101E40005DF804FBC378002B41F2883200F1700189
:101E500008BF0022014810F0ABB900BF30170020C6
:101E600070B5064688790D460EF0ECFC0E4B8342A9
:101E700019D128460EF0ECFC28460EF0E9FC0B4C7C
:101E800004EBC000436873B128460EF0E1FC04F88F
:101E9000306028460EF0DCFC04EBC000BDE870406A
:101EA00040680FF02ABE70BD8C3900201800002059
:101EB0004B09BFF35B8F50F82300BFF35B8F01F03A
:101EC0001F01084100F00100704700002DE9F047B4
:101ED000804689461348144D4FF0FF310EF046FD01
:101EE000044600F108060021304600270EF05DFD93
:101EF000277520460EF0ACFC05EBC000A0F8028070
:101F000020460EF0A5FC05EBC000032147603046DB
:101F10000EF08EFD80F80290A0F800802046BDE80B
:101F2000F08700BF8C3900201800002070B51546DE
:101F300086B00C4619B9FFF7C9FF044668B3012201
:101F4000002168460FF0D0FD20460EF081FC144EB3
:101F500006EBC000C0F804D020460EF065FD214617
:101F600010480EF026FD42F2107168460FF0EDFDAC
:101F700020460EF06DFC16F8300030B120460EF011
:101F800025FD6FF0040006B070BD0DB12C60FAE7BE
:101F900020460EF01BFD2846F5E76FF03600F2E70D
:101FA000180000204435002038B50221054642F2D1
:101FB0000C00FFF78BFF044630B3022108300EF00F
:101FC00037FD012D024616D10B211148FFF770FF96
:101FD000507015702146002242F20C00FFF7A6FF58
:101FE000044630B9012D09D14FF480710848FFF73C
:101FF00007FF204638BD00234370EAE76FF4807185
:102000000348FFF70EFFF4E76FF03604F1E700BF77
:10201000F034002070B5154D062205F10801064682
:10202000FFF7D7FD0446D8B1062142F20500FFF7BD
:102030004DFF0446B0B10622314608300EF0FEFCDA
:102040002146002242F20500FFF770FF044638B92E
:102050000622314605F10800FFF7D0FD0123EB71A0
:10206000204670BD6FF03604FAE700BF80340020D0
:1020700038B50121054642F20A00FFF727FF044662
:10208000D8B108308DB101210EF0E1FC21460022CB
:1020900042F20A00FFF74AFF044620B93DB1402151
:1020A0000748FFF7ADFE204638BD2946ECE76FF044
:1020B00040010348FFF7B5FEF5E76FF03604F2E79D
:1020C000F0340020028843889A4210B518D8052AB7
:1020D00016D9B3F5486F13D88488B4F5FA7F0FD2B8
:1020E000C188A1F10A0292B240F67640824207D836
:1020F00004FB0333B3EB810FB4BF0120002010BDFC
:10210000002010BD012310B50621044600F8013B54
:1021100004F0D2FE18B9A37963F03F03A37110BD98
:1021200038B50C4D2B78012B10D1AB7903F0C003DF
:10213000C02B0BD1681CFFF76DFF044620B90421AA
:1021400005F17000FFF75CFE204638BD6FF0150406
:10215000FAE700BF80340020024BD3F8D4301B696B
:10216000184700BF8034002038B505460C4619B921
:10217000FFF7ACFE044698B140F635439D4209D1C5
:102180002046FFF7E9FF054610B120460EF01EFC81
:10219000284638BD214604480EF00BFC0025F7E721
:1021A0006FF03605F4E700BF4435002073B50D46E7
:1021B00014460646072200216846FFF74BFDADF89E
:1021C00001501B4DADF8034000238DF80630072168
:1021D0002B788DF8006042F20B008DF80530FFF788
:1021E00075FE044600B30722694608300EF026FC4F
:1021F000214642F20B00FFF7B7FF0120FFF7D4FEA4
:10220000044638B9012E08D14FF4806105F1700001
:10221000FFF7F6FD204602B070BD6FF4806105F156
:102220007000FFF7FEFDF5E76FF03604F2E700BF40
:102230008034002038B5092105461648FFF738FEDE
:10224000024608B1002038BD08211248FFF730FED1
:10225000D0B90121002001F089FB04460028F1D00B
:102260004FF400610B48FFF7CBFD204601F0A0FBC7
:10227000002D15BF3022122260214FF40061002092
:10228000BDE83840FFF792BF1046FFF78DFE0028EB
:10229000DFD038BDF03400202DE9F041C14DD5F834
:1022A000D430996811F0010186B024D104AA40F617
:1022B0000340FFF73BFE0446002840F0C881049B22
:1022C0009B681B78A3B9B84A13602B46BFF35B8F9A
:1022D00053F8702FBFF35B8F02F00D02BFF35B8FDB
:1022E00053E8001F43E800200028F9D1BFF35B8FBB
:1022F00004980EF06BFB04AA002141F20300FFF7E3
:1023000015FE0446002840F0A281049BA748996866
:1023100008220131FFF772FC04980EF057FB2146AA
:1023200004AA41F20100FFF701FE0446002840F034
:102330008E81049883685A78AA73D9789A7842EA89
:1023400001222A821A79EA73197ADA7942EA012299
:102350006A825A799B7942EA0323AB820EF036FBFC
:1023600003219348FFF7A4FD014698B904AA41F25E
:102370000900FFF7DBFD0446002840F06881049B5C
:102380008C48996806220131FFF738FC04982C70BC
:102390000EF01CFB04AA002141F20200FFF7C6FD6B
:1023A0000446002840F05381049B834899684022EA
:1023B0000131FFF723FC04980EF008FBAB7E5A06B0
:1023C00040F1B081214604AA42F20300FFF7AEFDBE
:1023D0000446002840F03B81049B78489968082215
:1023E0000131FFF70BFC04980EF0F0FA214604AA25
:1023F00042F20200FFF79AFD0446002840F02781D0
:10240000049B9B68B3F80120A5F888203AB1DA78DC
:102410006B48022A28BF022211460FF065FB049880
:102420000EF0D4FAAC7E14F0200400F0F58095F89C
:102430003A301B0714D504AA002142F21C00FFF712
:1024400075FD0446002840F002810498836853F823
:10245000012F5B68C5F88430C5F880200EF0B6FA0D
:1024600095F878309F0600F1F680082142F20100CD
:10247000FFF72CFD0446002800F0D5800821084411
:102480000EF0D6FA95F878108E074CBF2F220F2247
:10249000890695F8791048BF42F0400211F0090F03
:1024A00095F8401001F0060118BF42F400620629B9
:1024B00008BF42F4C0720270C2F3072242700022C9
:1024C0008270C270027142718271C271214642F201
:1024D0000100FFF72BFD0446002840F0B880AB7EDA
:1024E0009A0621D4B5F88810F1B904AA41F2050082
:1024F000FFF71CFD0446002840F0A980B5F888309D
:102500007BB9049B2E489B6899785A7842EA01224D
:10251000A5F888209A88022A28BF022211460FF0C7
:10252000E3FA04980EF052FA082140F60140FFF752
:10253000CDFC0446002876D0082108440EF078FA35
:102540001023037088230022437002262023827008
:10255000C670027142718271C371214640F601401A
:10256000FFF7E4FC0446002871D1014604AA4FF6A7
:102570000140FFF7DBFC0446002838D104980EF038
:1025800025FA214604AA4FF60240FFF7CFFC044685
:1025900068BB049B0B48996832460131FFF72EFB5C
:1025A000049811E08034002074000020963400204C
:1025B000F0340020813400209E340020F8340020C4
:1025C0000C350020DF3400200EF000FA04AA21466A
:1025D0004FF60340FFF7AAFC48B9049B534899689B
:1025E00001221144FFF70AFB04980EF0EFF90023D3
:1025F000072204A94E480493CDF81330FFF7E9FAF7
:10260000002853D195F86030DB076CD44848FFF7B9
:1026100079FD0446D8B97CE0022140F66D40FFF711
:1026200055FC064610B96FF0360410E00221083060
:102630000EF0FEF90123447003702246314640F645
:102640006D40FFF773FC044600283FF4F0AE2046CF
:1026500006B0BDE8F08104AA002142F22F00FFF786
:1026600065FC04460028F2D104988368B3F8018021
:10267000B3F803700EF0AAF9042142F22400FFF728
:1026800025FC06460028CED0042108300EF0D0F9F3
:102690002246A0F800804780314642F22400FFF72E
:1026A00045FC044600283FF4E0AED0E7214B186813
:1026B0009A8802909B79ADF80C2002A907221C4849
:1026C0008DF80E30FFF785FA00289BD001F09EFBB5
:1026D00004460028BBD102211748FFF791FB204692
:1026E000FFF7A8FDB3E701AA00214FF60940FFF765
:1026F0001DFC00288AD1019881684B787BB10123A9
:10270000062202310D482B70FFF778FA01980EF07F
:102710005DF9FFF705FD04460028D7D097E70EF0D6
:1027200055F973E76FF0120491E700BFDE34002023
:10273000803400208C250100F034002081340020FA
:1027400010B5FFF7A9FD034B1B6813B1BDE810409E
:10275000184710BD7000002038B50721044642F22A
:102760003200FFF7B3FB054698B1072108300EF0A1
:102770005FF923880380002402238470C3700371EF
:1027800044718471294642F23200FFF7EDFC204685
:1027900038BD6FF0360038BDF7B5074601AA0021F5
:1027A00042F22F00FFF7C2FBD8B901988368B3F853
:1027B0000160B3F803500EF009F9062142F222003D
:1027C000FFF784FB044670B1062108300EF030F9A3
:1027D0003B88038046808580214642F22200FFF735
:1027E000C3FC03B0F0BD6FF03600FAE7F0B5037834
:1027F00085B005467BB10221002001F0B7F8044600
:1028000038B12B780372002100F0BAFF204601F0A6
:10281000CFF805B0F0BD041DB0F80160214602A854
:10282000FFF7EBFA9DF80830023BDBB2012B7DD8B5
:10283000062205F111010DF101008DF80830FFF7B6
:10284000DDF901238DF80030022102A801F08EF895
:10285000EB78012B044609D16FF040014448FFF7A3
:10286000E0FA2CB902A800F057FF0446002CD0D0A3
:10287000204602A920F8446BFFF7BFFA2A7EEB7DC1
:1028800043EA0223A4F85A30AA7E6B7E43EA02236D
:10289000A4F86030EB7E2A7F43EA0223A4F862307A
:1028A000EE78E670012E1AD1324F694604F14B00E2
:1028B000FFF7A3FA394604F15200FFF79EFA072109
:1028C00007F17000FFF7F4FA48B1D7E9202300229E
:1028D00003F04003134302D03046FFF7C9FB032146
:1028E000204600F04DFF637A032B18D1EB7823B11B
:1028F000204B93F8783019071DD5022142F21600BB
:10290000FFF7E4FA0546B0B1022108300EF090F866
:1029100023880380294642F21600FFF725FC204653
:1029200001F046F80020FFF785FC72E72146684673
:10293000FFF763FA88E70F4D95F87920D20708D59D
:102940002046FFF709FF20B98021201DFFF758FA24
:10295000E5E795F878309B0606D52046FFF71CFF83
:1029600010B94FF48071F0E72046FFF76BFAD6E715
:10297000F03400208034002070B506460D4642F247
:1029800021000321FFF7A2FA044660B103210830B9
:102990000EF04EF885700680214642F22100BDE817
:1029A0007040FFF7E1BB6FF0360070BD2DE9F84FC6
:1029B000DFF8E080354C98F80D3035486FF3071399
:1029C00088F80D3000F060FE471C4FF0FF323946AA
:1029D00030480FF0D3FCB8B92E4DDFF8BC9004F1AD
:1029E000C40B17B90FF04AF8E5E76B7B1B09042B02
:1029F00039D195F80CA0BAF1000F37D1514658469D
:102A00000DF0BAFF064628B9404080F311884FF018
:102A1000040002DF4FF0FF3148460FF096F8D4F87B
:102A2000C00018B10DF0D2FFC4F8C0A030460DF0C0
:102A3000FBFFC4F8C0003046FFF78EFB98B1484654
:102A40000FF05BF830460DF003FF00211F20FFF769
:102A500007FAD4F8C0000DF0B9FF00233046C4F8DF
:102A6000C0300DF0B3FF1435013FBAE7BAF1010FE2
:102A700004D12869183800F047FDF4E7BAF1020FD5
:102A8000F1D12869283801F05BF9ECE780340020A7
:102A90006C35002058350020283500202DE9F04FF6
:102AA000037D012B8FB004462AD0032B40F08E8289
:102AB00083681E885D88C6F30B03C382FF234375BA
:102AC000042108300DF0E2FFA389AB4203D0204679
:102AD0000DF07CFF10E0E08A00F0FCFE05460028C7
:102AE000F5D001F087F9320B60752146284600F0D9
:102AF000B3FC284600F05CFF00200FB0BDE8F08F6B
:102B000086683278132A00F26682934013F40C2F01
:102B100000F06182404080F311884FF0040002DF32
:102B2000A7683E78002ED2D1B7F8010000F0D2FE9F
:102B30000546E8B1FB780372B849B9480FF08EF941
:102B40003146284600F01CFE2E80AE780EB1284695
:102B500075E03146281DFFF7ABF930B12846012159
:102B600000F00EFE3046FFF765FB284600F020FF20
:102B70000721AC48FFF79CF90028A8D00621A948F6
:102B8000FFF796F90028A2D10120FFF771FA9EE71E
:102B9000A1680B788DF81830B1F80130ADF8193014
:102BA000CB788DF81B30B1F80B30ADF82F30B1F881
:102BB0000D30ADF83130B1F80F30ADF833304B7C1B
:102BC0008DF83530043107A8FFF717F900250622E4
:102BD00002A90DF123000295ADF80C50FFF70EF895
:102BE000062204A90DF129000495ADF81450FFF751
:102BF00005F806A8FFF7FAFD69E7A068FAE7A568F7
:102C0000B5F8010000F066FE064600283FF45FAF0D
:102C10002B789BB92A79EB7843EA0223A0F85A3043
:102C2000AA796B7943EA0223A0F86030EB792A7A1B
:102C300043EA0223A0F8623000F0D2FB304600F0F5
:102C4000B7FE44E7A668B6F8010000F043FE05466B
:102C500000283FF43CAF337823B90822F11C6430DC
:102C6000FEF7CCFF704E96F87920D2070CD595F878
:102C70006530DB0708D52846FFF76EFD20B98021B7
:102C8000281DFFF7BDF862E796F878309F066ED5ED
:102C900095F864309E066AD52846FFF77DFD00282A
:102CA00065D14FF48071EBE7A368D9789A781F88D3
:102CB00042EA0122ADF8182059791A7942EA012234
:102CC000ADF81A209A79D97942EA0122ADF81C2090
:102CD0001A7A5B7ABDB242EA03232846ADF81E3069
:102CE00000F0F8FD804620B902212846FFF744FE97
:102CF000EDE606A900F088FB28B91E212846FFF75B
:102D00003BFE40469BE70E2142F22000FFF7DEF833
:102D100006460028F5D00E2108300DF089FE0E225F
:102D200005460021FEF796FFBDF818306B80BDF810
:102D30001A30AB80BDF81C30EB80BDF81E302F8000
:102D40002B81314642F22000FFF70EFAD9E7A36843
:102D5000188800F0BFFD054600283FF4B8AE6FF4B8
:102D600080710430FFF75DF8C0057FF5F0AE2846AE
:102D7000FFF768F8EBE6A368B3F8010000F0AAFDDE
:102D8000054600283FF4A3AE061D6FF080013046D3
:102D9000FFF747F801067FF5DAAE234B93F878305A
:102DA0009A06E4D595F864309B06E0D52846FFF7EF
:102DB000F3FC0028DBD14FF48071304661E7A66850
:102DC00018486FF02001FFF72CF8337843B9711CD5
:102DD00040221648FEF712FF10211248FFF710F8A4
:102DE000134B1D68771C002D3FF471AE32782B68B1
:102DF000002A0CBF3846002098476D68F3E70D4D58
:102E0000A0682A68002A3FF462AE037823B9013033
:102E1000904700232B605AE60020F9E7672B01005A
:102E2000F91D0000F0340020803400202C00002028
:102E30006C0000202800002028460DF02FFEDFF84F
:102E400008920090009B002B3FF441AEA668092138
:102E500028460DF01BFE337AB046334406A893F89B
:102E600009B018F8013F023B012B414600F299805E
:102E7000FEF7C3FF9DF81830023B8DF818306F4BFA
:102E80001B68BBB128460DF019FEA3890193337A64
:102E9000A3816A4B32781B6882461F464FFA8BF13A
:102EA0002B4606A8B847236913FA8AF3A360BDF836
:102EB0000430A381092148463278FEF7F9FF8246A3
:102EC000002864D1012A62D8012106A800F04EFD35
:102ED000074600285BD008214846FEF7E9FF002896
:102EE00062D102214846FEF7E3FF10B15448FFF7D4
:102EF00091F8544907F14B0007F1520AFEF77DFFA4
:102F000041465046FEF779FF192142F20D00FEF7C7
:102F1000DDFF834600284CD0192108300DF088FDD4
:102F2000192280460021FEF795FE0022602388F8D2
:102F3000003088F8012088F8023088F803205146D4
:102F400008F105000192FEF758FF97F84B3088F81A
:102F50000C30B7F85C30A8F80D30B7F85E30A8F840
:102F60000F30B7F86030A8F81130B7F86230A8F821
:102F70001330019A594642F20D00FEF7D7FFC0B94F
:102F80003846022100F0FCFB384600F011FD317A92
:102F9000284601310DF07AFD009B013BDBB2009326
:102FA00050E7FEF72AFF6AE75046FEF7FDFF0028CC
:102FB00097D01F233B720021384600F0E1FB3846D2
:102FC00000F0F6FC0020FFF735F9E0E70DF0FEFC1D
:102FD0006FF0150091E504F10805022128460DF077
:102FE00055FD3378052B3FF49BAD3E2B7FF46FAD41
:102FF000A668012128460DF049FD3378013B0B2BD3
:103000003FF665AD01A252F823F000BF912B0000FE
:10301000392E0000FF2B0000452C0000CF2A0000B5
:10302000A92C00004F2D0000BF2D0000FF2D000037
:10303000FB2B0000CF2A0000772D00007400002039
:103040008134002080340020F03400202DE9F84342
:10305000037D8668012B044605D0404080F311882B
:103060004FF0040002DF8289012AF6D93278132A50
:10307000F3D8934013F40C2FEFD000F10805022190
:1030800028460DF003FD33780F2B18D0132B23D0D7
:103090000E2B61D1A368032128461E780DF0F6FCA3
:1030A000A36821461878FEF7DBFE16B12C480EF017
:1030B00024FD20460DF08AFC0020BDE8F883A668B8
:1030C0000421777828460DF0E1FC21463078FEF7A0
:1030D000C7FE002FEDD0E9E7D4F80880002798F864
:1030E00000309F42E5DA08EB8703B3F80100B3F83C
:1030F00003604FF02003EFF3118983F3118800F090
:10310000E9FB054618B989F311880137E7E789F328
:10311000118800F1180996B14FF02003EFF31180E8
:1031200083F31188296929B16A690B682B6191427F
:1031300008BF6B6180F31188013EB6B219B9284609
:1031400000F036FCE1E748460EF012FA284600F09F
:1031500043F90EF0D2FCDEE720460DF037FC7CE7A9
:1031600028350020084AD2F8D4303BB9C16841B1B3
:10317000016931B1C2F8D400184670476FF04400BD
:1031800070476FF0150070478034002070B5204CF8
:10319000D4F8D43086B00646002B33D0012104F198
:1031A0007000FEF72DFE10F001002ED1194B1A49C8
:1031B0001E606FF008030590049003930290019045
:1031C0000090164B16484FF420720EF093FED4F880
:1031D000D430DB689847054688B926B906B0BDE803
:1031E0007040FFF759B8012104F16C00FEF708FEAA
:1031F000C30704D404F164010A480EF0B9F9284663
:1032000006B070BD6FF01205F9E76FF04405F6E700
:103210008034002070000020B0170020AD2900008D
:1032200078000020301700200020704770B5037828
:10323000012B05460E4610D84378012B0DD8418846
:103240000B1F9BB243F6FC70834206D8AA88131F5B
:103250009BB2834201D891422BD26FF015040EE04D
:1032600008211948FEF724FE58B11046FEF79CFECF
:10327000044630B16FF400711348FEF7D2FD2046CA
:1032800070BD6B787BB14FF400610F48FEF7B8FD5D
:10329000AA8869882878FEF789FF04460028E9D1C2
:1032A0000A4B1E60EBE76FF400610748FEF7B9FDBB
:1032B000EEE74FF400710448FEF7A2FD10F400722F
:1032C000CED06FF04404DAE7F03400207400002020
:1032D00008B56FF400710748FEF7A3FD830506D516
:1032E000054B00201860BDE80840FEF7A3BF6FF053
:1032F000440008BDF03400207400002038B50546B5
:1033000005480DF033FB044620B1002108300DF0D4
:103310004CFB2575204638BDAC39002010B5014660
:103320004FF02003EFF3118083F311880B4A002341
:10333000D2F8C040C2F8C03080F3118824B901200F
:10334000BDE81040FFF7DABF012204F10800227542
:10335000A38119460DF029FB204610BD80340020C2
:1033600038B5064B1C68054604B938BD236813B14F
:10337000297A284698472469F6E700BFE80000202C
:10338000BFF35B8F0068BFF35B8F7047438910B555
:1033900004462BB1C0680DF019FB0023E360638184
:1033A00010BDBFF35B8F50E8003F5A1E40E800217C
:1033B0000029F8D1BFF35B8F18467047BFF35B8FCE
:1033C00050E8003F5A1C40E800210029F8D1BFF323
:1033D0005B8F184670470000004870470C3500208E
:1033E000084B70B51C68054604B970BDE6683EB16F
:1033F000B5F86230B5F86020B5F85A102846B047E5
:103400002469F1E7E8000020F8B5074608460E46B3
:10341000FEF758FE054610B900252846F8BD094BB1
:103420001C68002CF9D0A3680BB92469F9E7314670
:10343000384698470028EFD03046FEF743FE002874
:10344000F3D1E9E7E8000020024B1A680261186036
:10345000704700BFE8000020012A70B505460C4601
:103460000FD0022A10D18B681E8843890BB1FFF759
:103470008DFFA389F31A04339BB26B8133B3EC60E5
:1034800070BD43893BB92846FFF780FF2046BDE861
:1034900070400DF09BBA8E89B342F4D3C0680830F7
:1034A0000DF010FB8642EED8E868A289A1680830CA
:1034B0000DF0C4FA6B89A2899B1A6B8120460DF02E
:1034C00085FA6B8973B9EC686B81EB60A368A2899C
:1034D0001B8804339342D9D121462846BDE8704069
:1034E00000F045BE70BD10B5447A032C05D00846E7
:1034F0000DF06CFA6FF0380010BD4A6128300DF005
:1035000058FA002010BD00002DE9F0410D4D06468F
:1035100000F118074FF00008002138460EF04CF873
:10352000044608B9BDE8F08163680BB1304698479E
:103530002B6823606B68C4F804802C60002BEBD1EF
:103540006C60E7E7940100202DE9F04105460F4645
:103550003E484FF0FF31984614460EF0F6FA3C4BC9
:1035600003F14000FFF70CFF30B15A7A033A012A09
:1035700002D81846FFF7C8FF6B7A032B49D1042104
:1035800007F108000DF07AFA2A88324E42EA043236
:103590000280BB89346871687A69043B43800223E6
:1035A0003B75236833608C4208BF736062604FF0E4
:1035B0002003EFF3118283F31188002323606B69EA
:1035C000002B34D16C612C6182F311883846FEF7F0
:1035D000C3FD002837D04FF02003EFF3118183F3B0
:1035E00011882B69002253B19C4229D123680ABB60
:1035F0006A692B61944200D16B610023236081F3DF
:10360000118800236360336823607368346003B9F2
:1036100074600E480EF071FAB8F1000F04D038460D
:103620000DF0D4F94FF000084046BDE8F0811C6071
:103630006C61C9E713606B699C4208BF6A61DCE793
:103640001A461B68CFE74FF00108EDE70C35002064
:10365000FC0000209401002038B5044600F1280544
:10366000002128460DF088F958B92046FFF74CFF95
:103670002046FFF78BFE04F14000BDE83840FFF71D
:1036800090BE0DF0A3F9EBE738B51F4B00220121E6
:103690009A6005460EF05FFE1C4B03F14000FFF7F9
:1036A0006FFE194608B9012038BD5A7A9AB9BFF39E
:1036B0005B8F1A1D52E8000F20F0400442E8004ED4
:1036C000BEF1000FF6D1BFF35B8F420603D518465B
:1036D000FFF7C2FFE7E74C7A032CE4D105F11400B1
:1036E0000B4B002204210EF036FE012385F820301A
:1036F00005F12800074B002204210EF02CFE0223C6
:1037000085F83430204638BDA8350020FC00002064
:103710001401002024010020F8B5174C04F14006E4
:1037200007463046FFF72CFE054608B10020F8BDDD
:10373000014698222046FEF78DFABFF35B8F0123E6
:1037400056E8002F46E800310029F9D1BFF35B8F1E
:103750000722394604F14400FEF750FA1823A4F872
:103760005C30282304F17000A570A4F85E30034992
:103770000EF0AAFC2046F8BDFC000020693C0000C9
:10378000F8B5457A8D42044600F0998041729DB1AA
:10379000022D15D0637A022B00F08680032B16D001
:1037A000002B40F08C80A378022B2AD104F140003A
:1037B000BDE8F840FFF7F5BD4030FFF7FFFDE9E752
:1037C0008378002BE6D170300EF08EFCE2E7A37810
:1037D000022B74D004F128000DF0C2FE04F1180091
:1037E0000DF0BEFE002136480EF058FE00232046A4
:1037F000A363E36300F0B2FB2046BDE8F840FFF7A7
:10380000AFBDEB1E012B43D8204600F0E1FB2D4B52
:103810001D68EDB92C4E2D4F4FF02003EFF31181B1
:1038200083F3118823692BB160691A68226183428E
:1038300008BF626181F311888BB132681A607268C7
:103840005D60336002B9736038460EF056F9E3E705
:103850006B6813B1217A204698472D69D9E7A37880
:103860001BB904F170000EF03FFCBFF35B8F043412
:1038700054E8003F43F0400344E80032002AF7D107
:10388000BFF35B8F00210E48BDE8F8400EF006BE86
:10389000022D03D12046FFF763FD87E7012D0ED1EE
:1038A000237A002B82D0F5E7A37843B904F17001A5
:1038B00040F6B8320648BDE8F8400EF079BCF8BDD5
:1038C000A8350020E8000020940100200C350020DD
:1038D0003017002010B50B4C024604F14000FFF7F2
:1038E0004FFD68B1637A033B012B08D823889342CC
:1038F00005D104F14000FFF761FD204610BD002016
:1039000010BD00BFFC00002038B50D46044600F194
:10391000440107222846FEF75CF960B1E3780722EC
:1039200033B904F152012846BDE83840FEF751B9D9
:1039300004F14B01F7E738BD10B50B4C014604F11B
:103940004000FFF71DFD08B9002010BDA378002B33
:10395000FAD12046FFF7D8FF0028F5D104F1400046
:10396000FFF72CFD204610BDFC00002038B50E4CA2
:10397000034604F140000D46FFF702FD08B90020A0
:1039800038BDA278002AFAD13BB9637AAB42F6D1AE
:103990000648FFF713FD044838BD19462046FFF7D7
:1039A000B3FF0028EBD1F0E7FC0000203C01002031
:1039B0004030FFF7F6BC44307047000070B5064653
:1039C00008460D46FEF77EFB08B900241DE01E48A0
:1039D000FFF7D6FC8305F8D43046FFF7ADFF044669
:1039E000A8B1437A012B07D001D3032B0DD904F1E1
:1039F0004000FFF7D6FCE8E76B88A0F85E30AB88A4
:103A0000A0F86030EB88A0F86230204670BD3046E8
:103A1000FFF782FE04460028F7D0072231465230D5
:103A2000FEF7ECF86B88A4F85E30AB88A4F8603041
:103A3000EB88A4F8623020460121FFF7A1FE0120A7
:103A4000FEF7F8FBE1E700BFF034002070B5064652
:103A50000D4600293DD13046FFF76EFF044628B9D8
:103A60003046FFF759FE0446002853D0231D04F1C9
:103A70004006002D35D06A88A4F85E20AA88A4F8F4
:103A80006020EA88A4F86220BFF35B8F53E8002F20
:103A900042F0010143E800100028F7D1BFF35B8F2B
:103AA000D10702D43046FFF789FC637A63B91B481B
:103AB000FFF766FC830707D51DB101212046FFF7FC
:103AC0005FFE0020FEF7B6FB3046FFF76AFC0020E1
:103AD00070BD0846FEF7F6FA0028BCD16FF015005D
:103AE00070BDBFF35B8F53E8002F22F0010143E864
:103AF00000100028F7D1BFF35B8FD207D5D5304631
:103B0000FFF74FFC637A012BCFD129462046FFF700
:103B100037FECAE76FF00B0070BD00BFF034002025
:103B200070B50E468178044611B94430FFF78EFF18
:103B3000637A013B032B03D8DFE803F006101B0E6A
:103B40006FF03805284670BD204626720021FFF729
:103B500017FE0020FEF76EFB0025F3E704F170006E
:103B60000EF0C2FA002142F20E00BDE87040FEF7EE
:103B7000FBBA032140F20640FEF7A8F9054698B1CA
:103B8000032108300CF054FF2388038086702946F7
:103B900040F20640FEF7E8FA05460028D2D104219B
:103BA0002046FFF7EDFDCDE76FF03605CAE7F8B523
:103BB00007460D4642F213000E21FEF787F906462E
:103BC000C8B10E2108300CF033FF002104460E224C
:103BD000FEF740F83B8823802B8863806B88A380A6
:103BE000AB88E380EB882381314642F21300BDE8C5
:103BF000F840FEF7B9BA6FF03600F8BD38B50A885C
:103C0000B0F85A309A4204460D460CD84A889A4277
:103C100009D3B0F860208B889A4204D1B0F86220B2
:103C2000CB889A421AD004F170000EF05DFA0D4B69
:103C300093F878309A0703D594F864309B0701D441
:103C4000E3782BB929462046BDE83840FFF7AFBFDF
:103C500029462046BDE8384000F0A6BA6FF044007F
:103C600038BD00BF80340020034607B513F8672C29
:103C7000022AA0F1700005D11321FFF751FF03B014
:103C80005DF804FB33F8142CADF8002033F8122C47
:103C9000ADF80220694633F8102C33F80E3CADF82D
:103CA0000420ADF80630FFF7A9FFE8E738B5084B68
:103CB0000D46002808BF18464FF0FF310CF056FEA5
:103CC000291D044608300CF070FE204638BD00BFA8
:103CD0004C3900202DE9F04106460C4616480021DB
:103CE000FFF7E4FF3378032B05464FF0000605D0BD
:103CF0000CF06CFE35462846BDE8F081466100F1C7
:103D000008070E4E3846B6F888800CF0DBFE80457A
:103D10000CD2B6F8886054F8081F324638460CF0CA
:103D20008DFE314620460CF0B1FEE4E738460CF03B
:103D3000C9FE86B2EFE700BF6C3900208034002056
:103D4000F8B5437A054693B9BFF35B8F031D53E87B
:103D5000002F22F0400143E80014002CF7D1BFF3FC
:103D60005B8F530603D5BDE8F840FFF775BC002113
:103D700005F128000CF000FE044628B9404080F30D
:103D800011884FF0040002DF194E8189B6F88820AF
:103D9000914207D800231A4621462846FFF7D4FB54
:103DA00040B1F8BD05F1090701463846FFF792FF1B
:103DB000014620B92046BDE8F8400CF007BE0123BB
:103DC00000222846FFF7C0FB0028F3D0A289B6F8EE
:103DD00088309A4202D800230122DDE72146384686
:103DE000FFF778FF01460028E4D001231A46E8E7F0
:103DF00080340020034BC01A034BC0105843C0B29C
:103E0000704700BFFC0000201BCA6B28124B134AEE
:103E1000196810B51160596801B95A605968926003
:103E20000F4A1A6001B95A6001F0C6F901F0F2FFB9
:103E3000044670B900F0E0F90A48FFF7A1FA40B172
:103E40000948FFF79DFAC30703D501210748FFF78B
:103E500097FC204610BD00BF94010020EC0000201C
:103E6000F40000203C01002000010020FC000020A4
:103E700070470000044B186818B9044A5A600B6078
:103E800070476FF00B0070479C010020C435002084
:103E9000F8B507460E46002004211546FFF706FF39
:103EA0000421044608300CF0C3FD077046704580BD
:103EB0002046F8BD7047000000238360054B596819
:103EC00000F1080211B95A601A6070470A605A601E
:103ED000704700BF34020020836B10B513B1083B5C
:103EE000002203B910BD8B4203F108040FD1996879
:103EF0003AB9C26B8163944200D1C16300229A60D7
:103F000010BD1160C16B8C4208BFC263F6E7224648
:103F1000002CE7D09B68002BE4D0083BE1E7036866
:103F200010B504462BB143685B6803B19847002382
:103F30002360E3681BB12046BDE81040184710BD60
:103F400010B5A0F11004214650F8100CFFF7C4FF83
:103F50002046BDE81040FFF7E2BF00001A4B2DE9F4
:103F6000F7431C6806462CB10027DFF86080083C48
:103F7000B94614B903B0BDE8F083636801A93046BF
:103F80009847002818DB019D23882B87A5F8583017
:103F9000414605F110000EF097F8AF60F26B05F1A5
:103FA000080372B9F363B36301982E604368C5F8E0
:103FB0000C901B6803B19847A468002CDAD0083C29
:103FC000D7E71360F363EFE734020020413F0000BE
:103FD000836B10B5A3B1B3F108000AD110BD083C42
:103FE000FFF79DFF64B1A36803B1083B20461C4660
:103FF000F6E71C68002CF2D1BDE81040FFF78FBF38
:1040000010BD0431FFF752BEF8B5144605460F4601
:1040100002F1080004211E460CF030FDA189478002
:1040200004390180324621462846BDE8F840FFF7B2
:104030005ABAF7B58B89032B06460D4612D90846A6
:10404000042150F8084F67880CF020FDAA89BA4275
:1040500008D1617831B12378122B05D0132B01D010
:10406000012B54D103B0F0BD072AFBD93468E678A0
:104070008EB102220120FFF70BFF02210546083016
:104080000CF0D6FC0023037043702A46052120461D
:10409000FFF7BAFFE6E7AB6858781A7842EA0022E1
:1040A000ADF80020D8789A7842EA0022ADF80220D4
:1040B00058791A7942EA0022ADF804209A79DB791E
:1040C000132042EA03230222ADF80630FFF7E0FE98
:1040D000694607462046FFF797F90221054607F192
:1040E00008000CF0A5FC75B10670467000233A4636
:1040F00005212046FFF788FF002DB3D069462046F2
:10410000FFF755FDAEE7012303704570EEE702228D
:1041100001203568FFF7BCFE0221044608300CF090
:1041200087FC002303704370224605212846AFE731
:10413000806B00B1083800B97047B0F858308B4236
:10414000FAD083680020002BF6D0A3F10800F2E734
:10415000806B00B1083800B97047038F8B42FBD0E9
:1041600083680020002BF7D0A3F10800F3E770B5B7
:104170008B89032B05460C4604D82046BDE87040C9
:104180000CF024BC0846042150F8083F5E880CF06F
:104190007DFC31462846FFF7DBFF0028EDD0436861
:1041A00021461B699847E8E770B5124B1A7801322F
:1041B00012F0FF0208BF01221A700C46054619785A
:1041C00008221220FFF764FE0821064608440CF07E
:1041D0002FFC2388038063884380A3888380E3883F
:1041E000C3803246284600230521FFF70DFF00203B
:1041F00070BD00BF300200200148FFF75DBE00BF68
:10420000B83500200620704710B50A4A002312F87E
:10421000334084424FEAC30102D10A44907810BD72
:1042200001331B2BF3D110F0400F14BF00200620E8
:1042300010BD00BFC02B010070B50B4D2C680E46A1
:104240007CB92146E4222846FDF704FD074B6B604C
:10425000022205F1CC0011460DF046FC35602046E7
:1042600070BD6FF00B0070BD3C020020E4350020F3
:1042700010B50446006908B10CF0A8FBA3680BB1A7
:1042800020469847204614220021BDE81040FDF743
:10429000E1BC38B5056801F108000C460CF006FCDD
:1042A000A389A2680146284601F0E2FC002038BD3F
:1042B0002DE9FF410D6806460C464FF000084FF40B
:1042C000205302A900682F688DF80880ADF80A30E5
:1042D000FDF768FD98B142F6010303A930688DF837
:1042E0000C80ADF80E30FDF75DFD40B1236923B1C0
:1042F000328A5988914200D25A80012012E06168C6
:104300003068FDF74FFD10B100232361F5E7E36846
:10431000A0681A784AB1B5F85A3081895B1A93427D
:1043200003DA002004B0BDE8F081042108300CF06D
:104330007FFB338AA1682061038043808A89B5F8B6
:104340005A308968D6F804809B1A00250A440095E3
:1043500031469BB23846C047011EE2DBE068027876
:104360000B1D2AB90370A06808300CF061FBC4E78C
:104370009A42F8D0A2689389043B9381D1E78B6875
:1043800070B505460C460E6863B9486801210830CF
:104390000CF04EFB2B68A0601B78002B0CBF012398
:1043A00002230370A3681B78012B03D0022B1AD0C1
:1043B000002070BD2B681B78002BF9D160680421A8
:1043C00008300CF035FBE0602B8A03802B685B889B
:1043D00043806368B6F85A009B89C01A042894BFCA
:1043E0000020012070BD2B681B78022BE0D1606893
:1043F000122108300CF01CFBE06029682B8A20F8A1
:10440000023B10220131FDF7F9FB6368B6F85A0050
:104410009B89C01A1228E2E72DE9F0410E6888B0A6
:1044200005460C46002742F6010302A90068D6F8AB
:1044300000808DF80870ADF80A30FDF7B3FC28B99C
:104440000023A360012008B0BDE8F0814FF42053A1
:1044500003A928688DF80C70ADF80E30FDF7A2FCAA
:1044600040B1A368002BEDD02A8A59889142E9D245
:104470005A80E7E76268B6F85A3092899B1A032B94
:10448000E1D9102300900DEB03026E6829464046E7
:10449000B047021ED4DB237C9A42D1D104A9E06844
:1044A000FDF797FB0028CBD16074606804210830C9
:1044B0000CF0BEFA2B8AA06003804380C2E70000A4
:1044C00010B517230446A0F85A3043870649A43094
:1044D0000DF0FAFD0023C4F89C30C4F8A030206829
:1044E000BDE8104001F0F8BB6349000011F0010F76
:1044F000837C04D013F0150F12D0426882B18A0772
:1045000004D513F02A0F0DD082685AB1194011F06A
:10451000300F09D111F00C0F14BF0F20002070478D
:104520000220704703207047052070472DE9F743AC
:104530000F6806460C4600684968D7F80090FDF7FA
:1045400031FC804600284DD115213046FFF7CEFFC3
:104550000546207548B1E3681D7815B184F81480CC
:104560004546284603B0BDE8F083A0680221083024
:104570000CF05EFA338AA168206103808A89B7F85B
:104580005A308968D6F8048000959B1A9BB20A4479
:1045900048463146C047011E08DA01F1FF03FE2BF1
:1045A0009ABF4942C9B20E212175DAE7E068027864
:1045B0008B1C82B90370A06808300CF039FAA3682C
:1045C000B7F85A509B89ED1AE3681B789D42D4BF17
:1045D00000250125C5E79A42EDD0A2689389023BE8
:1045E0009381BEE70125BCE710B58A89022A0446FB
:1045F00003D0102A0AD0002010BD0023037001F15F
:1046000008000CF053FA6080012010BD022300F86E
:10461000013B8968FDF7F2FAF6E7000010B50421C6
:10462000FFF786FD0446CC300DF067FAD4F89830D9
:1046300043B104F1A40147F230520348BDE81040F1
:104640000DF0B6BD10BD00BF3017002003685B7AC7
:10465000032B0AD1BFF35B8FD0F89400BFF35B8FBD
:104660006FEAA00000F001007047012070470620AB
:10467000704708B5437A032B01D0002008BD042100
:10468000FFF766FD0028F8D0BFF35B8FD0F89430B9
:10469000BFF35B8F5B07F0D408BD08B50421FFF7BB
:1046A00047FDBDE80840CC300DF027BA08B504211D
:1046B000FFF73EFDBFF35B8F00F1940353E8002F3B
:1046C00022F0020243E800210029F7D1BFF35B8FFB
:1046D000CC30BDE808400DF010BA08B50421FFF752
:1046E00027FDBFF35B8F00F1940353E8002F22F006
:1046F000010243E800210029F7D1BFF35B8FCC30E2
:10470000BDE808400DF0F9B92DE9F3410C46D1F8A8
:1047100000802A210646FFF7E9FE05462075E0B92C
:10472000628A01900092237CB768E2683146404675
:10473000B847002802DB237C98420BD000F1FF032E
:10474000FE2B9ABF4042C0B20E202075284602B010
:10475000BDE8F08125750125F8E70025F6E70000A2
:1047600070B5054600F1CC06C5F898100C463046E9
:104770004FF0FF310DF0E9F92846FFF767FF28B940
:1047800030460DF0BAF96FF0380070BD266906F1B9
:1047900008000CF093F9B389A081E38120692D68AA
:1047A0000CF042F923699B6806461878FFF72CFD48
:1047B0000138C0B2042896BF054B064B53F8203091
:1047C000324628460421FFF71FFC002070BD00BFC1
:1047D000AC2B01009B4600002DE9F7430446A430B2
:1047E0001E460F4690460DF07FFCD4F89830DBB1A2
:1047F000186928B10CF0EAF8D4F8983000221A6150
:10480000D4F898302068D3F8049000255D603A46CB
:10481000009331464346C847D4F8980043680BB923
:10482000FFF726FDC4F89850D4F89C1059B1D4F87D
:10483000A0200B68C4F89C30914208BFC4F8A03097
:104840002046FFF78DFF002003B0BDE8F0838A8982
:1048500089680023FFF7C0BFFFF7F9BFFFF7F7BF75
:10486000FFF7F5BFFFF7F3BFFFF7F1BFFFF7EFBFAC
:10487000FFF7EDBFFFF7EBBFFFF7E9BF10B40A4644
:10488000034680B189680C88162C83BF17245C8787
:10489000A3F85A40002299BF0423114600239289AD
:1048A00010BCFFF799BF10BC704730B4D0F8982007
:1048B0008C686AB113692BB195891969D2899A817B
:1048C00029449960E3780022114630BCFFF784BF89
:1048D0000E23F8E7F7B500F194030546BFF35B8FAD
:1048E00053E8002F42F0040243E800210029F7D1E9
:1048F000BFF35B8F05F1CC0420460DF0FEF8204697
:104900000DF0FBF8D5F89C408CB9D5F89830002212
:10491000C5F89C20C5F8A0200BB903B0F0BD0E234C
:104920001146284603B0BDE8F040FFF755BF2668A2
:1049300067682FB1002300941A460E211846B84725
:104940002046FFF795FC002EDFD034463668EFE7AF
:1049500010B50446FFF7BEFF2068BDE8104001F027
:10496000DDB910B50446A438FFF7B4FF54F8A40C21
:1049700001F0D4F9002344F8A43C10BD2DE9F7431D
:1049800006468868D1F800900C4608300021D9F816
:1049900000800CF04DF80027E060277415213046A8
:1049A000FFF7A4FD0546207408BBA168B9F85A308A
:1049B0008A898968A08800909B1A77680A449BB20C
:1049C00031464046B847011E0BDA01F1FF03FE2BCA
:1049D0009ABF4942C9B20E212174284603B0BDE8EE
:1049E000F083A06808300CF023F80125F5E73D4678
:1049F000F3E738B50D461446FFF73BFE80B1B0F83B
:104A00005A3001349C420BD800210846FFF7F9FACE
:104A10000121044608300CF00BF80570204638BD23
:104A20000024FBE738B5046801F108000D460CF0DE
:104A30003DF8AB89AA680146204601F019F9002229
:104A40001E212046FFF7D5FF024620B1034B04216B
:104A50002046FFF7D9FA002038BD00BFAD46000060
:104A60002DE9F0418B681B88162B05461CD9D0F820
:104A70000080022203214046FFF7BBFF0746B0B18A
:104A8000022108300BF0D4FF172600240670447072
:104A9000084B40463A460421FFF7B6FA6E87A5F860
:104AA0005A602046BDE8F0810420BDE8F0810E2068
:104AB000BDE8F081DB4600002DE9F041884617464D
:104AC0000121042205461E46FFF793FF044680B1EC
:104AD000042108300BF0ACFF80F80080C670A0F80D
:104AE000017022462846044B0421BDE8F041FFF73F
:104AF0008BBABDE8F08100BFDB4600002DE9F04134
:104B00008B8904460E46002B5ED00846012150F8E2
:104B1000087F0BF0BBFF2D4A3D780023114612F8A9
:104B200033E0AE454FEAC30018D102449578012D19
:104B300024D0052D33D1BFF35B8F04F1940252E8EA
:104B4000003F43F0020E42E800ECBCF1000FF6D14A
:104B5000BFF35B8F9B0722D5BDE8F08101331B2B90
:104B6000DDD12846FFF750FB70B36DB3062300225A
:104B700029462068BDE8F041FFF79EBF04F194028A
:104B8000BFF35B8F52E8003F43F0010E42E800ECB8
:104B9000BCF1000FF6D1BFF35B8FDA0714D40B180A
:104BA000B1895A7891420DD35B68314620469847C7
:104BB000012D034608D138B1397829B10022D8E750
:104BC0000423F9E7012DFBD0BDE8F081C02B0100E3
:104BD0002DE9F0438B89062B8DB080460C4601D021
:104BE000142B68D12046042150F8083FD8F80090D3
:104BF0001D885E8802AF0BF049FF21463846FFF75B
:104C0000F3FC002859D0002D5AD00024002E56D095
:104C1000B54255D84FF42053694638468DF80040C8
:104C2000ADF80230FDF7BEF838BBD8F8009014227A
:104C3000002107A8FDF70EF8012211214846FFF7D1
:104C4000D8FE0990002838D0012108300897CDF807
:104C50001C800BF0EDFE00270A9007AB07701C4A82
:104C60000B973146284600F0D9FE0A9B1C78D4B930
:104C700009980BF0ABFE0A230CE042F6010301A9F0
:104C800038468DF80440ADF80630FDF78BF8002863
:104C9000CBD010232A4610214846FFF70DFF2046AF
:104CA0000DB0BDE8F0830B4B099A04214846FFF78D
:104CB000ABF90024F3E70424F1E70E24EFE73546CF
:104CC00001232A4610214846FFF7F6FEF1E700BF10
:104CD000B1420000DB4600002DE9F043046887B0D4
:104CE000142206460D4601A80021FCF7B3FF00225E
:104CF0000F212046FFF77DFE039068B3DFF8609038
:104D0000019605F108074FF00108AB89012B06D881
:104D1000124B039A04212046FFF776F918E0384633
:104D20000BF0C4FE01AB4A46014606468DF81480DE
:104D300000F074FE9DF81430002BE6D003980BF0C1
:104D400045FE9DF8143032460E212046FFF7B4FE92
:104D5000002007B0BDE8F0830E20FAE7DB46000034
:104D60007D4900002DE9F041074686B00C4690468B
:104D70001D46A3B306681422002101A8FCF76AFFB0
:104D8000002241463046FFF734FE039048B3BDF899
:104D90003030ADF8083001238DF81430124A0197F5
:104DA00001AB2946284600F039FE9DF814707FB10A
:104DB00003980BF00BFE3CB19DF814302A462146B7
:104DC0003046FFF779FE0024204606B0BDE8F081AA
:104DD000064B039A04213046FFF716F9F3E7012446
:104DE000F2E70E24F0E700BF7D490000DB4600003B
:104DF00007B58A681388528800920C210D22FFF7AC
:104E0000B1FF03B05DF804FB07B58B6800221B8877
:104E100000920A210B22FFF7A5FF03B05DF804FB07
:104E20002DE9F0438B89062B8DB007460E4601D045
:104E3000142B52D13046042150F8083FD7F8009087
:104E40001D885C880DF104080BF020FE31464046B9
:104E5000FFF7CAFB98B1002D42D0002C3FD0A542ED
:104E60003ED818223E6800210DEB0200FCF7F2FE4E
:104E7000012209213046FFF7BCFD089008B90E2435
:104E800027E0012108300697CDF81C800BF0D0FDFB
:104E900000270A23099021460770144A8DF82C3008
:104EA000284606AB00F0BAFD9DF82C405CB108988E
:104EB0000BF08CFD9DF82C302A4608213046FFF778
:104EC000FBFD002405E00A4B089A04213046FFF759
:104ED0009BF820460DB0BDE8F0830424F9E7254691
:104EE00001232A4608214846E9E700BF2D45000076
:104EF000DB4600002DE9F04FD0F8009080460846D0
:104F000089B050F8083F8B4606211D885F889E882F
:104F10000BF0BCFD8246002D57D00024002F53D04B
:104F2000BD4252D84FF4205302A901A8ADF8066043
:104F30008DF804408DF80840ADF80A30FCF732FFD8
:104F4000064648B10A232A4606214846FFF7B4FD23
:104F5000204609B0BDE8F08FD8F80090BBF80C40AF
:104F60001422314603A8FCF775FE32460721484655
:104F7000FFF73FFD049028B30A238DF81D30144A33
:104F80008DF81C4003AB39462846CDF80C800596B9
:104F9000CDF818A000F042FD9DF81D405CB10498CA
:104FA0000BF014FD9DF81D302A4606214846FFF7F8
:104FB00083FD0024CCE7074B049A04214846FFF701
:104FC00023F8C5E70E24C3E73D460123ECE700BF05
:104FD00019440000DB460000F0B58B6806681D88A8
:104FE00085B0074675B35C885CB3A5422AD8102209
:104FF00000216846FCF72EFE002205213046FFF70F
:10500000F8FC019010B90E2005B0F0BD21466B46AA
:105010000D4A0097284600F001FD029C4CB901980A
:105020000BF0D4FC0A232A4604213046FFF744FD46
:1050300005E0064B019A04213046FEF7E5FF00200B
:10504000E2E725460123EEE77F430000DB46000050
:105050002DE9F04186B0904605460E461822002103
:1050600068461F46FCF7F6FDB8F1000F1FD100237C
:10507000ADF812300C9B03939DF834308DF810304E
:1050800001238DF814301B4A00956B46394638468B
:105090008DF8086000F0C2FC9DF814408CB9019AAC
:1050A000B2B1154B04212846FEF7AEFF11E00022F5
:1050B00041462846FFF79DFC01900028D7D10E24D9
:1050C00007E0B8F1000F0FD001980BF07FFC26B974
:1050D0000024204606B0BDE8F0819DF814303A4621
:1050E00031462846FFF7E8FC182EF1D19DF8144010
:1050F000EFE700BF09470000DB4600002DE9F34160
:105100000C46066854F8083F0D4620460121B3F8C6
:1051100000800BF0B3FC2946304600F074FE0746D1
:10512000C8B9012120460BF0B1FC022120460BF04A
:10513000ADFCB8F1000F10D02B7B0C3BDBB2019320
:10514000AB6800933A46434639463046FFF780FF46
:1051500002B0BDE8F0810020FAE70120F8E737B59A
:10516000056801F108000C460BF0A0FC034650B1A5
:10517000227B0192A2680092002211462846FFF786
:1051800067FF03B030BD0120FBE737B5056801F1CB
:1051900008000C460BF08AFC034650B1227B0192BA
:1051A000A2680092122113222846FFF751FF03B094
:1051B00030BD0120FBE7000008B50348FEF77CFE88
:1051C000BDE8084000F014BCD8350020F8B50D4605
:1051D0000746002838D0002936D0FFF74AFA04469F
:1051E00068B100F1CC064FF0FF3130460CF0ADFC59
:1051F0002046FFF72BFA28B930460CF07EFC6FF002
:1052000038040CE0AB681B78D22B0AD1294638460B
:1052100000F0FCFD044620B130460CF06EFC204648
:10522000F8BDAB681878FEF7EFFF0138C0B204286C
:1052300096BF074B074B53F820302A4604213846C7
:10524000FEF7E2FE0024EAE76FF01504E7E700BF8F
:10525000AC2B01009B46000010B50C46D8B1D1B173
:10526000FFF707FA0346C8B1D0F8982072B10020C2
:105270002060D3F8A0202AB9C3F8A040C3F89C400E
:10528000104610BD1460C3F8A04010BD2146BDE813
:105290001040FFF765BA6FF0150010BD6FF03800D1
:1052A00010BD136839B9416803608A4200D1436078
:1052B0000023136070470B6043689A4208BF416047
:1052C000F6E7704708600020704730B400234D684F
:1052D0001A46AA4207D10A899A420DD00B81CA68A0
:1052E00030BC194610470C6804EB021401322489C3
:1052F000A34238BF2346ECE730BC704710B4019B93
:105300009C690A465969234610BC184770B5144673
:10531000064628320548FFF7C4FFE5690023214609
:105320003046AC461A46BDE8704060478C0300200A
:1053300030B4029C054681B10D4B1B68ABB11968B6
:1053400004F12802934204D12246284630BCFFF7DC
:10535000DDBF51B10B460968F4E7A38C2BB9E569B1
:105360002146AC461A4630BC604730BC704700BF8F
:105370008C0300202DE9F0478A4691461B219A1C98
:1053800080461E46FFF735FB0446D0B100F1080702
:10539000022138460BF04CFB0546314625F802AB9E
:1053A00038460BF045FB324649462846FCF726FCBA
:1053B0004046002322460421FEF726FE0020BDE8D9
:1053C000F0876FF00B00BDE8F0870000184A136803
:1053D00070B590E8120043B153683BB313E928005D
:1053E000142606FB053333F8043CA4B2142505FB50
:1053F000041409B1A14208D1002300F1080183601F
:10540000506878B95160116070BD0D8A2DB90133B3
:105410009DB20D8214312B46EBE7AB42FAD36FF00D
:10542000150070BD01605160184670BD1B68FFDE3D
:105430002003002038B50D466BB15A600022196177
:105440009A601946FFF708FF044610B128460BF092
:10545000BDFA204638BDFFF7B9FEF5E72DE9F04764
:10546000894690461221042206461F46FFF7C1FADC
:10547000044698B100F10805022128460BF0D8FA3D
:105480004146A0F8009028460BF0E9FA3B46214639
:105490003046044ABDE8F047FFF7CCBF6FF00B0081
:1054A000BDE8F087315300002DE9F7434B69804692
:1054B0001D8A186800230C468DF8043001A942F6B5
:1054C0000303ADF80630FCF76DFC30B96369DB68A7
:1054D0001B799B0624D50135ADB2228C1D210232E9
:1054E0004046FFF786FA0646E8B100F108090221B6
:1054F00048460BF09DFA0746218C27F8025B484688
:105500000BF096FA228CE1693846FCF777FB2346CC
:10551000064A31464046FFF78DFF03B0BDE8F083F1
:105520006FF01500F9E76FF00B00F6E7FD52000091
:1055300010B5174BBFF35B8F03F1500252E8004FD9
:1055400044F0010E42E800ECBCF1000FF6D1BFF3CD
:105550005B8FE20702D49884D9840AE09A8C824255
:1055600003D8DA8C8A4201D310BD9884DA8C8A423F
:10557000F2D3BFF35B8F1B6DBFF35B8F9B0706D42A
:105580000A2204490448BDE810400CF011BE10BDC9
:105590002803002050030020301700208268194B98
:1055A0009A422DE9F04107460C4625D1C5680026F0
:1055B0006B689E4220D229684FEA06184144204673
:1055C000FEF7A2F9D8B92B6843441B89BBB1294621
:1055D0003846FFF77AFE2C680B4B9C420CD14444B2
:1055E000A089E18900B939B1FFF7A2FF04220021A7
:1055F00004F10C00FCF72EFB0120BDE8F081013620
:10560000D6E700BFD55700007C0300200D49BFF34B
:105610005B8F01F1500353E8002F22F0020243E8B0
:1056200000200028F7D1BFF35B8FBFF35B8F0B6DBA
:10563000BFF35B8FDB0704D50022283102480CF052
:10564000B7BD7047280300203017002013B5BDF800
:105650001010104602294FF00002ADF806200DD8B8
:10566000C1F102049C42A8BF1C460DF1060322466C
:105670001944FCF7C3FA204602B010BD6FF00604CF
:10568000F9E700008268274B9A422DE9F3478046EC
:10569000894627D1C468238923B3002601F1440A2F
:1056A00063689E420BD30222002104F10800FCF73C
:1056B000D1FAE368B3B121894046984712E02168E6
:1056C000350129440B899BB14846FEF71DF988B185
:1056D00020682844FEF730F950B1437A032B05D1F6
:1056E000FEF766F9012002B0BDE8F087FEF760F929
:1056F0000136D5E75046FDF797FD074620685FB9AC
:105700002844072269460097CDF80370FCF776FA23
:1057100023681D442F81EBE7072251462844FCF7FC
:105720006DFAE5E7D55700002DE9F0410D4EBDF8C3
:105730001850304698461746FCF736FA83B2AB420B
:105740000DD35C1B44452346A8BF43469CB222466A
:1057500071193846FCF752FA2046BDE8F0816FF027
:105760000604F9E7982C01002DE9F347CE68BDF84F
:105770002870044690469A46002573689D420ED2D2
:1057800031684FEA051949442046FEF7BDF808B1D3
:105790000135F2E732684A441389ADF80630736880
:1057A0009D4204BF0023ADF80630022F0FD8C7F189
:1057B00002045445A8BF54460DF106032246D919E8
:1057C0004046FCF71BFA204602B0BDE8F0876FF0B8
:1057D0000604F8E72DE9F04F85B08846BDF838108B
:1057E000D8F80C500229814653D8194402291F4683
:1057F00052DC53781678002446EA03266B689C42F4
:1058000006D22968484601EB0411FEF77DF8C0B9BD
:105810006B689C4221D1002E37D00024A2466B68D1
:105820009C4217D22868CDF800A04FEA041B07223B
:1058300069465844CDF803A0FCF7CBF918B1013400
:10584000EDE70134DAE72868072209F144015844FA
:10585000FCF7D4F96B689C4221D02B6824012344C7
:105860001E812B89B34203D029464046FFF72DFD08
:105870005EB9286802962044072202A9CDF80B6081
:10588000FCF7BCF92B681C442681384605B0BDE8FE
:10589000F08F6FF00607F8E76FF00C07F5E76FF091
:1058A0001007F2E737B5C968BDF8185010460A78F6
:1058B00092B94A88ADF80620022D19D8C5F1020424
:1058C0009C42A8BF1C460DF1060322465919FCF75D
:1058D00095F9204603B030BD102D01F1010107D824
:1058E000C5F110049C42A8BF1C4622462944EEE79D
:1058F0006FF00604EDE700002DE9F74F42F60213C2
:1059000005460E460024694600688DF80040ADF853
:105910000230FCF747FA78B142F6030328688DF8A5
:10592000044001A9ADF80630FCF73CFA001B18BF93
:10593000012003B0BDE8F08FAA682B4B9A4201D03A
:105940000120F6E7EF68294D0446A84681467B68AA
:105950009C42F5D23868B38800EB041002899A4261
:1059600014D1FDF7E9FF8346F8B93B6843450DD1F3
:10597000736901A81A8CD969FCF740F9A889BDF8A8
:105980000630EA8928B942B90198E8600134103537
:10599000DDE7BDF80410814205D39A42F6D29A425F
:1059A000F4D2EB81F2E7A981F9E7437A032B02D025
:1059B000FDF7FEFFEAE7B388022B0CD17169FFF710
:1059C00073FD82465846FDF7F3FFBAF1000F09DB7D
:1059D000C6F80090DAE7B168338AF268098AFFF7FF
:1059E000C9FCEEE70020A4E7D55700007C030020A7
:1059F00008B50648FFF7EAFC0548FFF7E7FC05494C
:105A00000548BDE808400CF05FBB00BFBC36002075
:105A1000183700209D5A0000500300202DE9F04760
:105A20009946124B1C6806460F469046DCB1083C6E
:105A30004FF0140ABCB1002506E020680AFB0500FF
:105A4000038AB34207D201356368AB42F5D8A46834
:105A50004CB1083CEEE7BB42F5D84946C0470028A8
:105A6000F1D1BDE8F087BDE8F08700BF200300203A
:105A70007FB56FF038030590406900930223ADF8BD
:105A80000430054A008A6B464FF6FF71FFF7C6FFE8
:105A9000009807B05DF804FBF958000013B530F822
:105AA000042CADF80420034630F8022CADF8062093
:105AB000283803F12804BFF35B8F54E8002F22F04D
:105AC000010244E800210029F7D1BFF35B8F0022D7
:105AD00023F8042C23F8022C0E4A43F8142C0E4A07
