:1000000060240020BD190000111A000055180000DE
:10001000551800005518000055180000551800002C
:100020005518000055180000551800005D14000018
:10003000551800005518000019140000551800004C
:1000400081190000C79C000081190000811900007F
:100050008119000081190000811900008119000038
:100060008119000081190000811900008119000028
:100070008119000081190000811900008119000018
:100080008119000081190000811900008119000008
:1000900081190000811900008119000081190000F8
:1000A00081190000811900008119000081190000E8
:1000B00081190000811900008119000081190000D8
:1000C00081190000811900008119000081190000C8
:1000D0008119000081190000811900000000000052
:1000E0005511000000000000CD17000000000000C6
:1000F000CD17000000000000CD1700000000000038
:10010000CD17000000000000CD1700000000000027
:1001100085B4000000000000CD17000000000000C2
:10012000CD17000000000000CD1700000000000007
:10013000CD170000000000008D9C000000000000B2
:10014000CD1700005834002089B7000000000000DF
:10015000CD17000000000000CD17000000000000D7
:10016000CD170000000000007D120000000000001C
:10017000CD17000000000000CD17000000000000B7
:10018000CD17000000000000CD17000000000000A7
:10019000CD17000000000000CD1700000000000097
:1001A000C19C000000000000CD170000000000000E
:1001B000CD17000000000000CD1700000000000077
:1001C000CD17000000000000CD1700000000000067
:1001D000CD17000000000000CD1700000000000057
:1001E000CD17000000000000CD1700000000000047
:1001F000CD17000000000000CD1700000000000037
:10020000CD17000000000000CD1700000000000026
:10021000CD17000053B94AB9002908BF00281CBFF8
:100220004FF0FF314FF0FF3000F08EB9ADF1080C08
:100230006DE904CE00F01AF8DDF804E0DDE90223F0
:1002400004B07047430803F05533C01A830803F025
:10025000333300F03330184400EB101000F00F304F
:1002600000EB002000EB0040000E70472DE9F04746
:100270008C460D460446089E002B51D18A421746F3
:100280006DD9B2FA82FEBEF1000F0BD0CEF1200C78
:1002900001FA0EF520FA0CFC02FA0EF74CEA050CF6
:1002A00000FA0EF44FEA174A250CBCFBFAF81FFAC5
:1002B00087F90AFB18CC45EA0C4508FB09F3AB4269
:1002C0000AD9ED1908F1FF3280F02381AB4240F2E8
:1002D0002081A8F102083D44ED1AA4B2B5FBFAF062
:1002E0000AFB105544EA054400FB09F9A14509D968
:1002F000E41900F1FF3380F00A81A14540F2078143
:1003000002383C44A4EB090440EA08400021002ED6
:1003100061D024FA0EF4002334607360BDE8F087E6
:100320008B4207D9002E54D0002186E821000846D0
:10033000BDE8F087B3FA83F1002940F08E80AB422C
:1003400002D3824200F2FA80841A65EB0305012091
:10035000AC46002E3FD086E81010BDE8F08712B9F9
:100360000127B7FBF2F7B7FA87FEBEF1000F34D1D1
:10037000EB1B3A0C1FFA87FC0121B3FBF2F8250CAA
:1003800002FB183345EA03450CFB08F3AB4207D9DF
:10039000ED1908F1FF3002D2AB4200F2D180804665
:1003A000ED1AA3B2B5FBF2F002FB105543EA054487
:1003B0000CFB00FCA44507D9E41900F1FF3302D27D
:1003C000A44500F2B8801846A4EB0C0440EA0840AB
:1003D0009DE731463046BDE8F087CEF1200405FAAE
:1003E0000EF307FA0EF720FA04F83A0C25FA04F493
:1003F00048EA0308B4FBF2F14FEA184502FB114446
:100400001FFA87FC45EA044501FB0CF3AB4200FAF6
:100410000EF409D9ED1901F1FF3080F08A80AB426A
:1004200040F2878002393D44EB1A1FFA88F5B3FB8E
:10043000F2F002FB103345EA034500FB0CF3AB423C
:1004400007D9ED1900F1FF386FD2AB426DD90238F0
:100450003D44EB1A40EA01418FE7C1F1200722FA3F
:1004600007F88B4005FA01F448EA030320FA07FE77
:100470004FEA134CFD404EEA040EB5FBFCF94FEA7F
:100480001E440CFB19551FFA83F844EA054509FB85
:1004900008F4AC4202FA01F200FA01FA08D9ED18A8
:1004A00009F1FF3043D2AC4241D9A9F102091D4400
:1004B0002D1B1FFA8EFEB5FBFCF00CFB10554EEA0F
:1004C000054400FB08F8A04507D9E41800F1FF3502
:1004D00029D2A04527D902381C4440EA0940A4EBA0
:1004E0000804A0FB02894C45C6464D4615D312D0E0
:1004F00056B1BAEB0E0364EB050404FA07F7CB40E0
:100500001F43CC40376074600021BDE8F087184677
:10051000F8E69046E0E6C245EAD2B8EB020E69EB97
:1005200003050138E4E72846D7E7404691E78146CE
:10053000BEE7014678E702383C4445E7084608E74D
:10054000A8F102083D442BE7704700BF024A9378A8
:1005500001339370704700BFA031002030B5204CAC
:1005600087B02068A38802901E48ADF80C3000F0D8
:100570007DFC002002F038FB014620B11A4800F053
:1005800075FC07B030BD194800F070FC184902A88E
:1005900002F08EFC0146A8B9164D06344FF4C8701F
:1005A0000BF038FEA3882068ADF8143000230490C7
:1005B00029460093012204A802F08CFB014618B1E1
:1005C0000D48DCE70D48DAE74FF4C8700BF022FE67
:1005D00002F036FC01460028E0D00948CFE700BF12
:1005E000D8CA000038CB00005ACB00007ACB0000FC
:1005F0004D05000030CB0000B4CB000091CB0000D3
:10060000DACB00000C4B1B78062B12D10B4B186871
:1006100010F00F000DD104331B6803F0F003302BF2
:1006200008D1074B1B6813F0F00F0CBF012000200E
:1006300070470020704700BFE00F00F0E40F00F0AB
:10064000EC0F00F008B54FF02003EFF3118183F3B6
:100650001188FFF7D7FF20B13D4AD36823F080739C
:10066000D360FFF7CFFF10B13A4B03221A60FFF7B8
:10067000C9FF30B14FF080430022C3F80C21C3F80A
:100680001021354B1B78062B17D1344B1B681807EC
:1006900013D1334B1B6803F0F002302A03D003F070
:1006A000E003402B09D14FF08043D3F80024D20758
:1006B00003D56FF00102C3F800244FF01022D2F8E6
:1006C0000032002B274B03DBD2F80022002A2FDA5E
:1006D0000122C3F80425D3F80024002AFBD04FF0F0
:1006E00010231522C3F800221E4A1346D2F8001424
:1006F0000029FBD04FF010221521C2F80412D3F8C4
:100700000024002AFBD00022C3F80425154AD2F8A1
:100710000034002BFBD0BFF34F8F1349134BCA6833
:1007200002F4E0621343CB60BFF34F8F00BFFDE7DD
:100730000122C3F840250C4B4FF0FF329A62DA6277
:100740000B4B0C4A1A6081F31188002008BD00BFD2
:10075000F0ED00E0A0050040E00F00F0E40F00F035
:10076000E80F00F000E0014000ED00E00400FA05B1
:10077000C43100200090D00308B504460846114655
:100780001A46A0470BF06EFD01F0D4F810B5C47AFC
:10079000C0688C424FF00C04B6BF614304FB0101FA
:1007A0004158202492FBF4F401EB8401196002F01B
:1007B0001F0010BD07B501ABFFF7E8FF019A012349
:1007C00003FA00F013680343136003B05DF804FB01
:1007D00007B501ABFFF7DAFF019A012303FA00F036
:1007E000136823EA0003136003B05DF804FB2DE9EE
:1007F000F0474368058904460068A77A5D432844AA
:1008000000214FF00C0E4FF0200CB94205DB002503
:1008100023899D4223DBBDE8F087D4F80C90B5FB1B
:10082000F3F20EFB01F81F2A09EB08064FEA9303C7
:1008300006F1040AC8BF1F3203F10303C6F804A07F
:10084000C6F808A0CABF92FBFCF2E17249F80800A2
:1008500023F00303C8BF00EB82000131D5E76268D3
:10086000E36820686A431E1D865081189A684A60B2
:100870009A682046116099602A460021FFF79AFF86
:100880000135C5E72DE9F04F8BB0867A00AF0446FD
:10089000FB60B3000A3323F00703ADEB030D43689D
:1008A0003A6103336A4623F0030342F80439E94608
:1008B0004FF0FF3500234FF00C0E581EB342786204
:1008C00009DA2BB110688008033020F00300506073
:1008D000506888420BD27B6A013314D13A6D0023F1
:1008E00013606FF00B002C37BD46BDE8F08FE06859
:1008F0000EFB030000F1040C40680432604518BF91
:100900001D460133D9E76B1CE8D0E16859F8252072
:100910000C2303FB051353F8046F9E4261D096E845
:100920000A00196031684B6023682946F31A204693
:1009300093FBF2F2FFF74CFFA9EB890309EB850A61
:10094000BB617B6A9D4223680EDB3A6911467A6A75
:100950000A60F31A59F8222093FBF2F3FA68136045
:100960003B6D00201E60BEE75AF8042BF31A93FB80
:10097000F2F3BA699B007B610AEB4A0313444FF020
:10098000010BFB6105EB0B03BB60DAF80080B96873
:100990000BFB08F33B62F3187B607B6920460BEB93
:1009A0000302FFF707FF7B682268218908F1FF38FF
:1009B0009844A8EB020862684A4390450AD2E2686C
:1009C000F969386A0A44111D31509168596091687B
:1009D0000B6093600BF1010BBBF1040FD5D1013516
:1009E000AFE76FF00A007EE72DE9F04F85B0837A1C
:1009F0009B000A3323F0070300AFADEB030D436800
:100A0000033323F003030546EA4600936C460120B6
:100A100081424CD20C4616463246214628465AF8A8
:100A20002480D5F80090FFF7C5FE002C48D007F1D0
:100A30000C03324621462846FFF7A8FEFA68042335
:100A400090FBF3F083001068D84000F00F000F28EF
:100A500036D126F003034FF000097B6008F1FF3B1D
:100A60007B684B441A46214628463B60FFF7B0FEA0
:100A70003B689E4212D008FB03F2B5F808C06B68D1
:100A8000296802EB0B0E03FB0CF39E4501EB020001
:100A900004D240688B5803608B58586009F10109F3
:100AA000B9F1040FDCD196FBF9F6013CB4E72368F9
:100AB0009B08033323F0030344F8043F0130A7E706
:100AC00008FB06F62A68696809EB060308F1FF3897
:100AD0009844A8EB02082A89514388450BD2E9685B
:100AE0000C2202FB0414221D49F80620A2685A6059
:100AF000A2681360A3601437BD46BDE8F08F0020E4
:100B0000704700000B6801330B60014B1B681847EE
:100B1000C83100202DE9F04F85B09B460E9CDFF8D0
:100B200090A0012CB8BF0124012B0CBF302320233F
:100B30001546804689460194029301260A27002221
:100B40000AF101040AB9AA451FD2B5FBF4F04946DF
:100B50003030C04701360122013F012FB5FBF4F1CF
:100B60004FF00A0304FB1155BAFBF3FAE8D14946EA
:100B700005F13000C047BBF1030F03D1019B9C1B63
:100B8000002C0FDC05B0BDE8F08F019BBB42E3DB1E
:100B9000BBF1020FE0D84946029803920136C047E4
:100BA000039AD9E749462020C047013CE8E700BF47
:100BB000FFC99A3B0A688B6830B512B14C68A342F2
:100BC00002DB01338B6030BD651EAB420BBF8C6016
:100BD0005C1C00218C600CBFD154D05430BD00008F
:100BE000014B1860704700BFC83100202DE9F04F5D
:100BF00089B04FF0000A06460F4604921C464FF09B
:100C0000FF39D0465546049B187810B909B0BDE8A5
:100C1000F08F45B9252800F00C813946B047049B78
:100C200001330493EFE7642861D019D839280AD832
:100C3000312850D22D283CD030283DD0252808D14D
:100C40003946B0476FE0582800F08980632800F0EB
:100C5000EA8039462520B047049B39461878F0E7EA
:100C6000702872D006D8692841D06C283CD06828FA
:100C7000D5D0EEE7752858D017D87328E9D1236866
:100C800004F1040B1C46254615F8010B002840F022
:100C9000BF80B8F1030F40F0D580E41AA9EB04043B
:100CA000002C00F3BB805C463DE0782857D07A28C2
:100CB000DEE74FF00308B2E7B9F1000F0EDAB8F142
:100CC000000F00F0BC80A0F13009B8F1000F08BFA0
:100CD0004FF00208A3E7B9F1000FF4DB0A2303FB8E
:100CE0000909A9F13009F0E70AF1010A97E7BAF119
:100CF000010FC5BF073424F0070325681D68D4BF62
:100D0000043403F10804002D05DA39462D20B047DC
:100D10006D4209F1FF39CDF8009043462A46394625
:100D20003046FFF7F7FE002579E7BAF1010FC5BF9E
:100D3000073424F0070322681A68CDF80090CCBF6E
:100D400003F1080404344346E9E739463020B0474C
:100D500039467820B0474FF008094FF00108BAF142
:100D6000010FC7BF073424F0070323680593C2BFF0
:100D700003F108041B6805934FF008024FF00003CD
:100D8000D8BF04340393079393460BF1FF3B059BB5
:100D90004FEA8B0023FA00F010F00F0009D1079BF7
:100DA00013B9BBF1000F22D14FF0300E07E0069AC5
:100DB000EBE709288CBF4FF0570E4FF0300E394645
:100DC00070440692B047039B079501330393BBF130
:100DD000000FECD1B8F1030FA5D1039BC3EB49057C
:100DE000002DA0DD39462020B047013DF8E7531E15
:100DF00091450693EBDBB8F1010F03D13946302062
:100E0000B047E4E7B8F1020FE1D139462020F7E717
:100E1000394603932C46B047039B34E739462020DC
:100E2000B047013C3CE72068251D3946B0472C46B9
:100E300079E7AA46A8464FF0FF390125EFE64FF0C3
:100E40000108ECE65C460546E9E6000013B502AC95
:100E5000002344F8043D02460B4603482146FFF7B1
:100E6000C5FE019802B010BD050B00000FB407B518
:100E700004A951F8040B0191FFF7E8FF03B05DF8F6
:100E800004EB04B0704700000CB430B585B008AB7B
:100E9000044653F8042B01900291002501A907484C
:100EA00000930395FFF7A2FE0398029B9842B8BFF8
:100EB000255405B0BDE8304002B07047B50B0000C6
:100EC0007047000013B5114CBFF35B8F2068BFF370
:100ED0005B8F60B90E480AF0C5FCBFF35B8F54E826
:100EE000003F44E80002002AF9D1BFF35B8F43685A
:100EF00004221B680DEB02019847002802DA00F07B
:100F000037FA0190019802B010BD00BF0000002028
:100F10000ECC00000A2838B50446074D04D12868D5
:100F200043680D215B68984728684368E1B25B68B5
:100F30009847204638BD00BF040000200148FFF755
:100F40004FBE00BF150F000008B504480AF08AFC28
:100F5000034B1860FFF7F2FF002008BD18CC00001B
:100F60000400002010B54FF02003EFF3118283F34B
:100F70001188114C237823B982F311886FF0440053
:100F800010BD013BDBB2237023B182F311886FF0F7
:100F90000F0010BD094B1878012128B1217082F390
:100FA00011886FF00A0010BD197082F311884FF09C
:100FB00080425160187010BD0A0000200900002016
:100FC00008B500221046012100F0E8FB002000F0E7
:100FD000B3FB002008BD0000F8B54FF02002EFF38E
:100FE000118382F31188254A1078441C147060B173
:100FF00083F311884FF08043D3F80C3413F4803F0F
:1010000014BF00206FF04300F8BD1D4D2F782FB1A5
:10101000107083F311886FF00A00F8BD01262E705E
:1010200083F311884FF0804419B3384600F094FBE5
:10103000C4F80071D4F80433C4F804632660D4F80B
:10104000002192B10022C4F800210E4A13F0010FD2
:101050004FF0010308BFC4F808330020C2F8803104
:1010600000F06AFB00232B70C4E720BF40BF20BF05
:10107000E5E7C4F800112660F4E700BF0A0000208D
:101080000900002000E100E0F8B506460C464FF0EC
:101090002002EFF3118382F311882C4A157865B191
:1010A00083F311884FF08043D3F8183413F4803F52
:1010B0000CBF6FF043000020F8BD0127177083F3C9
:1010C0001188284600F048FB4FF080430221C3F806
:1010D0000451D3F80423C3F80413C3F818459F60E0
:1010E000D3F8041171B39207194F58BF02224FF081
:1010F00000014FF00105C3F804114FF0000058BF84
:10110000C3F80823C7F8805100F016FB4FF0804366
:1011100000211822C3F80823C3F80C11C3F81011DA
:1011200014F00301BED11020C3F83805C3F804231E
:101130003046C3F80453FFF74FFF0028B2D1C7F879
:101140000051AFE720BF40BF20BFC9E70800002023
:1011500000E100E0F8B54FF080430546D3F808E120
:10116000D3F80423D3F80C44D3F80071D3F8040166
:10117000D3F80C11D3F8106102F00102BEF1000F98
:1011800003D04FF0000EC3F808E127B14FF08043C1
:101190000027C3F800713AB1E30341BF4FF0804329
:1011A0000122C3F808231A6120B14FF080430022C6
:1011B000C3F8042149B14FF080440021C4F80C1158
:1011C0002846FFF7CFFE0123636176B14FF08043DD
:1011D00000210124C3F810112846C3F80443FFF787
:1011E000FBFE10B9014BC3F80041F8BD00E100E07F
:1011F000084BC3F84005D3F80435C01A20F07F40EF
:10120000054B0238984282BF044B4FF40032C3F8BA
:101210000021704700100140FDFF7F0000E100E069
:1012200038B5114B114CD3F804052268104D801AC3
:101230002B6820F07F4098420FD3B0FBF3F00D49AC
:101240000968884228BF084600FB032323F07F4338
:101250002360094B18600BF071F820682B68184464
:10126000BDE83840FFF7C4BF001001401000002067
:10127000183400200C00002014340020024B0022FF
:10128000C3F84021FFF7CCBF00100140031E0A4AFB
:101290000A4804DB116890FBF1F18B4202DD136810
:1012A00090FBF3F31068064A064912680B6000FBD6
:1012B0000320FFF79DBF00BF18340020FFFF7F0011
:1012C000100000200C00002008B5074B0022C3F8D6
:1012D0004021064B4FF40032C3F88021FFF7A0FFF6
:1012E000034B01221A6008BD0010014000E100E03C
:1012F0000C00002070B518480AF0B4FA48B34368EF
:10130000164D1B6801219847154B00241C60154B96
:1013100001261E60144BC5F808451B68C5F840350A
:101320004FF48033C5F84433C5F804330F4BC5F888
:1013300040414FF40032C3F880213146224611204B
:1013400000F02CFA112000F0F7F9AE6020462E6074
:1013500070BD4FF0FF3070BD38CC00000010014070
:10136000100000200C0000201834002000E100E0F4
:101370000A4A30B5D2F80435094DD5E90001D2F852
:101380000445A34207D1074A126850431B1A23F0B1
:101390007F43184430BD2346EFE700BF00100140F3
:1013A000181200201834002007488168006A88421B
:1013B00008D000B50AF0E0FE5DF804EB03494FF0F9
:1013C00080520A6070470000E011002004ED00E048
:1013D000044800232021C2180133272B82F8001370
:1013E000F9D1704700E100E0084A094993680968AB
:1013F000D966084998664B6843F080534B600023D8
:1014000083F311889368D86E704700BFE011002005
:1014100098ED000000ED00E0202080F311880D49D8
:101420008A682C201044EFF3098C80E8F01F0A4FE3
:101430004FF000660A6A8A603E60906E00239366F1
:1014400080F3118802F12C0090E8F01F8CF30988DA
:1014500070470000E011002004ED00E01EF0040FD2
:101460000CBFEFF30880EFF30980816931F8021CAB
:1014700011F0FF010229FFD000B500F02BFA00BDEA
:1014800010B504460AF0EEFE22680146BDE81040A1
:101490000148FFF7EBBC00BF91CD000038B5044612
:1014A0001A480D46FFF7E2FC04F11800184CFFF74C
:1014B000E7FFA36AD90602D51648FFF7D7FCA36A4F
:1014C0001A0702D51448FFF7D1FCA36A9B070ED573
:1014D0001248FFF7CBFC616BA36A180607D51048CA
:1014E000FFF7C4FC1DB1A36A23F08003A362084C7C
:1014F000A26AD20702D50B48FFF7B8FCA36A9B0685
:1015000002D50948FFF7B2FC002038BDDBCD000052
:1015100000ED00E0F2CD000004CE000018CE000087
:1015200031CE000042CE000062CE000010B504466D
:101530001A48FFF79BFC04F11800194CFFF7A0FFB5
:10154000A36A9A0102D51748FFF790FCA36ADB0152
:1015500002D51548FFF78AFCA36A180302D5134881
:10156000FFF784FC0E4CA36A590302D51048FFF71D
:101570007DFCA36A9A0302D50E48FFF777FCA36AA5
:10158000DB0302D50C48FFF771FC054A936A6FEA4A
:1015900003436FEA13439362002010BD92CE000014
:1015A00000ED00E0ABCE0000BFCE0000DACE0000C0
:1015B000F9CE00001FCF00003ACF000038B5044636
:1015C0001D480D46FFF752FC04F118001B4CFFF7B5
:1015D00057FFA36AD80404D51948BDE83840FFF77F
:1015E00045BCA36A190501D51648F6E7A36A9A0512
:1015F00014D51548FFF73AFCA16BA36A1B0407D565
:101600001248FFF733FC1DB1A36A23F40043A36221
:101610000A4B9B6A58050ED50D48DEE7A36A5905AB
:10162000FAD4A36ADA0501D50A48D6E7A36A9B046F
:1016300001D50948D1E738BD58CC000000ED00E0E5
:10164000F2CD000004CE00006FCC000031CE0000CF
:1016500089CC0000A5CC000062CE000038B5274C34
:101660006368C3F30803DA1E0546092A3BD8DFE89E
:1016700002F0053436303A3A3A3A3A382048FFF721
:10168000F5FBE36A9A0703D51E48FFF7EFFB02E07C
:10169000E36A5B0001D4002009E01B48FFF7E6FB8A
:1016A0001A4B1B7843B101212846FFF7F7FE294664
:1016B000BDE8384000F012B9154B1B7823B1012169
:1016C0002846FFF77BFFE6E7124B1B889BB2002BF7
:1016D000E1D02846FFF72AFFE9E70021E4E70021EF
:1016E000EEE70D48D1E70D480D49A3F110020F2B8D
:1016F000D8BF01460B48FFF7B9FBCCE700ED00E08F
:10170000ECCC000004CD000026CD000028ED00E068
:1017100029ED00E02AED00E046CD0000BECC00003F
:10172000D3CC00007DCD0000024A536943F0100382
:101730005361704700ED00E043B2002B08DB01224B
:1017400000F01F0002FA00F05B09024A42F8230091
:10175000704700BF00E100E043B2002B0DDB012227
:101760005B0900F01F0002FA00F02033034A42F840
:101770002300BFF34F8FBFF36F8F704700E100E08E
:101780004209054B00F01F0053F82220012303FA01
:1017900000F01040704700BF00E100E043B2002BB2
:1017A000A8BF03F1604301F101014FEA4111ADBF50
:1017B00003F5614300F00F00034BC9B2B6BFC9B2D5
:1017C00083F800131954704714ED00E000F042B89C
:1017D00008B572B6044BD86918B10022DA610AF074
:1017E00067F862B608BD00BFE0110020F8B50C46EE
:1017F00016461F4604220A9B099905460AF0B8FFBF
:10180000A6F1200121440C4AEC6521F007010023D8
:1018100022F001022B656B652E668A61069A4A608A
:10182000079A8A60089ACA600F604FF08072CA6196
:10183000E964AB66F8BD00BF7907000001491022DA
:101840000A60704710ED00E0404080F3118830BF1F
:10185000704700BF404080F31188DFF81CC0DCF8FF
:1018600000C01CF4006C0CBFEFF30880EFF309809C
:1018700000B5FFF7F3FE00BD04ED00E0042838B525
:1018800004460D4613D0052813D0032813D10C4865
:10189000FFF7ECFA0AF0E6FCAA6901460948FFF7EF
:1018A000E5FA29462046BDE8384000F017B806485A
:1018B000EEE70648ECE701460548FFF7D7FAE9E707
:1018C00066CF0000E4CF00008CCF0000A6CF000060
:1018D000C1CF000001460068FFF7D0BF052810B552
:1018E0000CD00AF073FE60B10AF070FE0C4B0D498B
:1018F000002808BF19460C48FFF7B8FAFFF7A4FF05
:10190000FCE70AF073FE0028EED1084C0848A168F5
:10191000FFF7ACFAA068BDE8104000F00BB800BFBC
:1019200024D0000020D0000035D00000E0110020BD
:1019300055D0000038B505464FF02003EFF3118471
:1019400083F311880AF0AAFE0B4B9B689D420DD1D0
:101950000A4B5A68C2F3080222B90AF00DFC20466D
:10196000FFF742FD5A6842F080525A602046BDE8B7
:1019700038400AF0BBBA00BFE011002000ED00E0E3
:1019800000B572B60B4AD06900281EBF0021D16194
:1019900009F08EFF62B6EFF30580A0F110004FEA68
:1019A000C0000549014409C998475DF804EBFFF7F9
:1019B000FBBC0000E0110020DC000000202080F3D0
:1019C000118806484FF40061401880F3098802200E
:1019D00080F31488BFF36F8F00F006B8A0250020B5
:1019E00030BFFFF7FDBF00BF08B5074B074A23F024
:1019F0007F039360BFF34F8FBFF36F8F09F088FFB2
:101A000009F090FF09F0B2FF0000000000ED00E0D7
:101A100008B5FFF7E5FFBDE80840FFF7C5BC0000CB
:101A2000124930B50D68082D0DD8114A48680023B9
:101A300053609D4200F10C0007D105235360BFF3B2
:101A40004F8FBFF36F8F002030BD50F80C1C50F843
:101A5000044C936021F01F0141F01001194344F040
:101A60000104D16001331461E3E700BFA431002019
:101A700090ED00E00139034611F8012F0AB91A7000
:101A8000704703F8012BF7E70138013910F8013FDF
:101A900011F8012F934202D1002BF7D11A46981A60
:101AA000704770B582B1013A0C46034603D11A78EB
:101AB0002078101A70BD1E782578AE4200F1010022
:101AC00001F10101EFD0F2E7104670BD81EA000399
:101AD00013F0030F70B503460BD0013B0A4491424B
:101AE0001BD170BD002AFCD011F8014B03F8014B4B
:101AF000013A9C07F6D11E1F0D46541B0C44032CC3
:101B000006D822F003042144234402F00302E4E750
:101B100055F8044B46F8044FEFE711F8014B03F872
:101B2000014FDCE770B5C9B203469C0711D141EA09
:101B3000012444EA04441E46951B1D44032D0ED87F
:101B400022F00304234402F003021A44934209D111
:101B500070BD002AFCD003F8011B013AE5E746F806
:101B6000044BE9E703F8011BF0E7000070B54FF004
:101B70002003EFF3118583F31188144C144E23785E
:101B800003EBC312013303F003033244237085F3E4
:101B90001188402928BF40210E4D0138134602EB21
:101BA0004106B34204D1002302F81130104670BD43
:101BB0004478240902332C5D03F8024C10F8014FDD
:101BC00004F00F042C5D03F8014CEAE770000020DC
:101BD00071000020E4D0000010B50F4A0F4C1378BC
:101BE00003EBC301013386B003F0010313700278E5
:101BF000437904924278039282780292C2780192E9
:101C000004EB4104027900921221054A2046FFF7B5
:101C10003BF9204606B010BD6E00002014000020E5
:101C2000C6D0000070B51D4A1D49137803EB43066A
:101C3000013303F00103137003788AB006EBC60684
:101C400004460E4407AD032B21D8DFE803F0021A47
:101C50001C1E14492846FFF70DFF62780492A278F3
:101C60000392E27802922279019262790092A3793A
:101C700005950D4A1B213046FFF706F930460AB09C
:101C800070BD0A49E6E70A49E4E70A49E2E70A4A79
:101C90000A212846FFF7F8F8DFE700BF6F000020B1
:101CA000380000207AD00000A3D0000081D00000CE
:101CB00088D0000092D000009CD0000070B50B4D81
:101CC00006460FCD8AB06C460FC40FCD0FC495E801
:101CD0000300092E84E803009BBF0AAB03EB8606D2
:101CE000034856F8280C0AB070BD00BFE4CA0000D3
:101CF000B4D9000000B5BFF35B8F50E8003F43EA62
:101D0000010240E8002EBEF1000FF6D1BFF35B8F59
:101D100018465DF804FB00B5BFF35B8F50E8003F49
:101D200003EA010240E8002EBEF1000FF6D1BFF336
:101D30005B8F18465DF804FB2DE9F041064686B03E
:101D40009079264F8846154609F03EF9874213D010
:101D5000AC79204609F038F9214B059303908DE8C2
:101D60004800049702941F4B1F4A20492048FFF760
:101D70007DF806B0BDE8F081284609F02BF91D4C2E
:101D800004EBC0004388B34210D0284609F022F982
:101D9000134B039304EBC0001449428802928DE870
:101DA0004800114A0F4B1448FFF760F8284609F025
:101DB00011F904EBC0004368002BDAD0284609F083
:101DC00009F904F83080284609F004F904EBC00052
:101DD000406806B0BDE8F0410AF053BAD4340020A0
:101DE000B3CB000005D10000E3D40000EAD400002A
:101DF000EDD400007802002032D50000074BBFF37D
:101E00005B8F420903EB820300F01F001B6FBFF3DF
:101E10005B8F43FA00F000F001007047D0310020E2
:101E20002DE9F047804689461348144D4FF0FF31A5
:101E300009F05EF9044600F108060021304600274B
:101E400009F075F92775204609F0C4F805EBC000C4
:101E5000A0F80280204609F0BDF805EBC000032180
:101E60004760304609F0A6F980F80290A0F800809B
:101E70002046BDE8F08700BFD4340020780200205F
:101E800070B5154686B00C4619B9FFF7C9FF044670
:101E900068B30122002168460AF0EAF9204609F0F9
:101EA00099F8144E06EBC000C0F804D0204609F0A3
:101EB0007DF92146104809F03EF942F2107168465A
:101EC0000AF007FA204609F085F816F8300030B11C
:101ED000204609F03DF96FF0040006B070BD0DB169
:101EE0002C60FAE7204609F033F92846F5E76FF051
:101EF0003600F2E7780200207432002038B5022163
:101F0000054642F20C00FFF78BFF044628B302217E
:101F1000083009F04FF9012D014615D10B20FFF7CC
:101F20006DFF48700D700022214642F20C00FFF751
:101F3000A7FF044630B9012D09D14FF4807108483C
:101F4000FFF7D8FE204638BD00234370EAE76FF460
:101F500080710348FFF7DFFEF4E76FF03604F1E726
:101F60004032002070B5154D062205F108010646E5
:101F7000FFF797FD0446D8B1062142F20500FFF7AE
:101F80004FFF0446B0B106223146083009F018F977
:101F90002146002242F20500FFF772FF044638B9DD
:101FA0000622314605F10800FFF790FD0123EB7191
:101FB000204670BD6FF03604FAE700BFD031002034
:101FC00007B50621684602F08BF840B99DF8053048
:101FD000684603F03F038DF80530FFF7C3FF03B0F9
:101FE0005DF804FB2DE9F8430C4620210746904696
:101FF000FFF716FF064600283CD02021083009F0E4
:10200000D9F8202200210546FFF78CFD4FF000098A
:10201000C14506D1314638460022BDE8F843FFF7F6
:102020002FBF62782B78D11802311F2904F10804E0
:1020300006DD304609F08CF86FF01500BDE8F88336
:10204000E918501C4870981CC0B20133287055FA2A
:1020500083F314F8081C5970013054F8041C284408
:10206000FFF734FD2B7814F8072C13442B7009F17B
:102070000109CDE76FF03600BDE8F88308B5092007
:10208000FFF7BCFE014640B90820FFF7B7FE20B1BC
:102090000846BDE80840FFF731BF002008BD012316
:1020A00010B50621044600F8013B02F019F818B9F2
:1020B000A37963F03F03A37110BD000037B5114C45
:1020C0002378012B04D1A37903F0C003C02B0DD0DA
:1020D0000D4B019300930D4A0D4B0E490E48FEF730
:1020E000C5FE6FF01505284603B030BD601CFFF734
:1020F00039FF05460028F6D1042104F17000FFF7EE
:10210000F9FDF0E7D0310020B3CB00009BD40000F4
:102110005CD10000EAD40000A2D400002DE9F04315
:102120001D4DDFF890801D4F1D4E1E4C87B0284678
:10213000FFF778FD43463A463146019002940094F9
:102140001948FEF793FE95F80E904846FFF7B6FD46
:10215000AB8A04932B8A03933A4643463146CDF823
:1021600008900190059400941048FEF77FFE95F8C2
:102170000F904846FFF7A2FD6B8A039301900494E9
:10218000CDF80890009443463A4631460848FEF799
:102190006DFE07B0BDE8F083D0310020C2D1000051
:1021A000EAD40000B3CB0000C9D10000E6D10000A2
:1021B00034D200007DD10000F0B5AB4ED6F8B4307B
:1021C000996811F001018FB024D10CAA40F60340A8
:1021D000FFF756FE0446002840F086800C9B9B6863
:1021E0001B78A3B9A14A13603346BFF35B8F53F842
:1021F000702FBFF35B8F02F00D02BFF35B8F53E8CC
:10220000001F43E800200028F9D1BFF35B8F0C9832
:1022100008F09EFF0CAA002141F20300FFF730FEF8
:102220000446002860D10C9B91489968082201312E
:10223000FFF74CFC0C9808F08BFF21460CAA41F2EA
:102240000100FFF71DFE044600284DD10C9883685D
:102250005A78B273D9789A7842EA012232821A798E
:10226000F273197ADA7942EA012272825A799B79F9
:1022700042EA0323B38208F06BFF0320FFF7BEFDA1
:10228000014688B90CAA41F20900FFF7F9FD04469E
:1022900050BB0C9B7748996806220131FFF716FC6A
:1022A0000C98347008F054FF0CAA002141F202008F
:1022B000FFF7E6FD0446B8B90C9B6F4899684022C9
:1022C0000131FFF703FC0C9808F042FFB37E58067B
:1022D0000DD46A4B01930093694A6A4B6A496B4873
:1022E000FEF7C4FD6FF0120420460FB0F0BD21468A
:1022F0000CAA42F20300FFF7C3FD04460028F3D105
:102300000C9B6348996808220131FFF7DFFB0C98AA
:1023100008F01EFFB37E990674D596F83A301A0776
:1023200000F18C80082142F20100FFF779FD04469C
:1023300000286ED00821084408F03CFF96F8403091
:1023400003F00603062B14BF02234FF4C1730022CF
:1023500003701B0A43708270C270027142718271F5
:10236000C271214642F20100FFF78AFD04460028AF
:10237000BAD1082140F60140FFF752FD054600287A
:1023800047D00821084408F015FF8023437002233A
:10239000C370202304708470047144718471C3710C
:1023A0002246294640F60140FFF76AFD0446002810
:1023B0009AD101460CAA4FF60140FFF761FD2F4D5F
:1023C000002871D0334B344A2F4934480195009589
:1023D000FEF74CFD002307220AA923480A93CDF8F3
:1023E0002B30FFF75EFB002840F0D88096F8603075
:1023F000DB0700F1E78001950095294B264A224929
:102400002848ECE0022140F66D40FFF709FD054643
:1024100010B96FF0360467E70221083008F0CAFEF1
:102420000123447003702246294640F66D40FFF7B1
:1024300027FD044600283FF470AF55E70CAA0021A1
:1024400042F21C00FFF71CFD044600287FF44CAF4D
:102450000C98836853F8012F5B68C6F88430C6F87F
:10246000802008F075FE5DE7D0310020D402002006
:10247000E6310020D1310020EE310020B3CB000046
:102480009BD4000054D10000EAD4000075D50000B0
:10249000483200208ED10000E3D40000A9D500000E
:1024A0006FD1000046D700000C9B6C499F686C48B8
:1024B000B7F801300293032B96BF6A4A6A4A52F872
:1024C00023200192694B6A4A03950095FEF7CEFCE2
:1024D000B7F80130B7F80320022B3AD1022A38D8D6
:1024E000644B53F8223002920193614A5F4B5B497F
:1024F000039500956048FEF7B9FC7B790695D7F8FF
:1025000009100591032BB7F8071098BF5B4A049197
:10251000B97994BF52F82320534A039102934F494B
:10252000524B01920095524A5548FEF79FFC0C9879
:1025300008F00EFE0CAA00214FF60240FFF7A0FCA7
:10254000074640B101950095484B4E4A43494E48D5
:102550003EE7454BC7E70C9B4C4899680222013186
:10256000FFF7B4FA0C9808F0F3FD0CAA39464FF6C1
:102570000340FFF785FC30B1019500953B4B414A84
:102580003649434824E70C9B42489968012211448C
:10259000FFF79CFA0C9808F0DBFD1BE73E4B186830
:1025A0009A880C909B79ADF834200CA907223B48FF
:1025B0008DF83630FFF775FA00283FF417AFFFF7B4
:1025C000ADFD91E609AA00214FF60940FFF758FC3E
:1025D00040B1334B2B4A2149324801950095FEF713
:1025E00045FC27E0099B99684B78C3B1012306227B
:1025F00002312D483370FFF769FA099808F0A8FDF9
:10260000FFF75CFD06460028D9D001950095274BC1
:10261000274A12492748FEF729FC344664E601950B
:1026200000951F4B174A0D492348FEF71FFC0998D8
:1026300008F08EFD1948FFF732FD06460028E4D168
:102640001948FFF7C9FA029501900095144B0D4AFD
:1026500002491A48FEF70AFCD2E700BFEAD400009C
:10266000DDD50000C4D80000B4D900008ED1000030
:10267000C2D10000B8D8000006D60000A4D90000DE
:102680002ED60000E3D400006BD600002F320020CD
:10269000A4D600002E3200200CCB0000D031002048
:1026A0006FD10000DDD60000D13100209AD10000AA
:1026B0009BD40000BBD700000DD7000082D70000DC
:1026C00010B5FFF779FD044630B902210648FFF73F
:1026D00011FB2046FFF7D2FC044B1B681BB12046C0
:1026E000BDE81040184710BD40320020D002002045
:1026F000024BD3F8B4301B69184700BFD03100201B
:1027000030B5044685B00D4619B9FFF789FB05467B
:10271000F0B140F635439C4214D12846FFF7E8FF5C
:10272000044660B10C4B02938DE818000B4A0C4B29
:102730000C490D48FEF79AFB284608F009FD204693
:1027400005B030BD2946094808F0F5FC0024F6E73D
:102750006FF03604F3E700BFB3CB00009BD400005A
:10276000F5D00000EAD40000C0D20000743200208E
:102770002DE9FF41444C454E04F1A408737B4348C6
:102780006FF307134FF0FF32012173730AF0C6F89D
:10279000002861D1737B1B09012B0BD9042B0CD0B2
:1027A0003B4A02928DE80C003A493B4B3B4A3C487D
:1027B000FEF75CFB09F0FEFCE0E7377B002FF9D168
:1027C0003946404608F09AFC0546002853D04FF0A1
:1027D000FF31344809F07DFDD4F8A03063BB2846B2
:1027E00008F0E4FCC4F8A0002846FFF781FF0028A9
:1027F000E0D0274B2C4A27490293019000932B48A5
:102800002B4BFEF733FB274809F03BFD284608F029
:10281000E1FB284B03EBC00000221F214088FFF79B
:102820008BFAD4F8A00008F093FC00232846C4F8E3
:10283000A03008F08DFCBDE7154B019300931A4AB8
:102840001B4B14491C48FEF711FBD4F8A00008F0FC
:102850007FFCC4F8A070C2E70D4B01930093124AAD
:10286000164B0C491648FEF701FB404080F31188D7
:102870004FF0040002DF064B019300930A4A0C4B11
:1028800004491048EFE700BFD03100208832002013
:10289000B3CB0000EAD4000037D10000E3D400003D
:1028A000EAD70000583200209BD40000C0D20000BC
:1028B0002ED10000780200201BD8000046D1000075
:1028C00046D8000070D800002DE9F04F067D012E9B
:1028D0008BB004466BD187683B780E3B012B76D8D2
:1028E000684B01930093684A684B69496948FEF751
:1028F000BDFA404080F311884FF0040002DFA66863
:1029000065486FF02001FFF706FA337843B9711C70
:1029100040226248FFF7DAF810215F48FFF7EAF932
:102920005F4B1D68771C35B9204608F011FC00206C
:102930000BB0BDE8F08F32782B68002A0CBF384608
:10294000002098476D68EEE7564DA0682A68002A77
:10295000EAD0037823B90130904700232B60E3E7E6
:102960000020F9E7FFF7B2F867E0A589A0682946DB
:10297000FFF7FCF8434B049303908DE848004A4A64
:102980004A4B43494A480295FEF770FACCE7A589BD
:10299000A0682946FFF7EAF83A4B049303908DE8C4
:1029A00088000295394B404A39494248ECE7354B9B
:1029B00002938DE84800344A3F4B35493F48FEF7C3
:1029C00055FA204608F0C4FB6FF01500B0E700F19F
:1029D00008050221284608F004FC3F783E2FD6D196
:1029E000A7683146284608F0FCFB3E78082E86D0C2
:1029F000092EA9D0022EB8D1284608F0FAFBDFF83C
:102A0000C0A00790079B002B8ED0A66809212846FE
:102A100008F0E7FB337A31463344072293F809B0D4
:102A200011F8013F023B012B08A89BD8FFF74EF895
:102A30009DF82030023B8DF82030DAF80030ABB141
:102A4000284608F0DEFB337AB4F80C80A381814677
:102A50002B463278DAF800704FFA8BF108A8B847A5
:102A60002369A4F80C8013FA89F3A360317A28460D
:102A7000013108F0B6FB079B03F1FF385FFA88F3DA
:102A80000793BFE7B3CB00009BD4000024D1000024
:102A9000EAD400007DD30000403200208C020020E8
:102AA000CC02002088020020E3D4000012D10000F4
:102AB000F2D2000027D30000A3D1000059D30000B8
:102AC000D40200202DE9F341037D8668012B0446E2
:102AD0000ED0324B01930093314A324B3249334886
:102AE000FEF7C4F9404080F311884FF0040002DF84
:102AF0008389012B07D8294B01930093284A294B3E
:102B000029492B48ECE733780E3B012B3ED800F1E6
:102B100008050221284608F064FB33780E2B0CD000
:102B20000F2B23D0204608F013FB1C4B019300937E
:102B30001B4A1C4B1C491F48D2E7A36803212846A7
:102B4000B3F801701E7808F04CFBA3682246197890
:102B50003846FFF7F1F816B1174809F092FB204606
:102B600008F0F6FA002002B0BDE8F081A668B6F8D9
:102B7000028077780421284608F033FB224631781A
:102B80004046FFF7D9F8002FE9D0E5E7034B019362
:102B90000093034A034B04490848A1E7B3CB000064
:102BA0009BD40000ABD10000EAD40000BCD30000ED
:102BB00000D400003AD40000583200205DD4000058
:102BC000084AD2F8B4303BB9C16841B1016931B1AA
:102BD000C2F8B400184670476FF0440070476FF0B9
:102BE00015007047D031002070B52E4DD5F8B430A7
:102BF00086B006466BB92C4B019300932B4A2C4BA5
:102C00002C492D48FEF732F96FF01204204606B029
:102C100070BD012105F17000FFF76CF810F00100A4
:102C20003DD1264B26491E606FF0080305900490A5
:102C30000393029001900090224B23484FF46B7253
:102C400009F00EFDD5F8B430DB689847044650B162
:102C5000154B02938DE81800144A154B15491B4873
:102C6000FEF704F9D2E76EB9FFF7A6FA044600288A
:102C7000CCD1022105F17000FFF73CF82046FFF7A8
:102C8000FDF9C3E7012105F16C00FFF733F8C30735
:102C9000BCD405F164010E4809F006F8B6E76FF000
:102CA0004404B3E7D0310020B3CB00009BD4000034
:102CB000B8D10000EAD400006BD20000D00200209E
:102CC000A012002071270000D802002094D200003A
:102CD000201200207FB51E46037813F0010F054631
:102CE0001446438805D1534A927B082A01D89F2B6A
:102CF00008D9A888834205D81F2B03D9B0F5804F87
:102D000040F28E806FF015043DE0224642F208004A
:102D1000FFF768F90446002835D15EBB2B78D80749
:102D200028D400210F226846FEF7FCFE6B88ADF820
:102D30000030AB88ADF8023007238DF80D302B78CA
:102D4000D90723D50220FFF759F810B13A48FFF709
:102D500009F9384B1B788DF8053000230F2142F21A
:102D600006008DF80430FFF75BF8044648BB6FF0AF
:102D7000360408E0089A314642F20900FFF732F9BA
:102D800004460028CDD0204604B070BD5A0711D5A6
:102D90000220FFF733F8044618B12748FFF7E2F89E
:102DA0000446244B1B788DF80530002CEBD136B14E
:102DB0000223D3E7FFF704F901230446F3E70323D3
:102DC000CCE70F226946083008F0FAF921460022C4
:102DD00042F20600FFF754F804460028D3D101213F
:102DE00042F20A00FFF71CF806460028BFD0012176
:102DF000083008F0EEF92246314642F20A00FFF7A9
:102E00003FF804460028BED140210C48FEF772FF6F
:102E10002B789B07B7D480210848FEF76BFFB2E7F9
:102E20000620FEF7EBFF00283FF46FAF6FF044047D
:102E3000A9E700BFD0310020D1310020403200206E
:102E400010B56FF080011948FEF765FF0620FEF708
:102E5000D5FF10B90024204610BD012142F20A001E
:102E6000FEF7DEFF0446F0B10021083008F0B1F9AA
:102E70002146002242F20A00FFF702F80446002829
:102E8000E9D16FF040010948FEF745FF0820FEF741
:102E9000B5FF0028DED00A20FEF7B0FF0028D9D009
:102EA000FFF78EF8D7E76FF03604D4E74032002002
:102EB0002DE9F3410378012B05460F4610D84378DE
:102EC000012B0DD841880B1F9BB243F6FC70834247
:102ED00006D8AA88131F9BB2834201D891426CD2B4
:102EE0006FF01504204602B0BDE8F0810820FEF71F
:102EF00085FF50B10846FFF701F8044628B16FF48A
:102F000000713548FEF707FFECE76B78002B48D0DF
:102F10004FF400613048FEF7EDFE072200216846BD
:102F20002E78B5F80280AC88FEF7FCFD00238DF802
:102F300006302A4B8DF800601B78ADF80180012E19
:102F4000ADF803408DF805300AD10620FEF756FF94
:102F500030B9FFF735F804460028D0D18DF8056068
:102F6000072142F20B00FEF75BFF044680B3072205
:102F70006946083008F024F9214642F20B00FFF7B9
:102F8000BFFB0120FEF7BAFF04460028B7D1012E8F
:102F90000DD14FF480611048FEF7ACFE104B1F605E
:102FA000A0E76FF400610C48FEF7B5FEB5E76FF4DB
:102FB00080610948FEF7AFFEF0E74FF40071064864
:102FC000FEF798FE10F4007190D06FF0440489E78A
:102FD0006FF0360493E700BF40320020D03100206C
:102FE000D402002038B50546054808F081F80446AB
:102FF00020B10021083008F09AF82575204638BD28
:10300000F434002010B501464FF02003EFF3118097
:1030100083F311880B4A0023D2F8A040C2F8A030F5
:1030200080F3118824B90120BDE81040FFF7DABF12
:10303000012204F108002275A381194608F077F8EF
:10304000204610BDD0310020F7B51860C31D0546DD
:1030500023F00303501E0E4680B214461A8000214E
:10306000042206FB0050FEF75DFD023CA4B24FF6C1
:10307000FF77BC4201D103B0F0BD04FB06602B1802
:103080000422801B0DEB02012844013C0193A4B2F1
:10309000FEF71CFDEDE773B50568064695B1EB1D1F
:1030A00023F0030304221C8829460DEB0200FEF7DF
:1030B0000DFD019B013CA4B21BB1DA1D22F00302FD
:1030C00014803360284602B070BD70B50C680646A7
:1030D0000D461CB1E31D23F003031C88042229467E
:1030E0003046FEF7F3FCF21D22F00302631C13804E
:1030F0002E6070BD02FB01007047401A80B2B0FB29
:10310000F2F0704710B5114401384FF6FF73013AE1
:1031100092B29A4200D110BD11F8014D00F8014F52
:10312000F5E710600860704710B5146820601468F7
:103130006160106010BD884203D01AB1436813600B
:103140007047002070470B68834209D022B158684D
:1031500010601A680A6001E0002BFAD11846704727
:103160000023FBE72DE9F047114FDFF848900426D4
:10317000013EF6B2FF2E19D033B24FEA830803EBBB
:1031800043031D0104244FF00C0A0AE01AFB04510A
:103190000A1D04EB08003A44394409EBC000FFF76C
:1031A000C0FF013CE4B2FF2CF0D1E1E7BDE8F087BD
:1031B000C803002048030020F0B4124B05460F4618
:1031C0000C26302472B1614306FB00142344597A63
:1031D000187A814204BF0131197228463946F0BC81
:1031E00007F0E2BD4C4306FB004423449C7ADA7AA4
:1031F000A24204D101329A72F0BC07F035BEF0BC95
:10320000704700BFC8030020F8B505460E461C46AF
:103210008AB1012362782078801A10F0030729D040
:1032200003B3012F39D00132D2B222703146284681
:1032300007F01AFE1CE007F005FE0028E9D0314631
:10324000284607F0D9FD0028E3D030230C22734331
:1032500002FB0533124A1A44937AD27A9B1A18BF9A
:103260000123D7E70232D2B22270E368A068984700
:103270000020F8BD002BF8D00132D2B22270042316
:10328000302212FB06320C2313FB0523044A60682C
:103290001A442146FFF748FFC8E73846F8BD00BF8B
:1032A000C80300202DE9F04F00EB400389B01B015B
:1032B0004FF00008434E049305460424CDF80480E3
:1032C000013CE4B2FF2C0BD1019B002B76D0B8F16E
:1032D000000F73D142462946284607F065FD6DE090
:1032E0000DF1200B00230C274BF8043D4FF0300963
:1032F00007FB04F309FB053031185A46496830587A
:103300000293FFF718FF049B17FB0437F31982465B
:103310000393BAF1000F19D130220C236A4303FB47
:1033200004223244917AD07A88421EBFD17201229F
:10333000019230226A4303FB042333441A7A597AF8
:1033400091421CBF5A724FF00108B9E7079B1F78E2
:103350005A78BF1A07F00307012F04D1013A5A70B7
:103360009868DA689047079A13785278DBB29A1A0D
:1033700002F00302012A05930DD0029B039909FB79
:103380000530304400224068FFF7DDFE079A059BB8
:10339000C2F804A05370029B09FB0533F1185A468A
:1033A0004968F058FFF7C7FE012F8246B1D10CB92A
:1033B0000028B1D02946284607F056FD09B0BDE8DF
:1033C000F08F00BFC803002010B5421E0020013955
:1033D000C9B2FF2900D110BD12F8013F002BF6D071
:1033E0005C1E01302340C0B2F8E7F0B5437F0568AA
:1033F0001A460024FF2A01D10020F0BD02EB82070B
:103400008A4205EBC70615F8377004D0B3681C4430
:1034100013463A46EEE7934200D147771BB203EBDF
:1034200083033278B06805F833203378FF2B06D059
:1034300003EB830305EBC3039A6802449A602044BC
:10344000F0BD30B5551A15F4000F8368446909D1F1
:1034500025F07F421A44A2420ED9121B002482603A
:10346000446130BD8A1A22F07F42934201D99A1AF0
:10347000F1E72244D41A0022A41A0022EFE70346FF
:1034800000221A709A6A596208460AB1D96A10472E
:1034900070472DE9F047857F01230446C377002D4F
:1034A0004CD1437FFF2B02D1C577BDE8F08707F0F1
:1034B00023F86769667FD4F80080C71B27F07F4731
:1034C000FF2E06D006EB860608EBC6018B689F42EE
:1034D00018D2A27AE37A934205D10133DBB2022BF0
:1034E00008BF0023E372E37A04EB83030122DD606B
:1034F0000023656AE377AC46234604210320BDE838
:10350000F0476047FF1A1D448A784B7818F83660F8
:103510009B1ADBB2012BD3D1D1F80C90013A8A70FF
:10352000B9F1000FCCD048696369CA8B281A1844D6
:1035300020F07F400B69496AC847C1E7BDE8F087C2
:103540002DE9F04FC27F95B08346002A40F0BE833C
:10355000436907930121837A8177C07A984200F00A
:103560008F800B44DBB2022B08BF00238BF80A309C
:103570000BEB83030391D3F80C80079B434423F0A8
:103580007F43CBF814309BF81D300593DBF80030F7
:103590000693DBF804300D939BF80930013BDBB256
:1035A0000493002309934FF0FF0A049BFF2B6AD179
:1035B0009BF81D30059A9B1A18BF01230493039BA7
:1035C000E3B1DBF8003006934FF000099BF81D6073
:1035D000FF2E0CD037B2069B07EB870703EBC7041F
:1035E000A568454540F23681A5EB0805A560049B1A
:1035F000039A0599B14218BF13460493DBF80030D3
:103600000A93DBF8043012939BF80930013BDBB2DC
:103610000393039BFF2B40F070819BF81D30059AAC
:103620009342099B40F049835BB99BF80940DBF862
:1036300004300393013CE4B24FF00008FF2C40F04B
:10364000A08200238BF81E30049B4BB19BF81D30E9
:10365000FF2B40F0E98206F021FF08B9CBF81800F3
:103660009BF81F30002B00F03183DBF824405B46D1
:10367000012203210420A44615B0BDE8F04F6047A5
:10368000039290467FE70D9B049A03EBC2077B6889
:103690000893F978BE788E4200F0D780089B38787E
:1036A00006EB460212019D18731CDBB2984208BF5C
:1036B0000023BB70089B9A5C032AEBD9052A17D814
:1036C000697801EB81030C930C98069B03EBC00413
:1036D0006378A0781B1A13F0FF0309D0042A0CD1D9
:1036E0006A6852B9AA6842B9EA6832F07F4204D1E6
:1036F00001212846FFF7C3FECBE7012B40F09B805A
:103700005846FFF772FE2B78A060042B064640F067
:103710008480DBF814300A9306F0EEFE0A9B0B90CF
:10372000C31A23F07F4343449E4202469EBF626910
:10373000921B9B18626896BF6361F31A00238AB1DB
:10374000A98979B101F1FF3E1FFA8EFEA5F80CE0C0
:103750009A422BD3DFF82493B4F81EC0E64547D82D
:10376000A4F81CE0AA880A991344A360EA88636954
:10377000134463610B9A2046FFF763FEA2692B890D
:103780001344A3616A8993428CBF9B1A0023A361EF
:10379000AB7B03B1E370069B0C9A03F832A063780D
:1037A00095F801A0013363700021A2E7B4F81EC0B0
:1037B000E645CFD2616AAF4EAF488E19864281BFCF
:1037C00001F1E87101F5D43101F5A5716162666A14
:1037D000216A8CBF4FF001094FF00009761A91441D
:1037E0000CF1FF3C6662A3EB0903A4F81EC0AFE72F
:1037F000666A216AA0480E449E49711881428EBFB4
:10380000002101214E4411440CF1010C8CBF666271
:1038100066620B44A4F81EC09EE7A37863706B78C1
:103820009BF81C209A4201BFFF238BF81C30002319
:10383000CBF81830B8E704215B46DBF824400122BE
:103840000846A0470123BE700993049B013BDBB2ED
:103850000493AAE6DBF818309D4229BFFF235B1BC7
:103860008BF81C300023CBF81830A369A9441BB196
:103870008BF81C60CBF818300022069BA26013F86E
:1038800037308BF81D30D4F804E0BEF1000F30D093
:10389000A08BDFF8E4C1636A216A0B4475495918AB
:1038A00061459FBFA3F1E873A3F5D433A3F5A573D6
:1038B000636292BF039B63620023734410F1FF3085
:1038C0001A44E8D2079BA260DBF8141003EB09024C
:1038D0002046FFF7B6FDA38BE3830023E370069B2E
:1038E00003F837A0637801336370A8EB0508B2468C
:1038F0006CE6A37863705646F7E7129B039A03EBD6
:10390000C20306935B680C93069B93F80190BAF18F
:10391000FF0F00F08E800FFA8AF303EB83030A9AFD
:10392000D04612F833A002EBC3040025DBF80030C8
:103930000D93FF23A28B2370E38B934286BF9B1AC8
:103940009BB200230E930FFA88F303EB8303DB0093
:103950001393139BDBF80020DBF81800079002EBB1
:10396000030EFF209BF81D30DEF808100B93089023
:10397000FF2B07D003EB830C02EBCC06B06881422F
:1039800000F2A980DEF818000F9001EB000C1E4633
:10399000FF2E40F0AE800F9830B107988142C0F002
:1039A000BF80FF2E40F08E810B98CEF80810834226
:1039B00018BFBDF92C008EF8003016BF00EB800058
:1039C0008BF81D8002F83080FF2B06D003EB8303B9
:1039D00002EBC3039A68511A9960A37801336370AC
:1039E0000021002D93D02846FFF749FD8FE709EB12
:1039F00049030C9A1B01D51809F101025FFA82F9FB
:103A0000069A12784A4508BF4FF000090C9AD35C19
:103A1000032B0ED195F801800A9B08EB880403EB79
:103A2000C4046278A3789A4209D001212846FFF79E
:103A300026FD069B9B784B45D9D1039BE6E5EB68B9
:103A4000DBF8141063602B692362AB8AA383AB6934
:103A5000A361EB69E3602B6A23610026AB68A36076
:103A600066616A682046FFF7ECFC01236662E68324
:103A7000E3705BE75A2B17FF592B177FB6562EFEC4
:103A8000606800287BD0626A216A924B0A4492499E
:103A9000D3188B429CBFA2F1E872A2F5D432A3687E
:103AA0008BBF6262A2F5A57200226262034498BFD6
:103AB00001221344E28BA3600132E28362699342E4
:103AC0004FF0000189BF9B1AD31AA36061619CBFAC
:103AD0006361A1603DE7B669091A46B9079FB8421C
:103AE00000D23E1A0B93079612F83C3040E7089339
:103AF000F8E730B200EB800002EBC0071097BF6818
:103B0000119767450AD2109FBF69002F7FF443AF1A
:103B1000119EACEB060C12F8306039E7FF263AE74D
:103B2000089B98453FF459AF089BFF2BA8D01E4631
:103B300033B203EB83030793079A0D9B03EBC20792
:103B4000FB8BBA8B934288BF9B1A7A688CBF9BB25F
:103B50000023002A94D00E9A934291D8FA78E37801
:103B60009A428DD231465846FFF73FFCBB787B70B6
:103B7000079A0D9BB86003F832A0B246E9E601212E
:103B80002FE7039B03EBC4056E686B78EA789A42D3
:103B900002D1013CE4B251E503EB43031B01F218EF
:103BA000F35C012B25D0022B2AD1D2F804C09368F4
:103BB0009CF80000D2F80C90DBF800E0FF2804D05D
:103BC0001968DBF81470B94223D0DBF814009BF8B5
:103BD0001D1018600023FF2907D001EB810A0EEBAE
:103BE000CA0087698068DFB103448CF80010C9F807
:103BF0000030936AC2F8248013B1D16A002098473C
:103C00006B782A780133DBB29A4208BF00236B70CD
:103C1000BBE700EB8000D9F800301EF83010DAE77F
:103C200003441EF83A10D6E7059BFF2B07D106F098
:103C300063FC044606F024FC08B9CBF814409BF85A
:103C40001D30DBF8002003EB830302EBC3030A26DD
:103C50009D6806F051FCDBF81440031B23F07F4302
:103C60000333AB422CBFE418641924F07F440746A9
:103C7000DBF828302046984706F03EFCC01B20F0B9
:103C80007F40E41B033024F07F44A0427FF6E8AC81
:103C9000013EDED1114B01930093114A114B1249A1
:103CA0001248FDF7E3F8404080F311884FF004001C
:103CB00002DF00238BF81E30C8E4002BF9D101236A
:103CC0000493B2E4B0457FF433AF86E615B0BDE8A7
:103CD000F08F00BF5A2B17FF592B177FB3CB000073
:103CE0009BD40000BCD90000EAD40000D6D9000063
:103CF000F0B51A4D059F9DF818402C26464305EB5C
:103D0000060EAA518EF8081007998EF80930CEF8E1
:103D10000470013BDBB2FF2B11D1ECB92C2202FB6A
:103D2000005208991162099951620A999162537778
:103D30001377946154619472D4722046F0BD1AB224
:103D400007EBC206716017F8322002EB4206A41A94
:103D500001EB0611E4B2DCE70120F0BD880400208D
:103D6000074A2C2100FB012310B45C6A2CB1A44645
:103D700001220321022010BC604710BC704700BF25
:103D8000880400202DE9F047254F4FF02C0881468C
:103D900008FB00700FFA81FCD0F804E00EEBCC06B3
:103DA0001EF83CE0F478651CEDB2AE4598BF0025E6
:103DB00096F801E0AE452FD0D6F804C004EB4404D9
:103DC0004FEA041E0CEB0E044FF0030A0CF80EA091
:103DD0006360089BA360099BE3600A9B23610C9BC3
:103DE000A361BDF82C30A3820D9BE3610E9B23627F
:103DF000022363620F9BA362109B6270E362F57003
:103E0000456A036A0846984709FB087300220421A3
:103E1000A847606ABDE8F0870120BDE8F08700BFD1
:103E2000880400202DE9F047DFF890804FF02C0A3D
:103E30000AFB008E0FB2DEF80450814605EBC70086
:103E400015F83750C478661CF6B2B54298BF002604
:103E50004578B5422FD0D0F804C004EB44042501C6
:103E60000CEB050404270CF80570A380BDF8203086
:103E7000E380BDF824302381BDF828306381BDF88C
:103E80002C30A3819DF83030A373022363620D9B15
:103E9000A3620E9B6270E362C670DEF82030DEF82B
:103EA00024500846984709FB0A8300223946A84750
:103EB000606ABDE8F0870120BDE8F0878804002033
:103EC0002DE9F047DFF86C904FF02C0A0AFB009EBA
:103ED0008046DEF804000EB200EBC60710F836008C
:103EE000FC78651CEDB2A84298BF00257878A842FE
:103EF0001DD0786804EB4404240106194FF0050C2A
:103F000000F804C07270B3620222089B7262F3620E
:103F1000FD70DEF82030DEF824400846984708FBA4
:103F20000A9300220421A047706ABDE8F0870120AF
:103F3000BDE8F087880400202DE9F047DFF878809D
:103F40004FF02C0A81460AFB00800FFA81FE45687B
:103F500005EBCE0715F83E50FC78661CF6B2B5426C
:103F600098BF00267D78B54223D0D7F804C004EB73
:103F7000440425010CEB05044FF0020E0CF805E09B
:103F8000A360089BE360099BA362FF250A9B626014
:103F90006570C4F824E0E362FE70456A036A08466F
:103FA000984709FB0A8300220421A847606ABDE8FC
:103FB000F0870120BDE8F087880400202DE9F04754
:103FC000DFF86C904FF02C0A0AFB009E8046DEF86A
:103FD00004000EB200EBC60710F83600FC78651C32
:103FE000EDB2A84298BF00257878A8421DD0786825
:103FF00004EB4404240106194FF0010C00F804C03E
:10400000FF20707002207062B262F362FD70DEF811
:104010002030DEF824400846984708FB0A93002227
:104020000421A047706ABDE8F0870120BDE8F08751
:10403000880400202DE9F041084C2C2505FB0043A5
:1040400006465F6A1B6A0846984706FB0543BC465E
:1040500000220421BDE8F041604700BF8804002031
:1040600006F04ABA401A20F07F40704708B5034670
:10407000012B08460ED833B119B106220649FDF7C7
:1040800025FD054808BD19B106220449FDF71EFDAE
:10409000024808BD002008BDE6040020E00400201E
:1040A00070B506460D4605F07FF9044610B10C24A4
:1040B000204670BD05F08CF910F0060FF7D10622EE
:1040C00029461EB10248FDF701FDF1E70148FAE774
:1040D000E6040020E0040020002303700B7070470A
:1040E000F7B507460E460C46351B3D448CB1FCF730
:1040F000E9FE032C019007D904220DEB02012846AA
:10410000FDF7E4FC043CEFE7224601A92846FDF751
:10411000DDFC002003B0F0BD08B50248FEF750FDFD
:10412000002008BD28DA00007FB5214D00264FF0A1
:10413000FF31284607F0DCFD044618B300F0E4FE2A
:104140000228039421D801280EBF00214FF0FF312F
:104150000120FEF747FF044618B10146039800F01E
:1041600045FD039B0021D88805F00CFA04A850F8FF
:10417000043D1E6005F092F924B1A38920469BB14D
:10418000FEF7A2FB08F016F8D1E70A4B0193009363
:10419000094A0A4B0A490B48FCF768FE404080F385
:1041A00011884FF0040002DF06F0D2FFEAE700BFFB
:1041B000C4340020B3CB00009BD40000F9D9000028
:1041C000EAD400003AD400001FB5838904465BB9E5
:1041D000154B01930093154A154B16491648FCF7E9
:1041E00045FE6FF015000FE0027D92B900F0C8F9AE
:1041F00030B183681B780E3B012B07D9FEF764FBB7
:10420000204606F0A5FF002004B010BDFEF75AFCC2
:10421000F6E7054B029301920093044A044B0549CB
:104220000648FCF723FEDCE7B3CB00009BD400007C
:1042300005DA0000EAD4000069DA00008ADA00003A
:1042400037B50C4C0C4D0DF1020101A805F0EEF84C
:104250000028F8D1019B33B105F06EFC0199284686
:1042600007F022FDEFE74FF0FF31204608F031F86C
:10427000E9E700BFAC340020C434002010B51A4870
:1042800086B005F037FD044660B1184B02938DE807
:104290001800174A174B18491848FCF7E7FD204645
:1042A00006B010BD00F050FE6FF0090303930594B3
:1042B0000494029401940094114B124912484FF453
:1042C0003B7208F0CDF96FF0070303930594049453
:1042D0000294019400940D4B0D490E4840F22C526B
:1042E00008F0BEF9DBE700BFAC340020B3CB000020
:1042F0009BD4000015DA0000EAD400003CDA00008C
:1043000041420000401800206C11002029410000AB
:10431000301B0020FC100020C0F307230870000CA5
:104320008870000A4B70C870704738B508300D4669
:104330000221144606F03EFF0570447038BD0000AF
:1043400038B504464FF0FF300D46FEF75BFEEA1C21
:104350002060D2B20E21FFF7E8FF20680321083069
:1043600006F028FF01230370054B1B88A0F80130DD
:10437000206829460830BDE8384006F01BBF00BF62
:10438000EC04002070B50446154601320E46083490
:10439000D2B23E21FFF7C9FF0121204606F00AFFF5
:1043A000067029462046BDE8704006F003BF0000B5
:1043B00070B504461846134B1646D3E90023002275
:1043C00003F0005313430D461BD00F4BD3E90023DA
:1043D000002302F00802134313D00B220421FFF73D
:1043E000D1FF08220470A0F80160033024B9291D10
:1043F000BDE87040FDF76ABB0021BDE87040FDF7E5
:1044000091BB70BDA0320020A832002070B50378A7
:104410008AB004460E4607AD032B20D8DFE803F030
:1044200002191B1D11492846FDF724FB62780492EE
:10443000A2780392E2780292227901926279009244
:10444000A37905950A4A1B213046FCF71DFD0AB0E9
:1044500070BD0849E7E70849E5E70849E3E7084A86
:104460000A212846FCF710FDE0E700BF7AD00000E3
:10447000A3D0000081D0000088D0000092D00000BE
:104480009CD000002DE9F04104464078324D92B0B6
:10449000014407958B7A03905B425BB206932378C5
:1044A0000192D9090591C3F3801103F00F03049120
:1044B00002930095294B2A4A2A492B48FCF7D6FC3F
:1044C000237803F00F03072B43D16378002B40D0F0
:1044D000A3782449039503F03F029B0902920193BC
:1044E00000951E4B1E4A2148FCF7C0FCA378990694
:1044F0002FD0E378DA0704F104061CD5237812AF35
:10450000C3F3801307F8243D062231460DF12C0831
:104510000DF12500FDF7DAFA41463846FFF776FF40
:1045200002958DE820010D4B0D4A0E49104804F10B
:104530000A06FCF79BFCE3785B060AD5029596F920
:10454000003001930095054B054A06490948FCF7E0
:104550008DFC12B0BDE8F081B3CB0000C8DA0000DA
:10456000E3D40000EAD40000EADB000037DC0000FE
:1045700068DC000081DC0000034600685968704771
:10458000F0B5818999B00024022905460D940BD815
:10459000BB4B01930093BB4ABB4BBC49BC48FCF7E7
:1045A00065FC204619B0F0BD8368BA4E1A78587879
:1045B0009B7842EA00228B42328007D9B04B0193AC
:1045C0000093B04AB04BB149B348E8E7032105F185
:1045D000080006F006FE3388C3F309029B0A042B89
:1045E00068D007D8032B25D001210DA8FFF7A8FE1E
:1045F00001231FE1082B00F0DE803F2BF4D1013AAC
:10460000092AF1D801A353F822F000BF0D4A000097
:104610003B4A0000634A0000E9450000E94500000C
:10462000A74A0000E9450000794A0000B14A0000AD
:104630001D4B0000032A13D008D8012AD4D1A86842
:10464000FFF79AFF954BC3E9000103E02D2A1AD02A
:10465000632AC9D101210DA8FFF772FE047027E07B
:104660008F4B4FF0FF321A608C4B4FF0FF3041F60A
:10467000FF71C3E900018B4B1F200021C3E900013A
:1046800004F03AFEE6E7AB6804210DA81D889F7888
:10469000FFF756FEAEB20446C21C3946304604F05F
:1046A000BBFE002814BF022300232370A4F801508E
:1046B0000D9877E7013A082A96D801A353F822F01B
:1046C000E54600000F47000083470000E945000071
:1046D000E9450000E9450000E9450000E945000022
:1046E0009F47000009210DA8FFF72AFE0023037051
:1046F0008370C3706FF00E03437105230922837129
:104700004FF0FF3342700271C3710372D0E7412151
:104710000DA8FFF715FE00210446402200F8011BFA
:10472000FDF700FAE378217FA27E63F07F03E37058
:10473000A37963F03F03A371E37A43F00403E372C8
:10474000E37B43F02803E373237C43F002032374E9
:10475000E37D43F00403E375E37E61F03C0163F025
:1047600030032177E376617F94F8273041F0080128
:1047700062F0080263F07F036177A27684F8273045
:1047800096E709210DA8FFF7DBFD0021044608226A
:1047900000F8011BFDF7C6F96023637188E7072164
:1047A0000DA8FFF7CDFD0146002301F8013B184697
:1047B000FFF75CFC7CE70B2A00F019813CD8062A45
:1047C00000F0F1801ED8022A00F09A800ED8012A4B
:1047D0007FF40AAFA868FFF7CFFE324BC3E90001B0
:1047E00001210DA8FFF7ACFD002323E0032A00F010
:1047F0009380052A7FF4F8AEA9680120FFF750FCEA
:10480000044627E7082A00F0E680C0F07F81092AE5
:1048100000F0E7800A2A7FF4E7AEAB68187805F06D
:10482000B3FC044601210DA8FFF78AFD002C14BF3C
:104830000C23002303703BE7122A00F0938035D845
:104840000F2A7BD013D80C2A7FF4CEAEAA68144B63
:104850001078002800F0D7805278002A00F0D3802A
:1048600000221A60104B1A6005F00EFDD9E7102ADD
:104870006FD0112A7FF4B8AEA86805F069FDBFE7D4
:10488000B3CB00009BD40000B9DA0000EAD40000EA
:104890001EDB0000EC04002044DB0000A0320020FE
:1048A000F0040020A8320020F4040020182A5DD073
:1048B00015D8172A7FF498AEA86800230EAA00F135
:1048C000100105F04DFE11210DA8FFF739FD002361
:1048D00000F8013B10220EA9FDF7F8F8E8E61C2AC3
:1048E0004FD04B2A7FF480AE03210DA8FFF728FD9F
:1048F0000146002301F8023B0130FFF7EDFBD7E64C
:1049000004210DA8FFF71CFD002303701B228370F8
:1049100002234270C370CBE609210DA8FFF710FDFA
:1049200000210446082200F8011BFDF7FBF80C23C8
:1049300063704023A3700123E370B9E602210DA840
:10494000FFF7FEFC00230370044605F0E9FC6070ED
:10495000AEE601210DA8FFF7F3FC044605F0E2FCEA
:104960002070A5E6A86805F02BFD49E709210DA8F0
:10497000FFF7E6FC002300F8013B0821FFF7B0FB3E
:1049800096E609210DA8FFF7DBFC0146002204464C
:1049900001F8012B43F23330FFF7BEFC611D1046D6
:1049A000FFF7BAFC84E6A9680B790A880A9409948F
:1049B0000894079406940594887B0490487B0390A0
:1049C000C81D0290887901904979009120462146BE
:1049D00005F038FA14E7AB68591C187805F036FB77
:1049E000FEE6AB68591C187805F088FBF8E6AC6861
:1049F0006379B4F80320B4F801102078A479009406
:104A000005F022FC0DE74FF0FF322CE70D210DA839
:104A1000FFF796FC02224270C270012282710C22C2
:104A20000023C271632203708370037143710372A8
:104A300042728372C37203733AE641210DA8FFF7F5
:104A40007FFC00210446402200F8011BFDF76AF8B4
:104A5000637863F058036370A37843F00303A37093
:104A600026E609210DA8FFF76BFC002100F8011BC9
:104A70000822FDF757F81BE65B4B0EAA03F1280648
:104A8000154618685968144603C40833B3422246D1
:104A9000F7D129210DA8FFF753FC002300F8013BB3
:104AA0002822294618E7A9680020FFF7F9FA97E6B7
:104AB0004FF08053D3F8A420013206D1D3F8A830A8
:104AC0004FF6FF729BB2934220D04FF08055D5F83D
:104AD000A030DB071AD518210DA8FFF731FC0026FE
:104AE0000123044643700670D5F8A400A11CFFF70B
:104AF00013FCD5F8A830A371C3F3072363F03F0379
:104B0000E3711022314604F10800B2E702210DA83A
:104B1000FFF716FC002303704370C9E521210DA89F
:104B2000FFF70EFC0346002203F8012B4FF08052E2
:104B30000446D2F8901001314BD0D2F894100131D4
:104B400047D0D2F89810013143D0D2F89C100131EF
:104B50003FD0D2F890001946FFF7DEFB611DD2F876
:104B60009400FFF7D9FB04F10901D2F89800FFF790
:104B7000D3FB04F10D01D2F89C00FFF7CDFB4FF001
:104B80008052D2F88030013304F1110327D0D2F8DB
:104B90008410013123D0D2F8881001311FD0D2F80F
:104BA0008C1001311BD0D2F880001946FFF7B4FBFE
:104BB00004F11501D2F88400FFF7AEFB04F11901EE
:104BC000D2F88800FFF7A8FB04F11D01D2F88C0091
:104BD000E6E6102200211846FCF7A4FFCFE71022DA
:104BE0000021184645E700BF72DB00002DE9F047C1
:104BF0000379012B90B00446894600F1080700F0C4
:104C00001A81023B032B00F20781DFE803F002B6B2
:104C1000BCBE01238DF8253003238DF82630FF23F9
:104C20008DF827308DF8293002238DF82A30A54BD6
:104C300004228DF82820D3E90023002203F000533A
:104C4000002513438DF8245000F094809E4BD3E947
:104C50000023002302F00202134300F08B809B4EDE
:104C60003368AB4200F10A0849DBDFF898A23368E9
:104C70009D4227DB964DDFF85CA228680AEBC00056
:104C8000062241460230FCF721FF2B68227A0AEB0C
:104C9000C301C2F380124A70227A02F00F0101228E
:104CA0008A4031680AF833200F29D5BF013101331A
:104CB00029602B602B68D8BF3160102B1FD10023D7
:104CC0002B601CE0062251464046FCF7EAFEF0B994
:104CD000237A1AF8011C1A46C3F380138B4216D1AB
:104CE0007C4810F8353002F00F0223FA02F1C907B0
:104CF00040D4012101FA02F2134300F83530237A3F
:104D000003F00F03012B637A05D1002605E001357E
:104D10000AF1080AABE79E1FF6B2234406F10B0224
:104D2000D2B20221484693F80AA0FFF72BFB0123D9
:104D30000370237A10AA03F00F031344054613F8F7
:104D40001C3C4370237AC3F38013837006224146D0
:104D50000330FCF7BBFE0A3505F8016CCAF1000A06
:104D60004FFA8AFA324607F108012846FCF7AEFEF0
:104D700005F806A010B0BDE8F087012221463846AC
:104D8000FFF780FBF6E70422F8E74E4BD3E9002358
:104D9000002203F00053134300F10A0607D04A4BE8
:104DA000D3E90023002302F48022134323D1237A82
:104DB00010ADC3F38013062231460DF11D0005F836
:104DC000243DFCF783FE637A1C4409AEA47A314685
:104DD00028466442FFF71AFB64B23F4B049300225B
:104DE00001920093039402963C4B3D4A3D493E4854
:104DF000FCF73CF8BEE7082213214846FFF7C2FA49
:104E000000230370237AC3F38013437006223146D4
:104E10000230FCF75BFEADE72F4B01930093334B61
:104E2000334A30493348FCF721F8404080F3118879
:104E30004FF0040002DFC17AC58809290BD00C2984
:104E400010D0072938D1027B0E2A2AD14B462A4698
:104E500000211A2003E04B462A4639460020FFF77E
:104E6000A7FA87E7174BD3E90023002302F4006277
:104E700013433FF47FAF08224846FFF756FA082154
:104E800009EB010006F096F900230370A0F8015029
:104E9000237BC370B4F80D308380B4F80F30C38027
:104EA00068E70D4B0293019200930D4A124B0D4996
:104EB0001248FBF7DBFF5DE7074B01930093104BB4
:104EC000AEE700BFA0320020A8320020F00400208E
:104ED000F4040020F8040020B3CB0000DADA00006C
:104EE000E3D40000EAD400009ADB0000EFDA00000F
:104EF0009BD400003AD40000FEDA0000CDDB0000B5
:104F00000DDB0000FA0400200379012B0FD00A2BDF
:104F100015D8012000FA03F313F4B06F12D113F087
:104F20003C0F10D183F0400343F380107047037AA5
:104F300003F00303032B0CBF0220032070474FF044
:104F4000FF30704702207047084B4FF0FF321A6065
:104F5000074B4FF0FF3041F6FF71C3E90001054BED
:104F60001F200021C3E90001704700BFF0040020AA
:104F7000A0320020A832002020BF40BF20BF7047D1
:104F8000F0B50D4B89B005460E4601AA03F118078E
:104F900018685968144603C40833BB422246F7D147
:104FA0001B88238008AB1D4415F81C0C831B58423A
:104FB000584109B0F0BD00BF13CB00000860704736
:104FC00018B90B6843F000430B60704718B90B68C1
:104FD00023F000430B60704770B5031D451E00248D
:104FE0009D4201D1204670BD15F8016F0022A01826
:104FF000082AC0B201D10446F2E716F0010F03D02F
:105000000029F0D00139C9B276080132EFE700007B
:1050100010B50C4A92F83A3192F839118B4238BFE8
:1050200092F8384192F8391138BF1B195B1ADBB27C
:1050300098429DBF92F83911D2F8343153F82100CB
:10504000002010BD7805002030B590F85C3090F855
:105050005D10994228D190F91D30002B26DBC48CBD
:10506000828CA0F86440C48DA0F8622054437D2255
:1050700062434FF47A7492FBF4F2A0F8662090F841
:105080006020012565F30102D2B2002342F0040240
:10509000013980F87050C36680F8602080F85D1098
:1050A00080F85E50184630BD012030BD022030BD72
:1050B0002DE9F84F0C78944281460F4690463DD03A
:1050C0001F4ED6F8683133F83430038000254FF096
:1050D000020B06F5AE7A22B2D6F86801B9F800E004
:1050E00000EBC20130F83220964520D148680128F3
:1050F00020F003030AD9F3B1021D1CD04279D2B1CA
:10510000027902F00302013A012A14D8012215445F
:105110004A60EDB213B15146FDF7D7FF013496F85E
:105120006C21E4B2A24208BF00244445D3D13C70B4
:105130002846BDE8F88FC1F804B0EBE70025F7E793
:105140007805002010B5094B93F8102182420446DF
:105150000AD902464FF48271D3F80801FDF7CAFF5D
:1051600010B1038CA34200D0002010BD78050020B0
:105170002DE9F04186B00223052805460F4602932B
:105180000CD0062840D045D9073880B2FFF7DAFFA7
:10519000002800F0238190E840010FE0904B9E69C9
:1051A000D3F81C8002AB00930A468E4B03210020EB
:1051B000FEF786FE022811D0029B9BB9884CA37C87
:1051C00003F0FF00002B2DD0874B01930093874AFB
:1051D000874B884988480FE0FFF7CEFE029B022BE1
:1051E000FAD0E9E7029B012BE8D07F4B01930093B3
:1051F0007E4A7F4B7F498148FBF738FE404080F371
:1052000011884FF0040002DF754BD3F8D060D3F85B
:10521000D480D3E7744B01930093754B734A75495F
:105220007748E9E706AB0222A57443F8102D032165
:1052300000932A466B4BFEF743FE022825D0029BC3
:10524000002B69D1237C9D4202D0637C9D425FD1BB
:1052500006AB022243F80C2D002200930321614B80
:105260001046FEF72DFE02281DD101221146032013
:10527000FDF7A2FF039B022B15D15B4B019300931B
:105280005A4A604B5B496048B6E7637C9D4204D153
:10529000012211460320FDF78FFF029B022BCED186
:1052A000FFF76AFEF9E70398002850D10223049320
:1052B000237C3BB94C4B019300934C4A514B4D49D5
:1052C000524899E704AB00930122464B2074032116
:1052D000FEF7F6FD02280FD1012211460320FDF74B
:1052E0006BFF049B022B07D13F4B019300933F4A76
:1052F000444B404946487FE7049A9AB926F0004655
:10530000B04522D9434B11460320FDF77DFFA0B9DC
:10531000A37C0BB9012302930023A374029806B067
:10532000BDE8F081049B012B53D100221146394B7B
:105330000320FDF769FF024638B12B4B0193009320
:105340002A4A304B2B49344856E7344BDBE7039D60
:10535000012D3ED1FF2F29D006AB022243F8042DA8
:10536000032100933A461F4B0020FEF7A9FD0228B7
:105370000FD12A4629460320FDF71EFF059B022B6D
:1053800007D1194B01930093184A1E4B1949244821
:1053900032E7059B53B1059B012B07D0124B0193BC
:1053A0000093124A174B13491E4825E7E37C002B54
:1053B000AED01D4B04229A60002211460320FDF757
:1053C00023FF0028B9D1E37C002BA1D0FFF7D4FD47
:1053D000F9E7054B019300930A4B1FE701209EE775
:1053E00078050020BD4F0000B3CB00009BD4000027
:1053F00048E00000EAD4000051E7000011E7000097
:105400003AD4000034E0000089E70000BAE7000069
:10541000F4E70000F032002024E80000A033002070
:105420004AE800007CE800002033002013B51D4B43
:1054300004461A7801B3002A32D101280ED01A4B43
:1054400001930093194A1A4B1A491B48FBF70EFDAA
:10545000404080F311884FF0040002DF1870174BB2
:105460001146FDF7D1FED8B10F4B019300930F4ABF
:105470000F4B10491248E9E792B1197070B1012839
:1054800004D1104B002211462046EAE7064B019357
:105490000093064A064B07490B48D7E70B4BF1E749
:1054A00002B010BD88070020B3CB00009BD40000E1
:1054B00016DE0000EAD400006BE500006033002037
:1054C0009BE50000803300203AD4000070330020B8
:1054D0002DE9F04F8BB00024FF25DFF840918DF8C7
:1054E0001F50804693461F4601F1040A1C60089431
:1054F00026460223099309AB0293414B019308AB63
:1055000000930DF11F025B4641460020FEF714FD9B
:10551000022814D0099BB3B13A4B019300933A4A45
:105520003A4B3B493B48FBF7A1FC404080F31188D4
:105530004FF0040002DF41460020FEF77BFD099B8F
:10554000022BF8D0E6E79DF81F20FF2A4ED0062A4E
:10555000CFD999F8103107339A42CADA073A92B292
:105560004FF48271D9F80801FDF7C4FD0028C0D0BE
:1055700090F91D30002BBCDB0368089AD0F804E0DA
:10558000002B12DA816823F0004371452CBF5218BA
:105590007244D21AC168FF2D01F104010B4408D1F5
:1055A0009DF81F501C461646A3E7734538BF734647
:1055B000F0E73146104605930492FEF753FD04EBE5
:1055C0000A018842049A059BEAD913483444A4FB93
:1055D0000001072303FB041107A3D3E90023FAF713
:1055E00019FE803038600BB0BDE8F08FFF2DECD194
:1055F000F9E700BFAFF3008000CA9A3B000000004B
:10560000BD4F0000B3CB00009BD4000052DE000071
:10561000EAD400001FE900008D49FD1A780500203A
:1056200070B504780A78C4F38013B3EBD21F19D194
:1056300004F00F04012C01F1080600F1020508D066
:10564000062231462846FCF72CFAB0FA80F04009D1
:1056500070BD062231462846FCF723FA0028EFD118
:10566000204670BD002070BD13B51E4A92F8393136
:1056700092F83A1199420ED11B4B019300931B4AA9
:105680001B4B1C491C48FBF7F1FB404080F3118881
:105690004FF0040002DF92F83911D2F8343153F898
:1056A000211092F8703108680B7092F8393192F835
:1056B00038410133DBB29C4208BF002382F8393104
:1056C00002F5A472FDF730FD38B9074B0193009342
:1056D000064A074B07490948D5E702B0BDE8104024
:1056E00004F002BB78050020B3CB00009BD400007F
:1056F000C6DF0000EAD4000018E600006BE60000F8
:105700000B4A92F8783192F8791199420ED192F8B9
:10571000783102EB4303A3F8720192F87831013338
:10572000DBB2032B08BF002382F87831704700BF3B
:105730007805002007B570B1084B01930093084A23
:10574000084B09490948FBF791FB404080F3118859
:105750004FF0040002DF03B05DF804FBB3CB0000A0
:105760009BD4000062DD0000EAD400003FEA0000A4
:10577000012807B5114B16D19A7C052A04D10022C5
:105780009A7403B05DF804FB0D4B019300930D4A2E
:105790000D4B0E490E48FBF769FB404080F3118822
:1057A0004FF0040002DF1B7C052BEAD1044B019370
:1057B0000093044A044B05490648ECE778050020AD
:1057C000B3CB00009BD4000078DD0000EAD40000D9
:1057D0003AD4000085E90000012807B5114B16D125
:1057E0009A7C062A04D100229A7403B05DF804FB67
:1057F0000D4B019300930D4A0D4B0E490E48FBF7DC
:1058000035FB404080F311884FF0040002DF1B7C21
:10581000062BEAD1044B01930093044A044B05493B
:105820000648ECE778050020B3CB00009BD40000CD
:105830008FDD0000EAD400003AD4000000EA000046
:1058400007B590B10A4B9B7C052B0ED0094B0193F9
:105850000093094A094B0A490A48FBF707FB4040F5
:1058600080F311884FF0040002DF03B05DF804FB01
:1058700078050020B3CB00009BD40000A7DD00001A
:10588000EAD400006CEA000007B598B10B4B9B7C92
:10589000C9B299420ED00A4B01930093094A0A4BB0
:1058A0000A490B48FBF7E2FA404080F311884FF0B9
:1058B000040002DF03B05DF804FB00BF78050020A0
:1058C000B3CB00009BD40000C0DD0000EAD4000090
:1058D000BBEA0000044B1B7D23B1012100220846D6
:1058E000FDF76ABC704700BF78050020062810B598
:1058F0000C460AD9094BC21F92B24FF48271D3F8F9
:105900000801FDF7F7FB206010BD052804D006282C
:10591000034818BF002010BD024810BD78050020C4
:10592000480600209005002007B5074B019300931F
:10593000064A074B07490848FBF798FA404080F3AE
:1059400011884FF0040002DFB3CB00009BD40000AD
:10595000A4DE0000EAD400009BE50000064A08B57A
:1059600093601346002211461046FDF74DFC08B126
:10597000FFF7DAFF08BD00BF0033002007B50022A3
:105980000B4B11461046FDF73FFC70B1094B0193DC
:105990000093094A094B0A490A48FBF767FA404055
:1059A00080F311884FF0040002DF03B05DF804FBC0
:1059B000C0320020B3CB00009BD40000EFDD00001C
:1059C000EAD400009BE5000007B500220B4B11460E
:1059D0001046FDF719FC70B1094B01930093094A79
:1059E000094B0A490A48FBF741FA404080F3118805
:1059F0004FF0040002DF03B05DF804FB50330020D9
:105A0000B3CB00009BD400000BDE0000EAD4000002
:105A10009BE5000007B5124A137840B1591C11707C
:105A2000D3B9012003B05DF804EB04F05BB973B99E
:105A30000C4B019300930C4A0C4B0D490D48FBF79E
:105A400015FA404080F311884FF0040002DF013B5B
:105A5000DBB21370002BE5D003B05DF804FB00BF90
:105A60002C070020B3CB00009BD40000DBDD00003E
:105A7000EAD40000F0E400000020FFF7CBBF0000F4
:105A800007B5C0B2031F012B0ED9114B0193009330
:105A9000104A114B11491248FBF7E8F9404080F3D6
:105AA00011884FF0040002DF0E4A137D43B1043B1E
:105AB000012B05D9107503B05DF804EB04F0E0BECE
:105AC00004F010FF0028F6D003B05DF804FB00BF1F
:105AD000B3CB00009BD4000092DE0000EAD40000AB
